{
  "contractName": "AFS",
  "abi": [
    {
      "constant": true,
      "inputs": [],
      "name": "listed_",
      "outputs": [
        {
          "name": "",
          "type": "bool"
        }
      ],
      "payable": false,
      "stateMutability": "view",
      "type": "function"
    },
    {
      "constant": true,
      "inputs": [],
      "name": "lib_",
      "outputs": [
        {
          "name": "",
          "type": "address"
        }
      ],
      "payable": false,
      "stateMutability": "view",
      "type": "function"
    },
    {
      "constant": true,
      "inputs": [],
      "name": "did_",
      "outputs": [
        {
          "name": "",
          "type": "string"
        }
      ],
      "payable": false,
      "stateMutability": "view",
      "type": "function"
    },
    {
      "constant": true,
      "inputs": [
        {
          "name": "",
          "type": "bytes32"
        }
      ],
      "name": "rewards_",
      "outputs": [
        {
          "name": "",
          "type": "uint256"
        }
      ],
      "payable": false,
      "stateMutability": "view",
      "type": "function"
    },
    {
      "constant": true,
      "inputs": [],
      "name": "price_",
      "outputs": [
        {
          "name": "",
          "type": "uint256"
        }
      ],
      "payable": false,
      "stateMutability": "view",
      "type": "function"
    },
    {
      "constant": true,
      "inputs": [
        {
          "name": "",
          "type": "uint8"
        }
      ],
      "name": "metadata_",
      "outputs": [
        {
          "name": "invalid",
          "type": "bool"
        }
      ],
      "payable": false,
      "stateMutability": "view",
      "type": "function"
    },
    {
      "constant": true,
      "inputs": [],
      "name": "token_",
      "outputs": [
        {
          "name": "",
          "type": "address"
        }
      ],
      "payable": false,
      "stateMutability": "view",
      "type": "function"
    },
    {
      "constant": true,
      "inputs": [],
      "name": "version_",
      "outputs": [
        {
          "name": "",
          "type": "string"
        }
      ],
      "payable": false,
      "stateMutability": "view",
      "type": "function"
    },
    {
      "constant": true,
      "inputs": [],
      "name": "owner_",
      "outputs": [
        {
          "name": "",
          "type": "address"
        }
      ],
      "payable": false,
      "stateMutability": "view",
      "type": "function"
    },
    {
      "constant": true,
      "inputs": [
        {
          "name": "",
          "type": "bytes32"
        }
      ],
      "name": "purchasers_",
      "outputs": [
        {
          "name": "",
          "type": "bool"
        }
      ],
      "payable": false,
      "stateMutability": "view",
      "type": "function"
    },
    {
      "anonymous": false,
      "inputs": [
        {
          "indexed": false,
          "name": "_did",
          "type": "string"
        },
        {
          "indexed": false,
          "name": "_file",
          "type": "uint8"
        },
        {
          "indexed": false,
          "name": "_offset",
          "type": "uint256"
        },
        {
          "indexed": false,
          "name": "_buffer",
          "type": "bytes"
        }
      ],
      "name": "Commit",
      "type": "event"
    },
    {
      "anonymous": false,
      "inputs": [
        {
          "indexed": false,
          "name": "_did",
          "type": "string"
        }
      ],
      "name": "Unlisted",
      "type": "event"
    },
    {
      "anonymous": false,
      "inputs": [
        {
          "indexed": false,
          "name": "_did",
          "type": "string"
        },
        {
          "indexed": false,
          "name": "_price",
          "type": "uint256"
        }
      ],
      "name": "PriceSet",
      "type": "event"
    },
    {
      "anonymous": false,
      "inputs": [
        {
          "indexed": false,
          "name": "_did",
          "type": "string"
        },
        {
          "indexed": false,
          "name": "_reward",
          "type": "uint256"
        }
      ],
      "name": "RewardDeposited",
      "type": "event"
    },
    {
      "anonymous": false,
      "inputs": [
        {
          "indexed": false,
          "name": "_did",
          "type": "string"
        },
        {
          "indexed": false,
          "name": "_distributed",
          "type": "uint256"
        },
        {
          "indexed": false,
          "name": "_returned",
          "type": "uint256"
        }
      ],
      "name": "RewardDistributed",
      "type": "event"
    },
    {
      "anonymous": false,
      "inputs": [
        {
          "indexed": false,
          "name": "_purchaser",
          "type": "string"
        },
        {
          "indexed": false,
          "name": "_did",
          "type": "string"
        },
        {
          "indexed": false,
          "name": "_download",
          "type": "bool"
        }
      ],
      "name": "Purchased",
      "type": "event"
    },
    {
      "constant": false,
      "inputs": [
        {
          "name": "_data",
          "type": "bytes"
        }
      ],
      "name": "init",
      "outputs": [],
      "payable": false,
      "stateMutability": "nonpayable",
      "type": "function"
    },
    {
      "constant": false,
      "inputs": [
        {
          "name": "_price",
          "type": "uint256"
        }
      ],
      "name": "setPrice",
      "outputs": [],
      "payable": false,
      "stateMutability": "nonpayable",
      "type": "function"
    },
    {
      "constant": false,
      "inputs": [
        {
          "name": "_reward",
          "type": "uint256"
        }
      ],
      "name": "depositReward",
      "outputs": [
        {
          "name": "success",
          "type": "bool"
        }
      ],
      "payable": false,
      "stateMutability": "nonpayable",
      "type": "function"
    },
    {
      "constant": false,
      "inputs": [
        {
          "name": "_addresses",
          "type": "address[]"
        },
        {
          "name": "_amounts",
          "type": "uint256[]"
        }
      ],
      "name": "distributeReward",
      "outputs": [
        {
          "name": "success",
          "type": "bool"
        }
      ],
      "payable": false,
      "stateMutability": "nonpayable",
      "type": "function"
    },
    {
      "constant": false,
      "inputs": [
        {
          "name": "_purchaser",
          "type": "string"
        },
        {
          "name": "_download",
          "type": "bool"
        }
      ],
      "name": "purchase",
      "outputs": [
        {
          "name": "success",
          "type": "bool"
        }
      ],
      "payable": false,
      "stateMutability": "nonpayable",
      "type": "function"
    },
    {
      "constant": false,
      "inputs": [
        {
          "name": "_file",
          "type": "uint8"
        },
        {
          "name": "_offset",
          "type": "uint256"
        },
        {
          "name": "_buffer",
          "type": "bytes"
        },
        {
          "name": "_last_write",
          "type": "bool"
        }
      ],
      "name": "write",
      "outputs": [
        {
          "name": "success",
          "type": "bool"
        }
      ],
      "payable": false,
      "stateMutability": "nonpayable",
      "type": "function"
    },
    {
      "constant": true,
      "inputs": [
        {
          "name": "_file",
          "type": "uint8"
        },
        {
          "name": "_offset",
          "type": "uint256"
        }
      ],
      "name": "read",
      "outputs": [
        {
          "name": "buffer",
          "type": "bytes"
        }
      ],
      "payable": false,
      "stateMutability": "view",
      "type": "function"
    },
    {
      "constant": false,
      "inputs": [],
      "name": "unlist",
      "outputs": [
        {
          "name": "success",
          "type": "bool"
        }
      ],
      "payable": false,
      "stateMutability": "nonpayable",
      "type": "function"
    }
  ],
  "bytecode": "0x60806040526040805190810160405280600181526020017f3100000000000000000000000000000000000000000000000000000000000000815250600190805190602001906200005192919062000066565b503480156200005f57600080fd5b5062000115565b828054600181600116156101000203166002900490600052602060002090601f016020900481019282601f10620000a957805160ff1916838001178555620000da565b82800160010185558215620000da579182015b82811115620000d9578251825591602001919060010190620000bc565b5b509050620000e99190620000ed565b5090565b6200011291905b808211156200010e576000816000905550600101620000f4565b5090565b90565b61251780620001256000396000f3006080604052600436106100fc576000357c0100000000000000000000000000000000000000000000000000000000900463ffffffff1680631e2720ff146101015780632a6363be146101465780633c6acea51461017557806346f60dee146101eb57806347269720146102425780634ddf47d4146102d25780635ee6fa611461033b578063822b096e1461038057806391b7f5ed146103eb578063a0d5850114610418578063bb66f9f614610447578063bf466b4a146104fa578063ce40b03f14610559578063ce605ea914610584578063d56805e1146105cc578063dd1bb1fc14610623578063e7663079146106b3578063f5bd3e3f1461070a575b600080fd5b34801561010d57600080fd5b5061012c60048036038101908080359060200190929190505050610753565b604051808215151515815260200191505060405180910390f35b34801561015257600080fd5b5061015b610cd7565b604051808215151515815260200191505060405180910390f35b34801561018157600080fd5b506101d1600480360381019080803560ff16906020019092919080359060200190929190803590602001908201803590602001919091929391929390803515159060200190929190505050610cea565b604051808215151515815260200191505060405180910390f35b3480156101f757600080fd5b50610200610f71565b604051808273ffffffffffffffffffffffffffffffffffffffff1673ffffffffffffffffffffffffffffffffffffffff16815260200191505060405180910390f35b34801561024e57600080fd5b50610257610f97565b6040518080602001828103825283818151815260200191508051906020019080838360005b8381101561029757808201518184015260208101905061027c565b50505050905090810190601f1680156102c45780820380516001836020036101000a031916815260200191505b509250505060405180910390f35b3480156102de57600080fd5b50610339600480360381019080803590602001908201803590602001908080601f0160208091040260200160405190810160405280939291908181526020018383808284378201915050505050509192919290505050611035565b005b34801561034757600080fd5b5061036a6004803603810190808035600019169060200190929190505050611139565b6040518082815260200191505060405180910390f35b34801561038c57600080fd5b506103d1600480360381019080803590602001908201803590602001919091929391929390803590602001908201803590602001919091929391929390505050611151565b604051808215151515815260200191505060405180910390f35b3480156103f757600080fd5b5061041660048036038101908080359060200190929190505050611855565b005b34801561042457600080fd5b5061042d6119e9565b604051808215151515815260200191505060405180910390f35b34801561045357600080fd5b5061047f600480360381019080803560ff16906020019092919080359060200190929190505050611bf2565b6040518080602001828103825283818151815260200191508051906020019080838360005b838110156104bf5780820151818401526020810190506104a4565b50505050905090810190601f1680156104ec5780820380516001836020036101000a031916815260200191505b509250505060405180910390f35b34801561050657600080fd5b5061053f600480360381019080803590602001908201803590602001919091929391929390803515159060200190929190505050611d0a565b604051808215151515815260200191505060405180910390f35b34801561056557600080fd5b5061056e61230c565b6040518082815260200191505060405180910390f35b34801561059057600080fd5b506105b2600480360381019080803560ff169060200190929190505050612312565b604051808215151515815260200191505060405180910390f35b3480156105d857600080fd5b506105e161233d565b604051808273ffffffffffffffffffffffffffffffffffffffff1673ffffffffffffffffffffffffffffffffffffffff16815260200191505060405180910390f35b34801561062f57600080fd5b50610638612363565b6040518080602001828103825283818151815260200191508051906020019080838360005b8381101561067857808201518184015260208101905061065d565b50505050905090810190601f1680156106a55780820380516001836020036101000a031916815260200191505b509250505060405180910390f35b3480156106bf57600080fd5b506106c8612401565b604051808273ffffffffffffffffffffffffffffffffffffffff1673ffffffffffffffffffffffffffffffffffffffff16815260200191505060405180910390f35b34801561071657600080fd5b506107396004803603810190808035600019169060200190929190505050612426565b604051808215151515815260200191505060405180910390f35b600080600033604051602001808273ffffffffffffffffffffffffffffffffffffffff1673ffffffffffffffffffffffffffffffffffffffff166c010000000000000000000000000281526014019150506040516020818303038152906040526040518082805190602001908083835b6020831015156107e857805182526020820191506020810190506020830392506107c3565b6001836020036101000a0380198251168184511680821785525050505050509050019150506040518091039020915060086000836000191660001916815260200190815260200160002060009054906101000a900460ff1615610ccb57600260009054906101000a900473ffffffffffffffffffffffffffffffffffffffff1673ffffffffffffffffffffffffffffffffffffffff1663dd62ed3e33306040518363ffffffff167c0100000000000000000000000000000000000000000000000000000000028152600401808373ffffffffffffffffffffffffffffffffffffffff1673ffffffffffffffffffffffffffffffffffffffff1681526020018273ffffffffffffffffffffffffffffffffffffffff1673ffffffffffffffffffffffffffffffffffffffff16815260200192505050602060405180830381600087803b15801561093657600080fd5b505af115801561094a573d6000803e3d6000fd5b505050506040513d602081101561096057600080fd5b81019080805190602001909291905050509050838110158015610ab35750600260009054906101000a900473ffffffffffffffffffffffffffffffffffffffff1673ffffffffffffffffffffffffffffffffffffffff166323b872dd3330876040518463ffffffff167c0100000000000000000000000000000000000000000000000000000000028152600401808473ffffffffffffffffffffffffffffffffffffffff1673ffffffffffffffffffffffffffffffffffffffff1681526020018373ffffffffffffffffffffffffffffffffffffffff1673ffffffffffffffffffffffffffffffffffffffff1681526020018281526020019350505050602060405180830381600087803b158015610a7757600080fd5b505af1158015610a8b573d6000803e3d6000fd5b505050506040513d6020811015610aa157600080fd5b81019080805190602001909291905050505b15610cca578360076000846000191660001916815260200190815260200160002060008282540192505081905550600260009054906101000a900473ffffffffffffffffffffffffffffffffffffffff1673ffffffffffffffffffffffffffffffffffffffff166370a08231306040518263ffffffff167c0100000000000000000000000000000000000000000000000000000000028152600401808273ffffffffffffffffffffffffffffffffffffffff1673ffffffffffffffffffffffffffffffffffffffff168152602001915050602060405180830381600087803b158015610b9e57600080fd5b505af1158015610bb2573d6000803e3d6000fd5b505050506040513d6020811015610bc857600080fd5b81019080805190602001909291905050506007600084600019166000191681526020019081526020016000205411151515610bff57fe5b7fffa127676dfb7fc4c3eec888bf0cd1222a23b8825c4e8d1eff4b9e23cc8f16e86004856040518080602001838152602001828103825284818154600181600116156101000203166002900481526020019150805460018160011615610100020316600290048015610cb25780601f10610c8757610100808354040283529160200191610cb2565b820191906000526020600020905b815481529060010190602001808311610c9557829003601f168201915b5050935050505060405180910390a160019250610cd0565b5b600092505b5050919050565b600560009054906101000a900460ff1681565b60008060009054906101000a900473ffffffffffffffffffffffffffffffffffffffff168073ffffffffffffffffffffffffffffffffffffffff163373ffffffffffffffffffffffffffffffffffffffff16141515610db1576040517f08c379a00000000000000000000000000000000000000000000000000000000081526004018080602001828103825260168152602001807f53656e646572206e6f7420617574686f72697a65642e0000000000000000000081525060200191505060405180910390fd5b600960008860ff1660ff16815260200190815260200160002060020160009054906101000a900460ff16151515610de757600080fd5b8484600960008a60ff1660ff16815260200190815260200160002060000160008981526020019081526020016000209190610e23929190612446565b50600960008860ff1660ff1681526020019081526020016000206001018690806001815401808255809150509060018203906000526020600020016000909192909190915055508215610f63577fd2f56baeb2e8836bbf63f5bc75cb743b754fa61b9e7bf53024bd3e4cb2dc93f460048888888860405180806020018660ff1660ff16815260200185815260200180602001838103835288818154600181600116156101000203166002900481526020019150805460018160011615610100020316600290048015610f365780601f10610f0b57610100808354040283529160200191610f36565b820191906000526020600020905b815481529060010190602001808311610f1957829003601f168201915b50508381038252858582818152602001925080828437820191505097505050505050505060405180910390a15b600191505095945050505050565b600360009054906101000a900473ffffffffffffffffffffffffffffffffffffffff1681565b60048054600181600116156101000203166002900480601f01602080910402602001604051908101604052809291908181526020018280546001816001161561010002031660029004801561102d5780601f106110025761010080835404028352916020019161102d565b820191906000526020600020905b81548152906001019060200180831161101057829003601f168201915b505050505081565b6000806000336000806101000a81548173ffffffffffffffffffffffffffffffffffffffff021916908373ffffffffffffffffffffffffffffffffffffffff160217905550602084019250825191506040840192508251905081600260006101000a81548173ffffffffffffffffffffffffffffffffffffffff021916908373ffffffffffffffffffffffffffffffffffffffff16021790555080600360006101000a81548173ffffffffffffffffffffffffffffffffffffffff021916908373ffffffffffffffffffffffffffffffffffffffff1602179055506001600560006101000a81548160ff021916908315150217905550600060068190555050505050565b60076020528060005260406000206000915090505481565b600080600080600080600033604051602001808273ffffffffffffffffffffffffffffffffffffffff1673ffffffffffffffffffffffffffffffffffffffff166c010000000000000000000000000281526014019150506040516020818303038152906040526040518082805190602001908083835b6020831015156111ec57805182526020820191506020810190506020830392506111c7565b6001836020036101000a0380198251168184511680821785525050505050509050019150506040518091039020955060006007600088600019166000191681526020019081526020016000205411801561124b5750888890508b8b9050145b151561125657600080fd5b600093505b8888905084101561128c57888885818110151561127457fe5b9050602002013585019450838060010194505061125b565b600260009054906101000a900473ffffffffffffffffffffffffffffffffffffffff1673ffffffffffffffffffffffffffffffffffffffff166370a08231306040518263ffffffff167c0100000000000000000000000000000000000000000000000000000000028152600401808273ffffffffffffffffffffffffffffffffffffffff1673ffffffffffffffffffffffffffffffffffffffff168152602001915050602060405180830381600087803b15801561134957600080fd5b505af115801561135d573d6000803e3d6000fd5b505050506040513d602081101561137357600080fd5b810190808051906020019092919050505060076000886000191660001916815260200190815260200160002054111580156113c95750846007600088600019166000191681526020019081526020016000205410155b15156113d457600080fd5b60019650600092505b8a8a90508310156115b957600260009054906101000a900473ffffffffffffffffffffffffffffffffffffffff1673ffffffffffffffffffffffffffffffffffffffff166323b872dd308d8d87818110151561143557fe5b9050602002013573ffffffffffffffffffffffffffffffffffffffff168c8c88818110151561146057fe5b905060200201356040518463ffffffff167c0100000000000000000000000000000000000000000000000000000000028152600401808473ffffffffffffffffffffffffffffffffffffffff1673ffffffffffffffffffffffffffffffffffffffff1681526020018373ffffffffffffffffffffffffffffffffffffffff1673ffffffffffffffffffffffffffffffffffffffff1681526020018281526020019350505050602060405180830381600087803b15801561151f57600080fd5b505af1158015611533573d6000803e3d6000fd5b505050506040513d602081101561154957600080fd5b8101908080519060200190929190505050915081156115a057888884818110151561157057fe5b90506020020135600760008860001916600019168152602001908152602001600020600082825403925050819055505b8680156115aa5750815b965082806001019350506113dd565b600090506000600760008860001916600019168152602001908152602001600020541180156117335750600260009054906101000a900473ffffffffffffffffffffffffffffffffffffffff1673ffffffffffffffffffffffffffffffffffffffff166323b872dd3033600760008b60001916600019168152602001908152602001600020546040518463ffffffff167c0100000000000000000000000000000000000000000000000000000000028152600401808473ffffffffffffffffffffffffffffffffffffffff1673ffffffffffffffffffffffffffffffffffffffff1681526020018373ffffffffffffffffffffffffffffffffffffffff1673ffffffffffffffffffffffffffffffffffffffff1681526020018281526020019350505050602060405180830381600087803b1580156116f757600080fd5b505af115801561170b573d6000803e3d6000fd5b505050506040513d602081101561172157600080fd5b81019080805190602001909291905050505b15611778576007600087600019166000191681526020019081526020016000205490506000600760008860001916600019168152602001908152602001600020819055505b7f4e43b8c8795454d46f4b1322d0e6fcb2ffb8db062e02097701962e01917c659e60048287038360405180806020018481526020018381526020018281038252858181546001816001161561010002031660029004815260200191508054600181600116156101000203166002900480156118345780601f1061180957610100808354040283529160200191611834565b820191906000526020600020905b81548152906001019060200180831161181757829003601f168201915b505094505050505060405180910390a1869650505050505050949350505050565b6000809054906101000a900473ffffffffffffffffffffffffffffffffffffffff168073ffffffffffffffffffffffffffffffffffffffff163373ffffffffffffffffffffffffffffffffffffffff1614151561191a576040517f08c379a00000000000000000000000000000000000000000000000000000000081526004018080602001828103825260168152602001807f53656e646572206e6f7420617574686f72697a65642e0000000000000000000081525060200191505060405180910390fd5b816006819055507fd36541c06b2fd871e44629372893c1c3d4dd782ebe28a03689b3e3bb6d495f74600460065460405180806020018381526020018281038252848181546001816001161561010002031660029004815260200191508054600181600116156101000203166002900480156119d65780601f106119ab576101008083540402835291602001916119d6565b820191906000526020600020905b8154815290600101906020018083116119b957829003601f168201915b5050935050505060405180910390a15050565b60008060009054906101000a900473ffffffffffffffffffffffffffffffffffffffff168073ffffffffffffffffffffffffffffffffffffffff163373ffffffffffffffffffffffffffffffffffffffff16141515611ab0576040517f08c379a00000000000000000000000000000000000000000000000000000000081526004018080602001828103825260168152602001807f53656e646572206e6f7420617574686f72697a65642e0000000000000000000081525060200191505060405180910390fd5b6001600960008060ff16815260200190815260200160002060020160006101000a81548160ff021916908315150217905550600160096000600160ff16815260200190815260200160002060020160006101000a81548160ff0219169083151502179055506000600560006101000a81548160ff0219169083151502179055507f703f3c2056f304c9fba60a2602a3c5ecc5fdc04d6f8a5bffef5be2fbd881bc9a60046040518080602001828103825283818154600181600116156101000203166002900481526020019150805460018160011615610100020316600290048015611bdc5780601f10611bb157610100808354040283529160200191611bdc565b820191906000526020600020905b815481529060010190602001808311611bbf57829003601f168201915b50509250505060405180910390a1600191505090565b6060600960008460ff1660ff16815260200190815260200160002060020160009054906101000a900460ff1615611c3b5760206040519081016040528060008152509050611d04565b600960008460ff1660ff16815260200190815260200160002060000160008381526020019081526020016000208054600181600116156101000203166002900480601f016020809104026020016040519081016040528092919081815260200182805460018160011615610100020316600290048015611cfc5780601f10611cd157610100808354040283529160200191611cfc565b820191906000526020600020905b815481529060010190602001808311611cdf57829003601f168201915b505050505090505b92915050565b6000806000600260009054906101000a900473ffffffffffffffffffffffffffffffffffffffff1673ffffffffffffffffffffffffffffffffffffffff1663dd62ed3e33306040518363ffffffff167c0100000000000000000000000000000000000000000000000000000000028152600401808373ffffffffffffffffffffffffffffffffffffffff1673ffffffffffffffffffffffffffffffffffffffff1681526020018273ffffffffffffffffffffffffffffffffffffffff1673ffffffffffffffffffffffffffffffffffffffff16815260200192505050602060405180830381600087803b158015611e0057600080fd5b505af1158015611e14573d6000803e3d6000fd5b505050506040513d6020811015611e2a57600080fd5b810190808051906020019092919050505091506006548210151515611e4e57600080fd5b600260009054906101000a900473ffffffffffffffffffffffffffffffffffffffff1673ffffffffffffffffffffffffffffffffffffffff166323b872dd336000809054906101000a900473ffffffffffffffffffffffffffffffffffffffff166006546040518463ffffffff167c0100000000000000000000000000000000000000000000000000000000028152600401808473ffffffffffffffffffffffffffffffffffffffff1673ffffffffffffffffffffffffffffffffffffffff1681526020018373ffffffffffffffffffffffffffffffffffffffff1673ffffffffffffffffffffffffffffffffffffffff1681526020018281526020019350505050602060405180830381600087803b158015611f6a57600080fd5b505af1158015611f7e573d6000803e3d6000fd5b505050506040513d6020811015611f9457600080fd5b8101908080519060200190929190505050156122fe5733604051602001808273ffffffffffffffffffffffffffffffffffffffff1673ffffffffffffffffffffffffffffffffffffffff166c010000000000000000000000000281526014019150506040516020818303038152906040526040518082805190602001908083835b60208310151561203a5780518252602082019150602081019050602083039250612015565b6001836020036101000a03801982511681845116808217855250505050505090500191505060405180910390209050600160086000836000191660001916815260200190815260200160002060006101000a81548160ff021916908315150217905550600360009054906101000a900473ffffffffffffffffffffffffffffffffffffffff1673ffffffffffffffffffffffffffffffffffffffff16638ff4e0a7878760046040518463ffffffff167c0100000000000000000000000000000000000000000000000000000000028152600401808060200180602001838103835286868281815260200192508082843782019150508381038252848181546001816001161561010002031660029004815260200191508054600181600116156101000203166002900480156121b05780601f10612185576101008083540402835291602001916121b0565b820191906000526020600020905b81548152906001019060200180831161219357829003601f168201915b505095505050505050600060405180830381600087803b1580156121d357600080fd5b505af11580156121e7573d6000803e3d6000fd5b505050507fe48738fe73302c1ae839e5374a102bdbba0f4cf6b5da2605462bddef2e1844b0868660048760405180806020018060200184151515158152602001838103835287878281815260200192508082843782019150508381038252858181546001816001161561010002031660029004815260200191508054600181600116156101000203166002900480156122c15780601f10612296576101008083540402835291602001916122c1565b820191906000526020600020905b8154815290600101906020018083116122a457829003601f168201915b5050965050505050505060405180910390a18380156122e1575060065482115b156122f5576122f36006548303610753565b505b60019250612303565b600092505b50509392505050565b60065481565b60096020528060005260406000206000915090508060020160009054906101000a900460ff16905081565b600260009054906101000a900473ffffffffffffffffffffffffffffffffffffffff1681565b60018054600181600116156101000203166002900480601f0160208091040260200160405190810160405280929190818152602001828054600181600116156101000203166002900480156123f95780601f106123ce576101008083540402835291602001916123f9565b820191906000526020600020905b8154815290600101906020018083116123dc57829003601f168201915b505050505081565b6000809054906101000a900473ffffffffffffffffffffffffffffffffffffffff1681565b60086020528060005260406000206000915054906101000a900460ff1681565b828054600181600116156101000203166002900490600052602060002090601f016020900481019282601f1061248757803560ff19168380011785556124b5565b828001600101855582156124b5579182015b828111156124b4578235825591602001919060010190612499565b5b5090506124c291906124c6565b5090565b6124e891905b808211156124e45760008160009055506001016124cc565b5090565b905600a165627a7a72305820e06cb7de19538919ef2f5c0df92f8fc70f63e719b860bc0314c9593a63dff8fa0029",
  "source": "pragma solidity ^0.4.24;\n\nimport \"./Library.sol\";\nimport \"./ARAToken.sol\";\n\ncontract AFS {\n  address  public owner_;\n  string   public version_ = \"1\";\n\n  ARAToken public token_;\n  Library  public lib_;\n\n  string   public did_;\n  bool     public listed_;\n  uint256  public price_;\n\n  mapping(bytes32 => uint256) public rewards_;\n  mapping(bytes32 => bool)    public purchasers_;\n  mapping(uint8 => Buffers) public metadata_;\n\n  struct Buffers {\n    mapping (uint256 => bytes) buffers;\n    uint256[] offsets;\n    bool invalid;\n  }\n\n  event Commit(string _did, uint8 _file, uint256 _offset, bytes _buffer);\n  event Unlisted(string _did);\n  event PriceSet(string _did, uint256 _price);\n  event RewardDeposited(string _did, uint256 _reward);\n  event RewardDistributed(string _did, uint256 _distributed, uint256 _returned);\n  event Purchased(string _purchaser, string _did, bool _download);\n\n  modifier onlyBy(address _account)\n  {\n      require(\n          msg.sender == _account,\n          \"Sender not authorized.\"\n      );\n      _;\n  }\n\n  function init(bytes _data) public {\n    owner_    = msg.sender;\n    _data;\n    uint256 btsptr;\n    /* solium-disable-next-line security/no-inline-assembly */\n    address tokenAddr;\n    address libAddr;\n    assembly {\n        btsptr := add(_data, /*BYTES_HEADER_SIZE*/32)\n        tokenAddr := mload(btsptr)\n        btsptr := add(_data, /*BYTES_HEADER_SIZE*/64)\n        libAddr := mload(btsptr)\n    }\n    token_    = ARAToken(tokenAddr);\n    lib_      = Library(libAddr);\n    listed_   = true;\n    price_    = 0;\n  }\n\n  function setPrice(uint256 _price) external onlyBy(owner_) {\n    price_ = _price;\n    emit PriceSet(did_, price_);\n  }\n\n  function depositReward(uint256 _reward) public returns (bool success) {\n    bytes32 hashedAddress = keccak256(abi.encodePacked(msg.sender));\n    if (purchasers_[hashedAddress]) {\n      uint256 allowance = token_.allowance(msg.sender, address(this));\n      if (allowance >= _reward \n        && token_.transferFrom(msg.sender, address(this), _reward)) {\n        rewards_[hashedAddress] += _reward;\n        assert(rewards_[hashedAddress] <= token_.balanceOf(address(this)));\n        emit RewardDeposited(did_, _reward);\n        return true;\n      }\n    }\n    return false;\n  }\n\n  function distributeReward(address[] _addresses, uint256[] _amounts) external returns (bool success) {\n    bytes32 hashedAddress = keccak256(abi.encodePacked(msg.sender));\n    require(rewards_[hashedAddress] > 0 && _addresses.length == _amounts.length);\n\n    uint256 totalRewards;\n    for (uint256 i = 0; i < _amounts.length; i++) {\n      totalRewards += _amounts[i];\n    }\n    require(rewards_[hashedAddress] <= token_.balanceOf(address(this)) \n      && rewards_[hashedAddress] >= totalRewards);\n\n    success = true;\n    for (uint256 j = 0; j < _addresses.length; j++) {\n      bool transferred = token_.transferFrom(address(this), _addresses[j], _amounts[j]);\n      if (transferred) {\n        rewards_[hashedAddress] -= _amounts[j];\n      }\n      success = success && transferred;\n    }\n\n    uint256 returned = 0;\n    if (rewards_[hashedAddress] > 0 \n      && token_.transferFrom(address(this), msg.sender, rewards_[hashedAddress])) {\n      returned = rewards_[hashedAddress];\n      rewards_[hashedAddress] = 0;\n    }\n\n    emit RewardDistributed(did_, totalRewards - returned, returned);\n\n    return success;\n  }\n\n  function purchase(string _purchaser, bool _download) external returns (bool success) {\n    uint256 allowance = token_.allowance(msg.sender, address(this));\n    require (allowance >= price_); // check if purchaser approved purchase\n\n    if (token_.transferFrom(msg.sender, owner_, price_)) {\n      bytes32 hashedAddress = keccak256(abi.encodePacked(msg.sender));\n      purchasers_[hashedAddress] = true;\n      lib_.addLibraryItem(_purchaser, did_);\n      emit Purchased(_purchaser, did_, _download);\n\n      if (_download && allowance > price_) {\n        depositReward(allowance - price_);\n      }\n\n      return true;\n    } else {\n      return false;\n    }\n  }\n\n  // Storage methods (random-access-contract)\n  function write(uint8 _file, uint256 _offset, bytes _buffer, bool _last_write) external onlyBy(owner_) returns (bool success){\n    // make sure AFS hasn't been removed\n    require(!metadata_[_file].invalid);\n\n    metadata_[_file].buffers[_offset] = _buffer;\n    metadata_[_file].offsets.push(_offset);\n\n    if (_last_write) {\n      emit Commit(did_, _file, _offset, _buffer);\n    }\n    return true;\n  }\n\n  function read(uint8 _file, uint256 _offset) public view returns (bytes buffer) {\n    if (metadata_[_file].invalid) {\n      return \"\"; // empty bytes\n    }\n    return metadata_[_file].buffers[_offset];\n  }\n\n  function unlist() public onlyBy(owner_) returns (bool success) {\n    metadata_[0].invalid = true;\n    metadata_[1].invalid = true;\n    listed_ = false;\n    emit Unlisted(did_);\n    return true;\n  }\n}\n",
  "sourcePath": "/Users/ericjiang/Littlstar/ara-contracts/contracts/AFS.sol",
  "compiler": {
    "name": "solc",
    "version": "0.4.24+commit.e67f0147.Emscripten.clang"
  },
  "schemaVersion": "2.0.1",
  "updatedAt": "2018-08-06T22:24:57.757Z"
}