{
  "contractName": "AFS",
  "abi": [
    {
      "constant": true,
      "inputs": [],
      "name": "listed_",
      "outputs": [
        {
          "name": "",
          "type": "bool"
        }
      ],
      "payable": false,
      "stateMutability": "view",
      "type": "function"
    },
    {
      "constant": true,
      "inputs": [],
      "name": "lib_",
      "outputs": [
        {
          "name": "",
          "type": "address"
        }
      ],
      "payable": false,
      "stateMutability": "view",
      "type": "function"
    },
    {
      "constant": true,
      "inputs": [],
      "name": "did_",
      "outputs": [
        {
          "name": "",
          "type": "string"
        }
      ],
      "payable": false,
      "stateMutability": "view",
      "type": "function"
    },
    {
      "constant": true,
      "inputs": [
        {
          "name": "",
          "type": "bytes32"
        }
      ],
      "name": "rewards_",
      "outputs": [
        {
          "name": "",
          "type": "uint256"
        }
      ],
      "payable": false,
      "stateMutability": "view",
      "type": "function"
    },
    {
      "constant": true,
      "inputs": [],
      "name": "price_",
      "outputs": [
        {
          "name": "",
          "type": "uint256"
        }
      ],
      "payable": false,
      "stateMutability": "view",
      "type": "function"
    },
    {
      "constant": true,
      "inputs": [
        {
          "name": "",
          "type": "uint8"
        }
      ],
      "name": "metadata_",
      "outputs": [
        {
          "name": "invalid",
          "type": "bool"
        }
      ],
      "payable": false,
      "stateMutability": "view",
      "type": "function"
    },
    {
      "constant": true,
      "inputs": [],
      "name": "token_",
      "outputs": [
        {
          "name": "",
          "type": "address"
        }
      ],
      "payable": false,
      "stateMutability": "view",
      "type": "function"
    },
    {
      "constant": true,
      "inputs": [],
      "name": "version_",
      "outputs": [
        {
          "name": "",
          "type": "string"
        }
      ],
      "payable": false,
      "stateMutability": "view",
      "type": "function"
    },
    {
      "constant": true,
      "inputs": [],
      "name": "owner_",
      "outputs": [
        {
          "name": "",
          "type": "address"
        }
      ],
      "payable": false,
      "stateMutability": "view",
      "type": "function"
    },
    {
      "constant": true,
      "inputs": [
        {
          "name": "",
          "type": "bytes32"
        }
      ],
      "name": "purchasers_",
      "outputs": [
        {
          "name": "",
          "type": "bool"
        }
      ],
      "payable": false,
      "stateMutability": "view",
      "type": "function"
    },
    {
      "anonymous": false,
      "inputs": [
        {
          "indexed": false,
          "name": "_did",
          "type": "string"
        }
      ],
      "name": "Commit",
      "type": "event"
    },
    {
      "anonymous": false,
      "inputs": [
        {
          "indexed": false,
          "name": "_did",
          "type": "string"
        }
      ],
      "name": "Unlisted",
      "type": "event"
    },
    {
      "anonymous": false,
      "inputs": [
        {
          "indexed": false,
          "name": "_did",
          "type": "string"
        },
        {
          "indexed": false,
          "name": "_price",
          "type": "uint256"
        }
      ],
      "name": "PriceSet",
      "type": "event"
    },
    {
      "anonymous": false,
      "inputs": [
        {
          "indexed": false,
          "name": "_did",
          "type": "string"
        },
        {
          "indexed": false,
          "name": "_reward",
          "type": "uint256"
        }
      ],
      "name": "RewardDeposited",
      "type": "event"
    },
    {
      "anonymous": false,
      "inputs": [
        {
          "indexed": false,
          "name": "_did",
          "type": "string"
        },
        {
          "indexed": false,
          "name": "_distributed",
          "type": "uint256"
        },
        {
          "indexed": false,
          "name": "_returned",
          "type": "uint256"
        }
      ],
      "name": "RewardDistributed",
      "type": "event"
    },
    {
      "anonymous": false,
      "inputs": [
        {
          "indexed": false,
          "name": "_purchaser",
          "type": "string"
        },
        {
          "indexed": false,
          "name": "_did",
          "type": "string"
        }
      ],
      "name": "Purchased",
      "type": "event"
    },
    {
      "anonymous": false,
      "inputs": [
        {
          "indexed": false,
          "name": "sender",
          "type": "address"
        }
      ],
      "name": "TEST",
      "type": "event"
    },
    {
      "constant": false,
      "inputs": [
        {
          "name": "_data",
          "type": "bytes"
        }
      ],
      "name": "init",
      "outputs": [],
      "payable": false,
      "stateMutability": "nonpayable",
      "type": "function"
    },
    {
      "constant": false,
      "inputs": [
        {
          "name": "_price",
          "type": "uint256"
        }
      ],
      "name": "setPrice",
      "outputs": [],
      "payable": false,
      "stateMutability": "nonpayable",
      "type": "function"
    },
    {
      "constant": false,
      "inputs": [
        {
          "name": "_reward",
          "type": "uint256"
        }
      ],
      "name": "depositReward",
      "outputs": [
        {
          "name": "success",
          "type": "bool"
        }
      ],
      "payable": false,
      "stateMutability": "nonpayable",
      "type": "function"
    },
    {
      "constant": false,
      "inputs": [
        {
          "name": "_addresses",
          "type": "address[]"
        },
        {
          "name": "_amounts",
          "type": "uint256[]"
        }
      ],
      "name": "distributeReward",
      "outputs": [
        {
          "name": "success",
          "type": "bool"
        }
      ],
      "payable": false,
      "stateMutability": "nonpayable",
      "type": "function"
    },
    {
      "constant": false,
      "inputs": [
        {
          "name": "_purchaser",
          "type": "string"
        },
        {
          "name": "_reward",
          "type": "uint256"
        }
      ],
      "name": "purchase",
      "outputs": [
        {
          "name": "success",
          "type": "bool"
        }
      ],
      "payable": false,
      "stateMutability": "nonpayable",
      "type": "function"
    },
    {
      "constant": false,
      "inputs": [
        {
          "name": "_mtOffsets",
          "type": "uint256[]"
        },
        {
          "name": "_msOffsets",
          "type": "uint256[]"
        },
        {
          "name": "_mtBuffer",
          "type": "bytes"
        },
        {
          "name": "_msBuffer",
          "type": "bytes"
        }
      ],
      "name": "append",
      "outputs": [],
      "payable": false,
      "stateMutability": "nonpayable",
      "type": "function"
    },
    {
      "constant": false,
      "inputs": [
        {
          "name": "_mtOffsets",
          "type": "uint256[]"
        },
        {
          "name": "_msOffsets",
          "type": "uint256[]"
        },
        {
          "name": "_mtBuffer",
          "type": "bytes"
        },
        {
          "name": "_msBuffer",
          "type": "bytes"
        }
      ],
      "name": "write",
      "outputs": [],
      "payable": false,
      "stateMutability": "nonpayable",
      "type": "function"
    },
    {
      "constant": true,
      "inputs": [
        {
          "name": "_file",
          "type": "uint8"
        },
        {
          "name": "_offset",
          "type": "uint256"
        }
      ],
      "name": "read",
      "outputs": [
        {
          "name": "buffer",
          "type": "bytes"
        }
      ],
      "payable": false,
      "stateMutability": "view",
      "type": "function"
    },
    {
      "constant": true,
      "inputs": [
        {
          "name": "_file",
          "type": "uint8"
        },
        {
          "name": "_offset",
          "type": "uint256"
        },
        {
          "name": "_buffer",
          "type": "bytes"
        }
      ],
      "name": "hasBuffer",
      "outputs": [
        {
          "name": "exists",
          "type": "bool"
        }
      ],
      "payable": false,
      "stateMutability": "view",
      "type": "function"
    },
    {
      "constant": false,
      "inputs": [],
      "name": "unlist",
      "outputs": [
        {
          "name": "success",
          "type": "bool"
        }
      ],
      "payable": false,
      "stateMutability": "nonpayable",
      "type": "function"
    }
  ],
  "bytecode": "0x60806040526040805190810160405280600181526020017f3100000000000000000000000000000000000000000000000000000000000000815250600190805190602001906200005192919062000066565b503480156200005f57600080fd5b5062000115565b828054600181600116156101000203166002900490600052602060002090601f016020900481019282601f10620000a957805160ff1916838001178555620000da565b82800160010185558215620000da579182015b82811115620000d9578251825591602001919060010190620000bc565b5b509050620000e99190620000ed565b5090565b6200011291905b808211156200010e576000816000905550600101620000f4565b5090565b90565b612bf980620001256000396000f300608060405260043610610112576000357c0100000000000000000000000000000000000000000000000000000000900463ffffffff1680631e2720ff146101175780632a6363be1461015c57806346f60dee1461018b57806347269720146101e25780634ddf47d4146102725780635ee6fa61146102db57806366570f1714610320578063822b096e146103a357806391b7f5ed1461040e578063a0d585011461043b578063aa38e38c1461046a578063bb66f9f6146104c7578063bc302cd01461057a578063ce40b03f146106af578063ce605ea9146106da578063d56805e114610722578063dd1bb1fc14610779578063e766307914610809578063f0e5bd8614610860578063f5bd3e3f146108f8575b600080fd5b34801561012357600080fd5b5061014260048036038101908080359060200190929190505050610941565b604051808215151515815260200191505060405180910390f35b34801561016857600080fd5b50610171610ec5565b604051808215151515815260200191505060405180910390f35b34801561019757600080fd5b506101a0610ed8565b604051808273ffffffffffffffffffffffffffffffffffffffff1673ffffffffffffffffffffffffffffffffffffffff16815260200191505060405180910390f35b3480156101ee57600080fd5b506101f7610efe565b6040518080602001828103825283818151815260200191508051906020019080838360005b8381101561023757808201518184015260208101905061021c565b50505050905090810190601f1680156102645780820380516001836020036101000a031916815260200191505b509250505060405180910390f35b34801561027e57600080fd5b506102d9600480360381019080803590602001908201803590602001908080601f0160208091040260200160405190810160405280939291908181526020018383808284378201915050505050509192919290505050610f9c565b005b3480156102e757600080fd5b5061030a60048036038101908080356000191690602001909291905050506110ac565b6040518082815260200191505060405180910390f35b34801561032c57600080fd5b506103a16004803603810190808035906020019082018035906020019190919293919293908035906020019082018035906020019190919293919293908035906020019082018035906020019190919293919293908035906020019082018035906020019190919293919293905050506110c4565b005b3480156103af57600080fd5b506103f4600480360381019080803590602001908201803590602001919091929391929390803590602001908201803590602001919091929391929390505050611424565b604051808215151515815260200191505060405180910390f35b34801561041a57600080fd5b5061043960048036038101908080359060200190929190505050611b28565b005b34801561044757600080fd5b50610450611cbc565b604051808215151515815260200191505060405180910390f35b34801561047657600080fd5b506104ad60048036038101908080359060200190820180359060200191909192939192939080359060200190929190505050611ec5565b604051808215151515815260200191505060405180910390f35b3480156104d357600080fd5b506104ff600480360381019080803560ff16906020019092919080359060200190929190505050612337565b6040518080602001828103825283818151815260200191508051906020019080838360005b8381101561053f578082015181840152602081019050610524565b50505050905090810190601f16801561056c5780820380516001836020036101000a031916815260200191505b509250505060405180910390f35b34801561058657600080fd5b506106ad6004803603810190808035906020019082018035906020019080806020026020016040519081016040528093929190818152602001838360200280828437820191505050505050919291929080359060200190820180359060200190808060200260200160405190810160405280939291908181526020018383602002808284378201915050505050509192919290803590602001908201803590602001908080601f0160208091040260200160405190810160405280939291908181526020018383808284378201915050505050509192919290803590602001908201803590602001908080601f016020809104026020016040519081016040528093929190818152602001838380828437820191505050505050919291929050505061244f565b005b3480156106bb57600080fd5b506106c461280f565b6040518082815260200191505060405180910390f35b3480156106e657600080fd5b50610708600480360381019080803560ff169060200190929190505050612815565b604051808215151515815260200191505060405180910390f35b34801561072e57600080fd5b50610737612840565b604051808273ffffffffffffffffffffffffffffffffffffffff1673ffffffffffffffffffffffffffffffffffffffff16815260200191505060405180910390f35b34801561078557600080fd5b5061078e612866565b6040518080602001828103825283818151815260200191508051906020019080838360005b838110156107ce5780820151818401526020810190506107b3565b50505050905090810190601f1680156107fb5780820380516001836020036101000a031916815260200191505b509250505060405180910390f35b34801561081557600080fd5b5061081e612904565b604051808273ffffffffffffffffffffffffffffffffffffffff1673ffffffffffffffffffffffffffffffffffffffff16815260200191505060405180910390f35b34801561086c57600080fd5b506108de600480360381019080803560ff16906020019092919080359060200190929190803590602001908201803590602001908080601f0160208091040260200160405190810160405280939291908181526020018383808284378201915050505050509192919290505050612929565b604051808215151515815260200191505060405180910390f35b34801561090457600080fd5b506109276004803603810190808035600019169060200190929190505050612a0c565b604051808215151515815260200191505060405180910390f35b600080600033604051602001808273ffffffffffffffffffffffffffffffffffffffff1673ffffffffffffffffffffffffffffffffffffffff166c010000000000000000000000000281526014019150506040516020818303038152906040526040518082805190602001908083835b6020831015156109d657805182526020820191506020810190506020830392506109b1565b6001836020036101000a0380198251168184511680821785525050505050509050019150506040518091039020915060086000836000191660001916815260200190815260200160002060009054906101000a900460ff1615610eb957600260009054906101000a900473ffffffffffffffffffffffffffffffffffffffff1673ffffffffffffffffffffffffffffffffffffffff1663dd62ed3e33306040518363ffffffff167c0100000000000000000000000000000000000000000000000000000000028152600401808373ffffffffffffffffffffffffffffffffffffffff1673ffffffffffffffffffffffffffffffffffffffff1681526020018273ffffffffffffffffffffffffffffffffffffffff1673ffffffffffffffffffffffffffffffffffffffff16815260200192505050602060405180830381600087803b158015610b2457600080fd5b505af1158015610b38573d6000803e3d6000fd5b505050506040513d6020811015610b4e57600080fd5b81019080805190602001909291905050509050838110158015610ca15750600260009054906101000a900473ffffffffffffffffffffffffffffffffffffffff1673ffffffffffffffffffffffffffffffffffffffff166323b872dd3330876040518463ffffffff167c0100000000000000000000000000000000000000000000000000000000028152600401808473ffffffffffffffffffffffffffffffffffffffff1673ffffffffffffffffffffffffffffffffffffffff1681526020018373ffffffffffffffffffffffffffffffffffffffff1673ffffffffffffffffffffffffffffffffffffffff1681526020018281526020019350505050602060405180830381600087803b158015610c6557600080fd5b505af1158015610c79573d6000803e3d6000fd5b505050506040513d6020811015610c8f57600080fd5b81019080805190602001909291905050505b15610eb8578360076000846000191660001916815260200190815260200160002060008282540192505081905550600260009054906101000a900473ffffffffffffffffffffffffffffffffffffffff1673ffffffffffffffffffffffffffffffffffffffff166370a08231306040518263ffffffff167c0100000000000000000000000000000000000000000000000000000000028152600401808273ffffffffffffffffffffffffffffffffffffffff1673ffffffffffffffffffffffffffffffffffffffff168152602001915050602060405180830381600087803b158015610d8c57600080fd5b505af1158015610da0573d6000803e3d6000fd5b505050506040513d6020811015610db657600080fd5b81019080805190602001909291905050506007600084600019166000191681526020019081526020016000205411151515610ded57fe5b7fffa127676dfb7fc4c3eec888bf0cd1222a23b8825c4e8d1eff4b9e23cc8f16e86004856040518080602001838152602001828103825284818154600181600116156101000203166002900481526020019150805460018160011615610100020316600290048015610ea05780601f10610e7557610100808354040283529160200191610ea0565b820191906000526020600020905b815481529060010190602001808311610e8357829003601f168201915b5050935050505060405180910390a160019250610ebe565b5b600092505b5050919050565b600560009054906101000a900460ff1681565b600360009054906101000a900473ffffffffffffffffffffffffffffffffffffffff1681565b60048054600181600116156101000203166002900480601f016020809104026020016040519081016040528092919081815260200182805460018160011615610100020316600290048015610f945780601f10610f6957610100808354040283529160200191610f94565b820191906000526020600020905b815481529060010190602001808311610f7757829003601f168201915b505050505081565b600080600080602085019350835192506040850193508351915060608501935083519050826000806101000a81548173ffffffffffffffffffffffffffffffffffffffff021916908373ffffffffffffffffffffffffffffffffffffffff16021790555081600260006101000a81548173ffffffffffffffffffffffffffffffffffffffff021916908373ffffffffffffffffffffffffffffffffffffffff16021790555080600360006101000a81548173ffffffffffffffffffffffffffffffffffffffff021916908373ffffffffffffffffffffffffffffffffffffffff1602179055506001600560006101000a81548160ff02191690831515021790555060006006819055505050505050565b60076020528060005260406000206000915090505481565b6000806000809054906101000a900473ffffffffffffffffffffffffffffffffffffffff168073ffffffffffffffffffffffffffffffffffffffff163373ffffffffffffffffffffffffffffffffffffffff1614151561118c576040517f08c379a00000000000000000000000000000000000000000000000000000000081526004018080602001828103825260168152602001807f53656e646572206e6f7420617574686f72697a65642e0000000000000000000081525060200191505060405180910390fd5b600960008060ff16815260200190815260200160002060010160009054906101000a900460ff161515156111bf57600080fd5b888890508b8b9050116111d557888890506111da565b8a8a90505b9250600091505b8282101561135d5760018b8b9050038211151561129c57611249602860ff168302602860ff1689898080601f016020809104026020016040519081016040528093929190818152602001838380828437820191505050505050612a2c9092919063ffffffff16565b600960008060ff16815260200190815260200160002060000160008d8d86818110151561127257fe5b905060200201358152602001908152602001600020908051906020019061129a929190612b28565b505b6001898990500382111515611350576112fc604060ff168302604060ff1687878080601f016020809104026020016040519081016040528093929190818152602001838380828437820191505050505050612a2c9092919063ffffffff16565b60096000600160ff16815260200190815260200160002060000160008b8b86818110151561132657fe5b905060200201358152602001908152602001600020908051906020019061134e929190612b28565b505b81806001019250506111e1565b7f81542de3da6f1f216fee8163fc0618913251c9f50b0a7385cad8a684d82cde5c600460405180806020018281038252838181546001816001161561010002031660029004815260200191508054600181600116156101000203166002900480156114095780601f106113de57610100808354040283529160200191611409565b820191906000526020600020905b8154815290600101906020018083116113ec57829003601f168201915b50509250505060405180910390a15050505050505050505050565b600080600080600080600033604051602001808273ffffffffffffffffffffffffffffffffffffffff1673ffffffffffffffffffffffffffffffffffffffff166c010000000000000000000000000281526014019150506040516020818303038152906040526040518082805190602001908083835b6020831015156114bf578051825260208201915060208101905060208303925061149a565b6001836020036101000a0380198251168184511680821785525050505050509050019150506040518091039020955060006007600088600019166000191681526020019081526020016000205411801561151e5750888890508b8b9050145b151561152957600080fd5b600093505b8888905084101561155f57888885818110151561154757fe5b9050602002013585019450838060010194505061152e565b600260009054906101000a900473ffffffffffffffffffffffffffffffffffffffff1673ffffffffffffffffffffffffffffffffffffffff166370a08231306040518263ffffffff167c0100000000000000000000000000000000000000000000000000000000028152600401808273ffffffffffffffffffffffffffffffffffffffff1673ffffffffffffffffffffffffffffffffffffffff168152602001915050602060405180830381600087803b15801561161c57600080fd5b505af1158015611630573d6000803e3d6000fd5b505050506040513d602081101561164657600080fd5b8101908080519060200190929190505050600760008860001916600019168152602001908152602001600020541115801561169c5750846007600088600019166000191681526020019081526020016000205410155b15156116a757600080fd5b60019650600092505b8a8a905083101561188c57600260009054906101000a900473ffffffffffffffffffffffffffffffffffffffff1673ffffffffffffffffffffffffffffffffffffffff166323b872dd308d8d87818110151561170857fe5b9050602002013573ffffffffffffffffffffffffffffffffffffffff168c8c88818110151561173357fe5b905060200201356040518463ffffffff167c0100000000000000000000000000000000000000000000000000000000028152600401808473ffffffffffffffffffffffffffffffffffffffff1673ffffffffffffffffffffffffffffffffffffffff1681526020018373ffffffffffffffffffffffffffffffffffffffff1673ffffffffffffffffffffffffffffffffffffffff1681526020018281526020019350505050602060405180830381600087803b1580156117f257600080fd5b505af1158015611806573d6000803e3d6000fd5b505050506040513d602081101561181c57600080fd5b81019080805190602001909291905050509150811561187357888884818110151561184357fe5b90506020020135600760008860001916600019168152602001908152602001600020600082825403925050819055505b86801561187d5750815b965082806001019350506116b0565b60009050600060076000886000191660001916815260200190815260200160002054118015611a065750600260009054906101000a900473ffffffffffffffffffffffffffffffffffffffff1673ffffffffffffffffffffffffffffffffffffffff166323b872dd3033600760008b60001916600019168152602001908152602001600020546040518463ffffffff167c0100000000000000000000000000000000000000000000000000000000028152600401808473ffffffffffffffffffffffffffffffffffffffff1673ffffffffffffffffffffffffffffffffffffffff1681526020018373ffffffffffffffffffffffffffffffffffffffff1673ffffffffffffffffffffffffffffffffffffffff1681526020018281526020019350505050602060405180830381600087803b1580156119ca57600080fd5b505af11580156119de573d6000803e3d6000fd5b505050506040513d60208110156119f457600080fd5b81019080805190602001909291905050505b15611a4b576007600087600019166000191681526020019081526020016000205490506000600760008860001916600019168152602001908152602001600020819055505b7f4e43b8c8795454d46f4b1322d0e6fcb2ffb8db062e02097701962e01917c659e6004828703836040518080602001848152602001838152602001828103825285818154600181600116156101000203166002900481526020019150805460018160011615610100020316600290048015611b075780601f10611adc57610100808354040283529160200191611b07565b820191906000526020600020905b815481529060010190602001808311611aea57829003601f168201915b505094505050505060405180910390a1869650505050505050949350505050565b6000809054906101000a900473ffffffffffffffffffffffffffffffffffffffff168073ffffffffffffffffffffffffffffffffffffffff163373ffffffffffffffffffffffffffffffffffffffff16141515611bed576040517f08c379a00000000000000000000000000000000000000000000000000000000081526004018080602001828103825260168152602001807f53656e646572206e6f7420617574686f72697a65642e0000000000000000000081525060200191505060405180910390fd5b816006819055507fd36541c06b2fd871e44629372893c1c3d4dd782ebe28a03689b3e3bb6d495f7460046006546040518080602001838152602001828103825284818154600181600116156101000203166002900481526020019150805460018160011615610100020316600290048015611ca95780601f10611c7e57610100808354040283529160200191611ca9565b820191906000526020600020905b815481529060010190602001808311611c8c57829003601f168201915b5050935050505060405180910390a15050565b60008060009054906101000a900473ffffffffffffffffffffffffffffffffffffffff168073ffffffffffffffffffffffffffffffffffffffff163373ffffffffffffffffffffffffffffffffffffffff16141515611d83576040517f08c379a00000000000000000000000000000000000000000000000000000000081526004018080602001828103825260168152602001807f53656e646572206e6f7420617574686f72697a65642e0000000000000000000081525060200191505060405180910390fd5b6001600960008060ff16815260200190815260200160002060010160006101000a81548160ff021916908315150217905550600160096000600160ff16815260200190815260200160002060010160006101000a81548160ff0219169083151502179055506000600560006101000a81548160ff0219169083151502179055507f703f3c2056f304c9fba60a2602a3c5ecc5fdc04d6f8a5bffef5be2fbd881bc9a60046040518080602001828103825283818154600181600116156101000203166002900481526020019150805460018160011615610100020316600290048015611eaf5780601f10611e8457610100808354040283529160200191611eaf565b820191906000526020600020905b815481529060010190602001808311611e9257829003601f168201915b50509250505060405180910390a1600191505090565b600080600260009054906101000a900473ffffffffffffffffffffffffffffffffffffffff1673ffffffffffffffffffffffffffffffffffffffff1663a9059cbb6000809054906101000a900473ffffffffffffffffffffffffffffffffffffffff166006546040518363ffffffff167c0100000000000000000000000000000000000000000000000000000000028152600401808373ffffffffffffffffffffffffffffffffffffffff1673ffffffffffffffffffffffffffffffffffffffff16815260200182815260200192505050602060405180830381600087803b158015611fb057600080fd5b505af1158015611fc4573d6000803e3d6000fd5b505050506040513d6020811015611fda57600080fd5b81019080805190602001909291905050501561232a5733604051602001808273ffffffffffffffffffffffffffffffffffffffff1673ffffffffffffffffffffffffffffffffffffffff166c010000000000000000000000000281526014019150506040516020818303038152906040526040518082805190602001908083835b602083101515612080578051825260208201915060208101905060208303925061205b565b6001836020036101000a03801982511681845116808217855250505050505090500191505060405180910390209050600160086000836000191660001916815260200190815260200160002060006101000a81548160ff021916908315150217905550600360009054906101000a900473ffffffffffffffffffffffffffffffffffffffff1673ffffffffffffffffffffffffffffffffffffffff16638ff4e0a7868660046040518463ffffffff167c0100000000000000000000000000000000000000000000000000000000028152600401808060200180602001838103835286868281815260200192508082843782019150508381038252848181546001816001161561010002031660029004815260200191508054600181600116156101000203166002900480156121f65780601f106121cb576101008083540402835291602001916121f6565b820191906000526020600020905b8154815290600101906020018083116121d957829003601f168201915b505095505050505050600060405180830381600087803b15801561221957600080fd5b505af115801561222d573d6000803e3d6000fd5b505050507f20a7a3e6584d253fe679dc43f073c2383992cdb7e3ac989be857d4ed7a49b15b85856004604051808060200180602001838103835286868281815260200192508082843782019150508381038252848181546001816001161561010002031660029004815260200191508054600181600116156101000203166002900480156122fc5780601f106122d1576101008083540402835291602001916122fc565b820191906000526020600020905b8154815290600101906020018083116122df57829003601f168201915b50509550505050505060405180910390a160008311156123215761231f83610941565b505b6001915061232f565b600091505b509392505050565b6060600960008460ff1660ff16815260200190815260200160002060010160009054906101000a900460ff16156123805760206040519081016040528060008152509050612449565b600960008460ff1660ff16815260200190815260200160002060000160008381526020019081526020016000208054600181600116156101000203166002900480601f0160208091040260200160405190810160405280929190818152602001828054600181600116156101000203166002900480156124415780601f1061241657610100808354040283529160200191612441565b820191906000526020600020905b81548152906001019060200180831161242457829003601f168201915b505050505090505b92915050565b6000806000809054906101000a900473ffffffffffffffffffffffffffffffffffffffff168073ffffffffffffffffffffffffffffffffffffffff163373ffffffffffffffffffffffffffffffffffffffff16141515612517576040517f08c379a00000000000000000000000000000000000000000000000000000000081526004018080602001828103825260168152602001807f53656e646572206e6f7420617574686f72697a65642e0000000000000000000081525060200191505060405180910390fd5b600960008060ff16815260200190815260200160002060010160009054906101000a900460ff1615151561254a57600080fd5b855187511161255a57855161255d565b86515b92506125766000602087612a2c9092919063ffffffff16565b600960008060ff168152602001908152602001600020600001600080815260200190815260200160002090805190602001906125b3929190612b28565b506125cb6000602086612a2c9092919063ffffffff16565b60096000600160ff168152602001908152602001600020600001600060018152602001908152602001600020908051906020019061260a929190612b28565b50600191505b8282101561274c576001875103821115156126ab57612655878381518110151561263657fe5b90602001906020020151602860ff1687612a2c9092919063ffffffff16565b600960008060ff1681526020019081526020016000206000016000898581518110151561267e57fe5b90602001906020020151815260200190815260200160002090805190602001906126a9929190612b28565b505b60018651038211151561273f576126e886838151811015156126c957fe5b90602001906020020151604060ff1686612a2c9092919063ffffffff16565b60096000600160ff1681526020019081526020016000206000016000888581518110151561271257fe5b906020019060200201518152602001908152602001600020908051906020019061273d929190612b28565b505b8180600101925050612610565b7f81542de3da6f1f216fee8163fc0618913251c9f50b0a7385cad8a684d82cde5c600460405180806020018281038252838181546001816001161561010002031660029004815260200191508054600181600116156101000203166002900480156127f85780601f106127cd576101008083540402835291602001916127f8565b820191906000526020600020905b8154815290600101906020018083116127db57829003601f168201915b50509250505060405180910390a150505050505050565b60065481565b60096020528060005260406000206000915090508060010160009054906101000a900460ff16905081565b600260009054906101000a900473ffffffffffffffffffffffffffffffffffffffff1681565b60018054600181600116156101000203166002900480601f0160208091040260200160405190810160405280929190818152602001828054600181600116156101000203166002900480156128fc5780601f106128d1576101008083540402835291602001916128fc565b820191906000526020600020905b8154815290600101906020018083116128df57829003601f168201915b505050505081565b6000809054906101000a900473ffffffffffffffffffffffffffffffffffffffff1681565b6000612a0382600960008760ff1660ff16815260200190815260200160002060000160008681526020019081526020016000208054600181600116156101000203166002900480601f0160208091040260200160405190810160405280929190818152602001828054600181600116156101000203166002900480156129f05780601f106129c5576101008083540402835291602001916129f0565b820191906000526020600020905b8154815290600101906020018083116129d357829003601f168201915b5050505050612ab990919063ffffffff16565b90509392505050565b60086020528060005260406000206000915054906101000a900460ff1681565b606080828401855110151515612a4157600080fd5b821560008114612a5c57604051915060208201604052612aad565b6040519150601f8416801560200281840101858101878315602002848b0101015b81831015612a9a5780518352602083019250602081019050612a7d565b50868552601f19601f8301166040525050505b50809150509392505050565b6000806001905083518351811460018114612ad75760009250612b1c565b600160208701838101602088015b600284838510011415612b175780518351141515612b065760009650600093505b602083019250602081019050612ae5565b505050505b50508091505092915050565b828054600181600116156101000203166002900490600052602060002090601f016020900481019282601f10612b6957805160ff1916838001178555612b97565b82800160010185558215612b97579182015b82811115612b96578251825591602001919060010190612b7b565b5b509050612ba49190612ba8565b5090565b612bca91905b80821115612bc6576000816000905550600101612bae565b5090565b905600a165627a7a72305820cbb9e8a8964523910889a96efe46722dace7b488944f3f1f9a7a12c17c76a9d30029",
  "source": "pragma solidity ^0.4.24;\n\nimport \"./Library.sol\";\nimport \"./ARAToken.sol\";\nimport \"bytes/BytesLib.sol\";\n\ncontract AFS {\n\n  using BytesLib for bytes;\n\n  address  public owner_;\n  string   public version_ = \"1\";\n\n  ARAToken public token_;\n  Library  public lib_;\n\n  string   public did_;\n  bool     public listed_;\n  uint256  public price_;\n\n  mapping(bytes32 => uint256) public rewards_;\n  mapping(bytes32 => bool)    public purchasers_;\n  mapping(uint8 => Buffers) public metadata_;\n\n  struct Buffers {\n    mapping (uint256 => bytes) buffers;\n    bool invalid;\n  }\n\n  event Commit(string _did);\n  event Unlisted(string _did);\n  event PriceSet(string _did, uint256 _price);\n  event RewardDeposited(string _did, uint256 _reward);\n  event RewardDistributed(string _did, uint256 _distributed, uint256 _returned);\n  event Purchased(string _purchaser, string _did);\n  event TEST(address sender);\n\n  uint8 constant mtBufferSize_ = 40;\n  uint8 constant msBufferSize_ = 64;\n\n  modifier onlyBy(address _account)\n  {\n      require(\n          msg.sender == _account,\n          \"Sender not authorized.\"\n      );\n      _;\n  }\n\n  function init(bytes _data) public {\n    uint256 btsptr;\n    address ownerAddr;\n    address tokenAddr;\n    address libAddr;\n    /* solium-disable-next-line security/no-inline-assembly */\n    assembly {\n        btsptr := add(_data, 32)\n        ownerAddr := mload(btsptr)\n        btsptr := add(_data, 64)\n        tokenAddr := mload(btsptr)\n        btsptr := add(_data, 96)\n        libAddr := mload(btsptr)\n    }\n    owner_    = ownerAddr;\n    token_    = ARAToken(tokenAddr);\n    lib_      = Library(libAddr);\n    listed_   = true;\n    price_    = 0;\n  }\n\n  // tested\n  function setPrice(uint256 _price) external onlyBy(owner_) {\n    price_ = _price;\n    emit PriceSet(did_, price_);\n  }\n\n  function depositReward(uint256 _reward) public returns (bool success) {\n    bytes32 hashedAddress = keccak256(abi.encodePacked(msg.sender));\n    if (purchasers_[hashedAddress]) {\n      uint256 allowance = token_.allowance(msg.sender, address(this));\n      if (allowance >= _reward \n        && token_.transferFrom(msg.sender, address(this), _reward)) {\n        rewards_[hashedAddress] += _reward;\n        assert(rewards_[hashedAddress] <= token_.balanceOf(address(this)));\n        emit RewardDeposited(did_, _reward);\n        return true;\n      }\n    }\n    return false;\n  }\n\n  function distributeReward(address[] _addresses, uint256[] _amounts) external returns (bool success) {\n    bytes32 hashedAddress = keccak256(abi.encodePacked(msg.sender));\n    require(rewards_[hashedAddress] > 0 && _addresses.length == _amounts.length);\n\n    uint256 totalRewards;\n    for (uint256 i = 0; i < _amounts.length; i++) {\n      totalRewards += _amounts[i];\n    }\n    require(rewards_[hashedAddress] <= token_.balanceOf(address(this)) \n      && rewards_[hashedAddress] >= totalRewards);\n\n    success = true;\n    for (uint256 j = 0; j < _addresses.length; j++) {\n      bool transferred = token_.transferFrom(address(this), _addresses[j], _amounts[j]);\n      if (transferred) {\n        rewards_[hashedAddress] -= _amounts[j];\n      }\n      success = success && transferred;\n    }\n\n    uint256 returned = 0;\n    if (rewards_[hashedAddress] > 0 \n      && token_.transferFrom(address(this), msg.sender, rewards_[hashedAddress])) {\n      returned = rewards_[hashedAddress];\n      rewards_[hashedAddress] = 0;\n    }\n\n    emit RewardDistributed(did_, totalRewards - returned, returned);\n\n    return success;\n  }\n\n  function purchase(string _purchaser, uint256 _reward) external returns (bool success) {\n    // uint256 balance = token.balanceOf(msg.sender);\n    // require (balance >= price_); // check that purchaser has sufficient funds\n\n    if (token_.transfer(owner_, price_)) {\n      bytes32 hashedAddress = keccak256(abi.encodePacked(msg.sender));\n      purchasers_[hashedAddress] = true;\n      lib_.addLibraryItem(_purchaser, did_);\n      emit Purchased(_purchaser, did_);\n\n      if (_reward > 0) {\n        depositReward(_reward);\n      }\n\n      return true;\n    } else {\n      return false;\n    }\n  }\n\n  function append(uint256[] _mtOffsets, uint256[] _msOffsets, bytes _mtBuffer, \n    bytes _msBuffer) external onlyBy(owner_) {\n    \n    require(!metadata_[0].invalid);\n    \n    uint256 maxOffsetLength = _mtOffsets.length > _msOffsets.length \n      ? _mtOffsets.length \n      : _msOffsets.length;\n\n    for (uint i = 0; i < maxOffsetLength; i++) {\n      // metadata/tree\n      if (i <= _mtOffsets.length - 1) {\n        metadata_[0].buffers[_mtOffsets[i]] = _mtBuffer.slice(i * mtBufferSize_, mtBufferSize_);\n      }\n\n      // metadata/signatures\n      if (i <= _msOffsets.length - 1) {\n        metadata_[1].buffers[_msOffsets[i]] = _msBuffer.slice(i * msBufferSize_, msBufferSize_);\n      }\n    }\n\n    emit Commit(did_);\n  }\n\n  function write(uint256[] _mtOffsets, uint256[] _msOffsets, bytes _mtBuffer, \n    bytes _msBuffer) public onlyBy(owner_) {\n\n    require(!metadata_[0].invalid);\n\n    uint256 maxOffsetLength = _mtOffsets.length > _msOffsets.length \n      ? _mtOffsets.length \n      : _msOffsets.length;\n\n    // add headers\n    metadata_[0].buffers[0] = _mtBuffer.slice(0, 32);\n    metadata_[1].buffers[1] = _msBuffer.slice(0, 32);\n\n    for (uint i = 1; i < maxOffsetLength; i++) {\n      // metadata/tree\n      if (i <= _mtOffsets.length - 1) {\n        metadata_[0].buffers[_mtOffsets[i]] = _mtBuffer.slice(_mtOffsets[i], mtBufferSize_);\n      }\n      \n      // metadata/signatures\n      if (i <= _msOffsets.length - 1) {\n        metadata_[1].buffers[_msOffsets[i]] = _msBuffer.slice(_msOffsets[i], msBufferSize_);\n      }\n    }\n\n    emit Commit(did_);\n  }\n\n  function read(uint8 _file, uint256 _offset) public view returns (bytes buffer) {\n    if (metadata_[_file].invalid) {\n      return \"\"; // empty bytes\n    }\n    return metadata_[_file].buffers[_offset];\n  }\n\n  function hasBuffer(uint8 _file, uint256 _offset, bytes _buffer) public view returns (bool exists) {\n    return metadata_[_file].buffers[_offset].equal(_buffer);\n  }\n\n  function unlist() public onlyBy(owner_) returns (bool success) {\n    metadata_[0].invalid = true;\n    metadata_[1].invalid = true;\n    listed_ = false;\n    emit Unlisted(did_);\n    return true;\n  }\n}\n",
  "sourcePath": "/Users/ericjiang/Littlstar/ara-contracts/contracts/AFS.sol",
  "compiler": {
    "name": "solc",
    "version": "0.4.24+commit.e67f0147.Emscripten.clang"
  },
  "schemaVersion": "2.0.1",
  "updatedAt": "2018-08-14T15:14:06.793Z"
}