{
  "contractName": "AFS",
  "abi": [
    {
      "constant": true,
      "inputs": [],
      "name": "minResalePrice_",
      "outputs": [
        {
          "name": "",
          "type": "uint256"
        }
      ],
      "payable": false,
      "stateMutability": "view",
      "type": "function"
    },
    {
      "constant": true,
      "inputs": [
        {
          "name": "",
          "type": "uint256"
        }
      ],
      "name": "priceTiers_",
      "outputs": [
        {
          "name": "",
          "type": "uint256"
        }
      ],
      "payable": false,
      "stateMutability": "view",
      "type": "function"
    },
    {
      "constant": true,
      "inputs": [
        {
          "name": "",
          "type": "bytes32"
        }
      ],
      "name": "jobs_",
      "outputs": [
        {
          "name": "sender",
          "type": "address"
        },
        {
          "name": "budget",
          "type": "uint256"
        }
      ],
      "payable": false,
      "stateMutability": "view",
      "type": "function"
    },
    {
      "constant": true,
      "inputs": [],
      "name": "listed_",
      "outputs": [
        {
          "name": "",
          "type": "bool"
        }
      ],
      "payable": false,
      "stateMutability": "view",
      "type": "function"
    },
    {
      "constant": true,
      "inputs": [
        {
          "name": "",
          "type": "uint8"
        },
        {
          "name": "",
          "type": "uint256"
        }
      ],
      "name": "metadata_",
      "outputs": [
        {
          "name": "",
          "type": "bytes"
        }
      ],
      "payable": false,
      "stateMutability": "view",
      "type": "function"
    },
    {
      "constant": true,
      "inputs": [],
      "name": "lib_",
      "outputs": [
        {
          "name": "",
          "type": "address"
        }
      ],
      "payable": false,
      "stateMutability": "view",
      "type": "function"
    },
    {
      "constant": true,
      "inputs": [],
      "name": "did_",
      "outputs": [
        {
          "name": "",
          "type": "bytes32"
        }
      ],
      "payable": false,
      "stateMutability": "view",
      "type": "function"
    },
    {
      "constant": true,
      "inputs": [
        {
          "name": "",
          "type": "bytes32"
        }
      ],
      "name": "rewards_",
      "outputs": [
        {
          "name": "",
          "type": "uint256"
        }
      ],
      "payable": false,
      "stateMutability": "view",
      "type": "function"
    },
    {
      "constant": true,
      "inputs": [],
      "name": "maxNumResales_",
      "outputs": [
        {
          "name": "",
          "type": "uint256"
        }
      ],
      "payable": false,
      "stateMutability": "view",
      "type": "function"
    },
    {
      "constant": true,
      "inputs": [],
      "name": "token_",
      "outputs": [
        {
          "name": "",
          "type": "address"
        }
      ],
      "payable": false,
      "stateMutability": "view",
      "type": "function"
    },
    {
      "constant": true,
      "inputs": [],
      "name": "totalCopies_",
      "outputs": [
        {
          "name": "",
          "type": "int256"
        }
      ],
      "payable": false,
      "stateMutability": "view",
      "type": "function"
    },
    {
      "constant": true,
      "inputs": [],
      "name": "owner_",
      "outputs": [
        {
          "name": "",
          "type": "address"
        }
      ],
      "payable": false,
      "stateMutability": "view",
      "type": "function"
    },
    {
      "constant": true,
      "inputs": [
        {
          "name": "",
          "type": "uint256"
        }
      ],
      "name": "prices_",
      "outputs": [
        {
          "name": "",
          "type": "uint256"
        }
      ],
      "payable": false,
      "stateMutability": "view",
      "type": "function"
    },
    {
      "constant": true,
      "inputs": [
        {
          "name": "",
          "type": "bytes32"
        }
      ],
      "name": "purchasers_",
      "outputs": [
        {
          "name": "available",
          "type": "uint256"
        },
        {
          "name": "quantity",
          "type": "uint256"
        },
        {
          "name": "resalePrice",
          "type": "uint256"
        }
      ],
      "payable": false,
      "stateMutability": "view",
      "type": "function"
    },
    {
      "anonymous": false,
      "inputs": [
        {
          "indexed": false,
          "name": "_did",
          "type": "bytes32"
        }
      ],
      "name": "Commit",
      "type": "event"
    },
    {
      "anonymous": false,
      "inputs": [
        {
          "indexed": false,
          "name": "_did",
          "type": "bytes32"
        }
      ],
      "name": "Unlisted",
      "type": "event"
    },
    {
      "anonymous": false,
      "inputs": [
        {
          "indexed": false,
          "name": "_did",
          "type": "bytes32"
        },
        {
          "indexed": false,
          "name": "_price",
          "type": "uint256"
        }
      ],
      "name": "MinResalePriceSet",
      "type": "event"
    },
    {
      "anonymous": false,
      "inputs": [
        {
          "indexed": false,
          "name": "_did",
          "type": "bytes32"
        },
        {
          "indexed": false,
          "name": "_purchaser",
          "type": "address"
        },
        {
          "indexed": false,
          "name": "_price",
          "type": "uint256"
        }
      ],
      "name": "ResalePriceSet",
      "type": "event"
    },
    {
      "anonymous": false,
      "inputs": [
        {
          "indexed": false,
          "name": "_did",
          "type": "bytes32"
        },
        {
          "indexed": false,
          "name": "_quantity",
          "type": "uint256"
        }
      ],
      "name": "MaxNumResalesSet",
      "type": "event"
    },
    {
      "anonymous": false,
      "inputs": [
        {
          "indexed": false,
          "name": "_did",
          "type": "bytes32"
        },
        {
          "indexed": false,
          "name": "_quantity",
          "type": "uint256"
        },
        {
          "indexed": false,
          "name": "_price",
          "type": "uint256"
        }
      ],
      "name": "PriceSet",
      "type": "event"
    },
    {
      "anonymous": false,
      "inputs": [
        {
          "indexed": false,
          "name": "_did",
          "type": "bytes32"
        },
        {
          "indexed": false,
          "name": "_jobId",
          "type": "bytes32"
        },
        {
          "indexed": false,
          "name": "_budget",
          "type": "uint256"
        }
      ],
      "name": "BudgetSubmitted",
      "type": "event"
    },
    {
      "anonymous": false,
      "inputs": [
        {
          "indexed": false,
          "name": "_did",
          "type": "bytes32"
        },
        {
          "indexed": false,
          "name": "_allocated",
          "type": "uint256"
        },
        {
          "indexed": false,
          "name": "_returned",
          "type": "uint256"
        }
      ],
      "name": "RewardsAllocated",
      "type": "event"
    },
    {
      "anonymous": false,
      "inputs": [
        {
          "indexed": false,
          "name": "_purchaser",
          "type": "bytes32"
        },
        {
          "indexed": false,
          "name": "_did",
          "type": "bytes32"
        },
        {
          "indexed": false,
          "name": "_quantity",
          "type": "uint256"
        },
        {
          "indexed": false,
          "name": "_price",
          "type": "uint256"
        }
      ],
      "name": "Purchased",
      "type": "event"
    },
    {
      "anonymous": false,
      "inputs": [
        {
          "indexed": false,
          "name": "_purchaser",
          "type": "bytes32"
        },
        {
          "indexed": false,
          "name": "_did",
          "type": "bytes32"
        },
        {
          "indexed": false,
          "name": "_quantity",
          "type": "uint256"
        },
        {
          "indexed": false,
          "name": "_price",
          "type": "uint256"
        }
      ],
      "name": "PurchasedResale",
      "type": "event"
    },
    {
      "anonymous": false,
      "inputs": [
        {
          "indexed": false,
          "name": "_sender",
          "type": "address"
        }
      ],
      "name": "Redeemed",
      "type": "event"
    },
    {
      "anonymous": false,
      "inputs": [
        {
          "indexed": false,
          "name": "_did",
          "type": "bytes32"
        },
        {
          "indexed": false,
          "name": "_added",
          "type": "int256"
        },
        {
          "indexed": false,
          "name": "_total",
          "type": "int256"
        }
      ],
      "name": "IncreasedSupply",
      "type": "event"
    },
    {
      "anonymous": false,
      "inputs": [
        {
          "indexed": false,
          "name": "_did",
          "type": "bytes32"
        },
        {
          "indexed": false,
          "name": "_removed",
          "type": "int256"
        },
        {
          "indexed": false,
          "name": "_total",
          "type": "int256"
        }
      ],
      "name": "DecreasedSupply",
      "type": "event"
    },
    {
      "anonymous": false,
      "inputs": [
        {
          "indexed": false,
          "name": "_did",
          "type": "bytes32"
        },
        {
          "indexed": false,
          "name": "_quantity",
          "type": "int256"
        }
      ],
      "name": "SupplySet",
      "type": "event"
    },
    {
      "anonymous": false,
      "inputs": [
        {
          "indexed": false,
          "name": "_did",
          "type": "bytes32"
        },
        {
          "indexed": false,
          "name": "_seller",
          "type": "address"
        },
        {
          "indexed": false,
          "name": "_available",
          "type": "uint256"
        }
      ],
      "name": "ResaleUnlocked",
      "type": "event"
    },
    {
      "anonymous": false,
      "inputs": [
        {
          "indexed": false,
          "name": "_did",
          "type": "bytes32"
        },
        {
          "indexed": false,
          "name": "_seller",
          "type": "address"
        },
        {
          "indexed": false,
          "name": "_available",
          "type": "uint256"
        }
      ],
      "name": "ResaleLocked",
      "type": "event"
    },
    {
      "constant": false,
      "inputs": [
        {
          "name": "_data",
          "type": "bytes"
        }
      ],
      "name": "init",
      "outputs": [],
      "payable": false,
      "stateMutability": "nonpayable",
      "type": "function"
    },
    {
      "constant": false,
      "inputs": [
        {
          "name": "_quantity",
          "type": "uint256"
        },
        {
          "name": "_price",
          "type": "uint256"
        }
      ],
      "name": "setPrice",
      "outputs": [],
      "payable": false,
      "stateMutability": "nonpayable",
      "type": "function"
    },
    {
      "constant": true,
      "inputs": [
        {
          "name": "_quantity",
          "type": "uint256"
        }
      ],
      "name": "getPrice",
      "outputs": [
        {
          "name": "",
          "type": "uint256"
        }
      ],
      "payable": false,
      "stateMutability": "view",
      "type": "function"
    },
    {
      "constant": false,
      "inputs": [
        {
          "name": "_quantity",
          "type": "uint256"
        }
      ],
      "name": "unlockResale",
      "outputs": [],
      "payable": false,
      "stateMutability": "nonpayable",
      "type": "function"
    },
    {
      "constant": false,
      "inputs": [
        {
          "name": "_quantity",
          "type": "uint256"
        }
      ],
      "name": "lockResale",
      "outputs": [],
      "payable": false,
      "stateMutability": "nonpayable",
      "type": "function"
    },
    {
      "constant": false,
      "inputs": [
        {
          "name": "_price",
          "type": "uint256"
        }
      ],
      "name": "setMinResalePrice",
      "outputs": [],
      "payable": false,
      "stateMutability": "nonpayable",
      "type": "function"
    },
    {
      "constant": false,
      "inputs": [
        {
          "name": "_price",
          "type": "uint256"
        }
      ],
      "name": "setResalePrice",
      "outputs": [],
      "payable": false,
      "stateMutability": "nonpayable",
      "type": "function"
    },
    {
      "constant": false,
      "inputs": [
        {
          "name": "_quantity",
          "type": "uint256"
        }
      ],
      "name": "setResaleQuantity",
      "outputs": [],
      "payable": false,
      "stateMutability": "nonpayable",
      "type": "function"
    },
    {
      "constant": false,
      "inputs": [
        {
          "name": "_quantity",
          "type": "int256"
        }
      ],
      "name": "setSupply",
      "outputs": [],
      "payable": false,
      "stateMutability": "nonpayable",
      "type": "function"
    },
    {
      "constant": false,
      "inputs": [
        {
          "name": "_quantity",
          "type": "int256"
        }
      ],
      "name": "increaseSupply",
      "outputs": [],
      "payable": false,
      "stateMutability": "nonpayable",
      "type": "function"
    },
    {
      "constant": false,
      "inputs": [
        {
          "name": "_quantity",
          "type": "int256"
        }
      ],
      "name": "decreaseSupply",
      "outputs": [],
      "payable": false,
      "stateMutability": "nonpayable",
      "type": "function"
    },
    {
      "constant": false,
      "inputs": [],
      "name": "setUnlimitedSupply",
      "outputs": [],
      "payable": false,
      "stateMutability": "nonpayable",
      "type": "function"
    },
    {
      "constant": false,
      "inputs": [
        {
          "name": "_purchaser",
          "type": "bytes32"
        },
        {
          "name": "_quantity",
          "type": "uint256"
        },
        {
          "name": "_jobId",
          "type": "bytes32"
        },
        {
          "name": "_budget",
          "type": "uint256"
        }
      ],
      "name": "purchase",
      "outputs": [],
      "payable": false,
      "stateMutability": "nonpayable",
      "type": "function"
    },
    {
      "constant": false,
      "inputs": [
        {
          "name": "_seller",
          "type": "address"
        },
        {
          "name": "_purchaser",
          "type": "bytes32"
        },
        {
          "name": "_quantity",
          "type": "uint256"
        },
        {
          "name": "_jobId",
          "type": "bytes32"
        },
        {
          "name": "_budget",
          "type": "uint256"
        }
      ],
      "name": "purchaseResale",
      "outputs": [],
      "payable": false,
      "stateMutability": "nonpayable",
      "type": "function"
    },
    {
      "constant": false,
      "inputs": [
        {
          "name": "_jobId",
          "type": "bytes32"
        },
        {
          "name": "_budget",
          "type": "uint256"
        }
      ],
      "name": "submitBudget",
      "outputs": [],
      "payable": false,
      "stateMutability": "nonpayable",
      "type": "function"
    },
    {
      "constant": true,
      "inputs": [
        {
          "name": "_jobId",
          "type": "bytes32"
        }
      ],
      "name": "getBudget",
      "outputs": [
        {
          "name": "",
          "type": "uint256"
        }
      ],
      "payable": false,
      "stateMutability": "view",
      "type": "function"
    },
    {
      "constant": false,
      "inputs": [
        {
          "name": "_jobId",
          "type": "bytes32"
        },
        {
          "name": "_farmers",
          "type": "bytes32[]"
        },
        {
          "name": "_rewards",
          "type": "uint256[]"
        }
      ],
      "name": "allocateRewards",
      "outputs": [],
      "payable": false,
      "stateMutability": "nonpayable",
      "type": "function"
    },
    {
      "constant": false,
      "inputs": [],
      "name": "redeemBalance",
      "outputs": [],
      "payable": false,
      "stateMutability": "nonpayable",
      "type": "function"
    },
    {
      "constant": true,
      "inputs": [
        {
          "name": "_farmer",
          "type": "address"
        }
      ],
      "name": "getRewardsBalance",
      "outputs": [
        {
          "name": "",
          "type": "uint256"
        }
      ],
      "payable": false,
      "stateMutability": "view",
      "type": "function"
    },
    {
      "constant": false,
      "inputs": [
        {
          "name": "_mtOffsets",
          "type": "uint256[]"
        },
        {
          "name": "_msOffsets",
          "type": "uint256[]"
        },
        {
          "name": "_mtBuffer",
          "type": "bytes"
        },
        {
          "name": "_msBuffer",
          "type": "bytes"
        }
      ],
      "name": "append",
      "outputs": [],
      "payable": false,
      "stateMutability": "nonpayable",
      "type": "function"
    },
    {
      "constant": false,
      "inputs": [
        {
          "name": "_mtOffsets",
          "type": "uint256[]"
        },
        {
          "name": "_msOffsets",
          "type": "uint256[]"
        },
        {
          "name": "_mtBuffer",
          "type": "bytes"
        },
        {
          "name": "_msBuffer",
          "type": "bytes"
        }
      ],
      "name": "write",
      "outputs": [],
      "payable": false,
      "stateMutability": "nonpayable",
      "type": "function"
    },
    {
      "constant": true,
      "inputs": [
        {
          "name": "_file",
          "type": "uint8"
        },
        {
          "name": "_offset",
          "type": "uint256"
        }
      ],
      "name": "read",
      "outputs": [
        {
          "name": "buffer",
          "type": "bytes"
        }
      ],
      "payable": false,
      "stateMutability": "view",
      "type": "function"
    },
    {
      "constant": true,
      "inputs": [
        {
          "name": "_file",
          "type": "uint8"
        },
        {
          "name": "_offset",
          "type": "uint256"
        },
        {
          "name": "_buffer",
          "type": "bytes"
        }
      ],
      "name": "hasBuffer",
      "outputs": [
        {
          "name": "exists",
          "type": "bool"
        }
      ],
      "payable": false,
      "stateMutability": "view",
      "type": "function"
    },
    {
      "constant": false,
      "inputs": [],
      "name": "unlist",
      "outputs": [
        {
          "name": "success",
          "type": "bool"
        }
      ],
      "payable": false,
      "stateMutability": "nonpayable",
      "type": "function"
    }
  ],
  "bytecode": "0x60806040527fffffffffffffffffffffffffffffffffffffffffffffffffffffffffffffffff60075534801561003457600080fd5b50615a6080620000456000396000f3006080604052600436106101d8576000357c0100000000000000000000000000000000000000000000000000000000900463ffffffff16806306b75c5a146101dd5780630b38926a146102085780631748fde9146102495780631e0a1b95146102605780632710ab60146102d85780632a6363be1461030557806331ddd9ab146103345780633e5ceede146103e757806345abe03d146103fe57806346f60dee1461042b57806347269720146104825780634ddf47d4146104b5578063546887a31461051e5780635ee6fa611461056357806366570f17146105a85780637bfa87b61461062b5780638a67f4bf146106565780638ea8bf03146106ad5780639c76a541146106da5780639f930eb2146107075780639facb9ba1461077a578063a0d58501146107a7578063b658e851146107d6578063bb66f9f614610829578063bc302cd0146108dc578063ca31ae1b14610a11578063cc3a08f814610a3e578063d56805e114610af5578063dd846f0814610b4c578063e757223014610b77578063e766307914610bb8578063e7f9257514610c0f578063f0c13b9e14610c3c578063f0e5bd8614610c7d578063f51b697914610d15578063f5bd3e3f14610d50578063f5d0103c14610da3578063f7d9757714610dd0575b600080fd5b3480156101e957600080fd5b506101f2610e07565b6040518082815260200191505060405180910390f35b34801561021457600080fd5b5061023360048036038101908080359060200190929190505050610e0d565b6040518082815260200191505060405180910390f35b34801561025557600080fd5b5061025e610e30565b005b34801561026c57600080fd5b5061028f6004803603810190808035600019169060200190929190505050610f6b565b604051808373ffffffffffffffffffffffffffffffffffffffff1673ffffffffffffffffffffffffffffffffffffffff1681526020018281526020019250505060405180910390f35b3480156102e457600080fd5b5061030360048036038101908080359060200190929190505050610faf565b005b34801561031157600080fd5b5061031a6113b0565b604051808215151515815260200191505060405180910390f35b34801561034057600080fd5b5061036c600480360381019080803560ff169060200190929190803590602001909291905050506113c3565b6040518080602001828103825283818151815260200191508051906020019080838360005b838110156103ac578082015181840152602081019050610391565b50505050905090810190601f1680156103d95780820380516001836020036101000a031916815260200191505b509250505060405180910390f35b3480156103f357600080fd5b506103fc611480565b005b34801561040a57600080fd5b506104296004803603810190808035906020019092919050505061177c565b005b34801561043757600080fd5b50610440611984565b604051808273ffffffffffffffffffffffffffffffffffffffff1673ffffffffffffffffffffffffffffffffffffffff16815260200191505060405180910390f35b34801561048e57600080fd5b506104976119aa565b60405180826000191660001916815260200191505060405180910390f35b3480156104c157600080fd5b5061051c600480360381019080803590602001908201803590602001908080601f01602080910402602001604051908101604052809392919081815260200183838082843782019150505050505091929192905050506119b0565b005b34801561052a57600080fd5b5061054d6004803603810190808035600019169060200190929190505050611ba8565b6040518082815260200191505060405180910390f35b34801561056f57600080fd5b506105926004803603810190808035600019169060200190929190505050611bd0565b6040518082815260200191505060405180910390f35b3480156105b457600080fd5b50610629600480360381019080803590602001908201803590602001919091929391929390803590602001908201803590602001919091929391929390803590602001908201803590602001919091929391929390803590602001908201803590602001919091929391929390505050611be8565b005b34801561063757600080fd5b50610640611f1b565b6040518082815260200191505060405180910390f35b34801561066257600080fd5b50610697600480360381019080803573ffffffffffffffffffffffffffffffffffffffff169060200190929190505050611f21565b6040518082815260200191505060405180910390f35b3480156106b957600080fd5b506106d860048036038101908080359060200190929190505050612002565b005b3480156106e657600080fd5b5061070560048036038101908080359060200190929190505050612196565b005b34801561071357600080fd5b50610778600480360381019080803573ffffffffffffffffffffffffffffffffffffffff1690602001909291908035600019169060200190929190803590602001909291908035600019169060200190929190803590602001909291905050506122b2565b005b34801561078657600080fd5b506107a560048036038101908080359060200190929190505050612f16565b005b3480156107b357600080fd5b506107bc6132f7565b604051808215151515815260200191505060405180910390f35b3480156107e257600080fd5b50610827600480360381019080803560001916906020019092919080359060200190929190803560001916906020019092919080359060200190929190505050613422565b005b34801561083557600080fd5b50610861600480360381019080803560ff16906020019092919080359060200190929190505050613b43565b6040518080602001828103825283818151815260200191508051906020019080838360005b838110156108a1578082015181840152602081019050610886565b50505050905090810190601f1680156108ce5780820380516001836020036101000a031916815260200191505b509250505060405180910390f35b3480156108e857600080fd5b50610a0f6004803603810190808035906020019082018035906020019080806020026020016040519081016040528093929190818152602001838360200280828437820191505050505050919291929080359060200190820180359060200190808060200260200160405190810160405280939291908181526020018383602002808284378201915050505050509192919290803590602001908201803590602001908080601f0160208091040260200160405190810160405280939291908181526020018383808284378201915050505050509192919290803590602001908201803590602001908080601f0160208091040260200160405190810160405280939291908181526020018383808284378201915050505050509192919290505050613c3f565b005b348015610a1d57600080fd5b50610a3c60048036038101908080359060200190929190505050613fcb565b005b348015610a4a57600080fd5b50610af3600480360381019080803560001916906020019092919080359060200190820180359060200190808060200260200160405190810160405280939291908181526020018383602002808284378201915050505050509192919290803590602001908201803590602001908080602002602001604051908101604052809392919081815260200183836020028082843782019150505050505091929192905050506142fe565b005b348015610b0157600080fd5b50610b0a61480c565b604051808273ffffffffffffffffffffffffffffffffffffffff1673ffffffffffffffffffffffffffffffffffffffff16815260200191505060405180910390f35b348015610b5857600080fd5b50610b61614832565b6040518082815260200191505060405180910390f35b348015610b8357600080fd5b50610ba260048036038101908080359060200190929190505050614838565b6040518082815260200191505060405180910390f35b348015610bc457600080fd5b50610bcd614917565b604051808273ffffffffffffffffffffffffffffffffffffffff1673ffffffffffffffffffffffffffffffffffffffff16815260200191505060405180910390f35b348015610c1b57600080fd5b50610c3a6004803603810190808035906020019092919050505061493d565b005b348015610c4857600080fd5b50610c6760048036038101908080359060200190929190505050614c8e565b6040518082815260200191505060405180910390f35b348015610c8957600080fd5b50610cfb600480360381019080803560ff16906020019092919080359060200190929190803590602001908201803590602001908080601f0160208091040260200160405190810160405280939291908181526020018383808284378201915050505050509192919290505050614ca6565b604051808215151515815260200191505060405180910390f35b348015610d2157600080fd5b50610d4e600480360381019080803560001916906020019092919080359060200190929190505050614d86565b005b348015610d5c57600080fd5b50610d7f60048036038101908080356000191690602001909291905050506154cf565b60405180848152602001838152602001828152602001935050505060405180910390f35b348015610daf57600080fd5b50610dce600480360381019080803590602001909291905050506154f9565b005b348015610ddc57600080fd5b50610e056004803603810190808035906020019092919080359060200190929190505050615613565b005b60085481565b600681815481101515610e1c57fe5b906000526020600020016000915090505481565b600060019054906101000a900473ffffffffffffffffffffffffffffffffffffffff168073ffffffffffffffffffffffffffffffffffffffff163373ffffffffffffffffffffffffffffffffffffffff16141515610ef6576040517f08c379a00000000000000000000000000000000000000000000000000000000081526004018080602001828103825260168152602001807f53656e646572206e6f7420617574686f72697a65642e0000000000000000000081525060200191505060405180910390fd5b7fffffffffffffffffffffffffffffffffffffffffffffffffffffffffffffffff6007819055507fc091136731faaafc407d34b2dc2d84c30df98775ec9a6f4d6df5002c17a3a0096003546007546040518083600019166000191681526020018281526020019250505060405180910390a150565b600a6020528060005260406000206000915090508060000160009054906101000a900473ffffffffffffffffffffffffffffffffffffffff16908060010154905082565b600080600c600033604051602001808273ffffffffffffffffffffffffffffffffffffffff1673ffffffffffffffffffffffffffffffffffffffff166c010000000000000000000000000281526014019150506040516020818303038152906040526040518082805190602001908083835b6020831015156110465780518252602082019150602081019050602083039250611021565b6001836020036101000a03801982511681845116808217855250505050505090500191505060405180910390206000191660001916815260200190815260200160002060010154111515611102576040517f08c379a000000000000000000000000000000000000000000000000000000000815260040180806020018281038252601c8152602001807f436f6e74656e7420776173206e65766572207075726368617365642e0000000081525060200191505060405180910390fd5b33604051602001808273ffffffffffffffffffffffffffffffffffffffff1673ffffffffffffffffffffffffffffffffffffffff166c010000000000000000000000000281526014019150506040516020818303038152906040526040518082805190602001908083835b602083101515611192578051825260208201915060208101905060208303925061116d565b6001836020036101000a03801982511681845116808217855250505050505090500191505060405180910390209050600c6000826000191660001916815260200190815260200160002060010154600c600083600019166000191681526020019081526020016000206000015483011115151561129d576040517f08c379a00000000000000000000000000000000000000000000000000000000081526004018080602001828103825260298152602001807f43616e6e6f7420756e6c6f636b206d6f726520666f7220726573616c6520746881526020017f616e206f776e65642e000000000000000000000000000000000000000000000081525060400191505060405180910390fd5b81600c6000836000191660001916815260200190815260200160002060000160008282540192505081905550600c6000826000191660001916815260200190815260200160002060010154600c60008360001916600019168152602001908152602001600020600001541115151561131157fe5b7fe78857a26a7fe475546465ff27735fabea42cc1dc6fb9284b146bd4d01f9244460035433600c60008560001916600019168152602001908152602001600020600001546040518084600019166000191681526020018373ffffffffffffffffffffffffffffffffffffffff1673ffffffffffffffffffffffffffffffffffffffff168152602001828152602001935050505060405180910390a15050565b600460009054906101000a900460ff1681565b600d602052816000526040600020602052806000526040600020600091509150508054600181600116156101000203166002900480601f0160208091040260200160405190810160405280929190818152602001828054600181600116156101000203166002900480156114785780601f1061144d57610100808354040283529160200191611478565b820191906000526020600020905b81548152906001019060200180831161145b57829003601f168201915b505050505081565b600033604051602001808273ffffffffffffffffffffffffffffffffffffffff1673ffffffffffffffffffffffffffffffffffffffff166c010000000000000000000000000281526014019150506040516020818303038152906040526040518082805190602001908083835b60208310151561151257805182526020820191506020810190506020830392506114ed565b6001836020036101000a038019825116818451168082178552505050505050905001915050604051809103902090506000600b60008360001916600019168152602001908152602001600020541115156115d4576040517f08c379a00000000000000000000000000000000000000000000000000000000081526004018080602001828103825260158152602001807f4e6f2062616c616e636520746f2072656465656d2e000000000000000000000081525060200191505060405180910390fd5b600160009054906101000a900473ffffffffffffffffffffffffffffffffffffffff1673ffffffffffffffffffffffffffffffffffffffff1663a9059cbb33600b60008560001916600019168152602001908152602001600020546040518363ffffffff167c0100000000000000000000000000000000000000000000000000000000028152600401808373ffffffffffffffffffffffffffffffffffffffff1673ffffffffffffffffffffffffffffffffffffffff16815260200182815260200192505050602060405180830381600087803b1580156116b457600080fd5b505af11580156116c8573d6000803e3d6000fd5b505050506040513d60208110156116de57600080fd5b810190808051906020019092919050505015611779576000600b60008360001916600019168152602001908152602001600020819055507fcb7d87f76b4d6501ac27ed560664bf84ce273a2ddd7b9b1da63c753e68ccae2033604051808273ffffffffffffffffffffffffffffffffffffffff1673ffffffffffffffffffffffffffffffffffffffff16815260200191505060405180910390a15b50565b600060019054906101000a900473ffffffffffffffffffffffffffffffffffffffff168073ffffffffffffffffffffffffffffffffffffffff163373ffffffffffffffffffffffffffffffffffffffff16141515611842576040517f08c379a00000000000000000000000000000000000000000000000000000000081526004018080602001828103825260168152602001807f53656e646572206e6f7420617574686f72697a65642e0000000000000000000081525060200191505060405180910390fd5b6000821315156118ba576040517f08c379a00000000000000000000000000000000000000000000000000000000081526004018080602001828103825260208152602001807f5175616e74697479206d7573742062652067726561746572207468616e20302e81525060200191505060405180910390fd5b600060075412156118d157816007819055506118e2565b816007600082825401925050819055505b7f4d5e60ebabb4f9e04a7695c3fb447c28c0a1815e2e0ab101f0d7d77364e8f51e60035483600754604051808460001916600019168152602001838152602001828152602001935050505060405180910390a17fc091136731faaafc407d34b2dc2d84c30df98775ec9a6f4d6df5002c17a3a0096003546007546040518083600019166000191681526020018281526020019250505060405180910390a15050565b600260009054906101000a900473ffffffffffffffffffffffffffffffffffffffff1681565b60035481565b6000806000806000806000809054906101000a900460ff16151515611a63576040517f08c379a00000000000000000000000000000000000000000000000000000000081526004018080602001828103825260268152602001807f496e69742066756e6374696f6e2063616e206f6e6c792062652063616c6c656481526020017f206f6e63652e000000000000000000000000000000000000000000000000000081525060400191505060405180910390fd5b60016000806101000a81548160ff0219169083151502179055506020870195508551945060408701955085519350606087019550855192506080870195508551915060a0870195508551905084600060016101000a81548173ffffffffffffffffffffffffffffffffffffffff021916908373ffffffffffffffffffffffffffffffffffffffff16021790555083600160006101000a81548173ffffffffffffffffffffffffffffffffffffffff021916908373ffffffffffffffffffffffffffffffffffffffff16021790555082600260006101000a81548173ffffffffffffffffffffffffffffffffffffffff021916908373ffffffffffffffffffffffffffffffffffffffff16021790555081600381600019169055506001600460006101000a81548160ff0219169083151502179055508060078190555050505050505050565b6000600a60008360001916600019168152602001908152602001600020600101549050919050565b600b6020528060005260406000206000915090505481565b600080600060019054906101000a900473ffffffffffffffffffffffffffffffffffffffff168073ffffffffffffffffffffffffffffffffffffffff163373ffffffffffffffffffffffffffffffffffffffff16141515611cb1576040517f08c379a00000000000000000000000000000000000000000000000000000000081526004018080602001828103825260168152602001807f53656e646572206e6f7420617574686f72697a65642e0000000000000000000081525060200191505060405180910390fd5b600460009054906101000a900460ff161515611d35576040517f08c379a00000000000000000000000000000000000000000000000000000000081526004018080602001828103825260108152602001807f41465320697320756e6c69737465642e0000000000000000000000000000000081525060200191505060405180910390fd5b888890508b8b905011611d4b5788889050611d50565b8a8a90505b9250600091505b82821015611ecd5760018b8b90500382111515611e0f57611dbf602860ff168302602860ff1689898080601f0160208091040260200160405190810160405280939291908181526020018383808284378201915050505050506158939092919063ffffffff16565b600d60008060ff16815260200190815260200160002060008d8d868181101515611de557fe5b9050602002013581526020019081526020016000209080519060200190611e0d92919061598f565b505b6001898990500382111515611ec057611e6f604060ff168302604060ff1687878080601f0160208091040260200160405190810160405280939291908181526020018383808284378201915050505050506158939092919063ffffffff16565b600d6000600160ff16815260200190815260200160002060008b8b868181101515611e9657fe5b9050602002013581526020019081526020016000209080519060200190611ebe92919061598f565b505b8180600101925050611d57565b7f9e8a51bb6b34b9d5d18c14fd753ee3bf44e2256512665a4577281ffcc91943ff60035460405180826000191660001916815260200191505060405180910390a15050505050505050505050565b60095481565b6000600b600083604051602001808273ffffffffffffffffffffffffffffffffffffffff1673ffffffffffffffffffffffffffffffffffffffff166c010000000000000000000000000281526014019150506040516020818303038152906040526040518082805190602001908083835b602083101515611fb75780518252602082019150602081019050602083039250611f92565b6001836020036101000a038019825116818451168082178552505050505050905001915050604051809103902060001916600019168152602001908152602001600020549050919050565b600060019054906101000a900473ffffffffffffffffffffffffffffffffffffffff168073ffffffffffffffffffffffffffffffffffffffff163373ffffffffffffffffffffffffffffffffffffffff161415156120c8576040517f08c379a00000000000000000000000000000000000000000000000000000000081526004018080602001828103825260168152602001807f53656e646572206e6f7420617574686f72697a65642e0000000000000000000081525060200191505060405180910390fd5b600082131515612140576040517f08c379a00000000000000000000000000000000000000000000000000000000081526004018080602001828103825260208152602001807f5175616e74697479206d7573742062652067726561746572207468616e20302e81525060200191505060405180910390fd5b816007819055507fc091136731faaafc407d34b2dc2d84c30df98775ec9a6f4d6df5002c17a3a0096003546007546040518083600019166000191681526020018281526020019250505060405180910390a15050565b600060019054906101000a900473ffffffffffffffffffffffffffffffffffffffff168073ffffffffffffffffffffffffffffffffffffffff163373ffffffffffffffffffffffffffffffffffffffff1614151561225c576040517f08c379a00000000000000000000000000000000000000000000000000000000081526004018080602001828103825260168152602001807f53656e646572206e6f7420617574686f72697a65642e0000000000000000000081525060200191505060405180910390fd5b816009819055507f9f274eefea84ac29e2f56b92eafc8045314ec62bf45e12c57b3f80017ea6245e6003546009546040518083600019166000191681526020018281526020019250505060405180910390a15050565b600080600080600080600954111515612359576040517f08c379a00000000000000000000000000000000000000000000000000000000081526004018080602001828103825260218152602001807f4974656d206973206e6f7420617661696c61626c6520666f7220726573616c6581526020017f2e0000000000000000000000000000000000000000000000000000000000000081525060400191505060405180910390fd5b6000881115156123d1576040517f08c379a000000000000000000000000000000000000000000000000000000000815260040180806020018281038252601e8152602001807f4d757374207075726368617365206174206c65617374203120636f70792e000081525060200191505060405180910390fd5b89604051602001808273ffffffffffffffffffffffffffffffffffffffff1673ffffffffffffffffffffffffffffffffffffffff166c010000000000000000000000000281526014019150506040516020818303038152906040526040518082805190602001908083835b602083101515612461578051825260208201915060208101905060208303925061243c565b6001836020036101000a038019825116818451168082178552505050505050905001915050604051809103902094506000600c600087600019166000191681526020019081526020016000206000015411151561254c576040517f08c379a00000000000000000000000000000000000000000000000000000000081526004018080602001828103825260218152602001807f53656c6c657220686173206e6f7420617574686f72697a656420726573616c6581526020017f2e0000000000000000000000000000000000000000000000000000000000000081525060400191505060405180910390fd5b6000600c60008760001916600019168152602001908152602001600020600101541115156125e2576040517f08c379a00000000000000000000000000000000000000000000000000000000081526004018080602001828103825260208152602001807f53656c6c6572206d757374206f776e206174206c65617374203120636f70792e81525060200191505060405180910390fd5b600954600c60008760001916600019168152602001908152602001600020600301600060018b038152602001908152602001600020541015156126b3576040517f08c379a00000000000000000000000000000000000000000000000000000000081526004018080602001828103825260378152602001807f436f70792068617320616c7265616479206265656e20736f6c6420746865206d81526020017f6178696d756d206e756d626572206f662074696d65732e00000000000000000081525060400191505060405180910390fd5b600160009054906101000a900473ffffffffffffffffffffffffffffffffffffffff1673ffffffffffffffffffffffffffffffffffffffff1663dd62ed3e33306040518363ffffffff167c0100000000000000000000000000000000000000000000000000000000028152600401808373ffffffffffffffffffffffffffffffffffffffff1673ffffffffffffffffffffffffffffffffffffffff1681526020018273ffffffffffffffffffffffffffffffffffffffff1673ffffffffffffffffffffffffffffffffffffffff16815260200192505050602060405180830381600087803b1580156127a457600080fd5b505af11580156127b8573d6000803e3d6000fd5b505050506040513d60208110156127ce57600080fd5b8101908080519060200190929190505050935085600c600087600019166000191681526020019081526020016000206002015489020184101515156128a1576040517f08c379a00000000000000000000000000000000000000000000000000000000081526004018080602001828103825260248152602001807f50726f7879206d75737420626520617070726f76656420666f7220707572636881526020017f6173652e0000000000000000000000000000000000000000000000000000000081525060400191505060405180910390fd5b600160009054906101000a900473ffffffffffffffffffffffffffffffffffffffff1673ffffffffffffffffffffffffffffffffffffffff166323b872dd338c600854600c60008b6000191660001916815260200190815260200160002060020154038c026040518463ffffffff167c0100000000000000000000000000000000000000000000000000000000028152600401808473ffffffffffffffffffffffffffffffffffffffff1673ffffffffffffffffffffffffffffffffffffffff1681526020018373ffffffffffffffffffffffffffffffffffffffff1673ffffffffffffffffffffffffffffffffffffffff1681526020018281526020019350505050602060405180830381600087803b1580156129be57600080fd5b505af11580156129d2573d6000803e3d6000fd5b505050506040513d60208110156129e857600080fd5b81019080805190602001909291905050508015612b5b5750600160009054906101000a900473ffffffffffffffffffffffffffffffffffffffff1673ffffffffffffffffffffffffffffffffffffffff166323b872dd33600060019054906101000a900473ffffffffffffffffffffffffffffffffffffffff166008548c026040518463ffffffff167c0100000000000000000000000000000000000000000000000000000000028152600401808473ffffffffffffffffffffffffffffffffffffffff1673ffffffffffffffffffffffffffffffffffffffff1681526020018373ffffffffffffffffffffffffffffffffffffffff1673ffffffffffffffffffffffffffffffffffffffff1681526020018281526020019350505050602060405180830381600087803b158015612b1f57600080fd5b505af1158015612b33573d6000803e3d6000fd5b505050506040513d6020811015612b4957600080fd5b81019080805190602001909291905050505b15612f0a5787600c600087600019166000191681526020019081526020016000206001016000828254039250508190555087600c600087600019166000191681526020019081526020016000206000016000828254039250508190555033604051602001808273ffffffffffffffffffffffffffffffffffffffff1673ffffffffffffffffffffffffffffffffffffffff166c010000000000000000000000000281526014019150506040516020818303038152906040526040518082805190602001908083835b602083101515612c485780518252602082019150602081019050602083039250612c23565b6001836020036101000a03801982511681845116808217855250505050505090500191505060405180910390209250600c60008460001916600019168152602001908152602001600020600101549150600090505b87811015612d48576000600c600087600019166000191681526020019081526020016000206003016000600c60008960001916600019168152602001908152602001600020600101548401815260200190815260200160002081905550600c6000846000191660001916815260200190815260200160002060030160008383018152602001908152602001600020600081548092919060010191905055508080600101915050612c9d565b87600c6000856000191660001916815260200190815260200160002060010160008282540192505081905550600854600c6000856000191660001916815260200190815260200160002060020181905550600260009054906101000a900473ffffffffffffffffffffffffffffffffffffffff1673ffffffffffffffffffffffffffffffffffffffff16630c2bb9658a6003546040518363ffffffff167c0100000000000000000000000000000000000000000000000000000000028152600401808360001916600019168152602001826000191660001916815260200192505050600060405180830381600087803b158015612e4457600080fd5b505af1158015612e58573d6000803e3d6000fd5b505050507ffebfe077605da295a1970a60979814bb7f1d6ec6842d857b0820a130725bd1c5896003548a600c60008a60001916600019168152602001908152602001600020600201548c02604051808560001916600019168152602001846000191660001916815260200183815260200182815260200194505050505060405180910390a1600060010260001916876000191614158015612ef95750600086115b15612f0957612f088787614d86565b5b5b50505050505050505050565b600080600c600033604051602001808273ffffffffffffffffffffffffffffffffffffffff1673ffffffffffffffffffffffffffffffffffffffff166c010000000000000000000000000281526014019150506040516020818303038152906040526040518082805190602001908083835b602083101515612fad5780518252602082019150602081019050602083039250612f88565b6001836020036101000a03801982511681845116808217855250505050505090500191505060405180910390206000191660001916815260200190815260200160002060010154111515613069576040517f08c379a000000000000000000000000000000000000000000000000000000000815260040180806020018281038252601c8152602001807f436f6e74656e7420776173206e65766572207075726368617365642e0000000081525060200191505060405180910390fd5b33604051602001808273ffffffffffffffffffffffffffffffffffffffff1673ffffffffffffffffffffffffffffffffffffffff166c010000000000000000000000000281526014019150506040516020818303038152906040526040518082805190602001908083835b6020831015156130f957805182526020820191506020810190506020830392506130d4565b6001836020036101000a0380198251168184511680821785525050505050509050019150506040518091039020905081600c6000836000191660001916815260200190815260200160002060000154101515156131e4576040517f08c379a000000000000000000000000000000000000000000000000000000000815260040180806020018281038252602e8152602001807f43616e6e6f74206c6f636b206d6f7265207468616e20697320617661696c616281526020017f6c6520666f7220726573616c652e00000000000000000000000000000000000081525060400191505060405180910390fd5b81600c6000836000191660001916815260200190815260200160002060000160008282540392505081905550600c6000826000191660001916815260200190815260200160002060010154600c60008360001916600019168152602001908152602001600020600001541115151561325857fe5b7fce3027e9449a5a6879bfbf6898b09a15c2232476d45e2913421cd05d2b4eed1360035433600c60008560001916600019168152602001908152602001600020600001546040518084600019166000191681526020018373ffffffffffffffffffffffffffffffffffffffff1673ffffffffffffffffffffffffffffffffffffffff168152602001828152602001935050505060405180910390a15050565b60008060019054906101000a900473ffffffffffffffffffffffffffffffffffffffff168073ffffffffffffffffffffffffffffffffffffffff163373ffffffffffffffffffffffffffffffffffffffff161415156133be576040517f08c379a00000000000000000000000000000000000000000000000000000000081526004018080602001828103825260168152602001807f53656e646572206e6f7420617574686f72697a65642e0000000000000000000081525060200191505060405180910390fd5b6000600460006101000a81548160ff0219169083151502179055507f2e6ec049d62c8a42e7cc223354aadb68d5046a2cba67ed55a089fdb852fb6cb660035460405180826000191660001916815260200191505060405180910390a1600191505090565b6000806000600754141515156134c6576040517f08c379a00000000000000000000000000000000000000000000000000000000081526004018080602001828103825260268152602001807f4e6f206d6f726520636f7069657320617661696c61626c6520666f722070757281526020017f63686173652e000000000000000000000000000000000000000000000000000081525060400191505060405180910390fd5b60008511151561353e576040517f08c379a000000000000000000000000000000000000000000000000000000000815260040180806020018281038252601e8152602001807f4d757374207075726368617365206174206c65617374203120636f70792e000081525060200191505060405180910390fd5b600160009054906101000a900473ffffffffffffffffffffffffffffffffffffffff1673ffffffffffffffffffffffffffffffffffffffff1663dd62ed3e33306040518363ffffffff167c0100000000000000000000000000000000000000000000000000000000028152600401808373ffffffffffffffffffffffffffffffffffffffff1673ffffffffffffffffffffffffffffffffffffffff1681526020018273ffffffffffffffffffffffffffffffffffffffff1673ffffffffffffffffffffffffffffffffffffffff16815260200192505050602060405180830381600087803b15801561362f57600080fd5b505af1158015613643573d6000803e3d6000fd5b505050506040513d602081101561365957600080fd5b8101908080519060200190929190505050915033604051602001808273ffffffffffffffffffffffffffffffffffffffff1673ffffffffffffffffffffffffffffffffffffffff166c010000000000000000000000000281526014019150506040516020818303038152906040526040518082805190602001908083835b6020831015156136fc57805182526020820191506020810190506020830392506136d7565b6001836020036101000a0380198251168184511680821785525050505050509050019150506040518091039020905082600560008781526020019081526020016000205486020182101515156137e0576040517f08c379a00000000000000000000000000000000000000000000000000000000081526004018080602001828103825260248152602001807f50726f7879206d75737420626520617070726f76656420666f7220707572636881526020017f6173652e0000000000000000000000000000000000000000000000000000000081525060400191505060405180910390fd5b600160009054906101000a900473ffffffffffffffffffffffffffffffffffffffff1673ffffffffffffffffffffffffffffffffffffffff166323b872dd33600060019054906101000a900473ffffffffffffffffffffffffffffffffffffffff16600560008a81526020019081526020016000205489026040518463ffffffff167c0100000000000000000000000000000000000000000000000000000000028152600401808473ffffffffffffffffffffffffffffffffffffffff1673ffffffffffffffffffffffffffffffffffffffff1681526020018373ffffffffffffffffffffffffffffffffffffffff1673ffffffffffffffffffffffffffffffffffffffff1681526020018281526020019350505050602060405180830381600087803b15801561391057600080fd5b505af1158015613924573d6000803e3d6000fd5b505050506040513d602081101561393a57600080fd5b810190808051906020019092919050505015613b3b5784600c6000836000191660001916815260200190815260200160002060010160008282540192505081905550600854600c6000836000191660001916815260200190815260200160002060020181905550600060075413156139d55760076000815480929190600190039190505550600060075414156139d4576139d26132f7565b505b5b600260009054906101000a900473ffffffffffffffffffffffffffffffffffffffff1673ffffffffffffffffffffffffffffffffffffffff16630c2bb965876003546040518363ffffffff167c0100000000000000000000000000000000000000000000000000000000028152600401808360001916600019168152602001826000191660001916815260200192505050600060405180830381600087803b158015613a8057600080fd5b505af1158015613a94573d6000803e3d6000fd5b505050507f1e429970e9f49ffa0352d8546dc55691024a74635e00524859e819fc5bcae7a08660035487600560008a8152602001908152602001600020548902604051808560001916600019168152602001846000191660001916815260200183815260200182815260200194505050505060405180910390a1600060010260001916846000191614158015613b2a5750600083115b15613b3a57613b398484614d86565b5b5b505050505050565b6060600460009054906101000a900460ff161515613b735760206040519081016040528060008152509050613c39565b600d60008460ff1660ff16815260200190815260200160002060008381526020019081526020016000208054600181600116156101000203166002900480601f016020809104026020016040519081016040528092919081815260200182805460018160011615610100020316600290048015613c315780601f10613c0657610100808354040283529160200191613c31565b820191906000526020600020905b815481529060010190602001808311613c1457829003601f168201915b505050505090505b92915050565b600080600060019054906101000a900473ffffffffffffffffffffffffffffffffffffffff168073ffffffffffffffffffffffffffffffffffffffff163373ffffffffffffffffffffffffffffffffffffffff16141515613d08576040517f08c379a00000000000000000000000000000000000000000000000000000000081526004018080602001828103825260168152602001807f53656e646572206e6f7420617574686f72697a65642e0000000000000000000081525060200191505060405180910390fd5b600460009054906101000a900460ff161515613d8c576040517f08c379a00000000000000000000000000000000000000000000000000000000081526004018080602001828103825260108152602001807f41465320697320756e6c69737465642e0000000000000000000000000000000081525060200191505060405180910390fd5b8551875111613d9c578551613d9f565b86515b9250613db860006020876158939092919063ffffffff16565b600d60008060ff16815260200190815260200160002060008081526020019081526020016000209080519060200190613df292919061598f565b50613e0a60006020866158939092919063ffffffff16565b600d6000600160ff16815260200190815260200160002060008081526020019081526020016000209080519060200190613e4592919061598f565b50600191505b82821015613f8157600187510382111515613ee357613e908783815181101515613e7157fe5b90602001906020020151602860ff16876158939092919063ffffffff16565b600d60008060ff16815260200190815260200160002060008985815181101515613eb657fe5b9060200190602002015181526020019081526020016000209080519060200190613ee192919061598f565b505b600186510382111515613f7457613f208683815181101515613f0157fe5b90602001906020020151604060ff16866158939092919063ffffffff16565b600d6000600160ff16815260200190815260200160002060008885815181101515613f4757fe5b9060200190602002015181526020019081526020016000209080519060200190613f7292919061598f565b505b8180600101925050613e4b565b7f9e8a51bb6b34b9d5d18c14fd753ee3bf44e2256512665a4577281ffcc91943ff60035460405180826000191660001916815260200191505060405180910390a150505050505050565b600060019054906101000a900473ffffffffffffffffffffffffffffffffffffffff168073ffffffffffffffffffffffffffffffffffffffff163373ffffffffffffffffffffffffffffffffffffffff16141515614091576040517f08c379a00000000000000000000000000000000000000000000000000000000081526004018080602001828103825260168152602001807f53656e646572206e6f7420617574686f72697a65642e0000000000000000000081525060200191505060405180910390fd5b60008213151561412f576040517f08c379a000000000000000000000000000000000000000000000000000000000815260040180806020018281038252602c8152602001807f43616e6e6f742072656d6f7665206e6f6e2d706f736974697665206e756d626581526020017f72206f6620636f706965732e000000000000000000000000000000000000000081525060400191505060405180910390fd5b60006007541315156141a9576040517f08c379a000000000000000000000000000000000000000000000000000000000815260040180806020018281038252601d8152602001807f43616e6e6f742072656d6f766520616e796d6f726520636f706965732e00000081525060200191505060405180910390fd5b600082600754031215151561424c576040517f08c379a00000000000000000000000000000000000000000000000000000000081526004018080602001828103825260308152602001807f547279696e6720746f2072656d6f7665206d6f726520636f706965732074686181526020017f6e20616c72656164792065786973742e0000000000000000000000000000000081525060400191505060405180910390fd5b816007600082825403925050819055507f5209c5c710223d21802b09a920c9590b9985998c367e4849f60d3b248facd58960035483600754604051808460001916600019168152602001838152602001828152602001935050505060405180910390a17fc091136731faaafc407d34b2dc2d84c30df98775ec9a6f4d6df5002c17a3a0096003546007546040518083600019166000191681526020018281526020019250505060405180910390a15050565b600080600080863373ffffffffffffffffffffffffffffffffffffffff16600a6000836000191660001916815260200190815260200160002060000160009054906101000a900473ffffffffffffffffffffffffffffffffffffffff1673ffffffffffffffffffffffffffffffffffffffff1614801561439c57506000600a6000836000191660001916815260200190815260200160002060010154115b1515614410576040517f08c379a000000000000000000000000000000000000000000000000000000000815260040180806020018281038252600f8152602001807f4a6f6220697320696e76616c69642e000000000000000000000000000000000081525060200191505060405180910390fd5b855187511415156144af576040517f08c379a00000000000000000000000000000000000000000000000000000000081526004018080602001828103825260268152602001807f556e657175616c206e756d626572206f66206661726d65727320616e6420726581526020017f77617264732e000000000000000000000000000000000000000000000000000081525060400191505060405180910390fd5b600093505b85518460ff1610156144ec57858460ff168151811015156144d157fe5b906020019060200201518501945083806001019450506144b4565b600a60008960001916600019168152602001908152602001600020600101548511151515614582576040517f08c379a00000000000000000000000000000000000000000000000000000000081526004018080602001828103825260148152602001807f496e73756666696369656e74206275646765742e00000000000000000000000081525060200191505060405180910390fd5b600092505b86518360ff16101561467e57858360ff168151811015156145a457fe5b90602001906020020151600a60008a6000191660001916815260200190815260200160002060010154101515156145d757fe5b858360ff168151811015156145e857fe5b90602001906020020151600b6000898660ff1681518110151561460757fe5b906020019060200201516000191660001916815260200190815260200160002081905550858360ff1681518110151561463c57fe5b90602001906020020151600a60008a60001916600019168152602001908152602001600020600101600082825403925050819055508280600101935050614587565b600a6000896000191660001916815260200190815260200160002060010154915060008211156147b15781600b600033604051602001808273ffffffffffffffffffffffffffffffffffffffff1673ffffffffffffffffffffffffffffffffffffffff166c010000000000000000000000000281526014019150506040516020818303038152906040526040518082805190602001908083835b60208310151561473d5780518252602082019150602081019050602083039250614718565b6001836020036101000a038019825116818451168082178552505050505050905001915050604051809103902060001916600019168152602001908152602001600020819055506000600a60008a60001916600019168152602001908152602001600020600101819055506147b0611480565b5b7f2bd45e0776b585a6e4ce4cc376082ac45c657ad116f95f80480b6343678354e86003548684604051808460001916600019168152602001838152602001828152602001935050505060405180910390a15050505050505050565b600160009054906101000a900473ffffffffffffffffffffffffffffffffffffffff1681565b60075481565b60008060008090505b6006805490508110156148f9578360068281548110151561485e57fe5b9060005260206000200154141561488a5760056000858152602001908152602001600020549250614910565b8360068281548110151561489a57fe5b90600052602060002001541080156148ca5750816006828154811015156148bd57fe5b9060005260206000200154115b156148ec576006818154811015156148de57fe5b906000526020600020015491505b8080600101915050614841565b600560008381526020019081526020016000205492505b5050919050565b600060019054906101000a900473ffffffffffffffffffffffffffffffffffffffff1681565b6000600c600033604051602001808273ffffffffffffffffffffffffffffffffffffffff1673ffffffffffffffffffffffffffffffffffffffff166c010000000000000000000000000281526014019150506040516020818303038152906040526040518082805190602001908083835b6020831015156149d357805182526020820191506020810190506020830392506149ae565b6001836020036101000a03801982511681845116808217855250505050505090500191505060405180910390206000191660001916815260200190815260200160002060010154111515614a8f576040517f08c379a000000000000000000000000000000000000000000000000000000000815260040180806020018281038252601c8152602001807f436f6e74656e7420776173206e65766572207075726368617365642e0000000081525060200191505060405180910390fd5b6008548110151515614b2f576040517f08c379a00000000000000000000000000000000000000000000000000000000081526004018080602001828103825260378152602001807f526573616c65207072696365206d757374206265206174206c6561737420746881526020017f65206d696e696d756d20726573616c652070726963652e00000000000000000081525060400191505060405180910390fd5b80600c600033604051602001808273ffffffffffffffffffffffffffffffffffffffff1673ffffffffffffffffffffffffffffffffffffffff166c010000000000000000000000000281526014019150506040516020818303038152906040526040518082805190602001908083835b602083101515614bc45780518252602082019150602081019050602083039250614b9f565b6001836020036101000a038019825116818451168082178552505050505050905001915050604051809103902060001916600019168152602001908152602001600020600201819055507f0e2912681a5905a8c6a4452da27fc30eb533a3aba5b44cf5a404baeadcdb134760035433836040518084600019166000191681526020018373ffffffffffffffffffffffffffffffffffffffff1673ffffffffffffffffffffffffffffffffffffffff168152602001828152602001935050505060405180910390a150565b60056020528060005260406000206000915090505481565b6000614d7d82600d60008760ff1660ff16815260200190815260200160002060008681526020019081526020016000208054600181600116156101000203166002900480601f016020809104026020016040519081016040528092919081815260200182805460018160011615610100020316600290048015614d6a5780601f10614d3f57610100808354040283529160200191614d6a565b820191906000526020600020905b815481529060010190602001808311614d4d57829003601f168201915b505050505061592090919063ffffffff16565b90509392505050565b600080600c600033604051602001808273ffffffffffffffffffffffffffffffffffffffff1673ffffffffffffffffffffffffffffffffffffffff166c010000000000000000000000000281526014019150506040516020818303038152906040526040518082805190602001908083835b602083101515614e1d5780518252602082019150602081019050602083039250614df8565b6001836020036101000a03801982511681845116808217855250505050505090500191505060405180910390206000191660001916815260200190815260200160002060010154111515614ed9576040517f08c379a000000000000000000000000000000000000000000000000000000000815260040180806020018281038252601c8152602001807f436f6e74656e7420776173206e65766572207075726368617365642e0000000081525060200191505060405180910390fd5b600160009054906101000a900473ffffffffffffffffffffffffffffffffffffffff1673ffffffffffffffffffffffffffffffffffffffff1663dd62ed3e33306040518363ffffffff167c0100000000000000000000000000000000000000000000000000000000028152600401808373ffffffffffffffffffffffffffffffffffffffff1673ffffffffffffffffffffffffffffffffffffffff1681526020018273ffffffffffffffffffffffffffffffffffffffff1673ffffffffffffffffffffffffffffffffffffffff16815260200192505050602060405180830381600087803b158015614fca57600080fd5b505af1158015614fde573d6000803e3d6000fd5b505050506040513d6020811015614ff457600080fd5b810190808051906020019092919050505090506000600102600019168360001916141580156150235750600082115b801561502f5750818110155b80156151195750600073ffffffffffffffffffffffffffffffffffffffff16600a6000856000191660001916815260200190815260200160002060000160009054906101000a900473ffffffffffffffffffffffffffffffffffffffff1673ffffffffffffffffffffffffffffffffffffffff16148061511857503373ffffffffffffffffffffffffffffffffffffffff16600a6000856000191660001916815260200190815260200160002060000160009054906101000a900473ffffffffffffffffffffffffffffffffffffffff1673ffffffffffffffffffffffffffffffffffffffff16145b5b151561518d576040517f08c379a00000000000000000000000000000000000000000000000000000000081526004018080602001828103825260178152602001807f4a6f62207375626d697373696f6e20696e76616c69642e00000000000000000081525060200191505060405180910390fd5b600160009054906101000a900473ffffffffffffffffffffffffffffffffffffffff1673ffffffffffffffffffffffffffffffffffffffff166323b872dd3330856040518463ffffffff167c0100000000000000000000000000000000000000000000000000000000028152600401808473ffffffffffffffffffffffffffffffffffffffff1673ffffffffffffffffffffffffffffffffffffffff1681526020018373ffffffffffffffffffffffffffffffffffffffff1673ffffffffffffffffffffffffffffffffffffffff1681526020018281526020019350505050602060405180830381600087803b15801561528657600080fd5b505af115801561529a573d6000803e3d6000fd5b505050506040513d60208110156152b057600080fd5b8101908080519060200190929190505050156154ca5781600a600085600019166000191681526020019081526020016000206001016000828254019250508190555033600a6000856000191660001916815260200190815260200160002060000160006101000a81548173ffffffffffffffffffffffffffffffffffffffff021916908373ffffffffffffffffffffffffffffffffffffffff160217905550600160009054906101000a900473ffffffffffffffffffffffffffffffffffffffff1673ffffffffffffffffffffffffffffffffffffffff166370a08231306040518263ffffffff167c0100000000000000000000000000000000000000000000000000000000028152600401808273ffffffffffffffffffffffffffffffffffffffff1673ffffffffffffffffffffffffffffffffffffffff168152602001915050602060405180830381600087803b15801561540c57600080fd5b505af1158015615420573d6000803e3d6000fd5b505050506040513d602081101561543657600080fd5b8101908080519060200190929190505050600a60008560001916600019168152602001908152602001600020600101541115151561547057fe5b7f4521c984beed01d188bcc3bd297e6530cd217723b880fa43c70fbcbd664fb2ac60035484846040518084600019166000191681526020018360001916600019168152602001828152602001935050505060405180910390a15b505050565b600c6020528060005260406000206000915090508060000154908060010154908060020154905083565b600060019054906101000a900473ffffffffffffffffffffffffffffffffffffffff168073ffffffffffffffffffffffffffffffffffffffff163373ffffffffffffffffffffffffffffffffffffffff161415156155bf576040517f08c379a00000000000000000000000000000000000000000000000000000000081526004018080602001828103825260168152602001807f53656e646572206e6f7420617574686f72697a65642e0000000000000000000081525060200191505060405180910390fd5b816008819055507fdca0c456563bef627a1630910a55d7f7dbc34e6436eff2d7a6b04d5b1c76192a600354836040518083600019166000191681526020018281526020019250505060405180910390a15050565b600060019054906101000a900473ffffffffffffffffffffffffffffffffffffffff168073ffffffffffffffffffffffffffffffffffffffff163373ffffffffffffffffffffffffffffffffffffffff161415156156d9576040517f08c379a00000000000000000000000000000000000000000000000000000000081526004018080602001828103825260168152602001807f53656e646572206e6f7420617574686f72697a65642e0000000000000000000081525060200191505060405180910390fd5b600083111515615751576040517f08c379a00000000000000000000000000000000000000000000000000000000081526004018080602001828103825260208152602001807f5175616e74697479206d7573742062652067726561746572207468616e20302e81525060200191505060405180910390fd5b6000821115156157c9576040517f08c379a000000000000000000000000000000000000000000000000000000000815260040180806020018281038252601d8152602001807f5072696365206d7573742062652067726561746572207468616e20302e00000081525060200191505060405180910390fd5b6000600560008581526020019081526020016000205414156158125760068390806001815401808255809150509060018203906000526020600020016000909192909190915055505b8160056000858152602001908152602001600020819055507f2f0fe01aa6daff1c7bb411a324bdebe55dc2cd1e0ff2fc504b7569346e7d7d5a600354846005600087815260200190815260200160002054604051808460001916600019168152602001838152602001828152602001935050505060405180910390a1505050565b6060808284018551101515156158a857600080fd5b8215600081146158c357604051915060208201604052615914565b6040519150601f8416801560200281840101858101878315602002848b0101015b8183101561590157805183526020830192506020810190506158e4565b50868552601f19601f8301166040525050505b50809150509392505050565b600080600190508351835181146001811461593e5760009250615983565b600160208701838101602088015b60028483851001141561597e578051835114151561596d5760009650600093505b60208301925060208101905061594c565b505050505b50508091505092915050565b828054600181600116156101000203166002900490600052602060002090601f016020900481019282601f106159d057805160ff19168380011785556159fe565b828001600101855582156159fe579182015b828111156159fd5782518255916020019190600101906159e2565b5b509050615a0b9190615a0f565b5090565b615a3191905b80821115615a2d576000816000905550600101615a15565b5090565b905600a165627a7a72305820da77e3b20b223a2a0713400863c8d1655ab74d06960ca7f1cdbc076aa564f4340029",
  "source": "pragma solidity ^0.4.24;\n\nimport \"./Library.sol\";\nimport \"./AraToken.sol\";\nimport \"bytes/BytesLib.sol\";\n\ncontract AFS {\n\n  using BytesLib for bytes;\n\n  bool      private once_;\n\n  address   public owner_;\n\n  AraToken  public token_;\n  Library   public lib_;\n\n  bytes32   public did_;\n  bool      public listed_;\n  mapping(uint256 => uint256) public prices_; // quantity (lower bound) => price\n  uint256[] public priceTiers_; // quantity tiers\n\n  int256    public totalCopies_ = -1; // scarcity quantity; -1 for unlimited copies\n\n  uint256   public minResalePrice_;\n  uint256   public maxNumResales_; // < maxNumResales_ can be resold\n\n  mapping(bytes32 => Job)     public jobs_; // jobId => job { budget, sender }\n  mapping(bytes32 => uint256) public rewards_;    // farmer => rewards\n  mapping(bytes32 => Content) public purchasers_; // keccak256 hashes of buyer addresses\n  mapping(uint8 => mapping (uint256 => bytes)) public metadata_;\n\n  struct Job {\n    address sender;\n    uint256 budget;\n  }\n\n  struct Content {\n    uint256 available;\n    uint256 quantity;\n    uint256 resalePrice;\n    mapping(uint256 => uint256) resales; // total quantity owned => number of previous resales -- 0 indexed\n  }\n\n  event Commit(bytes32 _did);\n  event Unlisted(bytes32 _did);\n  event MinResalePriceSet(bytes32 _did, uint256 _price);\n  event ResalePriceSet(bytes32 _did, address _purchaser, uint256 _price);\n  event MaxNumResalesSet(bytes32 _did, uint256 _quantity);\n  event PriceSet(bytes32 _did, uint256 _quantity, uint256 _price);\n  event BudgetSubmitted(bytes32 _did, bytes32 _jobId, uint256 _budget);\n  event RewardsAllocated(bytes32 _did, uint256 _allocated, uint256 _returned);\n  event Purchased(bytes32 _purchaser, bytes32 _did, uint256 _quantity, uint256 _price);\n  event PurchasedResale(bytes32 _purchaser, bytes32 _did, uint256 _quantity, uint256 _price);\n  event Redeemed(address _sender);\n  event IncreasedSupply(bytes32 _did, int256 _added, int256 _total);\n  event DecreasedSupply(bytes32 _did, int256 _removed, int256 _total);\n  event SupplySet(bytes32 _did, int256 _quantity);\n  event ResaleUnlocked(bytes32 _did, address _seller, uint256 _available);\n  event ResaleLocked(bytes32 _did, address _seller, uint256 _available);\n\n  uint8 constant mtBufferSize_ = 40;\n  uint8 constant msBufferSize_ = 64;\n\n  modifier onlyBy(address _account)\n  {\n    require(\n      msg.sender == _account,\n      \"Sender not authorized.\"\n    );\n    _;\n  }\n\n  modifier purchaseRequired()\n  {\n    require(\n      purchasers_[keccak256(abi.encodePacked(msg.sender))].quantity > 0,\n      \"Content was never purchased.\"\n    );\n    _;\n  }\n\n  modifier budgetSubmitted(bytes32 _jobId)\n  {\n    require(\n      jobs_[_jobId].sender == msg.sender && jobs_[_jobId].budget > 0,\n      \"Job is invalid.\"\n    );\n    _;\n  }\n\n  modifier onlyOnce()\n  {\n    require(!once_, \"Init function can only be called once.\");\n    _;\n  }\n\n  function init(bytes _data) public onlyOnce {\n    once_ = true;\n    uint256 btsptr;\n    address ownerAddr;\n    address tokenAddr;\n    address libAddr;\n    bytes32 did;\n    int256 totalCopies;\n    /* solium-disable-next-line security/no-inline-assembly */\n    assembly {\n        btsptr := add(_data, 32)\n        ownerAddr := mload(btsptr)\n        btsptr := add(_data, 64)\n        tokenAddr := mload(btsptr)\n        btsptr := add(_data, 96)\n        libAddr := mload(btsptr)\n        btsptr := add(_data, 128)\n        did := mload(btsptr)\n        btsptr := add(_data, 160)\n        totalCopies := mload(btsptr)\n    }\n    owner_       = ownerAddr;\n    token_       = AraToken(tokenAddr);\n    lib_         = Library(libAddr);\n    did_         = did;\n    listed_      = true;\n    totalCopies_ = totalCopies;\n  }\n\n/**\n * COMMERCE\n * ===============================================================================================\n */\n\n  function setPrice(uint256 _quantity, uint256 _price) external onlyBy(owner_) {\n    require(_quantity > 0, \"Quantity must be greater than 0.\");\n    require(_price > 0, \"Price must be greater than 0.\");\n    if (prices_[_quantity] == 0) {\n      priceTiers_.push(_quantity);\n    }\n    prices_[_quantity] = _price;\n    emit PriceSet(did_, _quantity, prices_[_quantity]);\n  }\n\n  function getPrice(uint256 _quantity) public view returns (uint256) {\n    uint256 tier;\n    for (uint256 i = 0; i < priceTiers_.length; i++) {\n      if (priceTiers_[i] == _quantity) {\n        return prices_[_quantity];\n      } else if (priceTiers_[i] < _quantity && priceTiers_[i] > tier) {\n        tier = priceTiers_[i];\n      }\n    }\n    return prices_[tier];\n  }\n\n  function unlockResale(uint256 _quantity) public purchaseRequired {\n    bytes32 hashedAddress = keccak256(abi.encodePacked(msg.sender));\n    require(_quantity + purchasers_[hashedAddress].available <= purchasers_[hashedAddress].quantity, \"Cannot unlock more for resale than owned.\");\n    purchasers_[hashedAddress].available += _quantity;\n    assert(purchasers_[hashedAddress].available <= purchasers_[hashedAddress].quantity);\n    emit ResaleUnlocked(did_, msg.sender, purchasers_[hashedAddress].available);\n  }\n\n  function lockResale(uint256 _quantity) public purchaseRequired {\n    bytes32 hashedAddress = keccak256(abi.encodePacked(msg.sender));\n    require(purchasers_[hashedAddress].available >= _quantity, \"Cannot lock more than is available for resale.\");\n    purchasers_[hashedAddress].available -= _quantity;\n    assert(purchasers_[hashedAddress].available <= purchasers_[hashedAddress].quantity);\n    emit ResaleLocked(did_, msg.sender, purchasers_[hashedAddress].available);\n  }\n\n  function setMinResalePrice(uint256 _price) external onlyBy(owner_) {\n    minResalePrice_ = _price;\n    emit MinResalePriceSet(did_, _price);\n  }\n\n  function setResalePrice(uint256 _price) external purchaseRequired {\n    require(_price >= minResalePrice_, \"Resale price must be at least the minimum resale price.\");\n    purchasers_[keccak256(abi.encodePacked(msg.sender))].resalePrice = _price;\n    emit ResalePriceSet(did_, msg.sender, _price);\n  }\n\n  function setResaleQuantity(uint256 _quantity) external onlyBy(owner_) {\n    maxNumResales_ = _quantity;\n    emit MaxNumResalesSet(did_, maxNumResales_);\n  }\n\n  function setSupply(int256 _quantity) public onlyBy(owner_) {\n    require(_quantity > 0, \"Quantity must be greater than 0.\");\n    totalCopies_ = _quantity;\n    emit SupplySet(did_, totalCopies_);\n  }\n\n  function increaseSupply(int256 _quantity) public onlyBy(owner_) {\n    require(_quantity > 0, \"Quantity must be greater than 0.\");\n    if (totalCopies_ < 0) {\n      totalCopies_ = _quantity;\n    } else {\n      totalCopies_ += _quantity;\n    }\n    emit IncreasedSupply(did_, _quantity, totalCopies_);\n    emit SupplySet(did_, totalCopies_);\n  }\n\n  function decreaseSupply(int256 _quantity) public onlyBy(owner_) {\n    require(_quantity > 0, \"Cannot remove non-positive number of copies.\");\n    require(totalCopies_ > 0, \"Cannot remove anymore copies.\");\n    require(totalCopies_ - _quantity >= 0, \"Trying to remove more copies than already exist.\");\n    totalCopies_ -= _quantity;\n    emit DecreasedSupply(did_, _quantity, totalCopies_);\n    emit SupplySet(did_, totalCopies_);\n  }\n\n  function setUnlimitedSupply() public onlyBy(owner_) {\n    totalCopies_ = -1;\n    emit SupplySet(did_, totalCopies_);\n  }\n\n/**\n * PURCHASE\n * ===============================================================================================\n */\n\n  /**\n   * @dev Purchases this AFS and adds it to _purchaser's library. \n   *      If _download is true, deposits any remaining allowance \n   *      as rewards for this purchase\n   * @param _purchaser The hashed methodless did of the purchaser\n   * @param _jobId The jobId of the download, or 0x00000000000000000000000000000000 if N/A\n   * @param _budget The reward budget for jobId, or 0 if N/A\n   */\n  function purchase(bytes32 _purchaser, uint256 _quantity, bytes32 _jobId, uint256 _budget) external {\n    require(totalCopies_ != 0, \"No more copies available for purchase.\");\n    require(_quantity > 0, \"Must purchase at least 1 copy.\");\n    uint256 allowance = token_.allowance(msg.sender, address(this));\n    bytes32 hashedAddress = keccak256(abi.encodePacked(msg.sender));\n    require (allowance >= (_quantity * prices_[_quantity]) + _budget, \"Proxy must be approved for purchase.\");\n\n    if (token_.transferFrom(msg.sender, owner_, _quantity * prices_[_quantity])) {\n      purchasers_[hashedAddress].quantity += _quantity;\n      purchasers_[hashedAddress].resalePrice = minResalePrice_;\n      if (totalCopies_ > 0) {\n        totalCopies_--;\n        if (totalCopies_ == 0) {\n          unlist();\n        }\n      }\n      lib_.addLibraryItem(_purchaser, did_);\n      emit Purchased(_purchaser, did_, _quantity, _quantity * prices_[_quantity]);\n\n      if (_jobId != bytes32(0) && _budget > 0) {\n        submitBudget(_jobId, _budget);\n      }\n    }\n  }\n\n  /**\n   * @param _seller seller's Ethereum address\n   * \n   */\n  function purchaseResale(address _seller, bytes32 _purchaser, uint256 _quantity, bytes32 _jobId, uint256 _budget) external {\n    require(maxNumResales_ > 0, \"Item is not available for resale.\");\n    require(_quantity > 0, \"Must purchase at least 1 copy.\");\n    bytes32 seller = keccak256(abi.encodePacked(_seller));\n    require(purchasers_[seller].available > 0, \"Seller has not authorized resale.\");\n    require(purchasers_[seller].quantity > 0, \"Seller must own at least 1 copy.\");\n    require(purchasers_[seller].resales[_quantity - 1] < maxNumResales_, \"Copy has already been sold the maximum number of times.\");\n    uint256 allowance = token_.allowance(msg.sender, address(this));\n    require (allowance >= (_quantity * purchasers_[seller].resalePrice) + _budget, \"Proxy must be approved for purchase.\");\n\n    if (token_.transferFrom(msg.sender, _seller, _quantity * (purchasers_[seller].resalePrice - minResalePrice_))\n      && token_.transferFrom(msg.sender, owner_, _quantity * minResalePrice_)) {\n      purchasers_[seller].quantity -= _quantity;\n      purchasers_[seller].available -= _quantity;\n\n      bytes32 purchaser = keccak256(abi.encodePacked(msg.sender));\n      uint256 oldPurchaserQuantity = purchasers_[purchaser].quantity;\n      for (uint256 i = 0; i < _quantity; i++) {\n        purchasers_[seller].resales[i + purchasers_[seller].quantity] = 0;\n        purchasers_[purchaser].resales[i + oldPurchaserQuantity]++;\n      }\n\n      purchasers_[purchaser].quantity += _quantity;\n      purchasers_[purchaser].resalePrice = minResalePrice_;\n      lib_.addLibraryItem(_purchaser, did_);\n      emit PurchasedResale(_purchaser, did_, _quantity, _quantity * purchasers_[seller].resalePrice);\n\n      if (_jobId != bytes32(0) && _budget > 0) {\n        submitBudget(_jobId, _budget);\n      }\n    }\n  }\n\n/**\n * REWARDS\n * ===============================================================================================\n */\n\n  function submitBudget(bytes32 _jobId, uint256 _budget) public purchaseRequired {\n    uint256 allowance = token_.allowance(msg.sender, address(this));\n    require(_jobId != bytes32(0) && _budget > 0 && allowance >= _budget\n      && (jobs_[_jobId].sender == address(0) || jobs_[_jobId].sender == msg.sender), \"Job submission invalid.\");\n\n    if (token_.transferFrom(msg.sender, address(this), _budget)) {\n      jobs_[_jobId].budget += _budget;\n      jobs_[_jobId].sender = msg.sender;\n      assert(jobs_[_jobId].budget <= token_.balanceOf(address(this)));\n      emit BudgetSubmitted(did_, _jobId, _budget);\n    }\n  }\n\n  function getBudget(bytes32 _jobId) public view returns (uint256) {\n    return jobs_[_jobId].budget;\n  }\n\n  function allocateRewards(bytes32 _jobId, bytes32[] _farmers, uint256[] _rewards) public budgetSubmitted(_jobId) {\n    require(_farmers.length == _rewards.length, \"Unequal number of farmers and rewards.\");\n    uint256 totalRewards;\n    for (uint8 i = 0; i < _rewards.length; i++) {\n      totalRewards += _rewards[i];\n    }\n    require(totalRewards <= jobs_[_jobId].budget, \"Insufficient budget.\");\n    for (uint8 j = 0; j < _farmers.length; j++) {\n      assert(jobs_[_jobId].budget >= _rewards[j]);\n      rewards_[_farmers[j]] = _rewards[j];\n      jobs_[_jobId].budget -= _rewards[j];\n    }\n    uint256 remaining = jobs_[_jobId].budget;\n    if (remaining > 0) {\n      rewards_[keccak256(abi.encodePacked(msg.sender))] = remaining;\n      jobs_[_jobId].budget = 0;\n      redeemBalance();\n    }\n    emit RewardsAllocated(did_, totalRewards, remaining);\n  }\n\n  function redeemBalance() public {\n    bytes32 hashedAddress = keccak256(abi.encodePacked(msg.sender));\n    require(rewards_[hashedAddress] > 0, \"No balance to redeem.\");\n    if (token_.transfer(msg.sender, rewards_[hashedAddress])) {\n      rewards_[hashedAddress] = 0;\n      emit Redeemed(msg.sender);\n    }\n  }\n\n  function getRewardsBalance(address _farmer) public view returns (uint256) {\n    return rewards_[keccak256(abi.encodePacked(_farmer))];\n  }\n\n/**\n * STORAGE\n * ===============================================================================================\n */\n\n  function append(uint256[] _mtOffsets, uint256[] _msOffsets, bytes _mtBuffer, \n    bytes _msBuffer) external onlyBy(owner_) {\n    \n    require(listed_, \"AFS is unlisted.\");\n    \n    uint256 maxOffsetLength = _mtOffsets.length > _msOffsets.length \n      ? _mtOffsets.length \n      : _msOffsets.length;\n\n    for (uint i = 0; i < maxOffsetLength; i++) {\n      // metadata/tree\n      if (i <= _mtOffsets.length - 1) {\n        metadata_[0][_mtOffsets[i]] = _mtBuffer.slice(i * mtBufferSize_, mtBufferSize_);\n      }\n\n      // metadata/signatures\n      if (i <= _msOffsets.length - 1) {\n        metadata_[1][_msOffsets[i]] = _msBuffer.slice(i * msBufferSize_, msBufferSize_);\n      }\n    }\n\n    emit Commit(did_);\n  }\n\n  function write(uint256[] _mtOffsets, uint256[] _msOffsets, bytes _mtBuffer, \n    bytes _msBuffer) public onlyBy(owner_) {\n\n    require(listed_, \"AFS is unlisted.\");\n\n    uint256 maxOffsetLength = _mtOffsets.length > _msOffsets.length \n      ? _mtOffsets.length \n      : _msOffsets.length;\n\n    // add headers\n    metadata_[0][0] = _mtBuffer.slice(0, 32);\n    metadata_[1][0] = _msBuffer.slice(0, 32);\n\n    for (uint i = 1; i < maxOffsetLength; i++) {\n      // metadata/tree\n      if (i <= _mtOffsets.length - 1) {\n        metadata_[0][_mtOffsets[i]] = _mtBuffer.slice(_mtOffsets[i], mtBufferSize_);\n      }\n      \n      // metadata/signatures\n      if (i <= _msOffsets.length - 1) {\n        metadata_[1][_msOffsets[i]] = _msBuffer.slice(_msOffsets[i], msBufferSize_);\n      }\n    }\n\n    emit Commit(did_);\n  }\n\n  function read(uint8 _file, uint256 _offset) public view returns (bytes buffer) {\n    if (!listed_) {\n      return \"\"; // empty bytes\n    }\n    return metadata_[_file][_offset];\n  }\n\n  function hasBuffer(uint8 _file, uint256 _offset, bytes _buffer) public view returns (bool exists) {\n    return metadata_[_file][_offset].equal(_buffer);\n  }\n\n  function unlist() public onlyBy(owner_) returns (bool success) {\n    listed_ = false;\n    emit Unlisted(did_);\n    return true;\n  }\n}\n",
  "sourcePath": "/Users/ericjiang/Littlstar/ara-contracts/contracts/AFS.sol",
  "compiler": {
    "name": "solc",
    "version": "0.4.24+commit.e67f0147.Emscripten.clang"
  },
  "schemaVersion": "2.0.1",
  "updatedAt": "2018-10-09T19:30:44.814Z"
}