{
  "contractName": "AFS",
  "abi": [
    {
      "constant": true,
      "inputs": [
        {
          "name": "",
          "type": "bytes32"
        }
      ],
      "name": "jobs_",
      "outputs": [
        {
          "name": "sender",
          "type": "address"
        },
        {
          "name": "budget",
          "type": "uint256"
        }
      ],
      "payable": false,
      "stateMutability": "view",
      "type": "function"
    },
    {
      "constant": true,
      "inputs": [],
      "name": "listed_",
      "outputs": [
        {
          "name": "",
          "type": "bool"
        }
      ],
      "payable": false,
      "stateMutability": "view",
      "type": "function"
    },
    {
      "constant": true,
      "inputs": [
        {
          "name": "",
          "type": "uint8"
        },
        {
          "name": "",
          "type": "uint256"
        }
      ],
      "name": "metadata_",
      "outputs": [
        {
          "name": "",
          "type": "bytes"
        }
      ],
      "payable": false,
      "stateMutability": "view",
      "type": "function"
    },
    {
      "constant": true,
      "inputs": [],
      "name": "lib_",
      "outputs": [
        {
          "name": "",
          "type": "address"
        }
      ],
      "payable": false,
      "stateMutability": "view",
      "type": "function"
    },
    {
      "constant": true,
      "inputs": [],
      "name": "did_",
      "outputs": [
        {
          "name": "",
          "type": "bytes32"
        }
      ],
      "payable": false,
      "stateMutability": "view",
      "type": "function"
    },
    {
      "constant": false,
      "inputs": [
        {
          "name": "_newOwner",
          "type": "address"
        }
      ],
      "name": "approveOwnershipTransfer",
      "outputs": [],
      "payable": false,
      "stateMutability": "nonpayable",
      "type": "function"
    },
    {
      "constant": true,
      "inputs": [
        {
          "name": "",
          "type": "bytes32"
        }
      ],
      "name": "rewards_",
      "outputs": [
        {
          "name": "",
          "type": "uint256"
        }
      ],
      "payable": false,
      "stateMutability": "view",
      "type": "function"
    },
    {
      "constant": true,
      "inputs": [],
      "name": "depositRequirement_",
      "outputs": [
        {
          "name": "",
          "type": "uint256"
        }
      ],
      "payable": false,
      "stateMutability": "view",
      "type": "function"
    },
    {
      "constant": false,
      "inputs": [],
      "name": "requestOwnership",
      "outputs": [],
      "payable": false,
      "stateMutability": "nonpayable",
      "type": "function"
    },
    {
      "constant": true,
      "inputs": [
        {
          "name": "",
          "type": "bytes32"
        }
      ],
      "name": "requesters_",
      "outputs": [
        {
          "name": "",
          "type": "bool"
        }
      ],
      "payable": false,
      "stateMutability": "view",
      "type": "function"
    },
    {
      "constant": true,
      "inputs": [],
      "name": "price_",
      "outputs": [
        {
          "name": "",
          "type": "uint256"
        }
      ],
      "payable": false,
      "stateMutability": "view",
      "type": "function"
    },
    {
      "constant": true,
      "inputs": [],
      "name": "token_",
      "outputs": [
        {
          "name": "",
          "type": "address"
        }
      ],
      "payable": false,
      "stateMutability": "view",
      "type": "function"
    },
    {
      "constant": true,
      "inputs": [],
      "name": "version_",
      "outputs": [
        {
          "name": "",
          "type": "string"
        }
      ],
      "payable": false,
      "stateMutability": "view",
      "type": "function"
    },
    {
      "constant": true,
      "inputs": [],
      "name": "owner_",
      "outputs": [
        {
          "name": "",
          "type": "address"
        }
      ],
      "payable": false,
      "stateMutability": "view",
      "type": "function"
    },
    {
      "constant": true,
      "inputs": [
        {
          "name": "",
          "type": "bytes32"
        }
      ],
      "name": "purchasers_",
      "outputs": [
        {
          "name": "",
          "type": "bool"
        }
      ],
      "payable": false,
      "stateMutability": "view",
      "type": "function"
    },
    {
      "constant": false,
      "inputs": [],
      "name": "revokeOwnershipRequest",
      "outputs": [],
      "payable": false,
      "stateMutability": "nonpayable",
      "type": "function"
    },
    {
      "anonymous": false,
      "inputs": [
        {
          "indexed": false,
          "name": "_did",
          "type": "bytes32"
        }
      ],
      "name": "Commit",
      "type": "event"
    },
    {
      "anonymous": false,
      "inputs": [
        {
          "indexed": false,
          "name": "_did",
          "type": "bytes32"
        }
      ],
      "name": "Unlisted",
      "type": "event"
    },
    {
      "anonymous": false,
      "inputs": [
        {
          "indexed": false,
          "name": "_price",
          "type": "uint256"
        }
      ],
      "name": "PriceSet",
      "type": "event"
    },
    {
      "anonymous": false,
      "inputs": [
        {
          "indexed": true,
          "name": "_sender",
          "type": "address"
        },
        {
          "indexed": true,
          "name": "_jobId",
          "type": "bytes32"
        },
        {
          "indexed": false,
          "name": "_budget",
          "type": "uint256"
        }
      ],
      "name": "BudgetSubmitted",
      "type": "event"
    },
    {
      "anonymous": false,
      "inputs": [
        {
          "indexed": true,
          "name": "_farmer",
          "type": "address"
        },
        {
          "indexed": true,
          "name": "_jobId",
          "type": "bytes32"
        },
        {
          "indexed": false,
          "name": "_allocated",
          "type": "uint256"
        },
        {
          "indexed": false,
          "name": "_remaining",
          "type": "uint256"
        }
      ],
      "name": "RewardsAllocated",
      "type": "event"
    },
    {
      "anonymous": false,
      "inputs": [
        {
          "indexed": true,
          "name": "_farmer",
          "type": "address"
        }
      ],
      "name": "InsufficientDeposit",
      "type": "event"
    },
    {
      "anonymous": false,
      "inputs": [
        {
          "indexed": true,
          "name": "_purchaser",
          "type": "bytes32"
        },
        {
          "indexed": false,
          "name": "_price",
          "type": "uint256"
        }
      ],
      "name": "Purchased",
      "type": "event"
    },
    {
      "anonymous": false,
      "inputs": [
        {
          "indexed": true,
          "name": "_sender",
          "type": "address"
        },
        {
          "indexed": false,
          "name": "_amount",
          "type": "uint256"
        }
      ],
      "name": "Redeemed",
      "type": "event"
    },
    {
      "anonymous": false,
      "inputs": [
        {
          "indexed": true,
          "name": "_previousOwner",
          "type": "address"
        },
        {
          "indexed": true,
          "name": "_newOwner",
          "type": "address"
        }
      ],
      "name": "TransferApproved",
      "type": "event"
    },
    {
      "anonymous": false,
      "inputs": [
        {
          "indexed": true,
          "name": "_currentOwner",
          "type": "address"
        },
        {
          "indexed": true,
          "name": "_requestedOwner",
          "type": "address"
        }
      ],
      "name": "TransferRequested",
      "type": "event"
    },
    {
      "anonymous": false,
      "inputs": [
        {
          "indexed": true,
          "name": "_currentOwner",
          "type": "address"
        },
        {
          "indexed": true,
          "name": "_requestOwner",
          "type": "address"
        }
      ],
      "name": "RequestRevoked",
      "type": "event"
    },
    {
      "constant": false,
      "inputs": [
        {
          "name": "_data",
          "type": "bytes"
        }
      ],
      "name": "init",
      "outputs": [],
      "payable": false,
      "stateMutability": "nonpayable",
      "type": "function"
    },
    {
      "constant": false,
      "inputs": [
        {
          "name": "_price",
          "type": "uint256"
        }
      ],
      "name": "setPrice",
      "outputs": [],
      "payable": false,
      "stateMutability": "nonpayable",
      "type": "function"
    },
    {
      "constant": false,
      "inputs": [
        {
          "name": "_jobId",
          "type": "bytes32"
        },
        {
          "name": "_budget",
          "type": "uint256"
        }
      ],
      "name": "submitBudget",
      "outputs": [],
      "payable": false,
      "stateMutability": "nonpayable",
      "type": "function"
    },
    {
      "constant": false,
      "inputs": [
        {
          "name": "_jobId",
          "type": "bytes32"
        },
        {
          "name": "_farmers",
          "type": "address[]"
        },
        {
          "name": "_rewards",
          "type": "uint256[]"
        },
        {
          "name": "_return",
          "type": "bool"
        }
      ],
      "name": "allocateRewards",
      "outputs": [],
      "payable": false,
      "stateMutability": "nonpayable",
      "type": "function"
    },
    {
      "constant": false,
      "inputs": [],
      "name": "redeemBalance",
      "outputs": [],
      "payable": false,
      "stateMutability": "nonpayable",
      "type": "function"
    },
    {
      "constant": true,
      "inputs": [
        {
          "name": "_farmer",
          "type": "address"
        }
      ],
      "name": "getRewardsBalance",
      "outputs": [
        {
          "name": "",
          "type": "uint256"
        }
      ],
      "payable": false,
      "stateMutability": "view",
      "type": "function"
    },
    {
      "constant": true,
      "inputs": [
        {
          "name": "_jobId",
          "type": "bytes32"
        }
      ],
      "name": "getBudget",
      "outputs": [
        {
          "name": "",
          "type": "uint256"
        }
      ],
      "payable": false,
      "stateMutability": "view",
      "type": "function"
    },
    {
      "constant": false,
      "inputs": [
        {
          "name": "_purchaser",
          "type": "bytes32"
        },
        {
          "name": "_jobId",
          "type": "bytes32"
        },
        {
          "name": "_budget",
          "type": "uint256"
        }
      ],
      "name": "purchase",
      "outputs": [],
      "payable": false,
      "stateMutability": "nonpayable",
      "type": "function"
    },
    {
      "constant": false,
      "inputs": [
        {
          "name": "_mtOffsets",
          "type": "uint256[]"
        },
        {
          "name": "_msOffsets",
          "type": "uint256[]"
        },
        {
          "name": "_mtBuffer",
          "type": "bytes"
        },
        {
          "name": "_msBuffer",
          "type": "bytes"
        }
      ],
      "name": "append",
      "outputs": [],
      "payable": false,
      "stateMutability": "nonpayable",
      "type": "function"
    },
    {
      "constant": false,
      "inputs": [
        {
          "name": "_mtOffsets",
          "type": "uint256[]"
        },
        {
          "name": "_msOffsets",
          "type": "uint256[]"
        },
        {
          "name": "_mtBuffer",
          "type": "bytes"
        },
        {
          "name": "_msBuffer",
          "type": "bytes"
        }
      ],
      "name": "write",
      "outputs": [],
      "payable": false,
      "stateMutability": "nonpayable",
      "type": "function"
    },
    {
      "constant": true,
      "inputs": [
        {
          "name": "_file",
          "type": "uint8"
        },
        {
          "name": "_offset",
          "type": "uint256"
        }
      ],
      "name": "read",
      "outputs": [
        {
          "name": "buffer",
          "type": "bytes"
        }
      ],
      "payable": false,
      "stateMutability": "view",
      "type": "function"
    },
    {
      "constant": true,
      "inputs": [
        {
          "name": "_file",
          "type": "uint8"
        },
        {
          "name": "_offset",
          "type": "uint256"
        },
        {
          "name": "_buffer",
          "type": "bytes"
        }
      ],
      "name": "hasBuffer",
      "outputs": [
        {
          "name": "exists",
          "type": "bool"
        }
      ],
      "payable": false,
      "stateMutability": "view",
      "type": "function"
    },
    {
      "constant": false,
      "inputs": [],
      "name": "unlist",
      "outputs": [
        {
          "name": "success",
          "type": "bool"
        }
      ],
      "payable": false,
      "stateMutability": "nonpayable",
      "type": "function"
    }
  ],
  "bytecode": "0x60806040526040805190810160405280600181526020017f3100000000000000000000000000000000000000000000000000000000000000815250600290805190602001906200005192919062000066565b503480156200005f57600080fd5b5062000115565b828054600181600116156101000203166002900490600052602060002090601f016020900481019282601f10620000a957805160ff1916838001178555620000da565b82800160010185558215620000da579182015b82811115620000d9578251825591602001919060010190620000bc565b5b509050620000e99190620000ed565b5090565b6200011291905b808211156200010e576000816000905550600101620000f4565b5090565b90565b61435380620001256000396000f300608060405260043610610175576000357c0100000000000000000000000000000000000000000000000000000000900463ffffffff1680631e0a1b951461017a5780632a6363be146101f257806331ddd9ab146102215780633e5ceede146102d457806346f60dee146102eb57806347269720146103425780634ddf47d4146103755780634e1d009f146103de578063546887a3146104215780635ee6fa611461046657806360011473146104ab57806366570f17146104d65780638a67f4bf146105595780638e5aafe1146105b057806391b7f5ed146105c757806399d20bb1146105f4578063a0d585011461063d578063bb66f9f61461066c578063bc302cd01461071f578063ce40b03f14610854578063d56805e11461087f578063dd1bb1fc146108d6578063e766307914610966578063f0e5bd86146109bd578063f4e493d614610a55578063f51b697914610a9e578063f5bd3e3f14610ad9578063fa4bbcc614610b22578063fc1c34e414610be5575b600080fd5b34801561018657600080fd5b506101a96004803603810190808035600019169060200190929190505050610bfc565b604051808373ffffffffffffffffffffffffffffffffffffffff1673ffffffffffffffffffffffffffffffffffffffff1681526020018281526020019250505060405180910390f35b3480156101fe57600080fd5b50610207610c40565b604051808215151515815260200191505060405180910390f35b34801561022d57600080fd5b50610259600480360381019080803560ff16906020019092919080359060200190929190505050610c53565b6040518080602001828103825283818151815260200191508051906020019080838360005b8381101561029957808201518184015260208101905061027e565b50505050905090810190601f1680156102c65780820380516001836020036101000a031916815260200191505b509250505060405180910390f35b3480156102e057600080fd5b506102e9610d10565b005b3480156102f757600080fd5b506103006112a0565b604051808273ffffffffffffffffffffffffffffffffffffffff1673ffffffffffffffffffffffffffffffffffffffff16815260200191505060405180910390f35b34801561034e57600080fd5b506103576112c6565b60405180826000191660001916815260200191505060405180910390f35b34801561038157600080fd5b506103dc600480360381019080803590602001908201803590602001908080601f01602080910402602001604051908101604052809392919081815260200183838082843782019150505050505091929192905050506112cc565b005b3480156103ea57600080fd5b5061041f600480360381019080803573ffffffffffffffffffffffffffffffffffffffff1690602001909291905050506115ab565b005b34801561042d57600080fd5b50610450600480360381019080803560001916906020019092919050505061189a565b6040518082815260200191505060405180910390f35b34801561047257600080fd5b5061049560048036038101908080356000191690602001909291905050506118c2565b6040518082815260200191505060405180910390f35b3480156104b757600080fd5b506104c06118da565b6040518082815260200191505060405180910390f35b3480156104e257600080fd5b506105576004803603810190808035906020019082018035906020019190919293919293908035906020019082018035906020019190919293919293908035906020019082018035906020019190919293919293908035906020019082018035906020019190919293919293905050506118e0565b005b34801561056557600080fd5b5061059a600480360381019080803573ffffffffffffffffffffffffffffffffffffffff169060200190929190505050611c12565b6040518082815260200191505060405180910390f35b3480156105bc57600080fd5b506105c5611cf3565b005b3480156105d357600080fd5b506105f260048036038101908080359060200190929190505050611fe5565b005b34801561060057600080fd5b5061062360048036038101908080356000191690602001909291905050506120ee565b604051808215151515815260200191505060405180910390f35b34801561064957600080fd5b5061065261210e565b604051808215151515815260200191505060405180910390f35b34801561067857600080fd5b506106a4600480360381019080803560ff16906020019092919080359060200190929190505050612239565b6040518080602001828103825283818151815260200191508051906020019080838360005b838110156106e45780820151818401526020810190506106c9565b50505050905090810190601f1680156107115780820380516001836020036101000a031916815260200191505b509250505060405180910390f35b34801561072b57600080fd5b506108526004803603810190808035906020019082018035906020019080806020026020016040519081016040528093929190818152602001838360200280828437820191505050505050919291929080359060200190820180359060200190808060200260200160405190810160405280939291908181526020018383602002808284378201915050505050509192919290803590602001908201803590602001908080601f0160208091040260200160405190810160405280939291908181526020018383808284378201915050505050509192919290803590602001908201803590602001908080601f0160208091040260200160405190810160405280939291908181526020018383808284378201915050505050509192919290505050612335565b005b34801561086057600080fd5b506108696126c0565b6040518082815260200191505060405180910390f35b34801561088b57600080fd5b506108946126c6565b604051808273ffffffffffffffffffffffffffffffffffffffff1673ffffffffffffffffffffffffffffffffffffffff16815260200191505060405180910390f35b3480156108e257600080fd5b506108eb6126ec565b6040518080602001828103825283818151815260200191508051906020019080838360005b8381101561092b578082015181840152602081019050610910565b50505050905090810190601f1680156109585780820380516001836020036101000a031916815260200191505b509250505060405180910390f35b34801561097257600080fd5b5061097b61278a565b604051808273ffffffffffffffffffffffffffffffffffffffff1673ffffffffffffffffffffffffffffffffffffffff16815260200191505060405180910390f35b3480156109c957600080fd5b50610a3b600480360381019080803560ff16906020019092919080359060200190929190803590602001908201803590602001908080601f01602080910402602001604051908101604052809392919081815260200183838082843782019150505050505091929192905050506127af565b604051808215151515815260200191505060405180910390f35b348015610a6157600080fd5b50610a9c600480360381019080803560001916906020019092919080356000191690602001909291908035906020019092919050505061288f565b005b348015610aaa57600080fd5b50610ad7600480360381019080803560001916906020019092919080359060200190929190505050612e9c565b005b348015610ae557600080fd5b50610b0860048036038101908080356000191690602001909291905050506135e7565b604051808215151515815260200191505060405180910390f35b348015610b2e57600080fd5b50610be360048036038101908080356000191690602001909291908035906020019082018035906020019080806020026020016040519081016040528093929190818152602001838360200280828437820191505050505050919291929080359060200190820180359060200190808060200260200160405190810160405280939291908181526020018383602002808284378201915050505050509192919290803515159060200190929190505050613607565b005b348015610bf157600080fd5b50610bfa613eb8565b005b60096020528060005260406000206000915090508060000160009054906101000a900473ffffffffffffffffffffffffffffffffffffffff16908060010154905082565b600660009054906101000a900460ff1681565b600c602052816000526040600020602052806000526040600020600091509150508054600181600116156101000203166002900480601f016020809104026020016040519081016040528092919081815260200182805460018160011615610100020316600290048015610d085780601f10610cdd57610100808354040283529160200191610d08565b820191906000526020600020905b815481529060010190602001808311610ceb57829003601f168201915b505050505081565b60008060009054906101000a900473ffffffffffffffffffffffffffffffffffffffff1673ffffffffffffffffffffffffffffffffffffffff163373ffffffffffffffffffffffffffffffffffffffff161480610e665750600854600360009054906101000a900473ffffffffffffffffffffffffffffffffffffffff1673ffffffffffffffffffffffffffffffffffffffff1663f4f0e1ae336040518263ffffffff167c0100000000000000000000000000000000000000000000000000000000028152600401808273ffffffffffffffffffffffffffffffffffffffff1673ffffffffffffffffffffffffffffffffffffffff168152602001915050602060405180830381600087803b158015610e2857600080fd5b505af1158015610e3c573d6000803e3d6000fd5b505050506040513d6020811015610e5257600080fd5b810190808051906020019092919050505010155b80610f525750600b600033604051602001808273ffffffffffffffffffffffffffffffffffffffff1673ffffffffffffffffffffffffffffffffffffffff166c010000000000000000000000000281526014019150506040516020818303038152906040526040518082805190602001908083835b602083101515610f005780518252602082019150602081019050602083039250610edb565b6001836020036101000a03801982511681845116808217855250505050505090500191505060405180910390206000191660001916815260200190815260200160002060009054906101000a900460ff165b156112595733604051602001808273ffffffffffffffffffffffffffffffffffffffff1673ffffffffffffffffffffffffffffffffffffffff166c010000000000000000000000000281526014019150506040516020818303038152906040526040518082805190602001908083835b602083101515610fe75780518252602082019150602081019050602083039250610fc2565b6001836020036101000a038019825116818451168082178552505050505050905001915050604051809103902090506000600a60008360001916600019168152602001908152602001600020541115156110a9576040517f08c379a00000000000000000000000000000000000000000000000000000000081526004018080602001828103825260158152602001807f4e6f2062616c616e636520746f2072656465656d2e000000000000000000000081525060200191505060405180910390fd5b600360009054906101000a900473ffffffffffffffffffffffffffffffffffffffff1673ffffffffffffffffffffffffffffffffffffffff1663a9059cbb33600a60008560001916600019168152602001908152602001600020546040518363ffffffff167c0100000000000000000000000000000000000000000000000000000000028152600401808373ffffffffffffffffffffffffffffffffffffffff1673ffffffffffffffffffffffffffffffffffffffff16815260200182815260200192505050602060405180830381600087803b15801561118957600080fd5b505af115801561119d573d6000803e3d6000fd5b505050506040513d60208110156111b357600080fd5b810190808051906020019092919050505015611254573373ffffffffffffffffffffffffffffffffffffffff167f4896181ff8f4543cc00db9fe9b6fb7e6f032b7eb772c72ab1ec1b4d2e03b9369600a60008460001916600019168152602001908152602001600020546040518082815260200191505060405180910390a26000600a60008360001916600019168152602001908152602001600020819055505b61129d565b3373ffffffffffffffffffffffffffffffffffffffff167f51267e37212898aeeb15abec9b3516d1f714b4e2dcf6fa1ab92d1adac0b7a8b360405160405180910390a25b50565b600460009054906101000a900473ffffffffffffffffffffffffffffffffffffffff1681565b60055481565b60008060008060008073ffffffffffffffffffffffffffffffffffffffff166000809054906101000a900473ffffffffffffffffffffffffffffffffffffffff1673ffffffffffffffffffffffffffffffffffffffff161415156113be576040517f08c379a000000000000000000000000000000000000000000000000000000000815260040180806020018281038252602f8152602001807f5468697320414653207374616e646172642068617320616c726561647920626581526020017f656e20696e697469616c697a65642e000000000000000000000000000000000081525060400191505060405180910390fd5b60208601945084519350604086019450845192506060860194508451915060808601945084519050836000806101000a81548173ffffffffffffffffffffffffffffffffffffffff021916908373ffffffffffffffffffffffffffffffffffffffff16021790555082600360006101000a81548173ffffffffffffffffffffffffffffffffffffffff021916908373ffffffffffffffffffffffffffffffffffffffff16021790555081600460006101000a81548173ffffffffffffffffffffffffffffffffffffffff021916908373ffffffffffffffffffffffffffffffffffffffff16021790555080600581600019169055506001600660006101000a81548160ff0219169083151502179055506000600781905550600360009054906101000a900473ffffffffffffffffffffffffffffffffffffffff1673ffffffffffffffffffffffffffffffffffffffff1663313ce5676040518163ffffffff167c0100000000000000000000000000000000000000000000000000000000028152600401602060405180830381600087803b15801561155c57600080fd5b505af1158015611570573d6000803e3d6000fd5b505050506040513d602081101561158657600080fd5b8101908080519060200190929190505050600a0a606402600881905550505050505050565b60008060009054906101000a900473ffffffffffffffffffffffffffffffffffffffff1673ffffffffffffffffffffffffffffffffffffffff163373ffffffffffffffffffffffffffffffffffffffff1614151561160857600080fd5b816001600082604051602001808273ffffffffffffffffffffffffffffffffffffffff1673ffffffffffffffffffffffffffffffffffffffff166c010000000000000000000000000281526014019150506040516020818303038152906040526040518082805190602001908083835b60208310151561169d5780518252602082019150602081019050602083039250611678565b6001836020036101000a03801982511681845116808217855250505050505090500191505060405180910390206000191660001916815260200190815260200160002060009054906101000a900460ff161515611762576040517f08c379a00000000000000000000000000000000000000000000000000000000081526004018080602001828103825260208152602001807f4f776e6572207265717565737420686173206e6f74206265656e2073656e742e81525060200191505060405180910390fd5b826000806101000a81548173ffffffffffffffffffffffffffffffffffffffff021916908373ffffffffffffffffffffffffffffffffffffffff16021790555033604051602001808273ffffffffffffffffffffffffffffffffffffffff1673ffffffffffffffffffffffffffffffffffffffff166c010000000000000000000000000281526014019150506040516020818303038152906040526040518082805190602001908083835b602083101515611832578051825260208201915060208101905060208303925061180d565b6001836020036101000a03801982511681845116808217855250505050505090500191505060405180910390209150600060016000846000191660001916815260200190815260200160002060006101000a81548160ff021916908315150217905550505050565b6000600960008360001916600019168152602001908152602001600020600101549050919050565b600a6020528060005260406000206000915090505481565b60085481565b6000806000809054906101000a900473ffffffffffffffffffffffffffffffffffffffff168073ffffffffffffffffffffffffffffffffffffffff163373ffffffffffffffffffffffffffffffffffffffff161415156119a8576040517f08c379a00000000000000000000000000000000000000000000000000000000081526004018080602001828103825260168152602001807f53656e646572206e6f7420617574686f72697a65642e0000000000000000000081525060200191505060405180910390fd5b600660009054906101000a900460ff161515611a2c576040517f08c379a00000000000000000000000000000000000000000000000000000000081526004018080602001828103825260108152602001807f41465320697320756e6c69737465642e0000000000000000000000000000000081525060200191505060405180910390fd5b888890508b8b905011611a425788889050611a47565b8a8a90505b9250600091505b82821015611bc45760018b8b90500382111515611b0657611ab6602860ff168302602860ff1689898080601f0160208091040260200160405190810160405280939291908181526020018383808284378201915050505050506141869092919063ffffffff16565b600c60008060ff16815260200190815260200160002060008d8d868181101515611adc57fe5b9050602002013581526020019081526020016000209080519060200190611b04929190614282565b505b6001898990500382111515611bb757611b66604060ff168302604060ff1687878080601f0160208091040260200160405190810160405280939291908181526020018383808284378201915050505050506141869092919063ffffffff16565b600c6000600160ff16815260200190815260200160002060008b8b868181101515611b8d57fe5b9050602002013581526020019081526020016000209080519060200190611bb5929190614282565b505b8180600101925050611a4e565b7f9e8a51bb6b34b9d5d18c14fd753ee3bf44e2256512665a4577281ffcc91943ff60055460405180826000191660001916815260200191505060405180910390a15050505050505050505050565b6000600a600083604051602001808273ffffffffffffffffffffffffffffffffffffffff1673ffffffffffffffffffffffffffffffffffffffff166c010000000000000000000000000281526014019150506040516020818303038152906040526040518082805190602001908083835b602083101515611ca85780518252602082019150602081019050602083039250611c83565b6001836020036101000a038019825116818451168082178552505050505050905001915050604051809103902060001916600019168152602001908152602001600020549050919050565b60006001600033604051602001808273ffffffffffffffffffffffffffffffffffffffff1673ffffffffffffffffffffffffffffffffffffffff166c010000000000000000000000000281526014019150506040516020818303038152906040526040518082805190602001908083835b602083101515611d895780518252602082019150602081019050602083039250611d64565b6001836020036101000a03801982511681845116808217855250505050505090500191505060405180910390206000191660001916815260200190815260200160002060009054906101000a900460ff16151515611e75576040517f08c379a00000000000000000000000000000000000000000000000000000000081526004018080602001828103825260218152602001807f4f776e657273686970207265717565737420616c72656164792061637469766581526020017f2e0000000000000000000000000000000000000000000000000000000000000081525060400191505060405180910390fd5b33604051602001808273ffffffffffffffffffffffffffffffffffffffff1673ffffffffffffffffffffffffffffffffffffffff166c010000000000000000000000000281526014019150506040516020818303038152906040526040518082805190602001908083835b602083101515611f055780518252602082019150602081019050602083039250611ee0565b6001836020036101000a038019825116818451168082178552505050505050905001915050604051809103902090506001806000836000191660001916815260200190815260200160002060006101000a81548160ff0219169083151502179055503373ffffffffffffffffffffffffffffffffffffffff166000809054906101000a900473ffffffffffffffffffffffffffffffffffffffff1673ffffffffffffffffffffffffffffffffffffffff167fd5b906f2d3dfa8cf0ea788d4ad6e99ebd482d6134c3405e1a5faa5da891cda8560405160405180910390a350565b6000809054906101000a900473ffffffffffffffffffffffffffffffffffffffff168073ffffffffffffffffffffffffffffffffffffffff163373ffffffffffffffffffffffffffffffffffffffff161415156120aa576040517f08c379a00000000000000000000000000000000000000000000000000000000081526004018080602001828103825260168152602001807f53656e646572206e6f7420617574686f72697a65642e0000000000000000000081525060200191505060405180910390fd5b816007819055507f6bfd5e75539a9d2626425a2e2922675256b219fe546d63dad56011759b9a2f666007546040518082815260200191505060405180910390a15050565b60016020528060005260406000206000915054906101000a900460ff1681565b60008060009054906101000a900473ffffffffffffffffffffffffffffffffffffffff168073ffffffffffffffffffffffffffffffffffffffff163373ffffffffffffffffffffffffffffffffffffffff161415156121d5576040517f08c379a00000000000000000000000000000000000000000000000000000000081526004018080602001828103825260168152602001807f53656e646572206e6f7420617574686f72697a65642e0000000000000000000081525060200191505060405180910390fd5b6000600660006101000a81548160ff0219169083151502179055507f2e6ec049d62c8a42e7cc223354aadb68d5046a2cba67ed55a089fdb852fb6cb660055460405180826000191660001916815260200191505060405180910390a1600191505090565b6060600660009054906101000a900460ff161515612269576020604051908101604052806000815250905061232f565b600c60008460ff1660ff16815260200190815260200160002060008381526020019081526020016000208054600181600116156101000203166002900480601f0160208091040260200160405190810160405280929190818152602001828054600181600116156101000203166002900480156123275780601f106122fc57610100808354040283529160200191612327565b820191906000526020600020905b81548152906001019060200180831161230a57829003601f168201915b505050505090505b92915050565b6000806000809054906101000a900473ffffffffffffffffffffffffffffffffffffffff168073ffffffffffffffffffffffffffffffffffffffff163373ffffffffffffffffffffffffffffffffffffffff161415156123fd576040517f08c379a00000000000000000000000000000000000000000000000000000000081526004018080602001828103825260168152602001807f53656e646572206e6f7420617574686f72697a65642e0000000000000000000081525060200191505060405180910390fd5b600660009054906101000a900460ff161515612481576040517f08c379a00000000000000000000000000000000000000000000000000000000081526004018080602001828103825260108152602001807f41465320697320756e6c69737465642e0000000000000000000000000000000081525060200191505060405180910390fd5b8551875111612491578551612494565b86515b92506124ad60006020876141869092919063ffffffff16565b600c60008060ff168152602001908152602001600020600080815260200190815260200160002090805190602001906124e7929190614282565b506124ff60006020866141869092919063ffffffff16565b600c6000600160ff1681526020019081526020016000206000808152602001908152602001600020908051906020019061253a929190614282565b50600191505b82821015612676576001875103821115156125d857612585878381518110151561256657fe5b90602001906020020151602860ff16876141869092919063ffffffff16565b600c60008060ff168152602001908152602001600020600089858151811015156125ab57fe5b90602001906020020151815260200190815260200160002090805190602001906125d6929190614282565b505b6001865103821115156126695761261586838151811015156125f657fe5b90602001906020020151604060ff16866141869092919063ffffffff16565b600c6000600160ff1681526020019081526020016000206000888581518110151561263c57fe5b9060200190602002015181526020019081526020016000209080519060200190612667929190614282565b505b8180600101925050612540565b7f9e8a51bb6b34b9d5d18c14fd753ee3bf44e2256512665a4577281ffcc91943ff60055460405180826000191660001916815260200191505060405180910390a150505050505050565b60075481565b600360009054906101000a900473ffffffffffffffffffffffffffffffffffffffff1681565b60028054600181600116156101000203166002900480601f0160208091040260200160405190810160405280929190818152602001828054600181600116156101000203166002900480156127825780601f1061275757610100808354040283529160200191612782565b820191906000526020600020905b81548152906001019060200180831161276557829003601f168201915b505050505081565b6000809054906101000a900473ffffffffffffffffffffffffffffffffffffffff1681565b600061288682600c60008760ff1660ff16815260200190815260200160002060008681526020019081526020016000208054600181600116156101000203166002900480601f0160208091040260200160405190810160405280929190818152602001828054600181600116156101000203166002900480156128735780601f1061284857610100808354040283529160200191612873565b820191906000526020600020905b81548152906001019060200180831161285657829003601f168201915b505050505061421390919063ffffffff16565b90509392505050565b600080600660009054906101000a900460ff16151561293c576040517f08c379a00000000000000000000000000000000000000000000000000000000081526004018080602001828103825260238152602001807f436f6e74656e74206973206e6f74206c697374656420666f722070757263686181526020017f73652e000000000000000000000000000000000000000000000000000000000081525060400191505060405180910390fd5b600360009054906101000a900473ffffffffffffffffffffffffffffffffffffffff1673ffffffffffffffffffffffffffffffffffffffff1663dd62ed3e33306040518363ffffffff167c0100000000000000000000000000000000000000000000000000000000028152600401808373ffffffffffffffffffffffffffffffffffffffff1673ffffffffffffffffffffffffffffffffffffffff1681526020018273ffffffffffffffffffffffffffffffffffffffff1673ffffffffffffffffffffffffffffffffffffffff16815260200192505050602060405180830381600087803b158015612a2d57600080fd5b505af1158015612a41573d6000803e3d6000fd5b505050506040513d6020811015612a5757600080fd5b8101908080519060200190929190505050915033604051602001808273ffffffffffffffffffffffffffffffffffffffff1673ffffffffffffffffffffffffffffffffffffffff166c010000000000000000000000000281526014019150506040516020818303038152906040526040518082805190602001908083835b602083101515612afa5780518252602082019150602081019050602083039250612ad5565b6001836020036101000a03801982511681845116808217855250505050505090500191505060405180910390209050600b6000826000191660001916815260200190815260200160002060009054906101000a900460ff16158015612b63575082600754018210155b1515612bd7576040517f08c379a00000000000000000000000000000000000000000000000000000000081526004018080602001828103825260138152602001807f556e61626c6520746f2070757263686173652e0000000000000000000000000081525060200191505060405180910390fd5b600360009054906101000a900473ffffffffffffffffffffffffffffffffffffffff1673ffffffffffffffffffffffffffffffffffffffff166323b872dd336000809054906101000a900473ffffffffffffffffffffffffffffffffffffffff166007546040518463ffffffff167c0100000000000000000000000000000000000000000000000000000000028152600401808473ffffffffffffffffffffffffffffffffffffffff1673ffffffffffffffffffffffffffffffffffffffff1681526020018373ffffffffffffffffffffffffffffffffffffffff1673ffffffffffffffffffffffffffffffffffffffff1681526020018281526020019350505050602060405180830381600087803b158015612cf357600080fd5b505af1158015612d07573d6000803e3d6000fd5b505050506040513d6020811015612d1d57600080fd5b810190808051906020019092919050505015612e95576001600b6000836000191660001916815260200190815260200160002060006101000a81548160ff021916908315150217905550600460009054906101000a900473ffffffffffffffffffffffffffffffffffffffff1673ffffffffffffffffffffffffffffffffffffffff16630c2bb965866005546040518363ffffffff167c0100000000000000000000000000000000000000000000000000000000028152600401808360001916600019168152602001826000191660001916815260200192505050600060405180830381600087803b158015612e1257600080fd5b505af1158015612e26573d6000803e3d6000fd5b5050505084600019167fcddf9a7164ac111c2b0f5648b8600c8f3e4060c7cc663f8218c748d7357c7ea56007546040518082815260200191505060405180910390a2600060010260001916846000191614158015612e845750600083115b15612e9457612e938484612e9c565b5b5b5050505050565b6000600b600033604051602001808273ffffffffffffffffffffffffffffffffffffffff1673ffffffffffffffffffffffffffffffffffffffff166c010000000000000000000000000281526014019150506040516020818303038152906040526040518082805190602001908083835b602083101515612f325780518252602082019150602081019050602083039250612f0d565b6001836020036101000a03801982511681845116808217855250505050505090500191505060405180910390206000191660001916815260200190815260200160002060009054906101000a900460ff161515612ff7576040517f08c379a000000000000000000000000000000000000000000000000000000000815260040180806020018281038252601c8152602001807f436f6e74656e7420776173206e65766572207075726368617365642e0000000081525060200191505060405180910390fd5b600360009054906101000a900473ffffffffffffffffffffffffffffffffffffffff1673ffffffffffffffffffffffffffffffffffffffff1663dd62ed3e33306040518363ffffffff167c0100000000000000000000000000000000000000000000000000000000028152600401808373ffffffffffffffffffffffffffffffffffffffff1673ffffffffffffffffffffffffffffffffffffffff1681526020018273ffffffffffffffffffffffffffffffffffffffff1673ffffffffffffffffffffffffffffffffffffffff16815260200192505050602060405180830381600087803b1580156130e857600080fd5b505af11580156130fc573d6000803e3d6000fd5b505050506040513d602081101561311257600080fd5b810190808051906020019092919050505090506000600102600019168360001916141580156131415750600082115b801561314d5750818110155b80156132375750600073ffffffffffffffffffffffffffffffffffffffff1660096000856000191660001916815260200190815260200160002060000160009054906101000a900473ffffffffffffffffffffffffffffffffffffffff1673ffffffffffffffffffffffffffffffffffffffff16148061323657503373ffffffffffffffffffffffffffffffffffffffff1660096000856000191660001916815260200190815260200160002060000160009054906101000a900473ffffffffffffffffffffffffffffffffffffffff1673ffffffffffffffffffffffffffffffffffffffff16145b5b15156132ab576040517f08c379a00000000000000000000000000000000000000000000000000000000081526004018080602001828103825260178152602001807f4a6f62207375626d697373696f6e20696e76616c69642e00000000000000000081525060200191505060405180910390fd5b600360009054906101000a900473ffffffffffffffffffffffffffffffffffffffff1673ffffffffffffffffffffffffffffffffffffffff166323b872dd3330856040518463ffffffff167c0100000000000000000000000000000000000000000000000000000000028152600401808473ffffffffffffffffffffffffffffffffffffffff1673ffffffffffffffffffffffffffffffffffffffff1681526020018373ffffffffffffffffffffffffffffffffffffffff1673ffffffffffffffffffffffffffffffffffffffff1681526020018281526020019350505050602060405180830381600087803b1580156133a457600080fd5b505af11580156133b8573d6000803e3d6000fd5b505050506040513d60208110156133ce57600080fd5b8101908080519060200190929190505050156135e25781600960008560001916600019168152602001908152602001600020600101600082825401925050819055503360096000856000191660001916815260200190815260200160002060000160006101000a81548173ffffffffffffffffffffffffffffffffffffffff021916908373ffffffffffffffffffffffffffffffffffffffff160217905550600360009054906101000a900473ffffffffffffffffffffffffffffffffffffffff1673ffffffffffffffffffffffffffffffffffffffff166370a08231306040518263ffffffff167c0100000000000000000000000000000000000000000000000000000000028152600401808273ffffffffffffffffffffffffffffffffffffffff1673ffffffffffffffffffffffffffffffffffffffff168152602001915050602060405180830381600087803b15801561352a57600080fd5b505af115801561353e573d6000803e3d6000fd5b505050506040513d602081101561355457600080fd5b8101908080519060200190929190505050600960008560001916600019168152602001908152602001600020600101541115151561358e57fe5b82600019163373ffffffffffffffffffffffffffffffffffffffff167ffe90998f27be7536b0ddee58cbabc035ceaf141636bf7ca4216f4aae6a50ca6f846040518082815260200191505060405180910390a35b505050565b600b6020528060005260406000206000915054906101000a900460ff1681565b6000806000806000883373ffffffffffffffffffffffffffffffffffffffff1660096000836000191660001916815260200190815260200160002060000160009054906101000a900473ffffffffffffffffffffffffffffffffffffffff1673ffffffffffffffffffffffffffffffffffffffff161480156136a75750600060096000836000191660001916815260200190815260200160002060010154115b151561371b576040517f08c379a000000000000000000000000000000000000000000000000000000000815260040180806020018281038252600f8152602001807f4a6f6220697320696e76616c69642e000000000000000000000000000000000081525060200191505060405180910390fd5b875189511415156137ba576040517f08c379a00000000000000000000000000000000000000000000000000000000081526004018080602001828103825260268152602001807f556e657175616c206e756d626572206f66206661726d65727320616e6420726581526020017f77617264732e000000000000000000000000000000000000000000000000000081525060400191505060405180910390fd5b600094505b87518560ff1610156137f757878560ff168151811015156137dc57fe5b906020019060200201518601955084806001019550506137bf565b600960008b6000191660001916815260200190815260200160002060010154861115151561388d576040517f08c379a00000000000000000000000000000000000000000000000000000000081526004018080602001828103825260148152602001807f496e73756666696369656e74206275646765742e00000000000000000000000081525060200191505060405180910390fd5b600093505b88518460ff161015613d6957600854600360009054906101000a900473ffffffffffffffffffffffffffffffffffffffff1673ffffffffffffffffffffffffffffffffffffffff1663f4f0e1ae8b8760ff168151811015156138f057fe5b906020019060200201516040518263ffffffff167c0100000000000000000000000000000000000000000000000000000000028152600401808273ffffffffffffffffffffffffffffffffffffffff1673ffffffffffffffffffffffffffffffffffffffff168152602001915050602060405180830381600087803b15801561397857600080fd5b505af115801561398c573d6000803e3d6000fd5b505050506040513d60208110156139a257600080fd5b8101908080519060200190929190505050101580613aa15750600b600033604051602001808273ffffffffffffffffffffffffffffffffffffffff1673ffffffffffffffffffffffffffffffffffffffff166c010000000000000000000000000281526014019150506040516020818303038152906040526040518082805190602001908083835b602083101515613a4f5780518252602082019150602081019050602083039250613a2a565b6001836020036101000a03801982511681845116808217855250505050505090500191505060405180910390206000191660001916815260200190815260200160002060009054906101000a900460ff165b15613cfe57878460ff16815181101515613ab757fe5b90602001906020020151600960008c600019166000191681526020019081526020016000206001015410151515613aea57fe5b888460ff16815181101515613afb57fe5b90602001906020020151604051602001808273ffffffffffffffffffffffffffffffffffffffff1673ffffffffffffffffffffffffffffffffffffffff166c010000000000000000000000000281526014019150506040516020818303038152906040526040518082805190602001908083835b602083101515613b945780518252602082019150602081019050602083039250613b6f565b6001836020036101000a03801982511681845116808217855250505050505090500191505060405180910390209250878460ff16815181101515613bd457fe5b90602001906020020151600a6000856000191660001916815260200190815260200160002060008282540192505081905550878460ff16815181101515613c1757fe5b90602001906020020151600960008c60001916600019168152602001908152602001600020600101600082825403925050819055508960001916898560ff16815181101515613c6257fe5b9060200190602002015173ffffffffffffffffffffffffffffffffffffffff167fe0b17d0a6a4b5e07ef48a007b70f93ff1fc3862becc524e286a3ddc3ac7965f68a8760ff16815181101515613cb457fe5b90602001906020020151600960008f6000191660001916815260200190815260200160002060010154604051808381526020018281526020019250505060405180910390a3613d5c565b888460ff16815181101515613d0f57fe5b9060200190602002015173ffffffffffffffffffffffffffffffffffffffff167f51267e37212898aeeb15abec9b3516d1f714b4e2dcf6fa1ab92d1adac0b7a8b360405160405180910390a25b8380600101945050613892565b8615613eac57600960008b600019166000191681526020019081526020016000206001015491506000821115613eab5781600a600033604051602001808273ffffffffffffffffffffffffffffffffffffffff1673ffffffffffffffffffffffffffffffffffffffff166c010000000000000000000000000281526014019150506040516020818303038152906040526040518082805190602001908083835b602083101515613e2e5780518252602082019150602081019050602083039250613e09565b6001836020036101000a038019825116818451168082178552505050505050905001915050604051809103902060001916600019168152602001908152602001600020600082825401925050819055506000600960008c6000191660001916815260200190815260200160002060010181905550613eaa610d10565b5b5b50505050505050505050565b6000336001600082604051602001808273ffffffffffffffffffffffffffffffffffffffff1673ffffffffffffffffffffffffffffffffffffffff166c010000000000000000000000000281526014019150506040516020818303038152906040526040518082805190602001908083835b602083101515613f4f5780518252602082019150602081019050602083039250613f2a565b6001836020036101000a03801982511681845116808217855250505050505090500191505060405180910390206000191660001916815260200190815260200160002060009054906101000a900460ff161515614014576040517f08c379a00000000000000000000000000000000000000000000000000000000081526004018080602001828103825260208152602001807f4f776e6572207265717565737420686173206e6f74206265656e2073656e742e81525060200191505060405180910390fd5b33604051602001808273ffffffffffffffffffffffffffffffffffffffff1673ffffffffffffffffffffffffffffffffffffffff166c010000000000000000000000000281526014019150506040516020818303038152906040526040518082805190602001908083835b6020831015156140a4578051825260208201915060208101905060208303925061407f565b6001836020036101000a03801982511681845116808217855250505050505090500191505060405180910390209150600060016000846000191660001916815260200190815260200160002060006101000a81548160ff0219169083151502179055503373ffffffffffffffffffffffffffffffffffffffff166000809054906101000a900473ffffffffffffffffffffffffffffffffffffffff1673ffffffffffffffffffffffffffffffffffffffff167f1dc90b1ce875ea53ce4f7fb2036478f4ddfef57ec243f3fb5a9d81faf7dac5f460405160405180910390a35050565b60608082840185511015151561419b57600080fd5b8215600081146141b657604051915060208201604052614207565b6040519150601f8416801560200281840101858101878315602002848b0101015b818310156141f457805183526020830192506020810190506141d7565b50868552601f19601f8301166040525050505b50809150509392505050565b60008060019050835183518114600181146142315760009250614276565b600160208701838101602088015b60028483851001141561427157805183511415156142605760009650600093505b60208301925060208101905061423f565b505050505b50508091505092915050565b828054600181600116156101000203166002900490600052602060002090601f016020900481019282601f106142c357805160ff19168380011785556142f1565b828001600101855582156142f1579182015b828111156142f05782518255916020019190600101906142d5565b5b5090506142fe9190614302565b5090565b61432491905b80821115614320576000816000905550600101614308565b5090565b905600a165627a7a723058204484868976a5da21062c99e4c4828c854e71cec4c645d59b14dcf570f146d3500029",
  "source": "pragma solidity ^0.4.24;\n\nimport \"./Ownable.sol\";\nimport \"./Library.sol\";\nimport \"./AraToken.sol\";\nimport \"bytes/BytesLib.sol\";\n\ncontract AFS is Ownable {\n\n  using BytesLib for bytes;\n\n  string   public version_ = \"1\";\n\n  AraToken public token_;\n  Library  public lib_;\n\n  bytes32  public did_;\n  bool     public listed_;\n  uint256  public price_;\n\n  uint256  public depositRequirement_;\n\n  mapping(bytes32 => Job)     public jobs_; // jobId => job { budget, sender }\n  mapping(bytes32 => uint256) public rewards_;    // farmer => rewards\n  mapping(bytes32 => bool)    public purchasers_; // keccak256 hashes of buyer addresses\n  mapping(uint8 => mapping (uint256 => bytes))   public metadata_;\n\n  struct Job {\n    address sender;\n    uint256 budget;\n  }\n\n  event Commit(bytes32 _did);\n  event Unlisted(bytes32 _did);\n  event PriceSet(uint256 _price);\n  event BudgetSubmitted(address indexed _sender, bytes32 indexed _jobId, uint256 _budget);\n  event RewardsAllocated(address indexed _farmer, bytes32 indexed _jobId, uint256 _allocated, uint256 _remaining);\n  event InsufficientDeposit(address indexed _farmer);\n  event Purchased(bytes32 indexed _purchaser, uint256 _price);\n  event Redeemed(address indexed _sender, uint256 _amount);\n\n  uint8 constant mtBufferSize_ = 40;\n  uint8 constant msBufferSize_ = 64;\n\n  modifier onlyBy(address _account)\n  {\n    require(\n      msg.sender == _account,\n      \"Sender not authorized.\"\n    );\n    _;\n  }\n\n  modifier purchaseRequired()\n  {\n    require(\n      purchasers_[keccak256(abi.encodePacked(msg.sender))],\n      \"Content was never purchased.\"\n    );\n    _;\n  }\n\n  modifier budgetSubmitted(bytes32 _jobId)\n  {\n    require(\n      jobs_[_jobId].sender == msg.sender && jobs_[_jobId].budget > 0,\n      \"Job is invalid.\"\n    );\n    _;\n  }\n\n  function init(bytes _data) public {\n    require(owner_ == address(0), 'This AFS standard has already been initialized.');\n  \n    uint256 btsptr;\n    address ownerAddr;\n    address tokenAddr;\n    address libAddr;\n    bytes32 did;\n    /* solium-disable-next-line security/no-inline-assembly */\n    assembly {\n      btsptr := add(_data, 32)\n      ownerAddr := mload(btsptr)\n      btsptr := add(_data, 64)\n      tokenAddr := mload(btsptr)\n      btsptr := add(_data, 96)\n      libAddr := mload(btsptr)\n      btsptr := add(_data, 128)\n      did := mload(btsptr)\n    }\n    owner_    = ownerAddr;\n    token_    = AraToken(tokenAddr);\n    lib_      = Library(libAddr);\n    did_      = did;\n    listed_   = true;\n    price_    = 0;\n    depositRequirement_  = 100 * 10 ** token_.decimals();\n  }\n\n  function setPrice(uint256 _price) external onlyBy(owner_) {\n    price_ = _price;\n    emit PriceSet(price_);\n  }\n\n  function submitBudget(bytes32 _jobId, uint256 _budget) public purchaseRequired {\n    uint256 allowance = token_.allowance(msg.sender, address(this));\n    require(_jobId != bytes32(0) && _budget > 0 && allowance >= _budget\n      && (jobs_[_jobId].sender == address(0) || jobs_[_jobId].sender == msg.sender), \"Job submission invalid.\");\n\n    if (token_.transferFrom(msg.sender, address(this), _budget)) {\n      jobs_[_jobId].budget += _budget;\n      jobs_[_jobId].sender = msg.sender;\n      assert(jobs_[_jobId].budget <= token_.balanceOf(address(this)));\n      emit BudgetSubmitted(msg.sender, _jobId, _budget);\n    }\n  }\n\n  function allocateRewards(bytes32 _jobId, address[] _farmers, uint256[] _rewards, bool _return) public budgetSubmitted(_jobId) {\n    require(_farmers.length == _rewards.length, \"Unequal number of farmers and rewards.\");\n    uint256 totalRewards;\n    for (uint8 i = 0; i < _rewards.length; i++) {\n      totalRewards += _rewards[i];\n    }\n    require(totalRewards <= jobs_[_jobId].budget, \"Insufficient budget.\");\n    for (uint8 j = 0; j < _farmers.length; j++) {\n      if (token_.amountDeposited(_farmers[j]) >= depositRequirement_ || purchasers_[keccak256(abi.encodePacked(msg.sender))]) {\n        assert(jobs_[_jobId].budget >= _rewards[j]);\n        bytes32 farmer = keccak256(abi.encodePacked(_farmers[j]));\n        rewards_[farmer] += _rewards[j];\n        jobs_[_jobId].budget -= _rewards[j];\n        emit RewardsAllocated(_farmers[j], _jobId, _rewards[j], jobs_[_jobId].budget);\n      } else {\n        emit InsufficientDeposit(_farmers[j]);\n      }\n    }\n    if (_return) {\n      uint256 remaining = jobs_[_jobId].budget;\n      if (remaining > 0) {\n        rewards_[keccak256(abi.encodePacked(msg.sender))] += remaining;\n        jobs_[_jobId].budget = 0;\n        redeemBalance();\n      }\n    }\n  }\n\n  function redeemBalance() public {\n    if (msg.sender == owner_ || token_.amountDeposited(msg.sender) >= depositRequirement_ || purchasers_[keccak256(abi.encodePacked(msg.sender))]) {\n      bytes32 hashedAddress = keccak256(abi.encodePacked(msg.sender));\n      require(rewards_[hashedAddress] > 0, \"No balance to redeem.\");\n      if (token_.transfer(msg.sender, rewards_[hashedAddress])) {\n        emit Redeemed(msg.sender, rewards_[hashedAddress]);\n        rewards_[hashedAddress] = 0;\n      }\n    } else {\n      emit InsufficientDeposit(msg.sender);\n    }\n  }\n\n  function getRewardsBalance(address _farmer) public view returns (uint256) {\n    return rewards_[keccak256(abi.encodePacked(_farmer))];\n  }\n\n  function getBudget(bytes32 _jobId) public view returns (uint256) {\n    return jobs_[_jobId].budget;\n  }\n\n  /**\n   * @dev Purchases this AFS and adds it to _purchaser's library. \n   *      If _download is true, deposits any remaining allowance \n   *      as rewards for this purchase\n   * @param _purchaser The hashed methodless did of the purchaser\n   * @param _jobId The jobId of the download, or 0x00000000000000000000000000000000 if N/A\n   * @param _budget The reward budget for jobId, or 0 if N/A\n   */\n  function purchase(bytes32 _purchaser, bytes32 _jobId, uint256 _budget) external {\n    require(listed_, \"Content is not listed for purchase.\");\n    uint256 allowance = token_.allowance(msg.sender, address(this));\n    bytes32 hashedAddress = keccak256(abi.encodePacked(msg.sender));\n    require (!purchasers_[hashedAddress] && allowance >= price_ + _budget, \"Unable to purchase.\");\n\n    if (token_.transferFrom(msg.sender, owner_, price_)) {\n      purchasers_[hashedAddress] = true;\n      lib_.addLibraryItem(_purchaser, did_);\n      emit Purchased(_purchaser, price_);\n\n      if (_jobId != bytes32(0) && _budget > 0) {\n        submitBudget(_jobId, _budget);\n      }\n    }\n  }\n\n  function append(uint256[] _mtOffsets, uint256[] _msOffsets, bytes _mtBuffer, \n    bytes _msBuffer) external onlyBy(owner_) {\n    \n    require(listed_, \"AFS is unlisted.\");\n    \n    uint256 maxOffsetLength = _mtOffsets.length > _msOffsets.length \n      ? _mtOffsets.length \n      : _msOffsets.length;\n\n    for (uint i = 0; i < maxOffsetLength; i++) {\n      // metadata/tree\n      if (i <= _mtOffsets.length - 1) {\n        metadata_[0][_mtOffsets[i]] = _mtBuffer.slice(i * mtBufferSize_, mtBufferSize_);\n      }\n\n      // metadata/signatures\n      if (i <= _msOffsets.length - 1) {\n        metadata_[1][_msOffsets[i]] = _msBuffer.slice(i * msBufferSize_, msBufferSize_);\n      }\n    }\n\n    emit Commit(did_);\n  }\n\n  function write(uint256[] _mtOffsets, uint256[] _msOffsets, bytes _mtBuffer, \n    bytes _msBuffer) public onlyBy(owner_) {\n\n    require(listed_, \"AFS is unlisted.\");\n\n    uint256 maxOffsetLength = _mtOffsets.length > _msOffsets.length \n      ? _mtOffsets.length \n      : _msOffsets.length;\n\n    // add headers\n    metadata_[0][0] = _mtBuffer.slice(0, 32);\n    metadata_[1][0] = _msBuffer.slice(0, 32);\n\n    for (uint i = 1; i < maxOffsetLength; i++) {\n      // metadata/tree\n      if (i <= _mtOffsets.length - 1) {\n        metadata_[0][_mtOffsets[i]] = _mtBuffer.slice(_mtOffsets[i], mtBufferSize_);\n      }\n      \n      // metadata/signatures\n      if (i <= _msOffsets.length - 1) {\n        metadata_[1][_msOffsets[i]] = _msBuffer.slice(_msOffsets[i], msBufferSize_);\n      }\n    }\n\n    emit Commit(did_);\n  }\n\n  function read(uint8 _file, uint256 _offset) public view returns (bytes buffer) {\n    if (!listed_) {\n      return \"\"; // empty bytes\n    }\n    return metadata_[_file][_offset];\n  }\n\n  function hasBuffer(uint8 _file, uint256 _offset, bytes _buffer) public view returns (bool exists) {\n    return metadata_[_file][_offset].equal(_buffer);\n  }\n\n  function unlist() public onlyBy(owner_) returns (bool success) {\n    listed_ = false;\n    emit Unlisted(did_);\n    return true;\n  }\n}\n",
  "sourcePath": "/Users/ericjiang/Littlstar/ara-contracts/contracts/ignored_contracts/AFS.sol",
  "compiler": {
    "name": "solc",
    "version": "0.4.24+commit.e67f0147.Emscripten.clang"
  },
  "schemaVersion": "2.0.1",
  "updatedAt": "2019-01-14T23:10:34.609Z"
}