{
  "contractName": "AFS",
  "abi": [
    {
      "constant": true,
      "inputs": [],
      "name": "minResalePrice_",
      "outputs": [
        {
          "name": "",
          "type": "uint256"
        }
      ],
      "payable": false,
      "stateMutability": "view",
      "type": "function"
    },
    {
      "constant": true,
      "inputs": [
        {
          "name": "",
          "type": "uint256"
        }
      ],
      "name": "priceTiers_",
      "outputs": [
        {
          "name": "",
          "type": "uint256"
        }
      ],
      "payable": false,
      "stateMutability": "view",
      "type": "function"
    },
    {
      "constant": true,
      "inputs": [
        {
          "name": "",
          "type": "bytes32"
        }
      ],
      "name": "jobs_",
      "outputs": [
        {
          "name": "sender",
          "type": "address"
        },
        {
          "name": "budget",
          "type": "uint256"
        }
      ],
      "payable": false,
      "stateMutability": "view",
      "type": "function"
    },
    {
      "constant": true,
      "inputs": [
        {
          "name": "",
          "type": "bytes32"
        }
      ],
      "name": "purchases_",
      "outputs": [
        {
          "name": "quantity",
          "type": "uint256"
        }
      ],
      "payable": false,
      "stateMutability": "view",
      "type": "function"
    },
    {
      "constant": true,
      "inputs": [],
      "name": "royaltyMultiplier",
      "outputs": [
        {
          "name": "",
          "type": "uint256"
        }
      ],
      "payable": false,
      "stateMutability": "view",
      "type": "function"
    },
    {
      "constant": true,
      "inputs": [],
      "name": "listed_",
      "outputs": [
        {
          "name": "",
          "type": "bool"
        }
      ],
      "payable": false,
      "stateMutability": "view",
      "type": "function"
    },
    {
      "constant": true,
      "inputs": [],
      "name": "resellable_",
      "outputs": [
        {
          "name": "",
          "type": "bool"
        }
      ],
      "payable": false,
      "stateMutability": "view",
      "type": "function"
    },
    {
      "constant": true,
      "inputs": [
        {
          "name": "",
          "type": "uint8"
        },
        {
          "name": "",
          "type": "uint256"
        }
      ],
      "name": "metadata_",
      "outputs": [
        {
          "name": "",
          "type": "bytes"
        }
      ],
      "payable": false,
      "stateMutability": "view",
      "type": "function"
    },
    {
      "constant": true,
      "inputs": [],
      "name": "lib_",
      "outputs": [
        {
          "name": "",
          "type": "address"
        }
      ],
      "payable": false,
      "stateMutability": "view",
      "type": "function"
    },
    {
      "constant": true,
      "inputs": [],
      "name": "did_",
      "outputs": [
        {
          "name": "",
          "type": "bytes32"
        }
      ],
      "payable": false,
      "stateMutability": "view",
      "type": "function"
    },
    {
      "constant": false,
      "inputs": [
        {
          "name": "_newOwner",
          "type": "address"
        }
      ],
      "name": "approveOwnershipTransfer",
      "outputs": [],
      "payable": false,
      "stateMutability": "nonpayable",
      "type": "function"
    },
    {
      "constant": true,
      "inputs": [],
      "name": "currGlobalConfigID_",
      "outputs": [
        {
          "name": "",
          "type": "uint256"
        }
      ],
      "payable": false,
      "stateMutability": "view",
      "type": "function"
    },
    {
      "constant": true,
      "inputs": [
        {
          "name": "",
          "type": "bytes32"
        }
      ],
      "name": "rewards_",
      "outputs": [
        {
          "name": "",
          "type": "uint256"
        }
      ],
      "payable": false,
      "stateMutability": "view",
      "type": "function"
    },
    {
      "constant": true,
      "inputs": [],
      "name": "maxNumResales_",
      "outputs": [
        {
          "name": "",
          "type": "uint256"
        }
      ],
      "payable": false,
      "stateMutability": "view",
      "type": "function"
    },
    {
      "constant": false,
      "inputs": [],
      "name": "requestOwnership",
      "outputs": [],
      "payable": false,
      "stateMutability": "nonpayable",
      "type": "function"
    },
    {
      "constant": true,
      "inputs": [],
      "name": "royalties_",
      "outputs": [
        {
          "name": "ownerProfit",
          "type": "uint256"
        }
      ],
      "payable": false,
      "stateMutability": "view",
      "type": "function"
    },
    {
      "constant": true,
      "inputs": [
        {
          "name": "",
          "type": "bytes32"
        }
      ],
      "name": "requesters_",
      "outputs": [
        {
          "name": "",
          "type": "bool"
        }
      ],
      "payable": false,
      "stateMutability": "view",
      "type": "function"
    },
    {
      "constant": true,
      "inputs": [
        {
          "name": "",
          "type": "uint256"
        }
      ],
      "name": "globalConfigs_",
      "outputs": [
        {
          "name": "locked",
          "type": "bool"
        },
        {
          "name": "minResalePrice",
          "type": "uint256"
        },
        {
          "name": "maxNumResales",
          "type": "uint256"
        }
      ],
      "payable": false,
      "stateMutability": "view",
      "type": "function"
    },
    {
      "constant": true,
      "inputs": [],
      "name": "unlimited_",
      "outputs": [
        {
          "name": "",
          "type": "bool"
        }
      ],
      "payable": false,
      "stateMutability": "view",
      "type": "function"
    },
    {
      "constant": true,
      "inputs": [],
      "name": "token_",
      "outputs": [
        {
          "name": "",
          "type": "address"
        }
      ],
      "payable": false,
      "stateMutability": "view",
      "type": "function"
    },
    {
      "constant": true,
      "inputs": [],
      "name": "totalCopies_",
      "outputs": [
        {
          "name": "",
          "type": "uint256"
        }
      ],
      "payable": false,
      "stateMutability": "view",
      "type": "function"
    },
    {
      "constant": true,
      "inputs": [],
      "name": "owner_",
      "outputs": [
        {
          "name": "",
          "type": "address"
        }
      ],
      "payable": false,
      "stateMutability": "view",
      "type": "function"
    },
    {
      "constant": true,
      "inputs": [
        {
          "name": "",
          "type": "uint256"
        }
      ],
      "name": "prices_",
      "outputs": [
        {
          "name": "",
          "type": "uint256"
        }
      ],
      "payable": false,
      "stateMutability": "view",
      "type": "function"
    },
    {
      "constant": false,
      "inputs": [],
      "name": "revokeOwnershipRequest",
      "outputs": [],
      "payable": false,
      "stateMutability": "nonpayable",
      "type": "function"
    },
    {
      "anonymous": false,
      "inputs": [
        {
          "indexed": false,
          "name": "_did",
          "type": "bytes32"
        }
      ],
      "name": "Commit",
      "type": "event"
    },
    {
      "anonymous": false,
      "inputs": [
        {
          "indexed": false,
          "name": "_did",
          "type": "bytes32"
        }
      ],
      "name": "Unlisted",
      "type": "event"
    },
    {
      "anonymous": false,
      "inputs": [
        {
          "indexed": false,
          "name": "_did",
          "type": "bytes32"
        }
      ],
      "name": "Listed",
      "type": "event"
    },
    {
      "anonymous": false,
      "inputs": [
        {
          "indexed": false,
          "name": "_did",
          "type": "bytes32"
        },
        {
          "indexed": false,
          "name": "_price",
          "type": "uint256"
        }
      ],
      "name": "MinResalePriceSet",
      "type": "event"
    },
    {
      "anonymous": false,
      "inputs": [
        {
          "indexed": false,
          "name": "_did",
          "type": "bytes32"
        },
        {
          "indexed": false,
          "name": "_purchaser",
          "type": "address"
        },
        {
          "indexed": false,
          "name": "_price",
          "type": "uint256"
        }
      ],
      "name": "ResalePriceSet",
      "type": "event"
    },
    {
      "anonymous": false,
      "inputs": [
        {
          "indexed": false,
          "name": "_did",
          "type": "bytes32"
        },
        {
          "indexed": false,
          "name": "_quantity",
          "type": "uint256"
        }
      ],
      "name": "MaxNumResalesSet",
      "type": "event"
    },
    {
      "anonymous": false,
      "inputs": [
        {
          "indexed": false,
          "name": "_did",
          "type": "bytes32"
        },
        {
          "indexed": false,
          "name": "_quantity",
          "type": "uint256"
        },
        {
          "indexed": false,
          "name": "_price",
          "type": "uint256"
        }
      ],
      "name": "PriceSet",
      "type": "event"
    },
    {
      "anonymous": false,
      "inputs": [
        {
          "indexed": false,
          "name": "_did",
          "type": "bytes32"
        },
        {
          "indexed": false,
          "name": "_jobId",
          "type": "bytes32"
        },
        {
          "indexed": false,
          "name": "_budget",
          "type": "uint256"
        }
      ],
      "name": "BudgetSubmitted",
      "type": "event"
    },
    {
      "anonymous": false,
      "inputs": [
        {
          "indexed": false,
          "name": "_did",
          "type": "bytes32"
        },
        {
          "indexed": false,
          "name": "_allocated",
          "type": "uint256"
        },
        {
          "indexed": false,
          "name": "_returned",
          "type": "uint256"
        }
      ],
      "name": "RewardsAllocated",
      "type": "event"
    },
    {
      "anonymous": false,
      "inputs": [
        {
          "indexed": false,
          "name": "_purchaser",
          "type": "bytes32"
        },
        {
          "indexed": false,
          "name": "_did",
          "type": "bytes32"
        },
        {
          "indexed": false,
          "name": "_quantity",
          "type": "uint256"
        },
        {
          "indexed": false,
          "name": "_price",
          "type": "uint256"
        },
        {
          "indexed": false,
          "name": "_configID",
          "type": "uint256"
        }
      ],
      "name": "Purchased",
      "type": "event"
    },
    {
      "anonymous": false,
      "inputs": [
        {
          "indexed": false,
          "name": "_purchaser",
          "type": "bytes32"
        },
        {
          "indexed": false,
          "name": "_seller",
          "type": "address"
        },
        {
          "indexed": false,
          "name": "_did",
          "type": "bytes32"
        },
        {
          "indexed": false,
          "name": "_quantity",
          "type": "uint256"
        },
        {
          "indexed": false,
          "name": "_price",
          "type": "uint256"
        },
        {
          "indexed": false,
          "name": "_configID",
          "type": "uint256"
        }
      ],
      "name": "PurchasedResale",
      "type": "event"
    },
    {
      "anonymous": false,
      "inputs": [
        {
          "indexed": false,
          "name": "_sender",
          "type": "address"
        }
      ],
      "name": "Redeemed",
      "type": "event"
    },
    {
      "anonymous": false,
      "inputs": [
        {
          "indexed": false,
          "name": "_did",
          "type": "bytes32"
        },
        {
          "indexed": false,
          "name": "_added",
          "type": "uint256"
        },
        {
          "indexed": false,
          "name": "_total",
          "type": "uint256"
        }
      ],
      "name": "IncreasedSupply",
      "type": "event"
    },
    {
      "anonymous": false,
      "inputs": [
        {
          "indexed": false,
          "name": "_did",
          "type": "bytes32"
        },
        {
          "indexed": false,
          "name": "_removed",
          "type": "uint256"
        },
        {
          "indexed": false,
          "name": "_total",
          "type": "uint256"
        }
      ],
      "name": "DecreasedSupply",
      "type": "event"
    },
    {
      "anonymous": false,
      "inputs": [
        {
          "indexed": false,
          "name": "_did",
          "type": "bytes32"
        },
        {
          "indexed": false,
          "name": "_quantity",
          "type": "uint256"
        }
      ],
      "name": "SupplySet",
      "type": "event"
    },
    {
      "anonymous": false,
      "inputs": [
        {
          "indexed": false,
          "name": "_did",
          "type": "bytes32"
        },
        {
          "indexed": false,
          "name": "_seller",
          "type": "address"
        },
        {
          "indexed": false,
          "name": "_available",
          "type": "uint256"
        }
      ],
      "name": "ResaleUnlocked",
      "type": "event"
    },
    {
      "anonymous": false,
      "inputs": [
        {
          "indexed": false,
          "name": "_did",
          "type": "bytes32"
        },
        {
          "indexed": false,
          "name": "_seller",
          "type": "address"
        },
        {
          "indexed": false,
          "name": "_available",
          "type": "uint256"
        }
      ],
      "name": "ResaleLocked",
      "type": "event"
    },
    {
      "anonymous": false,
      "inputs": [
        {
          "indexed": false,
          "name": "_did",
          "type": "bytes32"
        }
      ],
      "name": "MarkedForResale",
      "type": "event"
    },
    {
      "anonymous": false,
      "inputs": [
        {
          "indexed": false,
          "name": "_did",
          "type": "bytes32"
        }
      ],
      "name": "MarkedNotForResale",
      "type": "event"
    },
    {
      "anonymous": false,
      "inputs": [
        {
          "indexed": false,
          "name": "_did",
          "type": "bytes32"
        }
      ],
      "name": "ResaleUnlocked",
      "type": "event"
    },
    {
      "anonymous": false,
      "inputs": [
        {
          "indexed": false,
          "name": "_did",
          "type": "bytes32"
        }
      ],
      "name": "ResaleLocked",
      "type": "event"
    },
    {
      "anonymous": false,
      "inputs": [
        {
          "indexed": false,
          "name": "_hashedAddresses",
          "type": "bytes32[]"
        },
        {
          "indexed": false,
          "name": "_amounts",
          "type": "uint256[]"
        },
        {
          "indexed": false,
          "name": "_price",
          "type": "uint256"
        },
        {
          "indexed": false,
          "name": "_profits",
          "type": "uint256[]"
        }
      ],
      "name": "RoyaltiesPaidOut",
      "type": "event"
    },
    {
      "anonymous": false,
      "inputs": [
        {
          "indexed": true,
          "name": "_previousOwner",
          "type": "address"
        },
        {
          "indexed": true,
          "name": "_newOwner",
          "type": "address"
        }
      ],
      "name": "TransferApproved",
      "type": "event"
    },
    {
      "anonymous": false,
      "inputs": [
        {
          "indexed": true,
          "name": "_currentOwner",
          "type": "address"
        },
        {
          "indexed": true,
          "name": "_requestedOwner",
          "type": "address"
        }
      ],
      "name": "TransferRequested",
      "type": "event"
    },
    {
      "anonymous": false,
      "inputs": [
        {
          "indexed": true,
          "name": "_currentOwner",
          "type": "address"
        },
        {
          "indexed": true,
          "name": "_requestOwner",
          "type": "address"
        }
      ],
      "name": "RequestRevoked",
      "type": "event"
    },
    {
      "constant": false,
      "inputs": [
        {
          "name": "_data",
          "type": "bytes"
        }
      ],
      "name": "init",
      "outputs": [],
      "payable": false,
      "stateMutability": "nonpayable",
      "type": "function"
    },
    {
      "constant": false,
      "inputs": [],
      "name": "list",
      "outputs": [],
      "payable": false,
      "stateMutability": "nonpayable",
      "type": "function"
    },
    {
      "constant": false,
      "inputs": [],
      "name": "unlist",
      "outputs": [],
      "payable": false,
      "stateMutability": "nonpayable",
      "type": "function"
    },
    {
      "constant": false,
      "inputs": [
        {
          "name": "_globalConfigID",
          "type": "uint256"
        }
      ],
      "name": "unlockResale",
      "outputs": [],
      "payable": false,
      "stateMutability": "nonpayable",
      "type": "function"
    },
    {
      "constant": false,
      "inputs": [],
      "name": "lockResale",
      "outputs": [],
      "payable": false,
      "stateMutability": "nonpayable",
      "type": "function"
    },
    {
      "constant": false,
      "inputs": [
        {
          "name": "_quantity",
          "type": "uint256"
        },
        {
          "name": "_price",
          "type": "uint256"
        }
      ],
      "name": "setPrice",
      "outputs": [],
      "payable": false,
      "stateMutability": "nonpayable",
      "type": "function"
    },
    {
      "constant": true,
      "inputs": [
        {
          "name": "_quantity",
          "type": "uint256"
        }
      ],
      "name": "getPrice",
      "outputs": [
        {
          "name": "",
          "type": "uint256"
        }
      ],
      "payable": false,
      "stateMutability": "view",
      "type": "function"
    },
    {
      "constant": false,
      "inputs": [
        {
          "name": "_quantity",
          "type": "uint256"
        }
      ],
      "name": "removePriceTier",
      "outputs": [],
      "payable": false,
      "stateMutability": "nonpayable",
      "type": "function"
    },
    {
      "constant": false,
      "inputs": [
        {
          "name": "_configID",
          "type": "uint256"
        },
        {
          "name": "_price",
          "type": "uint256"
        }
      ],
      "name": "setMinResalePrice",
      "outputs": [],
      "payable": false,
      "stateMutability": "nonpayable",
      "type": "function"
    },
    {
      "constant": false,
      "inputs": [
        {
          "name": "_configID",
          "type": "uint256"
        },
        {
          "name": "_quantity",
          "type": "uint256"
        }
      ],
      "name": "setResaleQuantity",
      "outputs": [],
      "payable": false,
      "stateMutability": "nonpayable",
      "type": "function"
    },
    {
      "constant": false,
      "inputs": [
        {
          "name": "_quantity",
          "type": "uint256"
        }
      ],
      "name": "setSupply",
      "outputs": [],
      "payable": false,
      "stateMutability": "nonpayable",
      "type": "function"
    },
    {
      "constant": false,
      "inputs": [
        {
          "name": "_quantity",
          "type": "uint256"
        }
      ],
      "name": "increaseSupply",
      "outputs": [],
      "payable": false,
      "stateMutability": "nonpayable",
      "type": "function"
    },
    {
      "constant": false,
      "inputs": [
        {
          "name": "_quantity",
          "type": "uint256"
        }
      ],
      "name": "decreaseSupply",
      "outputs": [],
      "payable": false,
      "stateMutability": "nonpayable",
      "type": "function"
    },
    {
      "constant": false,
      "inputs": [],
      "name": "setUnlimitedSupply",
      "outputs": [],
      "payable": false,
      "stateMutability": "nonpayable",
      "type": "function"
    },
    {
      "constant": false,
      "inputs": [
        {
          "name": "_hashedAddresses",
          "type": "bytes32[]"
        },
        {
          "name": "_amounts",
          "type": "uint256[]"
        }
      ],
      "name": "setRoyalties",
      "outputs": [],
      "payable": false,
      "stateMutability": "nonpayable",
      "type": "function"
    },
    {
      "constant": true,
      "inputs": [],
      "name": "getRoyalties",
      "outputs": [
        {
          "name": "",
          "type": "bytes32[]"
        },
        {
          "name": "",
          "type": "uint256[]"
        },
        {
          "name": "",
          "type": "uint256"
        }
      ],
      "payable": false,
      "stateMutability": "view",
      "type": "function"
    },
    {
      "constant": false,
      "inputs": [
        {
          "name": "_configID",
          "type": "uint256"
        },
        {
          "name": "_quantity",
          "type": "uint256"
        }
      ],
      "name": "unlockResaleQuantity",
      "outputs": [],
      "payable": false,
      "stateMutability": "nonpayable",
      "type": "function"
    },
    {
      "constant": false,
      "inputs": [
        {
          "name": "_configID",
          "type": "uint256"
        },
        {
          "name": "_quantity",
          "type": "uint256"
        }
      ],
      "name": "lockResaleQuantity",
      "outputs": [],
      "payable": false,
      "stateMutability": "nonpayable",
      "type": "function"
    },
    {
      "constant": false,
      "inputs": [
        {
          "name": "_configID",
          "type": "uint256"
        },
        {
          "name": "_price",
          "type": "uint256"
        }
      ],
      "name": "setResalePrice",
      "outputs": [],
      "payable": false,
      "stateMutability": "nonpayable",
      "type": "function"
    },
    {
      "constant": false,
      "inputs": [
        {
          "name": "_purchaser",
          "type": "bytes32"
        },
        {
          "name": "_quantity",
          "type": "uint256"
        },
        {
          "name": "_jobId",
          "type": "bytes32"
        },
        {
          "name": "_budget",
          "type": "uint256"
        }
      ],
      "name": "purchase",
      "outputs": [],
      "payable": false,
      "stateMutability": "nonpayable",
      "type": "function"
    },
    {
      "constant": false,
      "inputs": [
        {
          "name": "_seller",
          "type": "address"
        },
        {
          "name": "_configID",
          "type": "uint256"
        },
        {
          "name": "_purchaser",
          "type": "bytes32"
        },
        {
          "name": "_quantity",
          "type": "uint256"
        },
        {
          "name": "_jobId",
          "type": "bytes32"
        },
        {
          "name": "_budget",
          "type": "uint256"
        }
      ],
      "name": "purchaseResale",
      "outputs": [],
      "payable": false,
      "stateMutability": "nonpayable",
      "type": "function"
    },
    {
      "constant": true,
      "inputs": [
        {
          "name": "_owner",
          "type": "bytes32"
        },
        {
          "name": "_id",
          "type": "uint256"
        }
      ],
      "name": "getResaleConfig",
      "outputs": [
        {
          "name": "minResalePrice",
          "type": "uint256"
        },
        {
          "name": "maxNumResales",
          "type": "uint256"
        },
        {
          "name": "resalePrice",
          "type": "uint256"
        },
        {
          "name": "available",
          "type": "uint256"
        },
        {
          "name": "quantity",
          "type": "uint256"
        }
      ],
      "payable": false,
      "stateMutability": "view",
      "type": "function"
    },
    {
      "constant": false,
      "inputs": [
        {
          "name": "_jobId",
          "type": "bytes32"
        },
        {
          "name": "_budget",
          "type": "uint256"
        }
      ],
      "name": "submitBudget",
      "outputs": [],
      "payable": false,
      "stateMutability": "nonpayable",
      "type": "function"
    },
    {
      "constant": true,
      "inputs": [
        {
          "name": "_jobId",
          "type": "bytes32"
        }
      ],
      "name": "getBudget",
      "outputs": [
        {
          "name": "",
          "type": "uint256"
        }
      ],
      "payable": false,
      "stateMutability": "view",
      "type": "function"
    },
    {
      "constant": false,
      "inputs": [
        {
          "name": "_jobId",
          "type": "bytes32"
        },
        {
          "name": "_farmers",
          "type": "bytes32[]"
        },
        {
          "name": "_rewards",
          "type": "uint256[]"
        }
      ],
      "name": "allocateRewards",
      "outputs": [],
      "payable": false,
      "stateMutability": "nonpayable",
      "type": "function"
    },
    {
      "constant": false,
      "inputs": [],
      "name": "redeemBalance",
      "outputs": [],
      "payable": false,
      "stateMutability": "nonpayable",
      "type": "function"
    },
    {
      "constant": true,
      "inputs": [
        {
          "name": "_farmer",
          "type": "address"
        }
      ],
      "name": "getRewardsBalance",
      "outputs": [
        {
          "name": "",
          "type": "uint256"
        }
      ],
      "payable": false,
      "stateMutability": "view",
      "type": "function"
    },
    {
      "constant": false,
      "inputs": [
        {
          "name": "_mtOffsets",
          "type": "uint256[]"
        },
        {
          "name": "_msOffsets",
          "type": "uint256[]"
        },
        {
          "name": "_mtBuffer",
          "type": "bytes"
        },
        {
          "name": "_msBuffer",
          "type": "bytes"
        },
        {
          "name": "_list",
          "type": "bool"
        }
      ],
      "name": "append",
      "outputs": [],
      "payable": false,
      "stateMutability": "nonpayable",
      "type": "function"
    },
    {
      "constant": false,
      "inputs": [
        {
          "name": "_mtOffsets",
          "type": "uint256[]"
        },
        {
          "name": "_msOffsets",
          "type": "uint256[]"
        },
        {
          "name": "_mtBuffer",
          "type": "bytes"
        },
        {
          "name": "_msBuffer",
          "type": "bytes"
        },
        {
          "name": "_list",
          "type": "bool"
        }
      ],
      "name": "write",
      "outputs": [],
      "payable": false,
      "stateMutability": "nonpayable",
      "type": "function"
    },
    {
      "constant": true,
      "inputs": [
        {
          "name": "_file",
          "type": "uint8"
        },
        {
          "name": "_offset",
          "type": "uint256"
        }
      ],
      "name": "read",
      "outputs": [
        {
          "name": "buffer",
          "type": "bytes"
        }
      ],
      "payable": false,
      "stateMutability": "view",
      "type": "function"
    },
    {
      "constant": true,
      "inputs": [
        {
          "name": "_file",
          "type": "uint8"
        },
        {
          "name": "_offset",
          "type": "uint256"
        },
        {
          "name": "_buffer",
          "type": "bytes"
        }
      ],
      "name": "hasBuffer",
      "outputs": [
        {
          "name": "exists",
          "type": "bool"
        }
      ],
      "payable": false,
      "stateMutability": "view",
      "type": "function"
    }
  ],
  "bytecode": "0x60806040526000600c60006101000a81548160ff0219169083151502179055503480156200002c57600080fd5b5061845b806200003d6000396000f300608060405260043610610293576000357c0100000000000000000000000000000000000000000000000000000000900463ffffffff16806306b75c5a146102985780630a243d70146102c35780630b38926a146103405780630f560cd7146103815780631748fde9146103985780631e0a1b95146103af5780631f84eb461461042757806323276c531461046c5780632710ab60146104975780632a6363be146104c4578063313c2c5f146104f357806331ddd9ab1461052257806333df048e146105d557806334219bbe146106905780633b4c4b25146106fb5780633e5ceede1461072857806346f60dee1461073f57806347269720146107965780634ddf47d4146107c95780634e1d009f1461083257806354336c0a14610875578063546887a3146108a257806354d94284146108e75780635712c2fa146109125780635ee6fa61146109bb5780637bfa87b614610a0057806389a6c33814610a2b5780638a67f4bf14610a625780638e5aafe114610ab9578063922c720514610ad057806393acee6414610afb57806397409a9b14610c3c57806398e52f9a14610c7357806399d20bb114610ca0578063a0d5850114610ce9578063b4745b2e14610d00578063b658e85114610d53578063b921e16314610da6578063bb66f9f614610dd3578063bc3cf83b14610e86578063ca86433614610eb5578063cc3a08f814610eec578063d56805e114610fa3578063dbcbba9614610ffa578063dd846f0814611031578063e0a88a3b1461105c578063e757223014611073578063e7663079146110b4578063f0c13b9e1461110b578063f0e5bd861461114c578063f1c737de146111e4578063f51b697914611273578063f7d97577146112ae578063f7e2aaab146112e5578063fc1c34e41461131c575b600080fd5b3480156102a457600080fd5b506102ad611333565b6040518082815260200191505060405180910390f35b3480156102cf57600080fd5b5061033e600480360381019080803573ffffffffffffffffffffffffffffffffffffffff16906020019092919080359060200190929190803560001916906020019092919080359060200190929190803560001916906020019092919080359060200190929190505050611339565b005b34801561034c57600080fd5b5061036b60048036038101908080359060200190929190505050611ffe565b6040518082815260200191505060405180910390f35b34801561038d57600080fd5b50610396612021565b005b3480156103a457600080fd5b506103ad612145565b005b3480156103bb57600080fd5b506103de600480360381019080803560001916906020019092919050505061227b565b604051808373ffffffffffffffffffffffffffffffffffffffff1673ffffffffffffffffffffffffffffffffffffffff1681526020018281526020019250505060405180910390f35b34801561043357600080fd5b5061045660048036038101908080356000191690602001909291905050506122bf565b6040518082815260200191505060405180910390f35b34801561047857600080fd5b506104816122dd565b6040518082815260200191505060405180910390f35b3480156104a357600080fd5b506104c2600480360381019080803590602001909291905050506122e3565b005b3480156104d057600080fd5b506104d9612518565b604051808215151515815260200191505060405180910390f35b3480156104ff57600080fd5b5061050861252b565b604051808215151515815260200191505060405180910390f35b34801561052e57600080fd5b5061055a600480360381019080803560ff1690602001909291908035906020019092919050505061253e565b6040518080602001828103825283818151815260200191508051906020019080838360005b8381101561059a57808201518184015260208101905061057f565b50505050905090810190601f1680156105c75780820380516001836020036101000a031916815260200191505b509250505060405180910390f35b3480156105e157600080fd5b506105ea6125fb565b604051808060200180602001848152602001838103835286818151815260200191508051906020019060200280838360005b8381101561063757808201518184015260208101905061061c565b50505050905001838103825285818151815260200191508051906020019060200280838360005b8381101561067957808201518184015260208101905061065e565b505050509050019550505050505060405180910390f35b34801561069c57600080fd5b506106c96004803603810190808035600019169060200190929190803590602001909291905050506127d4565b604051808681526020018581526020018481526020018381526020018281526020019550505050505060405180910390f35b34801561070757600080fd5b5061072660048036038101908080359060200190929190505050612860565b005b34801561073457600080fd5b5061073d612a1b565b005b34801561074b57600080fd5b50610754612d17565b604051808273ffffffffffffffffffffffffffffffffffffffff1673ffffffffffffffffffffffffffffffffffffffff16815260200191505060405180910390f35b3480156107a257600080fd5b506107ab612d3d565b60405180826000191660001916815260200191505060405180910390f35b3480156107d557600080fd5b50610830600480360381019080803590602001908201803590602001908080601f0160208091040260200160405190810160405280939291908181526020018383808284378201915050505050509192919290505050612d43565b005b34801561083e57600080fd5b50610873600480360381019080803573ffffffffffffffffffffffffffffffffffffffff169060200190929190505050612f48565b005b34801561088157600080fd5b506108a060048036038101908080359060200190929190505050613237565b005b3480156108ae57600080fd5b506108d160048036038101908080356000191690602001909291905050506133dc565b6040518082815260200191505060405180910390f35b3480156108f357600080fd5b506108fc613404565b6040518082815260200191505060405180910390f35b34801561091e57600080fd5b506109b9600480360381019080803590602001908201803590602001908080602002602001604051908101604052809392919081815260200183836020028082843782019150505050505091929192908035906020019082018035906020019080806020026020016040519081016040528093929190818152602001838360200280828437820191505050505050919291929050505061340a565b005b3480156109c757600080fd5b506109ea600480360381019080803560001916906020019092919050505061378a565b6040518082815260200191505060405180910390f35b348015610a0c57600080fd5b50610a156137a2565b6040518082815260200191505060405180910390f35b348015610a3757600080fd5b50610a6060048036038101908080359060200190929190803590602001909291905050506137a8565b005b348015610a6e57600080fd5b50610aa3600480360381019080803573ffffffffffffffffffffffffffffffffffffffff169060200190929190505050613995565b6040518082815260200191505060405180910390f35b348015610ac557600080fd5b50610ace613a76565b005b348015610adc57600080fd5b50610ae5613d68565b6040518082815260200191505060405180910390f35b348015610b0757600080fd5b50610c3a6004803603810190808035906020019082018035906020019080806020026020016040519081016040528093929190818152602001838360200280828437820191505050505050919291929080359060200190820180359060200190808060200260200160405190810160405280939291908181526020018383602002808284378201915050505050509192919290803590602001908201803590602001908080601f0160208091040260200160405190810160405280939291908181526020018383808284378201915050505050509192919290803590602001908201803590602001908080601f0160208091040260200160405190810160405280939291908181526020018383808284378201915050505050509192919290803515159060200190929190505050613d74565b005b348015610c4857600080fd5b50610c7160048036038101908080359060200190929190803590602001909291905050506140ad565b005b348015610c7f57600080fd5b50610c9e600480360381019080803590602001909291905050506145db565b005b348015610cac57600080fd5b50610ccf6004803603810190808035600019169060200190929190505050614935565b604051808215151515815260200191505060405180910390f35b348015610cf557600080fd5b50610cfe614955565b005b348015610d0c57600080fd5b50610d2b60048036038101908080359060200190929190505050614a79565b6040518084151515158152602001838152602001828152602001935050505060405180910390f35b348015610d5f57600080fd5b50610da4600480360381019080803560001916906020019092919080359060200190929190803560001916906020019092919080359060200190929190505050614ab0565b005b348015610db257600080fd5b50610dd1600480360381019080803590602001909291905050506158ac565b005b348015610ddf57600080fd5b50610e0b600480360381019080803560ff16906020019092919080359060200190929190505050615ac3565b6040518080602001828103825283818151815260200191508051906020019080838360005b83811015610e4b578082015181840152602081019050610e30565b50505050905090810190601f168015610e785780820380516001836020036101000a031916815260200191505b509250505060405180910390f35b348015610e9257600080fd5b50610e9b615bbf565b604051808215151515815260200191505060405180910390f35b348015610ec157600080fd5b50610eea6004803603810190808035906020019092919080359060200190929190505050615bd2565b005b348015610ef857600080fd5b50610fa1600480360381019080803560001916906020019092919080359060200190820180359060200190808060200260200160405190810160405280939291908181526020018383602002808284378201915050505050509192919290803590602001908201803590602001908080602002602001604051908101604052809392919081815260200183836020028082843782019150505050505091929192905050506160cc565b005b348015610faf57600080fd5b50610fb86165da565b604051808273ffffffffffffffffffffffffffffffffffffffff1673ffffffffffffffffffffffffffffffffffffffff16815260200191505060405180910390f35b34801561100657600080fd5b5061102f6004803603810190808035906020019092919080359060200190929190505050616600565b005b34801561103d57600080fd5b506110466167ed565b6040518082815260200191505060405180910390f35b34801561106857600080fd5b506110716167f3565b005b34801561107f57600080fd5b5061109e60048036038101908080359060200190929190505050616917565b6040518082815260200191505060405180910390f35b3480156110c057600080fd5b506110c96169f6565b604051808273ffffffffffffffffffffffffffffffffffffffff1673ffffffffffffffffffffffffffffffffffffffff16815260200191505060405180910390f35b34801561111757600080fd5b5061113660048036038101908080359060200190929190505050616a1b565b6040518082815260200191505060405180910390f35b34801561115857600080fd5b506111ca600480360381019080803560ff16906020019092919080359060200190929190803590602001908201803590602001908080601f0160208091040260200160405190810160405280939291908181526020018383808284378201915050505050509192919290505050616a33565b604051808215151515815260200191505060405180910390f35b3480156111f057600080fd5b50611271600480360381019080803590602001908201803590602001919091929391929390803590602001908201803590602001919091929391929390803590602001908201803590602001919091929391929390803590602001908201803590602001919091929391929390803515159060200190929190505050616b13565b005b34801561127f57600080fd5b506112ac600480360381019080803560001916906020019092919080359060200190929190505050616df3565b005b3480156112ba57600080fd5b506112e3600480360381019080803590602001909291908035906020019092919050505061753c565b005b3480156112f157600080fd5b5061131a60048036038101908080359060200190929190803590602001909291905050506176cb565b005b34801561132857600080fd5b50611331617afe565b005b600d5481565b600080600080600080881115156113b8576040517f08c379a000000000000000000000000000000000000000000000000000000000815260040180806020018281038252601e8152602001807f4d757374207075726368617365206174206c65617374203120636f70792e000081525060200191505060405180910390fd5b8a604051602001808273ffffffffffffffffffffffffffffffffffffffff1673ffffffffffffffffffffffffffffffffffffffff166c010000000000000000000000000281526014019150506040516020818303038152906040526040518082805190602001908083835b6020831015156114485780518252602082019150602081019050602083039250611423565b6001836020036101000a0380198251168184511680821785525050505050509050019150506040518091039020945060116000866000191660001916815260200190815260200160002060020160008b815260200190815260200160002093508360000160009054906101000a900460ff161515611554576040517f08c379a00000000000000000000000000000000000000000000000000000000081526004018080602001828103825260338152602001807f506c656173652070726f7669646520612076616c69642073656c6c657220726581526020017f73616c6520636f6e66696775726174696f6e2e0000000000000000000000000081525060400191505060405180910390fd5b8784600201541015151561161c576040517f08c379a000000000000000000000000000000000000000000000000000000000815260040180806020018281038252605b8152602001807f54686973207175616e74697479206973206e6f7420617661696c61626c65206681526020017f6f7220726573616c652066726f6d20746869732073656c6c6572207573696e6781526020017f207468697320726573616c6520636f6e66696775726174696f6e2e000000000081525060600191505060405180910390fd5b600a60008b8152602001908152602001600020600201548460040160018a0381548110151561164757fe5b90600052602060002001541015156116ed576040517f08c379a00000000000000000000000000000000000000000000000000000000081526004018080602001828103825260378152602001807f436f70792068617320616c7265616479206265656e20736f6c6420746865206d81526020017f6178696d756d206e756d626572206f662074696d65732e00000000000000000081525060400191505060405180910390fd5b836001015488029250858301600360009054906101000a900473ffffffffffffffffffffffffffffffffffffffff1673ffffffffffffffffffffffffffffffffffffffff1663dd62ed3e33306040518363ffffffff167c0100000000000000000000000000000000000000000000000000000000028152600401808373ffffffffffffffffffffffffffffffffffffffff1673ffffffffffffffffffffffffffffffffffffffff1681526020018273ffffffffffffffffffffffffffffffffffffffff1673ffffffffffffffffffffffffffffffffffffffff16815260200192505050602060405180830381600087803b1580156117ea57600080fd5b505af11580156117fe573d6000803e3d6000fd5b505050506040513d602081101561181457600080fd5b8101908080519060200190929190505050101515156118c1576040517f08c379a00000000000000000000000000000000000000000000000000000000081526004018080602001828103825260248152602001807f50726f7879206d75737420626520617070726f76656420666f7220707572636881526020017f6173652e0000000000000000000000000000000000000000000000000000000081525060400191505060405180910390fd5b600360009054906101000a900473ffffffffffffffffffffffffffffffffffffffff1673ffffffffffffffffffffffffffffffffffffffff166323b872dd338d600a60008f8152602001908152602001600020600101548860010154038c026040518463ffffffff167c0100000000000000000000000000000000000000000000000000000000028152600401808473ffffffffffffffffffffffffffffffffffffffff1673ffffffffffffffffffffffffffffffffffffffff1681526020018373ffffffffffffffffffffffffffffffffffffffff1673ffffffffffffffffffffffffffffffffffffffff1681526020018281526020019350505050602060405180830381600087803b1580156119d857600080fd5b505af11580156119ec573d6000803e3d6000fd5b505050506040513d6020811015611a0257600080fd5b81019080805190602001909291905050508015611b885750600360009054906101000a900473ffffffffffffffffffffffffffffffffffffffff1673ffffffffffffffffffffffffffffffffffffffff166323b872dd336002809054906101000a900473ffffffffffffffffffffffffffffffffffffffff16600a60008f8152602001908152602001600020600101548c026040518463ffffffff167c0100000000000000000000000000000000000000000000000000000000028152600401808473ffffffffffffffffffffffffffffffffffffffff1673ffffffffffffffffffffffffffffffffffffffff1681526020018373ffffffffffffffffffffffffffffffffffffffff1673ffffffffffffffffffffffffffffffffffffffff1681526020018281526020019350505050602060405180830381600087803b158015611b4c57600080fd5b505af1158015611b60573d6000803e3d6000fd5b505050506040513d6020811015611b7657600080fd5b81019080805190602001909291905050505b1515611bfc576040517f08c379a00000000000000000000000000000000000000000000000000000000081526004018080602001828103825260148152602001807f417261207472616e73666572206661696c65642e00000000000000000000000081525060200191505060405180910390fd5b87846003016000828254039250508190555087846002016000828254039250508190555033604051602001808273ffffffffffffffffffffffffffffffffffffffff1673ffffffffffffffffffffffffffffffffffffffff166c010000000000000000000000000281526014019150506040516020818303038152906040526040518082805190602001908083835b602083101515611cb05780518252602082019150602081019050602083039250611c8b565b6001836020036101000a0380198251168184511680821785525050505050509050019150506040518091039020915060116000836000191660001916815260200190815260200160002090508060020160008b815260200190815260200160002060000160009054906101000a900460ff1615611d5257878160020160008c815260200190815260200160002060030160008282540192505081905550611d5f565b611d5e828b8a87617dcc565b5b600460009054906101000a900473ffffffffffffffffffffffffffffffffffffffff1673ffffffffffffffffffffffffffffffffffffffff1663a513cc9c8a6005546040518363ffffffff167c0100000000000000000000000000000000000000000000000000000000028152600401808360001916600019168152602001826000191660001916815260200192505050602060405180830381600087803b158015611e0a57600080fd5b505af1158015611e1e573d6000803e3d6000fd5b505050506040513d6020811015611e3457600080fd5b81019080805190602001909291905050501515611f0f57600460009054906101000a900473ffffffffffffffffffffffffffffffffffffffff1673ffffffffffffffffffffffffffffffffffffffff16630c2bb9658a6005546040518363ffffffff167c0100000000000000000000000000000000000000000000000000000000028152600401808360001916600019168152602001826000191660001916815260200192505050600060405180830381600087803b158015611ef657600080fd5b505af1158015611f0a573d6000803e3d6000fd5b505050505b7f9637412979454975d2b283ecdc377d7594b003f5df849a80d25f9f3cfef81c40898c6005548b878f6040518087600019166000191681526020018673ffffffffffffffffffffffffffffffffffffffff1673ffffffffffffffffffffffffffffffffffffffff1681526020018560001916600019168152602001848152602001838152602001828152602001965050505050505060405180910390a1600084600301541415611fc557611fc4858b87617fba565b5b600060010260001916876000191614158015611fe15750600086115b15611ff157611ff08787616df3565b5b5050505050505050505050565b60088181548110151561200d57fe5b906000526020600020016000915090505481565b6002809054906101000a900473ffffffffffffffffffffffffffffffffffffffff168073ffffffffffffffffffffffffffffffffffffffff163373ffffffffffffffffffffffffffffffffffffffff161415156120e6576040517f08c379a00000000000000000000000000000000000000000000000000000000081526004018080602001828103825260168152602001807f53656e646572206e6f7420617574686f72697a65642e0000000000000000000081525060200191505060405180910390fd5b6001600660006101000a81548160ff0219169083151502179055507fbb62c580222a498aedf5b724b94b0d90065a6bd3be8349b223dc032dbdef555560055460405180826000191660001916815260200191505060405180910390a150565b6002809054906101000a900473ffffffffffffffffffffffffffffffffffffffff168073ffffffffffffffffffffffffffffffffffffffff163373ffffffffffffffffffffffffffffffffffffffff1614151561220a576040517f08c379a00000000000000000000000000000000000000000000000000000000081526004018080602001828103825260168152602001807f53656e646572206e6f7420617574686f72697a65642e0000000000000000000081525060200191505060405180910390fd5b6000600b819055506001600c60006101000a81548160ff0219169083151502179055507f0dffee683881a39928b28151ccdb36b1b55ceeb6fc19567a64fa8f8f483b714d600554600b546040518083600019166000191681526020018281526020019250505060405180910390a150565b600f6020528060005260406000206000915090508060000160009054906101000a900473ffffffffffffffffffffffffffffffffffffffff16908060010154905082565b60116020528060005260406000206000915090508060030154905081565b61271081565b6002809054906101000a900473ffffffffffffffffffffffffffffffffffffffff168073ffffffffffffffffffffffffffffffffffffffff163373ffffffffffffffffffffffffffffffffffffffff161415156123a8576040517f08c379a00000000000000000000000000000000000000000000000000000000081526004018080602001828103825260168152602001807f53656e646572206e6f7420617574686f72697a65642e0000000000000000000081525060200191505060405180910390fd5b6000600a600084815260200190815260200160002060020154111515612482576040517f08c379a00000000000000000000000000000000000000000000000000000000081526004018080602001828103825260498152602001807f43616e6e6f7420756e6c6f636b20666f7220726573616c65206265636175736581526020017f20726573616c6520636f6e66696775726174696f6e20686173206e6f7420626581526020017f656e2073657475702e000000000000000000000000000000000000000000000081525060600191505060405180910390fd5b6001600260016101000a81548160ff021916908315150217905550816009819055506001600a600084815260200190815260200160002060000160006101000a81548160ff0219169083151502179055507f2db6bfc3c84cfef31473a216848e0a4632093c15ed309ff6b376e6516b58777f60055460405180826000191660001916815260200191505060405180910390a15050565b600660009054906101000a900460ff1681565b600260019054906101000a900460ff1681565b6012602052816000526040600020602052806000526040600020600091509150508054600181600116156101000203166002900480601f0160208091040260200160405190810160405280929190818152602001828054600181600116156101000203166002900480156125f35780601f106125c8576101008083540402835291602001916125f3565b820191906000526020600020905b8154815290600101906020018083116125d657829003601f168201915b505050505081565b6060806000606080600080601360010180549050141561268d5760006040519080825280602002602001820160405280156126455781602001602082028038833980820191505090505b5060006040519080825280602002602001820160405280156126765781602001602082028038833980820191505090505b5060008292508191508090509550955095506127cc565b6013600101805490506040519080825280602002602001820160405280156126c45781602001602082028038833980820191505090505b5092506013600101805490506040519080825280602002602001820160405280156126fe5781602001602082028038833980820191505090505b509150600090505b6013600101805490508110156127bd5760136001018181548110151561272857fe5b9060005260206000200154838281518110151561274157fe5b9060200190602002019060001916908160001916815250506013600001600060136001018381548110151561277257fe5b9060005260206000200154600019166000191681526020019081526020016000205482828151811015156127a257fe5b90602001906020020181815250508080600101915050612706565b82826013600201549550955095505b505050909192565b60008060008060008060116000896000191660001916815260200190815260200160002060020160008881526020019081526020016000209050600a600088815260200190815260200160002060010154600a60008981526020019081526020016000206002015482600101548360020154846003015495509550955095509550509295509295909350565b6002809054906101000a900473ffffffffffffffffffffffffffffffffffffffff168073ffffffffffffffffffffffffffffffffffffffff163373ffffffffffffffffffffffffffffffffffffffff16141515612925576040517f08c379a00000000000000000000000000000000000000000000000000000000081526004018080602001828103825260168152602001807f53656e646572206e6f7420617574686f72697a65642e0000000000000000000081525060200191505060405180910390fd5b60008211151561299d576040517f08c379a00000000000000000000000000000000000000000000000000000000081526004018080602001828103825260208152602001807f5175616e74697479206d7573742062652067726561746572207468616e20302e81525060200191505060405180910390fd5b81600b81905550600b5460001415156129cc576000600c60006101000a81548160ff0219169083151502179055505b7f0dffee683881a39928b28151ccdb36b1b55ceeb6fc19567a64fa8f8f483b714d600554600b546040518083600019166000191681526020018281526020019250505060405180910390a15050565b600033604051602001808273ffffffffffffffffffffffffffffffffffffffff1673ffffffffffffffffffffffffffffffffffffffff166c010000000000000000000000000281526014019150506040516020818303038152906040526040518082805190602001908083835b602083101515612aad5780518252602082019150602081019050602083039250612a88565b6001836020036101000a03801982511681845116808217855250505050505090500191505060405180910390209050600060106000836000191660001916815260200190815260200160002054111515612b6f576040517f08c379a00000000000000000000000000000000000000000000000000000000081526004018080602001828103825260158152602001807f4e6f2062616c616e636520746f2072656465656d2e000000000000000000000081525060200191505060405180910390fd5b600360009054906101000a900473ffffffffffffffffffffffffffffffffffffffff1673ffffffffffffffffffffffffffffffffffffffff1663a9059cbb33601060008560001916600019168152602001908152602001600020546040518363ffffffff167c0100000000000000000000000000000000000000000000000000000000028152600401808373ffffffffffffffffffffffffffffffffffffffff1673ffffffffffffffffffffffffffffffffffffffff16815260200182815260200192505050602060405180830381600087803b158015612c4f57600080fd5b505af1158015612c63573d6000803e3d6000fd5b505050506040513d6020811015612c7957600080fd5b810190808051906020019092919050505015612d14576000601060008360001916600019168152602001908152602001600020819055507fcb7d87f76b4d6501ac27ed560664bf84ce273a2ddd7b9b1da63c753e68ccae2033604051808273ffffffffffffffffffffffffffffffffffffffff1673ffffffffffffffffffffffffffffffffffffffff16815260200191505060405180910390a15b50565b600460009054906101000a900473ffffffffffffffffffffffffffffffffffffffff1681565b60055481565b600080600080600080600260009054906101000a900460ff16151515612df7576040517f08c379a00000000000000000000000000000000000000000000000000000000081526004018080602001828103825260268152602001807f496e69742066756e6374696f6e2063616e206f6e6c792062652063616c6c656481526020017f206f6e63652e000000000000000000000000000000000000000000000000000081525060400191505060405180910390fd5b6001600260006101000a81548160ff0219169083151502179055506020870195508551945060408701955085519350606087019550855192506080870195508551915060a08701955085519050846002806101000a81548173ffffffffffffffffffffffffffffffffffffffff021916908373ffffffffffffffffffffffffffffffffffffffff16021790555083600360006101000a81548173ffffffffffffffffffffffffffffffffffffffff021916908373ffffffffffffffffffffffffffffffffffffffff16021790555082600460006101000a81548173ffffffffffffffffffffffffffffffffffffffff021916908373ffffffffffffffffffffffffffffffffffffffff160217905550816005816000191690555080600b81905550600b5460001415612f3f576001600c60006101000a81548160ff0219169083151502179055505b50505050505050565b60008060009054906101000a900473ffffffffffffffffffffffffffffffffffffffff1673ffffffffffffffffffffffffffffffffffffffff163373ffffffffffffffffffffffffffffffffffffffff16141515612fa557600080fd5b816001600082604051602001808273ffffffffffffffffffffffffffffffffffffffff1673ffffffffffffffffffffffffffffffffffffffff166c010000000000000000000000000281526014019150506040516020818303038152906040526040518082805190602001908083835b60208310151561303a5780518252602082019150602081019050602083039250613015565b6001836020036101000a03801982511681845116808217855250505050505090500191505060405180910390206000191660001916815260200190815260200160002060009054906101000a900460ff1615156130ff576040517f08c379a00000000000000000000000000000000000000000000000000000000081526004018080602001828103825260208152602001807f4f776e6572207265717565737420686173206e6f74206265656e2073656e742e81525060200191505060405180910390fd5b826000806101000a81548173ffffffffffffffffffffffffffffffffffffffff021916908373ffffffffffffffffffffffffffffffffffffffff16021790555033604051602001808273ffffffffffffffffffffffffffffffffffffffff1673ffffffffffffffffffffffffffffffffffffffff166c010000000000000000000000000281526014019150506040516020818303038152906040526040518082805190602001908083835b6020831015156131cf57805182526020820191506020810190506020830392506131aa565b6001836020036101000a03801982511681845116808217855250505050505090500191505060405180910390209150600060016000846000191660001916815260200190815260200160002060006101000a81548160ff021916908315150217905550505050565b60006002809054906101000a900473ffffffffffffffffffffffffffffffffffffffff168073ffffffffffffffffffffffffffffffffffffffff163373ffffffffffffffffffffffffffffffffffffffff161415156132fe576040517f08c379a00000000000000000000000000000000000000000000000000000000081526004018080602001828103825260168152602001807f53656e646572206e6f7420617574686f72697a65642e0000000000000000000081525060200191505060405180910390fd5b6007600084815260200190815260200160002060009055600091505b6008805490508210156133d7578260088381548110151561333757fe5b906000526020600020015414156133ca5760088281548110151561335757fe5b9060005260206000200160009055600860016008805490500381548110151561337c57fe5b906000526020600020015460088381548110151561339657fe5b906000526020600020018190555060086001600880549050038154811015156133bb57fe5b90600052602060002001600090555b818060010192505061331a565b505050565b6000600f60008360001916600019168152602001908152602001600020600101549050919050565b60095481565b60008060006002809054906101000a900473ffffffffffffffffffffffffffffffffffffffff168073ffffffffffffffffffffffffffffffffffffffff163373ffffffffffffffffffffffffffffffffffffffff161415156134d4576040517f08c379a00000000000000000000000000000000000000000000000000000000081526004018080602001828103825260168152602001807f53656e646572206e6f7420617574686f72697a65642e0000000000000000000081525060200191505060405180910390fd5b6000600880549050111515613577576040517f08c379a000000000000000000000000000000000000000000000000000000000815260040180806020018281038252602d8152602001807f5072696365206d75737420626520736574207072696f7220746f20736574746981526020017f6e6720726f79616c746965732e0000000000000000000000000000000000000081525060400191505060405180910390fd5b600060136001018054905011156135fc57600093505b6013600101805490508410156135ea576000601360000160006013600101878154811015156135b857fe5b90600052602060002001546000191660001916815260200190815260200160002081905550838060010194505061358d565b601360010160006135fb91906182a4565b5b60009250600091505b85518210156136d457848281518110151561361c57fe5b9060200190602002015160136000016000888581518110151561363b57fe5b9060200190602002015160001916600019168152602001908152602001600020819055506013600101868381518110151561367257fe5b90602001906020020151908060018154018082558091505090600182039060005260206000200160009091929091909150906000191690555084828151811015156136b957fe5b90602001906020020151830192508180600101925050613605565b6127108311151515613774576040517f08c379a00000000000000000000000000000000000000000000000000000000081526004018080602001828103825260228152602001807f526f79616c74792073706c6974732063616e6e6f74206578636565642031303081526020017f252e00000000000000000000000000000000000000000000000000000000000081525060400191505060405180910390fd5b8261271003601360020181905550505050505050565b60106020528060005260406000206000915090505481565b600e5481565b6002809054906101000a900473ffffffffffffffffffffffffffffffffffffffff168073ffffffffffffffffffffffffffffffffffffffff163373ffffffffffffffffffffffffffffffffffffffff1614151561386d576040517f08c379a00000000000000000000000000000000000000000000000000000000081526004018080602001828103825260168152602001807f53656e646572206e6f7420617574686f72697a65642e0000000000000000000081525060200191505060405180910390fd5b600a600084815260200190815260200160002060000160009054906101000a900460ff1615151561392c576040517f08c379a000000000000000000000000000000000000000000000000000000000815260040180806020018281038252602c8152602001807f43616e6e6f74206d6f646966792061206c6f636b656420726573616c6520636f81526020017f6e66696775726174696f6e2e000000000000000000000000000000000000000081525060400191505060405180910390fd5b81600a6000858152602001908152602001600020600101819055507fdca0c456563bef627a1630910a55d7f7dbc34e6436eff2d7a6b04d5b1c76192a600554836040518083600019166000191681526020018281526020019250505060405180910390a1505050565b60006010600083604051602001808273ffffffffffffffffffffffffffffffffffffffff1673ffffffffffffffffffffffffffffffffffffffff166c010000000000000000000000000281526014019150506040516020818303038152906040526040518082805190602001908083835b602083101515613a2b5780518252602082019150602081019050602083039250613a06565b6001836020036101000a038019825116818451168082178552505050505050905001915050604051809103902060001916600019168152602001908152602001600020549050919050565b60006001600033604051602001808273ffffffffffffffffffffffffffffffffffffffff1673ffffffffffffffffffffffffffffffffffffffff166c010000000000000000000000000281526014019150506040516020818303038152906040526040518082805190602001908083835b602083101515613b0c5780518252602082019150602081019050602083039250613ae7565b6001836020036101000a03801982511681845116808217855250505050505090500191505060405180910390206000191660001916815260200190815260200160002060009054906101000a900460ff16151515613bf8576040517f08c379a00000000000000000000000000000000000000000000000000000000081526004018080602001828103825260218152602001807f4f776e657273686970207265717565737420616c72656164792061637469766581526020017f2e0000000000000000000000000000000000000000000000000000000000000081525060400191505060405180910390fd5b33604051602001808273ffffffffffffffffffffffffffffffffffffffff1673ffffffffffffffffffffffffffffffffffffffff166c010000000000000000000000000281526014019150506040516020818303038152906040526040518082805190602001908083835b602083101515613c885780518252602082019150602081019050602083039250613c63565b6001836020036101000a038019825116818451168082178552505050505050905001915050604051809103902090506001806000836000191660001916815260200190815260200160002060006101000a81548160ff0219169083151502179055503373ffffffffffffffffffffffffffffffffffffffff166000809054906101000a900473ffffffffffffffffffffffffffffffffffffffff1673ffffffffffffffffffffffffffffffffffffffff167fd5b906f2d3dfa8cf0ea788d4ad6e99ebd482d6134c3405e1a5faa5da891cda8560405160405180910390a350565b60138060020154905081565b6000806002809054906101000a900473ffffffffffffffffffffffffffffffffffffffff168073ffffffffffffffffffffffffffffffffffffffff163373ffffffffffffffffffffffffffffffffffffffff16141515613e3c576040517f08c379a00000000000000000000000000000000000000000000000000000000081526004018080602001828103825260168152602001807f53656e646572206e6f7420617574686f72697a65642e0000000000000000000081525060200191505060405180910390fd5b600660009054906101000a900460ff1680613e545750835b600660006101000a81548160ff0219169083151502179055508651885111613e7d578651613e80565b87515b9250613e9960006020886181a89092919063ffffffff16565b601260008060ff16815260200190815260200160002060008081526020019081526020016000209080519060200190613ed39291906182c5565b50613eeb60006020876181a89092919063ffffffff16565b60126000600160ff16815260200190815260200160002060008081526020019081526020016000209080519060200190613f269291906182c5565b50600191505b8282101561406257600188510382111515613fc457613f718883815181101515613f5257fe5b90602001906020020151602860ff16886181a89092919063ffffffff16565b601260008060ff16815260200190815260200160002060008a85815181101515613f9757fe5b9060200190602002015181526020019081526020016000209080519060200190613fc29291906182c5565b505b600187510382111515614055576140018783815181101515613fe257fe5b90602001906020020151604060ff16876181a89092919063ffffffff16565b60126000600160ff1681526020019081526020016000206000898581518110151561402857fe5b90602001906020020151815260200190815260200160002090805190602001906140539291906182c5565b505b8180600101925050613f2c565b7f9e8a51bb6b34b9d5d18c14fd753ee3bf44e2256512665a4577281ffcc91943ff60055460405180826000191660001916815260200191505060405180910390a15050505050505050565b6000806011600033604051602001808273ffffffffffffffffffffffffffffffffffffffff1673ffffffffffffffffffffffffffffffffffffffff166c010000000000000000000000000281526014019150506040516020818303038152906040526040518082805190602001908083835b602083101515614144578051825260208201915060208101905060208303925061411f565b6001836020036101000a03801982511681845116808217855250505050505090500191505060405180910390206000191660001916815260200190815260200160002060030154111515614200576040517f08c379a000000000000000000000000000000000000000000000000000000000815260040180806020018281038252601c8152602001807f436f6e74656e7420776173206e65766572207075726368617365642e0000000081525060200191505060405180910390fd5b6000600a6000858152602001908152602001600020600201541115156142b4576040517f08c379a00000000000000000000000000000000000000000000000000000000081526004018080602001828103825260218152602001807f4e6f7420612076616c696420726573616c6520636f6e66696775726174696f6e81526020017f2e0000000000000000000000000000000000000000000000000000000000000081525060400191505060405180910390fd5b33604051602001808273ffffffffffffffffffffffffffffffffffffffff1673ffffffffffffffffffffffffffffffffffffffff166c010000000000000000000000000281526014019150506040516020818303038152906040526040518082805190602001908083835b602083101515614344578051825260208201915060208101905060208303925061431f565b6001836020036101000a03801982511681845116808217855250505050505090500191505060405180910390209050601160008260001916600019168152602001908152602001600020600201600084815260200190815260200160002060030154601160008360001916600019168152602001908152602001600020600201600085815260200190815260200160002060020154830111151515614477576040517f08c379a00000000000000000000000000000000000000000000000000000000081526004018080602001828103825260298152602001807f43616e6e6f7420756e6c6f636b206d6f726520666f7220726573616c6520746881526020017f616e206f776e65642e000000000000000000000000000000000000000000000081525060400191505060405180910390fd5b816011600083600019166000191681526020019081526020016000206002016000858152602001908152602001600020600201600082825401925050819055506011600082600019166000191681526020019081526020016000206002016000848152602001908152602001600020600301546011600083600019166000191681526020019081526020016000206002016000858152602001908152602001600020600201541115151561452757fe5b7fe78857a26a7fe475546465ff27735fabea42cc1dc6fb9284b146bd4d01f92444600554336011600085600019166000191681526020019081526020016000206002016000878152602001908152602001600020600201546040518084600019166000191681526020018373ffffffffffffffffffffffffffffffffffffffff1673ffffffffffffffffffffffffffffffffffffffff168152602001828152602001935050505060405180910390a1505050565b6002809054906101000a900473ffffffffffffffffffffffffffffffffffffffff168073ffffffffffffffffffffffffffffffffffffffff163373ffffffffffffffffffffffffffffffffffffffff161415156146a0576040517f08c379a00000000000000000000000000000000000000000000000000000000081526004018080602001828103825260168152602001807f53656e646572206e6f7420617574686f72697a65642e0000000000000000000081525060200191505060405180910390fd5b60008211151561473e576040517f08c379a000000000000000000000000000000000000000000000000000000000815260040180806020018281038252602c8152602001807f43616e6e6f742072656d6f7665206e6f6e2d706f736974697665206e756d626581526020017f72206f6620636f706965732e000000000000000000000000000000000000000081525060400191505060405180910390fd5b6000600b541115156147b8576040517f08c379a000000000000000000000000000000000000000000000000000000000815260040180806020018281038252601d8152602001807f43616e6e6f742072656d6f766520616e796d6f726520636f706965732e00000081525060200191505060405180910390fd5b600082600b54031015151561485b576040517f08c379a00000000000000000000000000000000000000000000000000000000081526004018080602001828103825260308152602001807f547279696e6720746f2072656d6f7665206d6f726520636f706965732074686181526020017f6e20616c72656164792065786973742e0000000000000000000000000000000081525060400191505060405180910390fd5b81600b60008282540392505081905550600b546000141515614893576000600c60006101000a81548160ff0219169083151502179055505b7f4cd13ad3b8764e3d004158a4e45194b959aa94b93f573e223dc14bff31272d4c60055483600b54604051808460001916600019168152602001838152602001828152602001935050505060405180910390a17f0dffee683881a39928b28151ccdb36b1b55ceeb6fc19567a64fa8f8f483b714d600554600b546040518083600019166000191681526020018281526020019250505060405180910390a15050565b60016020528060005260406000206000915054906101000a900460ff1681565b6002809054906101000a900473ffffffffffffffffffffffffffffffffffffffff168073ffffffffffffffffffffffffffffffffffffffff163373ffffffffffffffffffffffffffffffffffffffff16141515614a1a576040517f08c379a00000000000000000000000000000000000000000000000000000000081526004018080602001828103825260168152602001807f53656e646572206e6f7420617574686f72697a65642e0000000000000000000081525060200191505060405180910390fd5b6000600660006101000a81548160ff0219169083151502179055507f2e6ec049d62c8a42e7cc223354aadb68d5046a2cba67ed55a089fdb852fb6cb660055460405180826000191660001916815260200191505060405180910390a150565b600a6020528060005260406000206000915090508060000160009054906101000a900460ff16908060010154908060020154905083565b600080600080600080600080614ac4618345565b600660009054906101000a900460ff161515614b6e576040517f08c379a00000000000000000000000000000000000000000000000000000000081526004018080602001828103825260218152602001807f41465320686173206e6f74206265656e206c697374656420666f722073616c6581526020017f2e0000000000000000000000000000000000000000000000000000000000000081525060400191505060405180910390fd5b6000600b54141580614b8c5750600c60009054906101000a900460ff165b1515614c26576040517f08c379a00000000000000000000000000000000000000000000000000000000081526004018080602001828103825260268152602001807f4e6f206d6f726520636f7069657320617661696c61626c6520666f722070757281526020017f63686173652e000000000000000000000000000000000000000000000000000081525060400191505060405180910390fd5b60008c111515614c9e576040517f08c379a000000000000000000000000000000000000000000000000000000000815260040180806020018281038252601e8152602001807f4d757374207075726368617365206174206c65617374203120636f70792e000081525060200191505060405180910390fd5b8b600b54101580614cbb5750600c60009054906101000a900460ff165b1515614d55576040517f08c379a000000000000000000000000000000000000000000000000000000000815260040180806020018281038252602f8152602001807f43616e6e6f74207075726368617365206d6f726520636f70696573207468616e81526020017f2061726520617661696c61626c652e000000000000000000000000000000000081525060400191505060405180910390fd5b600360009054906101000a900473ffffffffffffffffffffffffffffffffffffffff1673ffffffffffffffffffffffffffffffffffffffff1663dd62ed3e33306040518363ffffffff167c0100000000000000000000000000000000000000000000000000000000028152600401808373ffffffffffffffffffffffffffffffffffffffff1673ffffffffffffffffffffffffffffffffffffffff1681526020018273ffffffffffffffffffffffffffffffffffffffff1673ffffffffffffffffffffffffffffffffffffffff16815260200192505050602060405180830381600087803b158015614e4657600080fd5b505af1158015614e5a573d6000803e3d6000fd5b505050506040513d6020811015614e7057600080fd5b8101908080519060200190929190505050985033604051602001808273ffffffffffffffffffffffffffffffffffffffff1673ffffffffffffffffffffffffffffffffffffffff166c010000000000000000000000000281526014019150506040516020818303038152906040526040518082805190602001908083835b602083101515614f135780518252602082019150602081019050602083039250614eee565b6001836020036101000a03801982511681845116808217855250505050505090500191505060405180910390209750614f4b8c616917565b8c0296508987018910151515614fef576040517f08c379a00000000000000000000000000000000000000000000000000000000081526004018080602001828103825260248152602001807f50726f7879206d75737420626520617070726f76656420666f7220707572636881526020017f6173652e0000000000000000000000000000000000000000000000000000000081525060400191505060405180910390fd5b600060136001018054905014156151ce57600360009054906101000a900473ffffffffffffffffffffffffffffffffffffffff1673ffffffffffffffffffffffffffffffffffffffff166323b872dd336002809054906101000a900473ffffffffffffffffffffffffffffffffffffffff168a6040518463ffffffff167c0100000000000000000000000000000000000000000000000000000000028152600401808473ffffffffffffffffffffffffffffffffffffffff1673ffffffffffffffffffffffffffffffffffffffff1681526020018373ffffffffffffffffffffffffffffffffffffffff1673ffffffffffffffffffffffffffffffffffffffff1681526020018281526020019350505050602060405180830381600087803b15801561511a57600080fd5b505af115801561512e573d6000803e3d6000fd5b505050506040513d602081101561514457600080fd5b810190808051906020019092919050505015156151c9576040517f08c379a00000000000000000000000000000000000000000000000000000000081526004018080602001828103825260148152602001807f417261207472616e73666572206661696c65642e00000000000000000000000081525060200191505060405180910390fd5b6153e2565b600093505b6013600101805490508410156152d0576013600101848154811015156151f557fe5b90600052602060002001549750601360000160008960001916600019168152602001908152602001600020549250858390806001815401808255809150509060018203906000526020600020016000909192909190915055508261271081151561525b57fe5b068361271081151561526957fe5b0401870291508482908060018154018082558091505090600182039060005260206000200160009091929091909150555081601060008a600019166000191681526020019081526020016000206000828254019250508190555083806001019450506151d3565b7f8960742ff4b50f409d4cb70df43e24adcf4867f6faa138a995a8f05ea6bac61d601360010187898860405180806020018060200185815260200180602001848103845288818154815260200191508054801561535057602002820191906000526020600020905b81546000191681526020019060010190808311615338575b5050848103835287818154815260200191508054801561538f57602002820191906000526020600020905b81548152602001906001019080831161537b575b505084810382528581815481526020019150805480156153ce57602002820191906000526020600020905b8154815260200190600101908083116153ba575b505097505050505050505060405180910390a15b600260019054906101000a900460ff16156155f9576011600089600019166000191681526020019081526020016000206002016000600954815260200190815260200160002060000160009054906101000a900460ff1615615485578b601160008a6000191660001916815260200190815260200160002060020160006009548152602001908152602001600020600301600082825401925050819055506155f4565b600a60006009548152602001908152602001600020600101548160200181815250508b816060018181525050600181600001901515908115158152505060116000896000191660001916815260200190815260200160002060000180549050601160008a600019166000191681526020019081526020016000206001016000600954815260200190815260200160002081905550601160008960001916600019168152602001908152602001600020600001600954908060018154018082558091505090600182039060005260206000200160009091929091909150555080601160008a600019166000191681526020019081526020016000206002016000600954815260200190815260200160002060008201518160000160006101000a81548160ff02191690831515021790555060208201518160010155604082015181600201556060820151816003015560808201518160040190805190602001906155ef929190618377565b509050505b615626565b8b601160008a60001916600019168152602001908152602001600020600301600082825401925050819055505b6000600b541115615656578b600b600082825403925050819055506000600b54141561565557615654614955565b5b5b600460009054906101000a900473ffffffffffffffffffffffffffffffffffffffff1673ffffffffffffffffffffffffffffffffffffffff1663a513cc9c8e6005546040518363ffffffff167c0100000000000000000000000000000000000000000000000000000000028152600401808360001916600019168152602001826000191660001916815260200192505050602060405180830381600087803b15801561570157600080fd5b505af1158015615715573d6000803e3d6000fd5b505050506040513d602081101561572b57600080fd5b8101908080519060200190929190505050151561580657600460009054906101000a900473ffffffffffffffffffffffffffffffffffffffff1673ffffffffffffffffffffffffffffffffffffffff16630c2bb9658e6005546040518363ffffffff167c0100000000000000000000000000000000000000000000000000000000028152600401808360001916600019168152602001826000191660001916815260200192505050600060405180830381600087803b1580156157ed57600080fd5b505af1158015615801573d6000803e3d6000fd5b505050505b7f39b7e4b91ba6a37d797cacb37026d4073c1bc810ca358219c6ff505dc18cad358d6005548e8a60095460405180866000191660001916815260200185600019166000191681526020018481526020018381526020018281526020019550505050505060405180910390a16000600102600019168b600019161415801561588d575060008a115b1561589d5761589c8b8b616df3565b5b50505050505050505050505050565b6002809054906101000a900473ffffffffffffffffffffffffffffffffffffffff168073ffffffffffffffffffffffffffffffffffffffff163373ffffffffffffffffffffffffffffffffffffffff16141515615971576040517f08c379a00000000000000000000000000000000000000000000000000000000081526004018080602001828103825260168152602001807f53656e646572206e6f7420617574686f72697a65642e0000000000000000000081525060200191505060405180910390fd5b6000821115156159e9576040517f08c379a00000000000000000000000000000000000000000000000000000000081526004018080602001828103825260208152602001807f5175616e74697479206d7573742062652067726561746572207468616e20302e81525060200191505060405180910390fd5b81600b60008282540192505081905550600b546000141515615a21576000600c60006101000a81548160ff0219169083151502179055505b7f01f766e4bea8b3ee08c4feeab8b2e146c8e45895c093fd9bd54b3690d449e68060055483600b54604051808460001916600019168152602001838152602001828152602001935050505060405180910390a17f0dffee683881a39928b28151ccdb36b1b55ceeb6fc19567a64fa8f8f483b714d600554600b546040518083600019166000191681526020018281526020019250505060405180910390a15050565b6060600660009054906101000a900460ff161515615af35760206040519081016040528060008152509050615bb9565b601260008460ff1660ff16815260200190815260200160002060008381526020019081526020016000208054600181600116156101000203166002900480601f016020809104026020016040519081016040528092919081815260200182805460018160011615610100020316600290048015615bb15780601f10615b8657610100808354040283529160200191615bb1565b820191906000526020600020905b815481529060010190602001808311615b9457829003601f168201915b505050505090505b92915050565b600c60009054906101000a900460ff1681565b6000806011600033604051602001808273ffffffffffffffffffffffffffffffffffffffff1673ffffffffffffffffffffffffffffffffffffffff166c010000000000000000000000000281526014019150506040516020818303038152906040526040518082805190602001908083835b602083101515615c695780518252602082019150602081019050602083039250615c44565b6001836020036101000a03801982511681845116808217855250505050505090500191505060405180910390206000191660001916815260200190815260200160002060030154111515615d25576040517f08c379a000000000000000000000000000000000000000000000000000000000815260040180806020018281038252601c8152602001807f436f6e74656e7420776173206e65766572207075726368617365642e0000000081525060200191505060405180910390fd5b6000600a600085815260200190815260200160002060020154111515615dd9576040517f08c379a00000000000000000000000000000000000000000000000000000000081526004018080602001828103825260218152602001807f4e6f7420612076616c696420726573616c6520636f6e66696775726174696f6e81526020017f2e0000000000000000000000000000000000000000000000000000000000000081525060400191505060405180910390fd5b33604051602001808273ffffffffffffffffffffffffffffffffffffffff1673ffffffffffffffffffffffffffffffffffffffff166c010000000000000000000000000281526014019150506040516020818303038152906040526040518082805190602001908083835b602083101515615e695780518252602082019150602081019050602083039250615e44565b6001836020036101000a038019825116818451168082178552505050505050905001915050604051809103902090508160116000836000191660001916815260200190815260200160002060020160008581526020019081526020016000206002015410151515615f68576040517f08c379a000000000000000000000000000000000000000000000000000000000815260040180806020018281038252602e8152602001807f43616e6e6f74206c6f636b206d6f7265207468616e20697320617661696c616281526020017f6c6520666f7220726573616c652e00000000000000000000000000000000000081525060400191505060405180910390fd5b816011600083600019166000191681526020019081526020016000206002016000858152602001908152602001600020600201600082825403925050819055506011600082600019166000191681526020019081526020016000206002016000848152602001908152602001600020600301546011600083600019166000191681526020019081526020016000206002016000858152602001908152602001600020600201541115151561601857fe5b7fce3027e9449a5a6879bfbf6898b09a15c2232476d45e2913421cd05d2b4eed13600554336011600085600019166000191681526020019081526020016000206002016000878152602001908152602001600020600201546040518084600019166000191681526020018373ffffffffffffffffffffffffffffffffffffffff1673ffffffffffffffffffffffffffffffffffffffff168152602001828152602001935050505060405180910390a1505050565b600080600080863373ffffffffffffffffffffffffffffffffffffffff16600f6000836000191660001916815260200190815260200160002060000160009054906101000a900473ffffffffffffffffffffffffffffffffffffffff1673ffffffffffffffffffffffffffffffffffffffff1614801561616a57506000600f6000836000191660001916815260200190815260200160002060010154115b15156161de576040517f08c379a000000000000000000000000000000000000000000000000000000000815260040180806020018281038252600f8152602001807f4a6f6220697320696e76616c69642e000000000000000000000000000000000081525060200191505060405180910390fd5b8551875114151561627d576040517f08c379a00000000000000000000000000000000000000000000000000000000081526004018080602001828103825260268152602001807f556e657175616c206e756d626572206f66206661726d65727320616e6420726581526020017f77617264732e000000000000000000000000000000000000000000000000000081525060400191505060405180910390fd5b600093505b85518460ff1610156162ba57858460ff1681518110151561629f57fe5b90602001906020020151850194508380600101945050616282565b600f60008960001916600019168152602001908152602001600020600101548511151515616350576040517f08c379a00000000000000000000000000000000000000000000000000000000081526004018080602001828103825260148152602001807f496e73756666696369656e74206275646765742e00000000000000000000000081525060200191505060405180910390fd5b600092505b86518360ff16101561644c57858360ff1681518110151561637257fe5b90602001906020020151600f60008a6000191660001916815260200190815260200160002060010154101515156163a557fe5b858360ff168151811015156163b657fe5b9060200190602002015160106000898660ff168151811015156163d557fe5b906020019060200201516000191660001916815260200190815260200160002081905550858360ff1681518110151561640a57fe5b90602001906020020151600f60008a60001916600019168152602001908152602001600020600101600082825403925050819055508280600101935050616355565b600f60008960001916600019168152602001908152602001600020600101549150600082111561657f57816010600033604051602001808273ffffffffffffffffffffffffffffffffffffffff1673ffffffffffffffffffffffffffffffffffffffff166c010000000000000000000000000281526014019150506040516020818303038152906040526040518082805190602001908083835b60208310151561650b57805182526020820191506020810190506020830392506164e6565b6001836020036101000a038019825116818451168082178552505050505050905001915050604051809103902060001916600019168152602001908152602001600020819055506000600f60008a600019166000191681526020019081526020016000206001018190555061657e612a1b565b5b7f2bd45e0776b585a6e4ce4cc376082ac45c657ad116f95f80480b6343678354e86005548684604051808460001916600019168152602001838152602001828152602001935050505060405180910390a15050505050505050565b600360009054906101000a900473ffffffffffffffffffffffffffffffffffffffff1681565b6002809054906101000a900473ffffffffffffffffffffffffffffffffffffffff168073ffffffffffffffffffffffffffffffffffffffff163373ffffffffffffffffffffffffffffffffffffffff161415156166c5576040517f08c379a00000000000000000000000000000000000000000000000000000000081526004018080602001828103825260168152602001807f53656e646572206e6f7420617574686f72697a65642e0000000000000000000081525060200191505060405180910390fd5b600a600084815260200190815260200160002060000160009054906101000a900460ff16151515616784576040517f08c379a000000000000000000000000000000000000000000000000000000000815260040180806020018281038252602c8152602001807f43616e6e6f74206d6f646966792061206c6f636b656420726573616c6520636f81526020017f6e66696775726174696f6e2e000000000000000000000000000000000000000081525060400191505060405180910390fd5b81600a6000858152602001908152602001600020600201819055507f9f274eefea84ac29e2f56b92eafc8045314ec62bf45e12c57b3f80017ea6245e600554836040518083600019166000191681526020018281526020019250505060405180910390a1505050565b600b5481565b6002809054906101000a900473ffffffffffffffffffffffffffffffffffffffff168073ffffffffffffffffffffffffffffffffffffffff163373ffffffffffffffffffffffffffffffffffffffff161415156168b8576040517f08c379a00000000000000000000000000000000000000000000000000000000081526004018080602001828103825260168152602001807f53656e646572206e6f7420617574686f72697a65642e0000000000000000000081525060200191505060405180910390fd5b6000600260016101000a81548160ff0219169083151502179055507ff293814c7c482e7a7e5481b80723176aea019590a1994ee0070b10836beeca8b60055460405180826000191660001916815260200191505060405180910390a150565b60008060008090505b6008805490508110156169d8578360088281548110151561693d57fe5b9060005260206000200154141561696957600760008581526020019081526020016000205492506169ef565b8360088281548110151561697957fe5b90600052602060002001541080156169a957508160088281548110151561699c57fe5b9060005260206000200154115b156169cb576008818154811015156169bd57fe5b906000526020600020015491505b8080600101915050616920565b600760008381526020019081526020016000205492505b5050919050565b6002809054906101000a900473ffffffffffffffffffffffffffffffffffffffff1681565b60076020528060005260406000206000915090505481565b6000616b0a82601260008760ff1660ff16815260200190815260200160002060008681526020019081526020016000208054600181600116156101000203166002900480601f016020809104026020016040519081016040528092919081815260200182805460018160011615610100020316600290048015616af75780601f10616acc57610100808354040283529160200191616af7565b820191906000526020600020905b815481529060010190602001808311616ada57829003601f168201915b505050505061823590919063ffffffff16565b90509392505050565b6000806002809054906101000a900473ffffffffffffffffffffffffffffffffffffffff168073ffffffffffffffffffffffffffffffffffffffff163373ffffffffffffffffffffffffffffffffffffffff16141515616bdb576040517f08c379a00000000000000000000000000000000000000000000000000000000081526004018080602001828103825260168152602001807f53656e646572206e6f7420617574686f72697a65642e0000000000000000000081525060200191505060405180910390fd5b600660009054906101000a900460ff1680616bf35750835b600660006101000a81548160ff021916908315150217905550898990508c8c905011616c225789899050616c27565b8b8b90505b9250600091505b82821015616da45760018c8c90500382111515616ce657616c96602860ff168302602860ff168a8a8080601f0160208091040260200160405190810160405280939291908181526020018383808284378201915050505050506181a89092919063ffffffff16565b601260008060ff16815260200190815260200160002060008e8e868181101515616cbc57fe5b9050602002013581526020019081526020016000209080519060200190616ce49291906182c5565b505b60018a8a90500382111515616d9757616d46604060ff168302604060ff1688888080601f0160208091040260200160405190810160405280939291908181526020018383808284378201915050505050506181a89092919063ffffffff16565b60126000600160ff16815260200190815260200160002060008c8c868181101515616d6d57fe5b9050602002013581526020019081526020016000209080519060200190616d959291906182c5565b505b8180600101925050616c2e565b7f9e8a51bb6b34b9d5d18c14fd753ee3bf44e2256512665a4577281ffcc91943ff60055460405180826000191660001916815260200191505060405180910390a1505050505050505050505050565b6000806011600033604051602001808273ffffffffffffffffffffffffffffffffffffffff1673ffffffffffffffffffffffffffffffffffffffff166c010000000000000000000000000281526014019150506040516020818303038152906040526040518082805190602001908083835b602083101515616e8a5780518252602082019150602081019050602083039250616e65565b6001836020036101000a03801982511681845116808217855250505050505090500191505060405180910390206000191660001916815260200190815260200160002060030154111515616f46576040517f08c379a000000000000000000000000000000000000000000000000000000000815260040180806020018281038252601c8152602001807f436f6e74656e7420776173206e65766572207075726368617365642e0000000081525060200191505060405180910390fd5b600360009054906101000a900473ffffffffffffffffffffffffffffffffffffffff1673ffffffffffffffffffffffffffffffffffffffff1663dd62ed3e33306040518363ffffffff167c0100000000000000000000000000000000000000000000000000000000028152600401808373ffffffffffffffffffffffffffffffffffffffff1673ffffffffffffffffffffffffffffffffffffffff1681526020018273ffffffffffffffffffffffffffffffffffffffff1673ffffffffffffffffffffffffffffffffffffffff16815260200192505050602060405180830381600087803b15801561703757600080fd5b505af115801561704b573d6000803e3d6000fd5b505050506040513d602081101561706157600080fd5b810190808051906020019092919050505090506000600102600019168360001916141580156170905750600082115b801561709c5750818110155b80156171865750600073ffffffffffffffffffffffffffffffffffffffff16600f6000856000191660001916815260200190815260200160002060000160009054906101000a900473ffffffffffffffffffffffffffffffffffffffff1673ffffffffffffffffffffffffffffffffffffffff16148061718557503373ffffffffffffffffffffffffffffffffffffffff16600f6000856000191660001916815260200190815260200160002060000160009054906101000a900473ffffffffffffffffffffffffffffffffffffffff1673ffffffffffffffffffffffffffffffffffffffff16145b5b15156171fa576040517f08c379a00000000000000000000000000000000000000000000000000000000081526004018080602001828103825260178152602001807f4a6f62207375626d697373696f6e20696e76616c69642e00000000000000000081525060200191505060405180910390fd5b600360009054906101000a900473ffffffffffffffffffffffffffffffffffffffff1673ffffffffffffffffffffffffffffffffffffffff166323b872dd3330856040518463ffffffff167c0100000000000000000000000000000000000000000000000000000000028152600401808473ffffffffffffffffffffffffffffffffffffffff1673ffffffffffffffffffffffffffffffffffffffff1681526020018373ffffffffffffffffffffffffffffffffffffffff1673ffffffffffffffffffffffffffffffffffffffff1681526020018281526020019350505050602060405180830381600087803b1580156172f357600080fd5b505af1158015617307573d6000803e3d6000fd5b505050506040513d602081101561731d57600080fd5b8101908080519060200190929190505050156175375781600f600085600019166000191681526020019081526020016000206001016000828254019250508190555033600f6000856000191660001916815260200190815260200160002060000160006101000a81548173ffffffffffffffffffffffffffffffffffffffff021916908373ffffffffffffffffffffffffffffffffffffffff160217905550600360009054906101000a900473ffffffffffffffffffffffffffffffffffffffff1673ffffffffffffffffffffffffffffffffffffffff166370a08231306040518263ffffffff167c0100000000000000000000000000000000000000000000000000000000028152600401808273ffffffffffffffffffffffffffffffffffffffff1673ffffffffffffffffffffffffffffffffffffffff168152602001915050602060405180830381600087803b15801561747957600080fd5b505af115801561748d573d6000803e3d6000fd5b505050506040513d60208110156174a357600080fd5b8101908080519060200190929190505050600f6000856000191660001916815260200190815260200160002060010154111515156174dd57fe5b7f4521c984beed01d188bcc3bd297e6530cd217723b880fa43c70fbcbd664fb2ac60055484846040518084600019166000191681526020018360001916600019168152602001828152602001935050505060405180910390a15b505050565b6002809054906101000a900473ffffffffffffffffffffffffffffffffffffffff168073ffffffffffffffffffffffffffffffffffffffff163373ffffffffffffffffffffffffffffffffffffffff16141515617601576040517f08c379a00000000000000000000000000000000000000000000000000000000081526004018080602001828103825260168152602001807f53656e646572206e6f7420617574686f72697a65642e0000000000000000000081525060200191505060405180910390fd5b60006007600085815260200190815260200160002054141561764a5760088390806001815401808255809150509060018203906000526020600020016000909192909190915055505b8160076000858152602001908152602001600020819055507f2f0fe01aa6daff1c7bb411a324bdebe55dc2cd1e0ff2fc504b7569346e7d7d5a600554846007600087815260200190815260200160002054604051808460001916600019168152602001838152602001828152602001935050505060405180910390a1505050565b6000806011600033604051602001808273ffffffffffffffffffffffffffffffffffffffff1673ffffffffffffffffffffffffffffffffffffffff166c010000000000000000000000000281526014019150506040516020818303038152906040526040518082805190602001908083835b602083101515617762578051825260208201915060208101905060208303925061773d565b6001836020036101000a0380198251168184511680821785525050505050509050019150506040518091039020600019166000191681526020019081526020016000206003015411151561781e576040517f08c379a000000000000000000000000000000000000000000000000000000000815260040180806020018281038252601c8152602001807f436f6e74656e7420776173206e65766572207075726368617365642e0000000081525060200191505060405180910390fd5b6000600a6000858152602001908152602001600020600201541115156178d2576040517f08c379a00000000000000000000000000000000000000000000000000000000081526004018080602001828103825260218152602001807f4e6f7420612076616c696420726573616c6520636f6e66696775726174696f6e81526020017f2e0000000000000000000000000000000000000000000000000000000000000081525060400191505060405180910390fd5b33604051602001808273ffffffffffffffffffffffffffffffffffffffff1673ffffffffffffffffffffffffffffffffffffffff166c010000000000000000000000000281526014019150506040516020818303038152906040526040518082805190602001908083835b602083101515617962578051825260208201915060208101905060208303925061793d565b6001836020036101000a03801982511681845116808217855250505050505090500191505060405180910390209050600a6000848152602001908152602001600020600101548210151515617a45576040517f08c379a00000000000000000000000000000000000000000000000000000000081526004018080602001828103825260378152602001807f526573616c65207072696365206d757374206265206174206c6561737420746881526020017f65206d696e696d756d20726573616c652070726963652e00000000000000000081525060400191505060405180910390fd5b816011600083600019166000191681526020019081526020016000206002016000858152602001908152602001600020600101819055507f0e2912681a5905a8c6a4452da27fc30eb533a3aba5b44cf5a404baeadcdb134760055433846040518084600019166000191681526020018373ffffffffffffffffffffffffffffffffffffffff1673ffffffffffffffffffffffffffffffffffffffff168152602001828152602001935050505060405180910390a1505050565b6000336001600082604051602001808273ffffffffffffffffffffffffffffffffffffffff1673ffffffffffffffffffffffffffffffffffffffff166c010000000000000000000000000281526014019150506040516020818303038152906040526040518082805190602001908083835b602083101515617b955780518252602082019150602081019050602083039250617b70565b6001836020036101000a03801982511681845116808217855250505050505090500191505060405180910390206000191660001916815260200190815260200160002060009054906101000a900460ff161515617c5a576040517f08c379a00000000000000000000000000000000000000000000000000000000081526004018080602001828103825260208152602001807f4f776e6572207265717565737420686173206e6f74206265656e2073656e742e81525060200191505060405180910390fd5b33604051602001808273ffffffffffffffffffffffffffffffffffffffff1673ffffffffffffffffffffffffffffffffffffffff166c010000000000000000000000000281526014019150506040516020818303038152906040526040518082805190602001908083835b602083101515617cea5780518252602082019150602081019050602083039250617cc5565b6001836020036101000a03801982511681845116808217855250505050505090500191505060405180910390209150600060016000846000191660001916815260200190815260200160002060006101000a81548160ff0219169083151502179055503373ffffffffffffffffffffffffffffffffffffffff166000809054906101000a900473ffffffffffffffffffffffffffffffffffffffff1673ffffffffffffffffffffffffffffffffffffffff167f1dc90b1ce875ea53ce4f7fb2036478f4ddfef57ec243f3fb5a9d81faf7dac5f460405160405180910390a35050565b617dd4618345565b6000806000600a60008881526020019081526020016000206001015484602001818152505085846060018181525050600184600001901515908115158152505060116000896000191660001916815260200190815260200160002092506011600089600019166000191681526020019081526020016000206000018054905083600101600089815260200190815260200160002081905550826000018790806001815401808255809150509060018203906000526020600020016000909192909190915055508383600201600089815260200190815260200160002060008201518160000160006101000a81548160ff0219169083151502179055506020820151816001015560408201518160020155606082015181600301556080820151816004019080519060200190617f0a929190618377565b50905050600090505b85811015617fb05784600301548101915082600201600088815260200190815260200160002060040160018660040184815481101515617f4f57fe5b90600052602060002001540190806001815401808255809150509060018203906000526020600020016000909192909190915055508460040182815481101515617f9557fe5b90600052602060002001600090558080600101915050617f13565b5050505050505050565b6000806011600084600019166000191681526020019081526020016000209150816002016000858152602001908152602001600020600080820160006101000a81549060ff021916905560018201600090556002820160009055600382016000905560048201600061802c91906183c4565b50508160010160008581526020019081526020016000205490508160010160008581526020019081526020016000206000905581600001600183600001805490500381548110151561807a57fe5b9060005260206000200154826000018281548110151561809657fe5b90600052602060002001819055508160000160018360000180549050038154811015156180bf57fe5b90600052602060002001600090556000826000018054905014156181a157600460009054906101000a900473ffffffffffffffffffffffffffffffffffffffff1673ffffffffffffffffffffffffffffffffffffffff166387e52772866005546040518363ffffffff167c0100000000000000000000000000000000000000000000000000000000028152600401808360001916600019168152602001826000191660001916815260200192505050600060405180830381600087803b15801561818857600080fd5b505af115801561819c573d6000803e3d6000fd5b505050505b5050505050565b6060808284018551101515156181bd57600080fd5b8215600081146181d857604051915060208201604052618229565b6040519150601f8416801560200281840101858101878315602002848b0101015b8183101561821657805183526020830192506020810190506181f9565b50868552601f19601f8301166040525050505b50809150509392505050565b60008060019050835183518114600181146182535760009250618298565b600160208701838101602088015b60028483851001141561829357805183511415156182825760009650600093505b602083019250602081019050618261565b505050505b50508091505092915050565b50805460008255906000526020600020908101906182c291906183e5565b50565b828054600181600116156101000203166002900490600052602060002090601f016020900481019282601f1061830657805160ff1916838001178555618334565b82800160010185558215618334579182015b82811115618333578251825591602001919060010190618318565b5b509050618341919061840a565b5090565b60a060405190810160405280600015158152602001600081526020016000815260200160008152602001606081525090565b8280548282559060005260206000209081019282156183b3579160200282015b828111156183b2578251825591602001919060010190618397565b5b5090506183c0919061840a565b5090565b50805460008255906000526020600020908101906183e2919061840a565b50565b61840791905b808211156184035760008160009055506001016183eb565b5090565b90565b61842c91905b80821115618428576000816000905550600101618410565b5090565b905600a165627a7a723058201d5d71e9010e64346910622e6e5dfe39337dbf2acf815a81e58eee01c532e0d40029",
  "source": "pragma solidity ^0.4.24;\n\nimport \"./Ownable.sol\";\nimport \"./Library.sol\";\nimport \"./AraToken.sol\";\nimport \"bytes/BytesLib.sol\";\n\ncontract AFS is Ownable {\n  using BytesLib for bytes;\n\n  uint8 constant mtBufferSize_ = 40;\n  uint8 constant msBufferSize_ = 64;\n\n  bool      private once_;\n  bool      public resellable_;\n\n  address   public owner_;\n\n  AraToken  public token_;\n  Library   public lib_;\n\n  bytes32   public did_;\n  bool      public listed_;\n  mapping(uint256 => uint256) public prices_; // quantity (lower bound) => price\n  uint256[] public priceTiers_; // quantity tiers\n\n  uint256   public currGlobalConfigID_;\n  mapping(uint256 => GlobalResaleConfig)       public globalConfigs_; // configID => GlobalResaleConfig\n\n  uint256   public totalCopies_; // scarcity quantity\n  bool      public unlimited_ = false;\n\n  uint256   public minResalePrice_;\n  uint256   public maxNumResales_; // < maxNumResales_ can be resold\n\n  mapping(bytes32 => Job)                      public jobs_; // jobId => job { budget, sender }\n  mapping(bytes32 => uint256)                  public rewards_;    // farmer => rewards\n  mapping(bytes32 => Purchases)                public purchases_; // keccak256 hashes of buyer addresses\n  mapping(uint8 => mapping (uint256 => bytes)) public metadata_;\n\n  Royalties public royalties_;\n\n  struct Job {\n    address sender;\n    uint256 budget;\n  }\n\n  struct GlobalResaleConfig {\n    bool locked;\n\n    uint256  minResalePrice;\n    uint256  maxNumResales;\n  }\n\n  struct ResaleConfig {\n    bool enabled;\n\n    // reseller set config\n    uint256 resalePrice;\n    uint256 available;\n    uint256 quantity;\n    uint256[] resales; // total quantity owned => number of previous resales -- 0 indexed\n  }\n\n  struct Purchases {\n    uint256[] configIDs;\n    mapping(uint256 => uint256) configIDIndices; // configID => configIDs index\n    mapping(uint256 => ResaleConfig) configs; // configID => ResaleConfig\n\n    uint256 quantity; // of non-resellable purchases independent of configs\n  }\n\n  struct Royalties {\n    mapping(bytes32 => uint256) split;\n    bytes32[] hashedAddresses;\n    uint256 ownerProfit;\n  }\n\n  // constants\n  uint256 public constant royaltyMultiplier = 100 * 10 ** 2;\n\n  event Commit(bytes32 _did);\n  event Unlisted(bytes32 _did);\n  event Listed(bytes32 _did);\n  event MinResalePriceSet(bytes32 _did, uint256 _price);\n  event ResalePriceSet(bytes32 _did, address _purchaser, uint256 _price);\n  event MaxNumResalesSet(bytes32 _did, uint256 _quantity);\n  event PriceSet(bytes32 _did, uint256 _quantity, uint256 _price);\n  event BudgetSubmitted(bytes32 _did, bytes32 _jobId, uint256 _budget);\n  event RewardsAllocated(bytes32 _did, uint256 _allocated, uint256 _returned);\n  event Purchased(bytes32 _purchaser, bytes32 _did, uint256 _quantity, uint256 _price, uint256 _configID);\n  event PurchasedResale(bytes32 _purchaser, address _seller, bytes32 _did, uint256 _quantity, uint256 _price, uint256 _configID);\n  event Redeemed(address _sender);\n  event IncreasedSupply(bytes32 _did, uint256 _added, uint256 _total);\n  event DecreasedSupply(bytes32 _did, uint256 _removed, uint256 _total);\n  event SupplySet(bytes32 _did, uint256 _quantity);\n  event ResaleUnlocked(bytes32 _did, address _seller, uint256 _available);\n  event ResaleLocked(bytes32 _did, address _seller, uint256 _available);\n  event MarkedForResale(bytes32 _did);\n  event MarkedNotForResale(bytes32 _did);\n  event ResaleUnlocked(bytes32 _did);\n  event ResaleLocked(bytes32 _did);\n  event RoyaltiesPaidOut(bytes32[] _hashedAddresses, uint256[] _amounts, uint256 _price, uint256[] _profits);\n\n  modifier onlyBy(address _account)\n  {\n    require(\n      msg.sender == _account,\n      \"Sender not authorized.\"\n    );\n    _;\n  }\n\n  modifier purchaseRequired()\n  {\n    require(\n      purchases_[keccak256(abi.encodePacked(msg.sender))].quantity > 0,\n      \"Content was never purchased.\"\n    );\n    _;\n  }\n\n  modifier budgetSubmitted(bytes32 _jobId)\n  {\n    require(\n      jobs_[_jobId].sender == msg.sender && jobs_[_jobId].budget > 0,\n      \"Job is invalid.\"\n    );\n    _;\n  }\n\n  modifier onlyOnce()\n  {\n    require(!once_, \"Init function can only be called once.\");\n    _;\n  }\n\n  function init(bytes _data) public onlyOnce {\n    once_ = true;\n    uint256 btsptr;\n    address ownerAddr;\n    address tokenAddr;\n    address libAddr;\n    bytes32 did;\n    uint256 totalCopies;\n    /* solium-disable-next-line security/no-inline-assembly */\n    assembly {\n        btsptr := add(_data, 32)\n        ownerAddr := mload(btsptr)\n        btsptr := add(_data, 64)\n        tokenAddr := mload(btsptr)\n        btsptr := add(_data, 96)\n        libAddr := mload(btsptr)\n        btsptr := add(_data, 128)\n        did := mload(btsptr)\n        btsptr := add(_data, 160)\n        totalCopies := mload(btsptr)\n    }\n    owner_       = ownerAddr;\n    token_       = AraToken(tokenAddr);\n    lib_         = Library(libAddr);\n    did_         = did;\n    totalCopies_ = totalCopies;\n    if (0 == totalCopies_) {\n      unlimited_ = true;\n    }\n  }\n\n/**\n * CREATOR COMMERCE\n * ===============================================================================================\n */\n\n  function list() public onlyBy(owner_) {\n    listed_ = true;\n    emit Listed(did_);\n  }\n\n  function unlist() public onlyBy(owner_) {\n    listed_ = false;\n    emit Unlisted(did_);\n  }\n\n  function unlockResale(uint256 _globalConfigID) public onlyBy(owner_) {\n    require(globalConfigs_[_globalConfigID].maxNumResales > 0, \"Cannot unlock for resale because resale configuration has not been setup.\");\n    resellable_ = true;\n    currGlobalConfigID_ = _globalConfigID;\n    globalConfigs_[_globalConfigID].locked = true;\n    emit ResaleUnlocked(did_);\n  }\n\n  function lockResale() public onlyBy(owner_) {\n    resellable_ = false;\n    emit ResaleLocked(did_);\n  }\n\n  function setPrice(uint256 _quantity, uint256 _price) external onlyBy(owner_) {\n    if (prices_[_quantity] == 0) {\n      priceTiers_.push(_quantity);\n    }\n    prices_[_quantity] = _price;\n    emit PriceSet(did_, _quantity, prices_[_quantity]);\n  }\n\n  function getPrice(uint256 _quantity) public view returns (uint256) {\n    uint256 tier;\n    for (uint256 i = 0; i < priceTiers_.length; i++) {\n      if (priceTiers_[i] == _quantity) {\n        return prices_[_quantity];\n      } else if (priceTiers_[i] < _quantity && priceTiers_[i] > tier) {\n        tier = priceTiers_[i];\n      }\n    }\n    return prices_[tier];\n  }\n\n  function removePriceTier(uint256 _quantity) external onlyBy(owner_) {\n    delete prices_[_quantity];\n    for (uint256 i = 0; i < priceTiers_.length; i++) {\n      if (priceTiers_[i] == _quantity) {\n        delete priceTiers_[i]; // delete price tier\n        priceTiers_[i] = priceTiers_[priceTiers_.length - 1]; // move last price tier into deleted tier position\n        delete priceTiers_[priceTiers_.length - 1]; // delete last price tier\n      }\n    }\n  }\n\n  function setMinResalePrice(uint256 _configID, uint256 _price) external onlyBy(owner_) {\n    require(!globalConfigs_[_configID].locked, \"Cannot modify a locked resale configuration.\");\n    globalConfigs_[_configID].minResalePrice = _price;\n    emit MinResalePriceSet(did_, _price);\n  }\n\n  function setResaleQuantity(uint256 _configID, uint256 _quantity) external onlyBy(owner_) {\n    require(!globalConfigs_[_configID].locked, \"Cannot modify a locked resale configuration.\");\n    globalConfigs_[_configID].maxNumResales = _quantity;\n    emit MaxNumResalesSet(did_, _quantity);\n  }\n\n  function setSupply(uint256 _quantity) public onlyBy(owner_) {\n    require(_quantity > 0, \"Quantity must be greater than 0.\");\n\n    totalCopies_ = _quantity;\n    if (0 != totalCopies_) {\n      unlimited_ = false;\n    }\n\n    emit SupplySet(did_, totalCopies_);\n  }\n\n  function increaseSupply(uint256 _quantity) public onlyBy(owner_) {\n    require(_quantity > 0, \"Quantity must be greater than 0.\");\n\n    totalCopies_ += _quantity;\n    if (0 != totalCopies_) {\n      unlimited_ = false;\n    }\n\n    emit IncreasedSupply(did_, _quantity, totalCopies_);\n    emit SupplySet(did_, totalCopies_);\n  }\n\n  function decreaseSupply(uint256 _quantity) public onlyBy(owner_) {\n    require(_quantity > 0, \"Cannot remove non-positive number of copies.\");\n    require(totalCopies_ > 0, \"Cannot remove anymore copies.\");\n    require(totalCopies_ - _quantity >= 0, \"Trying to remove more copies than already exist.\");\n\n    totalCopies_ -= _quantity;\n    if (0 != totalCopies_) {\n      unlimited_ = false;\n    }\n\n    emit DecreasedSupply(did_, _quantity, totalCopies_);\n    emit SupplySet(did_, totalCopies_);\n  }\n\n  function setUnlimitedSupply() public onlyBy(owner_) {\n    totalCopies_ = 0;\n    unlimited_ = true;\n    emit SupplySet(did_, totalCopies_);\n  }\n\n  function setRoyalties(bytes32[] _hashedAddresses, uint256[] _amounts) public onlyBy(owner_) {\n    require(priceTiers_.length > 0, \"Price must be set prior to setting royalties.\");\n\n    if(royalties_.hashedAddresses.length > 0) {\n      for(uint256 i = 0; i < royalties_.hashedAddresses.length; i++) {\n        royalties_.split[royalties_.hashedAddresses[i]] = 0;\n      }\n      delete royalties_.hashedAddresses;\n    }\n\n    uint256 profit = 0;\n    for(uint256 j = 0; j < _hashedAddresses.length; j++) {\n      royalties_.split[_hashedAddresses[j]] = _amounts[j];\n      royalties_.hashedAddresses.push(_hashedAddresses[j]);\n      profit += _amounts[j];\n    }\n\n    require(profit <= royaltyMultiplier, \"Royalty splits cannot exceed 100%.\");\n    royalties_.ownerProfit = royaltyMultiplier - profit;\n  }\n\n  function getRoyalties() public view returns (bytes32[], uint256[], uint256) {\n    if(royalties_.hashedAddresses.length == 0) {\n      return (new bytes32[](0), new uint256[](0), 0);\n    } else {\n      bytes32[] memory addrs = new bytes32[](royalties_.hashedAddresses.length);\n      uint256[] memory amounts = new uint256[](royalties_.hashedAddresses.length);\n      for (uint256 i = 0; i < royalties_.hashedAddresses.length; i++) {\n        addrs[i] = royalties_.hashedAddresses[i];\n        amounts[i] = royalties_.split[royalties_.hashedAddresses[i]];\n      }\n      return (addrs, amounts, royalties_.ownerProfit);\n    }\n  }\n\n/**\n * RESELLER COMMERCE\n * ===============================================================================================\n */\n\n  function unlockResaleQuantity(uint256 _configID, uint256 _quantity) public purchaseRequired {\n    require(globalConfigs_[_configID].maxNumResales > 0, \"Not a valid resale configuration.\");\n    bytes32 hashedAddress = keccak256(abi.encodePacked(msg.sender));\n    require(_quantity + purchases_[hashedAddress].configs[_configID].available <= purchases_[hashedAddress].configs[_configID].quantity, \"Cannot unlock more for resale than owned.\");\n    purchases_[hashedAddress].configs[_configID].available += _quantity;\n    assert(purchases_[hashedAddress].configs[_configID].available <= purchases_[hashedAddress].configs[_configID].quantity);\n    emit ResaleUnlocked(did_, msg.sender, purchases_[hashedAddress].configs[_configID].available);\n  }\n\n  function lockResaleQuantity(uint256 _configID, uint256 _quantity) public purchaseRequired {\n    require(globalConfigs_[_configID].maxNumResales > 0, \"Not a valid resale configuration.\");\n    bytes32 hashedAddress = keccak256(abi.encodePacked(msg.sender));\n    require(purchases_[hashedAddress].configs[_configID].available >= _quantity, \"Cannot lock more than is available for resale.\");\n    purchases_[hashedAddress].configs[_configID].available -= _quantity;\n    assert(purchases_[hashedAddress].configs[_configID].available <= purchases_[hashedAddress].configs[_configID].quantity);\n    emit ResaleLocked(did_, msg.sender, purchases_[hashedAddress].configs[_configID].available);\n  }\n\n  function setResalePrice(uint256 _configID, uint256 _price) external purchaseRequired {\n    require(globalConfigs_[_configID].maxNumResales > 0, \"Not a valid resale configuration.\");\n    bytes32 hashedAddress = keccak256(abi.encodePacked(msg.sender));\n    require(_price >= globalConfigs_[_configID].minResalePrice, \"Resale price must be at least the minimum resale price.\");\n    purchases_[hashedAddress].configs[_configID].resalePrice = _price;\n    emit ResalePriceSet(did_, msg.sender, _price);\n  }\n\n/**\n * PURCHASE\n * ===============================================================================================\n */\n\n  /**\n   * @dev Purchases this AFS and adds it to _purchaser's library. \n   *      If _download is true, deposits any remaining allowance \n   *      as rewards for this purchase\n   * @param _purchaser The hashed methodless did of the purchaser\n   * @param _jobId The jobId of the download, or 0x00000000000000000000000000000000 if N/A\n   * @param _budget The reward budget for jobId, or 0 if N/A\n   */\n  function purchase(bytes32 _purchaser, uint256 _quantity, bytes32 _jobId, uint256 _budget) external {\n    require(listed_, \"AFS has not been listed for sale.\");\n    require(totalCopies_ != 0 || unlimited_, \"No more copies available for purchase.\");\n    require(_quantity > 0, \"Must purchase at least 1 copy.\");\n    require(totalCopies_ >= _quantity || unlimited_, \"Cannot purchase more copies than are available.\");\n\n    uint256 allowance = token_.allowance(msg.sender, address(this));\n    bytes32 hashedAddress = keccak256(abi.encodePacked(msg.sender));\n    uint256 totalPrice = _quantity * getPrice(_quantity);\n    require(allowance >= (totalPrice) + _budget, \"Proxy must be approved for purchase.\");\n\n    if(royalties_.hashedAddresses.length == 0) {\n      require(token_.transferFrom(msg.sender, owner_, totalPrice), \"Ara transfer failed.\");\n    } else {  \n      // TODO temporary\n      uint256[] amounts;\n      uint256[] profits;\n\n      // amounts becomes any integer less than 10,000 where 10,000 = 100%\n      for(uint256 i = 0; i < royalties_.hashedAddresses.length; i++) {\n        hashedAddress = royalties_.hashedAddresses[i];\n        uint256 amount = royalties_.split[hashedAddress];\n        amounts.push(amount);\n        uint256 profit = totalPrice * ((royaltyMultiplier / amount) + (royaltyMultiplier % amount));\n        profits.push(profit);\n        rewards_[hashedAddress] += profit;\n      }\n      emit RoyaltiesPaidOut(royalties_.hashedAddresses, amounts, totalPrice, profits);\n      // TODO pay out owner\n    }\n\n    if (resellable_) {\n      if (purchases_[hashedAddress].configs[currGlobalConfigID_].enabled) {\n        purchases_[hashedAddress].configs[currGlobalConfigID_].quantity += _quantity;\n      } else {\n        ResaleConfig memory config;\n        config.resalePrice = globalConfigs_[currGlobalConfigID_].minResalePrice;\n        config.quantity = _quantity;\n        config.enabled = true;\n\n        purchases_[hashedAddress].configIDIndices[currGlobalConfigID_] = purchases_[hashedAddress].configIDs.length;\n        purchases_[hashedAddress].configIDs.push(currGlobalConfigID_);\n        purchases_[hashedAddress].configs[currGlobalConfigID_] = config;\n      }\n    } else {\n      purchases_[hashedAddress].quantity += _quantity;\n    }\n\n    if (totalCopies_ > 0) {\n      totalCopies_ -= _quantity;\n      if (totalCopies_ == 0) {\n        unlist();\n      }\n    }\n\n    if (!lib_.owns(_purchaser, did_)) {\n      lib_.addLibraryItem(_purchaser, did_);\n    }\n\n    emit Purchased(_purchaser, did_, _quantity, totalPrice, currGlobalConfigID_);\n\n    if (_jobId != bytes32(0) && _budget > 0) {\n      submitBudget(_jobId, _budget);\n    }\n  }\n\n  /**\n   * @param _seller seller's Ethereum address\n   * \n   */\n  function purchaseResale(address _seller, uint256 _configID, bytes32 _purchaser, uint256 _quantity, bytes32 _jobId, uint256 _budget) external {\n    require(_quantity > 0, \"Must purchase at least 1 copy.\");\n    bytes32 seller = keccak256(abi.encodePacked(_seller));\n    ResaleConfig storage sellerConfig = purchases_[seller].configs[_configID];\n\n    require(sellerConfig.enabled, \"Please provide a valid seller resale configuration.\");\n    require(sellerConfig.available >= _quantity, \"This quantity is not available for resale from this seller using this resale configuration.\");\n    require(sellerConfig.resales[_quantity - 1] < globalConfigs_[_configID].maxNumResales, \"Copy has already been sold the maximum number of times.\");\n\n    uint256 totalPrice = _quantity * sellerConfig.resalePrice;\n    require(token_.allowance(msg.sender, address(this)) >= totalPrice + _budget, \"Proxy must be approved for purchase.\");\n\n    // transfer minimum resale price to owner and transfer remainder to reseller\n    require(token_.transferFrom(msg.sender, _seller, _quantity * (sellerConfig.resalePrice - globalConfigs_[_configID].minResalePrice))\n      && token_.transferFrom(msg.sender, owner_, _quantity * globalConfigs_[_configID].minResalePrice), \"Ara transfer failed.\");\n    \n    // decrement seller resale availability/quantity\n    sellerConfig.quantity -= _quantity;\n    sellerConfig.available -= _quantity;\n\n    bytes32 purchaser = keccak256(abi.encodePacked(msg.sender));\n    Purchases storage purchaserPurchases = purchases_[purchaser];\n\n    if (purchaserPurchases.configs[_configID].enabled) {\n      purchaserPurchases.configs[_configID].quantity += _quantity;\n    } else {\n      _createConfig(purchaser, _configID, _quantity, sellerConfig);\n    }\n\n    if (!lib_.owns(_purchaser, did_)) {\n      lib_.addLibraryItem(_purchaser, did_);\n    }\n\n    emit PurchasedResale(_purchaser, _seller, did_, _quantity, totalPrice, _configID);\n\n    if (sellerConfig.quantity == 0) {\n      _deleteConfig(seller, _configID, seller);\n    }\n\n    if (_jobId != bytes32(0) && _budget > 0) {\n      submitBudget(_jobId, _budget);\n    }\n  }\n\n  function _createConfig(bytes32 _owner, uint256 _id, uint256 _quantity, ResaleConfig storage oldConfig) internal {\n    ResaleConfig memory newConfig;\n\n    newConfig.resalePrice = globalConfigs_[_id].minResalePrice;\n    newConfig.quantity = _quantity;\n    newConfig.enabled = true;\n\n    Purchases storage purchases = purchases_[_owner];\n\n    purchases.configIDIndices[_id] = purchases_[_owner].configIDs.length;\n    purchases.configIDs.push(_id);\n    purchases.configs[_id] = newConfig;\n\n    uint256 soldCopyIndex;\n    for (uint256 i = 0; i < _quantity; i++) {\n      soldCopyIndex = i + oldConfig.quantity;\n      purchases.configs[_id].resales.push(oldConfig.resales[soldCopyIndex] + 1); // update resale count for purchaser with old resale count + 1\n      delete oldConfig.resales[soldCopyIndex]; // delete resale count for sold copies\n    }\n  }\n\n  function _deleteConfig(bytes32 seller, uint256 _id, bytes32 _seller) internal {\n    // delete config\n    Purchases storage sellerPurchases = purchases_[_seller];\n    delete sellerPurchases.configs[_id]; // delete config mapping\n    uint256 configIDIndex = sellerPurchases.configIDIndices[_id]; // get configID index\n    delete sellerPurchases.configIDIndices[_id]; // delete configID index mapping\n    sellerPurchases.configIDs[configIDIndex] = sellerPurchases.configIDs[sellerPurchases.configIDs.length - 1]; // move last configID into deleted configID position\n    delete sellerPurchases.configIDs[sellerPurchases.configIDs.length - 1]; // delete last configID\n\n    if (sellerPurchases.configIDs.length == 0) {\n      lib_.removeLibraryItem(seller, did_);\n    }\n  }\n\n  function getResaleConfig(bytes32 _owner, uint256 _id) public view returns (uint256 minResalePrice, uint256 maxNumResales, uint256 resalePrice, uint256 available, uint256 quantity) {\n    ResaleConfig storage config = purchases_[_owner].configs[_id];\n    return (globalConfigs_[_id].minResalePrice, globalConfigs_[_id].maxNumResales, config.resalePrice, config.available, config.quantity);\n  }\n\n/**\n * REWARDS\n * ===============================================================================================\n */\n\n  function submitBudget(bytes32 _jobId, uint256 _budget) public purchaseRequired {\n    uint256 allowance = token_.allowance(msg.sender, address(this));\n    require(_jobId != bytes32(0) && _budget > 0 && allowance >= _budget\n      && (jobs_[_jobId].sender == address(0) || jobs_[_jobId].sender == msg.sender), \"Job submission invalid.\");\n\n    if (token_.transferFrom(msg.sender, address(this), _budget)) {\n      jobs_[_jobId].budget += _budget;\n      jobs_[_jobId].sender = msg.sender;\n      assert(jobs_[_jobId].budget <= token_.balanceOf(address(this)));\n      emit BudgetSubmitted(did_, _jobId, _budget);\n    }\n  }\n\n  function getBudget(bytes32 _jobId) public view returns (uint256) {\n    return jobs_[_jobId].budget;\n  }\n\n  function allocateRewards(bytes32 _jobId, bytes32[] _farmers, uint256[] _rewards) public budgetSubmitted(_jobId) {\n    require(_farmers.length == _rewards.length, \"Unequal number of farmers and rewards.\");\n    uint256 totalRewards;\n    for (uint8 i = 0; i < _rewards.length; i++) {\n      totalRewards += _rewards[i];\n    }\n    require(totalRewards <= jobs_[_jobId].budget, \"Insufficient budget.\");\n    for (uint8 j = 0; j < _farmers.length; j++) {\n      assert(jobs_[_jobId].budget >= _rewards[j]);\n      rewards_[_farmers[j]] = _rewards[j];\n      jobs_[_jobId].budget -= _rewards[j];\n    }\n    uint256 remaining = jobs_[_jobId].budget;\n    if (remaining > 0) {\n      rewards_[keccak256(abi.encodePacked(msg.sender))] = remaining;\n      jobs_[_jobId].budget = 0;\n      redeemBalance();\n    }\n    emit RewardsAllocated(did_, totalRewards, remaining);\n  }\n\n  function redeemBalance() public {\n    bytes32 hashedAddress = keccak256(abi.encodePacked(msg.sender));\n    require(rewards_[hashedAddress] > 0, \"No balance to redeem.\");\n    if (token_.transfer(msg.sender, rewards_[hashedAddress])) {\n      rewards_[hashedAddress] = 0;\n      emit Redeemed(msg.sender);\n    }\n  }\n\n  function getRewardsBalance(address _farmer) public view returns (uint256) {\n    return rewards_[keccak256(abi.encodePacked(_farmer))];\n  }\n\n/**\n * STORAGE\n * ===============================================================================================\n */\n\n  function append(uint256[] _mtOffsets, uint256[] _msOffsets, bytes _mtBuffer, \n    bytes _msBuffer, bool _list) external onlyBy(owner_) {\n    \n    listed_ = listed_ || _list;\n\n    uint256 maxOffsetLength = _mtOffsets.length > _msOffsets.length \n      ? _mtOffsets.length \n      : _msOffsets.length;\n\n    for (uint i = 0; i < maxOffsetLength; i++) {\n      // metadata/tree\n      if (i <= _mtOffsets.length - 1) {\n        metadata_[0][_mtOffsets[i]] = _mtBuffer.slice(i * mtBufferSize_, mtBufferSize_);\n      }\n\n      // metadata/signatures\n      if (i <= _msOffsets.length - 1) {\n        metadata_[1][_msOffsets[i]] = _msBuffer.slice(i * msBufferSize_, msBufferSize_);\n      }\n    }\n\n    emit Commit(did_);\n  }\n\n  function write(uint256[] _mtOffsets, uint256[] _msOffsets, bytes _mtBuffer, \n    bytes _msBuffer, bool _list) public onlyBy(owner_) {\n\n    listed_ = listed_ || _list;\n\n    uint256 maxOffsetLength = _mtOffsets.length > _msOffsets.length \n      ? _mtOffsets.length \n      : _msOffsets.length;\n\n    // add headers\n    metadata_[0][0] = _mtBuffer.slice(0, 32);\n    metadata_[1][0] = _msBuffer.slice(0, 32);\n\n    for (uint i = 1; i < maxOffsetLength; i++) {\n      // metadata/tree\n      if (i <= _mtOffsets.length - 1) {\n        metadata_[0][_mtOffsets[i]] = _mtBuffer.slice(_mtOffsets[i], mtBufferSize_);\n      }\n      \n      // metadata/signatures\n      if (i <= _msOffsets.length - 1) {\n        metadata_[1][_msOffsets[i]] = _msBuffer.slice(_msOffsets[i], msBufferSize_);\n      }\n    }\n\n    emit Commit(did_);\n  }\n\n  function read(uint8 _file, uint256 _offset) public view returns (bytes buffer) {\n    if (!listed_) {\n      return \"\"; // empty bytes\n    }\n    return metadata_[_file][_offset];\n  }\n\n  function hasBuffer(uint8 _file, uint256 _offset, bytes _buffer) public view returns (bool exists) {\n    return metadata_[_file][_offset].equal(_buffer);\n  }\n}\n",
  "sourcePath": "/Users/charles/Desktop/Development/Ara/ara-contracts/contracts/AFS.sol",
  "compiler": {
    "name": "solc",
    "version": "0.4.24+commit.e67f0147.Emscripten.clang"
  },
  "schemaVersion": "2.0.1",
  "updatedAt": "2018-10-18T17:58:09.600Z"
}