{
  "contractName": "AFS",
  "abi": [
    {
      "constant": true,
      "inputs": [],
      "name": "minResalePrice_",
      "outputs": [
        {
          "name": "",
          "type": "uint256"
        }
      ],
      "payable": false,
      "stateMutability": "view",
      "type": "function"
    },
    {
      "constant": true,
      "inputs": [
        {
          "name": "",
          "type": "uint256"
        }
      ],
      "name": "priceTiers_",
      "outputs": [
        {
          "name": "",
          "type": "uint256"
        }
      ],
      "payable": false,
      "stateMutability": "view",
      "type": "function"
    },
    {
      "constant": true,
      "inputs": [
        {
          "name": "",
          "type": "bytes32"
        }
      ],
      "name": "jobs_",
      "outputs": [
        {
          "name": "sender",
          "type": "address"
        },
        {
          "name": "budget",
          "type": "uint256"
        }
      ],
      "payable": false,
      "stateMutability": "view",
      "type": "function"
    },
    {
      "constant": true,
      "inputs": [],
      "name": "listed_",
      "outputs": [
        {
          "name": "",
          "type": "bool"
        }
      ],
      "payable": false,
      "stateMutability": "view",
      "type": "function"
    },
    {
      "constant": true,
      "inputs": [
        {
          "name": "",
          "type": "uint8"
        },
        {
          "name": "",
          "type": "uint256"
        }
      ],
      "name": "metadata_",
      "outputs": [
        {
          "name": "",
          "type": "bytes"
        }
      ],
      "payable": false,
      "stateMutability": "view",
      "type": "function"
    },
    {
      "constant": true,
      "inputs": [],
      "name": "lib_",
      "outputs": [
        {
          "name": "",
          "type": "address"
        }
      ],
      "payable": false,
      "stateMutability": "view",
      "type": "function"
    },
    {
      "constant": true,
      "inputs": [],
      "name": "did_",
      "outputs": [
        {
          "name": "",
          "type": "bytes32"
        }
      ],
      "payable": false,
      "stateMutability": "view",
      "type": "function"
    },
    {
      "constant": true,
      "inputs": [
        {
          "name": "",
          "type": "bytes32"
        }
      ],
      "name": "rewards_",
      "outputs": [
        {
          "name": "",
          "type": "uint256"
        }
      ],
      "payable": false,
      "stateMutability": "view",
      "type": "function"
    },
    {
      "constant": true,
      "inputs": [],
      "name": "maxNumResales_",
      "outputs": [
        {
          "name": "",
          "type": "uint256"
        }
      ],
      "payable": false,
      "stateMutability": "view",
      "type": "function"
    },
    {
      "constant": true,
      "inputs": [],
      "name": "token_",
      "outputs": [
        {
          "name": "",
          "type": "address"
        }
      ],
      "payable": false,
      "stateMutability": "view",
      "type": "function"
    },
    {
      "constant": true,
      "inputs": [],
      "name": "version_",
      "outputs": [
        {
          "name": "",
          "type": "string"
        }
      ],
      "payable": false,
      "stateMutability": "view",
      "type": "function"
    },
    {
      "constant": true,
      "inputs": [],
      "name": "totalCopies_",
      "outputs": [
        {
          "name": "",
          "type": "int256"
        }
      ],
      "payable": false,
      "stateMutability": "view",
      "type": "function"
    },
    {
      "constant": true,
      "inputs": [],
      "name": "owner_",
      "outputs": [
        {
          "name": "",
          "type": "address"
        }
      ],
      "payable": false,
      "stateMutability": "view",
      "type": "function"
    },
    {
      "constant": true,
      "inputs": [
        {
          "name": "",
          "type": "uint256"
        }
      ],
      "name": "prices_",
      "outputs": [
        {
          "name": "",
          "type": "uint256"
        }
      ],
      "payable": false,
      "stateMutability": "view",
      "type": "function"
    },
    {
      "constant": true,
      "inputs": [
        {
          "name": "",
          "type": "bytes32"
        }
      ],
      "name": "purchasers_",
      "outputs": [
        {
          "name": "quantity",
          "type": "uint256"
        },
        {
          "name": "resalePrice",
          "type": "uint256"
        }
      ],
      "payable": false,
      "stateMutability": "view",
      "type": "function"
    },
    {
      "anonymous": false,
      "inputs": [
        {
          "indexed": false,
          "name": "_did",
          "type": "bytes32"
        }
      ],
      "name": "Commit",
      "type": "event"
    },
    {
      "anonymous": false,
      "inputs": [
        {
          "indexed": false,
          "name": "_did",
          "type": "bytes32"
        }
      ],
      "name": "Unlisted",
      "type": "event"
    },
    {
      "anonymous": false,
      "inputs": [
        {
          "indexed": false,
          "name": "_did",
          "type": "bytes32"
        },
        {
          "indexed": false,
          "name": "_price",
          "type": "uint256"
        }
      ],
      "name": "MinResalePriceSet",
      "type": "event"
    },
    {
      "anonymous": false,
      "inputs": [
        {
          "indexed": false,
          "name": "_did",
          "type": "bytes32"
        },
        {
          "indexed": false,
          "name": "_purchaser",
          "type": "address"
        },
        {
          "indexed": false,
          "name": "_price",
          "type": "uint256"
        }
      ],
      "name": "ResalePriceSet",
      "type": "event"
    },
    {
      "anonymous": false,
      "inputs": [
        {
          "indexed": false,
          "name": "_did",
          "type": "bytes32"
        },
        {
          "indexed": false,
          "name": "_quantity",
          "type": "uint256"
        },
        {
          "indexed": false,
          "name": "_price",
          "type": "uint256"
        }
      ],
      "name": "PriceSet",
      "type": "event"
    },
    {
      "anonymous": false,
      "inputs": [
        {
          "indexed": false,
          "name": "_did",
          "type": "bytes32"
        },
        {
          "indexed": false,
          "name": "_jobId",
          "type": "bytes32"
        },
        {
          "indexed": false,
          "name": "_budget",
          "type": "uint256"
        }
      ],
      "name": "BudgetSubmitted",
      "type": "event"
    },
    {
      "anonymous": false,
      "inputs": [
        {
          "indexed": false,
          "name": "_did",
          "type": "bytes32"
        },
        {
          "indexed": false,
          "name": "_allocated",
          "type": "uint256"
        },
        {
          "indexed": false,
          "name": "_returned",
          "type": "uint256"
        }
      ],
      "name": "RewardsAllocated",
      "type": "event"
    },
    {
      "anonymous": false,
      "inputs": [
        {
          "indexed": false,
          "name": "_purchaser",
          "type": "bytes32"
        },
        {
          "indexed": false,
          "name": "_did",
          "type": "bytes32"
        },
        {
          "indexed": false,
          "name": "_quantity",
          "type": "uint256"
        },
        {
          "indexed": false,
          "name": "_price",
          "type": "uint256"
        }
      ],
      "name": "Purchased",
      "type": "event"
    },
    {
      "anonymous": false,
      "inputs": [
        {
          "indexed": false,
          "name": "_purchaser",
          "type": "bytes32"
        },
        {
          "indexed": false,
          "name": "_did",
          "type": "bytes32"
        },
        {
          "indexed": false,
          "name": "_quantity",
          "type": "uint256"
        },
        {
          "indexed": false,
          "name": "_price",
          "type": "uint256"
        }
      ],
      "name": "PurchasedResale",
      "type": "event"
    },
    {
      "anonymous": false,
      "inputs": [
        {
          "indexed": false,
          "name": "_sender",
          "type": "address"
        }
      ],
      "name": "Redeemed",
      "type": "event"
    },
    {
      "anonymous": false,
      "inputs": [
        {
          "indexed": false,
          "name": "_did",
          "type": "bytes32"
        },
        {
          "indexed": false,
          "name": "_added",
          "type": "int256"
        },
        {
          "indexed": false,
          "name": "_total",
          "type": "int256"
        }
      ],
      "name": "AddedCopies",
      "type": "event"
    },
    {
      "anonymous": false,
      "inputs": [
        {
          "indexed": false,
          "name": "_did",
          "type": "bytes32"
        },
        {
          "indexed": false,
          "name": "_removed",
          "type": "int256"
        },
        {
          "indexed": false,
          "name": "_total",
          "type": "int256"
        }
      ],
      "name": "RemovedCopies",
      "type": "event"
    },
    {
      "anonymous": false,
      "inputs": [
        {
          "indexed": false,
          "name": "_did",
          "type": "bytes32"
        }
      ],
      "name": "RemovedScarcity",
      "type": "event"
    },
    {
      "constant": false,
      "inputs": [
        {
          "name": "_data",
          "type": "bytes"
        }
      ],
      "name": "init",
      "outputs": [],
      "payable": false,
      "stateMutability": "nonpayable",
      "type": "function"
    },
    {
      "constant": false,
      "inputs": [
        {
          "name": "_price",
          "type": "uint256"
        }
      ],
      "name": "setMinResalePrice",
      "outputs": [],
      "payable": false,
      "stateMutability": "nonpayable",
      "type": "function"
    },
    {
      "constant": false,
      "inputs": [
        {
          "name": "_price",
          "type": "uint256"
        }
      ],
      "name": "setResalePrice",
      "outputs": [],
      "payable": false,
      "stateMutability": "nonpayable",
      "type": "function"
    },
    {
      "constant": false,
      "inputs": [
        {
          "name": "_quantity",
          "type": "uint256"
        },
        {
          "name": "_price",
          "type": "uint256"
        }
      ],
      "name": "setPrice",
      "outputs": [],
      "payable": false,
      "stateMutability": "nonpayable",
      "type": "function"
    },
    {
      "constant": false,
      "inputs": [
        {
          "name": "_quantity",
          "type": "int256"
        }
      ],
      "name": "addCopies",
      "outputs": [],
      "payable": false,
      "stateMutability": "nonpayable",
      "type": "function"
    },
    {
      "constant": false,
      "inputs": [
        {
          "name": "_quantity",
          "type": "int256"
        }
      ],
      "name": "removeCopies",
      "outputs": [],
      "payable": false,
      "stateMutability": "nonpayable",
      "type": "function"
    },
    {
      "constant": false,
      "inputs": [],
      "name": "removeScarcity",
      "outputs": [],
      "payable": false,
      "stateMutability": "nonpayable",
      "type": "function"
    },
    {
      "constant": true,
      "inputs": [
        {
          "name": "_quantity",
          "type": "uint256"
        }
      ],
      "name": "getPrice",
      "outputs": [
        {
          "name": "",
          "type": "uint256"
        }
      ],
      "payable": false,
      "stateMutability": "view",
      "type": "function"
    },
    {
      "constant": false,
      "inputs": [
        {
          "name": "_jobId",
          "type": "bytes32"
        },
        {
          "name": "_budget",
          "type": "uint256"
        }
      ],
      "name": "submitBudget",
      "outputs": [],
      "payable": false,
      "stateMutability": "nonpayable",
      "type": "function"
    },
    {
      "constant": false,
      "inputs": [
        {
          "name": "_jobId",
          "type": "bytes32"
        },
        {
          "name": "_farmers",
          "type": "bytes32[]"
        },
        {
          "name": "_rewards",
          "type": "uint256[]"
        }
      ],
      "name": "allocateRewards",
      "outputs": [],
      "payable": false,
      "stateMutability": "nonpayable",
      "type": "function"
    },
    {
      "constant": false,
      "inputs": [],
      "name": "redeemBalance",
      "outputs": [],
      "payable": false,
      "stateMutability": "nonpayable",
      "type": "function"
    },
    {
      "constant": true,
      "inputs": [
        {
          "name": "_farmer",
          "type": "address"
        }
      ],
      "name": "getRewardsBalance",
      "outputs": [
        {
          "name": "",
          "type": "uint256"
        }
      ],
      "payable": false,
      "stateMutability": "view",
      "type": "function"
    },
    {
      "constant": true,
      "inputs": [
        {
          "name": "_jobId",
          "type": "bytes32"
        }
      ],
      "name": "getBudget",
      "outputs": [
        {
          "name": "",
          "type": "uint256"
        }
      ],
      "payable": false,
      "stateMutability": "view",
      "type": "function"
    },
    {
      "constant": false,
      "inputs": [
        {
          "name": "_purchaser",
          "type": "bytes32"
        },
        {
          "name": "_quantity",
          "type": "uint256"
        },
        {
          "name": "_jobId",
          "type": "bytes32"
        },
        {
          "name": "_budget",
          "type": "uint256"
        }
      ],
      "name": "purchase",
      "outputs": [],
      "payable": false,
      "stateMutability": "nonpayable",
      "type": "function"
    },
    {
      "constant": false,
      "inputs": [
        {
          "name": "_seller",
          "type": "address"
        },
        {
          "name": "_purchaser",
          "type": "bytes32"
        },
        {
          "name": "_quantity",
          "type": "uint256"
        },
        {
          "name": "_jobId",
          "type": "bytes32"
        },
        {
          "name": "_budget",
          "type": "uint256"
        }
      ],
      "name": "purchaseResale",
      "outputs": [],
      "payable": false,
      "stateMutability": "nonpayable",
      "type": "function"
    },
    {
      "constant": false,
      "inputs": [
        {
          "name": "_mtOffsets",
          "type": "uint256[]"
        },
        {
          "name": "_msOffsets",
          "type": "uint256[]"
        },
        {
          "name": "_mtBuffer",
          "type": "bytes"
        },
        {
          "name": "_msBuffer",
          "type": "bytes"
        }
      ],
      "name": "append",
      "outputs": [],
      "payable": false,
      "stateMutability": "nonpayable",
      "type": "function"
    },
    {
      "constant": false,
      "inputs": [
        {
          "name": "_mtOffsets",
          "type": "uint256[]"
        },
        {
          "name": "_msOffsets",
          "type": "uint256[]"
        },
        {
          "name": "_mtBuffer",
          "type": "bytes"
        },
        {
          "name": "_msBuffer",
          "type": "bytes"
        }
      ],
      "name": "write",
      "outputs": [],
      "payable": false,
      "stateMutability": "nonpayable",
      "type": "function"
    },
    {
      "constant": true,
      "inputs": [
        {
          "name": "_file",
          "type": "uint8"
        },
        {
          "name": "_offset",
          "type": "uint256"
        }
      ],
      "name": "read",
      "outputs": [
        {
          "name": "buffer",
          "type": "bytes"
        }
      ],
      "payable": false,
      "stateMutability": "view",
      "type": "function"
    },
    {
      "constant": true,
      "inputs": [
        {
          "name": "_file",
          "type": "uint8"
        },
        {
          "name": "_offset",
          "type": "uint256"
        },
        {
          "name": "_buffer",
          "type": "bytes"
        }
      ],
      "name": "hasBuffer",
      "outputs": [
        {
          "name": "exists",
          "type": "bool"
        }
      ],
      "payable": false,
      "stateMutability": "view",
      "type": "function"
    },
    {
      "constant": false,
      "inputs": [],
      "name": "unlist",
      "outputs": [
        {
          "name": "success",
          "type": "bool"
        }
      ],
      "payable": false,
      "stateMutability": "nonpayable",
      "type": "function"
    }
  ],
  "bytecode": "0x60806040526040805190810160405280600181526020017f310000000000000000000000000000000000000000000000000000000000000081525060019080519060200190620000519291906200008a565b507fffffffffffffffffffffffffffffffffffffffffffffffffffffffffffffffff6008553480156200008357600080fd5b5062000139565b828054600181600116156101000203166002900490600052602060002090601f016020900481019282601f10620000cd57805160ff1916838001178555620000fe565b82800160010185558215620000fe579182015b82811115620000fd578251825591602001919060010190620000e0565b5b5090506200010d919062000111565b5090565b6200013691905b808211156200013257600081600090555060010162000118565b5090565b90565b614e2380620001496000396000f3006080604052600436106101b7576000357c0100000000000000000000000000000000000000000000000000000000900463ffffffff16806306b75c5a146101bc5780630b38926a146101e75780631e0a1b951461022857806329d1a8de146102a05780632a6363be146102cd57806331ddd9ab146102fc5780633e5ceede146103af57806346f60dee146103c6578063472697201461041d5780634ddf47d414610450578063546887a3146104b95780635ee6fa61146104fe57806366570f17146105435780637bfa87b6146105c65780637eb0c775146105f15780638a67f4bf1461061e5780639f930eb214610675578063a0d58501146106e8578063b658e85114610717578063bb66f9f61461076a578063bc302cd01461081d578063cc3a08f814610952578063d56805e114610a09578063dd1bb1fc14610a60578063dd846f0814610af0578063e757223014610b1b578063e766307914610b5c578063e7f9257514610bb3578063f001ba6514610be0578063f0c13b9e14610bf7578063f0e5bd8614610c38578063f51b697914610cd0578063f5bd3e3f14610d0b578063f5d0103c14610d57578063f7d9757714610d84575b600080fd5b3480156101c857600080fd5b506101d1610dbb565b6040518082815260200191505060405180910390f35b3480156101f357600080fd5b5061021260048036038101908080359060200190929190505050610dc1565b6040518082815260200191505060405180910390f35b34801561023457600080fd5b506102576004803603810190808035600019169060200190929190505050610de4565b604051808373ffffffffffffffffffffffffffffffffffffffff1673ffffffffffffffffffffffffffffffffffffffff1681526020018281526020019250505060405180910390f35b3480156102ac57600080fd5b506102cb60048036038101908080359060200190929190505050610e28565b005b3480156102d957600080fd5b506102e261110f565b604051808215151515815260200191505060405180910390f35b34801561030857600080fd5b50610334600480360381019080803560ff16906020019092919080359060200190929190505050611122565b6040518080602001828103825283818151815260200191508051906020019080838360005b83811015610374578082015181840152602081019050610359565b50505050905090810190601f1680156103a15780820380516001836020036101000a031916815260200191505b509250505060405180910390f35b3480156103bb57600080fd5b506103c46111df565b005b3480156103d257600080fd5b506103db6114db565b604051808273ffffffffffffffffffffffffffffffffffffffff1673ffffffffffffffffffffffffffffffffffffffff16815260200191505060405180910390f35b34801561042957600080fd5b50610432611501565b60405180826000191660001916815260200191505060405180910390f35b34801561045c57600080fd5b506104b7600480360381019080803590602001908201803590602001908080601f0160208091040260200160405190810160405280939291908181526020018383808284378201915050505050509192919290505050611507565b005b3480156104c557600080fd5b506104e8600480360381019080803560001916906020019092919050505061163a565b6040518082815260200191505060405180910390f35b34801561050a57600080fd5b5061052d6004803603810190808035600019169060200190929190505050611662565b6040518082815260200191505060405180910390f35b34801561054f57600080fd5b506105c460048036038101908080359060200190820180359060200191909192939192939080359060200190820180359060200191909192939192939080359060200190820180359060200191909192939192939080359060200190820180359060200191909192939192939050505061167a565b005b3480156105d257600080fd5b506105db6119ac565b6040518082815260200191505060405180910390f35b3480156105fd57600080fd5b5061061c600480360381019080803590602001909291905050506119b2565b005b34801561062a57600080fd5b5061065f600480360381019080803573ffffffffffffffffffffffffffffffffffffffff169060200190929190505050611b6e565b6040518082815260200191505060405180910390f35b34801561068157600080fd5b506106e6600480360381019080803573ffffffffffffffffffffffffffffffffffffffff169060200190929190803560001916906020019092919080359060200190929190803560001916906020019092919080359060200190929190505050611c4f565b005b3480156106f457600080fd5b506106fd6127b7565b604051808215151515815260200191505060405180910390f35b34801561072357600080fd5b506107686004803603810190808035600019169060200190929190803590602001909291908035600019169060200190929190803590602001909291905050506128e2565b005b34801561077657600080fd5b506107a2600480360381019080803560ff16906020019092919080359060200190929190505050612ffc565b6040518080602001828103825283818151815260200191508051906020019080838360005b838110156107e25780820151818401526020810190506107c7565b50505050905090810190601f16801561080f5780820380516001836020036101000a031916815260200191505b509250505060405180910390f35b34801561082957600080fd5b506109506004803603810190808035906020019082018035906020019080806020026020016040519081016040528093929190818152602001838360200280828437820191505050505050919291929080359060200190820180359060200190808060200260200160405190810160405280939291908181526020018383602002808284378201915050505050509192919290803590602001908201803590602001908080601f0160208091040260200160405190810160405280939291908181526020018383808284378201915050505050509192919290803590602001908201803590602001908080601f01602080910402602001604051908101604052809392919081815260200183838082843782019150505050505091929192905050506130f8565b005b34801561095e57600080fd5b50610a0760048036038101908080356000191690602001909291908035906020019082018035906020019080806020026020016040519081016040528093929190818152602001838360200280828437820191505050505050919291929080359060200190820180359060200190808060200260200160405190810160405280939291908181526020018383602002808284378201915050505050509192919290505050613483565b005b348015610a1557600080fd5b50610a1e613991565b604051808273ffffffffffffffffffffffffffffffffffffffff1673ffffffffffffffffffffffffffffffffffffffff16815260200191505060405180910390f35b348015610a6c57600080fd5b50610a756139b7565b6040518080602001828103825283818151815260200191508051906020019080838360005b83811015610ab5578082015181840152602081019050610a9a565b50505050905090810190601f168015610ae25780820380516001836020036101000a031916815260200191505b509250505060405180910390f35b348015610afc57600080fd5b50610b05613a55565b6040518082815260200191505060405180910390f35b348015610b2757600080fd5b50610b4660048036038101908080359060200190929190505050613a5b565b6040518082815260200191505060405180910390f35b348015610b6857600080fd5b50610b71613b3a565b604051808273ffffffffffffffffffffffffffffffffffffffff1673ffffffffffffffffffffffffffffffffffffffff16815260200191505060405180910390f35b348015610bbf57600080fd5b50610bde60048036038101908080359060200190929190505050613b5f565b005b348015610bec57600080fd5b50610bf5613eb0565b005b348015610c0357600080fd5b50610c2260048036038101908080359060200190929190505050613fe0565b6040518082815260200191505060405180910390f35b348015610c4457600080fd5b50610cb6600480360381019080803560ff16906020019092919080359060200190929190803590602001908201803590602001908080601f0160208091040260200160405190810160405280939291908181526020018383808284378201915050505050509192919290505050613ff8565b604051808215151515815260200191505060405180910390f35b348015610cdc57600080fd5b50610d096004803603810190808035600019169060200190929190803590602001909291905050506140d8565b005b348015610d1757600080fd5b50610d3a6004803603810190808035600019169060200190929190505050614821565b604051808381526020018281526020019250505060405180910390f35b348015610d6357600080fd5b50610d8260048036038101908080359060200190929190505050614845565b005b348015610d9057600080fd5b50610db960048036038101908080359060200190929190803590602001909291905050506149d7565b005b60095481565b600781815481101515610dd057fe5b906000526020600020016000915090505481565b600b6020528060005260406000206000915090508060000160009054906101000a900473ffffffffffffffffffffffffffffffffffffffff16908060010154905082565b6000809054906101000a900473ffffffffffffffffffffffffffffffffffffffff168073ffffffffffffffffffffffffffffffffffffffff163373ffffffffffffffffffffffffffffffffffffffff16141515610eed576040517f08c379a00000000000000000000000000000000000000000000000000000000081526004018080602001828103825260168152602001807f53656e646572206e6f7420617574686f72697a65642e0000000000000000000081525060200191505060405180910390fd5b600082131515610f8b576040517f08c379a000000000000000000000000000000000000000000000000000000000815260040180806020018281038252602c8152602001807f43616e6e6f742072656d6f7665206e6f6e2d706f736974697665206e756d626581526020017f72206f6620636f706965732e000000000000000000000000000000000000000081525060400191505060405180910390fd5b6000600854131515611005576040517f08c379a000000000000000000000000000000000000000000000000000000000815260040180806020018281038252601d8152602001807f43616e6e6f742072656d6f766520616e796d6f726520636f706965732e00000081525060200191505060405180910390fd5b60008260085403121515156110a8576040517f08c379a00000000000000000000000000000000000000000000000000000000081526004018080602001828103825260308152602001807f547279696e6720746f2072656d6f7665206d6f726520636f706965732074686181526020017f6e20616c72656164792065786973742e0000000000000000000000000000000081525060400191505060405180910390fd5b816008600082825403925050819055507f217519fcadc10b9935897418f01190676196be40dc575ba97c6136c603eac92060045483600854604051808460001916600019168152602001838152602001828152602001935050505060405180910390a15050565b600560009054906101000a900460ff1681565b600e602052816000526040600020602052806000526040600020600091509150508054600181600116156101000203166002900480601f0160208091040260200160405190810160405280929190818152602001828054600181600116156101000203166002900480156111d75780601f106111ac576101008083540402835291602001916111d7565b820191906000526020600020905b8154815290600101906020018083116111ba57829003601f168201915b505050505081565b600033604051602001808273ffffffffffffffffffffffffffffffffffffffff1673ffffffffffffffffffffffffffffffffffffffff166c010000000000000000000000000281526014019150506040516020818303038152906040526040518082805190602001908083835b602083101515611271578051825260208201915060208101905060208303925061124c565b6001836020036101000a038019825116818451168082178552505050505050905001915050604051809103902090506000600c6000836000191660001916815260200190815260200160002054111515611333576040517f08c379a00000000000000000000000000000000000000000000000000000000081526004018080602001828103825260158152602001807f4e6f2062616c616e636520746f2072656465656d2e000000000000000000000081525060200191505060405180910390fd5b600260009054906101000a900473ffffffffffffffffffffffffffffffffffffffff1673ffffffffffffffffffffffffffffffffffffffff1663a9059cbb33600c60008560001916600019168152602001908152602001600020546040518363ffffffff167c0100000000000000000000000000000000000000000000000000000000028152600401808373ffffffffffffffffffffffffffffffffffffffff1673ffffffffffffffffffffffffffffffffffffffff16815260200182815260200192505050602060405180830381600087803b15801561141357600080fd5b505af1158015611427573d6000803e3d6000fd5b505050506040513d602081101561143d57600080fd5b8101908080519060200190929190505050156114d8576000600c60008360001916600019168152602001908152602001600020819055507fcb7d87f76b4d6501ac27ed560664bf84ce273a2ddd7b9b1da63c753e68ccae2033604051808273ffffffffffffffffffffffffffffffffffffffff1673ffffffffffffffffffffffffffffffffffffffff16815260200191505060405180910390a15b50565b600360009054906101000a900473ffffffffffffffffffffffffffffffffffffffff1681565b60045481565b6000806000806000806020870195508551945060408701955085519350606087019550855192506080870195508551915060a08701955085519050846000806101000a81548173ffffffffffffffffffffffffffffffffffffffff021916908373ffffffffffffffffffffffffffffffffffffffff16021790555083600260006101000a81548173ffffffffffffffffffffffffffffffffffffffff021916908373ffffffffffffffffffffffffffffffffffffffff16021790555082600360006101000a81548173ffffffffffffffffffffffffffffffffffffffff021916908373ffffffffffffffffffffffffffffffffffffffff16021790555081600481600019169055506001600560006101000a81548160ff0219169083151502179055508060088190555050505050505050565b6000600b60008360001916600019168152602001908152602001600020600101549050919050565b600c6020528060005260406000206000915090505481565b6000806000809054906101000a900473ffffffffffffffffffffffffffffffffffffffff168073ffffffffffffffffffffffffffffffffffffffff163373ffffffffffffffffffffffffffffffffffffffff16141515611742576040517f08c379a00000000000000000000000000000000000000000000000000000000081526004018080602001828103825260168152602001807f53656e646572206e6f7420617574686f72697a65642e0000000000000000000081525060200191505060405180910390fd5b600560009054906101000a900460ff1615156117c6576040517f08c379a00000000000000000000000000000000000000000000000000000000081526004018080602001828103825260108152602001807f41465320697320756e6c69737465642e0000000000000000000000000000000081525060200191505060405180910390fd5b888890508b8b9050116117dc57888890506117e1565b8a8a90505b9250600091505b8282101561195e5760018b8b905003821115156118a057611850602860ff168302602860ff1689898080601f016020809104026020016040519081016040528093929190818152602001838380828437820191505050505050614c569092919063ffffffff16565b600e60008060ff16815260200190815260200160002060008d8d86818110151561187657fe5b905060200201358152602001908152602001600020908051906020019061189e929190614d52565b505b600189899050038211151561195157611900604060ff168302604060ff1687878080601f016020809104026020016040519081016040528093929190818152602001838380828437820191505050505050614c569092919063ffffffff16565b600e6000600160ff16815260200190815260200160002060008b8b86818110151561192757fe5b905060200201358152602001908152602001600020908051906020019061194f929190614d52565b505b81806001019250506117e8565b7f9e8a51bb6b34b9d5d18c14fd753ee3bf44e2256512665a4577281ffcc91943ff60045460405180826000191660001916815260200191505060405180910390a15050505050505050505050565b600a5481565b6000809054906101000a900473ffffffffffffffffffffffffffffffffffffffff168073ffffffffffffffffffffffffffffffffffffffff163373ffffffffffffffffffffffffffffffffffffffff16141515611a77576040517f08c379a00000000000000000000000000000000000000000000000000000000081526004018080602001828103825260168152602001807f53656e646572206e6f7420617574686f72697a65642e0000000000000000000081525060200191505060405180910390fd5b600082131515611aef576040517f08c379a00000000000000000000000000000000000000000000000000000000081526004018080602001828103825260208152602001807f5175616e74697479206d7573742062652067726561746572207468616e20302e81525060200191505060405180910390fd5b60006008541215611b065781600881905550611b17565b816008600082825401925050819055505b7fce1c800ac35d95e845bb5b712f236a74f9b4be611a9b19a41766f5817b51100f60045483600854604051808460001916600019168152602001838152602001828152602001935050505060405180910390a15050565b6000600c600083604051602001808273ffffffffffffffffffffffffffffffffffffffff1673ffffffffffffffffffffffffffffffffffffffff166c010000000000000000000000000281526014019150506040516020818303038152906040526040518082805190602001908083835b602083101515611c045780518252602082019150602081019050602083039250611bdf565b6001836020036101000a038019825116818451168082178552505050505050905001915050604051809103902060001916600019168152602001908152602001600020549050919050565b600080600080600080600a54111515611cf6576040517f08c379a00000000000000000000000000000000000000000000000000000000081526004018080602001828103825260218152602001807f4974656d206973206e6f7420617661696c61626c6520666f7220726573616c6581526020017f2e0000000000000000000000000000000000000000000000000000000000000081525060400191505060405180910390fd5b600088111515611d6e576040517f08c379a000000000000000000000000000000000000000000000000000000000815260040180806020018281038252601e8152602001807f4d757374207075726368617365206174206c65617374203120636f70792e000081525060200191505060405180910390fd5b89604051602001808273ffffffffffffffffffffffffffffffffffffffff1673ffffffffffffffffffffffffffffffffffffffff166c010000000000000000000000000281526014019150506040516020818303038152906040526040518082805190602001908083835b602083101515611dfe5780518252602082019150602081019050602083039250611dd9565b6001836020036101000a038019825116818451168082178552505050505050905001915050604051809103902094506000600d6000876000191660001916815260200190815260200160002060000154111515611ec3576040517f08c379a00000000000000000000000000000000000000000000000000000000081526004018080602001828103825260208152602001807f53656c6c6572206d757374206f776e206174206c65617374203120636f70792e81525060200191505060405180910390fd5b600a54600d60008760001916600019168152602001908152602001600020600201600060018b03815260200190815260200160002054141515611f94576040517f08c379a00000000000000000000000000000000000000000000000000000000081526004018080602001828103825260378152602001807f436f70792068617320616c7265616479206265656e20736f6c6420746865206d81526020017f6178696d756d206e756d626572206f662074696d65732e00000000000000000081525060400191505060405180910390fd5b600260009054906101000a900473ffffffffffffffffffffffffffffffffffffffff1673ffffffffffffffffffffffffffffffffffffffff1663dd62ed3e33306040518363ffffffff167c0100000000000000000000000000000000000000000000000000000000028152600401808373ffffffffffffffffffffffffffffffffffffffff1673ffffffffffffffffffffffffffffffffffffffff1681526020018273ffffffffffffffffffffffffffffffffffffffff1673ffffffffffffffffffffffffffffffffffffffff16815260200192505050602060405180830381600087803b15801561208557600080fd5b505af1158015612099573d6000803e3d6000fd5b505050506040513d60208110156120af57600080fd5b8101908080519060200190929190505050935085600d6000876000191660001916815260200190815260200160002060010154018410151515612180576040517f08c379a00000000000000000000000000000000000000000000000000000000081526004018080602001828103825260248152602001807f50726f7879206d75737420626520617070726f76656420666f7220707572636881526020017f6173652e0000000000000000000000000000000000000000000000000000000081525060400191505060405180910390fd5b600260009054906101000a900473ffffffffffffffffffffffffffffffffffffffff1673ffffffffffffffffffffffffffffffffffffffff166323b872dd338c600954600d60008b6000191660001916815260200190815260200160002060010154036040518463ffffffff167c0100000000000000000000000000000000000000000000000000000000028152600401808473ffffffffffffffffffffffffffffffffffffffff1673ffffffffffffffffffffffffffffffffffffffff1681526020018373ffffffffffffffffffffffffffffffffffffffff1673ffffffffffffffffffffffffffffffffffffffff1681526020018281526020019350505050602060405180830381600087803b15801561229b57600080fd5b505af11580156122af573d6000803e3d6000fd5b505050506040513d60208110156122c557600080fd5b810190808051906020019092919050505080156124355750600260009054906101000a900473ffffffffffffffffffffffffffffffffffffffff1673ffffffffffffffffffffffffffffffffffffffff166323b872dd336000809054906101000a900473ffffffffffffffffffffffffffffffffffffffff166009546040518463ffffffff167c0100000000000000000000000000000000000000000000000000000000028152600401808473ffffffffffffffffffffffffffffffffffffffff1673ffffffffffffffffffffffffffffffffffffffff1681526020018373ffffffffffffffffffffffffffffffffffffffff1673ffffffffffffffffffffffffffffffffffffffff1681526020018281526020019350505050602060405180830381600087803b1580156123f957600080fd5b505af115801561240d573d6000803e3d6000fd5b505050506040513d602081101561242357600080fd5b81019080805190602001909291905050505b156127ab5787600d600087600019166000191681526020019081526020016000206000016000828254039250508190555033604051602001808273ffffffffffffffffffffffffffffffffffffffff1673ffffffffffffffffffffffffffffffffffffffff166c010000000000000000000000000281526014019150506040516020818303038152906040526040518082805190602001908083835b6020831015156124f657805182526020820191506020810190506020830392506124d1565b6001836020036101000a03801982511681845116808217855250505050505090500191505060405180910390209250600d60008460001916600019168152602001908152602001600020600001549150600090505b878110156125f6576000600d600087600019166000191681526020019081526020016000206002016000600d60008960001916600019168152602001908152602001600020600001548401815260200190815260200160002081905550600d600084600019166000191681526020019081526020016000206002016000838301815260200190815260200160002060008154809291906001019190505550808060010191505061254b565b87600d6000856000191660001916815260200190815260200160002060000160008282540192505081905550600954600d6000856000191660001916815260200190815260200160002060010181905550600360009054906101000a900473ffffffffffffffffffffffffffffffffffffffff1673ffffffffffffffffffffffffffffffffffffffff16630c2bb9658a6004546040518363ffffffff167c0100000000000000000000000000000000000000000000000000000000028152600401808360001916600019168152602001826000191660001916815260200192505050600060405180830381600087803b1580156126f257600080fd5b505af1158015612706573d6000803e3d6000fd5b505050507ffebfe077605da295a1970a60979814bb7f1d6ec6842d857b0820a130725bd1c5896004548a600660008d815260200190815260200160002054604051808560001916600019168152602001846000191660001916815260200183815260200182815260200194505050505060405180910390a160006001026000191687600019161415801561279a5750600086115b156127aa576127a987876140d8565b5b5b50505050505050505050565b60008060009054906101000a900473ffffffffffffffffffffffffffffffffffffffff168073ffffffffffffffffffffffffffffffffffffffff163373ffffffffffffffffffffffffffffffffffffffff1614151561287e576040517f08c379a00000000000000000000000000000000000000000000000000000000081526004018080602001828103825260168152602001807f53656e646572206e6f7420617574686f72697a65642e0000000000000000000081525060200191505060405180910390fd5b6000600560006101000a81548160ff0219169083151502179055507f2e6ec049d62c8a42e7cc223354aadb68d5046a2cba67ed55a089fdb852fb6cb660045460405180826000191660001916815260200191505060405180910390a1600191505090565b600080600060085414151515612986576040517f08c379a00000000000000000000000000000000000000000000000000000000081526004018080602001828103825260268152602001807f4e6f206d6f726520636f7069657320617661696c61626c6520666f722070757281526020017f63686173652e000000000000000000000000000000000000000000000000000081525060400191505060405180910390fd5b6000851115156129fe576040517f08c379a000000000000000000000000000000000000000000000000000000000815260040180806020018281038252601e8152602001807f4d757374207075726368617365206174206c65617374203120636f70792e000081525060200191505060405180910390fd5b600260009054906101000a900473ffffffffffffffffffffffffffffffffffffffff1673ffffffffffffffffffffffffffffffffffffffff1663dd62ed3e33306040518363ffffffff167c0100000000000000000000000000000000000000000000000000000000028152600401808373ffffffffffffffffffffffffffffffffffffffff1673ffffffffffffffffffffffffffffffffffffffff1681526020018273ffffffffffffffffffffffffffffffffffffffff1673ffffffffffffffffffffffffffffffffffffffff16815260200192505050602060405180830381600087803b158015612aef57600080fd5b505af1158015612b03573d6000803e3d6000fd5b505050506040513d6020811015612b1957600080fd5b8101908080519060200190929190505050915033604051602001808273ffffffffffffffffffffffffffffffffffffffff1673ffffffffffffffffffffffffffffffffffffffff166c010000000000000000000000000281526014019150506040516020818303038152906040526040518082805190602001908083835b602083101515612bbc5780518252602082019150602081019050602083039250612b97565b6001836020036101000a03801982511681845116808217855250505050505090500191505060405180910390209050826006600087815260200190815260200160002054018210151515612c9e576040517f08c379a00000000000000000000000000000000000000000000000000000000081526004018080602001828103825260248152602001807f50726f7879206d75737420626520617070726f76656420666f7220707572636881526020017f6173652e0000000000000000000000000000000000000000000000000000000081525060400191505060405180910390fd5b600260009054906101000a900473ffffffffffffffffffffffffffffffffffffffff1673ffffffffffffffffffffffffffffffffffffffff166323b872dd336000809054906101000a900473ffffffffffffffffffffffffffffffffffffffff16600660008a8152602001908152602001600020546040518463ffffffff167c0100000000000000000000000000000000000000000000000000000000028152600401808473ffffffffffffffffffffffffffffffffffffffff1673ffffffffffffffffffffffffffffffffffffffff1681526020018373ffffffffffffffffffffffffffffffffffffffff1673ffffffffffffffffffffffffffffffffffffffff1681526020018281526020019350505050602060405180830381600087803b158015612dcb57600080fd5b505af1158015612ddf573d6000803e3d6000fd5b505050506040513d6020811015612df557600080fd5b810190808051906020019092919050505015612ff45784600d6000836000191660001916815260200190815260200160002060000160008282540192505081905550600954600d600083600019166000191681526020019081526020016000206001018190555060006008541315612e90576008600081548092919060019003919050555060006008541415612e8f57612e8d6127b7565b505b5b600360009054906101000a900473ffffffffffffffffffffffffffffffffffffffff1673ffffffffffffffffffffffffffffffffffffffff16630c2bb965876004546040518363ffffffff167c0100000000000000000000000000000000000000000000000000000000028152600401808360001916600019168152602001826000191660001916815260200192505050600060405180830381600087803b158015612f3b57600080fd5b505af1158015612f4f573d6000803e3d6000fd5b505050507f1e429970e9f49ffa0352d8546dc55691024a74635e00524859e819fc5bcae7a08660045487600660008a815260200190815260200160002054604051808560001916600019168152602001846000191660001916815260200183815260200182815260200194505050505060405180910390a1600060010260001916846000191614158015612fe35750600083115b15612ff357612ff284846140d8565b5b5b505050505050565b6060600560009054906101000a900460ff16151561302c57602060405190810160405280600081525090506130f2565b600e60008460ff1660ff16815260200190815260200160002060008381526020019081526020016000208054600181600116156101000203166002900480601f0160208091040260200160405190810160405280929190818152602001828054600181600116156101000203166002900480156130ea5780601f106130bf576101008083540402835291602001916130ea565b820191906000526020600020905b8154815290600101906020018083116130cd57829003601f168201915b505050505090505b92915050565b6000806000809054906101000a900473ffffffffffffffffffffffffffffffffffffffff168073ffffffffffffffffffffffffffffffffffffffff163373ffffffffffffffffffffffffffffffffffffffff161415156131c0576040517f08c379a00000000000000000000000000000000000000000000000000000000081526004018080602001828103825260168152602001807f53656e646572206e6f7420617574686f72697a65642e0000000000000000000081525060200191505060405180910390fd5b600560009054906101000a900460ff161515613244576040517f08c379a00000000000000000000000000000000000000000000000000000000081526004018080602001828103825260108152602001807f41465320697320756e6c69737465642e0000000000000000000000000000000081525060200191505060405180910390fd5b8551875111613254578551613257565b86515b92506132706000602087614c569092919063ffffffff16565b600e60008060ff168152602001908152602001600020600080815260200190815260200160002090805190602001906132aa929190614d52565b506132c26000602086614c569092919063ffffffff16565b600e6000600160ff168152602001908152602001600020600080815260200190815260200160002090805190602001906132fd929190614d52565b50600191505b828210156134395760018751038211151561339b57613348878381518110151561332957fe5b90602001906020020151602860ff1687614c569092919063ffffffff16565b600e60008060ff1681526020019081526020016000206000898581518110151561336e57fe5b9060200190602002015181526020019081526020016000209080519060200190613399929190614d52565b505b60018651038211151561342c576133d886838151811015156133b957fe5b90602001906020020151604060ff1686614c569092919063ffffffff16565b600e6000600160ff168152602001908152602001600020600088858151811015156133ff57fe5b906020019060200201518152602001908152602001600020908051906020019061342a929190614d52565b505b8180600101925050613303565b7f9e8a51bb6b34b9d5d18c14fd753ee3bf44e2256512665a4577281ffcc91943ff60045460405180826000191660001916815260200191505060405180910390a150505050505050565b600080600080863373ffffffffffffffffffffffffffffffffffffffff16600b6000836000191660001916815260200190815260200160002060000160009054906101000a900473ffffffffffffffffffffffffffffffffffffffff1673ffffffffffffffffffffffffffffffffffffffff1614801561352157506000600b6000836000191660001916815260200190815260200160002060010154115b1515613595576040517f08c379a000000000000000000000000000000000000000000000000000000000815260040180806020018281038252600f8152602001807f4a6f6220697320696e76616c69642e000000000000000000000000000000000081525060200191505060405180910390fd5b85518751141515613634576040517f08c379a00000000000000000000000000000000000000000000000000000000081526004018080602001828103825260268152602001807f556e657175616c206e756d626572206f66206661726d65727320616e6420726581526020017f77617264732e000000000000000000000000000000000000000000000000000081525060400191505060405180910390fd5b600093505b85518460ff16101561367157858460ff1681518110151561365657fe5b90602001906020020151850194508380600101945050613639565b600b60008960001916600019168152602001908152602001600020600101548511151515613707576040517f08c379a00000000000000000000000000000000000000000000000000000000081526004018080602001828103825260148152602001807f496e73756666696369656e74206275646765742e00000000000000000000000081525060200191505060405180910390fd5b600092505b86518360ff16101561380357858360ff1681518110151561372957fe5b90602001906020020151600b60008a60001916600019168152602001908152602001600020600101541015151561375c57fe5b858360ff1681518110151561376d57fe5b90602001906020020151600c6000898660ff1681518110151561378c57fe5b906020019060200201516000191660001916815260200190815260200160002081905550858360ff168151811015156137c157fe5b90602001906020020151600b60008a6000191660001916815260200190815260200160002060010160008282540392505081905550828060010193505061370c565b600b6000896000191660001916815260200190815260200160002060010154915060008211156139365781600c600033604051602001808273ffffffffffffffffffffffffffffffffffffffff1673ffffffffffffffffffffffffffffffffffffffff166c010000000000000000000000000281526014019150506040516020818303038152906040526040518082805190602001908083835b6020831015156138c2578051825260208201915060208101905060208303925061389d565b6001836020036101000a038019825116818451168082178552505050505050905001915050604051809103902060001916600019168152602001908152602001600020819055506000600b60008a60001916600019168152602001908152602001600020600101819055506139356111df565b5b7f2bd45e0776b585a6e4ce4cc376082ac45c657ad116f95f80480b6343678354e86004548684604051808460001916600019168152602001838152602001828152602001935050505060405180910390a15050505050505050565b600260009054906101000a900473ffffffffffffffffffffffffffffffffffffffff1681565b60018054600181600116156101000203166002900480601f016020809104026020016040519081016040528092919081815260200182805460018160011615610100020316600290048015613a4d5780601f10613a2257610100808354040283529160200191613a4d565b820191906000526020600020905b815481529060010190602001808311613a3057829003601f168201915b505050505081565b60085481565b60008060008090505b600780549050811015613b1c5783600782815481101515613a8157fe5b90600052602060002001541415613aad5760066000858152602001908152602001600020549250613b33565b83600782815481101515613abd57fe5b9060005260206000200154108015613aed575081600782815481101515613ae057fe5b9060005260206000200154115b15613b0f57600781815481101515613b0157fe5b906000526020600020015491505b8080600101915050613a64565b600660008381526020019081526020016000205492505b5050919050565b6000809054906101000a900473ffffffffffffffffffffffffffffffffffffffff1681565b6000600d600033604051602001808273ffffffffffffffffffffffffffffffffffffffff1673ffffffffffffffffffffffffffffffffffffffff166c010000000000000000000000000281526014019150506040516020818303038152906040526040518082805190602001908083835b602083101515613bf55780518252602082019150602081019050602083039250613bd0565b6001836020036101000a03801982511681845116808217855250505050505090500191505060405180910390206000191660001916815260200190815260200160002060000154111515613cb1576040517f08c379a000000000000000000000000000000000000000000000000000000000815260040180806020018281038252601c8152602001807f436f6e74656e7420776173206e65766572207075726368617365642e0000000081525060200191505060405180910390fd5b6009548110151515613d51576040517f08c379a00000000000000000000000000000000000000000000000000000000081526004018080602001828103825260378152602001807f526573616c65207072696365206d757374206265206174206c6561737420746881526020017f65206d696e696d756d20726573616c652070726963652e00000000000000000081525060400191505060405180910390fd5b80600d600033604051602001808273ffffffffffffffffffffffffffffffffffffffff1673ffffffffffffffffffffffffffffffffffffffff166c010000000000000000000000000281526014019150506040516020818303038152906040526040518082805190602001908083835b602083101515613de65780518252602082019150602081019050602083039250613dc1565b6001836020036101000a038019825116818451168082178552505050505050905001915050604051809103902060001916600019168152602001908152602001600020600101819055507f0e2912681a5905a8c6a4452da27fc30eb533a3aba5b44cf5a404baeadcdb134760045433836040518084600019166000191681526020018373ffffffffffffffffffffffffffffffffffffffff1673ffffffffffffffffffffffffffffffffffffffff168152602001828152602001935050505060405180910390a150565b6000809054906101000a900473ffffffffffffffffffffffffffffffffffffffff168073ffffffffffffffffffffffffffffffffffffffff163373ffffffffffffffffffffffffffffffffffffffff16141515613f75576040517f08c379a00000000000000000000000000000000000000000000000000000000081526004018080602001828103825260168152602001807f53656e646572206e6f7420617574686f72697a65642e0000000000000000000081525060200191505060405180910390fd5b7fffffffffffffffffffffffffffffffffffffffffffffffffffffffffffffffff6008819055507f6477ede1cac58c486f8e68d5d93aeb7617a637bd2e2a9beb5e00e687e750e60a60045460405180826000191660001916815260200191505060405180910390a150565b60066020528060005260406000206000915090505481565b60006140cf82600e60008760ff1660ff16815260200190815260200160002060008681526020019081526020016000208054600181600116156101000203166002900480601f0160208091040260200160405190810160405280929190818152602001828054600181600116156101000203166002900480156140bc5780601f10614091576101008083540402835291602001916140bc565b820191906000526020600020905b81548152906001019060200180831161409f57829003601f168201915b5050505050614ce390919063ffffffff16565b90509392505050565b600080600d600033604051602001808273ffffffffffffffffffffffffffffffffffffffff1673ffffffffffffffffffffffffffffffffffffffff166c010000000000000000000000000281526014019150506040516020818303038152906040526040518082805190602001908083835b60208310151561416f578051825260208201915060208101905060208303925061414a565b6001836020036101000a0380198251168184511680821785525050505050509050019150506040518091039020600019166000191681526020019081526020016000206000015411151561422b576040517f08c379a000000000000000000000000000000000000000000000000000000000815260040180806020018281038252601c8152602001807f436f6e74656e7420776173206e65766572207075726368617365642e0000000081525060200191505060405180910390fd5b600260009054906101000a900473ffffffffffffffffffffffffffffffffffffffff1673ffffffffffffffffffffffffffffffffffffffff1663dd62ed3e33306040518363ffffffff167c0100000000000000000000000000000000000000000000000000000000028152600401808373ffffffffffffffffffffffffffffffffffffffff1673ffffffffffffffffffffffffffffffffffffffff1681526020018273ffffffffffffffffffffffffffffffffffffffff1673ffffffffffffffffffffffffffffffffffffffff16815260200192505050602060405180830381600087803b15801561431c57600080fd5b505af1158015614330573d6000803e3d6000fd5b505050506040513d602081101561434657600080fd5b810190808051906020019092919050505090506000600102600019168360001916141580156143755750600082115b80156143815750818110155b801561446b5750600073ffffffffffffffffffffffffffffffffffffffff16600b6000856000191660001916815260200190815260200160002060000160009054906101000a900473ffffffffffffffffffffffffffffffffffffffff1673ffffffffffffffffffffffffffffffffffffffff16148061446a57503373ffffffffffffffffffffffffffffffffffffffff16600b6000856000191660001916815260200190815260200160002060000160009054906101000a900473ffffffffffffffffffffffffffffffffffffffff1673ffffffffffffffffffffffffffffffffffffffff16145b5b15156144df576040517f08c379a00000000000000000000000000000000000000000000000000000000081526004018080602001828103825260178152602001807f4a6f62207375626d697373696f6e20696e76616c69642e00000000000000000081525060200191505060405180910390fd5b600260009054906101000a900473ffffffffffffffffffffffffffffffffffffffff1673ffffffffffffffffffffffffffffffffffffffff166323b872dd3330856040518463ffffffff167c0100000000000000000000000000000000000000000000000000000000028152600401808473ffffffffffffffffffffffffffffffffffffffff1673ffffffffffffffffffffffffffffffffffffffff1681526020018373ffffffffffffffffffffffffffffffffffffffff1673ffffffffffffffffffffffffffffffffffffffff1681526020018281526020019350505050602060405180830381600087803b1580156145d857600080fd5b505af11580156145ec573d6000803e3d6000fd5b505050506040513d602081101561460257600080fd5b81019080805190602001909291905050501561481c5781600b600085600019166000191681526020019081526020016000206001016000828254019250508190555033600b6000856000191660001916815260200190815260200160002060000160006101000a81548173ffffffffffffffffffffffffffffffffffffffff021916908373ffffffffffffffffffffffffffffffffffffffff160217905550600260009054906101000a900473ffffffffffffffffffffffffffffffffffffffff1673ffffffffffffffffffffffffffffffffffffffff166370a08231306040518263ffffffff167c0100000000000000000000000000000000000000000000000000000000028152600401808273ffffffffffffffffffffffffffffffffffffffff1673ffffffffffffffffffffffffffffffffffffffff168152602001915050602060405180830381600087803b15801561475e57600080fd5b505af1158015614772573d6000803e3d6000fd5b505050506040513d602081101561478857600080fd5b8101908080519060200190929190505050600b6000856000191660001916815260200190815260200160002060010154111515156147c257fe5b7f4521c984beed01d188bcc3bd297e6530cd217723b880fa43c70fbcbd664fb2ac60045484846040518084600019166000191681526020018360001916600019168152602001828152602001935050505060405180910390a15b505050565b600d6020528060005260406000206000915090508060000154908060010154905082565b6000809054906101000a900473ffffffffffffffffffffffffffffffffffffffff168073ffffffffffffffffffffffffffffffffffffffff163373ffffffffffffffffffffffffffffffffffffffff1614151561490a576040517f08c379a00000000000000000000000000000000000000000000000000000000081526004018080602001828103825260168152602001807f53656e646572206e6f7420617574686f72697a65642e0000000000000000000081525060200191505060405180910390fd5b60008210151515614983576040517f08c379a00000000000000000000000000000000000000000000000000000000081526004018080602001828103825260198152602001807f50726963652063616e6e6f74206265206e656761746976652e0000000000000081525060200191505060405180910390fd5b816009819055507fdca0c456563bef627a1630910a55d7f7dbc34e6436eff2d7a6b04d5b1c76192a600454836040518083600019166000191681526020018281526020019250505060405180910390a15050565b6000809054906101000a900473ffffffffffffffffffffffffffffffffffffffff168073ffffffffffffffffffffffffffffffffffffffff163373ffffffffffffffffffffffffffffffffffffffff16141515614a9c576040517f08c379a00000000000000000000000000000000000000000000000000000000081526004018080602001828103825260168152602001807f53656e646572206e6f7420617574686f72697a65642e0000000000000000000081525060200191505060405180910390fd5b600083111515614b14576040517f08c379a00000000000000000000000000000000000000000000000000000000081526004018080602001828103825260208152602001807f5175616e74697479206d7573742062652067726561746572207468616e20302e81525060200191505060405180910390fd5b600082111515614b8c576040517f08c379a000000000000000000000000000000000000000000000000000000000815260040180806020018281038252601d8152602001807f5072696365206d7573742062652067726561746572207468616e20302e00000081525060200191505060405180910390fd5b600060066000858152602001908152602001600020541415614bd55760078390806001815401808255809150509060018203906000526020600020016000909192909190915055505b8160066000858152602001908152602001600020819055507f2f0fe01aa6daff1c7bb411a324bdebe55dc2cd1e0ff2fc504b7569346e7d7d5a600454846006600087815260200190815260200160002054604051808460001916600019168152602001838152602001828152602001935050505060405180910390a1505050565b606080828401855110151515614c6b57600080fd5b821560008114614c8657604051915060208201604052614cd7565b6040519150601f8416801560200281840101858101878315602002848b0101015b81831015614cc45780518352602083019250602081019050614ca7565b50868552601f19601f8301166040525050505b50809150509392505050565b6000806001905083518351811460018114614d015760009250614d46565b600160208701838101602088015b600284838510011415614d415780518351141515614d305760009650600093505b602083019250602081019050614d0f565b505050505b50508091505092915050565b828054600181600116156101000203166002900490600052602060002090601f016020900481019282601f10614d9357805160ff1916838001178555614dc1565b82800160010185558215614dc1579182015b82811115614dc0578251825591602001919060010190614da5565b5b509050614dce9190614dd2565b5090565b614df491905b80821115614df0576000816000905550600101614dd8565b5090565b905600a165627a7a7230582061352c98fbe23104ddf14976009e4394e9ea1c8038d72a25f5f711c8dca637a80029",
  "source": "pragma solidity ^0.4.24;\n\nimport \"./Library.sol\";\nimport \"./AraToken.sol\";\nimport \"bytes/BytesLib.sol\";\n\ncontract AFS {\n\n  using BytesLib for bytes;\n\n  address   public owner_;\n  string    public version_ = \"1\";\n\n  AraToken  public token_;\n  Library   public lib_;\n\n  bytes32   public did_;\n  bool      public listed_;\n  mapping(uint256 => uint256) public prices_; // quantity (lower bound) => price\n  uint256[] public priceTiers_; // quantity tiers\n\n  int256    public totalCopies_ = -1;\n\n  uint256   public minResalePrice_;\n  uint256   public maxNumResales_; // < maxNumResales_ can be resold\n\n  mapping(bytes32 => Job)     public jobs_; // jobId => job { budget, sender }\n  mapping(bytes32 => uint256) public rewards_;    // farmer => rewards\n  mapping(bytes32 => Content) public purchasers_; // keccak256 hashes of buyer addresses\n  mapping(uint8 => mapping (uint256 => bytes)) public metadata_;\n\n  struct Job {\n    address sender;\n    uint256 budget;\n  }\n\n  struct Content {\n    uint256 quantity;\n    uint256 resalePrice;\n    mapping(uint256 => uint256) resales; // total quantity owned => number of previous resales -- 0 indexed\n  }\n\n  event Commit(bytes32 _did);\n  event Unlisted(bytes32 _did);\n  event MinResalePriceSet(bytes32 _did, uint256 _price);\n  event ResalePriceSet(bytes32 _did, address _purchaser, uint256 _price);\n  event PriceSet(bytes32 _did, uint256 _quantity, uint256 _price);\n  event BudgetSubmitted(bytes32 _did, bytes32 _jobId, uint256 _budget);\n  event RewardsAllocated(bytes32 _did, uint256 _allocated, uint256 _returned);\n  event Purchased(bytes32 _purchaser, bytes32 _did, uint256 _quantity, uint256 _price);\n  event PurchasedResale(bytes32 _purchaser, bytes32 _did, uint256 _quantity, uint256 _price);\n  event Redeemed(address _sender);\n  event AddedCopies(bytes32 _did, int256 _added, int256 _total);\n  event RemovedCopies(bytes32 _did, int256 _removed, int256 _total);\n  event RemovedScarcity(bytes32 _did);\n\n  uint8 constant mtBufferSize_ = 40;\n  uint8 constant msBufferSize_ = 64;\n\n  modifier onlyBy(address _account)\n  {\n    require(\n      msg.sender == _account,\n      \"Sender not authorized.\"\n    );\n    _;\n  }\n\n  modifier purchaseRequired()\n  {\n    require(\n      purchasers_[keccak256(abi.encodePacked(msg.sender))].quantity > 0,\n      \"Content was never purchased.\"\n    );\n    _;\n  }\n\n  modifier budgetSubmitted(bytes32 _jobId)\n  {\n    require(\n      jobs_[_jobId].sender == msg.sender && jobs_[_jobId].budget > 0,\n      \"Job is invalid.\"\n    );\n    _;\n  }\n\n  function init(bytes _data) public {\n    uint256 btsptr;\n    address ownerAddr;\n    address tokenAddr;\n    address libAddr;\n    bytes32 did;\n    int256 totalCopies;\n    /* solium-disable-next-line security/no-inline-assembly */\n    assembly {\n        btsptr := add(_data, 32)\n        ownerAddr := mload(btsptr)\n        btsptr := add(_data, 64)\n        tokenAddr := mload(btsptr)\n        btsptr := add(_data, 96)\n        libAddr := mload(btsptr)\n        btsptr := add(_data, 128)\n        did := mload(btsptr)\n        btsptr := add(_data, 160)\n        totalCopies := mload(btsptr)\n    }\n    owner_    = ownerAddr;\n    token_    = AraToken(tokenAddr);\n    lib_      = Library(libAddr);\n    did_      = did;\n    listed_   = true;\n    totalCopies_ = totalCopies;\n  }\n\n  function setMinResalePrice(uint256 _price) external onlyBy(owner_) {\n    require(_price >= 0, \"Price cannot be negative.\");\n    minResalePrice_ = _price;\n    emit MinResalePriceSet(did_, _price);\n  }\n\n  function setResalePrice(uint256 _price) external purchaseRequired {\n    require(_price >= minResalePrice_, \"Resale price must be at least the minimum resale price.\");\n    purchasers_[keccak256(abi.encodePacked(msg.sender))].resalePrice = _price;\n    emit ResalePriceSet(did_, msg.sender, _price);\n  }\n\n  function setPrice(uint256 _quantity, uint256 _price) external onlyBy(owner_) {\n    require(_quantity > 0, \"Quantity must be greater than 0.\");\n    require(_price > 0, \"Price must be greater than 0.\");\n    if (prices_[_quantity] == 0) {\n      priceTiers_.push(_quantity);\n    }\n    prices_[_quantity] = _price;\n    emit PriceSet(did_, _quantity, prices_[_quantity]);\n  }\n\n  function addCopies(int256 _quantity) public onlyBy(owner_) {\n    require(_quantity > 0, \"Quantity must be greater than 0.\");\n    if (totalCopies_ < 0) {\n      totalCopies_ = _quantity;\n    } else {\n      totalCopies_ += _quantity;\n    }\n    emit AddedCopies(did_, _quantity, totalCopies_);\n  }\n\n  function removeCopies(int256 _quantity) public onlyBy(owner_) {\n    require(_quantity > 0, \"Cannot remove non-positive number of copies.\");\n    require(totalCopies_ > 0, \"Cannot remove anymore copies.\");\n    require(totalCopies_ - _quantity >= 0, \"Trying to remove more copies than already exist.\");\n    totalCopies_ -= _quantity;\n    emit RemovedCopies(did_, _quantity, totalCopies_);\n  }\n\n  function removeScarcity() public onlyBy(owner_) {\n    totalCopies_ = -1;\n    emit RemovedScarcity(did_);\n  }\n\n  function getPrice(uint256 _quantity) public view returns (uint256) {\n    uint256 tier;\n    for (uint256 i = 0; i < priceTiers_.length; i++) {\n      if (priceTiers_[i] == _quantity) {\n        return prices_[_quantity];\n      } else if (priceTiers_[i] < _quantity && priceTiers_[i] > tier) {\n        tier = priceTiers_[i];\n      }\n    }\n    return prices_[tier];\n  }\n\n  function submitBudget(bytes32 _jobId, uint256 _budget) public purchaseRequired {\n    uint256 allowance = token_.allowance(msg.sender, address(this));\n    require(_jobId != bytes32(0) && _budget > 0 && allowance >= _budget\n      && (jobs_[_jobId].sender == address(0) || jobs_[_jobId].sender == msg.sender), \"Job submission invalid.\");\n\n    if (token_.transferFrom(msg.sender, address(this), _budget)) {\n      jobs_[_jobId].budget += _budget;\n      jobs_[_jobId].sender = msg.sender;\n      assert(jobs_[_jobId].budget <= token_.balanceOf(address(this)));\n      emit BudgetSubmitted(did_, _jobId, _budget);\n    }\n  }\n\n  function allocateRewards(bytes32 _jobId, bytes32[] _farmers, uint256[] _rewards) public budgetSubmitted(_jobId) {\n    require(_farmers.length == _rewards.length, \"Unequal number of farmers and rewards.\");\n    uint256 totalRewards;\n    for (uint8 i = 0; i < _rewards.length; i++) {\n      totalRewards += _rewards[i];\n    }\n    require(totalRewards <= jobs_[_jobId].budget, \"Insufficient budget.\");\n    for (uint8 j = 0; j < _farmers.length; j++) {\n      assert(jobs_[_jobId].budget >= _rewards[j]);\n      rewards_[_farmers[j]] = _rewards[j];\n      jobs_[_jobId].budget -= _rewards[j];\n    }\n    uint256 remaining = jobs_[_jobId].budget;\n    if (remaining > 0) {\n      rewards_[keccak256(abi.encodePacked(msg.sender))] = remaining;\n      jobs_[_jobId].budget = 0;\n      redeemBalance();\n    }\n    emit RewardsAllocated(did_, totalRewards, remaining);\n  }\n\n  function redeemBalance() public {\n    bytes32 hashedAddress = keccak256(abi.encodePacked(msg.sender));\n    require(rewards_[hashedAddress] > 0, \"No balance to redeem.\");\n    if (token_.transfer(msg.sender, rewards_[hashedAddress])) {\n      rewards_[hashedAddress] = 0;\n      emit Redeemed(msg.sender);\n    }\n  }\n\n  function getRewardsBalance(address _farmer) public view returns (uint256) {\n    return rewards_[keccak256(abi.encodePacked(_farmer))];\n  }\n\n  function getBudget(bytes32 _jobId) public view returns (uint256) {\n    return jobs_[_jobId].budget;\n  }\n\n  /**\n   * @dev Purchases this AFS and adds it to _purchaser's library. \n   *      If _download is true, deposits any remaining allowance \n   *      as rewards for this purchase\n   * @param _purchaser The hashed methodless did of the purchaser\n   * @param _jobId The jobId of the download, or 0x00000000000000000000000000000000 if N/A\n   * @param _budget The reward budget for jobId, or 0 if N/A\n   */\n  function purchase(bytes32 _purchaser, uint256 _quantity, bytes32 _jobId, uint256 _budget) external {\n    require(totalCopies_ != 0, \"No more copies available for purchase.\");\n    require(_quantity > 0, \"Must purchase at least 1 copy.\");\n    uint256 allowance = token_.allowance(msg.sender, address(this));\n    bytes32 hashedAddress = keccak256(abi.encodePacked(msg.sender));\n    require (allowance >= prices_[_quantity] + _budget, \"Proxy must be approved for purchase.\");\n\n    if (token_.transferFrom(msg.sender, owner_, prices_[_quantity])) {\n      purchasers_[hashedAddress].quantity += _quantity;\n      purchasers_[hashedAddress].resalePrice = minResalePrice_;\n      if (totalCopies_ > 0) {\n        totalCopies_--;\n        if (totalCopies_ == 0) {\n          unlist();\n        }\n      }\n      lib_.addLibraryItem(_purchaser, did_);\n      emit Purchased(_purchaser, did_, _quantity, prices_[_quantity]);\n\n      if (_jobId != bytes32(0) && _budget > 0) {\n        submitBudget(_jobId, _budget);\n      }\n    }\n  }\n\n  /**\n   * @param _seller seller's Ethereum address\n   * \n   */\n  function purchaseResale(address _seller, bytes32 _purchaser, uint256 _quantity, bytes32 _jobId, uint256 _budget) external {\n    require(maxNumResales_ > 0, \"Item is not available for resale.\");\n    require(_quantity > 0, \"Must purchase at least 1 copy.\");\n    bytes32 seller = keccak256(abi.encodePacked(_seller));\n    require(purchasers_[seller].quantity > 0, \"Seller must own at least 1 copy.\");\n    require(purchasers_[seller].resales[_quantity - 1] == maxNumResales_, \"Copy has already been sold the maximum number of times.\");\n    uint256 allowance = token_.allowance(msg.sender, address(this));\n    require (allowance >= purchasers_[seller].resalePrice + _budget, \"Proxy must be approved for purchase.\");\n\n    if (token_.transferFrom(msg.sender, _seller, purchasers_[seller].resalePrice - minResalePrice_)\n      && token_.transferFrom(msg.sender, owner_, minResalePrice_)) {\n      purchasers_[seller].quantity -= _quantity;\n\n      bytes32 purchaser = keccak256(abi.encodePacked(msg.sender));\n      uint256 oldPurchaserQuantity = purchasers_[purchaser].quantity;\n      for (uint256 i = 0; i < _quantity; i++) {\n        purchasers_[seller].resales[i + purchasers_[seller].quantity] = 0;\n        purchasers_[purchaser].resales[i + oldPurchaserQuantity]++;\n      }\n\n      purchasers_[purchaser].quantity += _quantity;\n      purchasers_[purchaser].resalePrice = minResalePrice_;\n      lib_.addLibraryItem(_purchaser, did_);\n      emit PurchasedResale(_purchaser, did_, _quantity, prices_[_quantity]);\n\n      if (_jobId != bytes32(0) && _budget > 0) {\n        submitBudget(_jobId, _budget);\n      }\n    }\n  }\n\n  function append(uint256[] _mtOffsets, uint256[] _msOffsets, bytes _mtBuffer, \n    bytes _msBuffer) external onlyBy(owner_) {\n    \n    require(listed_, \"AFS is unlisted.\");\n    \n    uint256 maxOffsetLength = _mtOffsets.length > _msOffsets.length \n      ? _mtOffsets.length \n      : _msOffsets.length;\n\n    for (uint i = 0; i < maxOffsetLength; i++) {\n      // metadata/tree\n      if (i <= _mtOffsets.length - 1) {\n        metadata_[0][_mtOffsets[i]] = _mtBuffer.slice(i * mtBufferSize_, mtBufferSize_);\n      }\n\n      // metadata/signatures\n      if (i <= _msOffsets.length - 1) {\n        metadata_[1][_msOffsets[i]] = _msBuffer.slice(i * msBufferSize_, msBufferSize_);\n      }\n    }\n\n    emit Commit(did_);\n  }\n\n  function write(uint256[] _mtOffsets, uint256[] _msOffsets, bytes _mtBuffer, \n    bytes _msBuffer) public onlyBy(owner_) {\n\n    require(listed_, \"AFS is unlisted.\");\n\n    uint256 maxOffsetLength = _mtOffsets.length > _msOffsets.length \n      ? _mtOffsets.length \n      : _msOffsets.length;\n\n    // add headers\n    metadata_[0][0] = _mtBuffer.slice(0, 32);\n    metadata_[1][0] = _msBuffer.slice(0, 32);\n\n    for (uint i = 1; i < maxOffsetLength; i++) {\n      // metadata/tree\n      if (i <= _mtOffsets.length - 1) {\n        metadata_[0][_mtOffsets[i]] = _mtBuffer.slice(_mtOffsets[i], mtBufferSize_);\n      }\n      \n      // metadata/signatures\n      if (i <= _msOffsets.length - 1) {\n        metadata_[1][_msOffsets[i]] = _msBuffer.slice(_msOffsets[i], msBufferSize_);\n      }\n    }\n\n    emit Commit(did_);\n  }\n\n  function read(uint8 _file, uint256 _offset) public view returns (bytes buffer) {\n    if (!listed_) {\n      return \"\"; // empty bytes\n    }\n    return metadata_[_file][_offset];\n  }\n\n  function hasBuffer(uint8 _file, uint256 _offset, bytes _buffer) public view returns (bool exists) {\n    return metadata_[_file][_offset].equal(_buffer);\n  }\n\n  function unlist() public onlyBy(owner_) returns (bool success) {\n    listed_ = false;\n    emit Unlisted(did_);\n    return true;\n  }\n}\n",
  "sourcePath": "/Users/ericjiang/Littlstar/ara-contracts/contracts/AFS.sol",
  "compiler": {
    "name": "solc",
    "version": "0.4.24+commit.e67f0147.Emscripten.clang"
  },
  "schemaVersion": "2.0.1",
  "updatedAt": "2018-10-03T15:45:23.272Z"
}