{
  "contractName": "AFS",
  "abi": [
    {
      "constant": true,
      "inputs": [
        {
          "name": "",
          "type": "bytes32"
        }
      ],
      "name": "jobs_",
      "outputs": [
        {
          "name": "sender",
          "type": "address"
        },
        {
          "name": "budget",
          "type": "uint256"
        }
      ],
      "payable": false,
      "stateMutability": "view",
      "type": "function"
    },
    {
      "constant": true,
      "inputs": [],
      "name": "listed_",
      "outputs": [
        {
          "name": "",
          "type": "bool"
        }
      ],
      "payable": false,
      "stateMutability": "view",
      "type": "function"
    },
    {
      "constant": true,
      "inputs": [],
      "name": "lib_",
      "outputs": [
        {
          "name": "",
          "type": "address"
        }
      ],
      "payable": false,
      "stateMutability": "view",
      "type": "function"
    },
    {
      "constant": true,
      "inputs": [],
      "name": "did_",
      "outputs": [
        {
          "name": "",
          "type": "bytes32"
        }
      ],
      "payable": false,
      "stateMutability": "view",
      "type": "function"
    },
    {
      "constant": true,
      "inputs": [
        {
          "name": "",
          "type": "bytes32"
        }
      ],
      "name": "rewards_",
      "outputs": [
        {
          "name": "",
          "type": "uint256"
        }
      ],
      "payable": false,
      "stateMutability": "view",
      "type": "function"
    },
    {
      "constant": true,
      "inputs": [],
      "name": "price_",
      "outputs": [
        {
          "name": "",
          "type": "uint256"
        }
      ],
      "payable": false,
      "stateMutability": "view",
      "type": "function"
    },
    {
      "constant": true,
      "inputs": [
        {
          "name": "",
          "type": "uint8"
        }
      ],
      "name": "metadata_",
      "outputs": [
        {
          "name": "",
          "type": "bytes"
        }
      ],
      "payable": false,
      "stateMutability": "view",
      "type": "function"
    },
    {
      "constant": true,
      "inputs": [],
      "name": "token_",
      "outputs": [
        {
          "name": "",
          "type": "address"
        }
      ],
      "payable": false,
      "stateMutability": "view",
      "type": "function"
    },
    {
      "constant": true,
      "inputs": [],
      "name": "version_",
      "outputs": [
        {
          "name": "",
          "type": "string"
        }
      ],
      "payable": false,
      "stateMutability": "view",
      "type": "function"
    },
    {
      "constant": true,
      "inputs": [],
      "name": "owner_",
      "outputs": [
        {
          "name": "",
          "type": "address"
        }
      ],
      "payable": false,
      "stateMutability": "view",
      "type": "function"
    },
    {
      "constant": true,
      "inputs": [
        {
          "name": "",
          "type": "bytes32"
        }
      ],
      "name": "purchasers_",
      "outputs": [
        {
          "name": "",
          "type": "bool"
        }
      ],
      "payable": false,
      "stateMutability": "view",
      "type": "function"
    },
    {
      "anonymous": false,
      "inputs": [
        {
          "indexed": false,
          "name": "_did",
          "type": "bytes32"
        }
      ],
      "name": "Commit",
      "type": "event"
    },
    {
      "anonymous": false,
      "inputs": [
        {
          "indexed": false,
          "name": "_did",
          "type": "bytes32"
        }
      ],
      "name": "Unlisted",
      "type": "event"
    },
    {
      "anonymous": false,
      "inputs": [
        {
          "indexed": false,
          "name": "_did",
          "type": "bytes32"
        },
        {
          "indexed": false,
          "name": "_price",
          "type": "uint256"
        }
      ],
      "name": "PriceSet",
      "type": "event"
    },
    {
      "anonymous": false,
      "inputs": [
        {
          "indexed": false,
          "name": "_did",
          "type": "bytes32"
        },
        {
          "indexed": false,
          "name": "_jobId",
          "type": "bytes32"
        },
        {
          "indexed": false,
          "name": "_budget",
          "type": "uint256"
        }
      ],
      "name": "BudgetSubmitted",
      "type": "event"
    },
    {
      "anonymous": false,
      "inputs": [
        {
          "indexed": false,
          "name": "_did",
          "type": "bytes32"
        },
        {
          "indexed": false,
          "name": "_allocated",
          "type": "uint256"
        },
        {
          "indexed": false,
          "name": "_returned",
          "type": "uint256"
        }
      ],
      "name": "RewardsAllocated",
      "type": "event"
    },
    {
      "anonymous": false,
      "inputs": [
        {
          "indexed": false,
          "name": "_purchaser",
          "type": "bytes32"
        },
        {
          "indexed": false,
          "name": "_did",
          "type": "bytes32"
        },
        {
          "indexed": false,
          "name": "_price",
          "type": "uint256"
        }
      ],
      "name": "Purchased",
      "type": "event"
    },
    {
      "anonymous": false,
      "inputs": [
        {
          "indexed": false,
          "name": "_sender",
          "type": "address"
        }
      ],
      "name": "Redeemed",
      "type": "event"
    },
    {
      "constant": false,
      "inputs": [
        {
          "name": "_data",
          "type": "bytes"
        }
      ],
      "name": "init",
      "outputs": [],
      "payable": false,
      "stateMutability": "nonpayable",
      "type": "function"
    },
    {
      "constant": false,
      "inputs": [
        {
          "name": "_price",
          "type": "uint256"
        }
      ],
      "name": "setPrice",
      "outputs": [],
      "payable": false,
      "stateMutability": "nonpayable",
      "type": "function"
    },
    {
      "constant": false,
      "inputs": [
        {
          "name": "_jobId",
          "type": "bytes32"
        },
        {
          "name": "_budget",
          "type": "uint256"
        }
      ],
      "name": "submitBudget",
      "outputs": [],
      "payable": false,
      "stateMutability": "nonpayable",
      "type": "function"
    },
    {
      "constant": false,
      "inputs": [
        {
          "name": "_jobId",
          "type": "bytes32"
        },
        {
          "name": "_farmers",
          "type": "bytes32[]"
        },
        {
          "name": "_rewards",
          "type": "uint256[]"
        }
      ],
      "name": "allocateRewards",
      "outputs": [],
      "payable": false,
      "stateMutability": "nonpayable",
      "type": "function"
    },
    {
      "constant": false,
      "inputs": [],
      "name": "redeemBalance",
      "outputs": [],
      "payable": false,
      "stateMutability": "nonpayable",
      "type": "function"
    },
    {
      "constant": true,
      "inputs": [
        {
          "name": "_farmer",
          "type": "address"
        }
      ],
      "name": "getBalance",
      "outputs": [
        {
          "name": "",
          "type": "uint256"
        }
      ],
      "payable": false,
      "stateMutability": "view",
      "type": "function"
    },
    {
      "constant": true,
      "inputs": [
        {
          "name": "_jobId",
          "type": "bytes32"
        }
      ],
      "name": "getBudget",
      "outputs": [
        {
          "name": "",
          "type": "uint256"
        }
      ],
      "payable": false,
      "stateMutability": "view",
      "type": "function"
    },
    {
      "constant": false,
      "inputs": [
        {
          "name": "_purchaser",
          "type": "bytes32"
        },
        {
          "name": "_jobId",
          "type": "bytes32"
        },
        {
          "name": "_budget",
          "type": "uint256"
        }
      ],
      "name": "purchase",
      "outputs": [],
      "payable": false,
      "stateMutability": "nonpayable",
      "type": "function"
    },
    {
      "constant": false,
      "inputs": [
        {
          "name": "_mtBuffer",
          "type": "bytes"
        },
        {
          "name": "_msBuffer",
          "type": "bytes"
        }
      ],
      "name": "write",
      "outputs": [],
      "payable": false,
      "stateMutability": "nonpayable",
      "type": "function"
    },
    {
      "constant": true,
      "inputs": [
        {
          "name": "_file",
          "type": "uint8"
        },
        {
          "name": "_offset",
          "type": "uint256"
        }
      ],
      "name": "read",
      "outputs": [
        {
          "name": "buffer",
          "type": "bytes"
        }
      ],
      "payable": false,
      "stateMutability": "view",
      "type": "function"
    },
    {
      "constant": true,
      "inputs": [
        {
          "name": "_file",
          "type": "uint8"
        }
      ],
      "name": "hasBuffer",
      "outputs": [
        {
          "name": "exists",
          "type": "bool"
        }
      ],
      "payable": false,
      "stateMutability": "view",
      "type": "function"
    },
    {
      "constant": false,
      "inputs": [],
      "name": "unlist",
      "outputs": [
        {
          "name": "success",
          "type": "bool"
        }
      ],
      "payable": false,
      "stateMutability": "nonpayable",
      "type": "function"
    }
  ],
  "bytecode": "0x60806040526040805190810160405280600181526020017f3100000000000000000000000000000000000000000000000000000000000000815250600190805190602001906200005192919062000066565b503480156200005f57600080fd5b5062000115565b828054600181600116156101000203166002900490600052602060002090601f016020900481019282601f10620000a957805160ff1916838001178555620000da565b82800160010185558215620000da579182015b82811115620000d9578251825591602001919060010190620000bc565b5b509050620000e99190620000ed565b5090565b6200011291905b808211156200010e576000816000905550600101620000f4565b5090565b90565b612a7980620001256000396000f300608060405260043610610133576000357c0100000000000000000000000000000000000000000000000000000000900463ffffffff168063038cd79f146101385780631e0a1b95146101e75780632a6363be1461025f5780633e5ceede1461028e57806346f60dee146102a557806347269720146102fc5780634ddf47d41461032f578063546887a3146103985780635ee6fa61146103dd57806391b7f5ed14610422578063a0d585011461044f578063bb66f9f61461047e578063c9dbeb7c14610531578063cc3a08f814610579578063ce40b03f14610630578063ce605ea91461065b578063d56805e114610704578063dd1bb1fc1461075b578063e7663079146107eb578063f4e493d614610842578063f51b69791461088b578063f5bd3e3f146108c6578063f8b2cb4f1461090f575b600080fd5b34801561014457600080fd5b506101e5600480360381019080803590602001908201803590602001908080601f0160208091040260200160405190810160405280939291908181526020018383808284378201915050505050509192919290803590602001908201803590602001908080601f0160208091040260200160405190810160405280939291908181526020018383808284378201915050505050509192919290505050610966565b005b3480156101f357600080fd5b506102166004803603810190808035600019169060200190929190505050610b46565b604051808373ffffffffffffffffffffffffffffffffffffffff1673ffffffffffffffffffffffffffffffffffffffff1681526020018281526020019250505060405180910390f35b34801561026b57600080fd5b50610274610b8a565b604051808215151515815260200191505060405180910390f35b34801561029a57600080fd5b506102a3610b9d565b005b3480156102b157600080fd5b506102ba610e99565b604051808273ffffffffffffffffffffffffffffffffffffffff1673ffffffffffffffffffffffffffffffffffffffff16815260200191505060405180910390f35b34801561030857600080fd5b50610311610ebf565b60405180826000191660001916815260200191505060405180910390f35b34801561033b57600080fd5b50610396600480360381019080803590602001908201803590602001908080601f0160208091040260200160405190810160405280939291908181526020018383808284378201915050505050509192919290505050610ec5565b005b3480156103a457600080fd5b506103c76004803603810190808035600019169060200190929190505050610fed565b6040518082815260200191505060405180910390f35b3480156103e957600080fd5b5061040c6004803603810190808035600019169060200190929190505050611015565b6040518082815260200191505060405180910390f35b34801561042e57600080fd5b5061044d6004803603810190808035906020019092919050505061102d565b005b34801561045b57600080fd5b50610464611148565b604051808215151515815260200191505060405180910390f35b34801561048a57600080fd5b506104b6600480360381019080803560ff16906020019092919080359060200190929190505050611273565b6040518080602001828103825283818151815260200191508051906020019080838360005b838110156104f65780820151818401526020810190506104db565b50505050905090810190601f1680156105235780820380516001836020036101000a031916815260200191505b509250505060405180910390f35b34801561053d57600080fd5b5061055f600480360381019080803560ff169060200190929190505050611395565b604051808215151515815260200191505060405180910390f35b34801561058557600080fd5b5061062e600480360381019080803560001916906020019092919080359060200190820180359060200190808060200260200160405190810160405280939291908181526020018383602002808284378201915050505050509192919290803590602001908201803590602001908080602002602001604051908101604052809392919081815260200183836020028082843782019150505050505091929192905050506113ce565b005b34801561063c57600080fd5b506106456118dc565b6040518082815260200191505060405180910390f35b34801561066757600080fd5b50610689600480360381019080803560ff1690602001909291905050506118e2565b6040518080602001828103825283818151815260200191508051906020019080838360005b838110156106c95780820151818401526020810190506106ae565b50505050905090810190601f1680156106f65780820380516001836020036101000a031916815260200191505b509250505060405180910390f35b34801561071057600080fd5b50610719611992565b604051808273ffffffffffffffffffffffffffffffffffffffff1673ffffffffffffffffffffffffffffffffffffffff16815260200191505060405180910390f35b34801561076757600080fd5b506107706119b8565b6040518080602001828103825283818151815260200191508051906020019080838360005b838110156107b0578082015181840152602081019050610795565b50505050905090810190601f1680156107dd5780820380516001836020036101000a031916815260200191505b509250505060405180910390f35b3480156107f757600080fd5b50610800611a56565b604051808273ffffffffffffffffffffffffffffffffffffffff1673ffffffffffffffffffffffffffffffffffffffff16815260200191505060405180910390f35b34801561084e57600080fd5b506108896004803603810190808035600019169060200190929190803560001916906020019092919080359060200190929190505050611a7b565b005b34801561089757600080fd5b506108c4600480360381019080803560001916906020019092919080359060200190929190505050611ffb565b005b3480156108d257600080fd5b506108f5600480360381019080803560001916906020019092919050505061274c565b604051808215151515815260200191505060405180910390f35b34801561091b57600080fd5b50610950600480360381019080803573ffffffffffffffffffffffffffffffffffffffff16906020019092919050505061276c565b6040518082815260200191505060405180910390f35b6000809054906101000a900473ffffffffffffffffffffffffffffffffffffffff168073ffffffffffffffffffffffffffffffffffffffff163373ffffffffffffffffffffffffffffffffffffffff16141515610a2b576040517f08c379a00000000000000000000000000000000000000000000000000000000081526004018080602001828103825260168152602001807f53656e646572206e6f7420617574686f72697a65642e0000000000000000000081525060200191505060405180910390fd5b600560009054906101000a900460ff161515610aaf576040517f08c379a00000000000000000000000000000000000000000000000000000000081526004018080602001828103825260108152602001807f41465320697320756e6c69737465642e0000000000000000000000000000000081525060200191505060405180910390fd5b610ad783600a60008060ff16815260200190815260200160002061284d90919063ffffffff16565b610b0082600a6000600160ff16815260200190815260200160002061284d90919063ffffffff16565b7f9e8a51bb6b34b9d5d18c14fd753ee3bf44e2256512665a4577281ffcc91943ff60045460405180826000191660001916815260200191505060405180910390a1505050565b60076020528060005260406000206000915090508060000160009054906101000a900473ffffffffffffffffffffffffffffffffffffffff16908060010154905082565b600560009054906101000a900460ff1681565b600033604051602001808273ffffffffffffffffffffffffffffffffffffffff1673ffffffffffffffffffffffffffffffffffffffff166c010000000000000000000000000281526014019150506040516020818303038152906040526040518082805190602001908083835b602083101515610c2f5780518252602082019150602081019050602083039250610c0a565b6001836020036101000a03801982511681845116808217855250505050505090500191505060405180910390209050600060086000836000191660001916815260200190815260200160002054111515610cf1576040517f08c379a00000000000000000000000000000000000000000000000000000000081526004018080602001828103825260158152602001807f4e6f2062616c616e636520746f2072656465656d2e000000000000000000000081525060200191505060405180910390fd5b600260009054906101000a900473ffffffffffffffffffffffffffffffffffffffff1673ffffffffffffffffffffffffffffffffffffffff1663a9059cbb33600860008560001916600019168152602001908152602001600020546040518363ffffffff167c0100000000000000000000000000000000000000000000000000000000028152600401808373ffffffffffffffffffffffffffffffffffffffff1673ffffffffffffffffffffffffffffffffffffffff16815260200182815260200192505050602060405180830381600087803b158015610dd157600080fd5b505af1158015610de5573d6000803e3d6000fd5b505050506040513d6020811015610dfb57600080fd5b810190808051906020019092919050505015610e96576000600860008360001916600019168152602001908152602001600020819055507fcb7d87f76b4d6501ac27ed560664bf84ce273a2ddd7b9b1da63c753e68ccae2033604051808273ffffffffffffffffffffffffffffffffffffffff1673ffffffffffffffffffffffffffffffffffffffff16815260200191505060405180910390a15b50565b600360009054906101000a900473ffffffffffffffffffffffffffffffffffffffff1681565b60045481565b600080600080600060208601945084519350604086019450845192506060860194508451915060808601945084519050836000806101000a81548173ffffffffffffffffffffffffffffffffffffffff021916908373ffffffffffffffffffffffffffffffffffffffff16021790555082600260006101000a81548173ffffffffffffffffffffffffffffffffffffffff021916908373ffffffffffffffffffffffffffffffffffffffff16021790555081600360006101000a81548173ffffffffffffffffffffffffffffffffffffffff021916908373ffffffffffffffffffffffffffffffffffffffff16021790555080600481600019169055506001600560006101000a81548160ff0219169083151502179055506000600681905550505050505050565b6000600760008360001916600019168152602001908152602001600020600101549050919050565b60086020528060005260406000206000915090505481565b6000809054906101000a900473ffffffffffffffffffffffffffffffffffffffff168073ffffffffffffffffffffffffffffffffffffffff163373ffffffffffffffffffffffffffffffffffffffff161415156110f2576040517f08c379a00000000000000000000000000000000000000000000000000000000081526004018080602001828103825260168152602001807f53656e646572206e6f7420617574686f72697a65642e0000000000000000000081525060200191505060405180910390fd5b816006819055507fee47534b2400bc7be3fbdc39f0283b8643fc472a30ffd7324e6161b4b2b91f246004546006546040518083600019166000191681526020018281526020019250505060405180910390a15050565b60008060009054906101000a900473ffffffffffffffffffffffffffffffffffffffff168073ffffffffffffffffffffffffffffffffffffffff163373ffffffffffffffffffffffffffffffffffffffff1614151561120f576040517f08c379a00000000000000000000000000000000000000000000000000000000081526004018080602001828103825260168152602001807f53656e646572206e6f7420617574686f72697a65642e0000000000000000000081525060200191505060405180910390fd5b6000600560006101000a81548160ff0219169083151502179055507f2e6ec049d62c8a42e7cc223354aadb68d5046a2cba67ed55a089fdb852fb6cb660045460405180826000191660001916815260200191505060405180910390a1600191505090565b606060006060600560009054906101000a900460ff1615156112a7576020604051908101604052806000815250925061138d565b60008560ff16146112b95760406112bc565b60285b9150611387848360ff16600a60008960ff1660ff1681526020019081526020016000208054600181600116156101000203166002900480601f0160208091040260200160405190810160405280929190818152602001828054600181600116156101000203166002900480156113735780601f1061134857610100808354040283529160200191611373565b820191906000526020600020905b81548152906001019060200180831161135657829003601f168201915b50505050506129c09092919063ffffffff16565b90508092505b505092915050565b600080600a60008460ff1660ff168152602001908152602001600020805460018160011615610100020316600290049050119050919050565b600080600080863373ffffffffffffffffffffffffffffffffffffffff1660076000836000191660001916815260200190815260200160002060000160009054906101000a900473ffffffffffffffffffffffffffffffffffffffff1673ffffffffffffffffffffffffffffffffffffffff1614801561146c5750600060076000836000191660001916815260200190815260200160002060010154115b15156114e0576040517f08c379a000000000000000000000000000000000000000000000000000000000815260040180806020018281038252600f8152602001807f4a6f6220697320696e76616c69642e000000000000000000000000000000000081525060200191505060405180910390fd5b8551875114151561157f576040517f08c379a00000000000000000000000000000000000000000000000000000000081526004018080602001828103825260268152602001807f556e657175616c206e756d626572206f66206661726d65727320616e6420726581526020017f77617264732e000000000000000000000000000000000000000000000000000081525060400191505060405180910390fd5b600093505b85518460ff1610156115bc57858460ff168151811015156115a157fe5b90602001906020020151850194508380600101945050611584565b600760008960001916600019168152602001908152602001600020600101548511151515611652576040517f08c379a00000000000000000000000000000000000000000000000000000000081526004018080602001828103825260148152602001807f496e73756666696369656e74206275646765742e00000000000000000000000081525060200191505060405180910390fd5b600092505b86518360ff16101561174e57858360ff1681518110151561167457fe5b90602001906020020151600760008a6000191660001916815260200190815260200160002060010154101515156116a757fe5b858360ff168151811015156116b857fe5b9060200190602002015160086000898660ff168151811015156116d757fe5b906020019060200201516000191660001916815260200190815260200160002081905550858360ff1681518110151561170c57fe5b90602001906020020151600760008a60001916600019168152602001908152602001600020600101600082825403925050819055508280600101935050611657565b600760008960001916600019168152602001908152602001600020600101549150600082111561188157816008600033604051602001808273ffffffffffffffffffffffffffffffffffffffff1673ffffffffffffffffffffffffffffffffffffffff166c010000000000000000000000000281526014019150506040516020818303038152906040526040518082805190602001908083835b60208310151561180d57805182526020820191506020810190506020830392506117e8565b6001836020036101000a038019825116818451168082178552505050505050905001915050604051809103902060001916600019168152602001908152602001600020819055506000600760008a6000191660001916815260200190815260200160002060010181905550611880610b9d565b5b7f2bd45e0776b585a6e4ce4cc376082ac45c657ad116f95f80480b6343678354e86004548684604051808460001916600019168152602001838152602001828152602001935050505060405180910390a15050505050505050565b60065481565b600a6020528060005260406000206000915090508054600181600116156101000203166002900480601f01602080910402602001604051908101604052809291908181526020018280546001816001161561010002031660029004801561198a5780601f1061195f5761010080835404028352916020019161198a565b820191906000526020600020905b81548152906001019060200180831161196d57829003601f168201915b505050505081565b600260009054906101000a900473ffffffffffffffffffffffffffffffffffffffff1681565b60018054600181600116156101000203166002900480601f016020809104026020016040519081016040528092919081815260200182805460018160011615610100020316600290048015611a4e5780601f10611a2357610100808354040283529160200191611a4e565b820191906000526020600020905b815481529060010190602001808311611a3157829003601f168201915b505050505081565b6000809054906101000a900473ffffffffffffffffffffffffffffffffffffffff1681565b600080600260009054906101000a900473ffffffffffffffffffffffffffffffffffffffff1673ffffffffffffffffffffffffffffffffffffffff1663dd62ed3e33306040518363ffffffff167c0100000000000000000000000000000000000000000000000000000000028152600401808373ffffffffffffffffffffffffffffffffffffffff1673ffffffffffffffffffffffffffffffffffffffff1681526020018273ffffffffffffffffffffffffffffffffffffffff1673ffffffffffffffffffffffffffffffffffffffff16815260200192505050602060405180830381600087803b158015611b6f57600080fd5b505af1158015611b83573d6000803e3d6000fd5b505050506040513d6020811015611b9957600080fd5b8101908080519060200190929190505050915033604051602001808273ffffffffffffffffffffffffffffffffffffffff1673ffffffffffffffffffffffffffffffffffffffff166c010000000000000000000000000281526014019150506040516020818303038152906040526040518082805190602001908083835b602083101515611c3c5780518252602082019150602081019050602083039250611c17565b6001836020036101000a0380198251168184511680821785525050505050509050019150506040518091039020905060096000826000191660001916815260200190815260200160002060009054906101000a900460ff16158015611ca5575082600654018210155b1515611d19576040517f08c379a00000000000000000000000000000000000000000000000000000000081526004018080602001828103825260138152602001807f556e61626c6520746f2070757263686173652e0000000000000000000000000081525060200191505060405180910390fd5b600260009054906101000a900473ffffffffffffffffffffffffffffffffffffffff1673ffffffffffffffffffffffffffffffffffffffff166323b872dd336000809054906101000a900473ffffffffffffffffffffffffffffffffffffffff166006546040518463ffffffff167c0100000000000000000000000000000000000000000000000000000000028152600401808473ffffffffffffffffffffffffffffffffffffffff1673ffffffffffffffffffffffffffffffffffffffff1681526020018373ffffffffffffffffffffffffffffffffffffffff1673ffffffffffffffffffffffffffffffffffffffff1681526020018281526020019350505050602060405180830381600087803b158015611e3557600080fd5b505af1158015611e49573d6000803e3d6000fd5b505050506040513d6020811015611e5f57600080fd5b810190808051906020019092919050505015611ff457600160096000836000191660001916815260200190815260200160002060006101000a81548160ff021916908315150217905550600360009054906101000a900473ffffffffffffffffffffffffffffffffffffffff1673ffffffffffffffffffffffffffffffffffffffff16630c2bb965866004546040518363ffffffff167c0100000000000000000000000000000000000000000000000000000000028152600401808360001916600019168152602001826000191660001916815260200192505050600060405180830381600087803b158015611f5457600080fd5b505af1158015611f68573d6000803e3d6000fd5b505050507fc9d8798aa8f5b15acd47a7a1cbfb474f3526514c658ca3e3f24c7fcf01f9a738856004546006546040518084600019166000191681526020018360001916600019168152602001828152602001935050505060405180910390a1600060010260001916846000191614158015611fe35750600083115b15611ff357611ff28484611ffb565b5b5b5050505050565b60006009600033604051602001808273ffffffffffffffffffffffffffffffffffffffff1673ffffffffffffffffffffffffffffffffffffffff166c010000000000000000000000000281526014019150506040516020818303038152906040526040518082805190602001908083835b602083101515612091578051825260208201915060208101905060208303925061206c565b6001836020036101000a03801982511681845116808217855250505050505090500191505060405180910390206000191660001916815260200190815260200160002060009054906101000a900460ff161515612156576040517f08c379a000000000000000000000000000000000000000000000000000000000815260040180806020018281038252601c8152602001807f436f6e74656e7420776173206e65766572207075726368617365642e0000000081525060200191505060405180910390fd5b600260009054906101000a900473ffffffffffffffffffffffffffffffffffffffff1673ffffffffffffffffffffffffffffffffffffffff1663dd62ed3e33306040518363ffffffff167c0100000000000000000000000000000000000000000000000000000000028152600401808373ffffffffffffffffffffffffffffffffffffffff1673ffffffffffffffffffffffffffffffffffffffff1681526020018273ffffffffffffffffffffffffffffffffffffffff1673ffffffffffffffffffffffffffffffffffffffff16815260200192505050602060405180830381600087803b15801561224757600080fd5b505af115801561225b573d6000803e3d6000fd5b505050506040513d602081101561227157600080fd5b810190808051906020019092919050505090506000600102600019168360001916141580156122a05750600082115b80156122ac5750818110155b80156123965750600073ffffffffffffffffffffffffffffffffffffffff1660076000856000191660001916815260200190815260200160002060000160009054906101000a900473ffffffffffffffffffffffffffffffffffffffff1673ffffffffffffffffffffffffffffffffffffffff16148061239557503373ffffffffffffffffffffffffffffffffffffffff1660076000856000191660001916815260200190815260200160002060000160009054906101000a900473ffffffffffffffffffffffffffffffffffffffff1673ffffffffffffffffffffffffffffffffffffffff16145b5b151561240a576040517f08c379a00000000000000000000000000000000000000000000000000000000081526004018080602001828103825260178152602001807f4a6f62207375626d697373696f6e20696e76616c69642e00000000000000000081525060200191505060405180910390fd5b600260009054906101000a900473ffffffffffffffffffffffffffffffffffffffff1673ffffffffffffffffffffffffffffffffffffffff166323b872dd3330856040518463ffffffff167c0100000000000000000000000000000000000000000000000000000000028152600401808473ffffffffffffffffffffffffffffffffffffffff1673ffffffffffffffffffffffffffffffffffffffff1681526020018373ffffffffffffffffffffffffffffffffffffffff1673ffffffffffffffffffffffffffffffffffffffff1681526020018281526020019350505050602060405180830381600087803b15801561250357600080fd5b505af1158015612517573d6000803e3d6000fd5b505050506040513d602081101561252d57600080fd5b8101908080519060200190929190505050156127475781600760008560001916600019168152602001908152602001600020600101600082825401925050819055503360076000856000191660001916815260200190815260200160002060000160006101000a81548173ffffffffffffffffffffffffffffffffffffffff021916908373ffffffffffffffffffffffffffffffffffffffff160217905550600260009054906101000a900473ffffffffffffffffffffffffffffffffffffffff1673ffffffffffffffffffffffffffffffffffffffff166370a08231306040518263ffffffff167c0100000000000000000000000000000000000000000000000000000000028152600401808273ffffffffffffffffffffffffffffffffffffffff1673ffffffffffffffffffffffffffffffffffffffff168152602001915050602060405180830381600087803b15801561268957600080fd5b505af115801561269d573d6000803e3d6000fd5b505050506040513d60208110156126b357600080fd5b810190808051906020019092919050505060076000856000191660001916815260200190815260200160002060010154111515156126ed57fe5b7f4521c984beed01d188bcc3bd297e6530cd217723b880fa43c70fbcbd664fb2ac60045484846040518084600019166000191681526020018360001916600019168152602001828152602001935050505060405180910390a15b505050565b60096020528060005260406000206000915054906101000a900460ff1681565b60006008600083604051602001808273ffffffffffffffffffffffffffffffffffffffff1673ffffffffffffffffffffffffffffffffffffffff166c010000000000000000000000000281526014019150506040516020818303038152906040526040518082805190602001908083835b60208310151561280257805182526020820191506020810190506020830392506127dd565b6001836020036101000a038019825116818451168082178552505050505050905001915050604051809103902060001916600019168152602001908152602001600020549050919050565b8154600260018083161561010002038216048251808201602081106020841001600281146128fe5760018114612923578660005260208404602060002001600160028402018855602085066020850681602003808a01878b016001836101000a038083511687540187556001870196506020830192505b818310156128e157825187556001870196506020830192506128c4565b8183036101000a90508081845104028755505050505050506129b7565b60028302826020036101000a846020036101000a6020890151040201850187556129b7565b8660005260208404602060002001600160028402018855846020038088018589016001836101000a03808351167fffffffffffffffffffffffffffffffffffffffffffffffffffffffffffffff008b160185556020830192506001850194505b818310156129a05782518555600185019450602083019250612983565b8183036101000a9050808184510402855550505050505b50505050505050565b6060808284018551101515156129d557600080fd5b8215600081146129f057604051915060208201604052612a41565b6040519150601f8416801560200281840101858101878315602002848b0101015b81831015612a2e5780518352602083019250602081019050612a11565b50868552601f19601f8301166040525050505b508091505093925050505600a165627a7a72305820636981e64ff7a66a9da644253311dacc70226603ff72bec120d34c5e0b693c800029",
  "source": "pragma solidity ^0.4.24;\n\nimport \"./Library.sol\";\nimport \"./AraToken.sol\";\nimport \"bytes/BytesLib.sol\";\n\ncontract AFS {\n\n  using BytesLib for bytes;\n\n  address  public owner_;\n  string   public version_ = \"1\";\n\n  AraToken public token_;\n  Library  public lib_;\n\n  bytes32  public did_;\n  bool     public listed_;\n  uint256  public price_;\n\n  mapping(bytes32 => Job)     public jobs_; // jobId => job { budget, sender }\n  mapping(bytes32 => uint256) public rewards_;    // farmer => rewards\n  mapping(bytes32 => bool)    public purchasers_; // keccak256 hashes of buyer addresses\n  mapping(uint8 => bytes)     public metadata_;\n\n  struct Job {\n    address sender;\n    uint256 budget;\n  }\n\n  event Commit(bytes32 _did);\n  event Unlisted(bytes32 _did);\n  event PriceSet(bytes32 _did, uint256 _price);\n  event BudgetSubmitted(bytes32 _did, bytes32 _jobId, uint256 _budget);\n  event RewardsAllocated(bytes32 _did, uint256 _allocated, uint256 _returned);\n  event Purchased(bytes32 _purchaser, bytes32 _did, uint256 _price);\n  event Redeemed(address _sender);\n\n  uint8 constant mtBufferSize_ = 40;\n  uint8 constant msBufferSize_ = 64;\n\n  modifier onlyBy(address _account)\n  {\n    require(\n      msg.sender == _account,\n      \"Sender not authorized.\"\n    );\n    _;\n  }\n\n  modifier purchaseRequired()\n  {\n    require(\n      purchasers_[keccak256(abi.encodePacked(msg.sender))],\n      \"Content was never purchased.\"\n    );\n    _;\n  }\n\n  modifier budgetSubmitted(bytes32 _jobId)\n  {\n    require(\n      jobs_[_jobId].sender == msg.sender && jobs_[_jobId].budget > 0,\n      \"Job is invalid.\"\n    );\n    _;\n  }\n\n  function init(bytes _data) public {\n    uint256 btsptr;\n    address ownerAddr;\n    address tokenAddr;\n    address libAddr;\n    bytes32 did;\n    /* solium-disable-next-line security/no-inline-assembly */\n    assembly {\n        btsptr := add(_data, 32)\n        ownerAddr := mload(btsptr)\n        btsptr := add(_data, 64)\n        tokenAddr := mload(btsptr)\n        btsptr := add(_data, 96)\n        libAddr := mload(btsptr)\n        btsptr := add(_data, 128)\n        did := mload(btsptr)\n    }\n    owner_    = ownerAddr;\n    token_    = AraToken(tokenAddr);\n    lib_      = Library(libAddr);\n    did_      = did;\n    listed_   = true;\n    price_    = 0;\n  }\n\n  function setPrice(uint256 _price) external onlyBy(owner_) {\n    price_ = _price;\n    emit PriceSet(did_, price_);\n  }\n\n  function submitBudget(bytes32 _jobId, uint256 _budget) public purchaseRequired {\n    uint256 allowance = token_.allowance(msg.sender, address(this));\n    require(_jobId != bytes32(0) && _budget > 0 && allowance >= _budget\n      && (jobs_[_jobId].sender == address(0) || jobs_[_jobId].sender == msg.sender), \"Job submission invalid.\");\n\n    if (token_.transferFrom(msg.sender, address(this), _budget)) {\n      jobs_[_jobId].budget += _budget;\n      jobs_[_jobId].sender = msg.sender;\n      assert(jobs_[_jobId].budget <= token_.balanceOf(address(this)));\n      emit BudgetSubmitted(did_, _jobId, _budget);\n    }\n  }\n\n  function allocateRewards(bytes32 _jobId, bytes32[] _farmers, uint256[] _rewards) public budgetSubmitted(_jobId) {\n    require(_farmers.length == _rewards.length, \"Unequal number of farmers and rewards.\");\n    uint256 totalRewards;\n    for (uint8 i = 0; i < _rewards.length; i++) {\n      totalRewards += _rewards[i];\n    }\n    require(totalRewards <= jobs_[_jobId].budget, \"Insufficient budget.\");\n    for (uint8 j = 0; j < _farmers.length; j++) {\n      assert(jobs_[_jobId].budget >= _rewards[j]);\n      rewards_[_farmers[j]] = _rewards[j];\n      jobs_[_jobId].budget -= _rewards[j];\n    }\n    uint256 remaining = jobs_[_jobId].budget;\n    if (remaining > 0) {\n      rewards_[keccak256(abi.encodePacked(msg.sender))] = remaining;\n      jobs_[_jobId].budget = 0;\n      redeemBalance();\n    }\n    emit RewardsAllocated(did_, totalRewards, remaining);\n  }\n\n  function redeemBalance() public {\n    bytes32 hashedAddress = keccak256(abi.encodePacked(msg.sender));\n    require(rewards_[hashedAddress] > 0, \"No balance to redeem.\");\n    if (token_.transfer(msg.sender, rewards_[hashedAddress])) {\n      rewards_[hashedAddress] = 0;\n      emit Redeemed(msg.sender);\n    }\n  }\n\n  function getBalance(address _farmer) public view returns (uint256) {\n    return rewards_[keccak256(abi.encodePacked(_farmer))];\n  }\n\n  function getBudget(bytes32 _jobId) public view returns (uint256) {\n    return jobs_[_jobId].budget;\n  }\n\n  /**\n   * @dev Purchases this AFS and adds it to _purchaser's library. \n   *      If _download is true, deposits any remaining allowance \n   *      as rewards for this purchase\n   * @param _purchaser The hashed methodless did of the purchaser\n   * @param _jobId The jobId of the download, or 0x00000000000000000000000000000000 if N/A\n   * @param _budget The reward budget for jobId, or 0 if N/A\n   */\n  function purchase(bytes32 _purchaser, bytes32 _jobId, uint256 _budget) external {\n    uint256 allowance = token_.allowance(msg.sender, address(this));\n    bytes32 hashedAddress = keccak256(abi.encodePacked(msg.sender));\n    require (!purchasers_[hashedAddress] && allowance >= price_ + _budget, \"Unable to purchase.\");\n\n    if (token_.transferFrom(msg.sender, owner_, price_)) {\n      purchasers_[hashedAddress] = true;\n      lib_.addLibraryItem(_purchaser, did_);\n      emit Purchased(_purchaser, did_, price_);\n\n      if (_jobId != bytes32(0) && _budget > 0) {\n        submitBudget(_jobId, _budget);\n      }\n    }\n  }\n\n  function write(bytes _mtBuffer, bytes _msBuffer) public onlyBy(owner_) {\n    require(listed_, \"AFS is unlisted.\");\n\n    metadata_[0].concatStorage(_mtBuffer);\n    metadata_[1].concatStorage(_msBuffer);\n\n    emit Commit(did_);\n  }\n\n  function read(uint8 _file, uint256 _offset) public view returns (bytes buffer) {\n    if (!listed_) {\n      return \"\"; // empty bytes\n    }\n    uint8 size = _file == 0 ? mtBufferSize_ : msBufferSize_;\n    bytes memory buf = metadata_[_file].slice(_offset, size);\n    return buf;\n  }\n\n  function hasBuffer(uint8 _file) public view returns (bool exists) {\n    return metadata_[_file].length > 0;\n  }\n\n  function unlist() public onlyBy(owner_) returns (bool success) {\n    listed_ = false;\n    emit Unlisted(did_);\n    return true;\n  }\n}\n",
  "sourcePath": "/Users/charles/Desktop/Development/Ara/ara-contracts/contracts/AFS.sol",
  "compiler": {
    "name": "solc",
    "version": "0.4.24+commit.e67f0147.Emscripten.clang"
  },
  "schemaVersion": "2.0.1",
  "updatedAt": "2018-09-20T18:43:46.185Z"
}