{
  "contractName": "AFS",
  "abi": [
    {
      "constant": true,
      "inputs": [],
      "name": "minResalePrice_",
      "outputs": [
        {
          "name": "",
          "type": "uint256"
        }
      ],
      "payable": false,
      "stateMutability": "view",
      "type": "function"
    },
    {
      "constant": true,
      "inputs": [
        {
          "name": "",
          "type": "uint256"
        }
      ],
      "name": "priceTiers_",
      "outputs": [
        {
          "name": "",
          "type": "uint256"
        }
      ],
      "payable": false,
      "stateMutability": "view",
      "type": "function"
    },
    {
      "constant": true,
      "inputs": [
        {
          "name": "",
          "type": "bytes32"
        }
      ],
      "name": "jobs_",
      "outputs": [
        {
          "name": "sender",
          "type": "address"
        },
        {
          "name": "budget",
          "type": "uint256"
        }
      ],
      "payable": false,
      "stateMutability": "view",
      "type": "function"
    },
    {
      "constant": true,
      "inputs": [
        {
          "name": "",
          "type": "bytes32"
        }
      ],
      "name": "purchases_",
      "outputs": [
        {
          "name": "quantity",
          "type": "uint256"
        }
      ],
      "payable": false,
      "stateMutability": "view",
      "type": "function"
    },
    {
      "constant": true,
      "inputs": [],
      "name": "listed_",
      "outputs": [
        {
          "name": "",
          "type": "bool"
        }
      ],
      "payable": false,
      "stateMutability": "view",
      "type": "function"
    },
    {
      "constant": true,
      "inputs": [],
      "name": "resellable_",
      "outputs": [
        {
          "name": "",
          "type": "bool"
        }
      ],
      "payable": false,
      "stateMutability": "view",
      "type": "function"
    },
    {
      "constant": true,
      "inputs": [
        {
          "name": "",
          "type": "uint8"
        },
        {
          "name": "",
          "type": "uint256"
        }
      ],
      "name": "metadata_",
      "outputs": [
        {
          "name": "",
          "type": "bytes"
        }
      ],
      "payable": false,
      "stateMutability": "view",
      "type": "function"
    },
    {
      "constant": true,
      "inputs": [],
      "name": "lib_",
      "outputs": [
        {
          "name": "",
          "type": "address"
        }
      ],
      "payable": false,
      "stateMutability": "view",
      "type": "function"
    },
    {
      "constant": true,
      "inputs": [],
      "name": "did_",
      "outputs": [
        {
          "name": "",
          "type": "bytes32"
        }
      ],
      "payable": false,
      "stateMutability": "view",
      "type": "function"
    },
    {
      "constant": false,
      "inputs": [
        {
          "name": "_newOwner",
          "type": "address"
        }
      ],
      "name": "approveOwnershipTransfer",
      "outputs": [],
      "payable": false,
      "stateMutability": "nonpayable",
      "type": "function"
    },
    {
      "constant": true,
      "inputs": [
        {
          "name": "",
          "type": "bytes32"
        }
      ],
      "name": "rewards_",
      "outputs": [
        {
          "name": "",
          "type": "uint256"
        }
      ],
      "payable": false,
      "stateMutability": "view",
      "type": "function"
    },
    {
      "constant": true,
      "inputs": [],
      "name": "maxNumResales_",
      "outputs": [
        {
          "name": "",
          "type": "uint256"
        }
      ],
      "payable": false,
      "stateMutability": "view",
      "type": "function"
    },
    {
      "constant": false,
      "inputs": [],
      "name": "requestOwnership",
      "outputs": [],
      "payable": false,
      "stateMutability": "nonpayable",
      "type": "function"
    },
    {
      "constant": true,
      "inputs": [
        {
          "name": "",
          "type": "bytes32"
        }
      ],
      "name": "requesters_",
      "outputs": [
        {
          "name": "",
          "type": "bool"
        }
      ],
      "payable": false,
      "stateMutability": "view",
      "type": "function"
    },
    {
      "constant": true,
      "inputs": [],
      "name": "token_",
      "outputs": [
        {
          "name": "",
          "type": "address"
        }
      ],
      "payable": false,
      "stateMutability": "view",
      "type": "function"
    },
    {
      "constant": true,
      "inputs": [],
      "name": "totalCopies_",
      "outputs": [
        {
          "name": "",
          "type": "int256"
        }
      ],
      "payable": false,
      "stateMutability": "view",
      "type": "function"
    },
    {
      "constant": true,
      "inputs": [],
      "name": "owner_",
      "outputs": [
        {
          "name": "",
          "type": "address"
        }
      ],
      "payable": false,
      "stateMutability": "view",
      "type": "function"
    },
    {
      "constant": true,
      "inputs": [
        {
          "name": "",
          "type": "uint256"
        }
      ],
      "name": "prices_",
      "outputs": [
        {
          "name": "",
          "type": "uint256"
        }
      ],
      "payable": false,
      "stateMutability": "view",
      "type": "function"
    },
    {
      "constant": false,
      "inputs": [],
      "name": "revokeOwnershipRequest",
      "outputs": [],
      "payable": false,
      "stateMutability": "nonpayable",
      "type": "function"
    },
    {
      "anonymous": false,
      "inputs": [
        {
          "indexed": false,
          "name": "_did",
          "type": "bytes32"
        }
      ],
      "name": "Commit",
      "type": "event"
    },
    {
      "anonymous": false,
      "inputs": [
        {
          "indexed": false,
          "name": "_did",
          "type": "bytes32"
        }
      ],
      "name": "Unlisted",
      "type": "event"
    },
    {
      "anonymous": false,
      "inputs": [
        {
          "indexed": false,
          "name": "_did",
          "type": "bytes32"
        }
      ],
      "name": "Listed",
      "type": "event"
    },
    {
      "anonymous": false,
      "inputs": [
        {
          "indexed": false,
          "name": "_did",
          "type": "bytes32"
        },
        {
          "indexed": false,
          "name": "_price",
          "type": "uint256"
        }
      ],
      "name": "MinResalePriceSet",
      "type": "event"
    },
    {
      "anonymous": false,
      "inputs": [
        {
          "indexed": false,
          "name": "_did",
          "type": "bytes32"
        },
        {
          "indexed": false,
          "name": "_purchaser",
          "type": "address"
        },
        {
          "indexed": false,
          "name": "_price",
          "type": "uint256"
        }
      ],
      "name": "ResalePriceSet",
      "type": "event"
    },
    {
      "anonymous": false,
      "inputs": [
        {
          "indexed": false,
          "name": "_did",
          "type": "bytes32"
        },
        {
          "indexed": false,
          "name": "_quantity",
          "type": "uint256"
        }
      ],
      "name": "MaxNumResalesSet",
      "type": "event"
    },
    {
      "anonymous": false,
      "inputs": [
        {
          "indexed": false,
          "name": "_did",
          "type": "bytes32"
        },
        {
          "indexed": false,
          "name": "_quantity",
          "type": "uint256"
        },
        {
          "indexed": false,
          "name": "_price",
          "type": "uint256"
        }
      ],
      "name": "PriceSet",
      "type": "event"
    },
    {
      "anonymous": false,
      "inputs": [
        {
          "indexed": false,
          "name": "_did",
          "type": "bytes32"
        },
        {
          "indexed": false,
          "name": "_jobId",
          "type": "bytes32"
        },
        {
          "indexed": false,
          "name": "_budget",
          "type": "uint256"
        }
      ],
      "name": "BudgetSubmitted",
      "type": "event"
    },
    {
      "anonymous": false,
      "inputs": [
        {
          "indexed": false,
          "name": "_did",
          "type": "bytes32"
        },
        {
          "indexed": false,
          "name": "_allocated",
          "type": "uint256"
        },
        {
          "indexed": false,
          "name": "_returned",
          "type": "uint256"
        }
      ],
      "name": "RewardsAllocated",
      "type": "event"
    },
    {
      "anonymous": false,
      "inputs": [
        {
          "indexed": false,
          "name": "_purchaser",
          "type": "bytes32"
        },
        {
          "indexed": false,
          "name": "_did",
          "type": "bytes32"
        },
        {
          "indexed": false,
          "name": "_quantity",
          "type": "uint256"
        },
        {
          "indexed": false,
          "name": "_price",
          "type": "uint256"
        },
        {
          "indexed": false,
          "name": "_configID",
          "type": "bytes32"
        }
      ],
      "name": "Purchased",
      "type": "event"
    },
    {
      "anonymous": false,
      "inputs": [
        {
          "indexed": false,
          "name": "_purchaser",
          "type": "bytes32"
        },
        {
          "indexed": false,
          "name": "_seller",
          "type": "address"
        },
        {
          "indexed": false,
          "name": "_did",
          "type": "bytes32"
        },
        {
          "indexed": false,
          "name": "_quantity",
          "type": "uint256"
        },
        {
          "indexed": false,
          "name": "_price",
          "type": "uint256"
        },
        {
          "indexed": false,
          "name": "_configID",
          "type": "bytes32"
        }
      ],
      "name": "PurchasedResale",
      "type": "event"
    },
    {
      "anonymous": false,
      "inputs": [
        {
          "indexed": false,
          "name": "_sender",
          "type": "address"
        }
      ],
      "name": "Redeemed",
      "type": "event"
    },
    {
      "anonymous": false,
      "inputs": [
        {
          "indexed": false,
          "name": "_did",
          "type": "bytes32"
        },
        {
          "indexed": false,
          "name": "_added",
          "type": "int256"
        },
        {
          "indexed": false,
          "name": "_total",
          "type": "int256"
        }
      ],
      "name": "IncreasedSupply",
      "type": "event"
    },
    {
      "anonymous": false,
      "inputs": [
        {
          "indexed": false,
          "name": "_did",
          "type": "bytes32"
        },
        {
          "indexed": false,
          "name": "_removed",
          "type": "int256"
        },
        {
          "indexed": false,
          "name": "_total",
          "type": "int256"
        }
      ],
      "name": "DecreasedSupply",
      "type": "event"
    },
    {
      "anonymous": false,
      "inputs": [
        {
          "indexed": false,
          "name": "_did",
          "type": "bytes32"
        },
        {
          "indexed": false,
          "name": "_quantity",
          "type": "int256"
        }
      ],
      "name": "SupplySet",
      "type": "event"
    },
    {
      "anonymous": false,
      "inputs": [
        {
          "indexed": false,
          "name": "_did",
          "type": "bytes32"
        },
        {
          "indexed": false,
          "name": "_seller",
          "type": "address"
        },
        {
          "indexed": false,
          "name": "_available",
          "type": "uint256"
        }
      ],
      "name": "ResaleUnlocked",
      "type": "event"
    },
    {
      "anonymous": false,
      "inputs": [
        {
          "indexed": false,
          "name": "_did",
          "type": "bytes32"
        },
        {
          "indexed": false,
          "name": "_seller",
          "type": "address"
        },
        {
          "indexed": false,
          "name": "_available",
          "type": "uint256"
        }
      ],
      "name": "ResaleLocked",
      "type": "event"
    },
    {
      "anonymous": false,
      "inputs": [
        {
          "indexed": true,
          "name": "_previousOwner",
          "type": "address"
        },
        {
          "indexed": true,
          "name": "_newOwner",
          "type": "address"
        }
      ],
      "name": "TransferApproved",
      "type": "event"
    },
    {
      "anonymous": false,
      "inputs": [
        {
          "indexed": true,
          "name": "_currentOwner",
          "type": "address"
        },
        {
          "indexed": true,
          "name": "_requestedOwner",
          "type": "address"
        }
      ],
      "name": "TransferRequested",
      "type": "event"
    },
    {
      "anonymous": false,
      "inputs": [
        {
          "indexed": true,
          "name": "_currentOwner",
          "type": "address"
        },
        {
          "indexed": true,
          "name": "_requestOwner",
          "type": "address"
        }
      ],
      "name": "RequestRevoked",
      "type": "event"
    },
    {
      "constant": false,
      "inputs": [
        {
          "name": "_data",
          "type": "bytes"
        }
      ],
      "name": "init",
      "outputs": [],
      "payable": false,
      "stateMutability": "nonpayable",
      "type": "function"
    },
    {
      "constant": false,
      "inputs": [],
      "name": "list",
      "outputs": [],
      "payable": false,
      "stateMutability": "nonpayable",
      "type": "function"
    },
    {
      "constant": false,
      "inputs": [],
      "name": "unlist",
      "outputs": [],
      "payable": false,
      "stateMutability": "nonpayable",
      "type": "function"
    },
    {
      "constant": false,
      "inputs": [
        {
          "name": "_quantity",
          "type": "uint256"
        },
        {
          "name": "_price",
          "type": "uint256"
        }
      ],
      "name": "setPrice",
      "outputs": [],
      "payable": false,
      "stateMutability": "nonpayable",
      "type": "function"
    },
    {
      "constant": true,
      "inputs": [
        {
          "name": "_quantity",
          "type": "uint256"
        }
      ],
      "name": "getPrice",
      "outputs": [
        {
          "name": "",
          "type": "uint256"
        }
      ],
      "payable": false,
      "stateMutability": "view",
      "type": "function"
    },
    {
      "constant": false,
      "inputs": [
        {
          "name": "_quantity",
          "type": "uint256"
        }
      ],
      "name": "removePriceTier",
      "outputs": [],
      "payable": false,
      "stateMutability": "nonpayable",
      "type": "function"
    },
    {
      "constant": false,
      "inputs": [
        {
          "name": "_price",
          "type": "uint256"
        }
      ],
      "name": "setMinResalePrice",
      "outputs": [],
      "payable": false,
      "stateMutability": "nonpayable",
      "type": "function"
    },
    {
      "constant": false,
      "inputs": [
        {
          "name": "_quantity",
          "type": "uint256"
        }
      ],
      "name": "setResaleQuantity",
      "outputs": [],
      "payable": false,
      "stateMutability": "nonpayable",
      "type": "function"
    },
    {
      "constant": false,
      "inputs": [
        {
          "name": "_quantity",
          "type": "int256"
        }
      ],
      "name": "setSupply",
      "outputs": [],
      "payable": false,
      "stateMutability": "nonpayable",
      "type": "function"
    },
    {
      "constant": false,
      "inputs": [
        {
          "name": "_quantity",
          "type": "int256"
        }
      ],
      "name": "increaseSupply",
      "outputs": [],
      "payable": false,
      "stateMutability": "nonpayable",
      "type": "function"
    },
    {
      "constant": false,
      "inputs": [
        {
          "name": "_quantity",
          "type": "int256"
        }
      ],
      "name": "decreaseSupply",
      "outputs": [],
      "payable": false,
      "stateMutability": "nonpayable",
      "type": "function"
    },
    {
      "constant": false,
      "inputs": [],
      "name": "setUnlimitedSupply",
      "outputs": [],
      "payable": false,
      "stateMutability": "nonpayable",
      "type": "function"
    },
    {
      "constant": false,
      "inputs": [
        {
          "name": "_configID",
          "type": "bytes32"
        },
        {
          "name": "_quantity",
          "type": "uint256"
        }
      ],
      "name": "unlockResale",
      "outputs": [],
      "payable": false,
      "stateMutability": "nonpayable",
      "type": "function"
    },
    {
      "constant": false,
      "inputs": [
        {
          "name": "_configID",
          "type": "bytes32"
        },
        {
          "name": "_quantity",
          "type": "uint256"
        }
      ],
      "name": "lockResale",
      "outputs": [],
      "payable": false,
      "stateMutability": "nonpayable",
      "type": "function"
    },
    {
      "constant": false,
      "inputs": [
        {
          "name": "_configID",
          "type": "bytes32"
        },
        {
          "name": "_price",
          "type": "uint256"
        }
      ],
      "name": "setResalePrice",
      "outputs": [],
      "payable": false,
      "stateMutability": "nonpayable",
      "type": "function"
    },
    {
      "constant": false,
      "inputs": [
        {
          "name": "_purchaser",
          "type": "bytes32"
        },
        {
          "name": "_quantity",
          "type": "uint256"
        },
        {
          "name": "_jobId",
          "type": "bytes32"
        },
        {
          "name": "_budget",
          "type": "uint256"
        }
      ],
      "name": "purchase",
      "outputs": [],
      "payable": false,
      "stateMutability": "nonpayable",
      "type": "function"
    },
    {
      "constant": false,
      "inputs": [
        {
          "name": "_seller",
          "type": "address"
        },
        {
          "name": "_configID",
          "type": "bytes32"
        },
        {
          "name": "_purchaser",
          "type": "bytes32"
        },
        {
          "name": "_quantity",
          "type": "uint256"
        },
        {
          "name": "_jobId",
          "type": "bytes32"
        },
        {
          "name": "_budget",
          "type": "uint256"
        }
      ],
      "name": "purchaseResale",
      "outputs": [],
      "payable": false,
      "stateMutability": "nonpayable",
      "type": "function"
    },
    {
      "constant": false,
      "inputs": [
        {
          "name": "_jobId",
          "type": "bytes32"
        },
        {
          "name": "_budget",
          "type": "uint256"
        }
      ],
      "name": "submitBudget",
      "outputs": [],
      "payable": false,
      "stateMutability": "nonpayable",
      "type": "function"
    },
    {
      "constant": true,
      "inputs": [
        {
          "name": "_jobId",
          "type": "bytes32"
        }
      ],
      "name": "getBudget",
      "outputs": [
        {
          "name": "",
          "type": "uint256"
        }
      ],
      "payable": false,
      "stateMutability": "view",
      "type": "function"
    },
    {
      "constant": false,
      "inputs": [
        {
          "name": "_jobId",
          "type": "bytes32"
        },
        {
          "name": "_farmers",
          "type": "bytes32[]"
        },
        {
          "name": "_rewards",
          "type": "uint256[]"
        }
      ],
      "name": "allocateRewards",
      "outputs": [],
      "payable": false,
      "stateMutability": "nonpayable",
      "type": "function"
    },
    {
      "constant": false,
      "inputs": [],
      "name": "redeemBalance",
      "outputs": [],
      "payable": false,
      "stateMutability": "nonpayable",
      "type": "function"
    },
    {
      "constant": true,
      "inputs": [
        {
          "name": "_farmer",
          "type": "address"
        }
      ],
      "name": "getRewardsBalance",
      "outputs": [
        {
          "name": "",
          "type": "uint256"
        }
      ],
      "payable": false,
      "stateMutability": "view",
      "type": "function"
    },
    {
      "constant": false,
      "inputs": [
        {
          "name": "_mtOffsets",
          "type": "uint256[]"
        },
        {
          "name": "_msOffsets",
          "type": "uint256[]"
        },
        {
          "name": "_mtBuffer",
          "type": "bytes"
        },
        {
          "name": "_msBuffer",
          "type": "bytes"
        },
        {
          "name": "_list",
          "type": "bool"
        }
      ],
      "name": "append",
      "outputs": [],
      "payable": false,
      "stateMutability": "nonpayable",
      "type": "function"
    },
    {
      "constant": false,
      "inputs": [
        {
          "name": "_mtOffsets",
          "type": "uint256[]"
        },
        {
          "name": "_msOffsets",
          "type": "uint256[]"
        },
        {
          "name": "_mtBuffer",
          "type": "bytes"
        },
        {
          "name": "_msBuffer",
          "type": "bytes"
        },
        {
          "name": "_list",
          "type": "bool"
        }
      ],
      "name": "write",
      "outputs": [],
      "payable": false,
      "stateMutability": "nonpayable",
      "type": "function"
    },
    {
      "constant": true,
      "inputs": [
        {
          "name": "_file",
          "type": "uint8"
        },
        {
          "name": "_offset",
          "type": "uint256"
        }
      ],
      "name": "read",
      "outputs": [
        {
          "name": "buffer",
          "type": "bytes"
        }
      ],
      "payable": false,
      "stateMutability": "view",
      "type": "function"
    },
    {
      "constant": true,
      "inputs": [
        {
          "name": "_file",
          "type": "uint8"
        },
        {
          "name": "_offset",
          "type": "uint256"
        },
        {
          "name": "_buffer",
          "type": "bytes"
        }
      ],
      "name": "hasBuffer",
      "outputs": [
        {
          "name": "exists",
          "type": "bool"
        }
      ],
      "payable": false,
      "stateMutability": "view",
      "type": "function"
    }
  ],
  "bytecode": "0x60806040527fffffffffffffffffffffffffffffffffffffffffffffffffffffffffffffffff60095534801561003457600080fd5b5061706f80620000456000396000f300608060405260043610610225576000357c0100000000000000000000000000000000000000000000000000000000900463ffffffff16806306b75c5a1461022a5780630b38926a146102555780630f560cd7146102965780631748fde9146102ad5780631e0a1b95146102c45780631f84eb461461033c5780632a6363be146103815780632aa334bb146103b0578063313c2c5f1461043157806331ddd9ab146104605780633e5ceede1461051357806345abe03d1461052a57806346f60dee1461055757806347269720146105ae5780634ddf47d4146105e15780634e1d009f1461064a57806354336c0a1461068d578063546887a3146106ba5780635ee6fa61146106ff57806362029e75146107445780637bfa87b61461077f5780638a67f4bf146107aa5780638e5aafe1146108015780638ea8bf031461081857806393acee641461084557806399d20bb1146109865780639c76a541146109cf578063a0d58501146109fc578063b658e85114610a13578063bb66f9f614610a66578063ca31ae1b14610b19578063cc3a08f814610b46578063d56805e114610bfd578063d57bc50614610c54578063dbc3cb9f14610c8f578063dd846f0814610cca578063e757223014610cf5578063e766307914610d36578063f0c13b9e14610d8d578063f0e5bd8614610dce578063f1c737de14610e66578063f51b697914610ef5578063f5d0103c14610f30578063f7d9757714610f5d578063fc1c34e414610f94575b600080fd5b34801561023657600080fd5b5061023f610fab565b6040518082815260200191505060405180910390f35b34801561026157600080fd5b5061028060048036038101908080359060200190929190505050610fb1565b6040518082815260200191505060405180910390f35b3480156102a257600080fd5b506102ab610fd4565b005b3480156102b957600080fd5b506102c26110f8565b005b3480156102d057600080fd5b506102f36004803603810190808035600019169060200190929190505050611232565b604051808373ffffffffffffffffffffffffffffffffffffffff1673ffffffffffffffffffffffffffffffffffffffff1681526020018281526020019250505060405180910390f35b34801561034857600080fd5b5061036b6004803603810190808035600019169060200190929190505050611276565b6040518082815260200191505060405180910390f35b34801561038d57600080fd5b50610396611294565b604051808215151515815260200191505060405180910390f35b3480156103bc57600080fd5b5061042f600480360381019080803573ffffffffffffffffffffffffffffffffffffffff16906020019092919080356000191690602001909291908035600019169060200190929190803590602001909291908035600019169060200190929190803590602001909291905050506112a7565b005b34801561043d57600080fd5b50610446611f33565b604051808215151515815260200191505060405180910390f35b34801561046c57600080fd5b50610498600480360381019080803560ff16906020019092919080359060200190929190505050611f46565b6040518080602001828103825283818151815260200191508051906020019080838360005b838110156104d85780820151818401526020810190506104bd565b50505050905090810190601f1680156105055780820380516001836020036101000a031916815260200191505b509250505060405180910390f35b34801561051f57600080fd5b50610528612003565b005b34801561053657600080fd5b50610555600480360381019080803590602001909291905050506122ff565b005b34801561056357600080fd5b5061056c612506565b604051808273ffffffffffffffffffffffffffffffffffffffff1673ffffffffffffffffffffffffffffffffffffffff16815260200191505060405180910390f35b3480156105ba57600080fd5b506105c361252c565b60405180826000191660001916815260200191505060405180910390f35b3480156105ed57600080fd5b50610648600480360381019080803590602001908201803590602001908080601f0160208091040260200160405190810160405280939291908181526020018383808284378201915050505050509192919290505050612532565b005b34801561065657600080fd5b5061068b600480360381019080803573ffffffffffffffffffffffffffffffffffffffff169060200190929190505050612710565b005b34801561069957600080fd5b506106b8600480360381019080803590602001909291905050506129ff565b005b3480156106c657600080fd5b506106e96004803603810190808035600019169060200190929190505050612ba4565b6040518082815260200191505060405180910390f35b34801561070b57600080fd5b5061072e6004803603810190808035600019169060200190929190505050612bcc565b6040518082815260200191505060405180910390f35b34801561075057600080fd5b5061077d600480360381019080803560001916906020019092919080359060200190929190505050612be4565b005b34801561078b57600080fd5b50610794612f8f565b6040518082815260200191505060405180910390f35b3480156107b657600080fd5b506107eb600480360381019080803573ffffffffffffffffffffffffffffffffffffffff169060200190929190505050612f95565b6040518082815260200191505060405180910390f35b34801561080d57600080fd5b50610816613076565b005b34801561082457600080fd5b5061084360048036038101908080359060200190929190505050613368565b005b34801561085157600080fd5b506109846004803603810190808035906020019082018035906020019080806020026020016040519081016040528093929190818152602001838360200280828437820191505050505050919291929080359060200190820180359060200190808060200260200160405190810160405280939291908181526020018383602002808284378201915050505050509192919290803590602001908201803590602001908080601f0160208091040260200160405190810160405280939291908181526020018383808284378201915050505050509192919290803590602001908201803590602001908080601f01602080910402602001604051908101604052809392919081815260200183838082843782019150505050505091929192908035151590602001909291905050506134fb565b005b34801561099257600080fd5b506109b56004803603810190808035600019169060200190929190505050613834565b604051808215151515815260200191505060405180910390f35b3480156109db57600080fd5b506109fa60048036038101908080359060200190929190505050613854565b005b348015610a0857600080fd5b50610a1161396f565b005b348015610a1f57600080fd5b50610a64600480360381019080803560001916906020019092919080359060200190929190803560001916906020019092919080359060200190929190505050613a93565b005b348015610a7257600080fd5b50610a9e600480360381019080803560ff16906020019092919080359060200190929190505050614602565b6040518080602001828103825283818151815260200191508051906020019080838360005b83811015610ade578082015181840152602081019050610ac3565b50505050905090810190601f168015610b0b5780820380516001836020036101000a031916815260200191505b509250505060405180910390f35b348015610b2557600080fd5b50610b44600480360381019080803590602001909291905050506146fe565b005b348015610b5257600080fd5b50610bfb60048036038101908080356000191690602001909291908035906020019082018035906020019080806020026020016040519081016040528093929190818152602001838360200280828437820191505050505050919291929080359060200190820180359060200190808060200260200160405190810160405280939291908181526020018383602002808284378201915050505050509192919290505050614a30565b005b348015610c0957600080fd5b50610c12614f3e565b604051808273ffffffffffffffffffffffffffffffffffffffff1673ffffffffffffffffffffffffffffffffffffffff16815260200191505060405180910390f35b348015610c6057600080fd5b50610c8d600480360381019080803560001916906020019092919080359060200190929190505050614f64565b005b348015610c9b57600080fd5b50610cc860048036038101908080356000191690602001909291908035906020019092919050505061540e565b005b348015610cd657600080fd5b50610cdf61587c565b6040518082815260200191505060405180910390f35b348015610d0157600080fd5b50610d2060048036038101908080359060200190929190505050615882565b6040518082815260200191505060405180910390f35b348015610d4257600080fd5b50610d4b615961565b604051808273ffffffffffffffffffffffffffffffffffffffff1673ffffffffffffffffffffffffffffffffffffffff16815260200191505060405180910390f35b348015610d9957600080fd5b50610db860048036038101908080359060200190929190505050615986565b6040518082815260200191505060405180910390f35b348015610dda57600080fd5b50610e4c600480360381019080803560ff16906020019092919080359060200190929190803590602001908201803590602001908080601f016020809104026020016040519081016040528093929190818152602001838380828437820191505050505050919291929050505061599e565b604051808215151515815260200191505060405180910390f35b348015610e7257600080fd5b50610ef3600480360381019080803590602001908201803590602001919091929391929390803590602001908201803590602001919091929391929390803590602001908201803590602001919091929391929390803590602001908201803590602001919091929391929390803515159060200190929190505050615a7e565b005b348015610f0157600080fd5b50610f2e600480360381019080803560001916906020019092919080359060200190929190505050615d5e565b005b348015610f3c57600080fd5b50610f5b600480360381019080803590602001909291905050506164a7565b005b348015610f6957600080fd5b50610f9260048036038101908080359060200190929190803590602001909291905050506165c0565b005b348015610fa057600080fd5b50610fa961674f565b005b600a5481565b600881815481101515610fc057fe5b906000526020600020016000915090505481565b6002809054906101000a900473ffffffffffffffffffffffffffffffffffffffff168073ffffffffffffffffffffffffffffffffffffffff163373ffffffffffffffffffffffffffffffffffffffff16141515611099576040517f08c379a00000000000000000000000000000000000000000000000000000000081526004018080602001828103825260168152602001807f53656e646572206e6f7420617574686f72697a65642e0000000000000000000081525060200191505060405180910390fd5b6001600660006101000a81548160ff0219169083151502179055507fbb62c580222a498aedf5b724b94b0d90065a6bd3be8349b223dc032dbdef555560055460405180826000191660001916815260200191505060405180910390a150565b6002809054906101000a900473ffffffffffffffffffffffffffffffffffffffff168073ffffffffffffffffffffffffffffffffffffffff163373ffffffffffffffffffffffffffffffffffffffff161415156111bd576040517f08c379a00000000000000000000000000000000000000000000000000000000081526004018080602001828103825260168152602001807f53656e646572206e6f7420617574686f72697a65642e0000000000000000000081525060200191505060405180910390fd5b7fffffffffffffffffffffffffffffffffffffffffffffffffffffffffffffffff6009819055507fc091136731faaafc407d34b2dc2d84c30df98775ec9a6f4d6df5002c17a3a0096005546009546040518083600019166000191681526020018281526020019250505060405180910390a150565b600c6020528060005260406000206000915090508060000160009054906101000a900473ffffffffffffffffffffffffffffffffffffffff16908060010154905082565b600e6020528060005260406000206000915090508060030154905081565b600660009054906101000a900460ff1681565b6000806000806000806000808a111515611329576040517f08c379a000000000000000000000000000000000000000000000000000000000815260040180806020018281038252601e8152602001807f4d757374207075726368617365206174206c65617374203120636f70792e000081525060200191505060405180910390fd5b8c604051602001808273ffffffffffffffffffffffffffffffffffffffff1673ffffffffffffffffffffffffffffffffffffffff166c010000000000000000000000000281526014019150506040516020818303038152906040526040518082805190602001908083835b6020831015156113b95780518252602082019150602081019050602083039250611394565b6001836020036101000a03801982511681845116808217855250505050505090500191505060405180910390209650600e6000886000191660001916815260200190815260200160002095508560020160008d600019166000191681526020019081526020016000209450898560030154101515156114ec576040517f08c379a000000000000000000000000000000000000000000000000000000000815260040180806020018281038252605b8152602001807f54686973207175616e74697479206973206e6f7420617661696c61626c65206681526020017f6f7220726573616c652066726f6d20746869732073656c6c6572207573696e6781526020017f207468697320726573616c6520636f6e66696775726174696f6e2e000000000081525060600191505060405180910390fd5b84600101548560050160018c0381548110151561150557fe5b90600052602060002001541015156115ab576040517f08c379a00000000000000000000000000000000000000000000000000000000081526004018080602001828103825260378152602001807f436f70792068617320616c7265616479206265656e20736f6c6420746865206d81526020017f6178696d756d206e756d626572206f662074696d65732e00000000000000000081525060400191505060405180910390fd5b84600201548a029350878401600360009054906101000a900473ffffffffffffffffffffffffffffffffffffffff1673ffffffffffffffffffffffffffffffffffffffff1663dd62ed3e33306040518363ffffffff167c0100000000000000000000000000000000000000000000000000000000028152600401808373ffffffffffffffffffffffffffffffffffffffff1673ffffffffffffffffffffffffffffffffffffffff1681526020018273ffffffffffffffffffffffffffffffffffffffff1673ffffffffffffffffffffffffffffffffffffffff16815260200192505050602060405180830381600087803b1580156116a857600080fd5b505af11580156116bc573d6000803e3d6000fd5b505050506040513d60208110156116d257600080fd5b81019080805190602001909291905050501015151561177f576040517f08c379a00000000000000000000000000000000000000000000000000000000081526004018080602001828103825260248152602001807f50726f7879206d75737420626520617070726f76656420666f7220707572636881526020017f6173652e0000000000000000000000000000000000000000000000000000000081525060400191505060405180910390fd5b600360009054906101000a900473ffffffffffffffffffffffffffffffffffffffff1673ffffffffffffffffffffffffffffffffffffffff166323b872dd338f88600001548960020154038e026040518463ffffffff167c0100000000000000000000000000000000000000000000000000000000028152600401808473ffffffffffffffffffffffffffffffffffffffff1673ffffffffffffffffffffffffffffffffffffffff1681526020018373ffffffffffffffffffffffffffffffffffffffff1673ffffffffffffffffffffffffffffffffffffffff1681526020018281526020019350505050602060405180830381600087803b15801561188457600080fd5b505af1158015611898573d6000803e3d6000fd5b505050506040513d60208110156118ae57600080fd5b81019080805190602001909291905050508015611a225750600360009054906101000a900473ffffffffffffffffffffffffffffffffffffffff1673ffffffffffffffffffffffffffffffffffffffff166323b872dd336002809054906101000a900473ffffffffffffffffffffffffffffffffffffffff1688600001548e026040518463ffffffff167c0100000000000000000000000000000000000000000000000000000000028152600401808473ffffffffffffffffffffffffffffffffffffffff1673ffffffffffffffffffffffffffffffffffffffff1681526020018373ffffffffffffffffffffffffffffffffffffffff1673ffffffffffffffffffffffffffffffffffffffff1681526020018281526020019350505050602060405180830381600087803b1580156119e657600080fd5b505af11580156119fa573d6000803e3d6000fd5b505050506040513d6020811015611a1057600080fd5b81019080805190602001909291905050505b1515611a96576040517f08c379a00000000000000000000000000000000000000000000000000000000081526004018080602001828103825260148152602001807f417261207472616e73666572206661696c65642e00000000000000000000000081525060200191505060405180910390fd5b89856004016000828254039250508190555089856003016000828254039250508190555033604051602001808273ffffffffffffffffffffffffffffffffffffffff1673ffffffffffffffffffffffffffffffffffffffff166c010000000000000000000000000281526014019150506040516020818303038152906040526040518082805190602001908083835b602083101515611b4a5780518252602082019150602081019050602083039250611b25565b6001836020036101000a03801982511681845116808217855250505050505090500191505060405180910390209250600e60008460001916600019168152602001908152602001600020915033600554428460000180549050604051602001808573ffffffffffffffffffffffffffffffffffffffff1673ffffffffffffffffffffffffffffffffffffffff166c0100000000000000000000000002815260140184600019166000191681526020018381526020018281526020019450505050506040516020818303038152906040526040518082805190602001908083835b602083101515611c4f5780518252602082019150602081019050602083039250611c2a565b6001836020036101000a03801982511681845116808217855250505050505090500191505060405180910390209050611c8a83828c88616a1d565b600460009054906101000a900473ffffffffffffffffffffffffffffffffffffffff1673ffffffffffffffffffffffffffffffffffffffff1663a513cc9c8c6005546040518363ffffffff167c0100000000000000000000000000000000000000000000000000000000028152600401808360001916600019168152602001826000191660001916815260200192505050602060405180830381600087803b158015611d3557600080fd5b505af1158015611d49573d6000803e3d6000fd5b505050506040513d6020811015611d5f57600080fd5b81019080805190602001909291905050501515611e3a57600460009054906101000a900473ffffffffffffffffffffffffffffffffffffffff1673ffffffffffffffffffffffffffffffffffffffff16630c2bb9658c6005546040518363ffffffff167c0100000000000000000000000000000000000000000000000000000000028152600401808360001916600019168152602001826000191660001916815260200192505050600060405180830381600087803b158015611e2157600080fd5b505af1158015611e35573d6000803e3d6000fd5b505050505b7fc4b560018ed8fb3fa06e71d06bddd84644e50bfc29f0ddde205755b498a001528b8e6005548d88866040518087600019166000191681526020018673ffffffffffffffffffffffffffffffffffffffff1673ffffffffffffffffffffffffffffffffffffffff16815260200185600019166000191681526020018481526020018381526020018260001916600019168152602001965050505050505060405180910390a1600085600401541415611ef857611ef7878d88616c16565b5b600060010260001916896000191614158015611f145750600088115b15611f2457611f238989615d5e565b5b50505050505050505050505050565b600260019054906101000a900460ff1681565b600f602052816000526040600020602052806000526040600020600091509150508054600181600116156101000203166002900480601f016020809104026020016040519081016040528092919081815260200182805460018160011615610100020316600290048015611ffb5780601f10611fd057610100808354040283529160200191611ffb565b820191906000526020600020905b815481529060010190602001808311611fde57829003601f168201915b505050505081565b600033604051602001808273ffffffffffffffffffffffffffffffffffffffff1673ffffffffffffffffffffffffffffffffffffffff166c010000000000000000000000000281526014019150506040516020818303038152906040526040518082805190602001908083835b6020831015156120955780518252602082019150602081019050602083039250612070565b6001836020036101000a038019825116818451168082178552505050505050905001915050604051809103902090506000600d6000836000191660001916815260200190815260200160002054111515612157576040517f08c379a00000000000000000000000000000000000000000000000000000000081526004018080602001828103825260158152602001807f4e6f2062616c616e636520746f2072656465656d2e000000000000000000000081525060200191505060405180910390fd5b600360009054906101000a900473ffffffffffffffffffffffffffffffffffffffff1673ffffffffffffffffffffffffffffffffffffffff1663a9059cbb33600d60008560001916600019168152602001908152602001600020546040518363ffffffff167c0100000000000000000000000000000000000000000000000000000000028152600401808373ffffffffffffffffffffffffffffffffffffffff1673ffffffffffffffffffffffffffffffffffffffff16815260200182815260200192505050602060405180830381600087803b15801561223757600080fd5b505af115801561224b573d6000803e3d6000fd5b505050506040513d602081101561226157600080fd5b8101908080519060200190929190505050156122fc576000600d60008360001916600019168152602001908152602001600020819055507fcb7d87f76b4d6501ac27ed560664bf84ce273a2ddd7b9b1da63c753e68ccae2033604051808273ffffffffffffffffffffffffffffffffffffffff1673ffffffffffffffffffffffffffffffffffffffff16815260200191505060405180910390a15b50565b6002809054906101000a900473ffffffffffffffffffffffffffffffffffffffff168073ffffffffffffffffffffffffffffffffffffffff163373ffffffffffffffffffffffffffffffffffffffff161415156123c4576040517f08c379a00000000000000000000000000000000000000000000000000000000081526004018080602001828103825260168152602001807f53656e646572206e6f7420617574686f72697a65642e0000000000000000000081525060200191505060405180910390fd5b60008213151561243c576040517f08c379a00000000000000000000000000000000000000000000000000000000081526004018080602001828103825260208152602001807f5175616e74697479206d7573742062652067726561746572207468616e20302e81525060200191505060405180910390fd5b600060095412156124535781600981905550612464565b816009600082825401925050819055505b7f4d5e60ebabb4f9e04a7695c3fb447c28c0a1815e2e0ab101f0d7d77364e8f51e60055483600954604051808460001916600019168152602001838152602001828152602001935050505060405180910390a17fc091136731faaafc407d34b2dc2d84c30df98775ec9a6f4d6df5002c17a3a0096005546009546040518083600019166000191681526020018281526020019250505060405180910390a15050565b600460009054906101000a900473ffffffffffffffffffffffffffffffffffffffff1681565b60055481565b600080600080600080600260009054906101000a900460ff161515156125e6576040517f08c379a00000000000000000000000000000000000000000000000000000000081526004018080602001828103825260268152602001807f496e69742066756e6374696f6e2063616e206f6e6c792062652063616c6c656481526020017f206f6e63652e000000000000000000000000000000000000000000000000000081525060400191505060405180910390fd5b6001600260006101000a81548160ff0219169083151502179055506020870195508551945060408701955085519350606087019550855192506080870195508551915060a08701955085519050846002806101000a81548173ffffffffffffffffffffffffffffffffffffffff021916908373ffffffffffffffffffffffffffffffffffffffff16021790555083600360006101000a81548173ffffffffffffffffffffffffffffffffffffffff021916908373ffffffffffffffffffffffffffffffffffffffff16021790555082600460006101000a81548173ffffffffffffffffffffffffffffffffffffffff021916908373ffffffffffffffffffffffffffffffffffffffff16021790555081600581600019169055508060098190555050505050505050565b60008060009054906101000a900473ffffffffffffffffffffffffffffffffffffffff1673ffffffffffffffffffffffffffffffffffffffff163373ffffffffffffffffffffffffffffffffffffffff1614151561276d57600080fd5b816001600082604051602001808273ffffffffffffffffffffffffffffffffffffffff1673ffffffffffffffffffffffffffffffffffffffff166c010000000000000000000000000281526014019150506040516020818303038152906040526040518082805190602001908083835b60208310151561280257805182526020820191506020810190506020830392506127dd565b6001836020036101000a03801982511681845116808217855250505050505090500191505060405180910390206000191660001916815260200190815260200160002060009054906101000a900460ff1615156128c7576040517f08c379a00000000000000000000000000000000000000000000000000000000081526004018080602001828103825260208152602001807f4f776e6572207265717565737420686173206e6f74206265656e2073656e742e81525060200191505060405180910390fd5b826000806101000a81548173ffffffffffffffffffffffffffffffffffffffff021916908373ffffffffffffffffffffffffffffffffffffffff16021790555033604051602001808273ffffffffffffffffffffffffffffffffffffffff1673ffffffffffffffffffffffffffffffffffffffff166c010000000000000000000000000281526014019150506040516020818303038152906040526040518082805190602001908083835b6020831015156129975780518252602082019150602081019050602083039250612972565b6001836020036101000a03801982511681845116808217855250505050505090500191505060405180910390209150600060016000846000191660001916815260200190815260200160002060006101000a81548160ff021916908315150217905550505050565b60006002809054906101000a900473ffffffffffffffffffffffffffffffffffffffff168073ffffffffffffffffffffffffffffffffffffffff163373ffffffffffffffffffffffffffffffffffffffff16141515612ac6576040517f08c379a00000000000000000000000000000000000000000000000000000000081526004018080602001828103825260168152602001807f53656e646572206e6f7420617574686f72697a65642e0000000000000000000081525060200191505060405180910390fd5b6007600084815260200190815260200160002060009055600091505b600880549050821015612b9f5782600883815481101515612aff57fe5b90600052602060002001541415612b9257600882815481101515612b1f57fe5b90600052602060002001600090556008600160088054905003815481101515612b4457fe5b9060005260206000200154600883815481101515612b5e57fe5b90600052602060002001819055506008600160088054905003815481101515612b8357fe5b90600052602060002001600090555b8180600101925050612ae2565b505050565b6000600c60008360001916600019168152602001908152602001600020600101549050919050565b600d6020528060005260406000206000915090505481565b600080600e600033604051602001808273ffffffffffffffffffffffffffffffffffffffff1673ffffffffffffffffffffffffffffffffffffffff166c010000000000000000000000000281526014019150506040516020818303038152906040526040518082805190602001908083835b602083101515612c7b5780518252602082019150602081019050602083039250612c56565b6001836020036101000a03801982511681845116808217855250505050505090500191505060405180910390206000191660001916815260200190815260200160002060030154111515612d37576040517f08c379a000000000000000000000000000000000000000000000000000000000815260040180806020018281038252601c8152602001807f436f6e74656e7420776173206e65766572207075726368617365642e0000000081525060200191505060405180910390fd5b33604051602001808273ffffffffffffffffffffffffffffffffffffffff1673ffffffffffffffffffffffffffffffffffffffff166c010000000000000000000000000281526014019150506040516020818303038152906040526040518082805190602001908083835b602083101515612dc75780518252602082019150602081019050602083039250612da2565b6001836020036101000a03801982511681845116808217855250505050505090500191505060405180910390209050600e6000826000191660001916815260200190815260200160002060020160008460001916600019168152602001908152602001600020600001548210151515612ece576040517f08c379a00000000000000000000000000000000000000000000000000000000081526004018080602001828103825260378152602001807f526573616c65207072696365206d757374206265206174206c6561737420746881526020017f65206d696e696d756d20726573616c652070726963652e00000000000000000081525060400191505060405180910390fd5b81600e6000836000191660001916815260200190815260200160002060020160008560001916600019168152602001908152602001600020600201819055507f0e2912681a5905a8c6a4452da27fc30eb533a3aba5b44cf5a404baeadcdb134760055433846040518084600019166000191681526020018373ffffffffffffffffffffffffffffffffffffffff1673ffffffffffffffffffffffffffffffffffffffff168152602001828152602001935050505060405180910390a1505050565b600b5481565b6000600d600083604051602001808273ffffffffffffffffffffffffffffffffffffffff1673ffffffffffffffffffffffffffffffffffffffff166c010000000000000000000000000281526014019150506040516020818303038152906040526040518082805190602001908083835b60208310151561302b5780518252602082019150602081019050602083039250613006565b6001836020036101000a038019825116818451168082178552505050505050905001915050604051809103902060001916600019168152602001908152602001600020549050919050565b60006001600033604051602001808273ffffffffffffffffffffffffffffffffffffffff1673ffffffffffffffffffffffffffffffffffffffff166c010000000000000000000000000281526014019150506040516020818303038152906040526040518082805190602001908083835b60208310151561310c57805182526020820191506020810190506020830392506130e7565b6001836020036101000a03801982511681845116808217855250505050505090500191505060405180910390206000191660001916815260200190815260200160002060009054906101000a900460ff161515156131f8576040517f08c379a00000000000000000000000000000000000000000000000000000000081526004018080602001828103825260218152602001807f4f776e657273686970207265717565737420616c72656164792061637469766581526020017f2e0000000000000000000000000000000000000000000000000000000000000081525060400191505060405180910390fd5b33604051602001808273ffffffffffffffffffffffffffffffffffffffff1673ffffffffffffffffffffffffffffffffffffffff166c010000000000000000000000000281526014019150506040516020818303038152906040526040518082805190602001908083835b6020831015156132885780518252602082019150602081019050602083039250613263565b6001836020036101000a038019825116818451168082178552505050505050905001915050604051809103902090506001806000836000191660001916815260200190815260200160002060006101000a81548160ff0219169083151502179055503373ffffffffffffffffffffffffffffffffffffffff166000809054906101000a900473ffffffffffffffffffffffffffffffffffffffff1673ffffffffffffffffffffffffffffffffffffffff167fd5b906f2d3dfa8cf0ea788d4ad6e99ebd482d6134c3405e1a5faa5da891cda8560405160405180910390a350565b6002809054906101000a900473ffffffffffffffffffffffffffffffffffffffff168073ffffffffffffffffffffffffffffffffffffffff163373ffffffffffffffffffffffffffffffffffffffff1614151561342d576040517f08c379a00000000000000000000000000000000000000000000000000000000081526004018080602001828103825260168152602001807f53656e646572206e6f7420617574686f72697a65642e0000000000000000000081525060200191505060405180910390fd5b6000821315156134a5576040517f08c379a00000000000000000000000000000000000000000000000000000000081526004018080602001828103825260208152602001807f5175616e74697479206d7573742062652067726561746572207468616e20302e81525060200191505060405180910390fd5b816009819055507fc091136731faaafc407d34b2dc2d84c30df98775ec9a6f4d6df5002c17a3a0096005546009546040518083600019166000191681526020018281526020019250505060405180910390a15050565b6000806002809054906101000a900473ffffffffffffffffffffffffffffffffffffffff168073ffffffffffffffffffffffffffffffffffffffff163373ffffffffffffffffffffffffffffffffffffffff161415156135c3576040517f08c379a00000000000000000000000000000000000000000000000000000000081526004018080602001828103825260168152602001807f53656e646572206e6f7420617574686f72697a65642e0000000000000000000081525060200191505060405180910390fd5b600660009054906101000a900460ff16806135db5750835b600660006101000a81548160ff0219169083151502179055508651885111613604578651613607565b87515b92506136206000602088616dfd9092919063ffffffff16565b600f60008060ff1681526020019081526020016000206000808152602001908152602001600020908051906020019061365a929190616ef9565b506136726000602087616dfd9092919063ffffffff16565b600f6000600160ff168152602001908152602001600020600080815260200190815260200160002090805190602001906136ad929190616ef9565b50600191505b828210156137e95760018851038211151561374b576136f888838151811015156136d957fe5b90602001906020020151602860ff1688616dfd9092919063ffffffff16565b600f60008060ff16815260200190815260200160002060008a8581518110151561371e57fe5b9060200190602002015181526020019081526020016000209080519060200190613749929190616ef9565b505b6001875103821115156137dc57613788878381518110151561376957fe5b90602001906020020151604060ff1687616dfd9092919063ffffffff16565b600f6000600160ff168152602001908152602001600020600089858151811015156137af57fe5b90602001906020020151815260200190815260200160002090805190602001906137da929190616ef9565b505b81806001019250506136b3565b7f9e8a51bb6b34b9d5d18c14fd753ee3bf44e2256512665a4577281ffcc91943ff60055460405180826000191660001916815260200191505060405180910390a15050505050505050565b60016020528060005260406000206000915054906101000a900460ff1681565b6002809054906101000a900473ffffffffffffffffffffffffffffffffffffffff168073ffffffffffffffffffffffffffffffffffffffff163373ffffffffffffffffffffffffffffffffffffffff16141515613919576040517f08c379a00000000000000000000000000000000000000000000000000000000081526004018080602001828103825260168152602001807f53656e646572206e6f7420617574686f72697a65642e0000000000000000000081525060200191505060405180910390fd5b81600b819055507f9f274eefea84ac29e2f56b92eafc8045314ec62bf45e12c57b3f80017ea6245e600554600b546040518083600019166000191681526020018281526020019250505060405180910390a15050565b6002809054906101000a900473ffffffffffffffffffffffffffffffffffffffff168073ffffffffffffffffffffffffffffffffffffffff163373ffffffffffffffffffffffffffffffffffffffff16141515613a34576040517f08c379a00000000000000000000000000000000000000000000000000000000081526004018080602001828103825260168152602001807f53656e646572206e6f7420617574686f72697a65642e0000000000000000000081525060200191505060405180910390fd5b6000600660006101000a81548160ff0219169083151502179055507f2e6ec049d62c8a42e7cc223354aadb68d5046a2cba67ed55a089fdb852fb6cb660055460405180826000191660001916815260200191505060405180910390a150565b600080600080613aa1616f79565b600660009054906101000a900460ff161515613b4b576040517f08c379a00000000000000000000000000000000000000000000000000000000081526004018080602001828103825260218152602001807f41465320686173206e6f74206265656e206c697374656420666f722073616c6581526020017f2e0000000000000000000000000000000000000000000000000000000000000081525060400191505060405180910390fd5b600060095414151515613bec576040517f08c379a00000000000000000000000000000000000000000000000000000000081526004018080602001828103825260268152602001807f4e6f206d6f726520636f7069657320617661696c61626c6520666f722070757281526020017f63686173652e000000000000000000000000000000000000000000000000000081525060400191505060405180910390fd5b600088111515613c64576040517f08c379a000000000000000000000000000000000000000000000000000000000815260040180806020018281038252601e8152602001807f4d757374207075726368617365206174206c65617374203120636f70792e000081525060200191505060405180910390fd5b600360009054906101000a900473ffffffffffffffffffffffffffffffffffffffff1673ffffffffffffffffffffffffffffffffffffffff1663dd62ed3e33306040518363ffffffff167c0100000000000000000000000000000000000000000000000000000000028152600401808373ffffffffffffffffffffffffffffffffffffffff1673ffffffffffffffffffffffffffffffffffffffff1681526020018273ffffffffffffffffffffffffffffffffffffffff1673ffffffffffffffffffffffffffffffffffffffff16815260200192505050602060405180830381600087803b158015613d5557600080fd5b505af1158015613d69573d6000803e3d6000fd5b505050506040513d6020811015613d7f57600080fd5b8101908080519060200190929190505050945033604051602001808273ffffffffffffffffffffffffffffffffffffffff1673ffffffffffffffffffffffffffffffffffffffff166c010000000000000000000000000281526014019150506040516020818303038152906040526040518082805190602001908083835b602083101515613e225780518252602082019150602081019050602083039250613dfd565b6001836020036101000a03801982511681845116808217855250505050505090500191505060405180910390209350613e5a88615882565b880292508583018510151515613efe576040517f08c379a00000000000000000000000000000000000000000000000000000000081526004018080602001828103825260248152602001807f50726f7879206d75737420626520617070726f76656420666f7220707572636881526020017f6173652e0000000000000000000000000000000000000000000000000000000081525060400191505060405180910390fd5b600360009054906101000a900473ffffffffffffffffffffffffffffffffffffffff1673ffffffffffffffffffffffffffffffffffffffff166323b872dd336002809054906101000a900473ffffffffffffffffffffffffffffffffffffffff16866040518463ffffffff167c0100000000000000000000000000000000000000000000000000000000028152600401808473ffffffffffffffffffffffffffffffffffffffff1673ffffffffffffffffffffffffffffffffffffffff1681526020018373ffffffffffffffffffffffffffffffffffffffff1673ffffffffffffffffffffffffffffffffffffffff1681526020018281526020019350505050602060405180830381600087803b15801561401857600080fd5b505af115801561402c573d6000803e3d6000fd5b505050506040513d602081101561404257600080fd5b810190808051906020019092919050505015156140c7576040517f08c379a00000000000000000000000000000000000000000000000000000000081526004018080602001828103825260148152602001807f417261207472616e73666572206661696c65642e00000000000000000000000081525060200191505060405180910390fd5b60006001029150600260019054906101000a900460ff161561434d573360055442600e6000886000191660001916815260200190815260200160002060000180549050604051602001808573ffffffffffffffffffffffffffffffffffffffff1673ffffffffffffffffffffffffffffffffffffffff166c0100000000000000000000000002815260140184600019166000191681526020018381526020018281526020019450505050506040516020818303038152906040526040518082805190602001908083835b6020831015156141b65780518252602082019150602081019050602083039250614191565b6001836020036101000a03801982511681845116808217855250505050505090500191505060405180910390209150600a54816000018181525050600b54816020018181525050600a5481604001818152505087816080018181525050600e6000856000191660001916815260200190815260200160002060000180549050600e600086600019166000191681526020019081526020016000206001016000846000191660001916815260200190815260200160002081905550600e6000856000191660001916815260200190815260200160002060000182908060018154018082558091505090600182039060005260206000200160009091929091909150906000191690555080600e6000866000191660001916815260200190815260200160002060020160008460001916600019168152602001908152602001600020600082015181600001556020820151816001015560408201518160020155606082015181600301556080820151816004015560a0820151816005019080519060200190614344929190616fb0565b5090505061437a565b87600e60008660001916600019168152602001908152602001600020600301600082825401925050819055505b600060095413156143aa5787600960008282540392505081905550600060095414156143a9576143a861396f565b5b5b600460009054906101000a900473ffffffffffffffffffffffffffffffffffffffff1673ffffffffffffffffffffffffffffffffffffffff1663a513cc9c8a6005546040518363ffffffff167c0100000000000000000000000000000000000000000000000000000000028152600401808360001916600019168152602001826000191660001916815260200192505050602060405180830381600087803b15801561445557600080fd5b505af1158015614469573d6000803e3d6000fd5b505050506040513d602081101561447f57600080fd5b8101908080519060200190929190505050151561455a57600460009054906101000a900473ffffffffffffffffffffffffffffffffffffffff1673ffffffffffffffffffffffffffffffffffffffff16630c2bb9658a6005546040518363ffffffff167c0100000000000000000000000000000000000000000000000000000000028152600401808360001916600019168152602001826000191660001916815260200192505050600060405180830381600087803b15801561454157600080fd5b505af1158015614555573d6000803e3d6000fd5b505050505b7f57432a47044629ef90b5f8719164861d0fce61f2df6b80862c4a378539fd4a93896005548a8686604051808660001916600019168152602001856000191660001916815260200184815260200183815260200182600019166000191681526020019550505050505060405180910390a16000600102600019168760001916141580156145e75750600086115b156145f7576145f68787615d5e565b5b505050505050505050565b6060600660009054906101000a900460ff16151561463257602060405190810160405280600081525090506146f8565b600f60008460ff1660ff16815260200190815260200160002060008381526020019081526020016000208054600181600116156101000203166002900480601f0160208091040260200160405190810160405280929190818152602001828054600181600116156101000203166002900480156146f05780601f106146c5576101008083540402835291602001916146f0565b820191906000526020600020905b8154815290600101906020018083116146d357829003601f168201915b505050505090505b92915050565b6002809054906101000a900473ffffffffffffffffffffffffffffffffffffffff168073ffffffffffffffffffffffffffffffffffffffff163373ffffffffffffffffffffffffffffffffffffffff161415156147c3576040517f08c379a00000000000000000000000000000000000000000000000000000000081526004018080602001828103825260168152602001807f53656e646572206e6f7420617574686f72697a65642e0000000000000000000081525060200191505060405180910390fd5b600082131515614861576040517f08c379a000000000000000000000000000000000000000000000000000000000815260040180806020018281038252602c8152602001807f43616e6e6f742072656d6f7665206e6f6e2d706f736974697665206e756d626581526020017f72206f6620636f706965732e000000000000000000000000000000000000000081525060400191505060405180910390fd5b60006009541315156148db576040517f08c379a000000000000000000000000000000000000000000000000000000000815260040180806020018281038252601d8152602001807f43616e6e6f742072656d6f766520616e796d6f726520636f706965732e00000081525060200191505060405180910390fd5b600082600954031215151561497e576040517f08c379a00000000000000000000000000000000000000000000000000000000081526004018080602001828103825260308152602001807f547279696e6720746f2072656d6f7665206d6f726520636f706965732074686181526020017f6e20616c72656164792065786973742e0000000000000000000000000000000081525060400191505060405180910390fd5b816009600082825403925050819055507f5209c5c710223d21802b09a920c9590b9985998c367e4849f60d3b248facd58960055483600954604051808460001916600019168152602001838152602001828152602001935050505060405180910390a17fc091136731faaafc407d34b2dc2d84c30df98775ec9a6f4d6df5002c17a3a0096005546009546040518083600019166000191681526020018281526020019250505060405180910390a15050565b600080600080863373ffffffffffffffffffffffffffffffffffffffff16600c6000836000191660001916815260200190815260200160002060000160009054906101000a900473ffffffffffffffffffffffffffffffffffffffff1673ffffffffffffffffffffffffffffffffffffffff16148015614ace57506000600c6000836000191660001916815260200190815260200160002060010154115b1515614b42576040517f08c379a000000000000000000000000000000000000000000000000000000000815260040180806020018281038252600f8152602001807f4a6f6220697320696e76616c69642e000000000000000000000000000000000081525060200191505060405180910390fd5b85518751141515614be1576040517f08c379a00000000000000000000000000000000000000000000000000000000081526004018080602001828103825260268152602001807f556e657175616c206e756d626572206f66206661726d65727320616e6420726581526020017f77617264732e000000000000000000000000000000000000000000000000000081525060400191505060405180910390fd5b600093505b85518460ff161015614c1e57858460ff16815181101515614c0357fe5b90602001906020020151850194508380600101945050614be6565b600c60008960001916600019168152602001908152602001600020600101548511151515614cb4576040517f08c379a00000000000000000000000000000000000000000000000000000000081526004018080602001828103825260148152602001807f496e73756666696369656e74206275646765742e00000000000000000000000081525060200191505060405180910390fd5b600092505b86518360ff161015614db057858360ff16815181101515614cd657fe5b90602001906020020151600c60008a600019166000191681526020019081526020016000206001015410151515614d0957fe5b858360ff16815181101515614d1a57fe5b90602001906020020151600d6000898660ff16815181101515614d3957fe5b906020019060200201516000191660001916815260200190815260200160002081905550858360ff16815181101515614d6e57fe5b90602001906020020151600c60008a60001916600019168152602001908152602001600020600101600082825403925050819055508280600101935050614cb9565b600c600089600019166000191681526020019081526020016000206001015491506000821115614ee35781600d600033604051602001808273ffffffffffffffffffffffffffffffffffffffff1673ffffffffffffffffffffffffffffffffffffffff166c010000000000000000000000000281526014019150506040516020818303038152906040526040518082805190602001908083835b602083101515614e6f5780518252602082019150602081019050602083039250614e4a565b6001836020036101000a038019825116818451168082178552505050505050905001915050604051809103902060001916600019168152602001908152602001600020819055506000600c60008a6000191660001916815260200190815260200160002060010181905550614ee2612003565b5b7f2bd45e0776b585a6e4ce4cc376082ac45c657ad116f95f80480b6343678354e86005548684604051808460001916600019168152602001838152602001828152602001935050505060405180910390a15050505050505050565b600360009054906101000a900473ffffffffffffffffffffffffffffffffffffffff1681565b600080600e600033604051602001808273ffffffffffffffffffffffffffffffffffffffff1673ffffffffffffffffffffffffffffffffffffffff166c010000000000000000000000000281526014019150506040516020818303038152906040526040518082805190602001908083835b602083101515614ffb5780518252602082019150602081019050602083039250614fd6565b6001836020036101000a038019825116818451168082178552505050505050905001915050604051809103902060001916600019168152602001908152602001600020600301541115156150b7576040517f08c379a000000000000000000000000000000000000000000000000000000000815260040180806020018281038252601c8152602001807f436f6e74656e7420776173206e65766572207075726368617365642e0000000081525060200191505060405180910390fd5b33604051602001808273ffffffffffffffffffffffffffffffffffffffff1673ffffffffffffffffffffffffffffffffffffffff166c010000000000000000000000000281526014019150506040516020818303038152906040526040518082805190602001908083835b6020831015156151475780518252602082019150602081019050602083039250615122565b6001836020036101000a03801982511681845116808217855250505050505090500191505060405180910390209050600e600082600019166000191681526020019081526020016000206002016000846000191660001916815260200190815260200160002060040154600e60008360001916600019168152602001908152602001600020600201600085600019166000191681526020019081526020016000206003015483011115151561528a576040517f08c379a00000000000000000000000000000000000000000000000000000000081526004018080602001828103825260298152602001807f43616e6e6f7420756e6c6f636b206d6f726520666f7220726573616c6520746881526020017f616e206f776e65642e000000000000000000000000000000000000000000000081525060400191505060405180910390fd5b81600e600083600019166000191681526020019081526020016000206002016000856000191660001916815260200190815260200160002060030160008282540192505081905550600e600082600019166000191681526020019081526020016000206002016000846000191660001916815260200190815260200160002060040154600e6000836000191660001916815260200190815260200160002060020160008560001916600019168152602001908152602001600020600301541115151561535257fe5b7fe78857a26a7fe475546465ff27735fabea42cc1dc6fb9284b146bd4d01f9244460055433600e6000856000191660001916815260200190815260200160002060020160008760001916600019168152602001908152602001600020600301546040518084600019166000191681526020018373ffffffffffffffffffffffffffffffffffffffff1673ffffffffffffffffffffffffffffffffffffffff168152602001828152602001935050505060405180910390a1505050565b600080600e600033604051602001808273ffffffffffffffffffffffffffffffffffffffff1673ffffffffffffffffffffffffffffffffffffffff166c010000000000000000000000000281526014019150506040516020818303038152906040526040518082805190602001908083835b6020831015156154a55780518252602082019150602081019050602083039250615480565b6001836020036101000a03801982511681845116808217855250505050505090500191505060405180910390206000191660001916815260200190815260200160002060030154111515615561576040517f08c379a000000000000000000000000000000000000000000000000000000000815260040180806020018281038252601c8152602001807f436f6e74656e7420776173206e65766572207075726368617365642e0000000081525060200191505060405180910390fd5b33604051602001808273ffffffffffffffffffffffffffffffffffffffff1673ffffffffffffffffffffffffffffffffffffffff166c010000000000000000000000000281526014019150506040516020818303038152906040526040518082805190602001908083835b6020831015156155f157805182526020820191506020810190506020830392506155cc565b6001836020036101000a0380198251168184511680821785525050505050509050019150506040518091039020905081600e600083600019166000191681526020019081526020016000206002016000856000191660001916815260200190815260200160002060030154101515156156f8576040517f08c379a000000000000000000000000000000000000000000000000000000000815260040180806020018281038252602e8152602001807f43616e6e6f74206c6f636b206d6f7265207468616e20697320617661696c616281526020017f6c6520666f7220726573616c652e00000000000000000000000000000000000081525060400191505060405180910390fd5b81600e600083600019166000191681526020019081526020016000206002016000856000191660001916815260200190815260200160002060030160008282540392505081905550600e600082600019166000191681526020019081526020016000206002016000846000191660001916815260200190815260200160002060040154600e600083600019166000191681526020019081526020016000206002016000856000191660001916815260200190815260200160002060030154111515156157c057fe5b7fce3027e9449a5a6879bfbf6898b09a15c2232476d45e2913421cd05d2b4eed1360055433600e6000856000191660001916815260200190815260200160002060020160008760001916600019168152602001908152602001600020600301546040518084600019166000191681526020018373ffffffffffffffffffffffffffffffffffffffff1673ffffffffffffffffffffffffffffffffffffffff168152602001828152602001935050505060405180910390a1505050565b60095481565b60008060008090505b60088054905081101561594357836008828154811015156158a857fe5b906000526020600020015414156158d4576007600085815260200190815260200160002054925061595a565b836008828154811015156158e457fe5b906000526020600020015410801561591457508160088281548110151561590757fe5b9060005260206000200154115b156159365760088181548110151561592857fe5b906000526020600020015491505b808060010191505061588b565b600760008381526020019081526020016000205492505b5050919050565b6002809054906101000a900473ffffffffffffffffffffffffffffffffffffffff1681565b60076020528060005260406000206000915090505481565b6000615a7582600f60008760ff1660ff16815260200190815260200160002060008681526020019081526020016000208054600181600116156101000203166002900480601f016020809104026020016040519081016040528092919081815260200182805460018160011615610100020316600290048015615a625780601f10615a3757610100808354040283529160200191615a62565b820191906000526020600020905b815481529060010190602001808311615a4557829003601f168201915b5050505050616e8a90919063ffffffff16565b90509392505050565b6000806002809054906101000a900473ffffffffffffffffffffffffffffffffffffffff168073ffffffffffffffffffffffffffffffffffffffff163373ffffffffffffffffffffffffffffffffffffffff16141515615b46576040517f08c379a00000000000000000000000000000000000000000000000000000000081526004018080602001828103825260168152602001807f53656e646572206e6f7420617574686f72697a65642e0000000000000000000081525060200191505060405180910390fd5b600660009054906101000a900460ff1680615b5e5750835b600660006101000a81548160ff021916908315150217905550898990508c8c905011615b8d5789899050615b92565b8b8b90505b9250600091505b82821015615d0f5760018c8c90500382111515615c5157615c01602860ff168302602860ff168a8a8080601f016020809104026020016040519081016040528093929190818152602001838380828437820191505050505050616dfd9092919063ffffffff16565b600f60008060ff16815260200190815260200160002060008e8e868181101515615c2757fe5b9050602002013581526020019081526020016000209080519060200190615c4f929190616ef9565b505b60018a8a90500382111515615d0257615cb1604060ff168302604060ff1688888080601f016020809104026020016040519081016040528093929190818152602001838380828437820191505050505050616dfd9092919063ffffffff16565b600f6000600160ff16815260200190815260200160002060008c8c868181101515615cd857fe5b9050602002013581526020019081526020016000209080519060200190615d00929190616ef9565b505b8180600101925050615b99565b7f9e8a51bb6b34b9d5d18c14fd753ee3bf44e2256512665a4577281ffcc91943ff60055460405180826000191660001916815260200191505060405180910390a1505050505050505050505050565b600080600e600033604051602001808273ffffffffffffffffffffffffffffffffffffffff1673ffffffffffffffffffffffffffffffffffffffff166c010000000000000000000000000281526014019150506040516020818303038152906040526040518082805190602001908083835b602083101515615df55780518252602082019150602081019050602083039250615dd0565b6001836020036101000a03801982511681845116808217855250505050505090500191505060405180910390206000191660001916815260200190815260200160002060030154111515615eb1576040517f08c379a000000000000000000000000000000000000000000000000000000000815260040180806020018281038252601c8152602001807f436f6e74656e7420776173206e65766572207075726368617365642e0000000081525060200191505060405180910390fd5b600360009054906101000a900473ffffffffffffffffffffffffffffffffffffffff1673ffffffffffffffffffffffffffffffffffffffff1663dd62ed3e33306040518363ffffffff167c0100000000000000000000000000000000000000000000000000000000028152600401808373ffffffffffffffffffffffffffffffffffffffff1673ffffffffffffffffffffffffffffffffffffffff1681526020018273ffffffffffffffffffffffffffffffffffffffff1673ffffffffffffffffffffffffffffffffffffffff16815260200192505050602060405180830381600087803b158015615fa257600080fd5b505af1158015615fb6573d6000803e3d6000fd5b505050506040513d6020811015615fcc57600080fd5b81019080805190602001909291905050509050600060010260001916836000191614158015615ffb5750600082115b80156160075750818110155b80156160f15750600073ffffffffffffffffffffffffffffffffffffffff16600c6000856000191660001916815260200190815260200160002060000160009054906101000a900473ffffffffffffffffffffffffffffffffffffffff1673ffffffffffffffffffffffffffffffffffffffff1614806160f057503373ffffffffffffffffffffffffffffffffffffffff16600c6000856000191660001916815260200190815260200160002060000160009054906101000a900473ffffffffffffffffffffffffffffffffffffffff1673ffffffffffffffffffffffffffffffffffffffff16145b5b1515616165576040517f08c379a00000000000000000000000000000000000000000000000000000000081526004018080602001828103825260178152602001807f4a6f62207375626d697373696f6e20696e76616c69642e00000000000000000081525060200191505060405180910390fd5b600360009054906101000a900473ffffffffffffffffffffffffffffffffffffffff1673ffffffffffffffffffffffffffffffffffffffff166323b872dd3330856040518463ffffffff167c0100000000000000000000000000000000000000000000000000000000028152600401808473ffffffffffffffffffffffffffffffffffffffff1673ffffffffffffffffffffffffffffffffffffffff1681526020018373ffffffffffffffffffffffffffffffffffffffff1673ffffffffffffffffffffffffffffffffffffffff1681526020018281526020019350505050602060405180830381600087803b15801561625e57600080fd5b505af1158015616272573d6000803e3d6000fd5b505050506040513d602081101561628857600080fd5b8101908080519060200190929190505050156164a25781600c600085600019166000191681526020019081526020016000206001016000828254019250508190555033600c6000856000191660001916815260200190815260200160002060000160006101000a81548173ffffffffffffffffffffffffffffffffffffffff021916908373ffffffffffffffffffffffffffffffffffffffff160217905550600360009054906101000a900473ffffffffffffffffffffffffffffffffffffffff1673ffffffffffffffffffffffffffffffffffffffff166370a08231306040518263ffffffff167c0100000000000000000000000000000000000000000000000000000000028152600401808273ffffffffffffffffffffffffffffffffffffffff1673ffffffffffffffffffffffffffffffffffffffff168152602001915050602060405180830381600087803b1580156163e457600080fd5b505af11580156163f8573d6000803e3d6000fd5b505050506040513d602081101561640e57600080fd5b8101908080519060200190929190505050600c60008560001916600019168152602001908152602001600020600101541115151561644857fe5b7f4521c984beed01d188bcc3bd297e6530cd217723b880fa43c70fbcbd664fb2ac60055484846040518084600019166000191681526020018360001916600019168152602001828152602001935050505060405180910390a15b505050565b6002809054906101000a900473ffffffffffffffffffffffffffffffffffffffff168073ffffffffffffffffffffffffffffffffffffffff163373ffffffffffffffffffffffffffffffffffffffff1614151561656c576040517f08c379a00000000000000000000000000000000000000000000000000000000081526004018080602001828103825260168152602001807f53656e646572206e6f7420617574686f72697a65642e0000000000000000000081525060200191505060405180910390fd5b81600a819055507fdca0c456563bef627a1630910a55d7f7dbc34e6436eff2d7a6b04d5b1c76192a600554836040518083600019166000191681526020018281526020019250505060405180910390a15050565b6002809054906101000a900473ffffffffffffffffffffffffffffffffffffffff168073ffffffffffffffffffffffffffffffffffffffff163373ffffffffffffffffffffffffffffffffffffffff16141515616685576040517f08c379a00000000000000000000000000000000000000000000000000000000081526004018080602001828103825260168152602001807f53656e646572206e6f7420617574686f72697a65642e0000000000000000000081525060200191505060405180910390fd5b6000600760008581526020019081526020016000205414156166ce5760088390806001815401808255809150509060018203906000526020600020016000909192909190915055505b8160076000858152602001908152602001600020819055507f2f0fe01aa6daff1c7bb411a324bdebe55dc2cd1e0ff2fc504b7569346e7d7d5a600554846007600087815260200190815260200160002054604051808460001916600019168152602001838152602001828152602001935050505060405180910390a1505050565b6000336001600082604051602001808273ffffffffffffffffffffffffffffffffffffffff1673ffffffffffffffffffffffffffffffffffffffff166c010000000000000000000000000281526014019150506040516020818303038152906040526040518082805190602001908083835b6020831015156167e657805182526020820191506020810190506020830392506167c1565b6001836020036101000a03801982511681845116808217855250505050505090500191505060405180910390206000191660001916815260200190815260200160002060009054906101000a900460ff1615156168ab576040517f08c379a00000000000000000000000000000000000000000000000000000000081526004018080602001828103825260208152602001807f4f776e6572207265717565737420686173206e6f74206265656e2073656e742e81525060200191505060405180910390fd5b33604051602001808273ffffffffffffffffffffffffffffffffffffffff1673ffffffffffffffffffffffffffffffffffffffff166c010000000000000000000000000281526014019150506040516020818303038152906040526040518082805190602001908083835b60208310151561693b5780518252602082019150602081019050602083039250616916565b6001836020036101000a03801982511681845116808217855250505050505090500191505060405180910390209150600060016000846000191660001916815260200190815260200160002060006101000a81548160ff0219169083151502179055503373ffffffffffffffffffffffffffffffffffffffff166000809054906101000a900473ffffffffffffffffffffffffffffffffffffffff1673ffffffffffffffffffffffffffffffffffffffff167f1dc90b1ce875ea53ce4f7fb2036478f4ddfef57ec243f3fb5a9d81faf7dac5f460405160405180910390a35050565b616a25616f79565b600080600084600001548460000181815250508460010154846020018181525050846000015484604001818152505085846080018181525050600e600089600019166000191681526020019081526020016000209250600e600089600019166000191681526020019081526020016000206000018054905083600101600089600019166000191681526020019081526020016000208190555082600001879080600181540180825580915050906001820390600052602060002001600090919290919091509060001916905550838360020160008960001916600019168152602001908152602001600020600082015181600001556020820151816001015560408201518160020155606082015181600301556080820151816004015560a0820151816005019080519060200190616b5e929190616fb0565b50905050600090505b85811015616c0c57846004015481019150826002016000886000191660001916815260200190815260200160002060050160018660050184815481101515616bab57fe5b90600052602060002001540190806001815401808255809150509060018203906000526020600020016000909192909190915055508460050182815481101515616bf157fe5b90600052602060002001600090558080600101915050616b67565b5050505050505050565b600081600201600084600019166000191681526020019081526020016000206000808201600090556001820160009055600282016000905560038201600090556004820160009055600582016000616c6e9190616ffd565b50508160010160008460001916600019168152602001908152602001600020549050816001016000846000191660001916815260200190815260200160002060009055816000016001836000018054905003815481101515616ccc57fe5b90600052602060002001548260000182815481101515616ce857fe5b906000526020600020018160001916905550816000016001836000018054905003815481101515616d1557fe5b9060005260206000200160009055600082600001805490501415616df757600460009054906101000a900473ffffffffffffffffffffffffffffffffffffffff1673ffffffffffffffffffffffffffffffffffffffff166387e52772856005546040518363ffffffff167c0100000000000000000000000000000000000000000000000000000000028152600401808360001916600019168152602001826000191660001916815260200192505050600060405180830381600087803b158015616dde57600080fd5b505af1158015616df2573d6000803e3d6000fd5b505050505b50505050565b606080828401855110151515616e1257600080fd5b821560008114616e2d57604051915060208201604052616e7e565b6040519150601f8416801560200281840101858101878315602002848b0101015b81831015616e6b5780518352602083019250602081019050616e4e565b50868552601f19601f8301166040525050505b50809150509392505050565b6000806001905083518351811460018114616ea85760009250616eed565b600160208701838101602088015b600284838510011415616ee85780518351141515616ed75760009650600093505b602083019250602081019050616eb6565b505050505b50508091505092915050565b828054600181600116156101000203166002900490600052602060002090601f016020900481019282601f10616f3a57805160ff1916838001178555616f68565b82800160010185558215616f68579182015b82811115616f67578251825591602001919060010190616f4c565b5b509050616f75919061701e565b5090565b60c0604051908101604052806000815260200160008152602001600081526020016000815260200160008152602001606081525090565b828054828255906000526020600020908101928215616fec579160200282015b82811115616feb578251825591602001919060010190616fd0565b5b509050616ff9919061701e565b5090565b508054600082559060005260206000209081019061701b919061701e565b50565b61704091905b8082111561703c576000816000905550600101617024565b5090565b905600a165627a7a7230582088b71bc29cdc7b1bea6fb4d2654f313d3d0fae36ac6e413065ff51ec07712c280029",
  "source": "pragma solidity ^0.4.24;\n\nimport \"./Ownable.sol\";\nimport \"./Library.sol\";\nimport \"./AraToken.sol\";\nimport \"bytes/BytesLib.sol\";\n\ncontract AFS is Ownable {\n  using BytesLib for bytes;\n\n  uint8 constant mtBufferSize_ = 40;\n  uint8 constant msBufferSize_ = 64;\n\n  bool      private once_;\n  bool      public resellable_;\n\n  address   public owner_;\n\n  AraToken  public token_;\n  Library   public lib_;\n\n  bytes32   public did_;\n  bool      public listed_;\n  mapping(uint256 => uint256) public prices_; // quantity (lower bound) => price\n  uint256[] public priceTiers_; // quantity tiers\n\n  int256    public totalCopies_ = -1; // scarcity quantity; -1 for unlimited copies\n\n  uint256   public minResalePrice_;\n  uint256   public maxNumResales_; // < maxNumResales_ can be resold\n\n  mapping(bytes32 => Job)                      public jobs_; // jobId => job { budget, sender }\n  mapping(bytes32 => uint256)                  public rewards_;    // farmer => rewards\n  mapping(bytes32 => Purchases)                public purchases_; // keccak256 hashes of buyer addresses\n  mapping(uint8 => mapping (uint256 => bytes)) public metadata_;\n\n  struct Job {\n    address sender;\n    uint256 budget;\n  }\n\n  struct ResaleConfig {\n    // purchase-time config\n    uint256 minResalePrice;\n    uint256 maxNumResales;\n\n    // reseller set config\n    uint256 resalePrice;\n    uint256 available;\n    uint256 quantity;\n    uint256[] resales; // total quantity owned => number of previous resales -- 0 indexed\n  }\n\n  struct Purchases {\n    bytes32[] configIDs;\n    mapping(bytes32 => uint256) configIDIndices; // configID => configIDs index\n    mapping(bytes32 => ResaleConfig) configs; // configID => ResaleConfig\n\n    uint256 quantity; // of non-resellable purchases independent of configs\n  }\n\n  event Commit(bytes32 _did);\n  event Unlisted(bytes32 _did);\n  event Listed(bytes32 _did);\n  event MinResalePriceSet(bytes32 _did, uint256 _price);\n  event ResalePriceSet(bytes32 _did, address _purchaser, uint256 _price);\n  event MaxNumResalesSet(bytes32 _did, uint256 _quantity);\n  event PriceSet(bytes32 _did, uint256 _quantity, uint256 _price);\n  event BudgetSubmitted(bytes32 _did, bytes32 _jobId, uint256 _budget);\n  event RewardsAllocated(bytes32 _did, uint256 _allocated, uint256 _returned);\n  event Purchased(bytes32 _purchaser, bytes32 _did, uint256 _quantity, uint256 _price, bytes32 _configID);\n  event PurchasedResale(bytes32 _purchaser, address _seller, bytes32 _did, uint256 _quantity, uint256 _price, bytes32 _configID);\n  event Redeemed(address _sender);\n  event IncreasedSupply(bytes32 _did, int256 _added, int256 _total);\n  event DecreasedSupply(bytes32 _did, int256 _removed, int256 _total);\n  event SupplySet(bytes32 _did, int256 _quantity);\n  event ResaleUnlocked(bytes32 _did, address _seller, uint256 _available);\n  event ResaleLocked(bytes32 _did, address _seller, uint256 _available);\n\n  modifier onlyBy(address _account)\n  {\n    require(\n      msg.sender == _account,\n      \"Sender not authorized.\"\n    );\n    _;\n  }\n\n  modifier purchaseRequired()\n  {\n    require(\n      purchases_[keccak256(abi.encodePacked(msg.sender))].quantity > 0,\n      \"Content was never purchased.\"\n    );\n    _;\n  }\n\n  modifier budgetSubmitted(bytes32 _jobId)\n  {\n    require(\n      jobs_[_jobId].sender == msg.sender && jobs_[_jobId].budget > 0,\n      \"Job is invalid.\"\n    );\n    _;\n  }\n\n  modifier onlyOnce()\n  {\n    require(!once_, \"Init function can only be called once.\");\n    _;\n  }\n\n  function init(bytes _data) public onlyOnce {\n    once_ = true;\n    uint256 btsptr;\n    address ownerAddr;\n    address tokenAddr;\n    address libAddr;\n    bytes32 did;\n    int256 totalCopies;\n    /* solium-disable-next-line security/no-inline-assembly */\n    assembly {\n        btsptr := add(_data, 32)\n        ownerAddr := mload(btsptr)\n        btsptr := add(_data, 64)\n        tokenAddr := mload(btsptr)\n        btsptr := add(_data, 96)\n        libAddr := mload(btsptr)\n        btsptr := add(_data, 128)\n        did := mload(btsptr)\n        btsptr := add(_data, 160)\n        totalCopies := mload(btsptr)\n    }\n    owner_       = ownerAddr;\n    token_       = AraToken(tokenAddr);\n    lib_         = Library(libAddr);\n    did_         = did;\n    totalCopies_ = totalCopies;\n  }\n\n/**\n * CREATOR COMMERCE\n * ===============================================================================================\n */\n\n  function list() public onlyBy(owner_) {\n    listed_ = true;\n    emit Listed(did_);\n  }\n\n  function unlist() public onlyBy(owner_) {\n    listed_ = false;\n    emit Unlisted(did_);\n  }\n\n  function setPrice(uint256 _quantity, uint256 _price) external onlyBy(owner_) {\n    if (prices_[_quantity] == 0) {\n      priceTiers_.push(_quantity);\n    }\n    prices_[_quantity] = _price;\n    emit PriceSet(did_, _quantity, prices_[_quantity]);\n  }\n\n  function getPrice(uint256 _quantity) public view returns (uint256) {\n    uint256 tier;\n    for (uint256 i = 0; i < priceTiers_.length; i++) {\n      if (priceTiers_[i] == _quantity) {\n        return prices_[_quantity];\n      } else if (priceTiers_[i] < _quantity && priceTiers_[i] > tier) {\n        tier = priceTiers_[i];\n      }\n    }\n    return prices_[tier];\n  }\n\n  function removePriceTier(uint256 _quantity) external onlyBy(owner_) {\n    delete prices_[_quantity];\n    for (uint256 i = 0; i < priceTiers_.length; i++) {\n      if (priceTiers_[i] == _quantity) {\n        delete priceTiers_[i]; // delete price tier\n        priceTiers_[i] = priceTiers_[priceTiers_.length - 1]; // move last price tier into deleted tier position\n        delete priceTiers_[priceTiers_.length - 1]; // delete last price tier\n      }\n    }\n  }\n\n  function setMinResalePrice(uint256 _price) external onlyBy(owner_) {\n    minResalePrice_ = _price;\n    emit MinResalePriceSet(did_, _price);\n  }\n\n  function setResaleQuantity(uint256 _quantity) external onlyBy(owner_) {\n    maxNumResales_ = _quantity;\n    emit MaxNumResalesSet(did_, maxNumResales_);\n  }\n\n  function setSupply(int256 _quantity) public onlyBy(owner_) {\n    require(_quantity > 0, \"Quantity must be greater than 0.\");\n\n    totalCopies_ = _quantity;\n    emit SupplySet(did_, totalCopies_);\n  }\n\n  function increaseSupply(int256 _quantity) public onlyBy(owner_) {\n    require(_quantity > 0, \"Quantity must be greater than 0.\");\n    if (totalCopies_ < 0) {\n      totalCopies_ = _quantity;\n    } else {\n      totalCopies_ += _quantity;\n    }\n    emit IncreasedSupply(did_, _quantity, totalCopies_);\n    emit SupplySet(did_, totalCopies_);\n  }\n\n  function decreaseSupply(int256 _quantity) public onlyBy(owner_) {\n    require(_quantity > 0, \"Cannot remove non-positive number of copies.\");\n    require(totalCopies_ > 0, \"Cannot remove anymore copies.\");\n    require(totalCopies_ - _quantity >= 0, \"Trying to remove more copies than already exist.\");\n    totalCopies_ -= _quantity;\n    emit DecreasedSupply(did_, _quantity, totalCopies_);\n    emit SupplySet(did_, totalCopies_);\n  }\n\n  function setUnlimitedSupply() public onlyBy(owner_) {\n    totalCopies_ = -1;\n    emit SupplySet(did_, totalCopies_);\n  }\n\n/**\n * RESELLER COMMERCE\n * ===============================================================================================\n */\n\n  function unlockResale(bytes32 _configID, uint256 _quantity) public purchaseRequired {\n    bytes32 hashedAddress = keccak256(abi.encodePacked(msg.sender));\n    require(_quantity + purchases_[hashedAddress].configs[_configID].available <= purchases_[hashedAddress].configs[_configID].quantity, \"Cannot unlock more for resale than owned.\");\n    purchases_[hashedAddress].configs[_configID].available += _quantity;\n    assert(purchases_[hashedAddress].configs[_configID].available <= purchases_[hashedAddress].configs[_configID].quantity);\n    emit ResaleUnlocked(did_, msg.sender, purchases_[hashedAddress].configs[_configID].available);\n  }\n\n  function lockResale(bytes32 _configID, uint256 _quantity) public purchaseRequired {\n    bytes32 hashedAddress = keccak256(abi.encodePacked(msg.sender));\n    require(purchases_[hashedAddress].configs[_configID].available >= _quantity, \"Cannot lock more than is available for resale.\");\n    purchases_[hashedAddress].configs[_configID].available -= _quantity;\n    assert(purchases_[hashedAddress].configs[_configID].available <= purchases_[hashedAddress].configs[_configID].quantity);\n    emit ResaleLocked(did_, msg.sender, purchases_[hashedAddress].configs[_configID].available);\n  }\n\n  function setResalePrice(bytes32 _configID, uint256 _price) external purchaseRequired {\n    bytes32 hashedAddress = keccak256(abi.encodePacked(msg.sender));\n    require(_price >= purchases_[hashedAddress].configs[_configID].minResalePrice, \"Resale price must be at least the minimum resale price.\");\n    purchases_[hashedAddress].configs[_configID].resalePrice = _price;\n    emit ResalePriceSet(did_, msg.sender, _price);\n  }\n\n/**\n * PURCHASE\n * ===============================================================================================\n */\n\n  /**\n   * @dev Purchases this AFS and adds it to _purchaser's library. \n   *      If _download is true, deposits any remaining allowance \n   *      as rewards for this purchase\n   * @param _purchaser The hashed methodless did of the purchaser\n   * @param _jobId The jobId of the download, or 0x00000000000000000000000000000000 if N/A\n   * @param _budget The reward budget for jobId, or 0 if N/A\n   */\n  function purchase(bytes32 _purchaser, uint256 _quantity, bytes32 _jobId, uint256 _budget) external {\n    require(listed_, \"AFS has not been listed for sale.\");\n    require(totalCopies_ != 0, \"No more copies available for purchase.\");\n    require(_quantity > 0, \"Must purchase at least 1 copy.\");\n\n    uint256 allowance = token_.allowance(msg.sender, address(this));\n    bytes32 hashedAddress = keccak256(abi.encodePacked(msg.sender));\n    uint256 totalPrice = _quantity * getPrice(_quantity);\n    require(allowance >= (totalPrice) + _budget, \"Proxy must be approved for purchase.\");\n\n    require(token_.transferFrom(msg.sender, owner_, totalPrice), \"Ara transfer failed.\");\n\n    bytes32 configID = bytes32(0);\n    if (resellable_) {\n      configID = keccak256(abi.encodePacked(msg.sender, did_, now, purchases_[hashedAddress].configIDs.length));\n\n      ResaleConfig memory config;\n      config.minResalePrice = minResalePrice_;\n      config.maxNumResales = maxNumResales_;\n      config.resalePrice = minResalePrice_;\n      config.quantity = _quantity;\n\n      purchases_[hashedAddress].configIDIndices[configID] = purchases_[hashedAddress].configIDs.length;\n      purchases_[hashedAddress].configIDs.push(configID);\n      purchases_[hashedAddress].configs[configID] = config;\n    } else {\n      purchases_[hashedAddress].quantity += _quantity;\n    }\n\n    if (totalCopies_ > 0) {\n      totalCopies_ -= int(_quantity);\n      if (totalCopies_ == 0) {\n        unlist();\n      }\n    }\n\n    if (!lib_.owns(_purchaser, did_)) {\n      lib_.addLibraryItem(_purchaser, did_);\n    }\n\n    emit Purchased(_purchaser, did_, _quantity, totalPrice, configID);\n\n    if (_jobId != bytes32(0) && _budget > 0) {\n      submitBudget(_jobId, _budget);\n    }\n  }\n\n  /**\n   * @param _seller seller's Ethereum address\n   * \n   */\n  function purchaseResale(address _seller, bytes32 _configID, bytes32 _purchaser, uint256 _quantity, bytes32 _jobId, uint256 _budget) external {\n    require(_quantity > 0, \"Must purchase at least 1 copy.\");\n\n    bytes32 seller = keccak256(abi.encodePacked(_seller));\n    Purchases storage sellerPurchases = purchases_[seller];\n    ResaleConfig storage sellerConfig = sellerPurchases.configs[_configID];\n\n    require(sellerConfig.available >= _quantity, \"This quantity is not available for resale from this seller using this resale configuration.\");\n    require(sellerConfig.resales[_quantity - 1] < sellerConfig.maxNumResales, \"Copy has already been sold the maximum number of times.\");\n\n    uint256 totalPrice = _quantity * sellerConfig.resalePrice;\n    require(token_.allowance(msg.sender, address(this)) >= totalPrice + _budget, \"Proxy must be approved for purchase.\");\n\n    // transfer minimum resale price to owner and transfer remainder to reseller\n    require(token_.transferFrom(msg.sender, _seller, _quantity * (sellerConfig.resalePrice - sellerConfig.minResalePrice))\n      && token_.transferFrom(msg.sender, owner_, _quantity * sellerConfig.minResalePrice), \"Ara transfer failed.\");\n    \n    // decrement seller resale availability/quantity\n    sellerConfig.quantity -= _quantity;\n    sellerConfig.available -= _quantity;\n\n    bytes32 purchaser = keccak256(abi.encodePacked(msg.sender));\n    Purchases storage purchaserPurchases = purchases_[purchaser];\n\n    bytes32 newConfigID = keccak256(abi.encodePacked(msg.sender, did_, now, purchaserPurchases.configIDs.length));\n    _createConfig(purchaser, newConfigID, _quantity, sellerConfig);\n\n    if (!lib_.owns(_purchaser, did_)) {\n      lib_.addLibraryItem(_purchaser, did_);\n    }\n\n    emit PurchasedResale(_purchaser, _seller, did_, _quantity, totalPrice, newConfigID);\n\n    if (sellerConfig.quantity == 0) {\n      _deleteConfig(seller, _configID, sellerPurchases);\n    }\n\n    if (_jobId != bytes32(0) && _budget > 0) {\n      submitBudget(_jobId, _budget);\n    }\n  }\n\n  function _createConfig(bytes32 _owner, bytes32 _id, uint256 _quantity, ResaleConfig storage oldConfig) internal {\n    ResaleConfig memory newConfig;\n\n    newConfig.minResalePrice = oldConfig.minResalePrice;\n    newConfig.maxNumResales = oldConfig.maxNumResales;\n    newConfig.resalePrice = oldConfig.minResalePrice;\n    newConfig.quantity = _quantity;\n\n    Purchases storage purchases = purchases_[_owner];\n\n    purchases.configIDIndices[_id] = purchases_[_owner].configIDs.length;\n    purchases.configIDs.push(_id);\n    purchases.configs[_id] = newConfig;\n\n    uint256 soldCopyIndex;\n    for (uint256 i = 0; i < _quantity; i++) {\n      soldCopyIndex = i + oldConfig.quantity;\n      purchases.configs[_id].resales.push(oldConfig.resales[soldCopyIndex] + 1); // update resale count for purchaser with old resale count + 1\n      delete oldConfig.resales[soldCopyIndex]; // delete resale count for sold copies\n    }\n  }\n\n  function _deleteConfig(bytes32 seller, bytes32 _id, Purchases storage sellerPurchases) internal {\n    // delete config\n    delete sellerPurchases.configs[_id]; // delete config mapping\n    uint256 configIDIndex = sellerPurchases.configIDIndices[_id]; // get configID index\n    delete sellerPurchases.configIDIndices[_id]; // delete configID index mapping\n    sellerPurchases.configIDs[configIDIndex] = sellerPurchases.configIDs[sellerPurchases.configIDs.length - 1]; // move last configID into deleted configID position\n    delete sellerPurchases.configIDs[sellerPurchases.configIDs.length - 1]; // delete last configID\n\n    if (sellerPurchases.configIDs.length == 0) {\n      lib_.removeLibraryItem(seller, did_);\n    }\n  }\n\n/**\n * REWARDS\n * ===============================================================================================\n */\n\n  function submitBudget(bytes32 _jobId, uint256 _budget) public purchaseRequired {\n    uint256 allowance = token_.allowance(msg.sender, address(this));\n    require(_jobId != bytes32(0) && _budget > 0 && allowance >= _budget\n      && (jobs_[_jobId].sender == address(0) || jobs_[_jobId].sender == msg.sender), \"Job submission invalid.\");\n\n    if (token_.transferFrom(msg.sender, address(this), _budget)) {\n      jobs_[_jobId].budget += _budget;\n      jobs_[_jobId].sender = msg.sender;\n      assert(jobs_[_jobId].budget <= token_.balanceOf(address(this)));\n      emit BudgetSubmitted(did_, _jobId, _budget);\n    }\n  }\n\n  function getBudget(bytes32 _jobId) public view returns (uint256) {\n    return jobs_[_jobId].budget;\n  }\n\n  function allocateRewards(bytes32 _jobId, bytes32[] _farmers, uint256[] _rewards) public budgetSubmitted(_jobId) {\n    require(_farmers.length == _rewards.length, \"Unequal number of farmers and rewards.\");\n    uint256 totalRewards;\n    for (uint8 i = 0; i < _rewards.length; i++) {\n      totalRewards += _rewards[i];\n    }\n    require(totalRewards <= jobs_[_jobId].budget, \"Insufficient budget.\");\n    for (uint8 j = 0; j < _farmers.length; j++) {\n      assert(jobs_[_jobId].budget >= _rewards[j]);\n      rewards_[_farmers[j]] = _rewards[j];\n      jobs_[_jobId].budget -= _rewards[j];\n    }\n    uint256 remaining = jobs_[_jobId].budget;\n    if (remaining > 0) {\n      rewards_[keccak256(abi.encodePacked(msg.sender))] = remaining;\n      jobs_[_jobId].budget = 0;\n      redeemBalance();\n    }\n    emit RewardsAllocated(did_, totalRewards, remaining);\n  }\n\n  function redeemBalance() public {\n    bytes32 hashedAddress = keccak256(abi.encodePacked(msg.sender));\n    require(rewards_[hashedAddress] > 0, \"No balance to redeem.\");\n    if (token_.transfer(msg.sender, rewards_[hashedAddress])) {\n      rewards_[hashedAddress] = 0;\n      emit Redeemed(msg.sender);\n    }\n  }\n\n  function getRewardsBalance(address _farmer) public view returns (uint256) {\n    return rewards_[keccak256(abi.encodePacked(_farmer))];\n  }\n\n/**\n * STORAGE\n * ===============================================================================================\n */\n\n  function append(uint256[] _mtOffsets, uint256[] _msOffsets, bytes _mtBuffer, \n    bytes _msBuffer, bool _list) external onlyBy(owner_) {\n    \n    listed_ = listed_ || _list;\n\n    uint256 maxOffsetLength = _mtOffsets.length > _msOffsets.length \n      ? _mtOffsets.length \n      : _msOffsets.length;\n\n    for (uint i = 0; i < maxOffsetLength; i++) {\n      // metadata/tree\n      if (i <= _mtOffsets.length - 1) {\n        metadata_[0][_mtOffsets[i]] = _mtBuffer.slice(i * mtBufferSize_, mtBufferSize_);\n      }\n\n      // metadata/signatures\n      if (i <= _msOffsets.length - 1) {\n        metadata_[1][_msOffsets[i]] = _msBuffer.slice(i * msBufferSize_, msBufferSize_);\n      }\n    }\n\n    emit Commit(did_);\n  }\n\n  function write(uint256[] _mtOffsets, uint256[] _msOffsets, bytes _mtBuffer, \n    bytes _msBuffer, bool _list) public onlyBy(owner_) {\n\n    listed_ = listed_ || _list;\n\n    uint256 maxOffsetLength = _mtOffsets.length > _msOffsets.length \n      ? _mtOffsets.length \n      : _msOffsets.length;\n\n    // add headers\n    metadata_[0][0] = _mtBuffer.slice(0, 32);\n    metadata_[1][0] = _msBuffer.slice(0, 32);\n\n    for (uint i = 1; i < maxOffsetLength; i++) {\n      // metadata/tree\n      if (i <= _mtOffsets.length - 1) {\n        metadata_[0][_mtOffsets[i]] = _mtBuffer.slice(_mtOffsets[i], mtBufferSize_);\n      }\n      \n      // metadata/signatures\n      if (i <= _msOffsets.length - 1) {\n        metadata_[1][_msOffsets[i]] = _msBuffer.slice(_msOffsets[i], msBufferSize_);\n      }\n    }\n\n    emit Commit(did_);\n  }\n\n  function read(uint8 _file, uint256 _offset) public view returns (bytes buffer) {\n    if (!listed_) {\n      return \"\"; // empty bytes\n    }\n    return metadata_[_file][_offset];\n  }\n\n  function hasBuffer(uint8 _file, uint256 _offset, bytes _buffer) public view returns (bool exists) {\n    return metadata_[_file][_offset].equal(_buffer);\n  }\n}\n",
  "sourcePath": "/Users/ericjiang/Littlstar/ara-contracts/contracts/AFS.sol",
  "compiler": {
    "name": "solc",
    "version": "0.4.24+commit.e67f0147.Emscripten.clang"
  },
  "schemaVersion": "2.0.1",
  "updatedAt": "2018-10-16T14:47:50.394Z"
}