{
  "contractName": "AFS",
  "abi": [
    {
      "constant": true,
      "inputs": [],
      "name": "listed_",
      "outputs": [
        {
          "name": "",
          "type": "bool"
        }
      ],
      "payable": false,
      "stateMutability": "view",
      "type": "function"
    },
    {
      "constant": true,
      "inputs": [],
      "name": "lib_",
      "outputs": [
        {
          "name": "",
          "type": "address"
        }
      ],
      "payable": false,
      "stateMutability": "view",
      "type": "function"
    },
    {
      "constant": true,
      "inputs": [],
      "name": "did_",
      "outputs": [
        {
          "name": "",
          "type": "string"
        }
      ],
      "payable": false,
      "stateMutability": "view",
      "type": "function"
    },
    {
      "constant": true,
      "inputs": [],
      "name": "price_",
      "outputs": [
        {
          "name": "",
          "type": "uint256"
        }
      ],
      "payable": false,
      "stateMutability": "view",
      "type": "function"
    },
    {
      "constant": true,
      "inputs": [],
      "name": "token_",
      "outputs": [
        {
          "name": "",
          "type": "address"
        }
      ],
      "payable": false,
      "stateMutability": "view",
      "type": "function"
    },
    {
      "constant": true,
      "inputs": [],
      "name": "version_",
      "outputs": [
        {
          "name": "",
          "type": "string"
        }
      ],
      "payable": false,
      "stateMutability": "view",
      "type": "function"
    },
    {
      "constant": true,
      "inputs": [],
      "name": "owner_",
      "outputs": [
        {
          "name": "",
          "type": "address"
        }
      ],
      "payable": false,
      "stateMutability": "view",
      "type": "function"
    },
    {
      "inputs": [
        {
          "name": "_lib",
          "type": "address"
        },
        {
          "name": "_token",
          "type": "address"
        },
        {
          "name": "_did",
          "type": "string"
        }
      ],
      "payable": false,
      "stateMutability": "nonpayable",
      "type": "constructor"
    },
    {
      "anonymous": false,
      "inputs": [
        {
          "indexed": false,
          "name": "_did",
          "type": "string"
        },
        {
          "indexed": false,
          "name": "_file",
          "type": "uint8"
        },
        {
          "indexed": false,
          "name": "_offset",
          "type": "uint256"
        },
        {
          "indexed": false,
          "name": "_buffer",
          "type": "bytes"
        }
      ],
      "name": "Commit",
      "type": "event"
    },
    {
      "anonymous": false,
      "inputs": [
        {
          "indexed": false,
          "name": "_did",
          "type": "string"
        }
      ],
      "name": "Unlisted",
      "type": "event"
    },
    {
      "anonymous": false,
      "inputs": [
        {
          "indexed": false,
          "name": "_did",
          "type": "string"
        },
        {
          "indexed": false,
          "name": "_price",
          "type": "uint256"
        }
      ],
      "name": "PriceSet",
      "type": "event"
    },
    {
      "anonymous": false,
      "inputs": [
        {
          "indexed": false,
          "name": "_did",
          "type": "string"
        },
        {
          "indexed": false,
          "name": "_reward",
          "type": "uint256"
        }
      ],
      "name": "RewardDeposited",
      "type": "event"
    },
    {
      "anonymous": false,
      "inputs": [
        {
          "indexed": false,
          "name": "_did",
          "type": "string"
        },
        {
          "indexed": false,
          "name": "_distributed",
          "type": "uint256"
        },
        {
          "indexed": false,
          "name": "_returned",
          "type": "uint256"
        }
      ],
      "name": "RewardDistributed",
      "type": "event"
    },
    {
      "anonymous": false,
      "inputs": [
        {
          "indexed": false,
          "name": "_purchaser",
          "type": "string"
        },
        {
          "indexed": false,
          "name": "_did",
          "type": "string"
        },
        {
          "indexed": false,
          "name": "_download",
          "type": "bool"
        }
      ],
      "name": "Purchased",
      "type": "event"
    },
    {
      "constant": false,
      "inputs": [
        {
          "name": "_price",
          "type": "uint256"
        }
      ],
      "name": "setPrice",
      "outputs": [],
      "payable": false,
      "stateMutability": "nonpayable",
      "type": "function"
    },
    {
      "constant": false,
      "inputs": [
        {
          "name": "_reward",
          "type": "uint256"
        }
      ],
      "name": "depositReward",
      "outputs": [
        {
          "name": "success",
          "type": "bool"
        }
      ],
      "payable": false,
      "stateMutability": "nonpayable",
      "type": "function"
    },
    {
      "constant": false,
      "inputs": [
        {
          "name": "_addresses",
          "type": "address[]"
        },
        {
          "name": "_amounts",
          "type": "uint256[]"
        }
      ],
      "name": "distributeReward",
      "outputs": [
        {
          "name": "success",
          "type": "bool"
        }
      ],
      "payable": false,
      "stateMutability": "nonpayable",
      "type": "function"
    },
    {
      "constant": false,
      "inputs": [
        {
          "name": "_purchaser",
          "type": "string"
        },
        {
          "name": "_download",
          "type": "bool"
        }
      ],
      "name": "purchase",
      "outputs": [
        {
          "name": "success",
          "type": "bool"
        }
      ],
      "payable": false,
      "stateMutability": "nonpayable",
      "type": "function"
    },
    {
      "constant": false,
      "inputs": [
        {
          "name": "_file",
          "type": "uint8"
        },
        {
          "name": "_offset",
          "type": "uint256"
        },
        {
          "name": "_buffer",
          "type": "bytes"
        },
        {
          "name": "_last_write",
          "type": "bool"
        }
      ],
      "name": "write",
      "outputs": [
        {
          "name": "success",
          "type": "bool"
        }
      ],
      "payable": false,
      "stateMutability": "nonpayable",
      "type": "function"
    },
    {
      "constant": true,
      "inputs": [
        {
          "name": "_file",
          "type": "uint8"
        },
        {
          "name": "_offset",
          "type": "uint256"
        }
      ],
      "name": "read",
      "outputs": [
        {
          "name": "buffer",
          "type": "bytes"
        }
      ],
      "payable": false,
      "stateMutability": "view",
      "type": "function"
    },
    {
      "constant": false,
      "inputs": [],
      "name": "unlist",
      "outputs": [
        {
          "name": "success",
          "type": "bool"
        }
      ],
      "payable": false,
      "stateMutability": "nonpayable",
      "type": "function"
    }
  ],
  "bytecode": "0x60806040526040805190810160405280600181526020017f310000000000000000000000000000000000000000000000000000000000000081525060019080519060200190620000519291906200019f565b503480156200005f57600080fd5b50604051620024a3380380620024a3833981018060405281019080805190602001909291908051906020019092919080518201929190505050336000806101000a81548173ffffffffffffffffffffffffffffffffffffffff021916908373ffffffffffffffffffffffffffffffffffffffff16021790555081600260006101000a81548173ffffffffffffffffffffffffffffffffffffffff021916908373ffffffffffffffffffffffffffffffffffffffff16021790555082600360006101000a81548173ffffffffffffffffffffffffffffffffffffffff021916908373ffffffffffffffffffffffffffffffffffffffff1602179055508060049080519060200190620001729291906200019f565b506001600560006101000a81548160ff02191690831515021790555060006006819055505050506200024e565b828054600181600116156101000203166002900490600052602060002090601f016020900481019282601f10620001e257805160ff191683800117855562000213565b8280016001018555821562000213579182015b8281111562000212578251825591602001919060010190620001f5565b5b50905062000222919062000226565b5090565b6200024b91905b80821115620002475760008160009055506001016200022d565b5090565b90565b612245806200025e6000396000f3006080604052600436106100d0576000357c0100000000000000000000000000000000000000000000000000000000900463ffffffff1680631e2720ff146100d55780632a6363be1461011a5780633c6acea51461014957806346f60dee146101bf5780634726972014610216578063822b096e146102a657806391b7f5ed14610311578063a0d585011461033e578063bb66f9f61461036d578063bf466b4a14610420578063ce40b03f1461047f578063d56805e1146104aa578063dd1bb1fc14610501578063e766307914610591575b600080fd5b3480156100e157600080fd5b50610100600480360381019080803590602001909291905050506105e8565b604051808215151515815260200191505060405180910390f35b34801561012657600080fd5b5061012f610b6c565b604051808215151515815260200191505060405180910390f35b34801561015557600080fd5b506101a5600480360381019080803560ff16906020019092919080359060200190929190803590602001908201803590602001919091929391929390803515159060200190929190505050610b7f565b604051808215151515815260200191505060405180910390f35b3480156101cb57600080fd5b506101d4610e06565b604051808273ffffffffffffffffffffffffffffffffffffffff1673ffffffffffffffffffffffffffffffffffffffff16815260200191505060405180910390f35b34801561022257600080fd5b5061022b610e2c565b6040518080602001828103825283818151815260200191508051906020019080838360005b8381101561026b578082015181840152602081019050610250565b50505050905090810190601f1680156102985780820380516001836020036101000a031916815260200191505b509250505060405180910390f35b3480156102b257600080fd5b506102f7600480360381019080803590602001908201803590602001919091929391929390803590602001908201803590602001919091929391929390505050610eca565b604051808215151515815260200191505060405180910390f35b34801561031d57600080fd5b5061033c600480360381019080803590602001909291905050506115ce565b005b34801561034a57600080fd5b50610353611762565b604051808215151515815260200191505060405180910390f35b34801561037957600080fd5b506103a5600480360381019080803560ff1690602001909291908035906020019092919050505061196b565b6040518080602001828103825283818151815260200191508051906020019080838360005b838110156103e55780820151818401526020810190506103ca565b50505050905090810190601f1680156104125780820380516001836020036101000a031916815260200191505b509250505060405180910390f35b34801561042c57600080fd5b50610465600480360381019080803590602001908201803590602001919091929391929390803515159060200190929190505050611a83565b604051808215151515815260200191505060405180910390f35b34801561048b57600080fd5b50610494612085565b6040518082815260200191505060405180910390f35b3480156104b657600080fd5b506104bf61208b565b604051808273ffffffffffffffffffffffffffffffffffffffff1673ffffffffffffffffffffffffffffffffffffffff16815260200191505060405180910390f35b34801561050d57600080fd5b506105166120b1565b6040518080602001828103825283818151815260200191508051906020019080838360005b8381101561055657808201518184015260208101905061053b565b50505050905090810190601f1680156105835780820380516001836020036101000a031916815260200191505b509250505060405180910390f35b34801561059d57600080fd5b506105a661214f565b604051808273ffffffffffffffffffffffffffffffffffffffff1673ffffffffffffffffffffffffffffffffffffffff16815260200191505060405180910390f35b600080600033604051602001808273ffffffffffffffffffffffffffffffffffffffff1673ffffffffffffffffffffffffffffffffffffffff166c010000000000000000000000000281526014019150506040516020818303038152906040526040518082805190602001908083835b60208310151561067d5780518252602082019150602081019050602083039250610658565b6001836020036101000a0380198251168184511680821785525050505050509050019150506040518091039020915060086000836000191660001916815260200190815260200160002060009054906101000a900460ff1615610b6057600260009054906101000a900473ffffffffffffffffffffffffffffffffffffffff1673ffffffffffffffffffffffffffffffffffffffff1663dd62ed3e33306040518363ffffffff167c0100000000000000000000000000000000000000000000000000000000028152600401808373ffffffffffffffffffffffffffffffffffffffff1673ffffffffffffffffffffffffffffffffffffffff1681526020018273ffffffffffffffffffffffffffffffffffffffff1673ffffffffffffffffffffffffffffffffffffffff16815260200192505050602060405180830381600087803b1580156107cb57600080fd5b505af11580156107df573d6000803e3d6000fd5b505050506040513d60208110156107f557600080fd5b810190808051906020019092919050505090508381101580156109485750600260009054906101000a900473ffffffffffffffffffffffffffffffffffffffff1673ffffffffffffffffffffffffffffffffffffffff166323b872dd3330876040518463ffffffff167c0100000000000000000000000000000000000000000000000000000000028152600401808473ffffffffffffffffffffffffffffffffffffffff1673ffffffffffffffffffffffffffffffffffffffff1681526020018373ffffffffffffffffffffffffffffffffffffffff1673ffffffffffffffffffffffffffffffffffffffff1681526020018281526020019350505050602060405180830381600087803b15801561090c57600080fd5b505af1158015610920573d6000803e3d6000fd5b505050506040513d602081101561093657600080fd5b81019080805190602001909291905050505b15610b5f578360076000846000191660001916815260200190815260200160002060008282540192505081905550600260009054906101000a900473ffffffffffffffffffffffffffffffffffffffff1673ffffffffffffffffffffffffffffffffffffffff166370a08231306040518263ffffffff167c0100000000000000000000000000000000000000000000000000000000028152600401808273ffffffffffffffffffffffffffffffffffffffff1673ffffffffffffffffffffffffffffffffffffffff168152602001915050602060405180830381600087803b158015610a3357600080fd5b505af1158015610a47573d6000803e3d6000fd5b505050506040513d6020811015610a5d57600080fd5b81019080805190602001909291905050506007600084600019166000191681526020019081526020016000205411151515610a9457fe5b7fffa127676dfb7fc4c3eec888bf0cd1222a23b8825c4e8d1eff4b9e23cc8f16e86004856040518080602001838152602001828103825284818154600181600116156101000203166002900481526020019150805460018160011615610100020316600290048015610b475780601f10610b1c57610100808354040283529160200191610b47565b820191906000526020600020905b815481529060010190602001808311610b2a57829003601f168201915b5050935050505060405180910390a160019250610b65565b5b600092505b5050919050565b600560009054906101000a900460ff1681565b60008060009054906101000a900473ffffffffffffffffffffffffffffffffffffffff168073ffffffffffffffffffffffffffffffffffffffff163373ffffffffffffffffffffffffffffffffffffffff16141515610c46576040517f08c379a00000000000000000000000000000000000000000000000000000000081526004018080602001828103825260168152602001807f53656e646572206e6f7420617574686f72697a65642e0000000000000000000081525060200191505060405180910390fd5b600960008860ff1660ff16815260200190815260200160002060020160009054906101000a900460ff16151515610c7c57600080fd5b8484600960008a60ff1660ff16815260200190815260200160002060000160008981526020019081526020016000209190610cb8929190612174565b50600960008860ff1660ff1681526020019081526020016000206001018690806001815401808255809150509060018203906000526020600020016000909192909190915055508215610df8577fd2f56baeb2e8836bbf63f5bc75cb743b754fa61b9e7bf53024bd3e4cb2dc93f460048888888860405180806020018660ff1660ff16815260200185815260200180602001838103835288818154600181600116156101000203166002900481526020019150805460018160011615610100020316600290048015610dcb5780601f10610da057610100808354040283529160200191610dcb565b820191906000526020600020905b815481529060010190602001808311610dae57829003601f168201915b50508381038252858582818152602001925080828437820191505097505050505050505060405180910390a15b600191505095945050505050565b600360009054906101000a900473ffffffffffffffffffffffffffffffffffffffff1681565b60048054600181600116156101000203166002900480601f016020809104026020016040519081016040528092919081815260200182805460018160011615610100020316600290048015610ec25780601f10610e9757610100808354040283529160200191610ec2565b820191906000526020600020905b815481529060010190602001808311610ea557829003601f168201915b505050505081565b600080600080600080600033604051602001808273ffffffffffffffffffffffffffffffffffffffff1673ffffffffffffffffffffffffffffffffffffffff166c010000000000000000000000000281526014019150506040516020818303038152906040526040518082805190602001908083835b602083101515610f655780518252602082019150602081019050602083039250610f40565b6001836020036101000a03801982511681845116808217855250505050505090500191505060405180910390209550600060076000886000191660001916815260200190815260200160002054118015610fc45750888890508b8b9050145b1515610fcf57600080fd5b600093505b88889050841015611005578888858181101515610fed57fe5b90506020020135850194508380600101945050610fd4565b600260009054906101000a900473ffffffffffffffffffffffffffffffffffffffff1673ffffffffffffffffffffffffffffffffffffffff166370a08231306040518263ffffffff167c0100000000000000000000000000000000000000000000000000000000028152600401808273ffffffffffffffffffffffffffffffffffffffff1673ffffffffffffffffffffffffffffffffffffffff168152602001915050602060405180830381600087803b1580156110c257600080fd5b505af11580156110d6573d6000803e3d6000fd5b505050506040513d60208110156110ec57600080fd5b810190808051906020019092919050505060076000886000191660001916815260200190815260200160002054111580156111425750846007600088600019166000191681526020019081526020016000205410155b151561114d57600080fd5b60019650600092505b8a8a905083101561133257600260009054906101000a900473ffffffffffffffffffffffffffffffffffffffff1673ffffffffffffffffffffffffffffffffffffffff166323b872dd308d8d8781811015156111ae57fe5b9050602002013573ffffffffffffffffffffffffffffffffffffffff168c8c8881811015156111d957fe5b905060200201356040518463ffffffff167c0100000000000000000000000000000000000000000000000000000000028152600401808473ffffffffffffffffffffffffffffffffffffffff1673ffffffffffffffffffffffffffffffffffffffff1681526020018373ffffffffffffffffffffffffffffffffffffffff1673ffffffffffffffffffffffffffffffffffffffff1681526020018281526020019350505050602060405180830381600087803b15801561129857600080fd5b505af11580156112ac573d6000803e3d6000fd5b505050506040513d60208110156112c257600080fd5b8101908080519060200190929190505050915081156113195788888481811015156112e957fe5b90506020020135600760008860001916600019168152602001908152602001600020600082825403925050819055505b8680156113235750815b96508280600101935050611156565b600090506000600760008860001916600019168152602001908152602001600020541180156114ac5750600260009054906101000a900473ffffffffffffffffffffffffffffffffffffffff1673ffffffffffffffffffffffffffffffffffffffff166323b872dd3033600760008b60001916600019168152602001908152602001600020546040518463ffffffff167c0100000000000000000000000000000000000000000000000000000000028152600401808473ffffffffffffffffffffffffffffffffffffffff1673ffffffffffffffffffffffffffffffffffffffff1681526020018373ffffffffffffffffffffffffffffffffffffffff1673ffffffffffffffffffffffffffffffffffffffff1681526020018281526020019350505050602060405180830381600087803b15801561147057600080fd5b505af1158015611484573d6000803e3d6000fd5b505050506040513d602081101561149a57600080fd5b81019080805190602001909291905050505b156114f1576007600087600019166000191681526020019081526020016000205490506000600760008860001916600019168152602001908152602001600020819055505b7f4e43b8c8795454d46f4b1322d0e6fcb2ffb8db062e02097701962e01917c659e60048287038360405180806020018481526020018381526020018281038252858181546001816001161561010002031660029004815260200191508054600181600116156101000203166002900480156115ad5780601f10611582576101008083540402835291602001916115ad565b820191906000526020600020905b81548152906001019060200180831161159057829003601f168201915b505094505050505060405180910390a1869650505050505050949350505050565b6000809054906101000a900473ffffffffffffffffffffffffffffffffffffffff168073ffffffffffffffffffffffffffffffffffffffff163373ffffffffffffffffffffffffffffffffffffffff16141515611693576040517f08c379a00000000000000000000000000000000000000000000000000000000081526004018080602001828103825260168152602001807f53656e646572206e6f7420617574686f72697a65642e0000000000000000000081525060200191505060405180910390fd5b816006819055507fd36541c06b2fd871e44629372893c1c3d4dd782ebe28a03689b3e3bb6d495f746004600654604051808060200183815260200182810382528481815460018160011615610100020316600290048152602001915080546001816001161561010002031660029004801561174f5780601f106117245761010080835404028352916020019161174f565b820191906000526020600020905b81548152906001019060200180831161173257829003601f168201915b5050935050505060405180910390a15050565b60008060009054906101000a900473ffffffffffffffffffffffffffffffffffffffff168073ffffffffffffffffffffffffffffffffffffffff163373ffffffffffffffffffffffffffffffffffffffff16141515611829576040517f08c379a00000000000000000000000000000000000000000000000000000000081526004018080602001828103825260168152602001807f53656e646572206e6f7420617574686f72697a65642e0000000000000000000081525060200191505060405180910390fd5b6001600960008060ff16815260200190815260200160002060020160006101000a81548160ff021916908315150217905550600160096000600160ff16815260200190815260200160002060020160006101000a81548160ff0219169083151502179055506000600560006101000a81548160ff0219169083151502179055507f703f3c2056f304c9fba60a2602a3c5ecc5fdc04d6f8a5bffef5be2fbd881bc9a600460405180806020018281038252838181546001816001161561010002031660029004815260200191508054600181600116156101000203166002900480156119555780601f1061192a57610100808354040283529160200191611955565b820191906000526020600020905b81548152906001019060200180831161193857829003601f168201915b50509250505060405180910390a1600191505090565b6060600960008460ff1660ff16815260200190815260200160002060020160009054906101000a900460ff16156119b45760206040519081016040528060008152509050611a7d565b600960008460ff1660ff16815260200190815260200160002060000160008381526020019081526020016000208054600181600116156101000203166002900480601f016020809104026020016040519081016040528092919081815260200182805460018160011615610100020316600290048015611a755780601f10611a4a57610100808354040283529160200191611a75565b820191906000526020600020905b815481529060010190602001808311611a5857829003601f168201915b505050505090505b92915050565b6000806000600260009054906101000a900473ffffffffffffffffffffffffffffffffffffffff1673ffffffffffffffffffffffffffffffffffffffff1663dd62ed3e33306040518363ffffffff167c0100000000000000000000000000000000000000000000000000000000028152600401808373ffffffffffffffffffffffffffffffffffffffff1673ffffffffffffffffffffffffffffffffffffffff1681526020018273ffffffffffffffffffffffffffffffffffffffff1673ffffffffffffffffffffffffffffffffffffffff16815260200192505050602060405180830381600087803b158015611b7957600080fd5b505af1158015611b8d573d6000803e3d6000fd5b505050506040513d6020811015611ba357600080fd5b810190808051906020019092919050505091506006548210151515611bc757600080fd5b600260009054906101000a900473ffffffffffffffffffffffffffffffffffffffff1673ffffffffffffffffffffffffffffffffffffffff166323b872dd336000809054906101000a900473ffffffffffffffffffffffffffffffffffffffff166006546040518463ffffffff167c0100000000000000000000000000000000000000000000000000000000028152600401808473ffffffffffffffffffffffffffffffffffffffff1673ffffffffffffffffffffffffffffffffffffffff1681526020018373ffffffffffffffffffffffffffffffffffffffff1673ffffffffffffffffffffffffffffffffffffffff1681526020018281526020019350505050602060405180830381600087803b158015611ce357600080fd5b505af1158015611cf7573d6000803e3d6000fd5b505050506040513d6020811015611d0d57600080fd5b8101908080519060200190929190505050156120775733604051602001808273ffffffffffffffffffffffffffffffffffffffff1673ffffffffffffffffffffffffffffffffffffffff166c010000000000000000000000000281526014019150506040516020818303038152906040526040518082805190602001908083835b602083101515611db35780518252602082019150602081019050602083039250611d8e565b6001836020036101000a03801982511681845116808217855250505050505090500191505060405180910390209050600160086000836000191660001916815260200190815260200160002060006101000a81548160ff021916908315150217905550600360009054906101000a900473ffffffffffffffffffffffffffffffffffffffff1673ffffffffffffffffffffffffffffffffffffffff16638ff4e0a7878760046040518463ffffffff167c010000000000000000000000000000000000000000000000000000000002815260040180806020018060200183810383528686828181526020019250808284378201915050838103825284818154600181600116156101000203166002900481526020019150805460018160011615610100020316600290048015611f295780601f10611efe57610100808354040283529160200191611f29565b820191906000526020600020905b815481529060010190602001808311611f0c57829003601f168201915b505095505050505050600060405180830381600087803b158015611f4c57600080fd5b505af1158015611f60573d6000803e3d6000fd5b505050507fe48738fe73302c1ae839e5374a102bdbba0f4cf6b5da2605462bddef2e1844b08686600487604051808060200180602001841515151581526020018381038352878782818152602001925080828437820191505083810382528581815460018160011615610100020316600290048152602001915080546001816001161561010002031660029004801561203a5780601f1061200f5761010080835404028352916020019161203a565b820191906000526020600020905b81548152906001019060200180831161201d57829003601f168201915b5050965050505050505060405180910390a183801561205a575060065482115b1561206e5761206c60065483036105e8565b505b6001925061207c565b600092505b50509392505050565b60065481565b600260009054906101000a900473ffffffffffffffffffffffffffffffffffffffff1681565b60018054600181600116156101000203166002900480601f0160208091040260200160405190810160405280929190818152602001828054600181600116156101000203166002900480156121475780601f1061211c57610100808354040283529160200191612147565b820191906000526020600020905b81548152906001019060200180831161212a57829003601f168201915b505050505081565b6000809054906101000a900473ffffffffffffffffffffffffffffffffffffffff1681565b828054600181600116156101000203166002900490600052602060002090601f016020900481019282601f106121b557803560ff19168380011785556121e3565b828001600101855582156121e3579182015b828111156121e25782358255916020019190600101906121c7565b5b5090506121f091906121f4565b5090565b61221691905b808211156122125760008160009055506001016121fa565b5090565b905600a165627a7a72305820cdea05e4b6ead0ecae32256b3cfd875553be7d79eefa7b4747481b35256a4d3d0029",
  "source": "pragma solidity ^0.4.24;\n\nimport \"./Library.sol\";\nimport \"./ARAToken.sol\";\n\ncontract AFS {\n  address  public owner_;\n\n  string   public version_ = \"1\";\n\n  ARAToken public token_;\n  Library  public lib_;\n\n  string   public did_;\n  bool     public listed_;\n  uint256  public price_;\n\n  mapping(bytes32 => uint256) internal rewards_;\n  mapping(bytes32 => bool)    internal purchasers_;\n\n  event Commit(string _did, uint8 _file, uint256 _offset, bytes _buffer);\n  event Unlisted(string _did);\n  event PriceSet(string _did, uint256 _price);\n  event RewardDeposited(string _did, uint256 _reward);\n  event RewardDistributed(string _did, uint256 _distributed, uint256 _returned);\n  event Purchased(string _purchaser, string _did, bool _download);\n\n  modifier onlyBy(address _account)\n  {\n      require(\n          msg.sender == _account,\n          \"Sender not authorized.\"\n      );\n      _;\n  }\n\n  // Storage (random-access-contract)\n  mapping(uint8 => Buffers) metadata_;\n  struct Buffers {\n    mapping (uint256 => bytes) buffers;\n    uint256[] offsets;\n    bool invalid;\n  }\n\n  constructor(address _lib, address _token, string _did) public {\n    owner_    = msg.sender;\n    token_    = ARAToken(_token);\n    lib_      = Library(_lib);\n    did_      = _did;\n    listed_   = true;\n    price_    = 0;\n  }\n\n  function setPrice(uint256 _price) external onlyBy(owner_) {\n    price_ = _price;\n    emit PriceSet(did_, price_);\n  }\n\n  function depositReward(uint256 _reward) public returns (bool success) {\n    bytes32 hashedAddress = keccak256(abi.encodePacked(msg.sender));\n    if (purchasers_[hashedAddress]) {\n      uint256 allowance = token_.allowance(msg.sender, address(this));\n      if (allowance >= _reward \n        && token_.transferFrom(msg.sender, address(this), _reward)) {\n        rewards_[hashedAddress] += _reward;\n        assert(rewards_[hashedAddress] <= token_.balanceOf(address(this)));\n        emit RewardDeposited(did_, _reward);\n        return true;\n      }\n    }\n    return false;\n  }\n\n  function distributeReward(address[] _addresses, uint256[] _amounts) external returns (bool success) {\n    bytes32 hashedAddress = keccak256(abi.encodePacked(msg.sender));\n    require(rewards_[hashedAddress] > 0 && _addresses.length == _amounts.length);\n\n    uint256 totalRewards;\n    for (uint256 i = 0; i < _amounts.length; i++) {\n      totalRewards += _amounts[i];\n    }\n    require(rewards_[hashedAddress] <= token_.balanceOf(address(this)) \n      && rewards_[hashedAddress] >= totalRewards);\n\n    success = true;\n    for (uint256 j = 0; j < _addresses.length; j++) {\n      bool transferred = token_.transferFrom(address(this), _addresses[j], _amounts[j]);\n      if (transferred) {\n        rewards_[hashedAddress] -= _amounts[j];\n      }\n      success = success && transferred;\n    }\n\n    uint256 returned = 0;\n    if (rewards_[hashedAddress] > 0 \n      && token_.transferFrom(address(this), msg.sender, rewards_[hashedAddress])) {\n      returned = rewards_[hashedAddress];\n      rewards_[hashedAddress] = 0;\n    }\n\n    emit RewardDistributed(did_, totalRewards - returned, returned);\n\n    return success;\n  }\n\n  function purchase(string _purchaser, bool _download) external returns (bool success) {\n    uint256 allowance = token_.allowance(msg.sender, address(this));\n    require (allowance >= price_); // check if purchaser approved purchase\n\n    if (token_.transferFrom(msg.sender, owner_, price_)) {\n      bytes32 hashedAddress = keccak256(abi.encodePacked(msg.sender));\n      purchasers_[hashedAddress] = true;\n      lib_.addLibraryItem(_purchaser, did_);\n      emit Purchased(_purchaser, did_, _download);\n\n      if (_download && allowance > price_) {\n        depositReward(allowance - price_);\n      }\n\n      return true;\n    } else {\n      return false;\n    }\n  }\n\n  // Storage methods (random-access-contract)\n  function write(uint8 _file, uint256 _offset, bytes _buffer, bool _last_write) external onlyBy(owner_) returns (bool success){\n    // make sure AFS hasn't been removed\n    require(!metadata_[_file].invalid);\n\n    metadata_[_file].buffers[_offset] = _buffer;\n    metadata_[_file].offsets.push(_offset);\n\n    if (_last_write) {\n      emit Commit(did_, _file, _offset, _buffer);\n    }\n    return true;\n  }\n\n  function read(uint8 _file, uint256 _offset) public view returns (bytes buffer) {\n    if (metadata_[_file].invalid) {\n      return \"\"; // empty bytes\n    }\n    return metadata_[_file].buffers[_offset];\n  }\n\n  function unlist() public onlyBy(owner_) returns (bool success) {\n    metadata_[0].invalid = true;\n    metadata_[1].invalid = true;\n    listed_ = false;\n    emit Unlisted(did_);\n    return true;\n  }\n}\n",
  "sourcePath": "/Users/ericjiang/Littlstar/ara-contracts/contracts/AFS.sol",
  "compiler": {
    "name": "solc",
    "version": "0.4.24+commit.e67f0147.Emscripten.clang"
  },
  "schemaVersion": "2.0.1",
  "updatedAt": "2018-07-30T14:57:03.828Z"
}