{
  "contractName": "AFS",
  "abi": [
    {
      "constant": true,
      "inputs": [],
      "name": "minResalePrice_",
      "outputs": [
        {
          "name": "",
          "type": "uint256"
        }
      ],
      "payable": false,
      "stateMutability": "view",
      "type": "function"
    },
    {
      "constant": true,
      "inputs": [
        {
          "name": "",
          "type": "uint256"
        }
      ],
      "name": "priceTiers_",
      "outputs": [
        {
          "name": "",
          "type": "uint256"
        }
      ],
      "payable": false,
      "stateMutability": "view",
      "type": "function"
    },
    {
      "constant": true,
      "inputs": [
        {
          "name": "",
          "type": "bytes32"
        }
      ],
      "name": "jobs_",
      "outputs": [
        {
          "name": "sender",
          "type": "address"
        },
        {
          "name": "budget",
          "type": "uint256"
        }
      ],
      "payable": false,
      "stateMutability": "view",
      "type": "function"
    },
    {
      "constant": true,
      "inputs": [],
      "name": "listed_",
      "outputs": [
        {
          "name": "",
          "type": "bool"
        }
      ],
      "payable": false,
      "stateMutability": "view",
      "type": "function"
    },
    {
      "constant": true,
      "inputs": [
        {
          "name": "",
          "type": "uint8"
        },
        {
          "name": "",
          "type": "uint256"
        }
      ],
      "name": "metadata_",
      "outputs": [
        {
          "name": "",
          "type": "bytes"
        }
      ],
      "payable": false,
      "stateMutability": "view",
      "type": "function"
    },
    {
      "constant": true,
      "inputs": [],
      "name": "lib_",
      "outputs": [
        {
          "name": "",
          "type": "address"
        }
      ],
      "payable": false,
      "stateMutability": "view",
      "type": "function"
    },
    {
      "constant": true,
      "inputs": [],
      "name": "did_",
      "outputs": [
        {
          "name": "",
          "type": "bytes32"
        }
      ],
      "payable": false,
      "stateMutability": "view",
      "type": "function"
    },
    {
      "constant": false,
      "inputs": [
        {
          "name": "_newOwner",
          "type": "address"
        }
      ],
      "name": "approveOwnershipTransfer",
      "outputs": [],
      "payable": false,
      "stateMutability": "nonpayable",
      "type": "function"
    },
    {
      "constant": true,
      "inputs": [
        {
          "name": "",
          "type": "bytes32"
        }
      ],
      "name": "rewards_",
      "outputs": [
        {
          "name": "",
          "type": "uint256"
        }
      ],
      "payable": false,
      "stateMutability": "view",
      "type": "function"
    },
    {
      "constant": true,
      "inputs": [],
      "name": "maxNumResales_",
      "outputs": [
        {
          "name": "",
          "type": "uint256"
        }
      ],
      "payable": false,
      "stateMutability": "view",
      "type": "function"
    },
    {
      "constant": false,
      "inputs": [],
      "name": "requestOwnership",
      "outputs": [],
      "payable": false,
      "stateMutability": "nonpayable",
      "type": "function"
    },
    {
      "constant": true,
      "inputs": [
        {
          "name": "",
          "type": "bytes32"
        }
      ],
      "name": "requesters_",
      "outputs": [
        {
          "name": "",
          "type": "bool"
        }
      ],
      "payable": false,
      "stateMutability": "view",
      "type": "function"
    },
    {
      "constant": true,
      "inputs": [],
      "name": "token_",
      "outputs": [
        {
          "name": "",
          "type": "address"
        }
      ],
      "payable": false,
      "stateMutability": "view",
      "type": "function"
    },
    {
      "constant": true,
      "inputs": [],
      "name": "totalCopies_",
      "outputs": [
        {
          "name": "",
          "type": "int256"
        }
      ],
      "payable": false,
      "stateMutability": "view",
      "type": "function"
    },
    {
      "constant": true,
      "inputs": [],
      "name": "owner_",
      "outputs": [
        {
          "name": "",
          "type": "address"
        }
      ],
      "payable": false,
      "stateMutability": "view",
      "type": "function"
    },
    {
      "constant": true,
      "inputs": [
        {
          "name": "",
          "type": "uint256"
        }
      ],
      "name": "prices_",
      "outputs": [
        {
          "name": "",
          "type": "uint256"
        }
      ],
      "payable": false,
      "stateMutability": "view",
      "type": "function"
    },
    {
      "constant": true,
      "inputs": [
        {
          "name": "",
          "type": "bytes32"
        }
      ],
      "name": "purchasers_",
      "outputs": [
        {
          "name": "available",
          "type": "uint256"
        },
        {
          "name": "quantity",
          "type": "uint256"
        },
        {
          "name": "resalePrice",
          "type": "uint256"
        }
      ],
      "payable": false,
      "stateMutability": "view",
      "type": "function"
    },
    {
      "constant": false,
      "inputs": [],
      "name": "revokeOwnershipRequest",
      "outputs": [],
      "payable": false,
      "stateMutability": "nonpayable",
      "type": "function"
    },
    {
      "anonymous": false,
      "inputs": [
        {
          "indexed": false,
          "name": "_did",
          "type": "bytes32"
        }
      ],
      "name": "Commit",
      "type": "event"
    },
    {
      "anonymous": false,
      "inputs": [
        {
          "indexed": false,
          "name": "_did",
          "type": "bytes32"
        }
      ],
      "name": "Unlisted",
      "type": "event"
    },
    {
      "anonymous": false,
      "inputs": [
        {
          "indexed": false,
          "name": "_did",
          "type": "bytes32"
        }
      ],
      "name": "Listed",
      "type": "event"
    },
    {
      "anonymous": false,
      "inputs": [
        {
          "indexed": false,
          "name": "_did",
          "type": "bytes32"
        },
        {
          "indexed": false,
          "name": "_price",
          "type": "uint256"
        }
      ],
      "name": "MinResalePriceSet",
      "type": "event"
    },
    {
      "anonymous": false,
      "inputs": [
        {
          "indexed": false,
          "name": "_did",
          "type": "bytes32"
        },
        {
          "indexed": false,
          "name": "_purchaser",
          "type": "address"
        },
        {
          "indexed": false,
          "name": "_price",
          "type": "uint256"
        }
      ],
      "name": "ResalePriceSet",
      "type": "event"
    },
    {
      "anonymous": false,
      "inputs": [
        {
          "indexed": false,
          "name": "_did",
          "type": "bytes32"
        },
        {
          "indexed": false,
          "name": "_quantity",
          "type": "uint256"
        }
      ],
      "name": "MaxNumResalesSet",
      "type": "event"
    },
    {
      "anonymous": false,
      "inputs": [
        {
          "indexed": false,
          "name": "_did",
          "type": "bytes32"
        },
        {
          "indexed": false,
          "name": "_quantity",
          "type": "uint256"
        },
        {
          "indexed": false,
          "name": "_price",
          "type": "uint256"
        }
      ],
      "name": "PriceSet",
      "type": "event"
    },
    {
      "anonymous": false,
      "inputs": [
        {
          "indexed": false,
          "name": "_did",
          "type": "bytes32"
        },
        {
          "indexed": false,
          "name": "_jobId",
          "type": "bytes32"
        },
        {
          "indexed": false,
          "name": "_budget",
          "type": "uint256"
        }
      ],
      "name": "BudgetSubmitted",
      "type": "event"
    },
    {
      "anonymous": false,
      "inputs": [
        {
          "indexed": false,
          "name": "_did",
          "type": "bytes32"
        },
        {
          "indexed": false,
          "name": "_allocated",
          "type": "uint256"
        },
        {
          "indexed": false,
          "name": "_returned",
          "type": "uint256"
        }
      ],
      "name": "RewardsAllocated",
      "type": "event"
    },
    {
      "anonymous": false,
      "inputs": [
        {
          "indexed": false,
          "name": "_purchaser",
          "type": "bytes32"
        },
        {
          "indexed": false,
          "name": "_did",
          "type": "bytes32"
        },
        {
          "indexed": false,
          "name": "_quantity",
          "type": "uint256"
        },
        {
          "indexed": false,
          "name": "_price",
          "type": "uint256"
        }
      ],
      "name": "Purchased",
      "type": "event"
    },
    {
      "anonymous": false,
      "inputs": [
        {
          "indexed": false,
          "name": "_purchaser",
          "type": "bytes32"
        },
        {
          "indexed": false,
          "name": "_did",
          "type": "bytes32"
        },
        {
          "indexed": false,
          "name": "_quantity",
          "type": "uint256"
        },
        {
          "indexed": false,
          "name": "_price",
          "type": "uint256"
        }
      ],
      "name": "PurchasedResale",
      "type": "event"
    },
    {
      "anonymous": false,
      "inputs": [
        {
          "indexed": false,
          "name": "_sender",
          "type": "address"
        }
      ],
      "name": "Redeemed",
      "type": "event"
    },
    {
      "anonymous": false,
      "inputs": [
        {
          "indexed": false,
          "name": "_did",
          "type": "bytes32"
        },
        {
          "indexed": false,
          "name": "_added",
          "type": "int256"
        },
        {
          "indexed": false,
          "name": "_total",
          "type": "int256"
        }
      ],
      "name": "IncreasedSupply",
      "type": "event"
    },
    {
      "anonymous": false,
      "inputs": [
        {
          "indexed": false,
          "name": "_did",
          "type": "bytes32"
        },
        {
          "indexed": false,
          "name": "_removed",
          "type": "int256"
        },
        {
          "indexed": false,
          "name": "_total",
          "type": "int256"
        }
      ],
      "name": "DecreasedSupply",
      "type": "event"
    },
    {
      "anonymous": false,
      "inputs": [
        {
          "indexed": false,
          "name": "_did",
          "type": "bytes32"
        },
        {
          "indexed": false,
          "name": "_quantity",
          "type": "int256"
        }
      ],
      "name": "SupplySet",
      "type": "event"
    },
    {
      "anonymous": false,
      "inputs": [
        {
          "indexed": false,
          "name": "_did",
          "type": "bytes32"
        },
        {
          "indexed": false,
          "name": "_seller",
          "type": "address"
        },
        {
          "indexed": false,
          "name": "_available",
          "type": "uint256"
        }
      ],
      "name": "ResaleUnlocked",
      "type": "event"
    },
    {
      "anonymous": false,
      "inputs": [
        {
          "indexed": false,
          "name": "_did",
          "type": "bytes32"
        },
        {
          "indexed": false,
          "name": "_seller",
          "type": "address"
        },
        {
          "indexed": false,
          "name": "_available",
          "type": "uint256"
        }
      ],
      "name": "ResaleLocked",
      "type": "event"
    },
    {
      "anonymous": false,
      "inputs": [
        {
          "indexed": true,
          "name": "_previousOwner",
          "type": "address"
        },
        {
          "indexed": true,
          "name": "_newOwner",
          "type": "address"
        }
      ],
      "name": "TransferApproved",
      "type": "event"
    },
    {
      "anonymous": false,
      "inputs": [
        {
          "indexed": true,
          "name": "_currentOwner",
          "type": "address"
        },
        {
          "indexed": true,
          "name": "_requestedOwner",
          "type": "address"
        }
      ],
      "name": "TransferRequested",
      "type": "event"
    },
    {
      "anonymous": false,
      "inputs": [
        {
          "indexed": true,
          "name": "_currentOwner",
          "type": "address"
        },
        {
          "indexed": true,
          "name": "_requestOwner",
          "type": "address"
        }
      ],
      "name": "RequestRevoked",
      "type": "event"
    },
    {
      "constant": false,
      "inputs": [
        {
          "name": "_data",
          "type": "bytes"
        }
      ],
      "name": "init",
      "outputs": [],
      "payable": false,
      "stateMutability": "nonpayable",
      "type": "function"
    },
    {
      "constant": false,
      "inputs": [
        {
          "name": "_quantity",
          "type": "uint256"
        },
        {
          "name": "_price",
          "type": "uint256"
        }
      ],
      "name": "setPrice",
      "outputs": [],
      "payable": false,
      "stateMutability": "nonpayable",
      "type": "function"
    },
    {
      "constant": true,
      "inputs": [
        {
          "name": "_quantity",
          "type": "uint256"
        }
      ],
      "name": "getPrice",
      "outputs": [
        {
          "name": "",
          "type": "uint256"
        }
      ],
      "payable": false,
      "stateMutability": "view",
      "type": "function"
    },
    {
      "constant": false,
      "inputs": [
        {
          "name": "_quantity",
          "type": "uint256"
        }
      ],
      "name": "unlockResale",
      "outputs": [],
      "payable": false,
      "stateMutability": "nonpayable",
      "type": "function"
    },
    {
      "constant": false,
      "inputs": [
        {
          "name": "_quantity",
          "type": "uint256"
        }
      ],
      "name": "lockResale",
      "outputs": [],
      "payable": false,
      "stateMutability": "nonpayable",
      "type": "function"
    },
    {
      "constant": false,
      "inputs": [
        {
          "name": "_price",
          "type": "uint256"
        }
      ],
      "name": "setMinResalePrice",
      "outputs": [],
      "payable": false,
      "stateMutability": "nonpayable",
      "type": "function"
    },
    {
      "constant": false,
      "inputs": [
        {
          "name": "_price",
          "type": "uint256"
        }
      ],
      "name": "setResalePrice",
      "outputs": [],
      "payable": false,
      "stateMutability": "nonpayable",
      "type": "function"
    },
    {
      "constant": false,
      "inputs": [
        {
          "name": "_quantity",
          "type": "uint256"
        }
      ],
      "name": "setResaleQuantity",
      "outputs": [],
      "payable": false,
      "stateMutability": "nonpayable",
      "type": "function"
    },
    {
      "constant": false,
      "inputs": [
        {
          "name": "_quantity",
          "type": "int256"
        }
      ],
      "name": "setSupply",
      "outputs": [],
      "payable": false,
      "stateMutability": "nonpayable",
      "type": "function"
    },
    {
      "constant": false,
      "inputs": [
        {
          "name": "_quantity",
          "type": "int256"
        }
      ],
      "name": "increaseSupply",
      "outputs": [],
      "payable": false,
      "stateMutability": "nonpayable",
      "type": "function"
    },
    {
      "constant": false,
      "inputs": [
        {
          "name": "_quantity",
          "type": "int256"
        }
      ],
      "name": "decreaseSupply",
      "outputs": [],
      "payable": false,
      "stateMutability": "nonpayable",
      "type": "function"
    },
    {
      "constant": false,
      "inputs": [],
      "name": "setUnlimitedSupply",
      "outputs": [],
      "payable": false,
      "stateMutability": "nonpayable",
      "type": "function"
    },
    {
      "constant": false,
      "inputs": [
        {
          "name": "_purchaser",
          "type": "bytes32"
        },
        {
          "name": "_quantity",
          "type": "uint256"
        },
        {
          "name": "_jobId",
          "type": "bytes32"
        },
        {
          "name": "_budget",
          "type": "uint256"
        }
      ],
      "name": "purchase",
      "outputs": [],
      "payable": false,
      "stateMutability": "nonpayable",
      "type": "function"
    },
    {
      "constant": false,
      "inputs": [
        {
          "name": "_seller",
          "type": "address"
        },
        {
          "name": "_purchaser",
          "type": "bytes32"
        },
        {
          "name": "_quantity",
          "type": "uint256"
        },
        {
          "name": "_jobId",
          "type": "bytes32"
        },
        {
          "name": "_budget",
          "type": "uint256"
        }
      ],
      "name": "purchaseResale",
      "outputs": [],
      "payable": false,
      "stateMutability": "nonpayable",
      "type": "function"
    },
    {
      "constant": false,
      "inputs": [
        {
          "name": "_jobId",
          "type": "bytes32"
        },
        {
          "name": "_budget",
          "type": "uint256"
        }
      ],
      "name": "submitBudget",
      "outputs": [],
      "payable": false,
      "stateMutability": "nonpayable",
      "type": "function"
    },
    {
      "constant": true,
      "inputs": [
        {
          "name": "_jobId",
          "type": "bytes32"
        }
      ],
      "name": "getBudget",
      "outputs": [
        {
          "name": "",
          "type": "uint256"
        }
      ],
      "payable": false,
      "stateMutability": "view",
      "type": "function"
    },
    {
      "constant": false,
      "inputs": [
        {
          "name": "_jobId",
          "type": "bytes32"
        },
        {
          "name": "_farmers",
          "type": "bytes32[]"
        },
        {
          "name": "_rewards",
          "type": "uint256[]"
        }
      ],
      "name": "allocateRewards",
      "outputs": [],
      "payable": false,
      "stateMutability": "nonpayable",
      "type": "function"
    },
    {
      "constant": false,
      "inputs": [],
      "name": "redeemBalance",
      "outputs": [],
      "payable": false,
      "stateMutability": "nonpayable",
      "type": "function"
    },
    {
      "constant": true,
      "inputs": [
        {
          "name": "_farmer",
          "type": "address"
        }
      ],
      "name": "getRewardsBalance",
      "outputs": [
        {
          "name": "",
          "type": "uint256"
        }
      ],
      "payable": false,
      "stateMutability": "view",
      "type": "function"
    },
    {
      "constant": false,
      "inputs": [
        {
          "name": "_mtOffsets",
          "type": "uint256[]"
        },
        {
          "name": "_msOffsets",
          "type": "uint256[]"
        },
        {
          "name": "_mtBuffer",
          "type": "bytes"
        },
        {
          "name": "_msBuffer",
          "type": "bytes"
        },
        {
          "name": "_list",
          "type": "bool"
        }
      ],
      "name": "append",
      "outputs": [],
      "payable": false,
      "stateMutability": "nonpayable",
      "type": "function"
    },
    {
      "constant": false,
      "inputs": [
        {
          "name": "_mtOffsets",
          "type": "uint256[]"
        },
        {
          "name": "_msOffsets",
          "type": "uint256[]"
        },
        {
          "name": "_mtBuffer",
          "type": "bytes"
        },
        {
          "name": "_msBuffer",
          "type": "bytes"
        },
        {
          "name": "_list",
          "type": "bool"
        }
      ],
      "name": "write",
      "outputs": [],
      "payable": false,
      "stateMutability": "nonpayable",
      "type": "function"
    },
    {
      "constant": true,
      "inputs": [
        {
          "name": "_file",
          "type": "uint8"
        },
        {
          "name": "_offset",
          "type": "uint256"
        }
      ],
      "name": "read",
      "outputs": [
        {
          "name": "buffer",
          "type": "bytes"
        }
      ],
      "payable": false,
      "stateMutability": "view",
      "type": "function"
    },
    {
      "constant": true,
      "inputs": [
        {
          "name": "_file",
          "type": "uint8"
        },
        {
          "name": "_offset",
          "type": "uint256"
        },
        {
          "name": "_buffer",
          "type": "bytes"
        }
      ],
      "name": "hasBuffer",
      "outputs": [
        {
          "name": "exists",
          "type": "bool"
        }
      ],
      "payable": false,
      "stateMutability": "view",
      "type": "function"
    },
    {
      "constant": false,
      "inputs": [],
      "name": "list",
      "outputs": [],
      "payable": false,
      "stateMutability": "nonpayable",
      "type": "function"
    },
    {
      "constant": false,
      "inputs": [],
      "name": "unlist",
      "outputs": [],
      "payable": false,
      "stateMutability": "nonpayable",
      "type": "function"
    }
  ],
  "bytecode": "0x60806040527fffffffffffffffffffffffffffffffffffffffffffffffffffffffffffffffff60095534801561003457600080fd5b5061678280620000456000396000f30060806040526004361061020f576000357c0100000000000000000000000000000000000000000000000000000000900463ffffffff16806306b75c5a146102145780630b38926a1461023f5780630f560cd7146102805780631748fde9146102975780631e0a1b95146102ae5780632710ab60146103265780632a6363be1461035357806331ddd9ab146103825780633e5ceede1461043557806345abe03d1461044c57806346f60dee1461047957806347269720146104d05780634ddf47d4146105035780634e1d009f1461056c578063546887a3146105af5780635ee6fa61146105f45780637bfa87b6146106395780638a67f4bf146106645780638e5aafe1146106bb5780638ea8bf03146106d257806393acee64146106ff57806399d20bb1146108405780639c76a541146108895780639f930eb2146108b65780639facb9ba14610929578063a0d5850114610956578063b658e8511461096d578063bb66f9f6146109c0578063ca31ae1b14610a73578063cc3a08f814610aa0578063d56805e114610b57578063dd846f0814610bae578063e757223014610bd9578063e766307914610c1a578063e7f9257514610c71578063f0c13b9e14610c9e578063f0e5bd8614610cdf578063f1c737de14610d77578063f51b697914610e06578063f5bd3e3f14610e41578063f5d0103c14610e94578063f7d9757714610ec1578063fc1c34e414610ef8575b600080fd5b34801561022057600080fd5b50610229610f0f565b6040518082815260200191505060405180910390f35b34801561024b57600080fd5b5061026a60048036038101908080359060200190929190505050610f15565b6040518082815260200191505060405180910390f35b34801561028c57600080fd5b50610295610f38565b005b3480156102a357600080fd5b506102ac61105d565b005b3480156102ba57600080fd5b506102dd6004803603810190808035600019169060200190929190505050611198565b604051808373ffffffffffffffffffffffffffffffffffffffff1673ffffffffffffffffffffffffffffffffffffffff1681526020018281526020019250505060405180910390f35b34801561033257600080fd5b50610351600480360381019080803590602001909291905050506111dc565b005b34801561035f57600080fd5b506103686115dd565b604051808215151515815260200191505060405180910390f35b34801561038e57600080fd5b506103ba600480360381019080803560ff169060200190929190803590602001909291905050506115f0565b6040518080602001828103825283818151815260200191508051906020019080838360005b838110156103fa5780820151818401526020810190506103df565b50505050905090810190601f1680156104275780820380516001836020036101000a031916815260200191505b509250505060405180910390f35b34801561044157600080fd5b5061044a6116ad565b005b34801561045857600080fd5b50610477600480360381019080803590602001909291905050506119a9565b005b34801561048557600080fd5b5061048e611bb1565b604051808273ffffffffffffffffffffffffffffffffffffffff1673ffffffffffffffffffffffffffffffffffffffff16815260200191505060405180910390f35b3480156104dc57600080fd5b506104e5611bd7565b60405180826000191660001916815260200191505060405180910390f35b34801561050f57600080fd5b5061056a600480360381019080803590602001908201803590602001908080601f0160208091040260200160405190810160405280939291908181526020018383808284378201915050505050509192919290505050611bdd565b005b34801561057857600080fd5b506105ad600480360381019080803573ffffffffffffffffffffffffffffffffffffffff169060200190929190505050611dbc565b005b3480156105bb57600080fd5b506105de60048036038101908080356000191690602001909291905050506120ab565b6040518082815260200191505060405180910390f35b34801561060057600080fd5b5061062360048036038101908080356000191690602001909291905050506120d3565b6040518082815260200191505060405180910390f35b34801561064557600080fd5b5061064e6120eb565b6040518082815260200191505060405180910390f35b34801561067057600080fd5b506106a5600480360381019080803573ffffffffffffffffffffffffffffffffffffffff1690602001909291905050506120f1565b6040518082815260200191505060405180910390f35b3480156106c757600080fd5b506106d06121d2565b005b3480156106de57600080fd5b506106fd600480360381019080803590602001909291905050506124c4565b005b34801561070b57600080fd5b5061083e6004803603810190808035906020019082018035906020019080806020026020016040519081016040528093929190818152602001838360200280828437820191505050505050919291929080359060200190820180359060200190808060200260200160405190810160405280939291908181526020018383602002808284378201915050505050509192919290803590602001908201803590602001908080601f0160208091040260200160405190810160405280939291908181526020018383808284378201915050505050509192919290803590602001908201803590602001908080601f0160208091040260200160405190810160405280939291908181526020018383808284378201915050505050509192919290803515159060200190929190505050612658565b005b34801561084c57600080fd5b5061086f6004803603810190808035600019169060200190929190505050612992565b604051808215151515815260200191505060405180910390f35b34801561089557600080fd5b506108b4600480360381019080803590602001909291905050506129b2565b005b3480156108c257600080fd5b50610927600480360381019080803573ffffffffffffffffffffffffffffffffffffffff169060200190929190803560001916906020019092919080359060200190929190803560001916906020019092919080359060200190929190505050612ace565b005b34801561093557600080fd5b50610954600480360381019080803590602001909291905050506138e2565b005b34801561096257600080fd5b5061096b613cc3565b005b34801561097957600080fd5b506109be600480360381019080803560001916906020019092919080359060200190929190803560001916906020019092919080359060200190929190505050613de8565b005b3480156109cc57600080fd5b506109f8600480360381019080803560ff16906020019092919080359060200190929190505050614642565b6040518080602001828103825283818151815260200191508051906020019080838360005b83811015610a38578082015181840152602081019050610a1d565b50505050905090810190601f168015610a655780820380516001836020036101000a031916815260200191505b509250505060405180910390f35b348015610a7f57600080fd5b50610a9e6004803603810190808035906020019092919050505061473e565b005b348015610aac57600080fd5b50610b5560048036038101908080356000191690602001909291908035906020019082018035906020019080806020026020016040519081016040528093929190818152602001838360200280828437820191505050505050919291929080359060200190820180359060200190808060200260200160405190810160405280939291908181526020018383602002808284378201915050505050509192919290505050614a71565b005b348015610b6357600080fd5b50610b6c614f7f565b604051808273ffffffffffffffffffffffffffffffffffffffff1673ffffffffffffffffffffffffffffffffffffffff16815260200191505060405180910390f35b348015610bba57600080fd5b50610bc3614fa5565b6040518082815260200191505060405180910390f35b348015610be557600080fd5b50610c0460048036038101908080359060200190929190505050614fab565b6040518082815260200191505060405180910390f35b348015610c2657600080fd5b50610c2f61508a565b604051808273ffffffffffffffffffffffffffffffffffffffff1673ffffffffffffffffffffffffffffffffffffffff16815260200191505060405180910390f35b348015610c7d57600080fd5b50610c9c600480360381019080803590602001909291905050506150b0565b005b348015610caa57600080fd5b50610cc960048036038101908080359060200190929190505050615401565b6040518082815260200191505060405180910390f35b348015610ceb57600080fd5b50610d5d600480360381019080803560ff16906020019092919080359060200190929190803590602001908201803590602001908080601f0160208091040260200160405190810160405280939291908181526020018383808284378201915050505050509192919290505050615419565b604051808215151515815260200191505060405180910390f35b348015610d8357600080fd5b50610e046004803603810190808035906020019082018035906020019190919293919293908035906020019082018035906020019190919293919293908035906020019082018035906020019190919293919293908035906020019082018035906020019190919293919293908035151590602001909291905050506154f9565b005b348015610e1257600080fd5b50610e3f6004803603810190808035600019169060200190929190803590602001909291905050506157da565b005b348015610e4d57600080fd5b50610e706004803603810190808035600019169060200190929190505050615f23565b60405180848152602001838152602001828152602001935050505060405180910390f35b348015610ea057600080fd5b50610ebf60048036038101908080359060200190929190505050615f4d565b005b348015610ecd57600080fd5b50610ef66004803603810190808035906020019092919080359060200190929190505050616067565b005b348015610f0457600080fd5b50610f0d6162e7565b005b600a5481565b600881815481101515610f2457fe5b906000526020600020016000915090505481565b600260019054906101000a900473ffffffffffffffffffffffffffffffffffffffff168073ffffffffffffffffffffffffffffffffffffffff163373ffffffffffffffffffffffffffffffffffffffff16141515610ffe576040517f08c379a00000000000000000000000000000000000000000000000000000000081526004018080602001828103825260168152602001807f53656e646572206e6f7420617574686f72697a65642e0000000000000000000081525060200191505060405180910390fd5b6001600660006101000a81548160ff0219169083151502179055507fbb62c580222a498aedf5b724b94b0d90065a6bd3be8349b223dc032dbdef555560055460405180826000191660001916815260200191505060405180910390a150565b600260019054906101000a900473ffffffffffffffffffffffffffffffffffffffff168073ffffffffffffffffffffffffffffffffffffffff163373ffffffffffffffffffffffffffffffffffffffff16141515611123576040517f08c379a00000000000000000000000000000000000000000000000000000000081526004018080602001828103825260168152602001807f53656e646572206e6f7420617574686f72697a65642e0000000000000000000081525060200191505060405180910390fd5b7fffffffffffffffffffffffffffffffffffffffffffffffffffffffffffffffff6009819055507fc091136731faaafc407d34b2dc2d84c30df98775ec9a6f4d6df5002c17a3a0096005546009546040518083600019166000191681526020018281526020019250505060405180910390a150565b600c6020528060005260406000206000915090508060000160009054906101000a900473ffffffffffffffffffffffffffffffffffffffff16908060010154905082565b600080600e600033604051602001808273ffffffffffffffffffffffffffffffffffffffff1673ffffffffffffffffffffffffffffffffffffffff166c010000000000000000000000000281526014019150506040516020818303038152906040526040518082805190602001908083835b602083101515611273578051825260208201915060208101905060208303925061124e565b6001836020036101000a0380198251168184511680821785525050505050509050019150506040518091039020600019166000191681526020019081526020016000206001015411151561132f576040517f08c379a000000000000000000000000000000000000000000000000000000000815260040180806020018281038252601c8152602001807f436f6e74656e7420776173206e65766572207075726368617365642e0000000081525060200191505060405180910390fd5b33604051602001808273ffffffffffffffffffffffffffffffffffffffff1673ffffffffffffffffffffffffffffffffffffffff166c010000000000000000000000000281526014019150506040516020818303038152906040526040518082805190602001908083835b6020831015156113bf578051825260208201915060208101905060208303925061139a565b6001836020036101000a03801982511681845116808217855250505050505090500191505060405180910390209050600e6000826000191660001916815260200190815260200160002060010154600e60008360001916600019168152602001908152602001600020600001548301111515156114ca576040517f08c379a00000000000000000000000000000000000000000000000000000000081526004018080602001828103825260298152602001807f43616e6e6f7420756e6c6f636b206d6f726520666f7220726573616c6520746881526020017f616e206f776e65642e000000000000000000000000000000000000000000000081525060400191505060405180910390fd5b81600e6000836000191660001916815260200190815260200160002060000160008282540192505081905550600e6000826000191660001916815260200190815260200160002060010154600e60008360001916600019168152602001908152602001600020600001541115151561153e57fe5b7fe78857a26a7fe475546465ff27735fabea42cc1dc6fb9284b146bd4d01f9244460055433600e60008560001916600019168152602001908152602001600020600001546040518084600019166000191681526020018373ffffffffffffffffffffffffffffffffffffffff1673ffffffffffffffffffffffffffffffffffffffff168152602001828152602001935050505060405180910390a15050565b600660009054906101000a900460ff1681565b600f602052816000526040600020602052806000526040600020600091509150508054600181600116156101000203166002900480601f0160208091040260200160405190810160405280929190818152602001828054600181600116156101000203166002900480156116a55780601f1061167a576101008083540402835291602001916116a5565b820191906000526020600020905b81548152906001019060200180831161168857829003601f168201915b505050505081565b600033604051602001808273ffffffffffffffffffffffffffffffffffffffff1673ffffffffffffffffffffffffffffffffffffffff166c010000000000000000000000000281526014019150506040516020818303038152906040526040518082805190602001908083835b60208310151561173f578051825260208201915060208101905060208303925061171a565b6001836020036101000a038019825116818451168082178552505050505050905001915050604051809103902090506000600d6000836000191660001916815260200190815260200160002054111515611801576040517f08c379a00000000000000000000000000000000000000000000000000000000081526004018080602001828103825260158152602001807f4e6f2062616c616e636520746f2072656465656d2e000000000000000000000081525060200191505060405180910390fd5b600360009054906101000a900473ffffffffffffffffffffffffffffffffffffffff1673ffffffffffffffffffffffffffffffffffffffff1663a9059cbb33600d60008560001916600019168152602001908152602001600020546040518363ffffffff167c0100000000000000000000000000000000000000000000000000000000028152600401808373ffffffffffffffffffffffffffffffffffffffff1673ffffffffffffffffffffffffffffffffffffffff16815260200182815260200192505050602060405180830381600087803b1580156118e157600080fd5b505af11580156118f5573d6000803e3d6000fd5b505050506040513d602081101561190b57600080fd5b8101908080519060200190929190505050156119a6576000600d60008360001916600019168152602001908152602001600020819055507fcb7d87f76b4d6501ac27ed560664bf84ce273a2ddd7b9b1da63c753e68ccae2033604051808273ffffffffffffffffffffffffffffffffffffffff1673ffffffffffffffffffffffffffffffffffffffff16815260200191505060405180910390a15b50565b600260019054906101000a900473ffffffffffffffffffffffffffffffffffffffff168073ffffffffffffffffffffffffffffffffffffffff163373ffffffffffffffffffffffffffffffffffffffff16141515611a6f576040517f08c379a00000000000000000000000000000000000000000000000000000000081526004018080602001828103825260168152602001807f53656e646572206e6f7420617574686f72697a65642e0000000000000000000081525060200191505060405180910390fd5b600082131515611ae7576040517f08c379a00000000000000000000000000000000000000000000000000000000081526004018080602001828103825260208152602001807f5175616e74697479206d7573742062652067726561746572207468616e20302e81525060200191505060405180910390fd5b60006009541215611afe5781600981905550611b0f565b816009600082825401925050819055505b7f4d5e60ebabb4f9e04a7695c3fb447c28c0a1815e2e0ab101f0d7d77364e8f51e60055483600954604051808460001916600019168152602001838152602001828152602001935050505060405180910390a17fc091136731faaafc407d34b2dc2d84c30df98775ec9a6f4d6df5002c17a3a0096005546009546040518083600019166000191681526020018281526020019250505060405180910390a15050565b600460009054906101000a900473ffffffffffffffffffffffffffffffffffffffff1681565b60055481565b600080600080600080600260009054906101000a900460ff16151515611c91576040517f08c379a00000000000000000000000000000000000000000000000000000000081526004018080602001828103825260268152602001807f496e69742066756e6374696f6e2063616e206f6e6c792062652063616c6c656481526020017f206f6e63652e000000000000000000000000000000000000000000000000000081525060400191505060405180910390fd5b6001600260006101000a81548160ff0219169083151502179055506020870195508551945060408701955085519350606087019550855192506080870195508551915060a0870195508551905084600260016101000a81548173ffffffffffffffffffffffffffffffffffffffff021916908373ffffffffffffffffffffffffffffffffffffffff16021790555083600360006101000a81548173ffffffffffffffffffffffffffffffffffffffff021916908373ffffffffffffffffffffffffffffffffffffffff16021790555082600460006101000a81548173ffffffffffffffffffffffffffffffffffffffff021916908373ffffffffffffffffffffffffffffffffffffffff16021790555081600581600019169055508060098190555050505050505050565b60008060009054906101000a900473ffffffffffffffffffffffffffffffffffffffff1673ffffffffffffffffffffffffffffffffffffffff163373ffffffffffffffffffffffffffffffffffffffff16141515611e1957600080fd5b816001600082604051602001808273ffffffffffffffffffffffffffffffffffffffff1673ffffffffffffffffffffffffffffffffffffffff166c010000000000000000000000000281526014019150506040516020818303038152906040526040518082805190602001908083835b602083101515611eae5780518252602082019150602081019050602083039250611e89565b6001836020036101000a03801982511681845116808217855250505050505090500191505060405180910390206000191660001916815260200190815260200160002060009054906101000a900460ff161515611f73576040517f08c379a00000000000000000000000000000000000000000000000000000000081526004018080602001828103825260208152602001807f4f776e6572207265717565737420686173206e6f74206265656e2073656e742e81525060200191505060405180910390fd5b826000806101000a81548173ffffffffffffffffffffffffffffffffffffffff021916908373ffffffffffffffffffffffffffffffffffffffff16021790555033604051602001808273ffffffffffffffffffffffffffffffffffffffff1673ffffffffffffffffffffffffffffffffffffffff166c010000000000000000000000000281526014019150506040516020818303038152906040526040518082805190602001908083835b602083101515612043578051825260208201915060208101905060208303925061201e565b6001836020036101000a03801982511681845116808217855250505050505090500191505060405180910390209150600060016000846000191660001916815260200190815260200160002060006101000a81548160ff021916908315150217905550505050565b6000600c60008360001916600019168152602001908152602001600020600101549050919050565b600d6020528060005260406000206000915090505481565b600b5481565b6000600d600083604051602001808273ffffffffffffffffffffffffffffffffffffffff1673ffffffffffffffffffffffffffffffffffffffff166c010000000000000000000000000281526014019150506040516020818303038152906040526040518082805190602001908083835b6020831015156121875780518252602082019150602081019050602083039250612162565b6001836020036101000a038019825116818451168082178552505050505050905001915050604051809103902060001916600019168152602001908152602001600020549050919050565b60006001600033604051602001808273ffffffffffffffffffffffffffffffffffffffff1673ffffffffffffffffffffffffffffffffffffffff166c010000000000000000000000000281526014019150506040516020818303038152906040526040518082805190602001908083835b6020831015156122685780518252602082019150602081019050602083039250612243565b6001836020036101000a03801982511681845116808217855250505050505090500191505060405180910390206000191660001916815260200190815260200160002060009054906101000a900460ff16151515612354576040517f08c379a00000000000000000000000000000000000000000000000000000000081526004018080602001828103825260218152602001807f4f776e657273686970207265717565737420616c72656164792061637469766581526020017f2e0000000000000000000000000000000000000000000000000000000000000081525060400191505060405180910390fd5b33604051602001808273ffffffffffffffffffffffffffffffffffffffff1673ffffffffffffffffffffffffffffffffffffffff166c010000000000000000000000000281526014019150506040516020818303038152906040526040518082805190602001908083835b6020831015156123e457805182526020820191506020810190506020830392506123bf565b6001836020036101000a038019825116818451168082178552505050505050905001915050604051809103902090506001806000836000191660001916815260200190815260200160002060006101000a81548160ff0219169083151502179055503373ffffffffffffffffffffffffffffffffffffffff166000809054906101000a900473ffffffffffffffffffffffffffffffffffffffff1673ffffffffffffffffffffffffffffffffffffffff167fd5b906f2d3dfa8cf0ea788d4ad6e99ebd482d6134c3405e1a5faa5da891cda8560405160405180910390a350565b600260019054906101000a900473ffffffffffffffffffffffffffffffffffffffff168073ffffffffffffffffffffffffffffffffffffffff163373ffffffffffffffffffffffffffffffffffffffff1614151561258a576040517f08c379a00000000000000000000000000000000000000000000000000000000081526004018080602001828103825260168152602001807f53656e646572206e6f7420617574686f72697a65642e0000000000000000000081525060200191505060405180910390fd5b600082131515612602576040517f08c379a00000000000000000000000000000000000000000000000000000000081526004018080602001828103825260208152602001807f5175616e74697479206d7573742062652067726561746572207468616e20302e81525060200191505060405180910390fd5b816009819055507fc091136731faaafc407d34b2dc2d84c30df98775ec9a6f4d6df5002c17a3a0096005546009546040518083600019166000191681526020018281526020019250505060405180910390a15050565b600080600260019054906101000a900473ffffffffffffffffffffffffffffffffffffffff168073ffffffffffffffffffffffffffffffffffffffff163373ffffffffffffffffffffffffffffffffffffffff16141515612721576040517f08c379a00000000000000000000000000000000000000000000000000000000081526004018080602001828103825260168152602001807f53656e646572206e6f7420617574686f72697a65642e0000000000000000000081525060200191505060405180910390fd5b600660009054906101000a900460ff16806127395750835b600660006101000a81548160ff0219169083151502179055508651885111612762578651612765565b87515b925061277e60006020886165b59092919063ffffffff16565b600f60008060ff168152602001908152602001600020600080815260200190815260200160002090805190602001906127b89291906166b1565b506127d060006020876165b59092919063ffffffff16565b600f6000600160ff1681526020019081526020016000206000808152602001908152602001600020908051906020019061280b9291906166b1565b50600191505b82821015612947576001885103821115156128a957612856888381518110151561283757fe5b90602001906020020151602860ff16886165b59092919063ffffffff16565b600f60008060ff16815260200190815260200160002060008a8581518110151561287c57fe5b90602001906020020151815260200190815260200160002090805190602001906128a79291906166b1565b505b60018751038211151561293a576128e687838151811015156128c757fe5b90602001906020020151604060ff16876165b59092919063ffffffff16565b600f6000600160ff1681526020019081526020016000206000898581518110151561290d57fe5b90602001906020020151815260200190815260200160002090805190602001906129389291906166b1565b505b8180600101925050612811565b7f9e8a51bb6b34b9d5d18c14fd753ee3bf44e2256512665a4577281ffcc91943ff60055460405180826000191660001916815260200191505060405180910390a15050505050505050565b60016020528060005260406000206000915054906101000a900460ff1681565b600260019054906101000a900473ffffffffffffffffffffffffffffffffffffffff168073ffffffffffffffffffffffffffffffffffffffff163373ffffffffffffffffffffffffffffffffffffffff16141515612a78576040517f08c379a00000000000000000000000000000000000000000000000000000000081526004018080602001828103825260168152602001807f53656e646572206e6f7420617574686f72697a65642e0000000000000000000081525060200191505060405180910390fd5b81600b819055507f9f274eefea84ac29e2f56b92eafc8045314ec62bf45e12c57b3f80017ea6245e600554600b546040518083600019166000191681526020018281526020019250505060405180910390a15050565b600080600080600080600b54111515612b75576040517f08c379a00000000000000000000000000000000000000000000000000000000081526004018080602001828103825260218152602001807f4974656d206973206e6f7420617661696c61626c6520666f7220726573616c6581526020017f2e0000000000000000000000000000000000000000000000000000000000000081525060400191505060405180910390fd5b600088111515612bed576040517f08c379a000000000000000000000000000000000000000000000000000000000815260040180806020018281038252601e8152602001807f4d757374207075726368617365206174206c65617374203120636f70792e000081525060200191505060405180910390fd5b89604051602001808273ffffffffffffffffffffffffffffffffffffffff1673ffffffffffffffffffffffffffffffffffffffff166c010000000000000000000000000281526014019150506040516020818303038152906040526040518082805190602001908083835b602083101515612c7d5780518252602082019150602081019050602083039250612c58565b6001836020036101000a0380198251168184511680821785525050505050509050019150506040518091039020945087600e600087600019166000191681526020019081526020016000206000015410151515612d68576040517f08c379a000000000000000000000000000000000000000000000000000000000815260040180806020018281038252603f8152602001807f53656c6c657220646f6573206e6f74206861766520656e6f75676820636f706981526020017f657320617661696c61626c6520636f7069657320666f7220726573616c652e0081525060400191505060405180910390fd5b600b54600e60008760001916600019168152602001908152602001600020600301600060018b03815260200190815260200160002054101515612e39576040517f08c379a00000000000000000000000000000000000000000000000000000000081526004018080602001828103825260378152602001807f436f70792068617320616c7265616479206265656e20736f6c6420746865206d81526020017f6178696d756d206e756d626572206f662074696d65732e00000000000000000081525060400191505060405180910390fd5b600360009054906101000a900473ffffffffffffffffffffffffffffffffffffffff1673ffffffffffffffffffffffffffffffffffffffff1663dd62ed3e33306040518363ffffffff167c0100000000000000000000000000000000000000000000000000000000028152600401808373ffffffffffffffffffffffffffffffffffffffff1673ffffffffffffffffffffffffffffffffffffffff1681526020018273ffffffffffffffffffffffffffffffffffffffff1673ffffffffffffffffffffffffffffffffffffffff16815260200192505050602060405180830381600087803b158015612f2a57600080fd5b505af1158015612f3e573d6000803e3d6000fd5b505050506040513d6020811015612f5457600080fd5b8101908080519060200190929190505050935085600e60008760001916600019168152602001908152602001600020600201548902018410151515613027576040517f08c379a00000000000000000000000000000000000000000000000000000000081526004018080602001828103825260248152602001807f50726f7879206d75737420626520617070726f76656420666f7220707572636881526020017f6173652e0000000000000000000000000000000000000000000000000000000081525060400191505060405180910390fd5b600360009054906101000a900473ffffffffffffffffffffffffffffffffffffffff1673ffffffffffffffffffffffffffffffffffffffff166323b872dd338c600a54600e60008b6000191660001916815260200190815260200160002060020154038c026040518463ffffffff167c0100000000000000000000000000000000000000000000000000000000028152600401808473ffffffffffffffffffffffffffffffffffffffff1673ffffffffffffffffffffffffffffffffffffffff1681526020018373ffffffffffffffffffffffffffffffffffffffff1673ffffffffffffffffffffffffffffffffffffffff1681526020018281526020019350505050602060405180830381600087803b15801561314457600080fd5b505af1158015613158573d6000803e3d6000fd5b505050506040513d602081101561316e57600080fd5b810190808051906020019092919050505080156132e15750600360009054906101000a900473ffffffffffffffffffffffffffffffffffffffff1673ffffffffffffffffffffffffffffffffffffffff166323b872dd33600260019054906101000a900473ffffffffffffffffffffffffffffffffffffffff16600a548c026040518463ffffffff167c0100000000000000000000000000000000000000000000000000000000028152600401808473ffffffffffffffffffffffffffffffffffffffff1673ffffffffffffffffffffffffffffffffffffffff1681526020018373ffffffffffffffffffffffffffffffffffffffff1673ffffffffffffffffffffffffffffffffffffffff1681526020018281526020019350505050602060405180830381600087803b1580156132a557600080fd5b505af11580156132b9573d6000803e3d6000fd5b505050506040513d60208110156132cf57600080fd5b81019080805190602001909291905050505b1515613355576040517f08c379a00000000000000000000000000000000000000000000000000000000081526004018080602001828103825260148152602001807f417261207472616e73666572206661696c65642e00000000000000000000000081525060200191505060405180910390fd5b87600e600087600019166000191681526020019081526020016000206001016000828254039250508190555087600e60008760001916600019168152602001908152602001600020600001600082825403925050819055506000600e6000876000191660001916815260200190815260200160002060010154141561349857600460009054906101000a900473ffffffffffffffffffffffffffffffffffffffff1673ffffffffffffffffffffffffffffffffffffffff166387e52772866005546040518363ffffffff167c0100000000000000000000000000000000000000000000000000000000028152600401808360001916600019168152602001826000191660001916815260200192505050600060405180830381600087803b15801561347f57600080fd5b505af1158015613493573d6000803e3d6000fd5b505050505b33604051602001808273ffffffffffffffffffffffffffffffffffffffff1673ffffffffffffffffffffffffffffffffffffffff166c010000000000000000000000000281526014019150506040516020818303038152906040526040518082805190602001908083835b6020831015156135285780518252602082019150602081019050602083039250613503565b6001836020036101000a03801982511681845116808217855250505050505090500191505060405180910390209250600e60008460001916600019168152602001908152602001600020600101549150600090505b87811015613628576000600e600087600019166000191681526020019081526020016000206003016000600e60008960001916600019168152602001908152602001600020600101548401815260200190815260200160002081905550600e600084600019166000191681526020019081526020016000206003016000838301815260200190815260200160002060008154809291906001019190505550808060010191505061357d565b87600e6000856000191660001916815260200190815260200160002060010160008282540192505081905550600a54600e6000856000191660001916815260200190815260200160002060020181905550600460009054906101000a900473ffffffffffffffffffffffffffffffffffffffff1673ffffffffffffffffffffffffffffffffffffffff1663a513cc9c8a6005546040518363ffffffff167c0100000000000000000000000000000000000000000000000000000000028152600401808360001916600019168152602001826000191660001916815260200192505050602060405180830381600087803b15801561372457600080fd5b505af1158015613738573d6000803e3d6000fd5b505050506040513d602081101561374e57600080fd5b8101908080519060200190929190505050151561382957600460009054906101000a900473ffffffffffffffffffffffffffffffffffffffff1673ffffffffffffffffffffffffffffffffffffffff16630c2bb9658a6005546040518363ffffffff167c0100000000000000000000000000000000000000000000000000000000028152600401808360001916600019168152602001826000191660001916815260200192505050600060405180830381600087803b15801561381057600080fd5b505af1158015613824573d6000803e3d6000fd5b505050505b7ffebfe077605da295a1970a60979814bb7f1d6ec6842d857b0820a130725bd1c5896005548a600e60008a60001916600019168152602001908152602001600020600201548c02604051808560001916600019168152602001846000191660001916815260200183815260200182815260200194505050505060405180910390a16000600102600019168760001916141580156138c65750600086115b156138d6576138d587876157da565b5b50505050505050505050565b600080600e600033604051602001808273ffffffffffffffffffffffffffffffffffffffff1673ffffffffffffffffffffffffffffffffffffffff166c010000000000000000000000000281526014019150506040516020818303038152906040526040518082805190602001908083835b6020831015156139795780518252602082019150602081019050602083039250613954565b6001836020036101000a03801982511681845116808217855250505050505090500191505060405180910390206000191660001916815260200190815260200160002060010154111515613a35576040517f08c379a000000000000000000000000000000000000000000000000000000000815260040180806020018281038252601c8152602001807f436f6e74656e7420776173206e65766572207075726368617365642e0000000081525060200191505060405180910390fd5b33604051602001808273ffffffffffffffffffffffffffffffffffffffff1673ffffffffffffffffffffffffffffffffffffffff166c010000000000000000000000000281526014019150506040516020818303038152906040526040518082805190602001908083835b602083101515613ac55780518252602082019150602081019050602083039250613aa0565b6001836020036101000a0380198251168184511680821785525050505050509050019150506040518091039020905081600e600083600019166000191681526020019081526020016000206000015410151515613bb0576040517f08c379a000000000000000000000000000000000000000000000000000000000815260040180806020018281038252602e8152602001807f43616e6e6f74206c6f636b206d6f7265207468616e20697320617661696c616281526020017f6c6520666f7220726573616c652e00000000000000000000000000000000000081525060400191505060405180910390fd5b81600e6000836000191660001916815260200190815260200160002060000160008282540392505081905550600e6000826000191660001916815260200190815260200160002060010154600e600083600019166000191681526020019081526020016000206000015411151515613c2457fe5b7fce3027e9449a5a6879bfbf6898b09a15c2232476d45e2913421cd05d2b4eed1360055433600e60008560001916600019168152602001908152602001600020600001546040518084600019166000191681526020018373ffffffffffffffffffffffffffffffffffffffff1673ffffffffffffffffffffffffffffffffffffffff168152602001828152602001935050505060405180910390a15050565b600260019054906101000a900473ffffffffffffffffffffffffffffffffffffffff168073ffffffffffffffffffffffffffffffffffffffff163373ffffffffffffffffffffffffffffffffffffffff16141515613d89576040517f08c379a00000000000000000000000000000000000000000000000000000000081526004018080602001828103825260168152602001807f53656e646572206e6f7420617574686f72697a65642e0000000000000000000081525060200191505060405180910390fd5b6000600660006101000a81548160ff0219169083151502179055507f2e6ec049d62c8a42e7cc223354aadb68d5046a2cba67ed55a089fdb852fb6cb660055460405180826000191660001916815260200191505060405180910390a150565b600080600060095414151515613e8c576040517f08c379a00000000000000000000000000000000000000000000000000000000081526004018080602001828103825260268152602001807f4e6f206d6f726520636f7069657320617661696c61626c6520666f722070757281526020017f63686173652e000000000000000000000000000000000000000000000000000081525060400191505060405180910390fd5b600085111515613f04576040517f08c379a000000000000000000000000000000000000000000000000000000000815260040180806020018281038252601e8152602001807f4d757374207075726368617365206174206c65617374203120636f70792e000081525060200191505060405180910390fd5b600360009054906101000a900473ffffffffffffffffffffffffffffffffffffffff1673ffffffffffffffffffffffffffffffffffffffff1663dd62ed3e33306040518363ffffffff167c0100000000000000000000000000000000000000000000000000000000028152600401808373ffffffffffffffffffffffffffffffffffffffff1673ffffffffffffffffffffffffffffffffffffffff1681526020018273ffffffffffffffffffffffffffffffffffffffff1673ffffffffffffffffffffffffffffffffffffffff16815260200192505050602060405180830381600087803b158015613ff557600080fd5b505af1158015614009573d6000803e3d6000fd5b505050506040513d602081101561401f57600080fd5b8101908080519060200190929190505050915033604051602001808273ffffffffffffffffffffffffffffffffffffffff1673ffffffffffffffffffffffffffffffffffffffff166c010000000000000000000000000281526014019150506040516020818303038152906040526040518082805190602001908083835b6020831015156140c2578051825260208201915060208101905060208303925061409d565b6001836020036101000a03801982511681845116808217855250505050505090500191505060405180910390209050826140fb86614fab565b860201821015151561419b576040517f08c379a00000000000000000000000000000000000000000000000000000000081526004018080602001828103825260248152602001807f50726f7879206d75737420626520617070726f76656420666f7220707572636881526020017f6173652e0000000000000000000000000000000000000000000000000000000081525060400191505060405180910390fd5b600360009054906101000a900473ffffffffffffffffffffffffffffffffffffffff1673ffffffffffffffffffffffffffffffffffffffff166323b872dd33600260019054906101000a900473ffffffffffffffffffffffffffffffffffffffff1661420689614fab565b89026040518463ffffffff167c0100000000000000000000000000000000000000000000000000000000028152600401808473ffffffffffffffffffffffffffffffffffffffff1673ffffffffffffffffffffffffffffffffffffffff1681526020018373ffffffffffffffffffffffffffffffffffffffff1673ffffffffffffffffffffffffffffffffffffffff1681526020018281526020019350505050602060405180830381600087803b1580156142c057600080fd5b505af11580156142d4573d6000803e3d6000fd5b505050506040513d60208110156142ea57600080fd5b8101908080519060200190929190505050151561436f576040517f08c379a00000000000000000000000000000000000000000000000000000000081526004018080602001828103825260148152602001807f417261207472616e73666572206661696c65642e00000000000000000000000081525060200191505060405180910390fd5b84600e6000836000191660001916815260200190815260200160002060010160008282540192505081905550600a54600e6000836000191660001916815260200190815260200160002060020181905550600060095413156143f35760096000815480929190600190039190505550600060095414156143f2576143f1613cc3565b5b5b600460009054906101000a900473ffffffffffffffffffffffffffffffffffffffff1673ffffffffffffffffffffffffffffffffffffffff1663a513cc9c876005546040518363ffffffff167c0100000000000000000000000000000000000000000000000000000000028152600401808360001916600019168152602001826000191660001916815260200192505050602060405180830381600087803b15801561449e57600080fd5b505af11580156144b2573d6000803e3d6000fd5b505050506040513d60208110156144c857600080fd5b810190808051906020019092919050505015156145a357600460009054906101000a900473ffffffffffffffffffffffffffffffffffffffff1673ffffffffffffffffffffffffffffffffffffffff16630c2bb965876005546040518363ffffffff167c0100000000000000000000000000000000000000000000000000000000028152600401808360001916600019168152602001826000191660001916815260200192505050600060405180830381600087803b15801561458a57600080fd5b505af115801561459e573d6000803e3d6000fd5b505050505b7f1e429970e9f49ffa0352d8546dc55691024a74635e00524859e819fc5bcae7a086600554876145d289614fab565b8902604051808560001916600019168152602001846000191660001916815260200183815260200182815260200194505050505060405180910390a160006001026000191684600019161415801561462a5750600083115b1561463a5761463984846157da565b5b505050505050565b6060600660009054906101000a900460ff1615156146725760206040519081016040528060008152509050614738565b600f60008460ff1660ff16815260200190815260200160002060008381526020019081526020016000208054600181600116156101000203166002900480601f0160208091040260200160405190810160405280929190818152602001828054600181600116156101000203166002900480156147305780601f1061470557610100808354040283529160200191614730565b820191906000526020600020905b81548152906001019060200180831161471357829003601f168201915b505050505090505b92915050565b600260019054906101000a900473ffffffffffffffffffffffffffffffffffffffff168073ffffffffffffffffffffffffffffffffffffffff163373ffffffffffffffffffffffffffffffffffffffff16141515614804576040517f08c379a00000000000000000000000000000000000000000000000000000000081526004018080602001828103825260168152602001807f53656e646572206e6f7420617574686f72697a65642e0000000000000000000081525060200191505060405180910390fd5b6000821315156148a2576040517f08c379a000000000000000000000000000000000000000000000000000000000815260040180806020018281038252602c8152602001807f43616e6e6f742072656d6f7665206e6f6e2d706f736974697665206e756d626581526020017f72206f6620636f706965732e000000000000000000000000000000000000000081525060400191505060405180910390fd5b600060095413151561491c576040517f08c379a000000000000000000000000000000000000000000000000000000000815260040180806020018281038252601d8152602001807f43616e6e6f742072656d6f766520616e796d6f726520636f706965732e00000081525060200191505060405180910390fd5b60008260095403121515156149bf576040517f08c379a00000000000000000000000000000000000000000000000000000000081526004018080602001828103825260308152602001807f547279696e6720746f2072656d6f7665206d6f726520636f706965732074686181526020017f6e20616c72656164792065786973742e0000000000000000000000000000000081525060400191505060405180910390fd5b816009600082825403925050819055507f5209c5c710223d21802b09a920c9590b9985998c367e4849f60d3b248facd58960055483600954604051808460001916600019168152602001838152602001828152602001935050505060405180910390a17fc091136731faaafc407d34b2dc2d84c30df98775ec9a6f4d6df5002c17a3a0096005546009546040518083600019166000191681526020018281526020019250505060405180910390a15050565b600080600080863373ffffffffffffffffffffffffffffffffffffffff16600c6000836000191660001916815260200190815260200160002060000160009054906101000a900473ffffffffffffffffffffffffffffffffffffffff1673ffffffffffffffffffffffffffffffffffffffff16148015614b0f57506000600c6000836000191660001916815260200190815260200160002060010154115b1515614b83576040517f08c379a000000000000000000000000000000000000000000000000000000000815260040180806020018281038252600f8152602001807f4a6f6220697320696e76616c69642e000000000000000000000000000000000081525060200191505060405180910390fd5b85518751141515614c22576040517f08c379a00000000000000000000000000000000000000000000000000000000081526004018080602001828103825260268152602001807f556e657175616c206e756d626572206f66206661726d65727320616e6420726581526020017f77617264732e000000000000000000000000000000000000000000000000000081525060400191505060405180910390fd5b600093505b85518460ff161015614c5f57858460ff16815181101515614c4457fe5b90602001906020020151850194508380600101945050614c27565b600c60008960001916600019168152602001908152602001600020600101548511151515614cf5576040517f08c379a00000000000000000000000000000000000000000000000000000000081526004018080602001828103825260148152602001807f496e73756666696369656e74206275646765742e00000000000000000000000081525060200191505060405180910390fd5b600092505b86518360ff161015614df157858360ff16815181101515614d1757fe5b90602001906020020151600c60008a600019166000191681526020019081526020016000206001015410151515614d4a57fe5b858360ff16815181101515614d5b57fe5b90602001906020020151600d6000898660ff16815181101515614d7a57fe5b906020019060200201516000191660001916815260200190815260200160002081905550858360ff16815181101515614daf57fe5b90602001906020020151600c60008a60001916600019168152602001908152602001600020600101600082825403925050819055508280600101935050614cfa565b600c600089600019166000191681526020019081526020016000206001015491506000821115614f245781600d600033604051602001808273ffffffffffffffffffffffffffffffffffffffff1673ffffffffffffffffffffffffffffffffffffffff166c010000000000000000000000000281526014019150506040516020818303038152906040526040518082805190602001908083835b602083101515614eb05780518252602082019150602081019050602083039250614e8b565b6001836020036101000a038019825116818451168082178552505050505050905001915050604051809103902060001916600019168152602001908152602001600020819055506000600c60008a6000191660001916815260200190815260200160002060010181905550614f236116ad565b5b7f2bd45e0776b585a6e4ce4cc376082ac45c657ad116f95f80480b6343678354e86005548684604051808460001916600019168152602001838152602001828152602001935050505060405180910390a15050505050505050565b600360009054906101000a900473ffffffffffffffffffffffffffffffffffffffff1681565b60095481565b60008060008090505b60088054905081101561506c5783600882815481101515614fd157fe5b90600052602060002001541415614ffd5760076000858152602001908152602001600020549250615083565b8360088281548110151561500d57fe5b906000526020600020015410801561503d57508160088281548110151561503057fe5b9060005260206000200154115b1561505f5760088181548110151561505157fe5b906000526020600020015491505b8080600101915050614fb4565b600760008381526020019081526020016000205492505b5050919050565b600260019054906101000a900473ffffffffffffffffffffffffffffffffffffffff1681565b6000600e600033604051602001808273ffffffffffffffffffffffffffffffffffffffff1673ffffffffffffffffffffffffffffffffffffffff166c010000000000000000000000000281526014019150506040516020818303038152906040526040518082805190602001908083835b6020831015156151465780518252602082019150602081019050602083039250615121565b6001836020036101000a03801982511681845116808217855250505050505090500191505060405180910390206000191660001916815260200190815260200160002060010154111515615202576040517f08c379a000000000000000000000000000000000000000000000000000000000815260040180806020018281038252601c8152602001807f436f6e74656e7420776173206e65766572207075726368617365642e0000000081525060200191505060405180910390fd5b600a5481101515156152a2576040517f08c379a00000000000000000000000000000000000000000000000000000000081526004018080602001828103825260378152602001807f526573616c65207072696365206d757374206265206174206c6561737420746881526020017f65206d696e696d756d20726573616c652070726963652e00000000000000000081525060400191505060405180910390fd5b80600e600033604051602001808273ffffffffffffffffffffffffffffffffffffffff1673ffffffffffffffffffffffffffffffffffffffff166c010000000000000000000000000281526014019150506040516020818303038152906040526040518082805190602001908083835b6020831015156153375780518252602082019150602081019050602083039250615312565b6001836020036101000a038019825116818451168082178552505050505050905001915050604051809103902060001916600019168152602001908152602001600020600201819055507f0e2912681a5905a8c6a4452da27fc30eb533a3aba5b44cf5a404baeadcdb134760055433836040518084600019166000191681526020018373ffffffffffffffffffffffffffffffffffffffff1673ffffffffffffffffffffffffffffffffffffffff168152602001828152602001935050505060405180910390a150565b60076020528060005260406000206000915090505481565b60006154f082600f60008760ff1660ff16815260200190815260200160002060008681526020019081526020016000208054600181600116156101000203166002900480601f0160208091040260200160405190810160405280929190818152602001828054600181600116156101000203166002900480156154dd5780601f106154b2576101008083540402835291602001916154dd565b820191906000526020600020905b8154815290600101906020018083116154c057829003601f168201915b505050505061664290919063ffffffff16565b90509392505050565b600080600260019054906101000a900473ffffffffffffffffffffffffffffffffffffffff168073ffffffffffffffffffffffffffffffffffffffff163373ffffffffffffffffffffffffffffffffffffffff161415156155c2576040517f08c379a00000000000000000000000000000000000000000000000000000000081526004018080602001828103825260168152602001807f53656e646572206e6f7420617574686f72697a65642e0000000000000000000081525060200191505060405180910390fd5b600660009054906101000a900460ff16806155da5750835b600660006101000a81548160ff021916908315150217905550898990508c8c905011615609578989905061560e565b8b8b90505b9250600091505b8282101561578b5760018c8c905003821115156156cd5761567d602860ff168302602860ff168a8a8080601f0160208091040260200160405190810160405280939291908181526020018383808284378201915050505050506165b59092919063ffffffff16565b600f60008060ff16815260200190815260200160002060008e8e8681811015156156a357fe5b90506020020135815260200190815260200160002090805190602001906156cb9291906166b1565b505b60018a8a9050038211151561577e5761572d604060ff168302604060ff1688888080601f0160208091040260200160405190810160405280939291908181526020018383808284378201915050505050506165b59092919063ffffffff16565b600f6000600160ff16815260200190815260200160002060008c8c86818110151561575457fe5b905060200201358152602001908152602001600020908051906020019061577c9291906166b1565b505b8180600101925050615615565b7f9e8a51bb6b34b9d5d18c14fd753ee3bf44e2256512665a4577281ffcc91943ff60055460405180826000191660001916815260200191505060405180910390a1505050505050505050505050565b600080600e600033604051602001808273ffffffffffffffffffffffffffffffffffffffff1673ffffffffffffffffffffffffffffffffffffffff166c010000000000000000000000000281526014019150506040516020818303038152906040526040518082805190602001908083835b602083101515615871578051825260208201915060208101905060208303925061584c565b6001836020036101000a0380198251168184511680821785525050505050509050019150506040518091039020600019166000191681526020019081526020016000206001015411151561592d576040517f08c379a000000000000000000000000000000000000000000000000000000000815260040180806020018281038252601c8152602001807f436f6e74656e7420776173206e65766572207075726368617365642e0000000081525060200191505060405180910390fd5b600360009054906101000a900473ffffffffffffffffffffffffffffffffffffffff1673ffffffffffffffffffffffffffffffffffffffff1663dd62ed3e33306040518363ffffffff167c0100000000000000000000000000000000000000000000000000000000028152600401808373ffffffffffffffffffffffffffffffffffffffff1673ffffffffffffffffffffffffffffffffffffffff1681526020018273ffffffffffffffffffffffffffffffffffffffff1673ffffffffffffffffffffffffffffffffffffffff16815260200192505050602060405180830381600087803b158015615a1e57600080fd5b505af1158015615a32573d6000803e3d6000fd5b505050506040513d6020811015615a4857600080fd5b81019080805190602001909291905050509050600060010260001916836000191614158015615a775750600082115b8015615a835750818110155b8015615b6d5750600073ffffffffffffffffffffffffffffffffffffffff16600c6000856000191660001916815260200190815260200160002060000160009054906101000a900473ffffffffffffffffffffffffffffffffffffffff1673ffffffffffffffffffffffffffffffffffffffff161480615b6c57503373ffffffffffffffffffffffffffffffffffffffff16600c6000856000191660001916815260200190815260200160002060000160009054906101000a900473ffffffffffffffffffffffffffffffffffffffff1673ffffffffffffffffffffffffffffffffffffffff16145b5b1515615be1576040517f08c379a00000000000000000000000000000000000000000000000000000000081526004018080602001828103825260178152602001807f4a6f62207375626d697373696f6e20696e76616c69642e00000000000000000081525060200191505060405180910390fd5b600360009054906101000a900473ffffffffffffffffffffffffffffffffffffffff1673ffffffffffffffffffffffffffffffffffffffff166323b872dd3330856040518463ffffffff167c0100000000000000000000000000000000000000000000000000000000028152600401808473ffffffffffffffffffffffffffffffffffffffff1673ffffffffffffffffffffffffffffffffffffffff1681526020018373ffffffffffffffffffffffffffffffffffffffff1673ffffffffffffffffffffffffffffffffffffffff1681526020018281526020019350505050602060405180830381600087803b158015615cda57600080fd5b505af1158015615cee573d6000803e3d6000fd5b505050506040513d6020811015615d0457600080fd5b810190808051906020019092919050505015615f1e5781600c600085600019166000191681526020019081526020016000206001016000828254019250508190555033600c6000856000191660001916815260200190815260200160002060000160006101000a81548173ffffffffffffffffffffffffffffffffffffffff021916908373ffffffffffffffffffffffffffffffffffffffff160217905550600360009054906101000a900473ffffffffffffffffffffffffffffffffffffffff1673ffffffffffffffffffffffffffffffffffffffff166370a08231306040518263ffffffff167c0100000000000000000000000000000000000000000000000000000000028152600401808273ffffffffffffffffffffffffffffffffffffffff1673ffffffffffffffffffffffffffffffffffffffff168152602001915050602060405180830381600087803b158015615e6057600080fd5b505af1158015615e74573d6000803e3d6000fd5b505050506040513d6020811015615e8a57600080fd5b8101908080519060200190929190505050600c600085600019166000191681526020019081526020016000206001015411151515615ec457fe5b7f4521c984beed01d188bcc3bd297e6530cd217723b880fa43c70fbcbd664fb2ac60055484846040518084600019166000191681526020018360001916600019168152602001828152602001935050505060405180910390a15b505050565b600e6020528060005260406000206000915090508060000154908060010154908060020154905083565b600260019054906101000a900473ffffffffffffffffffffffffffffffffffffffff168073ffffffffffffffffffffffffffffffffffffffff163373ffffffffffffffffffffffffffffffffffffffff16141515616013576040517f08c379a00000000000000000000000000000000000000000000000000000000081526004018080602001828103825260168152602001807f53656e646572206e6f7420617574686f72697a65642e0000000000000000000081525060200191505060405180910390fd5b81600a819055507fdca0c456563bef627a1630910a55d7f7dbc34e6436eff2d7a6b04d5b1c76192a600554836040518083600019166000191681526020018281526020019250505060405180910390a15050565b600260019054906101000a900473ffffffffffffffffffffffffffffffffffffffff168073ffffffffffffffffffffffffffffffffffffffff163373ffffffffffffffffffffffffffffffffffffffff1614151561612d576040517f08c379a00000000000000000000000000000000000000000000000000000000081526004018080602001828103825260168152602001807f53656e646572206e6f7420617574686f72697a65642e0000000000000000000081525060200191505060405180910390fd5b6000831115156161a5576040517f08c379a00000000000000000000000000000000000000000000000000000000081526004018080602001828103825260208152602001807f5175616e74697479206d7573742062652067726561746572207468616e20302e81525060200191505060405180910390fd5b60008211151561621d576040517f08c379a000000000000000000000000000000000000000000000000000000000815260040180806020018281038252601d8152602001807f5072696365206d7573742062652067726561746572207468616e20302e00000081525060200191505060405180910390fd5b6000600760008581526020019081526020016000205414156162665760088390806001815401808255809150509060018203906000526020600020016000909192909190915055505b8160076000858152602001908152602001600020819055507f2f0fe01aa6daff1c7bb411a324bdebe55dc2cd1e0ff2fc504b7569346e7d7d5a600554846007600087815260200190815260200160002054604051808460001916600019168152602001838152602001828152602001935050505060405180910390a1505050565b6000336001600082604051602001808273ffffffffffffffffffffffffffffffffffffffff1673ffffffffffffffffffffffffffffffffffffffff166c010000000000000000000000000281526014019150506040516020818303038152906040526040518082805190602001908083835b60208310151561637e5780518252602082019150602081019050602083039250616359565b6001836020036101000a03801982511681845116808217855250505050505090500191505060405180910390206000191660001916815260200190815260200160002060009054906101000a900460ff161515616443576040517f08c379a00000000000000000000000000000000000000000000000000000000081526004018080602001828103825260208152602001807f4f776e6572207265717565737420686173206e6f74206265656e2073656e742e81525060200191505060405180910390fd5b33604051602001808273ffffffffffffffffffffffffffffffffffffffff1673ffffffffffffffffffffffffffffffffffffffff166c010000000000000000000000000281526014019150506040516020818303038152906040526040518082805190602001908083835b6020831015156164d357805182526020820191506020810190506020830392506164ae565b6001836020036101000a03801982511681845116808217855250505050505090500191505060405180910390209150600060016000846000191660001916815260200190815260200160002060006101000a81548160ff0219169083151502179055503373ffffffffffffffffffffffffffffffffffffffff166000809054906101000a900473ffffffffffffffffffffffffffffffffffffffff1673ffffffffffffffffffffffffffffffffffffffff167f1dc90b1ce875ea53ce4f7fb2036478f4ddfef57ec243f3fb5a9d81faf7dac5f460405160405180910390a35050565b6060808284018551101515156165ca57600080fd5b8215600081146165e557604051915060208201604052616636565b6040519150601f8416801560200281840101858101878315602002848b0101015b818310156166235780518352602083019250602081019050616606565b50868552601f19601f8301166040525050505b50809150509392505050565b600080600190508351835181146001811461666057600092506166a5565b600160208701838101602088015b6002848385100114156166a0578051835114151561668f5760009650600093505b60208301925060208101905061666e565b505050505b50508091505092915050565b828054600181600116156101000203166002900490600052602060002090601f016020900481019282601f106166f257805160ff1916838001178555616720565b82800160010185558215616720579182015b8281111561671f578251825591602001919060010190616704565b5b50905061672d9190616731565b5090565b61675391905b8082111561674f576000816000905550600101616737565b5090565b905600a165627a7a72305820287a2ec5b80d54694a63ec348ef1fbcf09748e223a54832bc589cb7a988c95300029",
  "source": "pragma solidity ^0.4.24;\n\nimport \"./Ownable.sol\";\nimport \"./Library.sol\";\nimport \"./AraToken.sol\";\nimport \"bytes/BytesLib.sol\";\n\ncontract AFS is Ownable {\n\n  using BytesLib for bytes;\n\n  bool      private once_;\n\n  address   public owner_;\n\n  AraToken  public token_;\n  Library   public lib_;\n\n  bytes32   public did_;\n  bool      public listed_;\n  mapping(uint256 => uint256) public prices_; // quantity (lower bound) => price\n  uint256[] public priceTiers_; // quantity tiers\n\n  int256    public totalCopies_ = -1; // scarcity quantity; -1 for unlimited copies\n\n  uint256   public minResalePrice_;\n  uint256   public maxNumResales_; // < maxNumResales_ can be resold\n\n  mapping(bytes32 => Job)     public jobs_; // jobId => job { budget, sender }\n  mapping(bytes32 => uint256) public rewards_;    // farmer => rewards\n  mapping(bytes32 => Content) public purchasers_; // keccak256 hashes of buyer addresses\n  mapping(uint8 => mapping (uint256 => bytes)) public metadata_;\n\n  struct Job {\n    address sender;\n    uint256 budget;\n  }\n\n  struct Content {\n    uint256 available;\n    uint256 quantity;\n    uint256 resalePrice;\n    mapping(uint256 => uint256) resales; // total quantity owned => number of previous resales -- 0 indexed\n  }\n\n  event Commit(bytes32 _did);\n  event Unlisted(bytes32 _did);\n  event Listed(bytes32 _did);\n  event MinResalePriceSet(bytes32 _did, uint256 _price);\n  event ResalePriceSet(bytes32 _did, address _purchaser, uint256 _price);\n  event MaxNumResalesSet(bytes32 _did, uint256 _quantity);\n  event PriceSet(bytes32 _did, uint256 _quantity, uint256 _price);\n  event BudgetSubmitted(bytes32 _did, bytes32 _jobId, uint256 _budget);\n  event RewardsAllocated(bytes32 _did, uint256 _allocated, uint256 _returned);\n  event Purchased(bytes32 _purchaser, bytes32 _did, uint256 _quantity, uint256 _price);\n  event PurchasedResale(bytes32 _purchaser, bytes32 _did, uint256 _quantity, uint256 _price);\n  event Redeemed(address _sender);\n  event IncreasedSupply(bytes32 _did, int256 _added, int256 _total);\n  event DecreasedSupply(bytes32 _did, int256 _removed, int256 _total);\n  event SupplySet(bytes32 _did, int256 _quantity);\n  event ResaleUnlocked(bytes32 _did, address _seller, uint256 _available);\n  event ResaleLocked(bytes32 _did, address _seller, uint256 _available);\n\n  uint8 constant mtBufferSize_ = 40;\n  uint8 constant msBufferSize_ = 64;\n\n  modifier onlyBy(address _account)\n  {\n    require(\n      msg.sender == _account,\n      \"Sender not authorized.\"\n    );\n    _;\n  }\n\n  modifier purchaseRequired()\n  {\n    require(\n      purchasers_[keccak256(abi.encodePacked(msg.sender))].quantity > 0,\n      \"Content was never purchased.\"\n    );\n    _;\n  }\n\n  modifier budgetSubmitted(bytes32 _jobId)\n  {\n    require(\n      jobs_[_jobId].sender == msg.sender && jobs_[_jobId].budget > 0,\n      \"Job is invalid.\"\n    );\n    _;\n  }\n\n  modifier onlyOnce()\n  {\n    require(!once_, \"Init function can only be called once.\");\n    _;\n  }\n\n  function init(bytes _data) public onlyOnce {\n    once_ = true;\n    uint256 btsptr;\n    address ownerAddr;\n    address tokenAddr;\n    address libAddr;\n    bytes32 did;\n    int256 totalCopies;\n    /* solium-disable-next-line security/no-inline-assembly */\n    assembly {\n        btsptr := add(_data, 32)\n        ownerAddr := mload(btsptr)\n        btsptr := add(_data, 64)\n        tokenAddr := mload(btsptr)\n        btsptr := add(_data, 96)\n        libAddr := mload(btsptr)\n        btsptr := add(_data, 128)\n        did := mload(btsptr)\n        btsptr := add(_data, 160)\n        totalCopies := mload(btsptr)\n    }\n    owner_       = ownerAddr;\n    token_       = AraToken(tokenAddr);\n    lib_         = Library(libAddr);\n    did_         = did;\n    totalCopies_ = totalCopies;\n  }\n\n/**\n * COMMERCE\n * ===============================================================================================\n */\n\n  function setPrice(uint256 _quantity, uint256 _price) external onlyBy(owner_) {\n    require(_quantity > 0, \"Quantity must be greater than 0.\");\n    require(_price > 0, \"Price must be greater than 0.\");\n    if (prices_[_quantity] == 0) {\n      priceTiers_.push(_quantity);\n    }\n    prices_[_quantity] = _price;\n    emit PriceSet(did_, _quantity, prices_[_quantity]);\n  }\n\n  function getPrice(uint256 _quantity) public view returns (uint256) {\n    uint256 tier;\n    for (uint256 i = 0; i < priceTiers_.length; i++) {\n      if (priceTiers_[i] == _quantity) {\n        return prices_[_quantity];\n      } else if (priceTiers_[i] < _quantity && priceTiers_[i] > tier) {\n        tier = priceTiers_[i];\n      }\n    }\n    return prices_[tier];\n  }\n\n  function unlockResale(uint256 _quantity) public purchaseRequired {\n    bytes32 hashedAddress = keccak256(abi.encodePacked(msg.sender));\n    require(_quantity + purchasers_[hashedAddress].available <= purchasers_[hashedAddress].quantity, \"Cannot unlock more for resale than owned.\");\n    purchasers_[hashedAddress].available += _quantity;\n    assert(purchasers_[hashedAddress].available <= purchasers_[hashedAddress].quantity);\n    emit ResaleUnlocked(did_, msg.sender, purchasers_[hashedAddress].available);\n  }\n\n  function lockResale(uint256 _quantity) public purchaseRequired {\n    bytes32 hashedAddress = keccak256(abi.encodePacked(msg.sender));\n    require(purchasers_[hashedAddress].available >= _quantity, \"Cannot lock more than is available for resale.\");\n    purchasers_[hashedAddress].available -= _quantity;\n    assert(purchasers_[hashedAddress].available <= purchasers_[hashedAddress].quantity);\n    emit ResaleLocked(did_, msg.sender, purchasers_[hashedAddress].available);\n  }\n\n  function setMinResalePrice(uint256 _price) external onlyBy(owner_) {\n    minResalePrice_ = _price;\n    emit MinResalePriceSet(did_, _price);\n  }\n\n  function setResalePrice(uint256 _price) external purchaseRequired {\n    require(_price >= minResalePrice_, \"Resale price must be at least the minimum resale price.\");\n    purchasers_[keccak256(abi.encodePacked(msg.sender))].resalePrice = _price;\n    emit ResalePriceSet(did_, msg.sender, _price);\n  }\n\n  function setResaleQuantity(uint256 _quantity) external onlyBy(owner_) {\n    maxNumResales_ = _quantity;\n    emit MaxNumResalesSet(did_, maxNumResales_);\n  }\n\n  function setSupply(int256 _quantity) public onlyBy(owner_) {\n    require(_quantity > 0, \"Quantity must be greater than 0.\");\n\n    totalCopies_ = _quantity;\n    emit SupplySet(did_, totalCopies_);\n  }\n\n  function increaseSupply(int256 _quantity) public onlyBy(owner_) {\n    require(_quantity > 0, \"Quantity must be greater than 0.\");\n    if (totalCopies_ < 0) {\n      totalCopies_ = _quantity;\n    } else {\n      totalCopies_ += _quantity;\n    }\n    emit IncreasedSupply(did_, _quantity, totalCopies_);\n    emit SupplySet(did_, totalCopies_);\n  }\n\n  function decreaseSupply(int256 _quantity) public onlyBy(owner_) {\n    require(_quantity > 0, \"Cannot remove non-positive number of copies.\");\n    require(totalCopies_ > 0, \"Cannot remove anymore copies.\");\n    require(totalCopies_ - _quantity >= 0, \"Trying to remove more copies than already exist.\");\n    totalCopies_ -= _quantity;\n    emit DecreasedSupply(did_, _quantity, totalCopies_);\n    emit SupplySet(did_, totalCopies_);\n  }\n\n  function setUnlimitedSupply() public onlyBy(owner_) {\n    totalCopies_ = -1;\n    emit SupplySet(did_, totalCopies_);\n  }\n\n/**\n * PURCHASE\n * ===============================================================================================\n */\n\n  /**\n   * @dev Purchases this AFS and adds it to _purchaser's library. \n   *      If _download is true, deposits any remaining allowance \n   *      as rewards for this purchase\n   * @param _purchaser The hashed methodless did of the purchaser\n   * @param _jobId The jobId of the download, or 0x00000000000000000000000000000000 if N/A\n   * @param _budget The reward budget for jobId, or 0 if N/A\n   */\n  function purchase(bytes32 _purchaser, uint256 _quantity, bytes32 _jobId, uint256 _budget) external {\n    require(totalCopies_ != 0, \"No more copies available for purchase.\");\n    require(_quantity > 0, \"Must purchase at least 1 copy.\");\n    uint256 allowance = token_.allowance(msg.sender, address(this));\n    bytes32 hashedAddress = keccak256(abi.encodePacked(msg.sender));\n    require (allowance >= (_quantity * getPrice(_quantity)) + _budget, \"Proxy must be approved for purchase.\");\n\n    require (token_.transferFrom(msg.sender, owner_, _quantity * getPrice(_quantity)), \"Ara transfer failed.\");\n\n    purchasers_[hashedAddress].quantity += _quantity;\n    purchasers_[hashedAddress].resalePrice = minResalePrice_;\n    if (totalCopies_ > 0) {\n      totalCopies_--;\n      if (totalCopies_ == 0) {\n        unlist();\n      }\n    }\n    if (!lib_.owns(_purchaser, did_)) {\n      lib_.addLibraryItem(_purchaser, did_);\n    }\n    emit Purchased(_purchaser, did_, _quantity, _quantity * getPrice(_quantity));\n\n    if (_jobId != bytes32(0) && _budget > 0) {\n      submitBudget(_jobId, _budget);\n    }\n  }\n\n  /**\n   * @param _seller seller's Ethereum address\n   * \n   */\n  function purchaseResale(address _seller, bytes32 _purchaser, uint256 _quantity, bytes32 _jobId, uint256 _budget) external {\n    require(maxNumResales_ > 0, \"Item is not available for resale.\");\n    require(_quantity > 0, \"Must purchase at least 1 copy.\");\n    bytes32 seller = keccak256(abi.encodePacked(_seller));\n    require(purchasers_[seller].available >= _quantity, \"Seller does not have enough copies available copies for resale.\");\n    require(purchasers_[seller].resales[_quantity - 1] < maxNumResales_, \"Copy has already been sold the maximum number of times.\");\n    uint256 allowance = token_.allowance(msg.sender, address(this));\n    require (allowance >= (_quantity * purchasers_[seller].resalePrice) + _budget, \"Proxy must be approved for purchase.\");\n\n    require (token_.transferFrom(msg.sender, _seller, _quantity * (purchasers_[seller].resalePrice - minResalePrice_))\n      && token_.transferFrom(msg.sender, owner_, _quantity * minResalePrice_), \"Ara transfer failed.\");\n    \n    purchasers_[seller].quantity -= _quantity;\n    purchasers_[seller].available -= _quantity;\n\n    if (purchasers_[seller].quantity == 0) {\n      lib_.removeLibraryItem(seller, did_);\n    }\n\n    bytes32 purchaser = keccak256(abi.encodePacked(msg.sender));\n    uint256 oldPurchaserQuantity = purchasers_[purchaser].quantity;\n    for (uint256 i = 0; i < _quantity; i++) {\n      purchasers_[seller].resales[i + purchasers_[seller].quantity] = 0;\n      purchasers_[purchaser].resales[i + oldPurchaserQuantity]++;\n    }\n\n    purchasers_[purchaser].quantity += _quantity;\n    purchasers_[purchaser].resalePrice = minResalePrice_;\n    if (!lib_.owns(_purchaser, did_)) {\n      lib_.addLibraryItem(_purchaser, did_);\n    }\n    emit PurchasedResale(_purchaser, did_, _quantity, _quantity * purchasers_[seller].resalePrice);\n\n    if (_jobId != bytes32(0) && _budget > 0) {\n      submitBudget(_jobId, _budget);\n    }\n  }\n\n/**\n * REWARDS\n * ===============================================================================================\n */\n\n  function submitBudget(bytes32 _jobId, uint256 _budget) public purchaseRequired {\n    uint256 allowance = token_.allowance(msg.sender, address(this));\n    require(_jobId != bytes32(0) && _budget > 0 && allowance >= _budget\n      && (jobs_[_jobId].sender == address(0) || jobs_[_jobId].sender == msg.sender), \"Job submission invalid.\");\n\n    if (token_.transferFrom(msg.sender, address(this), _budget)) {\n      jobs_[_jobId].budget += _budget;\n      jobs_[_jobId].sender = msg.sender;\n      assert(jobs_[_jobId].budget <= token_.balanceOf(address(this)));\n      emit BudgetSubmitted(did_, _jobId, _budget);\n    }\n  }\n\n  function getBudget(bytes32 _jobId) public view returns (uint256) {\n    return jobs_[_jobId].budget;\n  }\n\n  function allocateRewards(bytes32 _jobId, bytes32[] _farmers, uint256[] _rewards) public budgetSubmitted(_jobId) {\n    require(_farmers.length == _rewards.length, \"Unequal number of farmers and rewards.\");\n    uint256 totalRewards;\n    for (uint8 i = 0; i < _rewards.length; i++) {\n      totalRewards += _rewards[i];\n    }\n    require(totalRewards <= jobs_[_jobId].budget, \"Insufficient budget.\");\n    for (uint8 j = 0; j < _farmers.length; j++) {\n      assert(jobs_[_jobId].budget >= _rewards[j]);\n      rewards_[_farmers[j]] = _rewards[j];\n      jobs_[_jobId].budget -= _rewards[j];\n    }\n    uint256 remaining = jobs_[_jobId].budget;\n    if (remaining > 0) {\n      rewards_[keccak256(abi.encodePacked(msg.sender))] = remaining;\n      jobs_[_jobId].budget = 0;\n      redeemBalance();\n    }\n    emit RewardsAllocated(did_, totalRewards, remaining);\n  }\n\n  function redeemBalance() public {\n    bytes32 hashedAddress = keccak256(abi.encodePacked(msg.sender));\n    require(rewards_[hashedAddress] > 0, \"No balance to redeem.\");\n    if (token_.transfer(msg.sender, rewards_[hashedAddress])) {\n      rewards_[hashedAddress] = 0;\n      emit Redeemed(msg.sender);\n    }\n  }\n\n  function getRewardsBalance(address _farmer) public view returns (uint256) {\n    return rewards_[keccak256(abi.encodePacked(_farmer))];\n  }\n\n/**\n * STORAGE\n * ===============================================================================================\n */\n\n  function append(uint256[] _mtOffsets, uint256[] _msOffsets, bytes _mtBuffer, \n    bytes _msBuffer, bool _list) external onlyBy(owner_) {\n    \n    listed_ = listed_ || _list;\n\n    uint256 maxOffsetLength = _mtOffsets.length > _msOffsets.length \n      ? _mtOffsets.length \n      : _msOffsets.length;\n\n    for (uint i = 0; i < maxOffsetLength; i++) {\n      // metadata/tree\n      if (i <= _mtOffsets.length - 1) {\n        metadata_[0][_mtOffsets[i]] = _mtBuffer.slice(i * mtBufferSize_, mtBufferSize_);\n      }\n\n      // metadata/signatures\n      if (i <= _msOffsets.length - 1) {\n        metadata_[1][_msOffsets[i]] = _msBuffer.slice(i * msBufferSize_, msBufferSize_);\n      }\n    }\n\n    emit Commit(did_);\n  }\n\n  function write(uint256[] _mtOffsets, uint256[] _msOffsets, bytes _mtBuffer, \n    bytes _msBuffer, bool _list) public onlyBy(owner_) {\n\n    listed_ = listed_ || _list;\n\n    uint256 maxOffsetLength = _mtOffsets.length > _msOffsets.length \n      ? _mtOffsets.length \n      : _msOffsets.length;\n\n    // add headers\n    metadata_[0][0] = _mtBuffer.slice(0, 32);\n    metadata_[1][0] = _msBuffer.slice(0, 32);\n\n    for (uint i = 1; i < maxOffsetLength; i++) {\n      // metadata/tree\n      if (i <= _mtOffsets.length - 1) {\n        metadata_[0][_mtOffsets[i]] = _mtBuffer.slice(_mtOffsets[i], mtBufferSize_);\n      }\n      \n      // metadata/signatures\n      if (i <= _msOffsets.length - 1) {\n        metadata_[1][_msOffsets[i]] = _msBuffer.slice(_msOffsets[i], msBufferSize_);\n      }\n    }\n\n    emit Commit(did_);\n  }\n\n  function read(uint8 _file, uint256 _offset) public view returns (bytes buffer) {\n    if (!listed_) {\n      return \"\"; // empty bytes\n    }\n    return metadata_[_file][_offset];\n  }\n\n  function hasBuffer(uint8 _file, uint256 _offset, bytes _buffer) public view returns (bool exists) {\n    return metadata_[_file][_offset].equal(_buffer);\n  }\n\n  function list() public onlyBy(owner_) {\n    listed_ = true;\n    emit Listed(did_);\n  }\n\n  function unlist() public onlyBy(owner_) {\n    listed_ = false;\n    emit Unlisted(did_);\n  }\n}\n",
  "sourcePath": "/Users/ericjiang/Littlstar/ara-contracts/contracts/AFS.sol",
  "compiler": {
    "name": "solc",
    "version": "0.4.24+commit.e67f0147.Emscripten.clang"
  },
  "schemaVersion": "2.0.1",
  "updatedAt": "2018-10-11T19:17:51.921Z"
}