{
  "contractName": "AFS",
  "abi": [
    {
      "anonymous": false,
      "inputs": [
        {
          "indexed": true,
          "internalType": "address",
          "name": "_sender",
          "type": "address"
        },
        {
          "indexed": true,
          "internalType": "bytes32",
          "name": "_jobId",
          "type": "bytes32"
        },
        {
          "indexed": false,
          "internalType": "uint256",
          "name": "_budget",
          "type": "uint256"
        }
      ],
      "name": "BudgetSubmitted",
      "type": "event"
    },
    {
      "anonymous": false,
      "inputs": [
        {
          "indexed": false,
          "internalType": "bytes32",
          "name": "_did",
          "type": "bytes32"
        }
      ],
      "name": "Commit",
      "type": "event"
    },
    {
      "anonymous": false,
      "inputs": [
        {
          "indexed": true,
          "internalType": "address",
          "name": "_farmer",
          "type": "address"
        }
      ],
      "name": "InsufficientDeposit",
      "type": "event"
    },
    {
      "anonymous": false,
      "inputs": [
        {
          "indexed": false,
          "internalType": "uint256",
          "name": "_price",
          "type": "uint256"
        }
      ],
      "name": "PriceSet",
      "type": "event"
    },
    {
      "anonymous": false,
      "inputs": [
        {
          "indexed": true,
          "internalType": "bytes32",
          "name": "_purchaser",
          "type": "bytes32"
        },
        {
          "indexed": false,
          "internalType": "uint256",
          "name": "_price",
          "type": "uint256"
        }
      ],
      "name": "Purchased",
      "type": "event"
    },
    {
      "anonymous": false,
      "inputs": [
        {
          "indexed": true,
          "internalType": "address",
          "name": "_sender",
          "type": "address"
        },
        {
          "indexed": false,
          "internalType": "uint256",
          "name": "_amount",
          "type": "uint256"
        }
      ],
      "name": "Redeemed",
      "type": "event"
    },
    {
      "anonymous": false,
      "inputs": [
        {
          "indexed": true,
          "internalType": "address",
          "name": "_currentOwner",
          "type": "address"
        },
        {
          "indexed": true,
          "internalType": "address",
          "name": "_requestOwner",
          "type": "address"
        }
      ],
      "name": "RequestRevoked",
      "type": "event"
    },
    {
      "anonymous": false,
      "inputs": [
        {
          "indexed": true,
          "internalType": "address",
          "name": "_farmer",
          "type": "address"
        },
        {
          "indexed": true,
          "internalType": "bytes32",
          "name": "_jobId",
          "type": "bytes32"
        },
        {
          "indexed": false,
          "internalType": "uint256",
          "name": "_allocated",
          "type": "uint256"
        },
        {
          "indexed": false,
          "internalType": "uint256",
          "name": "_remaining",
          "type": "uint256"
        }
      ],
      "name": "RewardsAllocated",
      "type": "event"
    },
    {
      "anonymous": false,
      "inputs": [
        {
          "indexed": true,
          "internalType": "address",
          "name": "_previousOwner",
          "type": "address"
        },
        {
          "indexed": true,
          "internalType": "address",
          "name": "_newOwner",
          "type": "address"
        }
      ],
      "name": "TransferApproved",
      "type": "event"
    },
    {
      "anonymous": false,
      "inputs": [
        {
          "indexed": true,
          "internalType": "address",
          "name": "_currentOwner",
          "type": "address"
        },
        {
          "indexed": true,
          "internalType": "address",
          "name": "_requestedOwner",
          "type": "address"
        }
      ],
      "name": "TransferRequested",
      "type": "event"
    },
    {
      "anonymous": false,
      "inputs": [
        {
          "indexed": false,
          "internalType": "bytes32",
          "name": "_did",
          "type": "bytes32"
        }
      ],
      "name": "Unlisted",
      "type": "event"
    },
    {
      "constant": false,
      "inputs": [
        {
          "internalType": "address",
          "name": "_newOwner",
          "type": "address"
        }
      ],
      "name": "approveOwnershipTransfer",
      "outputs": [],
      "payable": false,
      "stateMutability": "nonpayable",
      "type": "function"
    },
    {
      "constant": true,
      "inputs": [],
      "name": "depositRequirement_",
      "outputs": [
        {
          "internalType": "uint256",
          "name": "",
          "type": "uint256"
        }
      ],
      "payable": false,
      "stateMutability": "view",
      "type": "function"
    },
    {
      "constant": true,
      "inputs": [],
      "name": "did_",
      "outputs": [
        {
          "internalType": "bytes32",
          "name": "",
          "type": "bytes32"
        }
      ],
      "payable": false,
      "stateMutability": "view",
      "type": "function"
    },
    {
      "constant": true,
      "inputs": [
        {
          "internalType": "bytes32",
          "name": "",
          "type": "bytes32"
        }
      ],
      "name": "jobs_",
      "outputs": [
        {
          "internalType": "address",
          "name": "sender",
          "type": "address"
        },
        {
          "internalType": "uint256",
          "name": "budget",
          "type": "uint256"
        }
      ],
      "payable": false,
      "stateMutability": "view",
      "type": "function"
    },
    {
      "constant": true,
      "inputs": [],
      "name": "lib_",
      "outputs": [
        {
          "internalType": "contract Library",
          "name": "",
          "type": "address"
        }
      ],
      "payable": false,
      "stateMutability": "view",
      "type": "function"
    },
    {
      "constant": true,
      "inputs": [],
      "name": "listed_",
      "outputs": [
        {
          "internalType": "bool",
          "name": "",
          "type": "bool"
        }
      ],
      "payable": false,
      "stateMutability": "view",
      "type": "function"
    },
    {
      "constant": true,
      "inputs": [
        {
          "internalType": "uint8",
          "name": "",
          "type": "uint8"
        },
        {
          "internalType": "uint256",
          "name": "",
          "type": "uint256"
        }
      ],
      "name": "metadata_",
      "outputs": [
        {
          "internalType": "bytes",
          "name": "",
          "type": "bytes"
        }
      ],
      "payable": false,
      "stateMutability": "view",
      "type": "function"
    },
    {
      "constant": true,
      "inputs": [],
      "name": "owner_",
      "outputs": [
        {
          "internalType": "address",
          "name": "",
          "type": "address"
        }
      ],
      "payable": false,
      "stateMutability": "view",
      "type": "function"
    },
    {
      "constant": true,
      "inputs": [],
      "name": "price_",
      "outputs": [
        {
          "internalType": "uint256",
          "name": "",
          "type": "uint256"
        }
      ],
      "payable": false,
      "stateMutability": "view",
      "type": "function"
    },
    {
      "constant": true,
      "inputs": [
        {
          "internalType": "bytes32",
          "name": "",
          "type": "bytes32"
        }
      ],
      "name": "purchasers_",
      "outputs": [
        {
          "internalType": "bool",
          "name": "",
          "type": "bool"
        }
      ],
      "payable": false,
      "stateMutability": "view",
      "type": "function"
    },
    {
      "constant": false,
      "inputs": [],
      "name": "requestOwnership",
      "outputs": [],
      "payable": false,
      "stateMutability": "nonpayable",
      "type": "function"
    },
    {
      "constant": true,
      "inputs": [
        {
          "internalType": "bytes32",
          "name": "",
          "type": "bytes32"
        }
      ],
      "name": "requesters_",
      "outputs": [
        {
          "internalType": "bool",
          "name": "",
          "type": "bool"
        }
      ],
      "payable": false,
      "stateMutability": "view",
      "type": "function"
    },
    {
      "constant": false,
      "inputs": [],
      "name": "revokeOwnershipRequest",
      "outputs": [],
      "payable": false,
      "stateMutability": "nonpayable",
      "type": "function"
    },
    {
      "constant": true,
      "inputs": [
        {
          "internalType": "bytes32",
          "name": "",
          "type": "bytes32"
        }
      ],
      "name": "rewards_",
      "outputs": [
        {
          "internalType": "uint256",
          "name": "",
          "type": "uint256"
        }
      ],
      "payable": false,
      "stateMutability": "view",
      "type": "function"
    },
    {
      "constant": true,
      "inputs": [],
      "name": "token_",
      "outputs": [
        {
          "internalType": "contract AraToken",
          "name": "",
          "type": "address"
        }
      ],
      "payable": false,
      "stateMutability": "view",
      "type": "function"
    },
    {
      "constant": true,
      "inputs": [],
      "name": "version_",
      "outputs": [
        {
          "internalType": "string",
          "name": "",
          "type": "string"
        }
      ],
      "payable": false,
      "stateMutability": "view",
      "type": "function"
    },
    {
      "constant": false,
      "inputs": [
        {
          "internalType": "bytes",
          "name": "_data",
          "type": "bytes"
        }
      ],
      "name": "init",
      "outputs": [],
      "payable": false,
      "stateMutability": "nonpayable",
      "type": "function"
    },
    {
      "constant": false,
      "inputs": [
        {
          "internalType": "uint256",
          "name": "_price",
          "type": "uint256"
        }
      ],
      "name": "setPrice",
      "outputs": [],
      "payable": false,
      "stateMutability": "nonpayable",
      "type": "function"
    },
    {
      "constant": false,
      "inputs": [
        {
          "internalType": "bytes32",
          "name": "_jobId",
          "type": "bytes32"
        },
        {
          "internalType": "uint256",
          "name": "_budget",
          "type": "uint256"
        }
      ],
      "name": "submitBudget",
      "outputs": [],
      "payable": false,
      "stateMutability": "nonpayable",
      "type": "function"
    },
    {
      "constant": false,
      "inputs": [
        {
          "internalType": "bytes32",
          "name": "_jobId",
          "type": "bytes32"
        },
        {
          "internalType": "address[]",
          "name": "_farmers",
          "type": "address[]"
        },
        {
          "internalType": "uint256[]",
          "name": "_rewards",
          "type": "uint256[]"
        }
      ],
      "name": "allocateRewards",
      "outputs": [],
      "payable": false,
      "stateMutability": "nonpayable",
      "type": "function"
    },
    {
      "constant": false,
      "inputs": [],
      "name": "redeemBalance",
      "outputs": [],
      "payable": false,
      "stateMutability": "nonpayable",
      "type": "function"
    },
    {
      "constant": true,
      "inputs": [
        {
          "internalType": "address",
          "name": "_farmer",
          "type": "address"
        }
      ],
      "name": "getRewardsBalance",
      "outputs": [
        {
          "internalType": "uint256",
          "name": "",
          "type": "uint256"
        }
      ],
      "payable": false,
      "stateMutability": "view",
      "type": "function"
    },
    {
      "constant": true,
      "inputs": [
        {
          "internalType": "bytes32",
          "name": "_jobId",
          "type": "bytes32"
        }
      ],
      "name": "getBudget",
      "outputs": [
        {
          "internalType": "uint256",
          "name": "",
          "type": "uint256"
        }
      ],
      "payable": false,
      "stateMutability": "view",
      "type": "function"
    },
    {
      "constant": false,
      "inputs": [
        {
          "internalType": "bytes32",
          "name": "_purchaser",
          "type": "bytes32"
        },
        {
          "internalType": "bytes32",
          "name": "_jobId",
          "type": "bytes32"
        },
        {
          "internalType": "uint256",
          "name": "_budget",
          "type": "uint256"
        }
      ],
      "name": "purchase",
      "outputs": [],
      "payable": false,
      "stateMutability": "nonpayable",
      "type": "function"
    },
    {
      "constant": false,
      "inputs": [
        {
          "internalType": "uint256[]",
          "name": "_mtOffsets",
          "type": "uint256[]"
        },
        {
          "internalType": "uint256[]",
          "name": "_msOffsets",
          "type": "uint256[]"
        },
        {
          "internalType": "bytes",
          "name": "_mtBuffer",
          "type": "bytes"
        },
        {
          "internalType": "bytes",
          "name": "_msBuffer",
          "type": "bytes"
        }
      ],
      "name": "append",
      "outputs": [],
      "payable": false,
      "stateMutability": "nonpayable",
      "type": "function"
    },
    {
      "constant": false,
      "inputs": [
        {
          "internalType": "uint256[]",
          "name": "_mtOffsets",
          "type": "uint256[]"
        },
        {
          "internalType": "uint256[]",
          "name": "_msOffsets",
          "type": "uint256[]"
        },
        {
          "internalType": "bytes",
          "name": "_mtBuffer",
          "type": "bytes"
        },
        {
          "internalType": "bytes",
          "name": "_msBuffer",
          "type": "bytes"
        }
      ],
      "name": "write",
      "outputs": [],
      "payable": false,
      "stateMutability": "nonpayable",
      "type": "function"
    },
    {
      "constant": true,
      "inputs": [
        {
          "internalType": "uint8",
          "name": "_file",
          "type": "uint8"
        },
        {
          "internalType": "uint256",
          "name": "_offset",
          "type": "uint256"
        }
      ],
      "name": "read",
      "outputs": [
        {
          "internalType": "bytes",
          "name": "buffer",
          "type": "bytes"
        }
      ],
      "payable": false,
      "stateMutability": "view",
      "type": "function"
    },
    {
      "constant": true,
      "inputs": [
        {
          "internalType": "uint8",
          "name": "_file",
          "type": "uint8"
        },
        {
          "internalType": "uint256",
          "name": "_offset",
          "type": "uint256"
        },
        {
          "internalType": "bytes",
          "name": "_buffer",
          "type": "bytes"
        }
      ],
      "name": "hasBuffer",
      "outputs": [
        {
          "internalType": "bool",
          "name": "exists",
          "type": "bool"
        }
      ],
      "payable": false,
      "stateMutability": "view",
      "type": "function"
    },
    {
      "constant": false,
      "inputs": [],
      "name": "unlist",
      "outputs": [
        {
          "internalType": "bool",
          "name": "success",
          "type": "bool"
        }
      ],
      "payable": false,
      "stateMutability": "nonpayable",
      "type": "function"
    }
  ],
  "bytecode": "0x60806040526040518060400160405280600181526020017f3200000000000000000000000000000000000000000000000000000000000000815250600290805190602001906200005192919062000066565b503480156200005f57600080fd5b5062000115565b828054600181600116156101000203166002900490600052602060002090601f016020900481019282601f10620000a957805160ff1916838001178555620000da565b82800160010185558215620000da579182015b82811115620000d9578251825591602001919060010190620000bc565b5b509050620000e99190620000ed565b5090565b6200011291905b808211156200010e576000816000905550600101620000f4565b5090565b90565b61408a80620001256000396000f3fe608060405234801561001057600080fd5b50600436106101cf5760003560e01c80638e5aafe111610104578063d56805e1116100a2578063f4e493d611610071578063f4e493d614610e45578063f51b697914610e87578063f5bd3e3f14610ebf578063fc1c34e414610f05576101cf565b8063d56805e114610c44578063dd1bb1fc14610c8e578063e766307914610d11578063f0e5bd8614610d5b576101cf565b8063a0d58501116100de578063a0d58501146108d6578063bb66f9f6146108f8578063bc302cd0146109ac578063ce40b03f14610c26576101cf565b80638e5aafe11461085857806391b7f5ed1461086257806399d20bb114610890576101cf565b80634ddf47d4116101715780635ee6fa611161014b5780635ee6fa6114610628578063600114731461066a57806366570f17146106885780638a67f4bf14610800576101cf565b80634ddf47d4146104e75780634e1d009f146105a2578063546887a3146105e6576101cf565b806331ddd9ab116101ad57806331ddd9ab146103c15780633e5ceede1461047557806346f60dee1461047f57806347269720146104c9576101cf565b80631e0a1b95146101d45780632a6363be14610249578063317b24221461026b575b600080fd5b610200600480360360208110156101ea57600080fd5b8101908080359060200190929190505050610f0f565b604051808373ffffffffffffffffffffffffffffffffffffffff1673ffffffffffffffffffffffffffffffffffffffff1681526020018281526020019250505060405180910390f35b610251610f53565b604051808215151515815260200191505060405180910390f35b6103bf6004803603606081101561028157600080fd5b8101908080359060200190929190803590602001906401000000008111156102a857600080fd5b8201836020820111156102ba57600080fd5b803590602001918460208302840111640100000000831117156102dc57600080fd5b919080806020026020016040519081016040528093929190818152602001838360200280828437600081840152601f19601f8201169050808301925050505050505091929192908035906020019064010000000081111561033c57600080fd5b82018360208201111561034e57600080fd5b8035906020019184602083028401116401000000008311171561037057600080fd5b919080806020026020016040519081016040528093929190818152602001838360200280828437600081840152601f19601f820116905080830192505050505050509192919290505050610f66565b005b6103fa600480360360408110156103d757600080fd5b81019080803560ff1690602001909291908035906020019092919050505061168e565b6040518080602001828103825283818151815260200191508051906020019080838360005b8381101561043a57808201518184015260208101905061041f565b50505050905090810190601f1680156104675780820380516001836020036101000a031916815260200191505b509250505060405180910390f35b61047d61174b565b005b610487611ba9565b604051808273ffffffffffffffffffffffffffffffffffffffff1673ffffffffffffffffffffffffffffffffffffffff16815260200191505060405180910390f35b6104d1611bcf565b6040518082815260200191505060405180910390f35b6105a0600480360360208110156104fd57600080fd5b810190808035906020019064010000000081111561051a57600080fd5b82018360208201111561052c57600080fd5b8035906020019184600183028401116401000000008311171561054e57600080fd5b91908080601f016020809104026020016040519081016040528093929190818152602001838380828437600081840152601f19601f820116905080830192505050505050509192919290505050611bd5565b005b6105e4600480360360208110156105b857600080fd5b81019080803573ffffffffffffffffffffffffffffffffffffffff169060200190929190505050611e4e565b005b610612600480360360208110156105fc57600080fd5b810190808035906020019092919050505061205b565b6040518082815260200191505060405180910390f35b6106546004803603602081101561063e57600080fd5b810190808035906020019092919050505061207b565b6040518082815260200191505060405180910390f35b610672612093565b6040518082815260200191505060405180910390f35b6107fe6004803603608081101561069e57600080fd5b81019080803590602001906401000000008111156106bb57600080fd5b8201836020820111156106cd57600080fd5b803590602001918460208302840111640100000000831117156106ef57600080fd5b90919293919293908035906020019064010000000081111561071057600080fd5b82018360208201111561072257600080fd5b8035906020019184602083028401116401000000008311171561074457600080fd5b90919293919293908035906020019064010000000081111561076557600080fd5b82018360208201111561077757600080fd5b8035906020019184600183028401116401000000008311171561079957600080fd5b9091929391929390803590602001906401000000008111156107ba57600080fd5b8201836020820111156107cc57600080fd5b803590602001918460018302840111640100000000831117156107ee57600080fd5b9091929391929390505050612099565b005b6108426004803603602081101561081657600080fd5b81019080803573ffffffffffffffffffffffffffffffffffffffff1690602001909291905050506123db565b6040518082815260200191505060405180910390f35b61086061244d565b005b61088e6004803603602081101561087857600080fd5b810190808035906020019092919050505061261c565b005b6108bc600480360360208110156108a657600080fd5b8101908080359060200190929190505050612723565b604051808215151515815260200191505060405180910390f35b6108de612743565b604051808215151515815260200191505060405180910390f35b6109316004803603604081101561090e57600080fd5b81019080803560ff16906020019092919080359060200190929190505050612864565b6040518080602001828103825283818151815260200191508051906020019080838360005b83811015610971578082015181840152602081019050610956565b50505050905090810190601f16801561099e5780820380516001836020036101000a031916815260200191505b509250505060405180910390f35b610c24600480360360808110156109c257600080fd5b81019080803590602001906401000000008111156109df57600080fd5b8201836020820111156109f157600080fd5b80359060200191846020830284011164010000000083111715610a1357600080fd5b919080806020026020016040519081016040528093929190818152602001838360200280828437600081840152601f19601f82011690508083019250505050505050919291929080359060200190640100000000811115610a7357600080fd5b820183602082011115610a8557600080fd5b80359060200191846020830284011164010000000083111715610aa757600080fd5b919080806020026020016040519081016040528093929190818152602001838360200280828437600081840152601f19601f82011690508083019250505050505050919291929080359060200190640100000000811115610b0757600080fd5b820183602082011115610b1957600080fd5b80359060200191846001830284011164010000000083111715610b3b57600080fd5b91908080601f016020809104026020016040519081016040528093929190818152602001838380828437600081840152601f19601f82011690508083019250505050505050919291929080359060200190640100000000811115610b9e57600080fd5b820183602082011115610bb057600080fd5b80359060200191846001830284011164010000000083111715610bd257600080fd5b91908080601f016020809104026020016040519081016040528093929190818152602001838380828437600081840152601f19601f82011690508083019250505050505050919291929050505061295d565b005b610c2e612cc9565b6040518082815260200191505060405180910390f35b610c4c612ccf565b604051808273ffffffffffffffffffffffffffffffffffffffff1673ffffffffffffffffffffffffffffffffffffffff16815260200191505060405180910390f35b610c96612cf5565b6040518080602001828103825283818151815260200191508051906020019080838360005b83811015610cd6578082015181840152602081019050610cbb565b50505050905090810190601f168015610d035780820380516001836020036101000a031916815260200191505b509250505060405180910390f35b610d19612d93565b604051808273ffffffffffffffffffffffffffffffffffffffff1673ffffffffffffffffffffffffffffffffffffffff16815260200191505060405180910390f35b610e2b60048036036060811015610d7157600080fd5b81019080803560ff1690602001909291908035906020019092919080359060200190640100000000811115610da557600080fd5b820183602082011115610db757600080fd5b80359060200191846001830284011164010000000083111715610dd957600080fd5b91908080601f016020809104026020016040519081016040528093929190818152602001838380828437600081840152601f19601f820116905080830192505050505050509192919290505050612db8565b604051808215151515815260200191505060405180910390f35b610e8560048036036060811015610e5b57600080fd5b81019080803590602001909291908035906020019092919080359060200190929190505050612e98565b005b610ebd60048036036040811015610e9d57600080fd5b810190808035906020019092919080359060200190929190505050613385565b005b610eeb60048036036020811015610ed557600080fd5b81019080803590602001909291905050506139ed565b604051808215151515815260200191505060405180910390f35b610f0d613a0d565b005b60096020528060005260406000206000915090508060000160009054906101000a900473ffffffffffffffffffffffffffffffffffffffff16908060010154905082565b600660009054906101000a900460ff1681565b823373ffffffffffffffffffffffffffffffffffffffff166009600083815260200190815260200160002060000160009054906101000a900473ffffffffffffffffffffffffffffffffffffffff1673ffffffffffffffffffffffffffffffffffffffff16148015610fee575060006009600083815260200190815260200160002060010154115b611060576040517f08c379a000000000000000000000000000000000000000000000000000000000815260040180806020018281038252600f8152602001807f4a6f6220697320696e76616c69642e000000000000000000000000000000000081525060200191505060405180910390fd5b60008351116110ba576040517f08c379a000000000000000000000000000000000000000000000000000000000815260040180806020018281038252602581526020018061400a6025913960400191505060405180910390fd5b8151835114611114576040517f08c379a0000000000000000000000000000000000000000000000000000000008152600401808060200182810382526026815260200180613f296026913960400191505060405180910390fd5b600080905060008090505b835181101561140357600085828151811061113657fe5b602002602001015190503373ffffffffffffffffffffffffffffffffffffffff168173ffffffffffffffffffffffffffffffffffffffff1614156111c5576040517f08c379a000000000000000000000000000000000000000000000000000000000815260040180806020018281038252602781526020018061402f6027913960400191505060405180910390fd5b6000809054906101000a900473ffffffffffffffffffffffffffffffffffffffff1673ffffffffffffffffffffffffffffffffffffffff168173ffffffffffffffffffffffffffffffffffffffff1614806112925750600b600082604051602001808273ffffffffffffffffffffffffffffffffffffffff1673ffffffffffffffffffffffffffffffffffffffff1660601b815260140191505060405160208183030381529060405280519060200120815260200190815260200160002060009054906101000a900460ff165b806113785750600854600360009054906101000a900473ffffffffffffffffffffffffffffffffffffffff1673ffffffffffffffffffffffffffffffffffffffff1663f4f0e1ae836040518263ffffffff1660e01b8152600401808273ffffffffffffffffffffffffffffffffffffffff1673ffffffffffffffffffffffffffffffffffffffff16815260200191505060206040518083038186803b15801561133a57600080fd5b505afa15801561134e573d6000803e3d6000fd5b505050506040513d602081101561136457600080fd5b810190808051906020019092919050505010155b6113cd576040517f08c379a0000000000000000000000000000000000000000000000000000000008152600401808060200182810382526048815260200180613f726048913960600191505060405180910390fd5b6113f38583815181106113dc57fe5b602002602001015184613bfb90919063ffffffff16565b925050808060010191505061111f565b506009600086815260200190815260200160002060010154811115611490576040517f08c379a00000000000000000000000000000000000000000000000000000000081526004018080602001828103825260148152602001807f496e73756666696369656e74206275646765742e00000000000000000000000081525060200191505060405180910390fd5b60008090505b8451811015611686578381815181106114ab57fe5b6020026020010151600960008881526020019081526020016000206001015410156114d257fe5b60008582815181106114e057fe5b6020026020010151604051602001808273ffffffffffffffffffffffffffffffffffffffff1673ffffffffffffffffffffffffffffffffffffffff1660601b815260140191505060405160208183030381529060405280519060200120905061157885838151811061154e57fe5b6020026020010151600a600084815260200190815260200160002054613bfb90919063ffffffff16565b600a6000838152602001908152602001600020819055506115cb85838151811061159e57fe5b6020026020010151600960008a815260200190815260200160002060010154613c1590919063ffffffff16565b6009600089815260200190815260200160002060010181905550868683815181106115f257fe5b602002602001015173ffffffffffffffffffffffffffffffffffffffff167fe0b17d0a6a4b5e07ef48a007b70f93ff1fc3862becc524e286a3ddc3ac7965f687858151811061163d57fe5b6020026020010151600960008c815260200190815260200160002060010154604051808381526020018281526020019250505060405180910390a3508080600101915050611496565b505050505050565b600c602052816000526040600020602052806000526040600020600091509150508054600181600116156101000203166002900480601f0160208091040260200160405190810160405280929190818152602001828054600181600116156101000203166002900480156117435780601f1061171857610100808354040283529160200191611743565b820191906000526020600020905b81548152906001019060200180831161172657829003601f168201915b505050505081565b6000809054906101000a900473ffffffffffffffffffffffffffffffffffffffff1673ffffffffffffffffffffffffffffffffffffffff163373ffffffffffffffffffffffffffffffffffffffff1614806118815750600854600360009054906101000a900473ffffffffffffffffffffffffffffffffffffffff1673ffffffffffffffffffffffffffffffffffffffff1663f4f0e1ae336040518263ffffffff1660e01b8152600401808273ffffffffffffffffffffffffffffffffffffffff1673ffffffffffffffffffffffffffffffffffffffff16815260200191505060206040518083038186803b15801561184357600080fd5b505afa158015611857573d6000803e3d6000fd5b505050506040513d602081101561186d57600080fd5b810190808051906020019092919050505010155b806118fe5750600b600033604051602001808273ffffffffffffffffffffffffffffffffffffffff1673ffffffffffffffffffffffffffffffffffffffff1660601b815260140191505060405160208183030381529060405280519060200120815260200190815260200160002060009054906101000a900460ff165b15611b6357600033604051602001808273ffffffffffffffffffffffffffffffffffffffff1673ffffffffffffffffffffffffffffffffffffffff1660601b81526014019150506040516020818303038152906040528051906020012090506000600a600083815260200190815260200160002054116119e6576040517f08c379a00000000000000000000000000000000000000000000000000000000081526004018080602001828103825260158152602001807f4e6f2062616c616e636520746f2072656465656d2e000000000000000000000081525060200191505060405180910390fd5b600360009054906101000a900473ffffffffffffffffffffffffffffffffffffffff1673ffffffffffffffffffffffffffffffffffffffff1663a9059cbb33600a6000858152602001908152602001600020546040518363ffffffff1660e01b8152600401808373ffffffffffffffffffffffffffffffffffffffff1673ffffffffffffffffffffffffffffffffffffffff16815260200182815260200192505050602060405180830381600087803b158015611aa257600080fd5b505af1158015611ab6573d6000803e3d6000fd5b505050506040513d6020811015611acc57600080fd5b810190808051906020019092919050505015611b5d573373ffffffffffffffffffffffffffffffffffffffff167f4896181ff8f4543cc00db9fe9b6fb7e6f032b7eb772c72ab1ec1b4d2e03b9369600a6000848152602001908152602001600020546040518082815260200191505060405180910390a26000600a6000838152602001908152602001600020819055505b50611ba7565b3373ffffffffffffffffffffffffffffffffffffffff167f51267e37212898aeeb15abec9b3516d1f714b4e2dcf6fa1ab92d1adac0b7a8b360405160405180910390a25b565b600460009054906101000a900473ffffffffffffffffffffffffffffffffffffffff1681565b60055481565b600073ffffffffffffffffffffffffffffffffffffffff166000809054906101000a900473ffffffffffffffffffffffffffffffffffffffff1673ffffffffffffffffffffffffffffffffffffffff1614611c7b576040517f08c379a000000000000000000000000000000000000000000000000000000000815260040180806020018281038252602f815260200180613fba602f913960400191505060405180910390fd5b600080600080600060208601945084519350604086019450845192506060860194508451915060808601945084519050836000806101000a81548173ffffffffffffffffffffffffffffffffffffffff021916908373ffffffffffffffffffffffffffffffffffffffff16021790555082600360006101000a81548173ffffffffffffffffffffffffffffffffffffffff021916908373ffffffffffffffffffffffffffffffffffffffff16021790555081600460006101000a81548173ffffffffffffffffffffffffffffffffffffffff021916908373ffffffffffffffffffffffffffffffffffffffff160217905550806005819055506001600660006101000a81548160ff0219169083151502179055506000600781905550600360009054906101000a900473ffffffffffffffffffffffffffffffffffffffff1673ffffffffffffffffffffffffffffffffffffffff1663313ce5676040518163ffffffff1660e01b815260040160206040518083038186803b158015611dff57600080fd5b505afa158015611e13573d6000803e3d6000fd5b505050506040513d6020811015611e2957600080fd5b8101908080519060200190929190505050600a0a606402600881905550505050505050565b6000809054906101000a900473ffffffffffffffffffffffffffffffffffffffff1673ffffffffffffffffffffffffffffffffffffffff163373ffffffffffffffffffffffffffffffffffffffff1614611ea757600080fd5b806001600082604051602001808273ffffffffffffffffffffffffffffffffffffffff1673ffffffffffffffffffffffffffffffffffffffff1660601b815260140191505060405160208183030381529060405280519060200120815260200190815260200160002060009054906101000a900460ff16611f90576040517f08c379a00000000000000000000000000000000000000000000000000000000081526004018080602001828103825260208152602001807f4f776e6572207265717565737420686173206e6f74206265656e2073656e742e81525060200191505060405180910390fd5b816000806101000a81548173ffffffffffffffffffffffffffffffffffffffff021916908373ffffffffffffffffffffffffffffffffffffffff160217905550600033604051602001808273ffffffffffffffffffffffffffffffffffffffff1673ffffffffffffffffffffffffffffffffffffffff1660601b815260140191505060405160208183030381529060405280519060200120905060006001600083815260200190815260200160002060006101000a81548160ff021916908315150217905550505050565b600060096000838152602001908152602001600020600101549050919050565b600a6020528060005260406000206000915090505481565b60085481565b6000809054906101000a900473ffffffffffffffffffffffffffffffffffffffff168073ffffffffffffffffffffffffffffffffffffffff163373ffffffffffffffffffffffffffffffffffffffff161461215c576040517f08c379a00000000000000000000000000000000000000000000000000000000081526004018080602001828103825260168152602001807f53656e646572206e6f7420617574686f72697a65642e0000000000000000000081525060200191505060405180910390fd5b600660009054906101000a900460ff166121de576040517f08c379a00000000000000000000000000000000000000000000000000000000081526004018080602001828103825260108152602001807f41465320697320756e6c69737465642e0000000000000000000000000000000081525060200191505060405180910390fd5b6000878790508a8a9050116121f657878790506121fb565b898990505b905060008090505b818110156123955760018b8b90500381116122c95761227b602860ff168202602860ff1689898080601f016020809104026020016040519081016040528093929190818152602001838380828437600081840152601f19601f82011690508083019250505050505050613c2c9092919063ffffffff16565b600c60008060ff16815260200190815260200160002060008d8d8581811061229f57fe5b90506020020135815260200190815260200160002090805190602001906122c7929190613e83565b505b60018989905003811161238857612339604060ff168202604060ff1687878080601f016020809104026020016040519081016040528093929190818152602001838380828437600081840152601f19601f82011690508083019250505050505050613c2c9092919063ffffffff16565b600c6000600160ff16815260200190815260200160002060008b8b8581811061235e57fe5b9050602002013581526020019081526020016000209080519060200190612386929190613e83565b505b8080600101915050612203565b507f9e8a51bb6b34b9d5d18c14fd753ee3bf44e2256512665a4577281ffcc91943ff6005546040518082815260200191505060405180910390a150505050505050505050565b6000600a600083604051602001808273ffffffffffffffffffffffffffffffffffffffff1673ffffffffffffffffffffffffffffffffffffffff1660601b8152601401915050604051602081830303815290604052805190602001208152602001908152602001600020549050919050565b6001600033604051602001808273ffffffffffffffffffffffffffffffffffffffff1673ffffffffffffffffffffffffffffffffffffffff1660601b815260140191505060405160208183030381529060405280519060200120815260200190815260200160002060009054906101000a900460ff1615612519576040517f08c379a0000000000000000000000000000000000000000000000000000000008152600401808060200182810382526021815260200180613fe96021913960400191505060405180910390fd5b600033604051602001808273ffffffffffffffffffffffffffffffffffffffff1673ffffffffffffffffffffffffffffffffffffffff1660601b8152601401915050604051602081830303815290604052805190602001209050600180600083815260200190815260200160002060006101000a81548160ff0219169083151502179055503373ffffffffffffffffffffffffffffffffffffffff166000809054906101000a900473ffffffffffffffffffffffffffffffffffffffff1673ffffffffffffffffffffffffffffffffffffffff167fd5b906f2d3dfa8cf0ea788d4ad6e99ebd482d6134c3405e1a5faa5da891cda8560405160405180910390a350565b6000809054906101000a900473ffffffffffffffffffffffffffffffffffffffff168073ffffffffffffffffffffffffffffffffffffffff163373ffffffffffffffffffffffffffffffffffffffff16146126df576040517f08c379a00000000000000000000000000000000000000000000000000000000081526004018080602001828103825260168152602001807f53656e646572206e6f7420617574686f72697a65642e0000000000000000000081525060200191505060405180910390fd5b816007819055507f6bfd5e75539a9d2626425a2e2922675256b219fe546d63dad56011759b9a2f666007546040518082815260200191505060405180910390a15050565b60016020528060005260406000206000915054906101000a900460ff1681565b60008060009054906101000a900473ffffffffffffffffffffffffffffffffffffffff168073ffffffffffffffffffffffffffffffffffffffff163373ffffffffffffffffffffffffffffffffffffffff1614612808576040517f08c379a00000000000000000000000000000000000000000000000000000000081526004018080602001828103825260168152602001807f53656e646572206e6f7420617574686f72697a65642e0000000000000000000081525060200191505060405180910390fd5b6000600660006101000a81548160ff0219169083151502179055507f2e6ec049d62c8a42e7cc223354aadb68d5046a2cba67ed55a089fdb852fb6cb66005546040518082815260200191505060405180910390a1600191505090565b6060600660009054906101000a900460ff1661289157604051806020016040528060008152509050612957565b600c60008460ff1660ff16815260200190815260200160002060008381526020019081526020016000208054600181600116156101000203166002900480601f01602080910402602001604051908101604052809291908181526020018280546001816001161561010002031660029004801561294f5780601f106129245761010080835404028352916020019161294f565b820191906000526020600020905b81548152906001019060200180831161293257829003601f168201915b505050505090505b92915050565b6000809054906101000a900473ffffffffffffffffffffffffffffffffffffffff168073ffffffffffffffffffffffffffffffffffffffff163373ffffffffffffffffffffffffffffffffffffffff1614612a20576040517f08c379a00000000000000000000000000000000000000000000000000000000081526004018080602001828103825260168152602001807f53656e646572206e6f7420617574686f72697a65642e0000000000000000000081525060200191505060405180910390fd5b600660009054906101000a900460ff16612aa2576040517f08c379a00000000000000000000000000000000000000000000000000000000081526004018080602001828103825260108152602001807f41465320697320756e6c69737465642e0000000000000000000000000000000081525060200191505060405180910390fd5b60008451865111612ab4578451612ab7565b85515b9050612ad06000602086613c2c9092919063ffffffff16565b600c60008060ff16815260200190815260200160002060008081526020019081526020016000209080519060200190612b0a929190613e83565b50612b226000602085613c2c9092919063ffffffff16565b600c6000600160ff16815260200190815260200160002060008081526020019081526020016000209080519060200190612b5d929190613e83565b506000600190505b81811015612c875760018751038111612bf357612ba4878281518110612b8757fe5b6020026020010151602860ff1687613c2c9092919063ffffffff16565b600c60008060ff1681526020019081526020016000206000898481518110612bc857fe5b602002602001015181526020019081526020016000209080519060200190612bf1929190613e83565b505b60018651038111612c7a57612c2a868281518110612c0d57fe5b6020026020010151604060ff1686613c2c9092919063ffffffff16565b600c6000600160ff1681526020019081526020016000206000888481518110612c4f57fe5b602002602001015181526020019081526020016000209080519060200190612c78929190613e83565b505b8080600101915050612b65565b507f9e8a51bb6b34b9d5d18c14fd753ee3bf44e2256512665a4577281ffcc91943ff6005546040518082815260200191505060405180910390a1505050505050565b60075481565b600360009054906101000a900473ffffffffffffffffffffffffffffffffffffffff1681565b60028054600181600116156101000203166002900480601f016020809104026020016040519081016040528092919081815260200182805460018160011615610100020316600290048015612d8b5780601f10612d6057610100808354040283529160200191612d8b565b820191906000526020600020905b815481529060010190602001808311612d6e57829003601f168201915b505050505081565b6000809054906101000a900473ffffffffffffffffffffffffffffffffffffffff1681565b6000612e8f82600c60008760ff1660ff16815260200190815260200160002060008681526020019081526020016000208054600181600116156101000203166002900480601f016020809104026020016040519081016040528092919081815260200182805460018160011615610100020316600290048015612e7c5780601f10612e5157610100808354040283529160200191612e7c565b820191906000526020600020905b815481529060010190602001808311612e5f57829003601f168201915b5050505050613e1690919063ffffffff16565b90509392505050565b600660009054906101000a900460ff16612efd576040517f08c379a0000000000000000000000000000000000000000000000000000000008152600401808060200182810382526023815260200180613f4f6023913960400191505060405180910390fd5b6000600360009054906101000a900473ffffffffffffffffffffffffffffffffffffffff1673ffffffffffffffffffffffffffffffffffffffff1663dd62ed3e33306040518363ffffffff1660e01b8152600401808373ffffffffffffffffffffffffffffffffffffffff1673ffffffffffffffffffffffffffffffffffffffff1681526020018273ffffffffffffffffffffffffffffffffffffffff1673ffffffffffffffffffffffffffffffffffffffff1681526020019250505060206040518083038186803b158015612fd257600080fd5b505afa158015612fe6573d6000803e3d6000fd5b505050506040513d6020811015612ffc57600080fd5b81019080805190602001909291905050509050600033604051602001808273ffffffffffffffffffffffffffffffffffffffff1673ffffffffffffffffffffffffffffffffffffffff1660601b8152601401915050604051602081830303815290604052805190602001209050600b600082815260200190815260200160002060009054906101000a900460ff161580156130ab57506130a783600754613bfb90919063ffffffff16565b8210155b61311d576040517f08c379a00000000000000000000000000000000000000000000000000000000081526004018080602001828103825260138152602001807f556e61626c6520746f2070757263686173652e0000000000000000000000000081525060200191505060405180910390fd5b600360009054906101000a900473ffffffffffffffffffffffffffffffffffffffff1673ffffffffffffffffffffffffffffffffffffffff166323b872dd336000809054906101000a900473ffffffffffffffffffffffffffffffffffffffff166007546040518463ffffffff1660e01b8152600401808473ffffffffffffffffffffffffffffffffffffffff1673ffffffffffffffffffffffffffffffffffffffff1681526020018373ffffffffffffffffffffffffffffffffffffffff1673ffffffffffffffffffffffffffffffffffffffff1681526020018281526020019350505050602060405180830381600087803b15801561321d57600080fd5b505af1158015613231573d6000803e3d6000fd5b505050506040513d602081101561324757600080fd5b81019080805190602001909291905050501561337e576001600b600083815260200190815260200160002060006101000a81548160ff021916908315150217905550600460009054906101000a900473ffffffffffffffffffffffffffffffffffffffff1673ffffffffffffffffffffffffffffffffffffffff16630c2bb965866005546040518363ffffffff1660e01b81526004018083815260200182815260200192505050600060405180830381600087803b15801561330857600080fd5b505af115801561331c573d6000803e3d6000fd5b50505050847fcddf9a7164ac111c2b0f5648b8600c8f3e4060c7cc663f8218c748d7357c7ea56007546040518082815260200191505060405180910390a26000801b841415801561336d5750600083115b1561337d5761337c8484613385565b5b5b5050505050565b600b600033604051602001808273ffffffffffffffffffffffffffffffffffffffff1673ffffffffffffffffffffffffffffffffffffffff1660601b815260140191505060405160208183030381529060405280519060200120815260200190815260200160002060009054906101000a900460ff1661346d576040517f08c379a000000000000000000000000000000000000000000000000000000000815260040180806020018281038252601c8152602001807f436f6e74656e7420776173206e65766572207075726368617365642e0000000081525060200191505060405180910390fd5b6000600360009054906101000a900473ffffffffffffffffffffffffffffffffffffffff1673ffffffffffffffffffffffffffffffffffffffff1663dd62ed3e33306040518363ffffffff1660e01b8152600401808373ffffffffffffffffffffffffffffffffffffffff1673ffffffffffffffffffffffffffffffffffffffff1681526020018273ffffffffffffffffffffffffffffffffffffffff1673ffffffffffffffffffffffffffffffffffffffff1681526020019250505060206040518083038186803b15801561354257600080fd5b505afa158015613556573d6000803e3d6000fd5b505050506040513d602081101561356c57600080fd5b810190808051906020019092919050505090506000801b83141580156135925750600082115b801561359e5750818110155b80156136785750600073ffffffffffffffffffffffffffffffffffffffff166009600085815260200190815260200160002060000160009054906101000a900473ffffffffffffffffffffffffffffffffffffffff1673ffffffffffffffffffffffffffffffffffffffff16148061367757503373ffffffffffffffffffffffffffffffffffffffff166009600085815260200190815260200160002060000160009054906101000a900473ffffffffffffffffffffffffffffffffffffffff1673ffffffffffffffffffffffffffffffffffffffff16145b5b6136ea576040517f08c379a00000000000000000000000000000000000000000000000000000000081526004018080602001828103825260178152602001807f4a6f62207375626d697373696f6e20696e76616c69642e00000000000000000081525060200191505060405180910390fd5b600360009054906101000a900473ffffffffffffffffffffffffffffffffffffffff1673ffffffffffffffffffffffffffffffffffffffff166323b872dd3330856040518463ffffffff1660e01b8152600401808473ffffffffffffffffffffffffffffffffffffffff1673ffffffffffffffffffffffffffffffffffffffff1681526020018373ffffffffffffffffffffffffffffffffffffffff1673ffffffffffffffffffffffffffffffffffffffff1681526020018281526020019350505050602060405180830381600087803b1580156137c757600080fd5b505af11580156137db573d6000803e3d6000fd5b505050506040513d60208110156137f157600080fd5b8101908080519060200190929190505050156139e857613830826009600086815260200190815260200160002060010154613bfb90919063ffffffff16565b6009600085815260200190815260200160002060010181905550336009600085815260200190815260200160002060000160006101000a81548173ffffffffffffffffffffffffffffffffffffffff021916908373ffffffffffffffffffffffffffffffffffffffff160217905550600360009054906101000a900473ffffffffffffffffffffffffffffffffffffffff1673ffffffffffffffffffffffffffffffffffffffff166370a08231306040518263ffffffff1660e01b8152600401808273ffffffffffffffffffffffffffffffffffffffff1673ffffffffffffffffffffffffffffffffffffffff16815260200191505060206040518083038186803b15801561393e57600080fd5b505afa158015613952573d6000803e3d6000fd5b505050506040513d602081101561396857600080fd5b81019080805190602001909291905050506009600085815260200190815260200160002060010154111561399857fe5b823373ffffffffffffffffffffffffffffffffffffffff167ffe90998f27be7536b0ddee58cbabc035ceaf141636bf7ca4216f4aae6a50ca6f846040518082815260200191505060405180910390a35b505050565b600b6020528060005260406000206000915054906101000a900460ff1681565b336001600082604051602001808273ffffffffffffffffffffffffffffffffffffffff1673ffffffffffffffffffffffffffffffffffffffff1660601b815260140191505060405160208183030381529060405280519060200120815260200190815260200160002060009054906101000a900460ff16613af6576040517f08c379a00000000000000000000000000000000000000000000000000000000081526004018080602001828103825260208152602001807f4f776e6572207265717565737420686173206e6f74206265656e2073656e742e81525060200191505060405180910390fd5b600033604051602001808273ffffffffffffffffffffffffffffffffffffffff1673ffffffffffffffffffffffffffffffffffffffff1660601b815260140191505060405160208183030381529060405280519060200120905060006001600083815260200190815260200160002060006101000a81548160ff0219169083151502179055503373ffffffffffffffffffffffffffffffffffffffff166000809054906101000a900473ffffffffffffffffffffffffffffffffffffffff1673ffffffffffffffffffffffffffffffffffffffff167f1dc90b1ce875ea53ce4f7fb2036478f4ddfef57ec243f3fb5a9d81faf7dac5f460405160405180910390a35050565b6000818301905082811015613c0c57fe5b80905092915050565b600082821115613c2157fe5b818303905092915050565b606081601f83011015613ca7576040517f08c379a000000000000000000000000000000000000000000000000000000000815260040180806020018281038252600e8152602001807f736c6963655f6f766572666c6f7700000000000000000000000000000000000081525060200191505060405180910390fd5b828284011015613d1f576040517f08c379a000000000000000000000000000000000000000000000000000000000815260040180806020018281038252600e8152602001807f736c6963655f6f766572666c6f7700000000000000000000000000000000000081525060200191505060405180910390fd5b81830184511015613d98576040517f08c379a00000000000000000000000000000000000000000000000000000000081526004018080602001828103825260118152602001807f736c6963655f6f75744f66426f756e647300000000000000000000000000000081525060200191505060405180910390fd5b6060821560008114613db95760405191506000825260208201604052613e0a565b6040519150601f8416801560200281840101858101878315602002848b0101015b81831015613df75780518352602083019250602081019050613dda565b50868552601f19601f8301166040525050505b50809150509392505050565b6000806001905083518351811460018114613e345760009250613e77565b600160208701838101602088015b600284838510011415613e72578051835114613e615760009650600093505b602083019250602081019050613e42565b505050505b50508091505092915050565b828054600181600116156101000203166002900490600052602060002090601f016020900481019282601f10613ec457805160ff1916838001178555613ef2565b82800160010185558215613ef2579182015b82811115613ef1578251825591602001919060010190613ed6565b5b509050613eff9190613f03565b5090565b613f2591905b80821115613f21576000816000905550600101613f09565b5090565b9056fe556e657175616c206e756d626572206f66206661726d65727320616e6420726577617264732e436f6e74656e74206973206e6f74206c697374656420666f722070757263686173652e4661726d6572206d757374206265206120707572636861736572206f66207468697320414653206f7220686176652073756666696369656e7420746f6b656e206465706f7369742e5468697320414653207374616e646172642068617320616c7265616479206265656e20696e697469616c697a65642e4f776e657273686970207265717565737420616c7265616479206163746976652e4d75737420616c6c6f6361746520746f206174206c65617374206f6e65206661726d65722e43616e6e6f7420616c6c6f63617465207265776172647320746f206a6f622063726561746f722ea265627a7a72315820d951209d5280c42d3b1920713be3e32ff5b26b7066ae0ab5c51c367d6ecc56cd64736f6c63430005100032",
  "source": "pragma solidity ^0.5.16;\r\n\r\nimport './Ownable.sol';\r\nimport './Library.sol';\r\nimport './AraToken.sol';\r\nimport 'bytes/BytesLib.sol';\r\nimport '../SafeMath32.sol';\r\nimport '../SafeMath.sol';\r\n\r\ncontract AFS is Ownable {\r\n  using SafeMath for uint256;\r\n  using BytesLib for bytes;\r\n\r\n  string   public version_ = '2';\r\n\r\n  AraToken public token_;\r\n  Library  public lib_;\r\n\r\n  bytes32  public did_;\r\n  bool     public listed_;\r\n  uint256  public price_;\r\n\r\n  uint256  public depositRequirement_;\r\n\r\n  mapping(bytes32 => Job)     public jobs_; // jobId => job { budget, sender }\r\n  mapping(bytes32 => uint256) public rewards_;    // farmer => rewards\r\n  mapping(bytes32 => bool)    public purchasers_; // keccak256 hashes of buyer addresses\r\n  mapping(uint8 => mapping (uint256 => bytes))   public metadata_;\r\n\r\n  struct Job {\r\n    address sender;\r\n    uint256 budget;\r\n  }\r\n\r\n  event Commit(bytes32 _did);\r\n  event Unlisted(bytes32 _did);\r\n  event PriceSet(uint256 _price);\r\n  event BudgetSubmitted(address indexed _sender, bytes32 indexed _jobId, uint256 _budget);\r\n  event RewardsAllocated(address indexed _farmer, bytes32 indexed _jobId, uint256 _allocated, uint256 _remaining);\r\n  event InsufficientDeposit(address indexed _farmer);\r\n  event Purchased(bytes32 indexed _purchaser, uint256 _price);\r\n  event Redeemed(address indexed _sender, uint256 _amount);\r\n\r\n  uint8 constant mtBufferSize_ = 40;\r\n  uint8 constant msBufferSize_ = 64;\r\n\r\n  modifier onlyBy(address _account)\r\n  {\r\n    require(\r\n      msg.sender == _account,\r\n      'Sender not authorized.'\r\n    );\r\n    _;\r\n  }\r\n\r\n  modifier purchaseRequired()\r\n  {\r\n    require(\r\n      purchasers_[keccak256(abi.encodePacked(msg.sender))],\r\n      'Content was never purchased.'\r\n    );\r\n    _;\r\n  }\r\n\r\n  modifier budgetSubmitted(bytes32 _jobId)\r\n  {\r\n    require(\r\n      jobs_[_jobId].sender == msg.sender && jobs_[_jobId].budget > 0,\r\n      'Job is invalid.'\r\n    );\r\n    _;\r\n  }\r\n\r\n  function init(bytes memory _data) public {\r\n    require(owner_ == address(0), 'This AFS standard has already been initialized.');\r\n  \r\n    uint256 btsptr;\r\n    address ownerAddr;\r\n    address tokenAddr;\r\n    address libAddr;\r\n    bytes32 did;\r\n    /* solium-disable-next-line security/no-inline-assembly */\r\n    assembly {\r\n      btsptr := add(_data, 32)\r\n      ownerAddr := mload(btsptr)\r\n      btsptr := add(_data, 64)\r\n      tokenAddr := mload(btsptr)\r\n      btsptr := add(_data, 96)\r\n      libAddr := mload(btsptr)\r\n      btsptr := add(_data, 128)\r\n      did := mload(btsptr)\r\n    }\r\n    owner_    = ownerAddr;\r\n    token_    = AraToken(tokenAddr);\r\n    lib_      = Library(libAddr);\r\n    did_      = did;\r\n    listed_   = true;\r\n    price_    = 0;\r\n    depositRequirement_  = 100 * 10 ** token_.decimals();\r\n  }\r\n\r\n  function setPrice(uint256 _price) external onlyBy(owner_) {\r\n    price_ = _price;\r\n    emit PriceSet(price_);\r\n  }\r\n\r\n  function submitBudget(bytes32 _jobId, uint256 _budget) public purchaseRequired {\r\n    uint256 allowance = token_.allowance(msg.sender, address(this));\r\n    require(_jobId != bytes32(0) && _budget > 0 && allowance >= _budget\r\n      && (jobs_[_jobId].sender == address(0) || jobs_[_jobId].sender == msg.sender), 'Job submission invalid.');\r\n\r\n    if (token_.transferFrom(msg.sender, address(this), _budget)) {\r\n      jobs_[_jobId].budget = jobs_[_jobId].budget.add(_budget);\r\n      jobs_[_jobId].sender = msg.sender;\r\n      assert(jobs_[_jobId].budget <= token_.balanceOf(address(this)));\r\n      emit BudgetSubmitted(msg.sender, _jobId, _budget);\r\n    }\r\n  }\r\n\r\n  function allocateRewards(bytes32 _jobId, address[] memory _farmers, uint256[] memory _rewards) public budgetSubmitted(_jobId) {\r\n    require(_farmers.length > 0, 'Must allocate to at least one farmer.');\r\n    require(_farmers.length == _rewards.length, 'Unequal number of farmers and rewards.');\r\n    uint256 totalRewards = 0;\r\n    for (uint256 i = 0; i < _rewards.length; i++) {\r\n      address farmer = _farmers[i];\r\n      require(farmer != msg.sender, 'Cannot allocate rewards to job creator.');\r\n      require(farmer == owner_ || purchasers_[keccak256(abi.encodePacked(farmer))] || token_.amountDeposited(farmer) >= depositRequirement_, 'Farmer must be a purchaser of this AFS or have sufficient token deposit.');\r\n      totalRewards = totalRewards.add(_rewards[i]);\r\n    }\r\n    require(totalRewards <= jobs_[_jobId].budget, 'Insufficient budget.');\r\n    for (uint256 j = 0; j < _farmers.length; j++) {\r\n      assert(jobs_[_jobId].budget >= _rewards[j]);\r\n      bytes32 hashedFarmer = keccak256(abi.encodePacked(_farmers[j]));\r\n      rewards_[hashedFarmer] = rewards_[hashedFarmer].add(_rewards[j]);\r\n      jobs_[_jobId].budget = jobs_[_jobId].budget.sub(_rewards[j]);\r\n      emit RewardsAllocated(_farmers[j], _jobId, _rewards[j], jobs_[_jobId].budget);\r\n    }\r\n  }\r\n\r\n  function redeemBalance() public {\r\n    if (msg.sender == owner_ || token_.amountDeposited(msg.sender) >= depositRequirement_ || purchasers_[keccak256(abi.encodePacked(msg.sender))]) {\r\n      bytes32 hashedAddress = keccak256(abi.encodePacked(msg.sender));\r\n      require(rewards_[hashedAddress] > 0, 'No balance to redeem.');\r\n      if (token_.transfer(msg.sender, rewards_[hashedAddress])) {\r\n        emit Redeemed(msg.sender, rewards_[hashedAddress]);\r\n        rewards_[hashedAddress] = 0;\r\n      }\r\n    } else {\r\n      emit InsufficientDeposit(msg.sender);\r\n    }\r\n  }\r\n\r\n  function getRewardsBalance(address _farmer) public view returns (uint256) {\r\n    return rewards_[keccak256(abi.encodePacked(_farmer))];\r\n  }\r\n\r\n  function getBudget(bytes32 _jobId) public view returns (uint256) {\r\n    return jobs_[_jobId].budget;\r\n  }\r\n\r\n  /**\r\n   * @dev Purchases this AFS and adds it to _purchaser's library. \r\n   *      If _download is true, deposits any remaining allowance \r\n   *      as rewards for this purchase\r\n   * @param _purchaser The hashed methodless did of the purchaser\r\n   * @param _jobId The jobId of the download, or 0x00000000000000000000000000000000 if N/A\r\n   * @param _budget The reward budget for jobId, or 0 if N/A\r\n   */\r\n  function purchase(bytes32 _purchaser, bytes32 _jobId, uint256 _budget) external {\r\n    require(listed_, 'Content is not listed for purchase.');\r\n    uint256 allowance = token_.allowance(msg.sender, address(this));\r\n    bytes32 hashedAddress = keccak256(abi.encodePacked(msg.sender));\r\n    require (!purchasers_[hashedAddress] && allowance >= price_.add(_budget), 'Unable to purchase.');\r\n\r\n    if (token_.transferFrom(msg.sender, owner_, price_)) {\r\n      purchasers_[hashedAddress] = true;\r\n      lib_.addLibraryItem(_purchaser, did_);\r\n      emit Purchased(_purchaser, price_);\r\n\r\n      if (_jobId != bytes32(0) && _budget > 0) {\r\n        submitBudget(_jobId, _budget);\r\n      }\r\n    }\r\n  }\r\n\r\n  function append(uint256[] calldata _mtOffsets, uint256[] calldata _msOffsets, bytes calldata _mtBuffer,\r\n    bytes calldata _msBuffer) external onlyBy(owner_) {\r\n    \r\n    require(listed_, 'AFS is unlisted.');\r\n    \r\n    uint256 maxOffsetLength = _mtOffsets.length > _msOffsets.length \r\n      ? _mtOffsets.length \r\n      : _msOffsets.length;\r\n\r\n    for (uint i = 0; i < maxOffsetLength; i++) {\r\n      // metadata/tree\r\n      if (i <= _mtOffsets.length - 1) {\r\n        metadata_[0][_mtOffsets[i]] = _mtBuffer.slice(i * mtBufferSize_, mtBufferSize_);\r\n      }\r\n\r\n      // metadata/signatures\r\n      if (i <= _msOffsets.length - 1) {\r\n        metadata_[1][_msOffsets[i]] = _msBuffer.slice(i * msBufferSize_, msBufferSize_);\r\n      }\r\n    }\r\n\r\n    emit Commit(did_);\r\n  }\r\n\r\n  function write(uint256[] memory _mtOffsets, uint256[] memory _msOffsets, bytes memory _mtBuffer,\r\n    bytes memory _msBuffer) public onlyBy(owner_) {\r\n\r\n    require(listed_, 'AFS is unlisted.');\r\n\r\n    uint256 maxOffsetLength = _mtOffsets.length > _msOffsets.length\r\n      ? _mtOffsets.length\r\n      : _msOffsets.length;\r\n\r\n    // add headers\r\n    metadata_[0][0] = _mtBuffer.slice(0, 32);\r\n    metadata_[1][0] = _msBuffer.slice(0, 32);\r\n\r\n    for (uint i = 1; i < maxOffsetLength; i++) {\r\n      // metadata/tree\r\n      if (i <= _mtOffsets.length - 1) {\r\n        metadata_[0][_mtOffsets[i]] = _mtBuffer.slice(_mtOffsets[i], mtBufferSize_);\r\n      }\r\n\r\n      // metadata/signatures\r\n      if (i <= _msOffsets.length - 1) {\r\n        metadata_[1][_msOffsets[i]] = _msBuffer.slice(_msOffsets[i], msBufferSize_);\r\n      }\r\n    }\r\n\r\n    emit Commit(did_);\r\n  }\r\n\r\n  function read(uint8 _file, uint256 _offset) public view returns (bytes memory buffer) {\r\n    if (!listed_) {\r\n      return ''; // empty bytes\r\n    }\r\n    return metadata_[_file][_offset];\r\n  }\r\n\r\n  function hasBuffer(uint8 _file, uint256 _offset, bytes memory _buffer) public view returns (bool exists) {\r\n    return metadata_[_file][_offset].equal(_buffer);\r\n  }\r\n\r\n  function unlist() public onlyBy(owner_) returns (bool success) {\r\n    listed_ = false;\r\n    emit Unlisted(did_);\r\n    return true;\r\n  }\r\n}\r\n",
  "sourcePath": "D:/Development/Ara/ara-contracts/contracts/ignored_contracts/AFS.sol",
  "compiler": {
    "name": "solc",
    "version": "0.5.16+commit.9c3226ce.Emscripten.clang"
  },
  "schemaVersion": "3.3.4",
  "updatedAt": "2021-04-16T15:57:06.902Z",
  "devdoc": {
    "methods": {
      "purchase(bytes32,bytes32,uint256)": {
        "details": "Purchases this AFS and adds it to _purchaser's library.      If _download is true, deposits any remaining allowance      as rewards for this purchase",
        "params": {
          "_budget": "The reward budget for jobId, or 0 if N/A",
          "_jobId": "The jobId of the download, or 0x00000000000000000000000000000000 if N/A",
          "_purchaser": "The hashed methodless did of the purchaser"
        }
      }
    }
  },
  "userdoc": {
    "methods": {}
  }
}