{
  "contractName": "AFS",
  "abi": [
    {
      "constant": true,
      "inputs": [],
      "name": "listed_",
      "outputs": [
        {
          "name": "",
          "type": "bool"
        }
      ],
      "payable": false,
      "stateMutability": "view",
      "type": "function"
    },
    {
      "constant": true,
      "inputs": [],
      "name": "jobs_",
      "outputs": [
        {
          "name": "",
          "type": "address"
        }
      ],
      "payable": false,
      "stateMutability": "view",
      "type": "function"
    },
    {
      "constant": true,
      "inputs": [],
      "name": "lib_",
      "outputs": [
        {
          "name": "",
          "type": "address"
        }
      ],
      "payable": false,
      "stateMutability": "view",
      "type": "function"
    },
    {
      "constant": true,
      "inputs": [],
      "name": "did_",
      "outputs": [
        {
          "name": "",
          "type": "bytes32"
        }
      ],
      "payable": false,
      "stateMutability": "view",
      "type": "function"
    },
    {
      "constant": true,
      "inputs": [],
      "name": "price_",
      "outputs": [
        {
          "name": "",
          "type": "uint256"
        }
      ],
      "payable": false,
      "stateMutability": "view",
      "type": "function"
    },
    {
      "constant": true,
      "inputs": [
        {
          "name": "",
          "type": "uint8"
        }
      ],
      "name": "metadata_",
      "outputs": [
        {
          "name": "invalid",
          "type": "bool"
        }
      ],
      "payable": false,
      "stateMutability": "view",
      "type": "function"
    },
    {
      "constant": true,
      "inputs": [],
      "name": "token_",
      "outputs": [
        {
          "name": "",
          "type": "address"
        }
      ],
      "payable": false,
      "stateMutability": "view",
      "type": "function"
    },
    {
      "constant": true,
      "inputs": [],
      "name": "version_",
      "outputs": [
        {
          "name": "",
          "type": "string"
        }
      ],
      "payable": false,
      "stateMutability": "view",
      "type": "function"
    },
    {
      "constant": true,
      "inputs": [],
      "name": "owner_",
      "outputs": [
        {
          "name": "",
          "type": "address"
        }
      ],
      "payable": false,
      "stateMutability": "view",
      "type": "function"
    },
    {
      "constant": true,
      "inputs": [
        {
          "name": "",
          "type": "bytes32"
        }
      ],
      "name": "purchasers_",
      "outputs": [
        {
          "name": "",
          "type": "bool"
        }
      ],
      "payable": false,
      "stateMutability": "view",
      "type": "function"
    },
    {
      "anonymous": false,
      "inputs": [
        {
          "indexed": false,
          "name": "_did",
          "type": "bytes32"
        }
      ],
      "name": "Commit",
      "type": "event"
    },
    {
      "anonymous": false,
      "inputs": [
        {
          "indexed": false,
          "name": "_did",
          "type": "bytes32"
        }
      ],
      "name": "Unlisted",
      "type": "event"
    },
    {
      "anonymous": false,
      "inputs": [
        {
          "indexed": false,
          "name": "_did",
          "type": "bytes32"
        },
        {
          "indexed": false,
          "name": "_price",
          "type": "uint256"
        }
      ],
      "name": "PriceSet",
      "type": "event"
    },
    {
      "anonymous": false,
      "inputs": [
        {
          "indexed": false,
          "name": "_purchaser",
          "type": "bytes32"
        },
        {
          "indexed": false,
          "name": "_did",
          "type": "bytes32"
        },
        {
          "indexed": false,
          "name": "_hashedAddress",
          "type": "bytes32"
        }
      ],
      "name": "Purchased",
      "type": "event"
    },
    {
      "constant": false,
      "inputs": [
        {
          "name": "_data",
          "type": "bytes"
        }
      ],
      "name": "init",
      "outputs": [],
      "payable": false,
      "stateMutability": "nonpayable",
      "type": "function"
    },
    {
      "constant": false,
      "inputs": [
        {
          "name": "_price",
          "type": "uint256"
        }
      ],
      "name": "setPrice",
      "outputs": [],
      "payable": false,
      "stateMutability": "nonpayable",
      "type": "function"
    },
    {
      "constant": true,
      "inputs": [
        {
          "name": "_purchaser",
          "type": "bytes32"
        }
      ],
      "name": "isPurchaser",
      "outputs": [
        {
          "name": "",
          "type": "bool"
        }
      ],
      "payable": false,
      "stateMutability": "view",
      "type": "function"
    },
    {
      "constant": false,
      "inputs": [
        {
          "name": "_purchaser",
          "type": "bytes32"
        },
        {
          "name": "_jobId",
          "type": "bytes32"
        },
        {
          "name": "_budget",
          "type": "uint256"
        }
      ],
      "name": "purchase",
      "outputs": [],
      "payable": false,
      "stateMutability": "nonpayable",
      "type": "function"
    },
    {
      "constant": false,
      "inputs": [
        {
          "name": "_mtOffsets",
          "type": "uint256[]"
        },
        {
          "name": "_msOffsets",
          "type": "uint256[]"
        },
        {
          "name": "_mtBuffer",
          "type": "bytes"
        },
        {
          "name": "_msBuffer",
          "type": "bytes"
        }
      ],
      "name": "append",
      "outputs": [],
      "payable": false,
      "stateMutability": "nonpayable",
      "type": "function"
    },
    {
      "constant": false,
      "inputs": [
        {
          "name": "_mtOffsets",
          "type": "uint256[]"
        },
        {
          "name": "_msOffsets",
          "type": "uint256[]"
        },
        {
          "name": "_mtBuffer",
          "type": "bytes"
        },
        {
          "name": "_msBuffer",
          "type": "bytes"
        }
      ],
      "name": "write",
      "outputs": [],
      "payable": false,
      "stateMutability": "nonpayable",
      "type": "function"
    },
    {
      "constant": true,
      "inputs": [
        {
          "name": "_file",
          "type": "uint8"
        },
        {
          "name": "_offset",
          "type": "uint256"
        }
      ],
      "name": "read",
      "outputs": [
        {
          "name": "buffer",
          "type": "bytes"
        }
      ],
      "payable": false,
      "stateMutability": "view",
      "type": "function"
    },
    {
      "constant": true,
      "inputs": [
        {
          "name": "_file",
          "type": "uint8"
        },
        {
          "name": "_offset",
          "type": "uint256"
        },
        {
          "name": "_buffer",
          "type": "bytes"
        }
      ],
      "name": "hasBuffer",
      "outputs": [
        {
          "name": "exists",
          "type": "bool"
        }
      ],
      "payable": false,
      "stateMutability": "view",
      "type": "function"
    },
    {
      "constant": false,
      "inputs": [],
      "name": "unlist",
      "outputs": [
        {
          "name": "success",
          "type": "bool"
        }
      ],
      "payable": false,
      "stateMutability": "nonpayable",
      "type": "function"
    }
  ],
  "bytecode": "0x608060405234801561001057600080fd5b50611fe2806100206000396000f300608060405260043610610107576000357c0100000000000000000000000000000000000000000000000000000000900463ffffffff1680632a6363be1461010c5780634684c9c01461013b57806346f60dee1461019257806347269720146101e95780634ddf47d41461021c57806366570f1714610285578063876ec5721461030857806391b7f5ed14610351578063a0d585011461037e578063bb66f9f6146103ad578063bc302cd014610460578063ce40b03f14610595578063ce605ea9146105c0578063d56805e114610608578063dd1bb1fc1461065f578063e7663079146106ef578063f0e5bd8614610746578063f4e493d6146107de578063f5bd3e3f14610827575b600080fd5b34801561011857600080fd5b50610121610870565b604051808215151515815260200191505060405180910390f35b34801561014757600080fd5b50610150610883565b604051808273ffffffffffffffffffffffffffffffffffffffff1673ffffffffffffffffffffffffffffffffffffffff16815260200191505060405180910390f35b34801561019e57600080fd5b506101a76108a9565b604051808273ffffffffffffffffffffffffffffffffffffffff1673ffffffffffffffffffffffffffffffffffffffff16815260200191505060405180910390f35b3480156101f557600080fd5b506101fe6108cf565b60405180826000191660001916815260200191505060405180910390f35b34801561022857600080fd5b50610283600480360381019080803590602001908201803590602001908080601f01602080910402602001604051908101604052809392919081815260200183838082843782019150505050505091929192905050506108d5565b005b34801561029157600080fd5b50610306600480360381019080803590602001908201803590602001919091929391929390803590602001908201803590602001919091929391929390803590602001908201803590602001919091929391929390803590602001908201803590602001919091929391929390505050610a4a565b005b34801561031457600080fd5b506103376004803603810190808035600019169060200190929190505050610d9a565b604051808215151515815260200191505060405180910390f35b34801561035d57600080fd5b5061037c60048036038101908080359060200190929190505050610dcc565b005b34801561038a57600080fd5b50610393610ee7565b604051808215151515815260200191505060405180910390f35b3480156103b957600080fd5b506103e5600480360381019080803560ff16906020019092919080359060200190929190505050611077565b6040518080602001828103825283818151815260200191508051906020019080838360005b8381101561042557808201518184015260208101905061040a565b50505050905090810190601f1680156104525780820380516001836020036101000a031916815260200191505b509250505060405180910390f35b34801561046c57600080fd5b506105936004803603810190808035906020019082018035906020019080806020026020016040519081016040528093929190818152602001838360200280828437820191505050505050919291929080359060200190820180359060200190808060200260200160405190810160405280939291908181526020018383602002808284378201915050505050509192919290803590602001908201803590602001908080601f0160208091040260200160405190810160405280939291908181526020018383808284378201915050505050509192919290803590602001908201803590602001908080601f016020809104026020016040519081016040528093929190818152602001838380828437820191505050505050919291929050505061118f565b005b3480156105a157600080fd5b506105aa61153f565b6040518082815260200191505060405180910390f35b3480156105cc57600080fd5b506105ee600480360381019080803560ff169060200190929190505050611545565b604051808215151515815260200191505060405180910390f35b34801561061457600080fd5b5061061d611570565b604051808273ffffffffffffffffffffffffffffffffffffffff1673ffffffffffffffffffffffffffffffffffffffff16815260200191505060405180910390f35b34801561066b57600080fd5b50610674611596565b6040518080602001828103825283818151815260200191508051906020019080838360005b838110156106b4578082015181840152602081019050610699565b50505050905090810190601f1680156106e15780820380516001836020036101000a031916815260200191505b509250505060405180910390f35b3480156106fb57600080fd5b50610704611634565b604051808273ffffffffffffffffffffffffffffffffffffffff1673ffffffffffffffffffffffffffffffffffffffff16815260200191505060405180910390f35b34801561075257600080fd5b506107c4600480360381019080803560ff16906020019092919080359060200190929190803590602001908201803590602001908080601f0160208091040260200160405190810160405280939291908181526020018383808284378201915050505050509192919290505050611659565b604051808215151515815260200191505060405180910390f35b3480156107ea57600080fd5b50610825600480360381019080803560001916906020019092919080356000191690602001909291908035906020019092919050505061173c565b005b34801561083357600080fd5b506108566004803603810190808035600019169060200190929190505050611df5565b604051808215151515815260200191505060405180910390f35b600660009054906101000a900460ff1681565b600460009054906101000a900473ffffffffffffffffffffffffffffffffffffffff1681565b600360009054906101000a900473ffffffffffffffffffffffffffffffffffffffff1681565b60055481565b6000806000806000806020870195508551945060408701955085519350606087019550855192506080870195508551915060a08701955085519050846000806101000a81548173ffffffffffffffffffffffffffffffffffffffff021916908373ffffffffffffffffffffffffffffffffffffffff16021790555083600260006101000a81548173ffffffffffffffffffffffffffffffffffffffff021916908373ffffffffffffffffffffffffffffffffffffffff16021790555082600360006101000a81548173ffffffffffffffffffffffffffffffffffffffff021916908373ffffffffffffffffffffffffffffffffffffffff16021790555081600460006101000a81548173ffffffffffffffffffffffffffffffffffffffff021916908373ffffffffffffffffffffffffffffffffffffffff16021790555080600581600019169055506001600660006101000a81548160ff021916908315150217905550600060078190555050505050505050565b6000806000809054906101000a900473ffffffffffffffffffffffffffffffffffffffff168073ffffffffffffffffffffffffffffffffffffffff163373ffffffffffffffffffffffffffffffffffffffff16141515610b12576040517f08c379a00000000000000000000000000000000000000000000000000000000081526004018080602001828103825260168152602001807f53656e646572206e6f7420617574686f72697a65642e0000000000000000000081525060200191505060405180910390fd5b600960008060ff16815260200190815260200160002060010160009054906101000a900460ff16151515610bae576040517f08c379a00000000000000000000000000000000000000000000000000000000081526004018080602001828103825260108152602001807f41465320697320756e6c69737465642e0000000000000000000000000000000081525060200191505060405180910390fd5b888890508b8b905011610bc45788889050610bc9565b8a8a90505b9250600091505b82821015610d4c5760018b8b90500382111515610c8b57610c38602860ff168302602860ff1689898080601f016020809104026020016040519081016040528093929190818152602001838380828437820191505050505050611e159092919063ffffffff16565b600960008060ff16815260200190815260200160002060000160008d8d868181101515610c6157fe5b9050602002013581526020019081526020016000209080519060200190610c89929190611f11565b505b6001898990500382111515610d3f57610ceb604060ff168302604060ff1687878080601f016020809104026020016040519081016040528093929190818152602001838380828437820191505050505050611e159092919063ffffffff16565b60096000600160ff16815260200190815260200160002060000160008b8b868181101515610d1557fe5b9050602002013581526020019081526020016000209080519060200190610d3d929190611f11565b505b8180600101925050610bd0565b7f9e8a51bb6b34b9d5d18c14fd753ee3bf44e2256512665a4577281ffcc91943ff60055460405180826000191660001916815260200191505060405180910390a15050505050505050505050565b600060086000836000191660001916815260200190815260200160002060009054906101000a900460ff169050919050565b6000809054906101000a900473ffffffffffffffffffffffffffffffffffffffff168073ffffffffffffffffffffffffffffffffffffffff163373ffffffffffffffffffffffffffffffffffffffff16141515610e91576040517f08c379a00000000000000000000000000000000000000000000000000000000081526004018080602001828103825260168152602001807f53656e646572206e6f7420617574686f72697a65642e0000000000000000000081525060200191505060405180910390fd5b816007819055507fee47534b2400bc7be3fbdc39f0283b8643fc472a30ffd7324e6161b4b2b91f246005546007546040518083600019166000191681526020018281526020019250505060405180910390a15050565b60008060009054906101000a900473ffffffffffffffffffffffffffffffffffffffff168073ffffffffffffffffffffffffffffffffffffffff163373ffffffffffffffffffffffffffffffffffffffff16141515610fae576040517f08c379a00000000000000000000000000000000000000000000000000000000081526004018080602001828103825260168152602001807f53656e646572206e6f7420617574686f72697a65642e0000000000000000000081525060200191505060405180910390fd5b6001600960008060ff16815260200190815260200160002060010160006101000a81548160ff021916908315150217905550600160096000600160ff16815260200190815260200160002060010160006101000a81548160ff0219169083151502179055506000600660006101000a81548160ff0219169083151502179055507f2e6ec049d62c8a42e7cc223354aadb68d5046a2cba67ed55a089fdb852fb6cb660055460405180826000191660001916815260200191505060405180910390a1600191505090565b6060600960008460ff1660ff16815260200190815260200160002060010160009054906101000a900460ff16156110c05760206040519081016040528060008152509050611189565b600960008460ff1660ff16815260200190815260200160002060000160008381526020019081526020016000208054600181600116156101000203166002900480601f0160208091040260200160405190810160405280929190818152602001828054600181600116156101000203166002900480156111815780601f1061115657610100808354040283529160200191611181565b820191906000526020600020905b81548152906001019060200180831161116457829003601f168201915b505050505090505b92915050565b6000806000809054906101000a900473ffffffffffffffffffffffffffffffffffffffff168073ffffffffffffffffffffffffffffffffffffffff163373ffffffffffffffffffffffffffffffffffffffff16141515611257576040517f08c379a00000000000000000000000000000000000000000000000000000000081526004018080602001828103825260168152602001807f53656e646572206e6f7420617574686f72697a65642e0000000000000000000081525060200191505060405180910390fd5b600960008060ff16815260200190815260200160002060010160009054906101000a900460ff161515156112f3576040517f08c379a00000000000000000000000000000000000000000000000000000000081526004018080602001828103825260108152602001807f41465320697320756e6c69737465642e0000000000000000000000000000000081525060200191505060405180910390fd5b8551875111611303578551611306565b86515b925061131f6000602087611e159092919063ffffffff16565b600960008060ff1681526020019081526020016000206000016000808152602001908152602001600020908051906020019061135c929190611f11565b506113746000602086611e159092919063ffffffff16565b60096000600160ff16815260200190815260200160002060000160006001815260200190815260200160002090805190602001906113b3929190611f11565b50600191505b828210156114f557600187510382111515611454576113fe87838151811015156113df57fe5b90602001906020020151602860ff1687611e159092919063ffffffff16565b600960008060ff1681526020019081526020016000206000016000898581518110151561142757fe5b9060200190602002015181526020019081526020016000209080519060200190611452929190611f11565b505b6001865103821115156114e857611491868381518110151561147257fe5b90602001906020020151604060ff1686611e159092919063ffffffff16565b60096000600160ff168152602001908152602001600020600001600088858151811015156114bb57fe5b90602001906020020151815260200190815260200160002090805190602001906114e6929190611f11565b505b81806001019250506113b9565b7f9e8a51bb6b34b9d5d18c14fd753ee3bf44e2256512665a4577281ffcc91943ff60055460405180826000191660001916815260200191505060405180910390a150505050505050565b60075481565b60096020528060005260406000206000915090508060010160009054906101000a900460ff16905081565b600260009054906101000a900473ffffffffffffffffffffffffffffffffffffffff1681565b60018054600181600116156101000203166002900480601f01602080910402602001604051908101604052809291908181526020018280546001816001161561010002031660029004801561162c5780601f106116015761010080835404028352916020019161162c565b820191906000526020600020905b81548152906001019060200180831161160f57829003601f168201915b505050505081565b6000809054906101000a900473ffffffffffffffffffffffffffffffffffffffff1681565b600061173382600960008760ff1660ff16815260200190815260200160002060000160008681526020019081526020016000208054600181600116156101000203166002900480601f0160208091040260200160405190810160405280929190818152602001828054600181600116156101000203166002900480156117205780601f106116f557610100808354040283529160200191611720565b820191906000526020600020905b81548152906001019060200180831161170357829003601f168201915b5050505050611ea290919063ffffffff16565b90509392505050565b600080600260009054906101000a900473ffffffffffffffffffffffffffffffffffffffff1673ffffffffffffffffffffffffffffffffffffffff1663dd62ed3e33306040518363ffffffff167c0100000000000000000000000000000000000000000000000000000000028152600401808373ffffffffffffffffffffffffffffffffffffffff1673ffffffffffffffffffffffffffffffffffffffff1681526020018273ffffffffffffffffffffffffffffffffffffffff1673ffffffffffffffffffffffffffffffffffffffff16815260200192505050602060405180830381600087803b15801561183057600080fd5b505af1158015611844573d6000803e3d6000fd5b505050506040513d602081101561185a57600080fd5b8101908080519060200190929190505050915033604051602001808273ffffffffffffffffffffffffffffffffffffffff1673ffffffffffffffffffffffffffffffffffffffff166c010000000000000000000000000281526014019150506040516020818303038152906040526040518082805190602001908083835b6020831015156118fd57805182526020820191506020810190506020830392506118d8565b6001836020036101000a0380198251168184511680821785525050505050509050019150506040518091039020905060086000826000191660001916815260200190815260200160002060009054906101000a900460ff16158015611966575082600754018210155b15156119da576040517f08c379a00000000000000000000000000000000000000000000000000000000081526004018080602001828103825260138152602001807f556e61626c6520746f2070757263686173652e0000000000000000000000000081525060200191505060405180910390fd5b600260009054906101000a900473ffffffffffffffffffffffffffffffffffffffff1673ffffffffffffffffffffffffffffffffffffffff166323b872dd336000809054906101000a900473ffffffffffffffffffffffffffffffffffffffff166007546040518463ffffffff167c0100000000000000000000000000000000000000000000000000000000028152600401808473ffffffffffffffffffffffffffffffffffffffff1673ffffffffffffffffffffffffffffffffffffffff1681526020018373ffffffffffffffffffffffffffffffffffffffff1673ffffffffffffffffffffffffffffffffffffffff1681526020018281526020019350505050602060405180830381600087803b158015611af657600080fd5b505af1158015611b0a573d6000803e3d6000fd5b505050506040513d6020811015611b2057600080fd5b810190808051906020019092919050505015611dee57600160086000836000191660001916815260200190815260200160002060006101000a81548160ff021916908315150217905550600360009054906101000a900473ffffffffffffffffffffffffffffffffffffffff1673ffffffffffffffffffffffffffffffffffffffff16630c2bb965866005546040518363ffffffff167c0100000000000000000000000000000000000000000000000000000000028152600401808360001916600019168152602001826000191660001916815260200192505050600060405180830381600087803b158015611c1557600080fd5b505af1158015611c29573d6000803e3d6000fd5b505050507f1b5cbcbc9fbc0d1bf5bbbf8670261de96cbda5250820f58380784067b7d271f7856005548360405180846000191660001916815260200183600019166000191681526020018260001916600019168152602001935050505060405180910390a1600060010260001916846000191614151515611d12576040517f08c379a00000000000000000000000000000000000000000000000000000000081526004018080602001828103825260138152602001807f4d7573742070726f76696465206a6f6249642e0000000000000000000000000081525060200191505060405180910390fd5b600460009054906101000a900473ffffffffffffffffffffffffffffffffffffffff1673ffffffffffffffffffffffffffffffffffffffff1663de6565ca8585600554856040518563ffffffff167c010000000000000000000000000000000000000000000000000000000002815260040180856000191660001916815260200184815260200183600019166000191681526020018260001916600019168152602001945050505050600060405180830381600087803b158015611dd557600080fd5b505af1158015611de9573d6000803e3d6000fd5b505050505b5050505050565b60086020528060005260406000206000915054906101000a900460ff1681565b606080828401855110151515611e2a57600080fd5b821560008114611e4557604051915060208201604052611e96565b6040519150601f8416801560200281840101858101878315602002848b0101015b81831015611e835780518352602083019250602081019050611e66565b50868552601f19601f8301166040525050505b50809150509392505050565b6000806001905083518351811460018114611ec05760009250611f05565b600160208701838101602088015b600284838510011415611f005780518351141515611eef5760009650600093505b602083019250602081019050611ece565b505050505b50508091505092915050565b828054600181600116156101000203166002900490600052602060002090601f016020900481019282601f10611f5257805160ff1916838001178555611f80565b82800160010185558215611f80579182015b82811115611f7f578251825591602001919060010190611f64565b5b509050611f8d9190611f91565b5090565b611fb391905b80821115611faf576000816000905550600101611f97565b5090565b905600a165627a7a72305820a1c2f017aae39b1f7218de9c6cdcc860489d9636c713112572ffffe25890ef030029",
  "source": "pragma solidity 0.4.24;\n\nimport \"./Library.sol\";\nimport \"./Jobs.sol\";\nimport \"./AraToken.sol\";\nimport \"bytes/BytesLib.sol\";\n\ncontract AFS {\n\n  using BytesLib for bytes;\n\n  address  public owner_;\n  string   public version_;\n\n  AraToken public token_;\n  Library  public lib_;\n  Jobs     public jobs_;\n\n  bytes32  public did_;\n  bool     public listed_;\n  uint256  public price_;\n\n  mapping(bytes32 => bool)    public purchasers_; // keccak256 hashes of buyer addresses\n  mapping(uint8 => Buffers)   public metadata_;\n\n  struct Buffers {\n    mapping (uint256 => bytes) buffers;\n    bool invalid;\n  }\n\n  event Commit(bytes32 _did);\n  event Unlisted(bytes32 _did);\n  event PriceSet(bytes32 _did, uint256 _price);\n  event Purchased(bytes32 _purchaser, bytes32 _did, bytes32 _hashedAddress);\n\n  uint8 constant mtBufferSize_ = 40;\n  uint8 constant msBufferSize_ = 64;\n\n  modifier onlyBy(address _account)\n  {\n    require(\n      msg.sender == _account,\n      \"Sender not authorized.\"\n    );\n    _;\n  }\n\n  modifier purchaseRequired()\n  {\n    require(\n      purchasers_[keccak256(abi.encodePacked(msg.sender))],\n      \"Content was never purchased.\"\n    );\n    _;\n  }\n\n  function init(bytes _data) public {\n    uint256 btsptr;\n    address ownerAddr;\n    address tokenAddr;\n    address libAddr;\n    address jobsAddr;\n    bytes32 did;\n    /* solium-disable-next-line security/no-inline-assembly */\n    assembly {\n        btsptr := add(_data, 32)\n        ownerAddr := mload(btsptr)\n        btsptr := add(_data, 64)\n        tokenAddr := mload(btsptr)\n        btsptr := add(_data, 96)\n        libAddr := mload(btsptr)\n        btsptr := add(_data, 128)\n        jobsAddr := mload(btsptr)\n        btsptr := add(_data, 160)\n        did := mload(btsptr)\n    }\n    owner_    = ownerAddr;\n    token_    = AraToken(tokenAddr);\n    lib_      = Library(libAddr);\n    jobs_     = Jobs(jobsAddr);\n    did_      = did;\n    listed_   = true;\n    price_    = 0;\n  }\n\n  function setPrice(uint256 _price) external onlyBy(owner_) {\n    price_ = _price;\n    emit PriceSet(did_, price_);\n  }\n\n  function isPurchaser(bytes32 _purchaser) external view returns(bool) {\n    return purchasers_[_purchaser];\n  }\n\n  /**\n   * @dev Purchases this AFS and adds it to _purchaser's library. \n   *      If _download is true, deposits any remaining allowance \n   *      as rewards for this purchase\n   * @param _purchaser The hashed methodless did of the purchaser\n   * @param _jobId The jobId of the download, or 0x00000000000000000000000000000000 if N/A\n   * @param _budget The reward budget for jobId, or 0 if N/A\n   */\n  function purchase(bytes32 _purchaser, bytes32 _jobId, uint256 _budget) external {\n    uint256 allowance = token_.allowance(msg.sender, address(this));\n    bytes32 hashedAddress = keccak256(abi.encodePacked(msg.sender));\n    require (!purchasers_[hashedAddress] && allowance >= price_ + _budget, \"Unable to purchase.\");\n\n    if (token_.transferFrom(msg.sender, owner_, price_)) {\n      purchasers_[hashedAddress] = true;\n      lib_.addLibraryItem(_purchaser, did_);\n      emit Purchased(_purchaser, did_, hashedAddress);\n\n      require(_jobId != bytes32(0), \"Must provide jobId.\");\n      jobs_.unlockJob(_jobId, _budget, did_, hashedAddress);\n    }\n  }\n\n  function append(uint256[] _mtOffsets, uint256[] _msOffsets, bytes _mtBuffer, \n    bytes _msBuffer) external onlyBy(owner_) {\n    \n    require(!metadata_[0].invalid, \"AFS is unlisted.\");\n    \n    uint256 maxOffsetLength = _mtOffsets.length > _msOffsets.length \n      ? _mtOffsets.length \n      : _msOffsets.length;\n\n    for (uint i = 0; i < maxOffsetLength; i++) {\n      // metadata/tree\n      if (i <= _mtOffsets.length - 1) {\n        metadata_[0].buffers[_mtOffsets[i]] = _mtBuffer.slice(i * mtBufferSize_, mtBufferSize_);\n      }\n\n      // metadata/signatures\n      if (i <= _msOffsets.length - 1) {\n        metadata_[1].buffers[_msOffsets[i]] = _msBuffer.slice(i * msBufferSize_, msBufferSize_);\n      }\n    }\n\n    emit Commit(did_);\n  }\n\n  function write(uint256[] _mtOffsets, uint256[] _msOffsets, bytes _mtBuffer, \n    bytes _msBuffer) public onlyBy(owner_) {\n\n    require(!metadata_[0].invalid, \"AFS is unlisted.\");\n\n    uint256 maxOffsetLength = _mtOffsets.length > _msOffsets.length \n      ? _mtOffsets.length \n      : _msOffsets.length;\n\n    // add headers\n    metadata_[0].buffers[0] = _mtBuffer.slice(0, 32);\n    metadata_[1].buffers[1] = _msBuffer.slice(0, 32);\n\n    for (uint i = 1; i < maxOffsetLength; i++) {\n      // metadata/tree\n      if (i <= _mtOffsets.length - 1) {\n        metadata_[0].buffers[_mtOffsets[i]] = _mtBuffer.slice(_mtOffsets[i], mtBufferSize_);\n      }\n      \n      // metadata/signatures\n      if (i <= _msOffsets.length - 1) {\n        metadata_[1].buffers[_msOffsets[i]] = _msBuffer.slice(_msOffsets[i], msBufferSize_);\n      }\n    }\n\n    emit Commit(did_);\n  }\n\n  function read(uint8 _file, uint256 _offset) public view returns (bytes buffer) {\n    if (metadata_[_file].invalid) {\n      return \"\"; // empty bytes\n    }\n    return metadata_[_file].buffers[_offset];\n  }\n\n  function hasBuffer(uint8 _file, uint256 _offset, bytes _buffer) public view returns (bool exists) {\n    return metadata_[_file].buffers[_offset].equal(_buffer);\n  }\n\n  function unlist() public onlyBy(owner_) returns (bool success) {\n    metadata_[0].invalid = true;\n    metadata_[1].invalid = true;\n    listed_ = false;\n    emit Unlisted(did_);\n    return true;\n  }\n}\n",
  "sourcePath": "/Users/charles/Desktop/Development/Ara/ara-contracts/contracts/AFS.sol",
  "compiler": {
    "name": "solc",
    "version": "0.4.24+commit.e67f0147.Emscripten.clang"
  },
  "schemaVersion": "2.0.1",
  "updatedAt": "2018-09-10T22:06:39.320Z"
}