{
  "contractName": "AFS",
  "abi": [
    {
      "constant": true,
      "inputs": [],
      "name": "minResalePrice_",
      "outputs": [
        {
          "name": "",
          "type": "uint256"
        }
      ],
      "payable": false,
      "stateMutability": "view",
      "type": "function"
    },
    {
      "constant": true,
      "inputs": [
        {
          "name": "",
          "type": "uint256"
        }
      ],
      "name": "priceTiers_",
      "outputs": [
        {
          "name": "",
          "type": "uint256"
        }
      ],
      "payable": false,
      "stateMutability": "view",
      "type": "function"
    },
    {
      "constant": true,
      "inputs": [
        {
          "name": "",
          "type": "bytes32"
        }
      ],
      "name": "jobs_",
      "outputs": [
        {
          "name": "sender",
          "type": "address"
        },
        {
          "name": "budget",
          "type": "uint256"
        }
      ],
      "payable": false,
      "stateMutability": "view",
      "type": "function"
    },
    {
      "constant": true,
      "inputs": [
        {
          "name": "",
          "type": "bytes32"
        }
      ],
      "name": "purchases_",
      "outputs": [
        {
          "name": "quantity",
          "type": "uint256"
        }
      ],
      "payable": false,
      "stateMutability": "view",
      "type": "function"
    },
    {
      "constant": true,
      "inputs": [],
      "name": "royaltyMultiplier",
      "outputs": [
        {
          "name": "",
          "type": "uint256"
        }
      ],
      "payable": false,
      "stateMutability": "view",
      "type": "function"
    },
    {
      "constant": true,
      "inputs": [],
      "name": "listed_",
      "outputs": [
        {
          "name": "",
          "type": "bool"
        }
      ],
      "payable": false,
      "stateMutability": "view",
      "type": "function"
    },
    {
      "constant": true,
      "inputs": [],
      "name": "resellable_",
      "outputs": [
        {
          "name": "",
          "type": "bool"
        }
      ],
      "payable": false,
      "stateMutability": "view",
      "type": "function"
    },
    {
      "constant": true,
      "inputs": [
        {
          "name": "",
          "type": "uint8"
        },
        {
          "name": "",
          "type": "uint256"
        }
      ],
      "name": "metadata_",
      "outputs": [
        {
          "name": "",
          "type": "bytes"
        }
      ],
      "payable": false,
      "stateMutability": "view",
      "type": "function"
    },
    {
      "constant": true,
      "inputs": [],
      "name": "lib_",
      "outputs": [
        {
          "name": "",
          "type": "address"
        }
      ],
      "payable": false,
      "stateMutability": "view",
      "type": "function"
    },
    {
      "constant": true,
      "inputs": [],
      "name": "did_",
      "outputs": [
        {
          "name": "",
          "type": "bytes32"
        }
      ],
      "payable": false,
      "stateMutability": "view",
      "type": "function"
    },
    {
      "constant": false,
      "inputs": [
        {
          "name": "_newOwner",
          "type": "address"
        }
      ],
      "name": "approveOwnershipTransfer",
      "outputs": [],
      "payable": false,
      "stateMutability": "nonpayable",
      "type": "function"
    },
    {
      "constant": true,
      "inputs": [],
      "name": "currGlobalConfigID_",
      "outputs": [
        {
          "name": "",
          "type": "uint256"
        }
      ],
      "payable": false,
      "stateMutability": "view",
      "type": "function"
    },
    {
      "constant": true,
      "inputs": [
        {
          "name": "",
          "type": "bytes32"
        }
      ],
      "name": "rewards_",
      "outputs": [
        {
          "name": "",
          "type": "uint256"
        }
      ],
      "payable": false,
      "stateMutability": "view",
      "type": "function"
    },
    {
      "constant": true,
      "inputs": [],
      "name": "maxNumResales_",
      "outputs": [
        {
          "name": "",
          "type": "uint256"
        }
      ],
      "payable": false,
      "stateMutability": "view",
      "type": "function"
    },
    {
      "constant": false,
      "inputs": [],
      "name": "requestOwnership",
      "outputs": [],
      "payable": false,
      "stateMutability": "nonpayable",
      "type": "function"
    },
    {
      "constant": true,
      "inputs": [],
      "name": "royalties_",
      "outputs": [
        {
          "name": "ownerProfit",
          "type": "uint256"
        }
      ],
      "payable": false,
      "stateMutability": "view",
      "type": "function"
    },
    {
      "constant": true,
      "inputs": [
        {
          "name": "",
          "type": "bytes32"
        }
      ],
      "name": "requesters_",
      "outputs": [
        {
          "name": "",
          "type": "bool"
        }
      ],
      "payable": false,
      "stateMutability": "view",
      "type": "function"
    },
    {
      "constant": true,
      "inputs": [
        {
          "name": "",
          "type": "uint256"
        }
      ],
      "name": "globalConfigs_",
      "outputs": [
        {
          "name": "locked",
          "type": "bool"
        },
        {
          "name": "minResalePrice",
          "type": "uint256"
        },
        {
          "name": "maxNumResales",
          "type": "uint256"
        }
      ],
      "payable": false,
      "stateMutability": "view",
      "type": "function"
    },
    {
      "constant": true,
      "inputs": [],
      "name": "unlimited_",
      "outputs": [
        {
          "name": "",
          "type": "bool"
        }
      ],
      "payable": false,
      "stateMutability": "view",
      "type": "function"
    },
    {
      "constant": true,
      "inputs": [],
      "name": "token_",
      "outputs": [
        {
          "name": "",
          "type": "address"
        }
      ],
      "payable": false,
      "stateMutability": "view",
      "type": "function"
    },
    {
      "constant": true,
      "inputs": [],
      "name": "totalCopies_",
      "outputs": [
        {
          "name": "",
          "type": "uint256"
        }
      ],
      "payable": false,
      "stateMutability": "view",
      "type": "function"
    },
    {
      "constant": true,
      "inputs": [],
      "name": "owner_",
      "outputs": [
        {
          "name": "",
          "type": "address"
        }
      ],
      "payable": false,
      "stateMutability": "view",
      "type": "function"
    },
    {
      "constant": true,
      "inputs": [
        {
          "name": "",
          "type": "uint256"
        }
      ],
      "name": "prices_",
      "outputs": [
        {
          "name": "",
          "type": "uint256"
        }
      ],
      "payable": false,
      "stateMutability": "view",
      "type": "function"
    },
    {
      "constant": false,
      "inputs": [],
      "name": "revokeOwnershipRequest",
      "outputs": [],
      "payable": false,
      "stateMutability": "nonpayable",
      "type": "function"
    },
    {
      "anonymous": false,
      "inputs": [
        {
          "indexed": false,
          "name": "_did",
          "type": "bytes32"
        }
      ],
      "name": "Commit",
      "type": "event"
    },
    {
      "anonymous": false,
      "inputs": [
        {
          "indexed": false,
          "name": "_did",
          "type": "bytes32"
        }
      ],
      "name": "Unlisted",
      "type": "event"
    },
    {
      "anonymous": false,
      "inputs": [
        {
          "indexed": false,
          "name": "_did",
          "type": "bytes32"
        }
      ],
      "name": "Listed",
      "type": "event"
    },
    {
      "anonymous": false,
      "inputs": [
        {
          "indexed": false,
          "name": "_did",
          "type": "bytes32"
        },
        {
          "indexed": false,
          "name": "_price",
          "type": "uint256"
        }
      ],
      "name": "MinResalePriceSet",
      "type": "event"
    },
    {
      "anonymous": false,
      "inputs": [
        {
          "indexed": false,
          "name": "_did",
          "type": "bytes32"
        },
        {
          "indexed": false,
          "name": "_purchaser",
          "type": "address"
        },
        {
          "indexed": false,
          "name": "_price",
          "type": "uint256"
        }
      ],
      "name": "ResalePriceSet",
      "type": "event"
    },
    {
      "anonymous": false,
      "inputs": [
        {
          "indexed": false,
          "name": "_did",
          "type": "bytes32"
        },
        {
          "indexed": false,
          "name": "_quantity",
          "type": "uint256"
        }
      ],
      "name": "MaxNumResalesSet",
      "type": "event"
    },
    {
      "anonymous": false,
      "inputs": [
        {
          "indexed": false,
          "name": "_did",
          "type": "bytes32"
        },
        {
          "indexed": false,
          "name": "_quantity",
          "type": "uint256"
        },
        {
          "indexed": false,
          "name": "_price",
          "type": "uint256"
        }
      ],
      "name": "PriceSet",
      "type": "event"
    },
    {
      "anonymous": false,
      "inputs": [
        {
          "indexed": false,
          "name": "_did",
          "type": "bytes32"
        },
        {
          "indexed": false,
          "name": "_jobId",
          "type": "bytes32"
        },
        {
          "indexed": false,
          "name": "_budget",
          "type": "uint256"
        }
      ],
      "name": "BudgetSubmitted",
      "type": "event"
    },
    {
      "anonymous": false,
      "inputs": [
        {
          "indexed": false,
          "name": "_did",
          "type": "bytes32"
        },
        {
          "indexed": false,
          "name": "_allocated",
          "type": "uint256"
        },
        {
          "indexed": false,
          "name": "_returned",
          "type": "uint256"
        }
      ],
      "name": "RewardsAllocated",
      "type": "event"
    },
    {
      "anonymous": false,
      "inputs": [
        {
          "indexed": false,
          "name": "_purchaser",
          "type": "bytes32"
        },
        {
          "indexed": false,
          "name": "_did",
          "type": "bytes32"
        },
        {
          "indexed": false,
          "name": "_quantity",
          "type": "uint256"
        },
        {
          "indexed": false,
          "name": "_price",
          "type": "uint256"
        },
        {
          "indexed": false,
          "name": "_configID",
          "type": "uint256"
        }
      ],
      "name": "Purchased",
      "type": "event"
    },
    {
      "anonymous": false,
      "inputs": [
        {
          "indexed": false,
          "name": "_purchaser",
          "type": "bytes32"
        },
        {
          "indexed": false,
          "name": "_seller",
          "type": "address"
        },
        {
          "indexed": false,
          "name": "_did",
          "type": "bytes32"
        },
        {
          "indexed": false,
          "name": "_quantity",
          "type": "uint256"
        },
        {
          "indexed": false,
          "name": "_price",
          "type": "uint256"
        },
        {
          "indexed": false,
          "name": "_configID",
          "type": "uint256"
        }
      ],
      "name": "PurchasedResale",
      "type": "event"
    },
    {
      "anonymous": false,
      "inputs": [
        {
          "indexed": false,
          "name": "_sender",
          "type": "address"
        }
      ],
      "name": "Redeemed",
      "type": "event"
    },
    {
      "anonymous": false,
      "inputs": [
        {
          "indexed": false,
          "name": "_did",
          "type": "bytes32"
        },
        {
          "indexed": false,
          "name": "_added",
          "type": "uint256"
        },
        {
          "indexed": false,
          "name": "_total",
          "type": "uint256"
        }
      ],
      "name": "IncreasedSupply",
      "type": "event"
    },
    {
      "anonymous": false,
      "inputs": [
        {
          "indexed": false,
          "name": "_did",
          "type": "bytes32"
        },
        {
          "indexed": false,
          "name": "_removed",
          "type": "uint256"
        },
        {
          "indexed": false,
          "name": "_total",
          "type": "uint256"
        }
      ],
      "name": "DecreasedSupply",
      "type": "event"
    },
    {
      "anonymous": false,
      "inputs": [
        {
          "indexed": false,
          "name": "_did",
          "type": "bytes32"
        },
        {
          "indexed": false,
          "name": "_quantity",
          "type": "uint256"
        }
      ],
      "name": "SupplySet",
      "type": "event"
    },
    {
      "anonymous": false,
      "inputs": [
        {
          "indexed": false,
          "name": "_did",
          "type": "bytes32"
        },
        {
          "indexed": false,
          "name": "_seller",
          "type": "address"
        },
        {
          "indexed": false,
          "name": "_available",
          "type": "uint256"
        }
      ],
      "name": "ResaleUnlocked",
      "type": "event"
    },
    {
      "anonymous": false,
      "inputs": [
        {
          "indexed": false,
          "name": "_did",
          "type": "bytes32"
        },
        {
          "indexed": false,
          "name": "_seller",
          "type": "address"
        },
        {
          "indexed": false,
          "name": "_available",
          "type": "uint256"
        }
      ],
      "name": "ResaleLocked",
      "type": "event"
    },
    {
      "anonymous": false,
      "inputs": [
        {
          "indexed": false,
          "name": "_did",
          "type": "bytes32"
        }
      ],
      "name": "MarkedForResale",
      "type": "event"
    },
    {
      "anonymous": false,
      "inputs": [
        {
          "indexed": false,
          "name": "_did",
          "type": "bytes32"
        }
      ],
      "name": "MarkedNotForResale",
      "type": "event"
    },
    {
      "anonymous": false,
      "inputs": [
        {
          "indexed": false,
          "name": "_did",
          "type": "bytes32"
        }
      ],
      "name": "ResaleUnlocked",
      "type": "event"
    },
    {
      "anonymous": false,
      "inputs": [
        {
          "indexed": false,
          "name": "_did",
          "type": "bytes32"
        }
      ],
      "name": "ResaleLocked",
      "type": "event"
    },
    {
      "anonymous": false,
      "inputs": [
        {
          "indexed": false,
          "name": "_price",
          "type": "uint256"
        },
        {
          "indexed": false,
          "name": "_ownerProfit",
          "type": "uint256"
        },
        {
          "indexed": false,
          "name": "_multiplier",
          "type": "uint256"
        }
      ],
      "name": "RoyaltiesPaidOut",
      "type": "event"
    },
    {
      "anonymous": false,
      "inputs": [
        {
          "indexed": true,
          "name": "_previousOwner",
          "type": "address"
        },
        {
          "indexed": true,
          "name": "_newOwner",
          "type": "address"
        }
      ],
      "name": "TransferApproved",
      "type": "event"
    },
    {
      "anonymous": false,
      "inputs": [
        {
          "indexed": true,
          "name": "_currentOwner",
          "type": "address"
        },
        {
          "indexed": true,
          "name": "_requestedOwner",
          "type": "address"
        }
      ],
      "name": "TransferRequested",
      "type": "event"
    },
    {
      "anonymous": false,
      "inputs": [
        {
          "indexed": true,
          "name": "_currentOwner",
          "type": "address"
        },
        {
          "indexed": true,
          "name": "_requestOwner",
          "type": "address"
        }
      ],
      "name": "RequestRevoked",
      "type": "event"
    },
    {
      "constant": false,
      "inputs": [
        {
          "name": "_data",
          "type": "bytes"
        }
      ],
      "name": "init",
      "outputs": [],
      "payable": false,
      "stateMutability": "nonpayable",
      "type": "function"
    },
    {
      "constant": false,
      "inputs": [],
      "name": "list",
      "outputs": [],
      "payable": false,
      "stateMutability": "nonpayable",
      "type": "function"
    },
    {
      "constant": false,
      "inputs": [],
      "name": "unlist",
      "outputs": [],
      "payable": false,
      "stateMutability": "nonpayable",
      "type": "function"
    },
    {
      "constant": false,
      "inputs": [
        {
          "name": "_globalConfigID",
          "type": "uint256"
        }
      ],
      "name": "unlockResale",
      "outputs": [],
      "payable": false,
      "stateMutability": "nonpayable",
      "type": "function"
    },
    {
      "constant": false,
      "inputs": [],
      "name": "lockResale",
      "outputs": [],
      "payable": false,
      "stateMutability": "nonpayable",
      "type": "function"
    },
    {
      "constant": false,
      "inputs": [
        {
          "name": "_quantity",
          "type": "uint256"
        },
        {
          "name": "_price",
          "type": "uint256"
        }
      ],
      "name": "setPrice",
      "outputs": [],
      "payable": false,
      "stateMutability": "nonpayable",
      "type": "function"
    },
    {
      "constant": true,
      "inputs": [
        {
          "name": "_quantity",
          "type": "uint256"
        }
      ],
      "name": "getPrice",
      "outputs": [
        {
          "name": "",
          "type": "uint256"
        }
      ],
      "payable": false,
      "stateMutability": "view",
      "type": "function"
    },
    {
      "constant": false,
      "inputs": [
        {
          "name": "_quantity",
          "type": "uint256"
        }
      ],
      "name": "removePriceTier",
      "outputs": [],
      "payable": false,
      "stateMutability": "nonpayable",
      "type": "function"
    },
    {
      "constant": false,
      "inputs": [
        {
          "name": "_configID",
          "type": "uint256"
        },
        {
          "name": "_price",
          "type": "uint256"
        }
      ],
      "name": "setMinResalePrice",
      "outputs": [],
      "payable": false,
      "stateMutability": "nonpayable",
      "type": "function"
    },
    {
      "constant": false,
      "inputs": [
        {
          "name": "_configID",
          "type": "uint256"
        },
        {
          "name": "_quantity",
          "type": "uint256"
        }
      ],
      "name": "setResaleQuantity",
      "outputs": [],
      "payable": false,
      "stateMutability": "nonpayable",
      "type": "function"
    },
    {
      "constant": false,
      "inputs": [
        {
          "name": "_quantity",
          "type": "uint256"
        }
      ],
      "name": "setSupply",
      "outputs": [],
      "payable": false,
      "stateMutability": "nonpayable",
      "type": "function"
    },
    {
      "constant": false,
      "inputs": [
        {
          "name": "_quantity",
          "type": "uint256"
        }
      ],
      "name": "increaseSupply",
      "outputs": [],
      "payable": false,
      "stateMutability": "nonpayable",
      "type": "function"
    },
    {
      "constant": false,
      "inputs": [
        {
          "name": "_quantity",
          "type": "uint256"
        }
      ],
      "name": "decreaseSupply",
      "outputs": [],
      "payable": false,
      "stateMutability": "nonpayable",
      "type": "function"
    },
    {
      "constant": false,
      "inputs": [],
      "name": "setUnlimitedSupply",
      "outputs": [],
      "payable": false,
      "stateMutability": "nonpayable",
      "type": "function"
    },
    {
      "constant": false,
      "inputs": [
        {
          "name": "_hashedAddresses",
          "type": "bytes32[]"
        },
        {
          "name": "_amounts",
          "type": "uint256[]"
        }
      ],
      "name": "setRoyalties",
      "outputs": [],
      "payable": false,
      "stateMutability": "nonpayable",
      "type": "function"
    },
    {
      "constant": true,
      "inputs": [
        {
          "name": "hashedAddress",
          "type": "bytes32"
        }
      ],
      "name": "getRoyalty",
      "outputs": [
        {
          "name": "",
          "type": "uint256"
        }
      ],
      "payable": false,
      "stateMutability": "view",
      "type": "function"
    },
    {
      "constant": true,
      "inputs": [],
      "name": "getOwnerProfit",
      "outputs": [
        {
          "name": "",
          "type": "uint256"
        }
      ],
      "payable": false,
      "stateMutability": "view",
      "type": "function"
    },
    {
      "constant": false,
      "inputs": [
        {
          "name": "_configID",
          "type": "uint256"
        },
        {
          "name": "_quantity",
          "type": "uint256"
        }
      ],
      "name": "unlockResaleQuantity",
      "outputs": [],
      "payable": false,
      "stateMutability": "nonpayable",
      "type": "function"
    },
    {
      "constant": false,
      "inputs": [
        {
          "name": "_configID",
          "type": "uint256"
        },
        {
          "name": "_quantity",
          "type": "uint256"
        }
      ],
      "name": "lockResaleQuantity",
      "outputs": [],
      "payable": false,
      "stateMutability": "nonpayable",
      "type": "function"
    },
    {
      "constant": false,
      "inputs": [
        {
          "name": "_configID",
          "type": "uint256"
        },
        {
          "name": "_price",
          "type": "uint256"
        }
      ],
      "name": "setResalePrice",
      "outputs": [],
      "payable": false,
      "stateMutability": "nonpayable",
      "type": "function"
    },
    {
      "constant": true,
      "inputs": [
        {
          "name": "_owner",
          "type": "bytes32"
        },
        {
          "name": "_id",
          "type": "uint256"
        }
      ],
      "name": "getResaleConfig",
      "outputs": [
        {
          "name": "minResalePrice",
          "type": "uint256"
        },
        {
          "name": "maxNumResales",
          "type": "uint256"
        },
        {
          "name": "resalePrice",
          "type": "uint256"
        },
        {
          "name": "available",
          "type": "uint256"
        },
        {
          "name": "quantity",
          "type": "uint256"
        }
      ],
      "payable": false,
      "stateMutability": "view",
      "type": "function"
    },
    {
      "constant": false,
      "inputs": [
        {
          "name": "_purchaser",
          "type": "bytes32"
        },
        {
          "name": "_quantity",
          "type": "uint256"
        },
        {
          "name": "_jobId",
          "type": "bytes32"
        },
        {
          "name": "_budget",
          "type": "uint256"
        }
      ],
      "name": "purchase",
      "outputs": [],
      "payable": false,
      "stateMutability": "nonpayable",
      "type": "function"
    },
    {
      "constant": false,
      "inputs": [
        {
          "name": "_seller",
          "type": "address"
        },
        {
          "name": "_configID",
          "type": "uint256"
        },
        {
          "name": "_purchaser",
          "type": "bytes32"
        },
        {
          "name": "_quantity",
          "type": "uint256"
        },
        {
          "name": "_jobId",
          "type": "bytes32"
        },
        {
          "name": "_budget",
          "type": "uint256"
        }
      ],
      "name": "purchaseResale",
      "outputs": [],
      "payable": false,
      "stateMutability": "nonpayable",
      "type": "function"
    },
    {
      "constant": false,
      "inputs": [
        {
          "name": "_jobId",
          "type": "bytes32"
        },
        {
          "name": "_budget",
          "type": "uint256"
        }
      ],
      "name": "submitBudget",
      "outputs": [],
      "payable": false,
      "stateMutability": "nonpayable",
      "type": "function"
    },
    {
      "constant": true,
      "inputs": [
        {
          "name": "_jobId",
          "type": "bytes32"
        }
      ],
      "name": "getBudget",
      "outputs": [
        {
          "name": "",
          "type": "uint256"
        }
      ],
      "payable": false,
      "stateMutability": "view",
      "type": "function"
    },
    {
      "constant": false,
      "inputs": [
        {
          "name": "_jobId",
          "type": "bytes32"
        },
        {
          "name": "_farmers",
          "type": "bytes32[]"
        },
        {
          "name": "_rewards",
          "type": "uint256[]"
        }
      ],
      "name": "allocateRewards",
      "outputs": [],
      "payable": false,
      "stateMutability": "nonpayable",
      "type": "function"
    },
    {
      "constant": false,
      "inputs": [],
      "name": "redeemBalance",
      "outputs": [],
      "payable": false,
      "stateMutability": "nonpayable",
      "type": "function"
    },
    {
      "constant": true,
      "inputs": [
        {
          "name": "_farmer",
          "type": "address"
        }
      ],
      "name": "getRewardsBalance",
      "outputs": [
        {
          "name": "",
          "type": "uint256"
        }
      ],
      "payable": false,
      "stateMutability": "view",
      "type": "function"
    },
    {
      "constant": false,
      "inputs": [
        {
          "name": "_mtOffsets",
          "type": "uint256[]"
        },
        {
          "name": "_msOffsets",
          "type": "uint256[]"
        },
        {
          "name": "_mtBuffer",
          "type": "bytes"
        },
        {
          "name": "_msBuffer",
          "type": "bytes"
        },
        {
          "name": "_list",
          "type": "bool"
        }
      ],
      "name": "append",
      "outputs": [],
      "payable": false,
      "stateMutability": "nonpayable",
      "type": "function"
    },
    {
      "constant": false,
      "inputs": [
        {
          "name": "_mtOffsets",
          "type": "uint256[]"
        },
        {
          "name": "_msOffsets",
          "type": "uint256[]"
        },
        {
          "name": "_mtBuffer",
          "type": "bytes"
        },
        {
          "name": "_msBuffer",
          "type": "bytes"
        },
        {
          "name": "_list",
          "type": "bool"
        }
      ],
      "name": "write",
      "outputs": [],
      "payable": false,
      "stateMutability": "nonpayable",
      "type": "function"
    },
    {
      "constant": true,
      "inputs": [
        {
          "name": "_file",
          "type": "uint8"
        },
        {
          "name": "_offset",
          "type": "uint256"
        }
      ],
      "name": "read",
      "outputs": [
        {
          "name": "buffer",
          "type": "bytes"
        }
      ],
      "payable": false,
      "stateMutability": "view",
      "type": "function"
    },
    {
      "constant": true,
      "inputs": [
        {
          "name": "_file",
          "type": "uint8"
        },
        {
          "name": "_offset",
          "type": "uint256"
        },
        {
          "name": "_buffer",
          "type": "bytes"
        }
      ],
      "name": "hasBuffer",
      "outputs": [
        {
          "name": "exists",
          "type": "bool"
        }
      ],
      "payable": false,
      "stateMutability": "view",
      "type": "function"
    }
  ],
  "bytecode": "0x60806040526000600c60006101000a81548160ff0219169083151502179055503480156200002c57600080fd5b506187cd806200003d6000396000f30060806040526004361061029e576000357c0100000000000000000000000000000000000000000000000000000000900463ffffffff16806306b75c5a146102a35780630a243d70146102ce5780630b38926a1461034b5780630f560cd71461038c5780631748fde9146103a35780631e0a1b95146103ba5780631f84eb461461043257806323276c53146104775780632710ab60146104a25780632a6363be146104cf578063313c2c5f146104fe57806331ddd9ab1461052d57806334219bbe146105e05780633b4c4b251461064b5780633e5ceede1461067857806341c504741461068f57806346f60dee146106ba57806347269720146107115780634ddf47d4146107445780634e1d009f146107ad57806354336c0a146107f0578063546887a31461081d57806354d94284146108625780635712c2fa1461088d5780635ee6fa611461093657806367102e7d1461097b5780637bfa87b6146109c057806389a6c338146109eb5780638a67f4bf14610a225780638e5aafe114610a79578063922c720514610a9057806393acee6414610abb57806397409a9b14610bfc57806398e52f9a14610c3357806399d20bb114610c60578063a0d5850114610ca9578063b4745b2e14610cc0578063b658e85114610d13578063b921e16314610d66578063bb66f9f614610d93578063bc3cf83b14610e46578063ca86433614610e75578063cc3a08f814610eac578063d56805e114610f63578063dbcbba9614610fba578063dd846f0814610ff1578063e0a88a3b1461101c578063e757223014611033578063e766307914611074578063f0c13b9e146110cb578063f0e5bd861461110c578063f1c737de146111a4578063f51b697914611233578063f7d975771461126e578063f7e2aaab146112a5578063fc1c34e4146112dc575b600080fd5b3480156102af57600080fd5b506102b86112f3565b6040518082815260200191505060405180910390f35b3480156102da57600080fd5b50610349600480360381019080803573ffffffffffffffffffffffffffffffffffffffff169060200190929190803590602001909291908035600019169060200190929190803590602001909291908035600019169060200190929190803590602001909291905050506112f9565b005b34801561035757600080fd5b5061037660048036038101908080359060200190929190505050611ecd565b6040518082815260200191505060405180910390f35b34801561039857600080fd5b506103a1611ef0565b005b3480156103af57600080fd5b506103b8612014565b005b3480156103c657600080fd5b506103e9600480360381019080803560001916906020019092919050505061214a565b604051808373ffffffffffffffffffffffffffffffffffffffff1673ffffffffffffffffffffffffffffffffffffffff1681526020018281526020019250505060405180910390f35b34801561043e57600080fd5b50610461600480360381019080803560001916906020019092919050505061218e565b6040518082815260200191505060405180910390f35b34801561048357600080fd5b5061048c6121ac565b6040518082815260200191505060405180910390f35b3480156104ae57600080fd5b506104cd600480360381019080803590602001909291905050506121b2565b005b3480156104db57600080fd5b506104e46123e7565b604051808215151515815260200191505060405180910390f35b34801561050a57600080fd5b506105136123fa565b604051808215151515815260200191505060405180910390f35b34801561053957600080fd5b50610565600480360381019080803560ff1690602001909291908035906020019092919050505061240d565b6040518080602001828103825283818151815260200191508051906020019080838360005b838110156105a557808201518184015260208101905061058a565b50505050905090810190601f1680156105d25780820380516001836020036101000a031916815260200191505b509250505060405180910390f35b3480156105ec57600080fd5b506106196004803603810190808035600019169060200190929190803590602001909291905050506124ca565b604051808681526020018581526020018481526020018381526020018281526020019550505050505060405180910390f35b34801561065757600080fd5b5061067660048036038101908080359060200190929190505050612556565b005b34801561068457600080fd5b5061068d612711565b005b34801561069b57600080fd5b506106a4612a0d565b6040518082815260200191505060405180910390f35b3480156106c657600080fd5b506106cf612a35565b604051808273ffffffffffffffffffffffffffffffffffffffff1673ffffffffffffffffffffffffffffffffffffffff16815260200191505060405180910390f35b34801561071d57600080fd5b50610726612a5b565b60405180826000191660001916815260200191505060405180910390f35b34801561075057600080fd5b506107ab600480360381019080803590602001908201803590602001908080601f0160208091040260200160405190810160405280939291908181526020018383808284378201915050505050509192919290505050612a61565b005b3480156107b957600080fd5b506107ee600480360381019080803573ffffffffffffffffffffffffffffffffffffffff169060200190929190505050612c66565b005b3480156107fc57600080fd5b5061081b60048036038101908080359060200190929190505050612f55565b005b34801561082957600080fd5b5061084c60048036038101908080356000191690602001909291905050506130fa565b6040518082815260200191505060405180910390f35b34801561086e57600080fd5b50610877613122565b6040518082815260200191505060405180910390f35b34801561089957600080fd5b506109346004803603810190808035906020019082018035906020019080806020026020016040519081016040528093929190818152602001838360200280828437820191505050505050919291929080359060200190820180359060200190808060200260200160405190810160405280939291908181526020018383602002808284378201915050505050509192919290505050613128565b005b34801561094257600080fd5b5061096560048036038101908080356000191690602001909291905050506134a8565b6040518082815260200191505060405180910390f35b34801561098757600080fd5b506109aa60048036038101908080356000191690602001909291905050506134c0565b6040518082815260200191505060405180910390f35b3480156109cc57600080fd5b506109d5613502565b6040518082815260200191505060405180910390f35b3480156109f757600080fd5b50610a206004803603810190808035906020019092919080359060200190929190505050613508565b005b348015610a2e57600080fd5b50610a63600480360381019080803573ffffffffffffffffffffffffffffffffffffffff1690602001909291905050506136f5565b6040518082815260200191505060405180910390f35b348015610a8557600080fd5b50610a8e6137d6565b005b348015610a9c57600080fd5b50610aa5613ac8565b6040518082815260200191505060405180910390f35b348015610ac757600080fd5b50610bfa6004803603810190808035906020019082018035906020019080806020026020016040519081016040528093929190818152602001838360200280828437820191505050505050919291929080359060200190820180359060200190808060200260200160405190810160405280939291908181526020018383602002808284378201915050505050509192919290803590602001908201803590602001908080601f0160208091040260200160405190810160405280939291908181526020018383808284378201915050505050509192919290803590602001908201803590602001908080601f0160208091040260200160405190810160405280939291908181526020018383808284378201915050505050509192919290803515159060200190929190505050613ad4565b005b348015610c0857600080fd5b50610c316004803603810190808035906020019092919080359060200190929190505050613e0d565b005b348015610c3f57600080fd5b50610c5e60048036038101908080359060200190929190505050614423565b005b348015610c6c57600080fd5b50610c8f600480360381019080803560001916906020019092919050505061477d565b604051808215151515815260200191505060405180910390f35b348015610cb557600080fd5b50610cbe61479d565b005b348015610ccc57600080fd5b50610ceb600480360381019080803590602001909291905050506148c1565b6040518084151515158152602001838152602001828152602001935050505060405180910390f35b348015610d1f57600080fd5b50610d646004803603810190808035600019169060200190929190803590602001909291908035600019169060200190929190803590602001909291905050506148f8565b005b348015610d7257600080fd5b50610d91600480360381019080803590602001909291905050506158bb565b005b348015610d9f57600080fd5b50610dcb600480360381019080803560ff16906020019092919080359060200190929190505050615ad2565b6040518080602001828103825283818151815260200191508051906020019080838360005b83811015610e0b578082015181840152602081019050610df0565b50505050905090810190601f168015610e385780820380516001836020036101000a031916815260200191505b509250505060405180910390f35b348015610e5257600080fd5b50610e5b615bce565b604051808215151515815260200191505060405180910390f35b348015610e8157600080fd5b50610eaa6004803603810190808035906020019092919080359060200190929190505050615be1565b005b348015610eb857600080fd5b50610f61600480360381019080803560001916906020019092919080359060200190820180359060200190808060200260200160405190810160405280939291908181526020018383602002808284378201915050505050509192919290803590602001908201803590602001908080602002602001604051908101604052809392919081815260200183836020028082843782019150505050505091929192905050506161c3565b005b348015610f6f57600080fd5b50610f786166d1565b604051808273ffffffffffffffffffffffffffffffffffffffff1673ffffffffffffffffffffffffffffffffffffffff16815260200191505060405180910390f35b348015610fc657600080fd5b50610fef60048036038101908080359060200190929190803590602001909291905050506166f7565b005b348015610ffd57600080fd5b506110066168e4565b6040518082815260200191505060405180910390f35b34801561102857600080fd5b506110316168ea565b005b34801561103f57600080fd5b5061105e60048036038101908080359060200190929190505050616a0e565b6040518082815260200191505060405180910390f35b34801561108057600080fd5b50611089616aed565b604051808273ffffffffffffffffffffffffffffffffffffffff1673ffffffffffffffffffffffffffffffffffffffff16815260200191505060405180910390f35b3480156110d757600080fd5b506110f660048036038101908080359060200190929190505050616b12565b6040518082815260200191505060405180910390f35b34801561111857600080fd5b5061118a600480360381019080803560ff16906020019092919080359060200190929190803590602001908201803590602001908080601f0160208091040260200160405190810160405280939291908181526020018383808284378201915050505050509192919290505050616b2a565b604051808215151515815260200191505060405180910390f35b3480156111b057600080fd5b50611231600480360381019080803590602001908201803590602001919091929391929390803590602001908201803590602001919091929391929390803590602001908201803590602001919091929391929390803590602001908201803590602001919091929391929390803515159060200190929190505050616c0a565b005b34801561123f57600080fd5b5061126c600480360381019080803560001916906020019092919080359060200190929190505050616eea565b005b34801561127a57600080fd5b506112a3600480360381019080803590602001909291908035906020019092919050505061771b565b005b3480156112b157600080fd5b506112da60048036038101908080359060200190929190803590602001909291905050506178aa565b005b3480156112e857600080fd5b506112f1617dc5565b005b600d5481565b60008060008060008088111515611378576040517f08c379a000000000000000000000000000000000000000000000000000000000815260040180806020018281038252601e8152602001807f4d757374207075726368617365206174206c65617374203120636f70792e000081525060200191505060405180910390fd5b8a604051602001808273ffffffffffffffffffffffffffffffffffffffff1673ffffffffffffffffffffffffffffffffffffffff166c010000000000000000000000000281526014019150506040516020818303038152906040526040518082805190602001908083835b60208310151561140857805182526020820191506020810190506020830392506113e3565b6001836020036101000a0380198251168184511680821785525050505050509050019150506040518091039020945060116000866000191660001916815260200190815260200160002060020160008b815260200190815260200160002093508360000160009054906101000a900460ff161515611514576040517f08c379a00000000000000000000000000000000000000000000000000000000081526004018080602001828103825260338152602001807f506c656173652070726f7669646520612076616c69642073656c6c657220726581526020017f73616c6520636f6e66696775726174696f6e2e0000000000000000000000000081525060400191505060405180910390fd5b878460020154101515156115dc576040517f08c379a000000000000000000000000000000000000000000000000000000000815260040180806020018281038252605b8152602001807f54686973207175616e74697479206973206e6f7420617661696c61626c65206681526020017f6f7220726573616c652066726f6d20746869732073656c6c6572207573696e6781526020017f207468697320726573616c6520636f6e66696775726174696f6e2e000000000081525060600191505060405180910390fd5b836001015488029250858301600360009054906101000a900473ffffffffffffffffffffffffffffffffffffffff1673ffffffffffffffffffffffffffffffffffffffff1663dd62ed3e33306040518363ffffffff167c0100000000000000000000000000000000000000000000000000000000028152600401808373ffffffffffffffffffffffffffffffffffffffff1673ffffffffffffffffffffffffffffffffffffffff1681526020018273ffffffffffffffffffffffffffffffffffffffff1673ffffffffffffffffffffffffffffffffffffffff16815260200192505050602060405180830381600087803b1580156116d957600080fd5b505af11580156116ed573d6000803e3d6000fd5b505050506040513d602081101561170357600080fd5b8101908080519060200190929190505050101515156117b0576040517f08c379a00000000000000000000000000000000000000000000000000000000081526004018080602001828103825260248152602001807f50726f7879206d75737420626520617070726f76656420666f7220707572636881526020017f6173652e0000000000000000000000000000000000000000000000000000000081525060400191505060405180910390fd5b600360009054906101000a900473ffffffffffffffffffffffffffffffffffffffff1673ffffffffffffffffffffffffffffffffffffffff166323b872dd338d600a60008f8152602001908152602001600020600101548860010154038c026040518463ffffffff167c0100000000000000000000000000000000000000000000000000000000028152600401808473ffffffffffffffffffffffffffffffffffffffff1673ffffffffffffffffffffffffffffffffffffffff1681526020018373ffffffffffffffffffffffffffffffffffffffff1673ffffffffffffffffffffffffffffffffffffffff1681526020018281526020019350505050602060405180830381600087803b1580156118c757600080fd5b505af11580156118db573d6000803e3d6000fd5b505050506040513d60208110156118f157600080fd5b81019080805190602001909291905050508015611a775750600360009054906101000a900473ffffffffffffffffffffffffffffffffffffffff1673ffffffffffffffffffffffffffffffffffffffff166323b872dd336002809054906101000a900473ffffffffffffffffffffffffffffffffffffffff16600a60008f8152602001908152602001600020600101548c026040518463ffffffff167c0100000000000000000000000000000000000000000000000000000000028152600401808473ffffffffffffffffffffffffffffffffffffffff1673ffffffffffffffffffffffffffffffffffffffff1681526020018373ffffffffffffffffffffffffffffffffffffffff1673ffffffffffffffffffffffffffffffffffffffff1681526020018281526020019350505050602060405180830381600087803b158015611a3b57600080fd5b505af1158015611a4f573d6000803e3d6000fd5b505050506040513d6020811015611a6557600080fd5b81019080805190602001909291905050505b1515611aeb576040517f08c379a00000000000000000000000000000000000000000000000000000000081526004018080602001828103825260148152602001807f417261207472616e73666572206661696c65642e00000000000000000000000081525060200191505060405180910390fd5b87846003016000828254039250508190555087846002016000828254039250508190555033604051602001808273ffffffffffffffffffffffffffffffffffffffff1673ffffffffffffffffffffffffffffffffffffffff166c010000000000000000000000000281526014019150506040516020818303038152906040526040518082805190602001908083835b602083101515611b9f5780518252602082019150602081019050602083039250611b7a565b6001836020036101000a0380198251168184511680821785525050505050509050019150506040518091039020915060116000836000191660001916815260200190815260200160002090508060020160008b815260200190815260200160002060000160009054906101000a900460ff161515611c2257611c21828b618093565b5b611c2e828b8a876181ce565b600460009054906101000a900473ffffffffffffffffffffffffffffffffffffffff1673ffffffffffffffffffffffffffffffffffffffff1663a513cc9c8a6005546040518363ffffffff167c0100000000000000000000000000000000000000000000000000000000028152600401808360001916600019168152602001826000191660001916815260200192505050602060405180830381600087803b158015611cd957600080fd5b505af1158015611ced573d6000803e3d6000fd5b505050506040513d6020811015611d0357600080fd5b81019080805190602001909291905050501515611dde57600460009054906101000a900473ffffffffffffffffffffffffffffffffffffffff1673ffffffffffffffffffffffffffffffffffffffff16630c2bb9658a6005546040518363ffffffff167c0100000000000000000000000000000000000000000000000000000000028152600401808360001916600019168152602001826000191660001916815260200192505050600060405180830381600087803b158015611dc557600080fd5b505af1158015611dd9573d6000803e3d6000fd5b505050505b7f9637412979454975d2b283ecdc377d7594b003f5df849a80d25f9f3cfef81c40898c6005548b878f6040518087600019166000191681526020018673ffffffffffffffffffffffffffffffffffffffff1673ffffffffffffffffffffffffffffffffffffffff1681526020018560001916600019168152602001848152602001838152602001828152602001965050505050505060405180910390a1600084600301541415611e9457611e93858b87618300565b5b600060010260001916876000191614158015611eb05750600086115b15611ec057611ebf8787616eea565b5b5050505050505050505050565b600881815481101515611edc57fe5b906000526020600020016000915090505481565b6002809054906101000a900473ffffffffffffffffffffffffffffffffffffffff168073ffffffffffffffffffffffffffffffffffffffff163373ffffffffffffffffffffffffffffffffffffffff16141515611fb5576040517f08c379a00000000000000000000000000000000000000000000000000000000081526004018080602001828103825260168152602001807f53656e646572206e6f7420617574686f72697a65642e0000000000000000000081525060200191505060405180910390fd5b6001600660006101000a81548160ff0219169083151502179055507fbb62c580222a498aedf5b724b94b0d90065a6bd3be8349b223dc032dbdef555560055460405180826000191660001916815260200191505060405180910390a150565b6002809054906101000a900473ffffffffffffffffffffffffffffffffffffffff168073ffffffffffffffffffffffffffffffffffffffff163373ffffffffffffffffffffffffffffffffffffffff161415156120d9576040517f08c379a00000000000000000000000000000000000000000000000000000000081526004018080602001828103825260168152602001807f53656e646572206e6f7420617574686f72697a65642e0000000000000000000081525060200191505060405180910390fd5b6000600b819055506001600c60006101000a81548160ff0219169083151502179055507f0dffee683881a39928b28151ccdb36b1b55ceeb6fc19567a64fa8f8f483b714d600554600b546040518083600019166000191681526020018281526020019250505060405180910390a150565b600f6020528060005260406000206000915090508060000160009054906101000a900473ffffffffffffffffffffffffffffffffffffffff16908060010154905082565b60116020528060005260406000206000915090508060030154905081565b61271081565b6002809054906101000a900473ffffffffffffffffffffffffffffffffffffffff168073ffffffffffffffffffffffffffffffffffffffff163373ffffffffffffffffffffffffffffffffffffffff16141515612277576040517f08c379a00000000000000000000000000000000000000000000000000000000081526004018080602001828103825260168152602001807f53656e646572206e6f7420617574686f72697a65642e0000000000000000000081525060200191505060405180910390fd5b6000600a600084815260200190815260200160002060020154111515612351576040517f08c379a00000000000000000000000000000000000000000000000000000000081526004018080602001828103825260498152602001807f43616e6e6f7420756e6c6f636b20666f7220726573616c65206265636175736581526020017f20726573616c6520636f6e66696775726174696f6e20686173206e6f7420626581526020017f656e2073657475702e000000000000000000000000000000000000000000000081525060600191505060405180910390fd5b6001600260016101000a81548160ff021916908315150217905550816009819055506001600a600084815260200190815260200160002060000160006101000a81548160ff0219169083151502179055507f2db6bfc3c84cfef31473a216848e0a4632093c15ed309ff6b376e6516b58777f60055460405180826000191660001916815260200191505060405180910390a15050565b600660009054906101000a900460ff1681565b600260019054906101000a900460ff1681565b6012602052816000526040600020602052806000526040600020600091509150508054600181600116156101000203166002900480601f0160208091040260200160405190810160405280929190818152602001828054600181600116156101000203166002900480156124c25780601f10612497576101008083540402835291602001916124c2565b820191906000526020600020905b8154815290600101906020018083116124a557829003601f168201915b505050505081565b60008060008060008060116000896000191660001916815260200190815260200160002060020160008881526020019081526020016000209050600a600088815260200190815260200160002060010154600a60008981526020019081526020016000206002015482600101548360020154846003015495509550955095509550509295509295909350565b6002809054906101000a900473ffffffffffffffffffffffffffffffffffffffff168073ffffffffffffffffffffffffffffffffffffffff163373ffffffffffffffffffffffffffffffffffffffff1614151561261b576040517f08c379a00000000000000000000000000000000000000000000000000000000081526004018080602001828103825260168152602001807f53656e646572206e6f7420617574686f72697a65642e0000000000000000000081525060200191505060405180910390fd5b600082111515612693576040517f08c379a00000000000000000000000000000000000000000000000000000000081526004018080602001828103825260208152602001807f5175616e74697479206d7573742062652067726561746572207468616e20302e81525060200191505060405180910390fd5b81600b81905550600b5460001415156126c2576000600c60006101000a81548160ff0219169083151502179055505b7f0dffee683881a39928b28151ccdb36b1b55ceeb6fc19567a64fa8f8f483b714d600554600b546040518083600019166000191681526020018281526020019250505060405180910390a15050565b600033604051602001808273ffffffffffffffffffffffffffffffffffffffff1673ffffffffffffffffffffffffffffffffffffffff166c010000000000000000000000000281526014019150506040516020818303038152906040526040518082805190602001908083835b6020831015156127a3578051825260208201915060208101905060208303925061277e565b6001836020036101000a03801982511681845116808217855250505050505090500191505060405180910390209050600060106000836000191660001916815260200190815260200160002054111515612865576040517f08c379a00000000000000000000000000000000000000000000000000000000081526004018080602001828103825260158152602001807f4e6f2062616c616e636520746f2072656465656d2e000000000000000000000081525060200191505060405180910390fd5b600360009054906101000a900473ffffffffffffffffffffffffffffffffffffffff1673ffffffffffffffffffffffffffffffffffffffff1663a9059cbb33601060008560001916600019168152602001908152602001600020546040518363ffffffff167c0100000000000000000000000000000000000000000000000000000000028152600401808373ffffffffffffffffffffffffffffffffffffffff1673ffffffffffffffffffffffffffffffffffffffff16815260200182815260200192505050602060405180830381600087803b15801561294557600080fd5b505af1158015612959573d6000803e3d6000fd5b505050506040513d602081101561296f57600080fd5b810190808051906020019092919050505015612a0a576000601060008360001916600019168152602001908152602001600020819055507fcb7d87f76b4d6501ac27ed560664bf84ce273a2ddd7b9b1da63c753e68ccae2033604051808273ffffffffffffffffffffffffffffffffffffffff1673ffffffffffffffffffffffffffffffffffffffff16815260200191505060405180910390a15b50565b6000806013600101805490501415612a29576127109050612a32565b60136002015490505b90565b600460009054906101000a900473ffffffffffffffffffffffffffffffffffffffff1681565b60055481565b600080600080600080600260009054906101000a900460ff16151515612b15576040517f08c379a00000000000000000000000000000000000000000000000000000000081526004018080602001828103825260268152602001807f496e69742066756e6374696f6e2063616e206f6e6c792062652063616c6c656481526020017f206f6e63652e000000000000000000000000000000000000000000000000000081525060400191505060405180910390fd5b6001600260006101000a81548160ff0219169083151502179055506020870195508551945060408701955085519350606087019550855192506080870195508551915060a08701955085519050846002806101000a81548173ffffffffffffffffffffffffffffffffffffffff021916908373ffffffffffffffffffffffffffffffffffffffff16021790555083600360006101000a81548173ffffffffffffffffffffffffffffffffffffffff021916908373ffffffffffffffffffffffffffffffffffffffff16021790555082600460006101000a81548173ffffffffffffffffffffffffffffffffffffffff021916908373ffffffffffffffffffffffffffffffffffffffff160217905550816005816000191690555080600b81905550600b5460001415612c5d576001600c60006101000a81548160ff0219169083151502179055505b50505050505050565b60008060009054906101000a900473ffffffffffffffffffffffffffffffffffffffff1673ffffffffffffffffffffffffffffffffffffffff163373ffffffffffffffffffffffffffffffffffffffff16141515612cc357600080fd5b816001600082604051602001808273ffffffffffffffffffffffffffffffffffffffff1673ffffffffffffffffffffffffffffffffffffffff166c010000000000000000000000000281526014019150506040516020818303038152906040526040518082805190602001908083835b602083101515612d585780518252602082019150602081019050602083039250612d33565b6001836020036101000a03801982511681845116808217855250505050505090500191505060405180910390206000191660001916815260200190815260200160002060009054906101000a900460ff161515612e1d576040517f08c379a00000000000000000000000000000000000000000000000000000000081526004018080602001828103825260208152602001807f4f776e6572207265717565737420686173206e6f74206265656e2073656e742e81525060200191505060405180910390fd5b826000806101000a81548173ffffffffffffffffffffffffffffffffffffffff021916908373ffffffffffffffffffffffffffffffffffffffff16021790555033604051602001808273ffffffffffffffffffffffffffffffffffffffff1673ffffffffffffffffffffffffffffffffffffffff166c010000000000000000000000000281526014019150506040516020818303038152906040526040518082805190602001908083835b602083101515612eed5780518252602082019150602081019050602083039250612ec8565b6001836020036101000a03801982511681845116808217855250505050505090500191505060405180910390209150600060016000846000191660001916815260200190815260200160002060006101000a81548160ff021916908315150217905550505050565b60006002809054906101000a900473ffffffffffffffffffffffffffffffffffffffff168073ffffffffffffffffffffffffffffffffffffffff163373ffffffffffffffffffffffffffffffffffffffff1614151561301c576040517f08c379a00000000000000000000000000000000000000000000000000000000081526004018080602001828103825260168152602001807f53656e646572206e6f7420617574686f72697a65642e0000000000000000000081525060200191505060405180910390fd5b6007600084815260200190815260200160002060009055600091505b6008805490508210156130f5578260088381548110151561305557fe5b906000526020600020015414156130e85760088281548110151561307557fe5b9060005260206000200160009055600860016008805490500381548110151561309a57fe5b90600052602060002001546008838154811015156130b457fe5b906000526020600020018190555060086001600880549050038154811015156130d957fe5b90600052602060002001600090555b8180600101925050613038565b505050565b6000600f60008360001916600019168152602001908152602001600020600101549050919050565b60095481565b60008060006002809054906101000a900473ffffffffffffffffffffffffffffffffffffffff168073ffffffffffffffffffffffffffffffffffffffff163373ffffffffffffffffffffffffffffffffffffffff161415156131f2576040517f08c379a00000000000000000000000000000000000000000000000000000000081526004018080602001828103825260168152602001807f53656e646572206e6f7420617574686f72697a65642e0000000000000000000081525060200191505060405180910390fd5b6000600880549050111515613295576040517f08c379a000000000000000000000000000000000000000000000000000000000815260040180806020018281038252602d8152602001807f5072696365206d75737420626520736574207072696f7220746f20736574746981526020017f6e6720726f79616c746965732e0000000000000000000000000000000000000081525060400191505060405180910390fd5b6000601360010180549050111561331a57600093505b601360010180549050841015613308576000601360000160006013600101878154811015156132d657fe5b9060005260206000200154600019166000191681526020019081526020016000208190555083806001019450506132ab565b6013600101600061331991906185ea565b5b60009250600091505b85518210156133f257848281518110151561333a57fe5b9060200190602002015160136000016000888581518110151561335957fe5b9060200190602002015160001916600019168152602001908152602001600020819055506013600101868381518110151561339057fe5b90602001906020020151908060018154018082558091505090600182039060005260206000200160009091929091909150906000191690555084828151811015156133d757fe5b90602001906020020151830192508180600101925050613323565b6127108311151515613492576040517f08c379a00000000000000000000000000000000000000000000000000000000081526004018080602001828103825260228152602001807f526f79616c74792073706c6974732063616e6e6f74206578636565642031303081526020017f252e00000000000000000000000000000000000000000000000000000000000081525060400191505060405180910390fd5b8261271003601360020181905550505050505050565b60106020528060005260406000206000915090505481565b60008060136001018054905014156134db57600090506134fd565b6013600001600083600019166000191681526020019081526020016000205490505b919050565b600e5481565b6002809054906101000a900473ffffffffffffffffffffffffffffffffffffffff168073ffffffffffffffffffffffffffffffffffffffff163373ffffffffffffffffffffffffffffffffffffffff161415156135cd576040517f08c379a00000000000000000000000000000000000000000000000000000000081526004018080602001828103825260168152602001807f53656e646572206e6f7420617574686f72697a65642e0000000000000000000081525060200191505060405180910390fd5b600a600084815260200190815260200160002060000160009054906101000a900460ff1615151561368c576040517f08c379a000000000000000000000000000000000000000000000000000000000815260040180806020018281038252602c8152602001807f43616e6e6f74206d6f646966792061206c6f636b656420726573616c6520636f81526020017f6e66696775726174696f6e2e000000000000000000000000000000000000000081525060400191505060405180910390fd5b81600a6000858152602001908152602001600020600101819055507fdca0c456563bef627a1630910a55d7f7dbc34e6436eff2d7a6b04d5b1c76192a600554836040518083600019166000191681526020018281526020019250505060405180910390a1505050565b60006010600083604051602001808273ffffffffffffffffffffffffffffffffffffffff1673ffffffffffffffffffffffffffffffffffffffff166c010000000000000000000000000281526014019150506040516020818303038152906040526040518082805190602001908083835b60208310151561378b5780518252602082019150602081019050602083039250613766565b6001836020036101000a038019825116818451168082178552505050505050905001915050604051809103902060001916600019168152602001908152602001600020549050919050565b60006001600033604051602001808273ffffffffffffffffffffffffffffffffffffffff1673ffffffffffffffffffffffffffffffffffffffff166c010000000000000000000000000281526014019150506040516020818303038152906040526040518082805190602001908083835b60208310151561386c5780518252602082019150602081019050602083039250613847565b6001836020036101000a03801982511681845116808217855250505050505090500191505060405180910390206000191660001916815260200190815260200160002060009054906101000a900460ff16151515613958576040517f08c379a00000000000000000000000000000000000000000000000000000000081526004018080602001828103825260218152602001807f4f776e657273686970207265717565737420616c72656164792061637469766581526020017f2e0000000000000000000000000000000000000000000000000000000000000081525060400191505060405180910390fd5b33604051602001808273ffffffffffffffffffffffffffffffffffffffff1673ffffffffffffffffffffffffffffffffffffffff166c010000000000000000000000000281526014019150506040516020818303038152906040526040518082805190602001908083835b6020831015156139e857805182526020820191506020810190506020830392506139c3565b6001836020036101000a038019825116818451168082178552505050505050905001915050604051809103902090506001806000836000191660001916815260200190815260200160002060006101000a81548160ff0219169083151502179055503373ffffffffffffffffffffffffffffffffffffffff166000809054906101000a900473ffffffffffffffffffffffffffffffffffffffff1673ffffffffffffffffffffffffffffffffffffffff167fd5b906f2d3dfa8cf0ea788d4ad6e99ebd482d6134c3405e1a5faa5da891cda8560405160405180910390a350565b60138060020154905081565b6000806002809054906101000a900473ffffffffffffffffffffffffffffffffffffffff168073ffffffffffffffffffffffffffffffffffffffff163373ffffffffffffffffffffffffffffffffffffffff16141515613b9c576040517f08c379a00000000000000000000000000000000000000000000000000000000081526004018080602001828103825260168152602001807f53656e646572206e6f7420617574686f72697a65642e0000000000000000000081525060200191505060405180910390fd5b600660009054906101000a900460ff1680613bb45750835b600660006101000a81548160ff0219169083151502179055508651885111613bdd578651613be0565b87515b9250613bf960006020886184ee9092919063ffffffff16565b601260008060ff16815260200190815260200160002060008081526020019081526020016000209080519060200190613c3392919061860b565b50613c4b60006020876184ee9092919063ffffffff16565b60126000600160ff16815260200190815260200160002060008081526020019081526020016000209080519060200190613c8692919061860b565b50600191505b82821015613dc257600188510382111515613d2457613cd18883815181101515613cb257fe5b90602001906020020151602860ff16886184ee9092919063ffffffff16565b601260008060ff16815260200190815260200160002060008a85815181101515613cf757fe5b9060200190602002015181526020019081526020016000209080519060200190613d2292919061860b565b505b600187510382111515613db557613d618783815181101515613d4257fe5b90602001906020020151604060ff16876184ee9092919063ffffffff16565b60126000600160ff16815260200190815260200160002060008985815181101515613d8857fe5b9060200190602002015181526020019081526020016000209080519060200190613db392919061860b565b505b8180600101925050613c8c565b7f9e8a51bb6b34b9d5d18c14fd753ee3bf44e2256512665a4577281ffcc91943ff60055460405180826000191660001916815260200191505060405180910390a15050505050505050565b6000806011600033604051602001808273ffffffffffffffffffffffffffffffffffffffff1673ffffffffffffffffffffffffffffffffffffffff166c010000000000000000000000000281526014019150506040516020818303038152906040526040518082805190602001908083835b602083101515613ea45780518252602082019150602081019050602083039250613e7f565b6001836020036101000a038019825116818451168082178552505050505050905001915050604051809103902060001916600019168152602001908152602001600020600301541180613fd4575060006011600033604051602001808273ffffffffffffffffffffffffffffffffffffffff1673ffffffffffffffffffffffffffffffffffffffff166c010000000000000000000000000281526014019150506040516020818303038152906040526040518082805190602001908083835b602083101515613f885780518252602082019150602081019050602083039250613f63565b6001836020036101000a03801982511681845116808217855250505050505090500191505060405180910390206000191660001916815260200190815260200160002060000180549050115b1515614048576040517f08c379a000000000000000000000000000000000000000000000000000000000815260040180806020018281038252601c8152602001807f436f6e74656e7420776173206e65766572207075726368617365642e0000000081525060200191505060405180910390fd5b6000600a6000858152602001908152602001600020600201541115156140fc576040517f08c379a00000000000000000000000000000000000000000000000000000000081526004018080602001828103825260218152602001807f4e6f7420612076616c696420726573616c6520636f6e66696775726174696f6e81526020017f2e0000000000000000000000000000000000000000000000000000000000000081525060400191505060405180910390fd5b33604051602001808273ffffffffffffffffffffffffffffffffffffffff1673ffffffffffffffffffffffffffffffffffffffff166c010000000000000000000000000281526014019150506040516020818303038152906040526040518082805190602001908083835b60208310151561418c5780518252602082019150602081019050602083039250614167565b6001836020036101000a038019825116818451168082178552505050505050905001915050604051809103902090506011600082600019166000191681526020019081526020016000206002016000848152602001908152602001600020600301546011600083600019166000191681526020019081526020016000206002016000858152602001908152602001600020600201548301111515156142bf576040517f08c379a00000000000000000000000000000000000000000000000000000000081526004018080602001828103825260298152602001807f43616e6e6f7420756e6c6f636b206d6f726520666f7220726573616c6520746881526020017f616e206f776e65642e000000000000000000000000000000000000000000000081525060400191505060405180910390fd5b816011600083600019166000191681526020019081526020016000206002016000858152602001908152602001600020600201600082825401925050819055506011600082600019166000191681526020019081526020016000206002016000848152602001908152602001600020600301546011600083600019166000191681526020019081526020016000206002016000858152602001908152602001600020600201541115151561436f57fe5b7fe78857a26a7fe475546465ff27735fabea42cc1dc6fb9284b146bd4d01f92444600554336011600085600019166000191681526020019081526020016000206002016000878152602001908152602001600020600201546040518084600019166000191681526020018373ffffffffffffffffffffffffffffffffffffffff1673ffffffffffffffffffffffffffffffffffffffff168152602001828152602001935050505060405180910390a1505050565b6002809054906101000a900473ffffffffffffffffffffffffffffffffffffffff168073ffffffffffffffffffffffffffffffffffffffff163373ffffffffffffffffffffffffffffffffffffffff161415156144e8576040517f08c379a00000000000000000000000000000000000000000000000000000000081526004018080602001828103825260168152602001807f53656e646572206e6f7420617574686f72697a65642e0000000000000000000081525060200191505060405180910390fd5b600082111515614586576040517f08c379a000000000000000000000000000000000000000000000000000000000815260040180806020018281038252602c8152602001807f43616e6e6f742072656d6f7665206e6f6e2d706f736974697665206e756d626581526020017f72206f6620636f706965732e000000000000000000000000000000000000000081525060400191505060405180910390fd5b6000600b54111515614600576040517f08c379a000000000000000000000000000000000000000000000000000000000815260040180806020018281038252601d8152602001807f43616e6e6f742072656d6f766520616e796d6f726520636f706965732e00000081525060200191505060405180910390fd5b600082600b5403101515156146a3576040517f08c379a00000000000000000000000000000000000000000000000000000000081526004018080602001828103825260308152602001807f547279696e6720746f2072656d6f7665206d6f726520636f706965732074686181526020017f6e20616c72656164792065786973742e0000000000000000000000000000000081525060400191505060405180910390fd5b81600b60008282540392505081905550600b5460001415156146db576000600c60006101000a81548160ff0219169083151502179055505b7f4cd13ad3b8764e3d004158a4e45194b959aa94b93f573e223dc14bff31272d4c60055483600b54604051808460001916600019168152602001838152602001828152602001935050505060405180910390a17f0dffee683881a39928b28151ccdb36b1b55ceeb6fc19567a64fa8f8f483b714d600554600b546040518083600019166000191681526020018281526020019250505060405180910390a15050565b60016020528060005260406000206000915054906101000a900460ff1681565b6002809054906101000a900473ffffffffffffffffffffffffffffffffffffffff168073ffffffffffffffffffffffffffffffffffffffff163373ffffffffffffffffffffffffffffffffffffffff16141515614862576040517f08c379a00000000000000000000000000000000000000000000000000000000081526004018080602001828103825260168152602001807f53656e646572206e6f7420617574686f72697a65642e0000000000000000000081525060200191505060405180910390fd5b6000600660006101000a81548160ff0219169083151502179055507f2e6ec049d62c8a42e7cc223354aadb68d5046a2cba67ed55a089fdb852fb6cb660055460405180826000191660001916815260200191505060405180910390a150565b600a6020528060005260406000206000915090508060000160009054906101000a900460ff16908060010154908060020154905083565b60008060008060008060008061490c61868b565b6000600660009054906101000a900460ff1615156149b8576040517f08c379a00000000000000000000000000000000000000000000000000000000081526004018080602001828103825260218152602001807f41465320686173206e6f74206265656e206c697374656420666f722073616c6581526020017f2e0000000000000000000000000000000000000000000000000000000000000081525060400191505060405180910390fd5b6000600b541415806149d65750600c60009054906101000a900460ff165b1515614a70576040517f08c379a00000000000000000000000000000000000000000000000000000000081526004018080602001828103825260268152602001807f4e6f206d6f726520636f7069657320617661696c61626c6520666f722070757281526020017f63686173652e000000000000000000000000000000000000000000000000000081525060400191505060405180910390fd5b60008d111515614ae8576040517f08c379a000000000000000000000000000000000000000000000000000000000815260040180806020018281038252601e8152602001807f4d757374207075726368617365206174206c65617374203120636f70792e000081525060200191505060405180910390fd5b8c600b54101580614b055750600c60009054906101000a900460ff165b1515614b9f576040517f08c379a000000000000000000000000000000000000000000000000000000000815260040180806020018281038252602f8152602001807f43616e6e6f74207075726368617365206d6f726520636f70696573207468616e81526020017f2061726520617661696c61626c652e000000000000000000000000000000000081525060400191505060405180910390fd5b600360009054906101000a900473ffffffffffffffffffffffffffffffffffffffff1673ffffffffffffffffffffffffffffffffffffffff1663dd62ed3e33306040518363ffffffff167c0100000000000000000000000000000000000000000000000000000000028152600401808373ffffffffffffffffffffffffffffffffffffffff1673ffffffffffffffffffffffffffffffffffffffff1681526020018273ffffffffffffffffffffffffffffffffffffffff1673ffffffffffffffffffffffffffffffffffffffff16815260200192505050602060405180830381600087803b158015614c9057600080fd5b505af1158015614ca4573d6000803e3d6000fd5b505050506040513d6020811015614cba57600080fd5b8101908080519060200190929190505050995033604051602001808273ffffffffffffffffffffffffffffffffffffffff1673ffffffffffffffffffffffffffffffffffffffff166c010000000000000000000000000281526014019150506040516020818303038152906040526040518082805190602001908083835b602083101515614d5d5780518252602082019150602081019050602083039250614d38565b6001836020036101000a03801982511681845116808217855250505050505090500191505060405180910390209850614d958d616a0e565b8d0297508a88018a10151515614e39576040517f08c379a00000000000000000000000000000000000000000000000000000000081526004018080602001828103825260248152602001807f50726f7879206d75737420626520617070726f76656420666f7220707572636881526020017f6173652e0000000000000000000000000000000000000000000000000000000081525060400191505060405180910390fd5b6000601360010180549050141561501857600360009054906101000a900473ffffffffffffffffffffffffffffffffffffffff1673ffffffffffffffffffffffffffffffffffffffff166323b872dd336002809054906101000a900473ffffffffffffffffffffffffffffffffffffffff168b6040518463ffffffff167c0100000000000000000000000000000000000000000000000000000000028152600401808473ffffffffffffffffffffffffffffffffffffffff1673ffffffffffffffffffffffffffffffffffffffff1681526020018373ffffffffffffffffffffffffffffffffffffffff1673ffffffffffffffffffffffffffffffffffffffff1681526020018281526020019350505050602060405180830381600087803b158015614f6457600080fd5b505af1158015614f78573d6000803e3d6000fd5b505050506040513d6020811015614f8e57600080fd5b81019080805190602001909291905050501515615013576040517f08c379a00000000000000000000000000000000000000000000000000000000081526004018080602001828103825260148152602001807f417261207472616e73666572206661696c65642e00000000000000000000000081525060200191505060405180910390fd5b61534f565b612710601360020154890281151561502c57fe5b0661271060136002015481151561503f57fe5b048902019650600360009054906101000a900473ffffffffffffffffffffffffffffffffffffffff1673ffffffffffffffffffffffffffffffffffffffff166323b872dd336002809054906101000a900473ffffffffffffffffffffffffffffffffffffffff168a6040518463ffffffff167c0100000000000000000000000000000000000000000000000000000000028152600401808473ffffffffffffffffffffffffffffffffffffffff1673ffffffffffffffffffffffffffffffffffffffff1681526020018373ffffffffffffffffffffffffffffffffffffffff1673ffffffffffffffffffffffffffffffffffffffff1681526020018281526020019350505050602060405180830381600087803b15801561515f57600080fd5b505af1158015615173573d6000803e3d6000fd5b505050506040513d602081101561518957600080fd5b8101908080519060200190929190505050151561520e576040517f08c379a00000000000000000000000000000000000000000000000000000000081526004018080602001828103825260148152602001807f417261207472616e73666572206661696c65642e00000000000000000000000081525060200191505060405180910390fd5b600094505b601360010180549050851015615300576013600001600060136001018781548110151561523c57fe5b90600052602060002001546000191660001916815260200190815260200160002054935061271084890281151561526f57fe5b066127108581151561527d57fe5b0489020192508583908060018154018082558091505090600182039060005260206000200160009091929091909150555082601060006013600101888154811015156152c557fe5b906000526020600020015460001916600019168152602001908152602001600020600082825401925050819055508480600101955050615213565b7f1a60a7d3b4a8bfc1d2e24608d029e4bf9659b56a80d8671bd04299d628d2fa578860136002015461271060405180848152602001838152602001828152602001935050505060405180910390a15b600260019054906101000a900460ff16156155b357601160008a600019166000191681526020019081526020016000206002016000600954815260200190815260200160002060000160009054906101000a900460ff16156153f2578c601160008b600019166000191681526020019081526020016000206002016000600954815260200190815260200160002060030160008282540192505081905550615561565b600a60006009548152602001908152602001600020600101548260200181815250508c8260600181815250506001826000019015159081151581525050601160008a6000191660001916815260200190815260200160002060000180549050601160008b600019166000191681526020019081526020016000206001016000600954815260200190815260200160002081905550601160008a60001916600019168152602001908152602001600020600001600954908060018154018082558091505090600182039060005260206000200160009091929091909150555081601160008b600019166000191681526020019081526020016000206002016000600954815260200190815260200160002060008201518160000160006101000a81548160ff021916908315150217905550602082015181600101556040820151816002015560608201518160030155608082015181600401908051906020019061555c9291906186bd565b509050505b601160008a600019166000191681526020019081526020016000206002016000600954815260200190815260200160002090508c81600401818180549050019150816155ad919061870a565b506155e0565b8c601160008b60001916600019168152602001908152602001600020600301600082825401925050819055505b6000600b541115615664578c600b600082825403925050819055506000600b541415615663576000600660006101000a81548160ff0219169083151502179055507f2e6ec049d62c8a42e7cc223354aadb68d5046a2cba67ed55a089fdb852fb6cb660055460405180826000191660001916815260200191505060405180910390a15b5b600460009054906101000a900473ffffffffffffffffffffffffffffffffffffffff1673ffffffffffffffffffffffffffffffffffffffff1663a513cc9c8f6005546040518363ffffffff167c0100000000000000000000000000000000000000000000000000000000028152600401808360001916600019168152602001826000191660001916815260200192505050602060405180830381600087803b15801561570f57600080fd5b505af1158015615723573d6000803e3d6000fd5b505050506040513d602081101561573957600080fd5b8101908080519060200190929190505050151561581457600460009054906101000a900473ffffffffffffffffffffffffffffffffffffffff1673ffffffffffffffffffffffffffffffffffffffff16630c2bb9658f6005546040518363ffffffff167c0100000000000000000000000000000000000000000000000000000000028152600401808360001916600019168152602001826000191660001916815260200192505050600060405180830381600087803b1580156157fb57600080fd5b505af115801561580f573d6000803e3d6000fd5b505050505b7f39b7e4b91ba6a37d797cacb37026d4073c1bc810ca358219c6ff505dc18cad358e6005548f8b60095460405180866000191660001916815260200185600019166000191681526020018481526020018381526020018281526020019550505050505060405180910390a16000600102600019168c600019161415801561589b575060008b115b156158ab576158aa8c8c616eea565b5b5050505050505050505050505050565b6002809054906101000a900473ffffffffffffffffffffffffffffffffffffffff168073ffffffffffffffffffffffffffffffffffffffff163373ffffffffffffffffffffffffffffffffffffffff16141515615980576040517f08c379a00000000000000000000000000000000000000000000000000000000081526004018080602001828103825260168152602001807f53656e646572206e6f7420617574686f72697a65642e0000000000000000000081525060200191505060405180910390fd5b6000821115156159f8576040517f08c379a00000000000000000000000000000000000000000000000000000000081526004018080602001828103825260208152602001807f5175616e74697479206d7573742062652067726561746572207468616e20302e81525060200191505060405180910390fd5b81600b60008282540192505081905550600b546000141515615a30576000600c60006101000a81548160ff0219169083151502179055505b7f01f766e4bea8b3ee08c4feeab8b2e146c8e45895c093fd9bd54b3690d449e68060055483600b54604051808460001916600019168152602001838152602001828152602001935050505060405180910390a17f0dffee683881a39928b28151ccdb36b1b55ceeb6fc19567a64fa8f8f483b714d600554600b546040518083600019166000191681526020018281526020019250505060405180910390a15050565b6060600660009054906101000a900460ff161515615b025760206040519081016040528060008152509050615bc8565b601260008460ff1660ff16815260200190815260200160002060008381526020019081526020016000208054600181600116156101000203166002900480601f016020809104026020016040519081016040528092919081815260200182805460018160011615610100020316600290048015615bc05780601f10615b9557610100808354040283529160200191615bc0565b820191906000526020600020905b815481529060010190602001808311615ba357829003601f168201915b505050505090505b92915050565b600c60009054906101000a900460ff1681565b6000806011600033604051602001808273ffffffffffffffffffffffffffffffffffffffff1673ffffffffffffffffffffffffffffffffffffffff166c010000000000000000000000000281526014019150506040516020818303038152906040526040518082805190602001908083835b602083101515615c785780518252602082019150602081019050602083039250615c53565b6001836020036101000a038019825116818451168082178552505050505050905001915050604051809103902060001916600019168152602001908152602001600020600301541180615da8575060006011600033604051602001808273ffffffffffffffffffffffffffffffffffffffff1673ffffffffffffffffffffffffffffffffffffffff166c010000000000000000000000000281526014019150506040516020818303038152906040526040518082805190602001908083835b602083101515615d5c5780518252602082019150602081019050602083039250615d37565b6001836020036101000a03801982511681845116808217855250505050505090500191505060405180910390206000191660001916815260200190815260200160002060000180549050115b1515615e1c576040517f08c379a000000000000000000000000000000000000000000000000000000000815260040180806020018281038252601c8152602001807f436f6e74656e7420776173206e65766572207075726368617365642e0000000081525060200191505060405180910390fd5b6000600a600085815260200190815260200160002060020154111515615ed0576040517f08c379a00000000000000000000000000000000000000000000000000000000081526004018080602001828103825260218152602001807f4e6f7420612076616c696420726573616c6520636f6e66696775726174696f6e81526020017f2e0000000000000000000000000000000000000000000000000000000000000081525060400191505060405180910390fd5b33604051602001808273ffffffffffffffffffffffffffffffffffffffff1673ffffffffffffffffffffffffffffffffffffffff166c010000000000000000000000000281526014019150506040516020818303038152906040526040518082805190602001908083835b602083101515615f605780518252602082019150602081019050602083039250615f3b565b6001836020036101000a03801982511681845116808217855250505050505090500191505060405180910390209050816011600083600019166000191681526020019081526020016000206002016000858152602001908152602001600020600201541015151561605f576040517f08c379a000000000000000000000000000000000000000000000000000000000815260040180806020018281038252602e8152602001807f43616e6e6f74206c6f636b206d6f7265207468616e20697320617661696c616281526020017f6c6520666f7220726573616c652e00000000000000000000000000000000000081525060400191505060405180910390fd5b816011600083600019166000191681526020019081526020016000206002016000858152602001908152602001600020600201600082825403925050819055506011600082600019166000191681526020019081526020016000206002016000848152602001908152602001600020600301546011600083600019166000191681526020019081526020016000206002016000858152602001908152602001600020600201541115151561610f57fe5b7fce3027e9449a5a6879bfbf6898b09a15c2232476d45e2913421cd05d2b4eed13600554336011600085600019166000191681526020019081526020016000206002016000878152602001908152602001600020600201546040518084600019166000191681526020018373ffffffffffffffffffffffffffffffffffffffff1673ffffffffffffffffffffffffffffffffffffffff168152602001828152602001935050505060405180910390a1505050565b600080600080863373ffffffffffffffffffffffffffffffffffffffff16600f6000836000191660001916815260200190815260200160002060000160009054906101000a900473ffffffffffffffffffffffffffffffffffffffff1673ffffffffffffffffffffffffffffffffffffffff1614801561626157506000600f6000836000191660001916815260200190815260200160002060010154115b15156162d5576040517f08c379a000000000000000000000000000000000000000000000000000000000815260040180806020018281038252600f8152602001807f4a6f6220697320696e76616c69642e000000000000000000000000000000000081525060200191505060405180910390fd5b85518751141515616374576040517f08c379a00000000000000000000000000000000000000000000000000000000081526004018080602001828103825260268152602001807f556e657175616c206e756d626572206f66206661726d65727320616e6420726581526020017f77617264732e000000000000000000000000000000000000000000000000000081525060400191505060405180910390fd5b600093505b85518460ff1610156163b157858460ff1681518110151561639657fe5b90602001906020020151850194508380600101945050616379565b600f60008960001916600019168152602001908152602001600020600101548511151515616447576040517f08c379a00000000000000000000000000000000000000000000000000000000081526004018080602001828103825260148152602001807f496e73756666696369656e74206275646765742e00000000000000000000000081525060200191505060405180910390fd5b600092505b86518360ff16101561654357858360ff1681518110151561646957fe5b90602001906020020151600f60008a60001916600019168152602001908152602001600020600101541015151561649c57fe5b858360ff168151811015156164ad57fe5b9060200190602002015160106000898660ff168151811015156164cc57fe5b906020019060200201516000191660001916815260200190815260200160002081905550858360ff1681518110151561650157fe5b90602001906020020151600f60008a6000191660001916815260200190815260200160002060010160008282540392505081905550828060010193505061644c565b600f60008960001916600019168152602001908152602001600020600101549150600082111561667657816010600033604051602001808273ffffffffffffffffffffffffffffffffffffffff1673ffffffffffffffffffffffffffffffffffffffff166c010000000000000000000000000281526014019150506040516020818303038152906040526040518082805190602001908083835b60208310151561660257805182526020820191506020810190506020830392506165dd565b6001836020036101000a038019825116818451168082178552505050505050905001915050604051809103902060001916600019168152602001908152602001600020819055506000600f60008a6000191660001916815260200190815260200160002060010181905550616675612711565b5b7f2bd45e0776b585a6e4ce4cc376082ac45c657ad116f95f80480b6343678354e86005548684604051808460001916600019168152602001838152602001828152602001935050505060405180910390a15050505050505050565b600360009054906101000a900473ffffffffffffffffffffffffffffffffffffffff1681565b6002809054906101000a900473ffffffffffffffffffffffffffffffffffffffff168073ffffffffffffffffffffffffffffffffffffffff163373ffffffffffffffffffffffffffffffffffffffff161415156167bc576040517f08c379a00000000000000000000000000000000000000000000000000000000081526004018080602001828103825260168152602001807f53656e646572206e6f7420617574686f72697a65642e0000000000000000000081525060200191505060405180910390fd5b600a600084815260200190815260200160002060000160009054906101000a900460ff1615151561687b576040517f08c379a000000000000000000000000000000000000000000000000000000000815260040180806020018281038252602c8152602001807f43616e6e6f74206d6f646966792061206c6f636b656420726573616c6520636f81526020017f6e66696775726174696f6e2e000000000000000000000000000000000000000081525060400191505060405180910390fd5b81600a6000858152602001908152602001600020600201819055507f9f274eefea84ac29e2f56b92eafc8045314ec62bf45e12c57b3f80017ea6245e600554836040518083600019166000191681526020018281526020019250505060405180910390a1505050565b600b5481565b6002809054906101000a900473ffffffffffffffffffffffffffffffffffffffff168073ffffffffffffffffffffffffffffffffffffffff163373ffffffffffffffffffffffffffffffffffffffff161415156169af576040517f08c379a00000000000000000000000000000000000000000000000000000000081526004018080602001828103825260168152602001807f53656e646572206e6f7420617574686f72697a65642e0000000000000000000081525060200191505060405180910390fd5b6000600260016101000a81548160ff0219169083151502179055507ff293814c7c482e7a7e5481b80723176aea019590a1994ee0070b10836beeca8b60055460405180826000191660001916815260200191505060405180910390a150565b60008060008090505b600880549050811015616acf5783600882815481101515616a3457fe5b90600052602060002001541415616a605760076000858152602001908152602001600020549250616ae6565b83600882815481101515616a7057fe5b9060005260206000200154108015616aa0575081600882815481101515616a9357fe5b9060005260206000200154115b15616ac257600881815481101515616ab457fe5b906000526020600020015491505b8080600101915050616a17565b600760008381526020019081526020016000205492505b5050919050565b6002809054906101000a900473ffffffffffffffffffffffffffffffffffffffff1681565b60076020528060005260406000206000915090505481565b6000616c0182601260008760ff1660ff16815260200190815260200160002060008681526020019081526020016000208054600181600116156101000203166002900480601f016020809104026020016040519081016040528092919081815260200182805460018160011615610100020316600290048015616bee5780601f10616bc357610100808354040283529160200191616bee565b820191906000526020600020905b815481529060010190602001808311616bd157829003601f168201915b505050505061857b90919063ffffffff16565b90509392505050565b6000806002809054906101000a900473ffffffffffffffffffffffffffffffffffffffff168073ffffffffffffffffffffffffffffffffffffffff163373ffffffffffffffffffffffffffffffffffffffff16141515616cd2576040517f08c379a00000000000000000000000000000000000000000000000000000000081526004018080602001828103825260168152602001807f53656e646572206e6f7420617574686f72697a65642e0000000000000000000081525060200191505060405180910390fd5b600660009054906101000a900460ff1680616cea5750835b600660006101000a81548160ff021916908315150217905550898990508c8c905011616d195789899050616d1e565b8b8b90505b9250600091505b82821015616e9b5760018c8c90500382111515616ddd57616d8d602860ff168302602860ff168a8a8080601f0160208091040260200160405190810160405280939291908181526020018383808284378201915050505050506184ee9092919063ffffffff16565b601260008060ff16815260200190815260200160002060008e8e868181101515616db357fe5b9050602002013581526020019081526020016000209080519060200190616ddb92919061860b565b505b60018a8a90500382111515616e8e57616e3d604060ff168302604060ff1688888080601f0160208091040260200160405190810160405280939291908181526020018383808284378201915050505050506184ee9092919063ffffffff16565b60126000600160ff16815260200190815260200160002060008c8c868181101515616e6457fe5b9050602002013581526020019081526020016000209080519060200190616e8c92919061860b565b505b8180600101925050616d25565b7f9e8a51bb6b34b9d5d18c14fd753ee3bf44e2256512665a4577281ffcc91943ff60055460405180826000191660001916815260200191505060405180910390a1505050505050505050505050565b6000806011600033604051602001808273ffffffffffffffffffffffffffffffffffffffff1673ffffffffffffffffffffffffffffffffffffffff166c010000000000000000000000000281526014019150506040516020818303038152906040526040518082805190602001908083835b602083101515616f815780518252602082019150602081019050602083039250616f5c565b6001836020036101000a0380198251168184511680821785525050505050509050019150506040518091039020600019166000191681526020019081526020016000206003015411806170b1575060006011600033604051602001808273ffffffffffffffffffffffffffffffffffffffff1673ffffffffffffffffffffffffffffffffffffffff166c010000000000000000000000000281526014019150506040516020818303038152906040526040518082805190602001908083835b6020831015156170655780518252602082019150602081019050602083039250617040565b6001836020036101000a03801982511681845116808217855250505050505090500191505060405180910390206000191660001916815260200190815260200160002060000180549050115b1515617125576040517f08c379a000000000000000000000000000000000000000000000000000000000815260040180806020018281038252601c8152602001807f436f6e74656e7420776173206e65766572207075726368617365642e0000000081525060200191505060405180910390fd5b600360009054906101000a900473ffffffffffffffffffffffffffffffffffffffff1673ffffffffffffffffffffffffffffffffffffffff1663dd62ed3e33306040518363ffffffff167c0100000000000000000000000000000000000000000000000000000000028152600401808373ffffffffffffffffffffffffffffffffffffffff1673ffffffffffffffffffffffffffffffffffffffff1681526020018273ffffffffffffffffffffffffffffffffffffffff1673ffffffffffffffffffffffffffffffffffffffff16815260200192505050602060405180830381600087803b15801561721657600080fd5b505af115801561722a573d6000803e3d6000fd5b505050506040513d602081101561724057600080fd5b8101908080519060200190929190505050905060006001026000191683600019161415801561726f5750600082115b801561727b5750818110155b80156173655750600073ffffffffffffffffffffffffffffffffffffffff16600f6000856000191660001916815260200190815260200160002060000160009054906101000a900473ffffffffffffffffffffffffffffffffffffffff1673ffffffffffffffffffffffffffffffffffffffff16148061736457503373ffffffffffffffffffffffffffffffffffffffff16600f6000856000191660001916815260200190815260200160002060000160009054906101000a900473ffffffffffffffffffffffffffffffffffffffff1673ffffffffffffffffffffffffffffffffffffffff16145b5b15156173d9576040517f08c379a00000000000000000000000000000000000000000000000000000000081526004018080602001828103825260178152602001807f4a6f62207375626d697373696f6e20696e76616c69642e00000000000000000081525060200191505060405180910390fd5b600360009054906101000a900473ffffffffffffffffffffffffffffffffffffffff1673ffffffffffffffffffffffffffffffffffffffff166323b872dd3330856040518463ffffffff167c0100000000000000000000000000000000000000000000000000000000028152600401808473ffffffffffffffffffffffffffffffffffffffff1673ffffffffffffffffffffffffffffffffffffffff1681526020018373ffffffffffffffffffffffffffffffffffffffff1673ffffffffffffffffffffffffffffffffffffffff1681526020018281526020019350505050602060405180830381600087803b1580156174d257600080fd5b505af11580156174e6573d6000803e3d6000fd5b505050506040513d60208110156174fc57600080fd5b8101908080519060200190929190505050156177165781600f600085600019166000191681526020019081526020016000206001016000828254019250508190555033600f6000856000191660001916815260200190815260200160002060000160006101000a81548173ffffffffffffffffffffffffffffffffffffffff021916908373ffffffffffffffffffffffffffffffffffffffff160217905550600360009054906101000a900473ffffffffffffffffffffffffffffffffffffffff1673ffffffffffffffffffffffffffffffffffffffff166370a08231306040518263ffffffff167c0100000000000000000000000000000000000000000000000000000000028152600401808273ffffffffffffffffffffffffffffffffffffffff1673ffffffffffffffffffffffffffffffffffffffff168152602001915050602060405180830381600087803b15801561765857600080fd5b505af115801561766c573d6000803e3d6000fd5b505050506040513d602081101561768257600080fd5b8101908080519060200190929190505050600f6000856000191660001916815260200190815260200160002060010154111515156176bc57fe5b7f4521c984beed01d188bcc3bd297e6530cd217723b880fa43c70fbcbd664fb2ac60055484846040518084600019166000191681526020018360001916600019168152602001828152602001935050505060405180910390a15b505050565b6002809054906101000a900473ffffffffffffffffffffffffffffffffffffffff168073ffffffffffffffffffffffffffffffffffffffff163373ffffffffffffffffffffffffffffffffffffffff161415156177e0576040517f08c379a00000000000000000000000000000000000000000000000000000000081526004018080602001828103825260168152602001807f53656e646572206e6f7420617574686f72697a65642e0000000000000000000081525060200191505060405180910390fd5b6000600760008581526020019081526020016000205414156178295760088390806001815401808255809150509060018203906000526020600020016000909192909190915055505b8160076000858152602001908152602001600020819055507f2f0fe01aa6daff1c7bb411a324bdebe55dc2cd1e0ff2fc504b7569346e7d7d5a600554846007600087815260200190815260200160002054604051808460001916600019168152602001838152602001828152602001935050505060405180910390a1505050565b6000806011600033604051602001808273ffffffffffffffffffffffffffffffffffffffff1673ffffffffffffffffffffffffffffffffffffffff166c010000000000000000000000000281526014019150506040516020818303038152906040526040518082805190602001908083835b602083101515617941578051825260208201915060208101905060208303925061791c565b6001836020036101000a038019825116818451168082178552505050505050905001915050604051809103902060001916600019168152602001908152602001600020600301541180617a71575060006011600033604051602001808273ffffffffffffffffffffffffffffffffffffffff1673ffffffffffffffffffffffffffffffffffffffff166c010000000000000000000000000281526014019150506040516020818303038152906040526040518082805190602001908083835b602083101515617a255780518252602082019150602081019050602083039250617a00565b6001836020036101000a03801982511681845116808217855250505050505090500191505060405180910390206000191660001916815260200190815260200160002060000180549050115b1515617ae5576040517f08c379a000000000000000000000000000000000000000000000000000000000815260040180806020018281038252601c8152602001807f436f6e74656e7420776173206e65766572207075726368617365642e0000000081525060200191505060405180910390fd5b6000600a600085815260200190815260200160002060020154111515617b99576040517f08c379a00000000000000000000000000000000000000000000000000000000081526004018080602001828103825260218152602001807f4e6f7420612076616c696420726573616c6520636f6e66696775726174696f6e81526020017f2e0000000000000000000000000000000000000000000000000000000000000081525060400191505060405180910390fd5b33604051602001808273ffffffffffffffffffffffffffffffffffffffff1673ffffffffffffffffffffffffffffffffffffffff166c010000000000000000000000000281526014019150506040516020818303038152906040526040518082805190602001908083835b602083101515617c295780518252602082019150602081019050602083039250617c04565b6001836020036101000a03801982511681845116808217855250505050505090500191505060405180910390209050600a6000848152602001908152602001600020600101548210151515617d0c576040517f08c379a00000000000000000000000000000000000000000000000000000000081526004018080602001828103825260378152602001807f526573616c65207072696365206d757374206265206174206c6561737420746881526020017f65206d696e696d756d20726573616c652070726963652e00000000000000000081525060400191505060405180910390fd5b816011600083600019166000191681526020019081526020016000206002016000858152602001908152602001600020600101819055507f0e2912681a5905a8c6a4452da27fc30eb533a3aba5b44cf5a404baeadcdb134760055433846040518084600019166000191681526020018373ffffffffffffffffffffffffffffffffffffffff1673ffffffffffffffffffffffffffffffffffffffff168152602001828152602001935050505060405180910390a1505050565b6000336001600082604051602001808273ffffffffffffffffffffffffffffffffffffffff1673ffffffffffffffffffffffffffffffffffffffff166c010000000000000000000000000281526014019150506040516020818303038152906040526040518082805190602001908083835b602083101515617e5c5780518252602082019150602081019050602083039250617e37565b6001836020036101000a03801982511681845116808217855250505050505090500191505060405180910390206000191660001916815260200190815260200160002060009054906101000a900460ff161515617f21576040517f08c379a00000000000000000000000000000000000000000000000000000000081526004018080602001828103825260208152602001807f4f776e6572207265717565737420686173206e6f74206265656e2073656e742e81525060200191505060405180910390fd5b33604051602001808273ffffffffffffffffffffffffffffffffffffffff1673ffffffffffffffffffffffffffffffffffffffff166c010000000000000000000000000281526014019150506040516020818303038152906040526040518082805190602001908083835b602083101515617fb15780518252602082019150602081019050602083039250617f8c565b6001836020036101000a03801982511681845116808217855250505050505090500191505060405180910390209150600060016000846000191660001916815260200190815260200160002060006101000a81548160ff0219169083151502179055503373ffffffffffffffffffffffffffffffffffffffff166000809054906101000a900473ffffffffffffffffffffffffffffffffffffffff1673ffffffffffffffffffffffffffffffffffffffff167f1dc90b1ce875ea53ce4f7fb2036478f4ddfef57ec243f3fb5a9d81faf7dac5f460405160405180910390a35050565b61809b61868b565b6000600a600084815260200190815260200160002060010154826020018181525050600182600001901515908115158152505060116000856000191660001916815260200190815260200160002090506011600085600019166000191681526020019081526020016000206000018054905081600101600085815260200190815260200160002081905550806000018390806001815401808255809150509060018203906000526020600020016000909192909190915055508181600201600085815260200190815260200160002060008201518160000160006101000a81548160ff02191690831515021790555060208201518160010155604082015181600201556060820151816003015560808201518160040190805190602001906181c49291906186bd565b5090505050505050565b6000806000806011600089600019166000191681526020019081526020016000209350600091505b858210156182f6578460030154820192506001856004018481548110151561821a57fe5b9060005260206000200154019050600a6000888152602001908152602001600020600201548110156182b557836002016000888152602001908152602001600020600401819080600181540180825580915050906001820390600052602060002001600090919290919091505550836002016000888152602001908152602001600020600301600081548092919060010191905055506182ca565b83600301600081548092919060010191905055505b84600401838154811015156182db57fe5b906000526020600020016000905581806001019250506181f6565b5050505050505050565b6000806011600084600019166000191681526020019081526020016000209150816002016000858152602001908152602001600020600080820160006101000a81549060ff02191690556001820160009055600282016000905560038201600090556004820160006183729190618736565b5050816001016000858152602001908152602001600020549050816001016000858152602001908152602001600020600090558160000160018360000180549050038154811015156183c057fe5b906000526020600020015482600001828154811015156183dc57fe5b906000526020600020018190555081600001600183600001805490500381548110151561840557fe5b90600052602060002001600090556000826000018054905014156184e757600460009054906101000a900473ffffffffffffffffffffffffffffffffffffffff1673ffffffffffffffffffffffffffffffffffffffff166387e52772866005546040518363ffffffff167c0100000000000000000000000000000000000000000000000000000000028152600401808360001916600019168152602001826000191660001916815260200192505050600060405180830381600087803b1580156184ce57600080fd5b505af11580156184e2573d6000803e3d6000fd5b505050505b5050505050565b60608082840185511015151561850357600080fd5b82156000811461851e5760405191506020820160405261856f565b6040519150601f8416801560200281840101858101878315602002848b0101015b8183101561855c578051835260208301925060208101905061853f565b50868552601f19601f8301166040525050505b50809150509392505050565b600080600190508351835181146001811461859957600092506185de565b600160208701838101602088015b6002848385100114156185d957805183511415156185c85760009650600093505b6020830192506020810190506185a7565b505050505b50508091505092915050565b50805460008255906000526020600020908101906186089190618757565b50565b828054600181600116156101000203166002900490600052602060002090601f016020900481019282601f1061864c57805160ff191683800117855561867a565b8280016001018555821561867a579182015b8281111561867957825182559160200191906001019061865e565b5b509050618687919061877c565b5090565b60a060405190810160405280600015158152602001600081526020016000815260200160008152602001606081525090565b8280548282559060005260206000209081019282156186f9579160200282015b828111156186f85782518255916020019190600101906186dd565b5b509050618706919061877c565b5090565b81548183558181111561873157818360005260206000209182019101618730919061877c565b5b505050565b5080546000825590600052602060002090810190618754919061877c565b50565b61877991905b8082111561877557600081600090555060010161875d565b5090565b90565b61879e91905b8082111561879a576000816000905550600101618782565b5090565b905600a165627a7a72305820b06abadc173907d7fa6c76191723acc82e2901ccd73f3b839bbbe7923defb94f0029",
  "source": "pragma solidity ^0.4.24;\n\nimport \"./Ownable.sol\";\nimport \"./Library.sol\";\nimport \"./AraToken.sol\";\nimport \"bytes/BytesLib.sol\";\n\ncontract AFS is Ownable {\n  using BytesLib for bytes;\n\n  uint8 constant mtBufferSize_ = 40;\n  uint8 constant msBufferSize_ = 64;\n\n  bool      private once_;\n  bool      public resellable_;\n\n  address   public owner_;\n\n  AraToken  public token_;\n  Library   public lib_;\n\n  bytes32   public did_;\n  bool      public listed_;\n  mapping(uint256 => uint256) public prices_; // quantity (lower bound) => price\n  uint256[] public priceTiers_; // price tiers\n\n  uint256   public currGlobalConfigID_;\n  mapping(uint256 => GlobalResaleConfig)       public globalConfigs_; // configID => GlobalResaleConfig\n\n  uint256   public totalCopies_; // scarcity quantity\n  bool      public unlimited_ = false;\n\n  uint256   public minResalePrice_;\n  uint256   public maxNumResales_; // < maxNumResales_ can be resold\n\n  mapping(bytes32 => Job)                      public jobs_; // jobId => job { budget, sender }\n  mapping(bytes32 => uint256)                  public rewards_;    // farmer => rewards\n  mapping(bytes32 => Purchases)                public purchases_; // keccak256 hashes of buyer addresses\n  mapping(uint8 => mapping (uint256 => bytes)) public metadata_;\n\n  Royalties public royalties_;\n\n  struct Job {\n    address sender;\n    uint256 budget;\n  }\n\n  struct GlobalResaleConfig {\n    bool locked;\n\n    uint256  minResalePrice;\n    uint256  maxNumResales;\n  }\n\n  struct ResaleConfig {\n    bool enabled;\n\n    // reseller set config\n    uint256 resalePrice;\n    uint256 available;\n    uint256 quantity;\n    uint256[] resales; // total quantity owned => number of previous resales -- 0 indexed\n  }\n\n  struct Purchases {\n    uint256[] configIDs;\n    mapping(uint256 => uint256) configIDIndices; // configID => configIDs index\n    mapping(uint256 => ResaleConfig) configs; // configID => ResaleConfig\n\n    uint256 quantity; // of non-resellable purchases independent of configs\n  }\n\n  struct Royalties {\n    mapping(bytes32 => uint256) split;\n    bytes32[] hashedAddresses;\n    uint256 ownerProfit;\n  }\n\n  // constants\n  uint256 public constant royaltyMultiplier = 100 * 10 ** 2;\n\n  event Commit(bytes32 _did);\n  event Unlisted(bytes32 _did);\n  event Listed(bytes32 _did);\n  event MinResalePriceSet(bytes32 _did, uint256 _price);\n  event ResalePriceSet(bytes32 _did, address _purchaser, uint256 _price);\n  event MaxNumResalesSet(bytes32 _did, uint256 _quantity);\n  event PriceSet(bytes32 _did, uint256 _quantity, uint256 _price);\n  event BudgetSubmitted(bytes32 _did, bytes32 _jobId, uint256 _budget);\n  event RewardsAllocated(bytes32 _did, uint256 _allocated, uint256 _returned);\n  event Purchased(bytes32 _purchaser, bytes32 _did, uint256 _quantity, uint256 _price, uint256 _configID);\n  event PurchasedResale(bytes32 _purchaser, address _seller, bytes32 _did, uint256 _quantity, uint256 _price, uint256 _configID);\n  event Redeemed(address _sender);\n  event IncreasedSupply(bytes32 _did, uint256 _added, uint256 _total);\n  event DecreasedSupply(bytes32 _did, uint256 _removed, uint256 _total);\n  event SupplySet(bytes32 _did, uint256 _quantity);\n  event ResaleUnlocked(bytes32 _did, address _seller, uint256 _available);\n  event ResaleLocked(bytes32 _did, address _seller, uint256 _available);\n  event MarkedForResale(bytes32 _did);\n  event MarkedNotForResale(bytes32 _did);\n  event ResaleUnlocked(bytes32 _did);\n  event ResaleLocked(bytes32 _did);\n  event RoyaltiesPaidOut(uint256 _price, uint256 _ownerProfit, uint256 _multiplier);\n\n  modifier onlyBy(address _account)\n  {\n    require(\n      msg.sender == _account,\n      \"Sender not authorized.\"\n    );\n    _;\n  }\n\n  modifier purchaseRequired()\n  {\n    require(\n      purchases_[keccak256(abi.encodePacked(msg.sender))].quantity > 0 || purchases_[keccak256(abi.encodePacked(msg.sender))].configIDs.length > 0,\n      \"Content was never purchased.\"\n    );\n    _;\n  }\n\n  modifier budgetSubmitted(bytes32 _jobId)\n  {\n    require(\n      jobs_[_jobId].sender == msg.sender && jobs_[_jobId].budget > 0,\n      \"Job is invalid.\"\n    );\n    _;\n  }\n\n  modifier onlyOnce()\n  {\n    require(!once_, \"Init function can only be called once.\");\n    _;\n  }\n\n  function init(bytes _data) public onlyOnce {\n    once_ = true;\n    uint256 btsptr;\n    address ownerAddr;\n    address tokenAddr;\n    address libAddr;\n    bytes32 did;\n    uint256 totalCopies;\n    /* solium-disable-next-line security/no-inline-assembly */\n    assembly {\n        btsptr := add(_data, 32)\n        ownerAddr := mload(btsptr)\n        btsptr := add(_data, 64)\n        tokenAddr := mload(btsptr)\n        btsptr := add(_data, 96)\n        libAddr := mload(btsptr)\n        btsptr := add(_data, 128)\n        did := mload(btsptr)\n        btsptr := add(_data, 160)\n        totalCopies := mload(btsptr)\n    }\n    owner_       = ownerAddr;\n    token_       = AraToken(tokenAddr);\n    lib_         = Library(libAddr);\n    did_         = did;\n    totalCopies_ = totalCopies;\n    if (0 == totalCopies_) {\n      unlimited_ = true;\n    }\n  }\n\n/**\n * CREATOR COMMERCE\n * ===============================================================================================\n */\n\n  function list() public onlyBy(owner_) {\n    listed_ = true;\n    emit Listed(did_);\n  }\n\n  function unlist() public onlyBy(owner_) {\n    listed_ = false;\n    emit Unlisted(did_);\n  }\n\n  function unlockResale(uint256 _globalConfigID) public onlyBy(owner_) {\n    require(globalConfigs_[_globalConfigID].maxNumResales > 0, \"Cannot unlock for resale because resale configuration has not been setup.\");\n    resellable_ = true;\n    currGlobalConfigID_ = _globalConfigID;\n    globalConfigs_[_globalConfigID].locked = true;\n    emit ResaleUnlocked(did_);\n  }\n\n  function lockResale() public onlyBy(owner_) {\n    resellable_ = false;\n    emit ResaleLocked(did_);\n  }\n\n  function setPrice(uint256 _quantity, uint256 _price) external onlyBy(owner_) {\n    if (prices_[_quantity] == 0) {\n      priceTiers_.push(_quantity);\n    }\n    prices_[_quantity] = _price;\n    emit PriceSet(did_, _quantity, prices_[_quantity]);\n  }\n\n  function getPrice(uint256 _quantity) public view returns (uint256) {\n    uint256 tier;\n    for (uint256 i = 0; i < priceTiers_.length; i++) {\n      if (priceTiers_[i] == _quantity) {\n        return prices_[_quantity];\n      } else if (priceTiers_[i] < _quantity && priceTiers_[i] > tier) {\n        tier = priceTiers_[i];\n      }\n    }\n    return prices_[tier];\n  }\n\n  function removePriceTier(uint256 _quantity) external onlyBy(owner_) {\n    delete prices_[_quantity];\n    for (uint256 i = 0; i < priceTiers_.length; i++) {\n      if (priceTiers_[i] == _quantity) {\n        delete priceTiers_[i]; // delete price tier\n        priceTiers_[i] = priceTiers_[priceTiers_.length - 1]; // move last price tier into deleted tier position\n        delete priceTiers_[priceTiers_.length - 1]; // delete last price tier\n      }\n    }\n  }\n\n  function setMinResalePrice(uint256 _configID, uint256 _price) external onlyBy(owner_) {\n    require(!globalConfigs_[_configID].locked, \"Cannot modify a locked resale configuration.\");\n    globalConfigs_[_configID].minResalePrice = _price;\n    emit MinResalePriceSet(did_, _price);\n  }\n\n  function setResaleQuantity(uint256 _configID, uint256 _quantity) external onlyBy(owner_) {\n    require(!globalConfigs_[_configID].locked, \"Cannot modify a locked resale configuration.\");\n    globalConfigs_[_configID].maxNumResales = _quantity;\n    emit MaxNumResalesSet(did_, _quantity);\n  }\n\n  function setSupply(uint256 _quantity) public onlyBy(owner_) {\n    require(_quantity > 0, \"Quantity must be greater than 0.\");\n\n    totalCopies_ = _quantity;\n    if (0 != totalCopies_) {\n      unlimited_ = false;\n    }\n\n    emit SupplySet(did_, totalCopies_);\n  }\n\n  function increaseSupply(uint256 _quantity) public onlyBy(owner_) {\n    require(_quantity > 0, \"Quantity must be greater than 0.\");\n\n    totalCopies_ += _quantity;\n    if (0 != totalCopies_) {\n      unlimited_ = false;\n    }\n\n    emit IncreasedSupply(did_, _quantity, totalCopies_);\n    emit SupplySet(did_, totalCopies_);\n  }\n\n  function decreaseSupply(uint256 _quantity) public onlyBy(owner_) {\n    require(_quantity > 0, \"Cannot remove non-positive number of copies.\");\n    require(totalCopies_ > 0, \"Cannot remove anymore copies.\");\n    require(totalCopies_ - _quantity >= 0, \"Trying to remove more copies than already exist.\");\n\n    totalCopies_ -= _quantity;\n    if (0 != totalCopies_) {\n      unlimited_ = false;\n    }\n\n    emit DecreasedSupply(did_, _quantity, totalCopies_);\n    emit SupplySet(did_, totalCopies_);\n  }\n\n  function setUnlimitedSupply() public onlyBy(owner_) {\n    totalCopies_ = 0;\n    unlimited_ = true;\n    emit SupplySet(did_, totalCopies_);\n  }\n\n  function setRoyalties(bytes32[] _hashedAddresses, uint256[] _amounts) public onlyBy(owner_) {\n    require(priceTiers_.length > 0, \"Price must be set prior to setting royalties.\");\n\n    if(royalties_.hashedAddresses.length > 0) {\n      for(uint256 i = 0; i < royalties_.hashedAddresses.length; i++) {\n        royalties_.split[royalties_.hashedAddresses[i]] = 0;\n      }\n      delete royalties_.hashedAddresses;\n    }\n\n    uint256 profit = 0;\n    for(uint256 j = 0; j < _hashedAddresses.length; j++) {\n      royalties_.split[_hashedAddresses[j]] = _amounts[j];\n      royalties_.hashedAddresses.push(_hashedAddresses[j]);\n      profit += _amounts[j];\n    }\n\n    require(profit <= royaltyMultiplier, \"Royalty splits cannot exceed 100%.\");\n    royalties_.ownerProfit = royaltyMultiplier - profit;\n  }\n\n  function getRoyalty(bytes32 hashedAddress) public view returns (uint256) {\n    if(royalties_.hashedAddresses.length == 0) {\n      return 0;\n    } else {\n      return royalties_.split[hashedAddress];\n    }\n  }\n\n  function getOwnerProfit() public view returns (uint256) {\n    if(royalties_.hashedAddresses.length == 0) {\n      return royaltyMultiplier;\n    } else {\n      return royalties_.ownerProfit;\n    }\n  }\n\n/**\n * RESELLER COMMERCE\n * ===============================================================================================\n */\n\n  function unlockResaleQuantity(uint256 _configID, uint256 _quantity) public purchaseRequired {\n    require(globalConfigs_[_configID].maxNumResales > 0, \"Not a valid resale configuration.\");\n    bytes32 hashedAddress = keccak256(abi.encodePacked(msg.sender));\n    require(_quantity + purchases_[hashedAddress].configs[_configID].available <= purchases_[hashedAddress].configs[_configID].quantity, \"Cannot unlock more for resale than owned.\");\n    purchases_[hashedAddress].configs[_configID].available += _quantity;\n    assert(purchases_[hashedAddress].configs[_configID].available <= purchases_[hashedAddress].configs[_configID].quantity);\n    emit ResaleUnlocked(did_, msg.sender, purchases_[hashedAddress].configs[_configID].available);\n  }\n\n  function lockResaleQuantity(uint256 _configID, uint256 _quantity) public purchaseRequired {\n    require(globalConfigs_[_configID].maxNumResales > 0, \"Not a valid resale configuration.\");\n    bytes32 hashedAddress = keccak256(abi.encodePacked(msg.sender));\n    require(purchases_[hashedAddress].configs[_configID].available >= _quantity, \"Cannot lock more than is available for resale.\");\n    purchases_[hashedAddress].configs[_configID].available -= _quantity;\n    assert(purchases_[hashedAddress].configs[_configID].available <= purchases_[hashedAddress].configs[_configID].quantity);\n    emit ResaleLocked(did_, msg.sender, purchases_[hashedAddress].configs[_configID].available);\n  }\n\n  function setResalePrice(uint256 _configID, uint256 _price) external purchaseRequired {\n    require(globalConfigs_[_configID].maxNumResales > 0, \"Not a valid resale configuration.\");\n    bytes32 hashedAddress = keccak256(abi.encodePacked(msg.sender));\n    require(_price >= globalConfigs_[_configID].minResalePrice, \"Resale price must be at least the minimum resale price.\");\n    purchases_[hashedAddress].configs[_configID].resalePrice = _price;\n    emit ResalePriceSet(did_, msg.sender, _price);\n  }\n\n  function getResaleConfig(bytes32 _owner, uint256 _id) public view returns (uint256 minResalePrice, uint256 maxNumResales, uint256 resalePrice, uint256 available, uint256 quantity) {\n    ResaleConfig storage config = purchases_[_owner].configs[_id];\n    return (globalConfigs_[_id].minResalePrice, globalConfigs_[_id].maxNumResales, config.resalePrice, config.available, config.quantity);\n  }\n\n/**\n * PURCHASE\n * ===============================================================================================\n */\n\n  /**\n   * @dev Purchases this AFS and adds it to _purchaser's library. \n   *      If _download is true, deposits any remaining allowance \n   *      as rewards for this purchase\n   * @param _purchaser The hashed methodless did of the purchaser\n   * @param _jobId The jobId of the download, or 0x00000000000000000000000000000000 if N/A\n   * @param _budget The reward budget for jobId, or 0 if N/A\n   */\n  function purchase(bytes32 _purchaser, uint256 _quantity, bytes32 _jobId, uint256 _budget) external {\n    require(listed_, \"AFS has not been listed for sale.\");\n    require(totalCopies_ != 0 || unlimited_, \"No more copies available for purchase.\");\n    require(_quantity > 0, \"Must purchase at least 1 copy.\");\n    require(totalCopies_ >= _quantity || unlimited_, \"Cannot purchase more copies than are available.\");\n\n    uint256 allowance = token_.allowance(msg.sender, address(this));\n    bytes32 hashedAddress = keccak256(abi.encodePacked(msg.sender));\n    uint256 totalPrice = _quantity * getPrice(_quantity);\n    require(allowance >= (totalPrice) + _budget, \"Proxy must be approved for purchase.\");\n\n    if(royalties_.hashedAddresses.length == 0) {\n      require(token_.transferFrom(msg.sender, owner_, totalPrice), \"Ara transfer failed.\");\n    } else {  \n      // pay out owner\n      uint256 ownerProfit = (totalPrice * (royalties_.ownerProfit / royaltyMultiplier)) + ((totalPrice * royalties_.ownerProfit) % royaltyMultiplier);\n      require(token_.transferFrom(msg.sender, owner_, ownerProfit), \"Ara transfer failed.\");\n      \n      uint256[] profits;\n      for(uint256 i = 0; i < royalties_.hashedAddresses.length; i++) {\n        uint256 amount = royalties_.split[royalties_.hashedAddresses[i]];\n        uint256 profit = (totalPrice * (amount / royaltyMultiplier)) + ((totalPrice * amount) % royaltyMultiplier);\n        profits.push(profit);\n        rewards_[royalties_.hashedAddresses[i]] += profit;\n      }\n      emit RoyaltiesPaidOut(totalPrice, royalties_.ownerProfit, royaltyMultiplier);\n      \n    }\n\n    if (resellable_) {\n      if (purchases_[hashedAddress].configs[currGlobalConfigID_].enabled) {\n        purchases_[hashedAddress].configs[currGlobalConfigID_].quantity += _quantity;\n      } else {\n        ResaleConfig memory config;\n        config.resalePrice = globalConfigs_[currGlobalConfigID_].minResalePrice;\n        config.quantity = _quantity;\n        config.enabled = true;\n\n        purchases_[hashedAddress].configIDIndices[currGlobalConfigID_] = purchases_[hashedAddress].configIDs.length;\n        purchases_[hashedAddress].configIDs.push(currGlobalConfigID_);\n        purchases_[hashedAddress].configs[currGlobalConfigID_] = config;\n      }\n      ResaleConfig storage stConfig = purchases_[hashedAddress].configs[currGlobalConfigID_];\n      stConfig.resales.length += _quantity;\n    } else {\n      purchases_[hashedAddress].quantity += _quantity;\n    }\n\n    if (totalCopies_ > 0) {\n      totalCopies_ -= _quantity;\n      if (totalCopies_ == 0) {\n        listed_ = false;\n        emit Unlisted(did_);\n      }\n    }\n\n    if (!lib_.owns(_purchaser, did_)) {\n      lib_.addLibraryItem(_purchaser, did_);\n    }\n\n    emit Purchased(_purchaser, did_, _quantity, totalPrice, currGlobalConfigID_);\n\n    if (_jobId != bytes32(0) && _budget > 0) {\n      submitBudget(_jobId, _budget);\n    }\n  }\n\n  /**\n   * @param _seller seller's Ethereum address\n   * \n   */\n  function purchaseResale(address _seller, uint256 _configID, bytes32 _purchaser, uint256 _quantity, bytes32 _jobId, uint256 _budget) external {\n    require(_quantity > 0, \"Must purchase at least 1 copy.\");\n    bytes32 seller = keccak256(abi.encodePacked(_seller));\n    ResaleConfig storage sellerConfig = purchases_[seller].configs[_configID];\n\n    require(sellerConfig.enabled, \"Please provide a valid seller resale configuration.\");\n    require(sellerConfig.available >= _quantity, \"This quantity is not available for resale from this seller using this resale configuration.\");\n\n    uint256 totalPrice = _quantity * sellerConfig.resalePrice;\n    require(token_.allowance(msg.sender, address(this)) >= totalPrice + _budget, \"Proxy must be approved for purchase.\");\n\n    // transfer minimum resale price to owner and transfer remainder to reseller\n    require(token_.transferFrom(msg.sender, _seller, _quantity * (sellerConfig.resalePrice - globalConfigs_[_configID].minResalePrice))\n      && token_.transferFrom(msg.sender, owner_, _quantity * globalConfigs_[_configID].minResalePrice), \"Ara transfer failed.\");\n    \n    // decrement seller resale availability/quantity\n    sellerConfig.quantity -= _quantity;\n    sellerConfig.available -= _quantity;\n\n    bytes32 purchaser = keccak256(abi.encodePacked(msg.sender));\n    Purchases storage purchaserPurchases = purchases_[purchaser];\n\n    if (!purchaserPurchases.configs[_configID].enabled) {\n      _createConfig(purchaser, _configID);\n    }\n\n    _setupResaleTracker(purchaser, _configID, _quantity, sellerConfig);\n\n    if (!lib_.owns(_purchaser, did_)) {\n      lib_.addLibraryItem(_purchaser, did_);\n    }\n\n    emit PurchasedResale(_purchaser, _seller, did_, _quantity, totalPrice, _configID);\n\n    if (sellerConfig.quantity == 0) {\n      _deleteConfig(seller, _configID, seller);\n    }\n\n    if (_jobId != bytes32(0) && _budget > 0) {\n      submitBudget(_jobId, _budget);\n    }\n  }\n\n  function _createConfig(bytes32 _owner, uint256 _id) internal {\n    ResaleConfig memory newConfig;\n\n    newConfig.resalePrice = globalConfigs_[_id].minResalePrice;\n    newConfig.enabled = true;\n\n    Purchases storage purchases = purchases_[_owner];\n\n    purchases.configIDIndices[_id] = purchases_[_owner].configIDs.length;\n    purchases.configIDs.push(_id);\n    purchases.configs[_id] = newConfig;\n  }\n\n  function _setupResaleTracker(bytes32 _owner, uint256 _id, uint256 _quantity, ResaleConfig storage oldConfig) internal {\n    Purchases storage purchases = purchases_[_owner];\n\n    uint256 soldCopyIndex;\n    for (uint256 i = 0; i < _quantity; i++) {\n      soldCopyIndex = i + oldConfig.quantity;\n      uint256 resaleCount = oldConfig.resales[soldCopyIndex] + 1;\n      if (resaleCount < globalConfigs_[_id].maxNumResales) {\n        purchases.configs[_id].resales.push(resaleCount); // update resale count for purchaser with old resale count + 1\n        purchases.configs[_id].quantity++;\n      } else {\n        purchases.quantity++;\n      }\n      delete oldConfig.resales[soldCopyIndex]; // delete resale count for sold copies\n    }\n  }\n\n  function _deleteConfig(bytes32 seller, uint256 _id, bytes32 _seller) internal {\n    // delete config\n    Purchases storage sellerPurchases = purchases_[_seller];\n    delete sellerPurchases.configs[_id]; // delete config mapping\n    uint256 configIDIndex = sellerPurchases.configIDIndices[_id]; // get configID index\n    delete sellerPurchases.configIDIndices[_id]; // delete configID index mapping\n    sellerPurchases.configIDs[configIDIndex] = sellerPurchases.configIDs[sellerPurchases.configIDs.length - 1]; // move last configID into deleted configID position\n    delete sellerPurchases.configIDs[sellerPurchases.configIDs.length - 1]; // delete last configID\n\n    if (sellerPurchases.configIDs.length == 0) {\n      lib_.removeLibraryItem(seller, did_);\n    }\n  }\n\n/**\n * REWARDS\n * ===============================================================================================\n */\n\n  function submitBudget(bytes32 _jobId, uint256 _budget) public purchaseRequired {\n    uint256 allowance = token_.allowance(msg.sender, address(this));\n    require(_jobId != bytes32(0) && _budget > 0 && allowance >= _budget\n      && (jobs_[_jobId].sender == address(0) || jobs_[_jobId].sender == msg.sender), \"Job submission invalid.\");\n\n    if (token_.transferFrom(msg.sender, address(this), _budget)) {\n      jobs_[_jobId].budget += _budget;\n      jobs_[_jobId].sender = msg.sender;\n      assert(jobs_[_jobId].budget <= token_.balanceOf(address(this)));\n      emit BudgetSubmitted(did_, _jobId, _budget);\n    }\n  }\n\n  function getBudget(bytes32 _jobId) public view returns (uint256) {\n    return jobs_[_jobId].budget;\n  }\n\n  function allocateRewards(bytes32 _jobId, bytes32[] _farmers, uint256[] _rewards) public budgetSubmitted(_jobId) {\n    require(_farmers.length == _rewards.length, \"Unequal number of farmers and rewards.\");\n    uint256 totalRewards;\n    for (uint8 i = 0; i < _rewards.length; i++) {\n      totalRewards += _rewards[i];\n    }\n    require(totalRewards <= jobs_[_jobId].budget, \"Insufficient budget.\");\n    for (uint8 j = 0; j < _farmers.length; j++) {\n      assert(jobs_[_jobId].budget >= _rewards[j]);\n      rewards_[_farmers[j]] = _rewards[j];\n      jobs_[_jobId].budget -= _rewards[j];\n    }\n    uint256 remaining = jobs_[_jobId].budget;\n    if (remaining > 0) {\n      rewards_[keccak256(abi.encodePacked(msg.sender))] = remaining;\n      jobs_[_jobId].budget = 0;\n      redeemBalance();\n    }\n    emit RewardsAllocated(did_, totalRewards, remaining);\n  }\n\n  function redeemBalance() public {\n    bytes32 hashedAddress = keccak256(abi.encodePacked(msg.sender));\n    require(rewards_[hashedAddress] > 0, \"No balance to redeem.\");\n    if (token_.transfer(msg.sender, rewards_[hashedAddress])) {\n      rewards_[hashedAddress] = 0;\n      emit Redeemed(msg.sender);\n    }\n  }\n\n  function getRewardsBalance(address _farmer) public view returns (uint256) {\n    return rewards_[keccak256(abi.encodePacked(_farmer))];\n  }\n\n/**\n * STORAGE\n * ===============================================================================================\n */\n\n  function append(uint256[] _mtOffsets, uint256[] _msOffsets, bytes _mtBuffer, \n    bytes _msBuffer, bool _list) external onlyBy(owner_) {\n    \n    listed_ = listed_ || _list;\n\n    uint256 maxOffsetLength = _mtOffsets.length > _msOffsets.length \n      ? _mtOffsets.length \n      : _msOffsets.length;\n\n    for (uint i = 0; i < maxOffsetLength; i++) {\n      // metadata/tree\n      if (i <= _mtOffsets.length - 1) {\n        metadata_[0][_mtOffsets[i]] = _mtBuffer.slice(i * mtBufferSize_, mtBufferSize_);\n      }\n\n      // metadata/signatures\n      if (i <= _msOffsets.length - 1) {\n        metadata_[1][_msOffsets[i]] = _msBuffer.slice(i * msBufferSize_, msBufferSize_);\n      }\n    }\n\n    emit Commit(did_);\n  }\n\n  function write(uint256[] _mtOffsets, uint256[] _msOffsets, bytes _mtBuffer, \n    bytes _msBuffer, bool _list) public onlyBy(owner_) {\n\n    listed_ = listed_ || _list;\n\n    uint256 maxOffsetLength = _mtOffsets.length > _msOffsets.length \n      ? _mtOffsets.length \n      : _msOffsets.length;\n\n    // add headers\n    metadata_[0][0] = _mtBuffer.slice(0, 32);\n    metadata_[1][0] = _msBuffer.slice(0, 32);\n\n    for (uint i = 1; i < maxOffsetLength; i++) {\n      // metadata/tree\n      if (i <= _mtOffsets.length - 1) {\n        metadata_[0][_mtOffsets[i]] = _mtBuffer.slice(_mtOffsets[i], mtBufferSize_);\n      }\n      \n      // metadata/signatures\n      if (i <= _msOffsets.length - 1) {\n        metadata_[1][_msOffsets[i]] = _msBuffer.slice(_msOffsets[i], msBufferSize_);\n      }\n    }\n\n    emit Commit(did_);\n  }\n\n  function read(uint8 _file, uint256 _offset) public view returns (bytes buffer) {\n    if (!listed_) {\n      return \"\"; // empty bytes\n    }\n    return metadata_[_file][_offset];\n  }\n\n  function hasBuffer(uint8 _file, uint256 _offset, bytes _buffer) public view returns (bool exists) {\n    return metadata_[_file][_offset].equal(_buffer);\n  }\n}\n",
  "sourcePath": "/Users/charles/Desktop/Development/Ara/ara-contracts/contracts/AFS.sol",
  "compiler": {
    "name": "solc",
    "version": "0.4.24+commit.e67f0147.Emscripten.clang"
  },
  "schemaVersion": "2.0.1",
  "updatedAt": "2018-10-22T16:24:59.791Z"
}