{
  "contractName": "AFS",
  "abi": [
    {
      "constant": true,
      "inputs": [
        {
          "name": "",
          "type": "uint256"
        }
      ],
      "name": "priceTiers_",
      "outputs": [
        {
          "name": "",
          "type": "uint256"
        }
      ],
      "payable": false,
      "stateMutability": "view",
      "type": "function"
    },
    {
      "constant": true,
      "inputs": [
        {
          "name": "",
          "type": "bytes32"
        }
      ],
      "name": "jobs_",
      "outputs": [
        {
          "name": "sender",
          "type": "address"
        },
        {
          "name": "budget",
          "type": "uint256"
        }
      ],
      "payable": false,
      "stateMutability": "view",
      "type": "function"
    },
    {
      "constant": true,
      "inputs": [
        {
          "name": "",
          "type": "bytes32"
        }
      ],
      "name": "purchases_",
      "outputs": [
        {
          "name": "quantity",
          "type": "uint256"
        }
      ],
      "payable": false,
      "stateMutability": "view",
      "type": "function"
    },
    {
      "constant": true,
      "inputs": [],
      "name": "listed_",
      "outputs": [
        {
          "name": "",
          "type": "bool"
        }
      ],
      "payable": false,
      "stateMutability": "view",
      "type": "function"
    },
    {
      "constant": true,
      "inputs": [],
      "name": "resellable_",
      "outputs": [
        {
          "name": "",
          "type": "bool"
        }
      ],
      "payable": false,
      "stateMutability": "view",
      "type": "function"
    },
    {
      "constant": true,
      "inputs": [],
      "name": "decimals",
      "outputs": [
        {
          "name": "",
          "type": "uint256"
        }
      ],
      "payable": false,
      "stateMutability": "view",
      "type": "function"
    },
    {
      "constant": true,
      "inputs": [
        {
          "name": "",
          "type": "uint8"
        },
        {
          "name": "",
          "type": "uint256"
        }
      ],
      "name": "metadata_",
      "outputs": [
        {
          "name": "",
          "type": "bytes"
        }
      ],
      "payable": false,
      "stateMutability": "view",
      "type": "function"
    },
    {
      "constant": true,
      "inputs": [],
      "name": "lib_",
      "outputs": [
        {
          "name": "",
          "type": "address"
        }
      ],
      "payable": false,
      "stateMutability": "view",
      "type": "function"
    },
    {
      "constant": true,
      "inputs": [],
      "name": "did_",
      "outputs": [
        {
          "name": "",
          "type": "bytes32"
        }
      ],
      "payable": false,
      "stateMutability": "view",
      "type": "function"
    },
    {
      "constant": false,
      "inputs": [
        {
          "name": "_newOwner",
          "type": "address"
        }
      ],
      "name": "approveOwnershipTransfer",
      "outputs": [],
      "payable": false,
      "stateMutability": "nonpayable",
      "type": "function"
    },
    {
      "constant": true,
      "inputs": [],
      "name": "currGlobalConfigID_",
      "outputs": [
        {
          "name": "",
          "type": "uint256"
        }
      ],
      "payable": false,
      "stateMutability": "view",
      "type": "function"
    },
    {
      "constant": true,
      "inputs": [
        {
          "name": "",
          "type": "bytes32"
        }
      ],
      "name": "rewards_",
      "outputs": [
        {
          "name": "",
          "type": "uint256"
        }
      ],
      "payable": false,
      "stateMutability": "view",
      "type": "function"
    },
    {
      "constant": false,
      "inputs": [],
      "name": "requestOwnership",
      "outputs": [],
      "payable": false,
      "stateMutability": "nonpayable",
      "type": "function"
    },
    {
      "constant": true,
      "inputs": [],
      "name": "royalties_",
      "outputs": [
        {
          "name": "totalRoyalties",
          "type": "uint256"
        }
      ],
      "payable": false,
      "stateMutability": "view",
      "type": "function"
    },
    {
      "constant": true,
      "inputs": [
        {
          "name": "",
          "type": "bytes32"
        }
      ],
      "name": "requesters_",
      "outputs": [
        {
          "name": "",
          "type": "bool"
        }
      ],
      "payable": false,
      "stateMutability": "view",
      "type": "function"
    },
    {
      "constant": true,
      "inputs": [
        {
          "name": "",
          "type": "uint256"
        }
      ],
      "name": "globalConfigs_",
      "outputs": [
        {
          "name": "locked",
          "type": "bool"
        },
        {
          "name": "minResalePrice",
          "type": "uint256"
        },
        {
          "name": "maxNumResales",
          "type": "uint256"
        }
      ],
      "payable": false,
      "stateMutability": "view",
      "type": "function"
    },
    {
      "constant": true,
      "inputs": [],
      "name": "unlimited_",
      "outputs": [
        {
          "name": "",
          "type": "bool"
        }
      ],
      "payable": false,
      "stateMutability": "view",
      "type": "function"
    },
    {
      "constant": true,
      "inputs": [],
      "name": "token_",
      "outputs": [
        {
          "name": "",
          "type": "address"
        }
      ],
      "payable": false,
      "stateMutability": "view",
      "type": "function"
    },
    {
      "constant": true,
      "inputs": [],
      "name": "totalCopies_",
      "outputs": [
        {
          "name": "",
          "type": "uint256"
        }
      ],
      "payable": false,
      "stateMutability": "view",
      "type": "function"
    },
    {
      "constant": true,
      "inputs": [],
      "name": "owner_",
      "outputs": [
        {
          "name": "",
          "type": "address"
        }
      ],
      "payable": false,
      "stateMutability": "view",
      "type": "function"
    },
    {
      "constant": true,
      "inputs": [
        {
          "name": "",
          "type": "uint256"
        }
      ],
      "name": "prices_",
      "outputs": [
        {
          "name": "",
          "type": "uint256"
        }
      ],
      "payable": false,
      "stateMutability": "view",
      "type": "function"
    },
    {
      "constant": false,
      "inputs": [],
      "name": "revokeOwnershipRequest",
      "outputs": [],
      "payable": false,
      "stateMutability": "nonpayable",
      "type": "function"
    },
    {
      "anonymous": false,
      "inputs": [
        {
          "indexed": false,
          "name": "_did",
          "type": "bytes32"
        }
      ],
      "name": "Commit",
      "type": "event"
    },
    {
      "anonymous": false,
      "inputs": [
        {
          "indexed": false,
          "name": "_did",
          "type": "bytes32"
        }
      ],
      "name": "Unlisted",
      "type": "event"
    },
    {
      "anonymous": false,
      "inputs": [
        {
          "indexed": false,
          "name": "_did",
          "type": "bytes32"
        }
      ],
      "name": "Listed",
      "type": "event"
    },
    {
      "anonymous": false,
      "inputs": [
        {
          "indexed": false,
          "name": "_did",
          "type": "bytes32"
        },
        {
          "indexed": false,
          "name": "_price",
          "type": "uint256"
        }
      ],
      "name": "MinResalePriceSet",
      "type": "event"
    },
    {
      "anonymous": false,
      "inputs": [
        {
          "indexed": false,
          "name": "_did",
          "type": "bytes32"
        },
        {
          "indexed": false,
          "name": "_purchaser",
          "type": "address"
        },
        {
          "indexed": false,
          "name": "_price",
          "type": "uint256"
        }
      ],
      "name": "ResalePriceSet",
      "type": "event"
    },
    {
      "anonymous": false,
      "inputs": [
        {
          "indexed": false,
          "name": "_did",
          "type": "bytes32"
        },
        {
          "indexed": false,
          "name": "_quantity",
          "type": "uint256"
        }
      ],
      "name": "MaxNumResalesSet",
      "type": "event"
    },
    {
      "anonymous": false,
      "inputs": [
        {
          "indexed": false,
          "name": "_did",
          "type": "bytes32"
        },
        {
          "indexed": false,
          "name": "_quantity",
          "type": "uint256"
        },
        {
          "indexed": false,
          "name": "_price",
          "type": "uint256"
        }
      ],
      "name": "PriceSet",
      "type": "event"
    },
    {
      "anonymous": false,
      "inputs": [
        {
          "indexed": false,
          "name": "_did",
          "type": "bytes32"
        },
        {
          "indexed": false,
          "name": "_jobId",
          "type": "bytes32"
        },
        {
          "indexed": false,
          "name": "_budget",
          "type": "uint256"
        }
      ],
      "name": "BudgetSubmitted",
      "type": "event"
    },
    {
      "anonymous": false,
      "inputs": [
        {
          "indexed": false,
          "name": "_did",
          "type": "bytes32"
        },
        {
          "indexed": false,
          "name": "_allocated",
          "type": "uint256"
        },
        {
          "indexed": false,
          "name": "_returned",
          "type": "uint256"
        }
      ],
      "name": "RewardsAllocated",
      "type": "event"
    },
    {
      "anonymous": false,
      "inputs": [
        {
          "indexed": false,
          "name": "_purchaser",
          "type": "bytes32"
        },
        {
          "indexed": false,
          "name": "_did",
          "type": "bytes32"
        },
        {
          "indexed": false,
          "name": "_quantity",
          "type": "uint256"
        },
        {
          "indexed": false,
          "name": "_price",
          "type": "uint256"
        },
        {
          "indexed": false,
          "name": "_configID",
          "type": "uint256"
        }
      ],
      "name": "Purchased",
      "type": "event"
    },
    {
      "anonymous": false,
      "inputs": [
        {
          "indexed": false,
          "name": "_purchaser",
          "type": "bytes32"
        },
        {
          "indexed": false,
          "name": "_seller",
          "type": "address"
        },
        {
          "indexed": false,
          "name": "_did",
          "type": "bytes32"
        },
        {
          "indexed": false,
          "name": "_quantity",
          "type": "uint256"
        },
        {
          "indexed": false,
          "name": "_price",
          "type": "uint256"
        },
        {
          "indexed": false,
          "name": "_configID",
          "type": "uint256"
        }
      ],
      "name": "PurchasedResale",
      "type": "event"
    },
    {
      "anonymous": false,
      "inputs": [
        {
          "indexed": false,
          "name": "_sender",
          "type": "address"
        }
      ],
      "name": "Redeemed",
      "type": "event"
    },
    {
      "anonymous": false,
      "inputs": [
        {
          "indexed": false,
          "name": "_did",
          "type": "bytes32"
        },
        {
          "indexed": false,
          "name": "_added",
          "type": "uint256"
        },
        {
          "indexed": false,
          "name": "_total",
          "type": "uint256"
        }
      ],
      "name": "IncreasedSupply",
      "type": "event"
    },
    {
      "anonymous": false,
      "inputs": [
        {
          "indexed": false,
          "name": "_did",
          "type": "bytes32"
        },
        {
          "indexed": false,
          "name": "_removed",
          "type": "uint256"
        },
        {
          "indexed": false,
          "name": "_total",
          "type": "uint256"
        }
      ],
      "name": "DecreasedSupply",
      "type": "event"
    },
    {
      "anonymous": false,
      "inputs": [
        {
          "indexed": false,
          "name": "_did",
          "type": "bytes32"
        },
        {
          "indexed": false,
          "name": "_quantity",
          "type": "uint256"
        }
      ],
      "name": "SupplySet",
      "type": "event"
    },
    {
      "anonymous": false,
      "inputs": [
        {
          "indexed": false,
          "name": "_did",
          "type": "bytes32"
        },
        {
          "indexed": false,
          "name": "_seller",
          "type": "address"
        },
        {
          "indexed": false,
          "name": "_available",
          "type": "uint256"
        }
      ],
      "name": "ResaleUnlocked",
      "type": "event"
    },
    {
      "anonymous": false,
      "inputs": [
        {
          "indexed": false,
          "name": "_did",
          "type": "bytes32"
        },
        {
          "indexed": false,
          "name": "_seller",
          "type": "address"
        },
        {
          "indexed": false,
          "name": "_available",
          "type": "uint256"
        }
      ],
      "name": "ResaleLocked",
      "type": "event"
    },
    {
      "anonymous": false,
      "inputs": [
        {
          "indexed": false,
          "name": "_did",
          "type": "bytes32"
        }
      ],
      "name": "MarkedForResale",
      "type": "event"
    },
    {
      "anonymous": false,
      "inputs": [
        {
          "indexed": false,
          "name": "_did",
          "type": "bytes32"
        }
      ],
      "name": "MarkedNotForResale",
      "type": "event"
    },
    {
      "anonymous": false,
      "inputs": [
        {
          "indexed": false,
          "name": "_did",
          "type": "bytes32"
        }
      ],
      "name": "ResaleUnlocked",
      "type": "event"
    },
    {
      "anonymous": false,
      "inputs": [
        {
          "indexed": false,
          "name": "_did",
          "type": "bytes32"
        }
      ],
      "name": "ResaleLocked",
      "type": "event"
    },
    {
      "anonymous": false,
      "inputs": [],
      "name": "RoyaltiesUpdated",
      "type": "event"
    },
    {
      "anonymous": false,
      "inputs": [
        {
          "indexed": true,
          "name": "_previousOwner",
          "type": "address"
        },
        {
          "indexed": true,
          "name": "_newOwner",
          "type": "address"
        }
      ],
      "name": "TransferApproved",
      "type": "event"
    },
    {
      "anonymous": false,
      "inputs": [
        {
          "indexed": true,
          "name": "_currentOwner",
          "type": "address"
        },
        {
          "indexed": true,
          "name": "_requestedOwner",
          "type": "address"
        }
      ],
      "name": "TransferRequested",
      "type": "event"
    },
    {
      "anonymous": false,
      "inputs": [
        {
          "indexed": true,
          "name": "_currentOwner",
          "type": "address"
        },
        {
          "indexed": true,
          "name": "_requestOwner",
          "type": "address"
        }
      ],
      "name": "RequestRevoked",
      "type": "event"
    },
    {
      "constant": false,
      "inputs": [
        {
          "name": "_data",
          "type": "bytes"
        }
      ],
      "name": "init",
      "outputs": [],
      "payable": false,
      "stateMutability": "nonpayable",
      "type": "function"
    },
    {
      "constant": false,
      "inputs": [],
      "name": "list",
      "outputs": [],
      "payable": false,
      "stateMutability": "nonpayable",
      "type": "function"
    },
    {
      "constant": false,
      "inputs": [],
      "name": "unlist",
      "outputs": [],
      "payable": false,
      "stateMutability": "nonpayable",
      "type": "function"
    },
    {
      "constant": false,
      "inputs": [
        {
          "name": "_globalConfigID",
          "type": "uint256"
        }
      ],
      "name": "unlockResale",
      "outputs": [],
      "payable": false,
      "stateMutability": "nonpayable",
      "type": "function"
    },
    {
      "constant": false,
      "inputs": [],
      "name": "lockResale",
      "outputs": [],
      "payable": false,
      "stateMutability": "nonpayable",
      "type": "function"
    },
    {
      "constant": false,
      "inputs": [
        {
          "name": "_quantity",
          "type": "uint256"
        },
        {
          "name": "_price",
          "type": "uint256"
        }
      ],
      "name": "setPrice",
      "outputs": [],
      "payable": false,
      "stateMutability": "nonpayable",
      "type": "function"
    },
    {
      "constant": true,
      "inputs": [
        {
          "name": "_quantity",
          "type": "uint256"
        }
      ],
      "name": "getPrice",
      "outputs": [
        {
          "name": "",
          "type": "uint256"
        }
      ],
      "payable": false,
      "stateMutability": "view",
      "type": "function"
    },
    {
      "constant": false,
      "inputs": [
        {
          "name": "_quantity",
          "type": "uint256"
        }
      ],
      "name": "removePriceTier",
      "outputs": [],
      "payable": false,
      "stateMutability": "nonpayable",
      "type": "function"
    },
    {
      "constant": false,
      "inputs": [
        {
          "name": "_configID",
          "type": "uint256"
        },
        {
          "name": "_price",
          "type": "uint256"
        }
      ],
      "name": "setMinResalePrice",
      "outputs": [],
      "payable": false,
      "stateMutability": "nonpayable",
      "type": "function"
    },
    {
      "constant": false,
      "inputs": [
        {
          "name": "_configID",
          "type": "uint256"
        },
        {
          "name": "_quantity",
          "type": "uint256"
        }
      ],
      "name": "setResaleQuantity",
      "outputs": [],
      "payable": false,
      "stateMutability": "nonpayable",
      "type": "function"
    },
    {
      "constant": false,
      "inputs": [
        {
          "name": "_quantity",
          "type": "uint256"
        }
      ],
      "name": "setSupply",
      "outputs": [],
      "payable": false,
      "stateMutability": "nonpayable",
      "type": "function"
    },
    {
      "constant": false,
      "inputs": [
        {
          "name": "_quantity",
          "type": "uint256"
        }
      ],
      "name": "increaseSupply",
      "outputs": [],
      "payable": false,
      "stateMutability": "nonpayable",
      "type": "function"
    },
    {
      "constant": false,
      "inputs": [
        {
          "name": "_quantity",
          "type": "uint256"
        }
      ],
      "name": "decreaseSupply",
      "outputs": [],
      "payable": false,
      "stateMutability": "nonpayable",
      "type": "function"
    },
    {
      "constant": false,
      "inputs": [],
      "name": "setUnlimitedSupply",
      "outputs": [],
      "payable": false,
      "stateMutability": "nonpayable",
      "type": "function"
    },
    {
      "constant": false,
      "inputs": [
        {
          "name": "addresses",
          "type": "address[]"
        },
        {
          "name": "amounts",
          "type": "uint256[]"
        },
        {
          "name": "total",
          "type": "uint256"
        }
      ],
      "name": "setRoyalties",
      "outputs": [],
      "payable": false,
      "stateMutability": "nonpayable",
      "type": "function"
    },
    {
      "constant": false,
      "inputs": [
        {
          "name": "_configID",
          "type": "uint256"
        },
        {
          "name": "_quantity",
          "type": "uint256"
        }
      ],
      "name": "unlockResaleQuantity",
      "outputs": [],
      "payable": false,
      "stateMutability": "nonpayable",
      "type": "function"
    },
    {
      "constant": false,
      "inputs": [
        {
          "name": "_configID",
          "type": "uint256"
        },
        {
          "name": "_quantity",
          "type": "uint256"
        }
      ],
      "name": "lockResaleQuantity",
      "outputs": [],
      "payable": false,
      "stateMutability": "nonpayable",
      "type": "function"
    },
    {
      "constant": false,
      "inputs": [
        {
          "name": "_configID",
          "type": "uint256"
        },
        {
          "name": "_price",
          "type": "uint256"
        }
      ],
      "name": "setResalePrice",
      "outputs": [],
      "payable": false,
      "stateMutability": "nonpayable",
      "type": "function"
    },
    {
      "constant": false,
      "inputs": [
        {
          "name": "_purchaser",
          "type": "bytes32"
        },
        {
          "name": "_quantity",
          "type": "uint256"
        },
        {
          "name": "_jobId",
          "type": "bytes32"
        },
        {
          "name": "_budget",
          "type": "uint256"
        }
      ],
      "name": "purchase",
      "outputs": [],
      "payable": false,
      "stateMutability": "nonpayable",
      "type": "function"
    },
    {
      "constant": false,
      "inputs": [
        {
          "name": "_seller",
          "type": "address"
        },
        {
          "name": "_configID",
          "type": "uint256"
        },
        {
          "name": "_purchaser",
          "type": "bytes32"
        },
        {
          "name": "_quantity",
          "type": "uint256"
        },
        {
          "name": "_jobId",
          "type": "bytes32"
        },
        {
          "name": "_budget",
          "type": "uint256"
        }
      ],
      "name": "purchaseResale",
      "outputs": [],
      "payable": false,
      "stateMutability": "nonpayable",
      "type": "function"
    },
    {
      "constant": true,
      "inputs": [
        {
          "name": "_owner",
          "type": "bytes32"
        },
        {
          "name": "_id",
          "type": "uint256"
        }
      ],
      "name": "getResaleConfig",
      "outputs": [
        {
          "name": "minResalePrice",
          "type": "uint256"
        },
        {
          "name": "maxNumResales",
          "type": "uint256"
        },
        {
          "name": "resalePrice",
          "type": "uint256"
        },
        {
          "name": "available",
          "type": "uint256"
        },
        {
          "name": "quantity",
          "type": "uint256"
        }
      ],
      "payable": false,
      "stateMutability": "view",
      "type": "function"
    },
    {
      "constant": false,
      "inputs": [
        {
          "name": "_jobId",
          "type": "bytes32"
        },
        {
          "name": "_budget",
          "type": "uint256"
        }
      ],
      "name": "submitBudget",
      "outputs": [],
      "payable": false,
      "stateMutability": "nonpayable",
      "type": "function"
    },
    {
      "constant": true,
      "inputs": [
        {
          "name": "_jobId",
          "type": "bytes32"
        }
      ],
      "name": "getBudget",
      "outputs": [
        {
          "name": "",
          "type": "uint256"
        }
      ],
      "payable": false,
      "stateMutability": "view",
      "type": "function"
    },
    {
      "constant": false,
      "inputs": [
        {
          "name": "_jobId",
          "type": "bytes32"
        },
        {
          "name": "_farmers",
          "type": "bytes32[]"
        },
        {
          "name": "_rewards",
          "type": "uint256[]"
        }
      ],
      "name": "allocateRewards",
      "outputs": [],
      "payable": false,
      "stateMutability": "nonpayable",
      "type": "function"
    },
    {
      "constant": false,
      "inputs": [],
      "name": "redeemBalance",
      "outputs": [],
      "payable": false,
      "stateMutability": "nonpayable",
      "type": "function"
    },
    {
      "constant": true,
      "inputs": [
        {
          "name": "_farmer",
          "type": "address"
        }
      ],
      "name": "getRewardsBalance",
      "outputs": [
        {
          "name": "",
          "type": "uint256"
        }
      ],
      "payable": false,
      "stateMutability": "view",
      "type": "function"
    },
    {
      "constant": false,
      "inputs": [
        {
          "name": "_mtOffsets",
          "type": "uint256[]"
        },
        {
          "name": "_msOffsets",
          "type": "uint256[]"
        },
        {
          "name": "_mtBuffer",
          "type": "bytes"
        },
        {
          "name": "_msBuffer",
          "type": "bytes"
        },
        {
          "name": "_list",
          "type": "bool"
        }
      ],
      "name": "append",
      "outputs": [],
      "payable": false,
      "stateMutability": "nonpayable",
      "type": "function"
    },
    {
      "constant": false,
      "inputs": [
        {
          "name": "_mtOffsets",
          "type": "uint256[]"
        },
        {
          "name": "_msOffsets",
          "type": "uint256[]"
        },
        {
          "name": "_mtBuffer",
          "type": "bytes"
        },
        {
          "name": "_msBuffer",
          "type": "bytes"
        },
        {
          "name": "_list",
          "type": "bool"
        }
      ],
      "name": "write",
      "outputs": [],
      "payable": false,
      "stateMutability": "nonpayable",
      "type": "function"
    },
    {
      "constant": true,
      "inputs": [
        {
          "name": "_file",
          "type": "uint8"
        },
        {
          "name": "_offset",
          "type": "uint256"
        }
      ],
      "name": "read",
      "outputs": [
        {
          "name": "buffer",
          "type": "bytes"
        }
      ],
      "payable": false,
      "stateMutability": "view",
      "type": "function"
    },
    {
      "constant": true,
      "inputs": [
        {
          "name": "_file",
          "type": "uint8"
        },
        {
          "name": "_offset",
          "type": "uint256"
        },
        {
          "name": "_buffer",
          "type": "bytes"
        }
      ],
      "name": "hasBuffer",
      "outputs": [
        {
          "name": "exists",
          "type": "bool"
        }
      ],
      "payable": false,
      "stateMutability": "view",
      "type": "function"
    }
  ],
  "bytecode": "0x60806040526000600c60006101000a81548160ff02191690831515021790555034801561002b57600080fd5b50617ed5806200003c6000396000f300608060405260043610610272576000357c0100000000000000000000000000000000000000000000000000000000900463ffffffff1680630a243d70146102775780630b38926a146102f45780630f560cd7146103355780631748fde91461034c5780631e0a1b95146103635780631f84eb46146103db5780632710ab60146104205780632a6363be1461044d578063313c2c5f1461047c578063313ce567146104ab57806331ddd9ab146104d657806334219bbe146105895780633b4c4b25146105f45780633e5ceede1461062157806346f60dee14610638578063472697201461068f5780634ddf47d4146106c25780634e1d009f1461072b57806354336c0a1461076e578063546887a31461079b57806354d94284146107e05780635ee6fa611461080b5780636410462f1461085057806389a6c338146109035780638a67f4bf1461093a5780638e5aafe114610991578063922c7205146109a857806393acee64146109d357806397409a9b14610b1457806398e52f9a14610b4b57806399d20bb114610b78578063a0d5850114610bc1578063b4745b2e14610bd8578063b658e85114610c2b578063b921e16314610c7e578063bb66f9f614610cab578063bc3cf83b14610d5e578063ca86433614610d8d578063cc3a08f814610dc4578063d56805e114610e7b578063dbcbba9614610ed2578063dd846f0814610f09578063e0a88a3b14610f34578063e757223014610f4b578063e766307914610f8c578063f0c13b9e14610fe3578063f0e5bd8614611024578063f1c737de146110bc578063f51b69791461114b578063f7d9757714611186578063f7e2aaab146111bd578063fc1c34e4146111f4575b600080fd5b34801561028357600080fd5b506102f2600480360381019080803573ffffffffffffffffffffffffffffffffffffffff1690602001909291908035906020019092919080356000191690602001909291908035906020019092919080356000191690602001909291908035906020019092919050505061120b565b005b34801561030057600080fd5b5061031f60048036038101908080359060200190929190505050611ed0565b6040518082815260200191505060405180910390f35b34801561034157600080fd5b5061034a611ef3565b005b34801561035857600080fd5b50610361612017565b005b34801561036f57600080fd5b50610392600480360381019080803560001916906020019092919050505061214d565b604051808373ffffffffffffffffffffffffffffffffffffffff1673ffffffffffffffffffffffffffffffffffffffff1681526020018281526020019250505060405180910390f35b3480156103e757600080fd5b5061040a6004803603810190808035600019169060200190929190505050612191565b6040518082815260200191505060405180910390f35b34801561042c57600080fd5b5061044b600480360381019080803590602001909291905050506121af565b005b34801561045957600080fd5b506104626123e4565b604051808215151515815260200191505060405180910390f35b34801561048857600080fd5b506104916123f7565b604051808215151515815260200191505060405180910390f35b3480156104b757600080fd5b506104c061240a565b6040518082815260200191505060405180910390f35b3480156104e257600080fd5b5061050e600480360381019080803560ff1690602001909291908035906020019092919050505061240f565b6040518080602001828103825283818151815260200191508051906020019080838360005b8381101561054e578082015181840152602081019050610533565b50505050905090810190601f16801561057b5780820380516001836020036101000a031916815260200191505b509250505060405180910390f35b34801561059557600080fd5b506105c26004803603810190808035600019169060200190929190803590602001909291905050506124cc565b604051808681526020018581526020018481526020018381526020018281526020019550505050505060405180910390f35b34801561060057600080fd5b5061061f60048036038101908080359060200190929190505050612558565b005b34801561062d57600080fd5b50610636612713565b005b34801561064457600080fd5b5061064d612a0f565b604051808273ffffffffffffffffffffffffffffffffffffffff1673ffffffffffffffffffffffffffffffffffffffff16815260200191505060405180910390f35b34801561069b57600080fd5b506106a4612a35565b60405180826000191660001916815260200191505060405180910390f35b3480156106ce57600080fd5b50610729600480360381019080803590602001908201803590602001908080601f0160208091040260200160405190810160405280939291908181526020018383808284378201915050505050509192919290505050612a3b565b005b34801561073757600080fd5b5061076c600480360381019080803573ffffffffffffffffffffffffffffffffffffffff169060200190929190505050612c40565b005b34801561077a57600080fd5b5061079960048036038101908080359060200190929190505050612f2f565b005b3480156107a757600080fd5b506107ca60048036038101908080356000191690602001909291905050506130d4565b6040518082815260200191505060405180910390f35b3480156107ec57600080fd5b506107f56130fc565b6040518082815260200191505060405180910390f35b34801561081757600080fd5b5061083a6004803603810190808035600019169060200190929190505050613102565b6040518082815260200191505060405180910390f35b34801561085c57600080fd5b5061090160048036038101908080359060200190820180359060200190808060200260200160405190810160405280939291908181526020018383602002808284378201915050505050509192919290803590602001908201803590602001908080602002602001604051908101604052809392919081815260200183836020028082843782019150505050505091929192908035906020019092919050505061311a565b005b34801561090f57600080fd5b5061093860048036038101908080359060200190929190803590602001909291905050506133f9565b005b34801561094657600080fd5b5061097b600480360381019080803573ffffffffffffffffffffffffffffffffffffffff1690602001909291905050506135e6565b6040518082815260200191505060405180910390f35b34801561099d57600080fd5b506109a66136c7565b005b3480156109b457600080fd5b506109bd6139b9565b6040518082815260200191505060405180910390f35b3480156109df57600080fd5b50610b126004803603810190808035906020019082018035906020019080806020026020016040519081016040528093929190818152602001838360200280828437820191505050505050919291929080359060200190820180359060200190808060200260200160405190810160405280939291908181526020018383602002808284378201915050505050509192919290803590602001908201803590602001908080601f0160208091040260200160405190810160405280939291908181526020018383808284378201915050505050509192919290803590602001908201803590602001908080601f01602080910402602001604051908101604052809392919081815260200183838082843782019150505050505091929192908035151590602001909291905050506139c5565b005b348015610b2057600080fd5b50610b496004803603810190808035906020019092919080359060200190929190505050613cfe565b005b348015610b5757600080fd5b50610b766004803603810190808035906020019092919050505061422c565b005b348015610b8457600080fd5b50610ba76004803603810190808035600019169060200190929190505050614586565b604051808215151515815260200191505060405180910390f35b348015610bcd57600080fd5b50610bd66145a6565b005b348015610be457600080fd5b50610c03600480360381019080803590602001909291905050506146ca565b6040518084151515158152602001838152602001828152602001935050505060405180910390f35b348015610c3757600080fd5b50610c7c600480360381019080803560001916906020019092919080359060200190929190803560001916906020019092919080359060200190929190505050614701565b005b348015610c8a57600080fd5b50610ca9600480360381019080803590602001909291905050506152c7565b005b348015610cb757600080fd5b50610ce3600480360381019080803560ff169060200190929190803590602001909291905050506154de565b6040518080602001828103825283818151815260200191508051906020019080838360005b83811015610d23578082015181840152602081019050610d08565b50505050905090810190601f168015610d505780820380516001836020036101000a031916815260200191505b509250505060405180910390f35b348015610d6a57600080fd5b50610d736155da565b604051808215151515815260200191505060405180910390f35b348015610d9957600080fd5b50610dc260048036038101908080359060200190929190803590602001909291905050506155ed565b005b348015610dd057600080fd5b50610e7960048036038101908080356000191690602001909291908035906020019082018035906020019080806020026020016040519081016040528093929190818152602001838360200280828437820191505050505050919291929080359060200190820180359060200190808060200260200160405190810160405280939291908181526020018383602002808284378201915050505050509192919290505050615ae7565b005b348015610e8757600080fd5b50610e90615ff5565b604051808273ffffffffffffffffffffffffffffffffffffffff1673ffffffffffffffffffffffffffffffffffffffff16815260200191505060405180910390f35b348015610ede57600080fd5b50610f07600480360381019080803590602001909291908035906020019092919050505061601b565b005b348015610f1557600080fd5b50610f1e616208565b6040518082815260200191505060405180910390f35b348015610f4057600080fd5b50610f4961620e565b005b348015610f5757600080fd5b50610f7660048036038101908080359060200190929190505050616332565b6040518082815260200191505060405180910390f35b348015610f9857600080fd5b50610fa1616411565b604051808273ffffffffffffffffffffffffffffffffffffffff1673ffffffffffffffffffffffffffffffffffffffff16815260200191505060405180910390f35b348015610fef57600080fd5b5061100e60048036038101908080359060200190929190505050616436565b6040518082815260200191505060405180910390f35b34801561103057600080fd5b506110a2600480360381019080803560ff16906020019092919080359060200190929190803590602001908201803590602001908080601f016020809104026020016040519081016040528093929190818152602001838380828437820191505050505050919291929050505061644e565b604051808215151515815260200191505060405180910390f35b3480156110c857600080fd5b5061114960048036038101908080359060200190820180359060200191909192939192939080359060200190820180359060200191909192939192939080359060200190820180359060200191909192939192939080359060200190820180359060200191909192939192939080351515906020019092919050505061652e565b005b34801561115757600080fd5b5061118460048036038101908080356000191690602001909291908035906020019092919050505061680e565b005b34801561119257600080fd5b506111bb6004803603810190808035906020019092919080359060200190929190505050616f57565b005b3480156111c957600080fd5b506111f260048036038101908080359060200190929190803590602001909291905050506170e6565b005b34801561120057600080fd5b50611209617519565b005b6000806000806000808811151561128a576040517f08c379a000000000000000000000000000000000000000000000000000000000815260040180806020018281038252601e8152602001807f4d757374207075726368617365206174206c65617374203120636f70792e000081525060200191505060405180910390fd5b8a604051602001808273ffffffffffffffffffffffffffffffffffffffff1673ffffffffffffffffffffffffffffffffffffffff166c010000000000000000000000000281526014019150506040516020818303038152906040526040518082805190602001908083835b60208310151561131a57805182526020820191506020810190506020830392506112f5565b6001836020036101000a0380198251168184511680821785525050505050509050019150506040518091039020945060126000866000191660001916815260200190815260200160002060020160008b815260200190815260200160002093508360000160009054906101000a900460ff161515611426576040517f08c379a00000000000000000000000000000000000000000000000000000000081526004018080602001828103825260338152602001807f506c656173652070726f7669646520612076616c69642073656c6c657220726581526020017f73616c6520636f6e66696775726174696f6e2e0000000000000000000000000081525060400191505060405180910390fd5b878460020154101515156114ee576040517f08c379a000000000000000000000000000000000000000000000000000000000815260040180806020018281038252605b8152602001807f54686973207175616e74697479206973206e6f7420617661696c61626c65206681526020017f6f7220726573616c652066726f6d20746869732073656c6c6572207573696e6781526020017f207468697320726573616c6520636f6e66696775726174696f6e2e000000000081525060600191505060405180910390fd5b600a60008b8152602001908152602001600020600201548460040160018a0381548110151561151957fe5b90600052602060002001541015156115bf576040517f08c379a00000000000000000000000000000000000000000000000000000000081526004018080602001828103825260378152602001807f436f70792068617320616c7265616479206265656e20736f6c6420746865206d81526020017f6178696d756d206e756d626572206f662074696d65732e00000000000000000081525060400191505060405180910390fd5b836001015488029250858301600360009054906101000a900473ffffffffffffffffffffffffffffffffffffffff1673ffffffffffffffffffffffffffffffffffffffff1663dd62ed3e33306040518363ffffffff167c0100000000000000000000000000000000000000000000000000000000028152600401808373ffffffffffffffffffffffffffffffffffffffff1673ffffffffffffffffffffffffffffffffffffffff1681526020018273ffffffffffffffffffffffffffffffffffffffff1673ffffffffffffffffffffffffffffffffffffffff16815260200192505050602060405180830381600087803b1580156116bc57600080fd5b505af11580156116d0573d6000803e3d6000fd5b505050506040513d60208110156116e657600080fd5b810190808051906020019092919050505010151515611793576040517f08c379a00000000000000000000000000000000000000000000000000000000081526004018080602001828103825260248152602001807f50726f7879206d75737420626520617070726f76656420666f7220707572636881526020017f6173652e0000000000000000000000000000000000000000000000000000000081525060400191505060405180910390fd5b600360009054906101000a900473ffffffffffffffffffffffffffffffffffffffff1673ffffffffffffffffffffffffffffffffffffffff166323b872dd338d600a60008f8152602001908152602001600020600101548860010154038c026040518463ffffffff167c0100000000000000000000000000000000000000000000000000000000028152600401808473ffffffffffffffffffffffffffffffffffffffff1673ffffffffffffffffffffffffffffffffffffffff1681526020018373ffffffffffffffffffffffffffffffffffffffff1673ffffffffffffffffffffffffffffffffffffffff1681526020018281526020019350505050602060405180830381600087803b1580156118aa57600080fd5b505af11580156118be573d6000803e3d6000fd5b505050506040513d60208110156118d457600080fd5b81019080805190602001909291905050508015611a5a5750600360009054906101000a900473ffffffffffffffffffffffffffffffffffffffff1673ffffffffffffffffffffffffffffffffffffffff166323b872dd336002809054906101000a900473ffffffffffffffffffffffffffffffffffffffff16600a60008f8152602001908152602001600020600101548c026040518463ffffffff167c0100000000000000000000000000000000000000000000000000000000028152600401808473ffffffffffffffffffffffffffffffffffffffff1673ffffffffffffffffffffffffffffffffffffffff1681526020018373ffffffffffffffffffffffffffffffffffffffff1673ffffffffffffffffffffffffffffffffffffffff1681526020018281526020019350505050602060405180830381600087803b158015611a1e57600080fd5b505af1158015611a32573d6000803e3d6000fd5b505050506040513d6020811015611a4857600080fd5b81019080805190602001909291905050505b1515611ace576040517f08c379a00000000000000000000000000000000000000000000000000000000081526004018080602001828103825260148152602001807f417261207472616e73666572206661696c65642e00000000000000000000000081525060200191505060405180910390fd5b87846003016000828254039250508190555087846002016000828254039250508190555033604051602001808273ffffffffffffffffffffffffffffffffffffffff1673ffffffffffffffffffffffffffffffffffffffff166c010000000000000000000000000281526014019150506040516020818303038152906040526040518082805190602001908083835b602083101515611b825780518252602082019150602081019050602083039250611b5d565b6001836020036101000a0380198251168184511680821785525050505050509050019150506040518091039020915060126000836000191660001916815260200190815260200160002090508060020160008b815260200190815260200160002060000160009054906101000a900460ff1615611c2457878160020160008c815260200190815260200160002060030160008282540192505081905550611c31565b611c30828b8a876177e7565b5b600460009054906101000a900473ffffffffffffffffffffffffffffffffffffffff1673ffffffffffffffffffffffffffffffffffffffff1663a513cc9c8a6005546040518363ffffffff167c0100000000000000000000000000000000000000000000000000000000028152600401808360001916600019168152602001826000191660001916815260200192505050602060405180830381600087803b158015611cdc57600080fd5b505af1158015611cf0573d6000803e3d6000fd5b505050506040513d6020811015611d0657600080fd5b81019080805190602001909291905050501515611de157600460009054906101000a900473ffffffffffffffffffffffffffffffffffffffff1673ffffffffffffffffffffffffffffffffffffffff16630c2bb9658a6005546040518363ffffffff167c0100000000000000000000000000000000000000000000000000000000028152600401808360001916600019168152602001826000191660001916815260200192505050600060405180830381600087803b158015611dc857600080fd5b505af1158015611ddc573d6000803e3d6000fd5b505050505b7f9637412979454975d2b283ecdc377d7594b003f5df849a80d25f9f3cfef81c40898c6005548b878f6040518087600019166000191681526020018673ffffffffffffffffffffffffffffffffffffffff1673ffffffffffffffffffffffffffffffffffffffff1681526020018560001916600019168152602001848152602001838152602001828152602001965050505050505060405180910390a1600084600301541415611e9757611e96858b876179d5565b5b600060010260001916876000191614158015611eb35750600086115b15611ec357611ec2878761680e565b5b5050505050505050505050565b600881815481101515611edf57fe5b906000526020600020016000915090505481565b6002809054906101000a900473ffffffffffffffffffffffffffffffffffffffff168073ffffffffffffffffffffffffffffffffffffffff163373ffffffffffffffffffffffffffffffffffffffff16141515611fb8576040517f08c379a00000000000000000000000000000000000000000000000000000000081526004018080602001828103825260168152602001807f53656e646572206e6f7420617574686f72697a65642e0000000000000000000081525060200191505060405180910390fd5b6001600660006101000a81548160ff0219169083151502179055507fbb62c580222a498aedf5b724b94b0d90065a6bd3be8349b223dc032dbdef555560055460405180826000191660001916815260200191505060405180910390a150565b6002809054906101000a900473ffffffffffffffffffffffffffffffffffffffff168073ffffffffffffffffffffffffffffffffffffffff163373ffffffffffffffffffffffffffffffffffffffff161415156120dc576040517f08c379a00000000000000000000000000000000000000000000000000000000081526004018080602001828103825260168152602001807f53656e646572206e6f7420617574686f72697a65642e0000000000000000000081525060200191505060405180910390fd5b6000600b819055506001600c60006101000a81548160ff0219169083151502179055507f0dffee683881a39928b28151ccdb36b1b55ceeb6fc19567a64fa8f8f483b714d600554600b546040518083600019166000191681526020018281526020019250505060405180910390a150565b60106020528060005260406000206000915090508060000160009054906101000a900473ffffffffffffffffffffffffffffffffffffffff16908060010154905082565b60126020528060005260406000206000915090508060030154905081565b6002809054906101000a900473ffffffffffffffffffffffffffffffffffffffff168073ffffffffffffffffffffffffffffffffffffffff163373ffffffffffffffffffffffffffffffffffffffff16141515612274576040517f08c379a00000000000000000000000000000000000000000000000000000000081526004018080602001828103825260168152602001807f53656e646572206e6f7420617574686f72697a65642e0000000000000000000081525060200191505060405180910390fd5b6000600a60008481526020019081526020016000206002015411151561234e576040517f08c379a00000000000000000000000000000000000000000000000000000000081526004018080602001828103825260498152602001807f43616e6e6f7420756e6c6f636b20666f7220726573616c65206265636175736581526020017f20726573616c6520636f6e66696775726174696f6e20686173206e6f7420626581526020017f656e2073657475702e000000000000000000000000000000000000000000000081525060600191505060405180910390fd5b6001600260016101000a81548160ff021916908315150217905550816009819055506001600a600084815260200190815260200160002060000160006101000a81548160ff0219169083151502179055507f2db6bfc3c84cfef31473a216848e0a4632093c15ed309ff6b376e6516b58777f60055460405180826000191660001916815260200191505060405180910390a15050565b600660009054906101000a900460ff1681565b600260019054906101000a900460ff1681565b600281565b6013602052816000526040600020602052806000526040600020600091509150508054600181600116156101000203166002900480601f0160208091040260200160405190810160405280929190818152602001828054600181600116156101000203166002900480156124c45780601f10612499576101008083540402835291602001916124c4565b820191906000526020600020905b8154815290600101906020018083116124a757829003601f168201915b505050505081565b60008060008060008060126000896000191660001916815260200190815260200160002060020160008881526020019081526020016000209050600a600088815260200190815260200160002060010154600a60008981526020019081526020016000206002015482600101548360020154846003015495509550955095509550509295509295909350565b6002809054906101000a900473ffffffffffffffffffffffffffffffffffffffff168073ffffffffffffffffffffffffffffffffffffffff163373ffffffffffffffffffffffffffffffffffffffff1614151561261d576040517f08c379a00000000000000000000000000000000000000000000000000000000081526004018080602001828103825260168152602001807f53656e646572206e6f7420617574686f72697a65642e0000000000000000000081525060200191505060405180910390fd5b600082111515612695576040517f08c379a00000000000000000000000000000000000000000000000000000000081526004018080602001828103825260208152602001807f5175616e74697479206d7573742062652067726561746572207468616e20302e81525060200191505060405180910390fd5b81600b81905550600b5460001415156126c4576000600c60006101000a81548160ff0219169083151502179055505b7f0dffee683881a39928b28151ccdb36b1b55ceeb6fc19567a64fa8f8f483b714d600554600b546040518083600019166000191681526020018281526020019250505060405180910390a15050565b600033604051602001808273ffffffffffffffffffffffffffffffffffffffff1673ffffffffffffffffffffffffffffffffffffffff166c010000000000000000000000000281526014019150506040516020818303038152906040526040518082805190602001908083835b6020831015156127a55780518252602082019150602081019050602083039250612780565b6001836020036101000a03801982511681845116808217855250505050505090500191505060405180910390209050600060116000836000191660001916815260200190815260200160002054111515612867576040517f08c379a00000000000000000000000000000000000000000000000000000000081526004018080602001828103825260158152602001807f4e6f2062616c616e636520746f2072656465656d2e000000000000000000000081525060200191505060405180910390fd5b600360009054906101000a900473ffffffffffffffffffffffffffffffffffffffff1673ffffffffffffffffffffffffffffffffffffffff1663a9059cbb33601160008560001916600019168152602001908152602001600020546040518363ffffffff167c0100000000000000000000000000000000000000000000000000000000028152600401808373ffffffffffffffffffffffffffffffffffffffff1673ffffffffffffffffffffffffffffffffffffffff16815260200182815260200192505050602060405180830381600087803b15801561294757600080fd5b505af115801561295b573d6000803e3d6000fd5b505050506040513d602081101561297157600080fd5b810190808051906020019092919050505015612a0c576000601160008360001916600019168152602001908152602001600020819055507fcb7d87f76b4d6501ac27ed560664bf84ce273a2ddd7b9b1da63c753e68ccae2033604051808273ffffffffffffffffffffffffffffffffffffffff1673ffffffffffffffffffffffffffffffffffffffff16815260200191505060405180910390a15b50565b600460009054906101000a900473ffffffffffffffffffffffffffffffffffffffff1681565b60055481565b600080600080600080600260009054906101000a900460ff16151515612aef576040517f08c379a00000000000000000000000000000000000000000000000000000000081526004018080602001828103825260268152602001807f496e69742066756e6374696f6e2063616e206f6e6c792062652063616c6c656481526020017f206f6e63652e000000000000000000000000000000000000000000000000000081525060400191505060405180910390fd5b6001600260006101000a81548160ff0219169083151502179055506020870195508551945060408701955085519350606087019550855192506080870195508551915060a08701955085519050846002806101000a81548173ffffffffffffffffffffffffffffffffffffffff021916908373ffffffffffffffffffffffffffffffffffffffff16021790555083600360006101000a81548173ffffffffffffffffffffffffffffffffffffffff021916908373ffffffffffffffffffffffffffffffffffffffff16021790555082600460006101000a81548173ffffffffffffffffffffffffffffffffffffffff021916908373ffffffffffffffffffffffffffffffffffffffff160217905550816005816000191690555080600b81905550600b5460001415612c37576001600c60006101000a81548160ff0219169083151502179055505b50505050505050565b60008060009054906101000a900473ffffffffffffffffffffffffffffffffffffffff1673ffffffffffffffffffffffffffffffffffffffff163373ffffffffffffffffffffffffffffffffffffffff16141515612c9d57600080fd5b816001600082604051602001808273ffffffffffffffffffffffffffffffffffffffff1673ffffffffffffffffffffffffffffffffffffffff166c010000000000000000000000000281526014019150506040516020818303038152906040526040518082805190602001908083835b602083101515612d325780518252602082019150602081019050602083039250612d0d565b6001836020036101000a03801982511681845116808217855250505050505090500191505060405180910390206000191660001916815260200190815260200160002060009054906101000a900460ff161515612df7576040517f08c379a00000000000000000000000000000000000000000000000000000000081526004018080602001828103825260208152602001807f4f776e6572207265717565737420686173206e6f74206265656e2073656e742e81525060200191505060405180910390fd5b826000806101000a81548173ffffffffffffffffffffffffffffffffffffffff021916908373ffffffffffffffffffffffffffffffffffffffff16021790555033604051602001808273ffffffffffffffffffffffffffffffffffffffff1673ffffffffffffffffffffffffffffffffffffffff166c010000000000000000000000000281526014019150506040516020818303038152906040526040518082805190602001908083835b602083101515612ec75780518252602082019150602081019050602083039250612ea2565b6001836020036101000a03801982511681845116808217855250505050505090500191505060405180910390209150600060016000846000191660001916815260200190815260200160002060006101000a81548160ff021916908315150217905550505050565b60006002809054906101000a900473ffffffffffffffffffffffffffffffffffffffff168073ffffffffffffffffffffffffffffffffffffffff163373ffffffffffffffffffffffffffffffffffffffff16141515612ff6576040517f08c379a00000000000000000000000000000000000000000000000000000000081526004018080602001828103825260168152602001807f53656e646572206e6f7420617574686f72697a65642e0000000000000000000081525060200191505060405180910390fd5b6007600084815260200190815260200160002060009055600091505b6008805490508210156130cf578260088381548110151561302f57fe5b906000526020600020015414156130c25760088281548110151561304f57fe5b9060005260206000200160009055600860016008805490500381548110151561307457fe5b906000526020600020015460088381548110151561308e57fe5b906000526020600020018190555060086001600880549050038154811015156130b357fe5b90600052602060002001600090555b8180600101925050613012565b505050565b6000601060008360001916600019168152602001908152602001600020600101549050919050565b60095481565b60116020528060005260406000206000915090505481565b6000806002809054906101000a900473ffffffffffffffffffffffffffffffffffffffff168073ffffffffffffffffffffffffffffffffffffffff163373ffffffffffffffffffffffffffffffffffffffff161415156131e2576040517f08c379a00000000000000000000000000000000000000000000000000000000081526004018080602001828103825260168152602001807f53656e646572206e6f7420617574686f72697a65642e0000000000000000000081525060200191505060405180910390fd5b6000600880549050111515613285576040517f08c379a000000000000000000000000000000000000000000000000000000000815260040180806020018281038252602d8152602001807f5072696365206d75737420626520736574207072696f7220746f20736574746981526020017f6e6720726f79616c746965732e0000000000000000000000000000000000000081525060400191505060405180910390fd5b600091505b855182101561338d576132b385838151811015156132a457fe5b90602001906020020151617bc3565b83600001600088858151811015156132c757fe5b9060200190602002015173ffffffffffffffffffffffffffffffffffffffff1673ffffffffffffffffffffffffffffffffffffffff16815260200190815260200160002081905550858281518110151561331d57fe5b90602001906020020151836001018381548110151561333857fe5b9060005260206000200160006101000a81548173ffffffffffffffffffffffffffffffffffffffff021916908373ffffffffffffffffffffffffffffffffffffffff160217905550818060010192505061328a565b61339684617bc3565b836002018190555082600d60018201816001019080546133b7929190617ccf565b50600282015481600201559050507fd7d444961aaa23d0159247196b6fc382092c135a031aa06dfdc75eb956dd64af60405160405180910390a1505050505050565b6002809054906101000a900473ffffffffffffffffffffffffffffffffffffffff168073ffffffffffffffffffffffffffffffffffffffff163373ffffffffffffffffffffffffffffffffffffffff161415156134be576040517f08c379a00000000000000000000000000000000000000000000000000000000081526004018080602001828103825260168152602001807f53656e646572206e6f7420617574686f72697a65642e0000000000000000000081525060200191505060405180910390fd5b600a600084815260200190815260200160002060000160009054906101000a900460ff1615151561357d576040517f08c379a000000000000000000000000000000000000000000000000000000000815260040180806020018281038252602c8152602001807f43616e6e6f74206d6f646966792061206c6f636b656420726573616c6520636f81526020017f6e66696775726174696f6e2e000000000000000000000000000000000000000081525060400191505060405180910390fd5b81600a6000858152602001908152602001600020600101819055507fdca0c456563bef627a1630910a55d7f7dbc34e6436eff2d7a6b04d5b1c76192a600554836040518083600019166000191681526020018281526020019250505060405180910390a1505050565b60006011600083604051602001808273ffffffffffffffffffffffffffffffffffffffff1673ffffffffffffffffffffffffffffffffffffffff166c010000000000000000000000000281526014019150506040516020818303038152906040526040518082805190602001908083835b60208310151561367c5780518252602082019150602081019050602083039250613657565b6001836020036101000a038019825116818451168082178552505050505050905001915050604051809103902060001916600019168152602001908152602001600020549050919050565b60006001600033604051602001808273ffffffffffffffffffffffffffffffffffffffff1673ffffffffffffffffffffffffffffffffffffffff166c010000000000000000000000000281526014019150506040516020818303038152906040526040518082805190602001908083835b60208310151561375d5780518252602082019150602081019050602083039250613738565b6001836020036101000a03801982511681845116808217855250505050505090500191505060405180910390206000191660001916815260200190815260200160002060009054906101000a900460ff16151515613849576040517f08c379a00000000000000000000000000000000000000000000000000000000081526004018080602001828103825260218152602001807f4f776e657273686970207265717565737420616c72656164792061637469766581526020017f2e0000000000000000000000000000000000000000000000000000000000000081525060400191505060405180910390fd5b33604051602001808273ffffffffffffffffffffffffffffffffffffffff1673ffffffffffffffffffffffffffffffffffffffff166c010000000000000000000000000281526014019150506040516020818303038152906040526040518082805190602001908083835b6020831015156138d957805182526020820191506020810190506020830392506138b4565b6001836020036101000a038019825116818451168082178552505050505050905001915050604051809103902090506001806000836000191660001916815260200190815260200160002060006101000a81548160ff0219169083151502179055503373ffffffffffffffffffffffffffffffffffffffff166000809054906101000a900473ffffffffffffffffffffffffffffffffffffffff1673ffffffffffffffffffffffffffffffffffffffff167fd5b906f2d3dfa8cf0ea788d4ad6e99ebd482d6134c3405e1a5faa5da891cda8560405160405180910390a350565b600d8060020154905081565b6000806002809054906101000a900473ffffffffffffffffffffffffffffffffffffffff168073ffffffffffffffffffffffffffffffffffffffff163373ffffffffffffffffffffffffffffffffffffffff16141515613a8d576040517f08c379a00000000000000000000000000000000000000000000000000000000081526004018080602001828103825260168152602001807f53656e646572206e6f7420617574686f72697a65642e0000000000000000000081525060200191505060405180910390fd5b600660009054906101000a900460ff1680613aa55750835b600660006101000a81548160ff0219169083151502179055508651885111613ace578651613ad1565b87515b9250613aea6000602088617bd39092919063ffffffff16565b601360008060ff16815260200190815260200160002060008081526020019081526020016000209080519060200190613b24929190617d21565b50613b3c6000602087617bd39092919063ffffffff16565b60136000600160ff16815260200190815260200160002060008081526020019081526020016000209080519060200190613b77929190617d21565b50600191505b82821015613cb357600188510382111515613c1557613bc28883815181101515613ba357fe5b90602001906020020151602860ff1688617bd39092919063ffffffff16565b601360008060ff16815260200190815260200160002060008a85815181101515613be857fe5b9060200190602002015181526020019081526020016000209080519060200190613c13929190617d21565b505b600187510382111515613ca657613c528783815181101515613c3357fe5b90602001906020020151604060ff1687617bd39092919063ffffffff16565b60136000600160ff16815260200190815260200160002060008985815181101515613c7957fe5b9060200190602002015181526020019081526020016000209080519060200190613ca4929190617d21565b505b8180600101925050613b7d565b7f9e8a51bb6b34b9d5d18c14fd753ee3bf44e2256512665a4577281ffcc91943ff60055460405180826000191660001916815260200191505060405180910390a15050505050505050565b6000806012600033604051602001808273ffffffffffffffffffffffffffffffffffffffff1673ffffffffffffffffffffffffffffffffffffffff166c010000000000000000000000000281526014019150506040516020818303038152906040526040518082805190602001908083835b602083101515613d955780518252602082019150602081019050602083039250613d70565b6001836020036101000a03801982511681845116808217855250505050505090500191505060405180910390206000191660001916815260200190815260200160002060030154111515613e51576040517f08c379a000000000000000000000000000000000000000000000000000000000815260040180806020018281038252601c8152602001807f436f6e74656e7420776173206e65766572207075726368617365642e0000000081525060200191505060405180910390fd5b6000600a600085815260200190815260200160002060020154111515613f05576040517f08c379a00000000000000000000000000000000000000000000000000000000081526004018080602001828103825260218152602001807f4e6f7420612076616c696420726573616c6520636f6e66696775726174696f6e81526020017f2e0000000000000000000000000000000000000000000000000000000000000081525060400191505060405180910390fd5b33604051602001808273ffffffffffffffffffffffffffffffffffffffff1673ffffffffffffffffffffffffffffffffffffffff166c010000000000000000000000000281526014019150506040516020818303038152906040526040518082805190602001908083835b602083101515613f955780518252602082019150602081019050602083039250613f70565b6001836020036101000a038019825116818451168082178552505050505050905001915050604051809103902090506012600082600019166000191681526020019081526020016000206002016000848152602001908152602001600020600301546012600083600019166000191681526020019081526020016000206002016000858152602001908152602001600020600201548301111515156140c8576040517f08c379a00000000000000000000000000000000000000000000000000000000081526004018080602001828103825260298152602001807f43616e6e6f7420756e6c6f636b206d6f726520666f7220726573616c6520746881526020017f616e206f776e65642e000000000000000000000000000000000000000000000081525060400191505060405180910390fd5b816012600083600019166000191681526020019081526020016000206002016000858152602001908152602001600020600201600082825401925050819055506012600082600019166000191681526020019081526020016000206002016000848152602001908152602001600020600301546012600083600019166000191681526020019081526020016000206002016000858152602001908152602001600020600201541115151561417857fe5b7fe78857a26a7fe475546465ff27735fabea42cc1dc6fb9284b146bd4d01f92444600554336012600085600019166000191681526020019081526020016000206002016000878152602001908152602001600020600201546040518084600019166000191681526020018373ffffffffffffffffffffffffffffffffffffffff1673ffffffffffffffffffffffffffffffffffffffff168152602001828152602001935050505060405180910390a1505050565b6002809054906101000a900473ffffffffffffffffffffffffffffffffffffffff168073ffffffffffffffffffffffffffffffffffffffff163373ffffffffffffffffffffffffffffffffffffffff161415156142f1576040517f08c379a00000000000000000000000000000000000000000000000000000000081526004018080602001828103825260168152602001807f53656e646572206e6f7420617574686f72697a65642e0000000000000000000081525060200191505060405180910390fd5b60008211151561438f576040517f08c379a000000000000000000000000000000000000000000000000000000000815260040180806020018281038252602c8152602001807f43616e6e6f742072656d6f7665206e6f6e2d706f736974697665206e756d626581526020017f72206f6620636f706965732e000000000000000000000000000000000000000081525060400191505060405180910390fd5b6000600b54111515614409576040517f08c379a000000000000000000000000000000000000000000000000000000000815260040180806020018281038252601d8152602001807f43616e6e6f742072656d6f766520616e796d6f726520636f706965732e00000081525060200191505060405180910390fd5b600082600b5403101515156144ac576040517f08c379a00000000000000000000000000000000000000000000000000000000081526004018080602001828103825260308152602001807f547279696e6720746f2072656d6f7665206d6f726520636f706965732074686181526020017f6e20616c72656164792065786973742e0000000000000000000000000000000081525060400191505060405180910390fd5b81600b60008282540392505081905550600b5460001415156144e4576000600c60006101000a81548160ff0219169083151502179055505b7f4cd13ad3b8764e3d004158a4e45194b959aa94b93f573e223dc14bff31272d4c60055483600b54604051808460001916600019168152602001838152602001828152602001935050505060405180910390a17f0dffee683881a39928b28151ccdb36b1b55ceeb6fc19567a64fa8f8f483b714d600554600b546040518083600019166000191681526020018281526020019250505060405180910390a15050565b60016020528060005260406000206000915054906101000a900460ff1681565b6002809054906101000a900473ffffffffffffffffffffffffffffffffffffffff168073ffffffffffffffffffffffffffffffffffffffff163373ffffffffffffffffffffffffffffffffffffffff1614151561466b576040517f08c379a00000000000000000000000000000000000000000000000000000000081526004018080602001828103825260168152602001807f53656e646572206e6f7420617574686f72697a65642e0000000000000000000081525060200191505060405180910390fd5b6000600660006101000a81548160ff0219169083151502179055507f2e6ec049d62c8a42e7cc223354aadb68d5046a2cba67ed55a089fdb852fb6cb660055460405180826000191660001916815260200191505060405180910390a150565b600a6020528060005260406000206000915090508060000160009054906101000a900460ff16908060010154908060020154905083565b600080600061470e617da1565b600660009054906101000a900460ff1615156147b8576040517f08c379a00000000000000000000000000000000000000000000000000000000081526004018080602001828103825260218152602001807f41465320686173206e6f74206265656e206c697374656420666f722073616c6581526020017f2e0000000000000000000000000000000000000000000000000000000000000081525060400191505060405180910390fd5b6000600b541415806147d65750600c60009054906101000a900460ff165b1515614870576040517f08c379a00000000000000000000000000000000000000000000000000000000081526004018080602001828103825260268152602001807f4e6f206d6f726520636f7069657320617661696c61626c6520666f722070757281526020017f63686173652e000000000000000000000000000000000000000000000000000081525060400191505060405180910390fd5b6000871115156148e8576040517f08c379a000000000000000000000000000000000000000000000000000000000815260040180806020018281038252601e8152602001807f4d757374207075726368617365206174206c65617374203120636f70792e000081525060200191505060405180910390fd5b86600b541015806149055750600c60009054906101000a900460ff165b151561499f576040517f08c379a000000000000000000000000000000000000000000000000000000000815260040180806020018281038252602f8152602001807f43616e6e6f74207075726368617365206d6f726520636f70696573207468616e81526020017f2061726520617661696c61626c652e000000000000000000000000000000000081525060400191505060405180910390fd5b600360009054906101000a900473ffffffffffffffffffffffffffffffffffffffff1673ffffffffffffffffffffffffffffffffffffffff1663dd62ed3e33306040518363ffffffff167c0100000000000000000000000000000000000000000000000000000000028152600401808373ffffffffffffffffffffffffffffffffffffffff1673ffffffffffffffffffffffffffffffffffffffff1681526020018273ffffffffffffffffffffffffffffffffffffffff1673ffffffffffffffffffffffffffffffffffffffff16815260200192505050602060405180830381600087803b158015614a9057600080fd5b505af1158015614aa4573d6000803e3d6000fd5b505050506040513d6020811015614aba57600080fd5b8101908080519060200190929190505050935033604051602001808273ffffffffffffffffffffffffffffffffffffffff1673ffffffffffffffffffffffffffffffffffffffff166c010000000000000000000000000281526014019150506040516020818303038152906040526040518082805190602001908083835b602083101515614b5d5780518252602082019150602081019050602083039250614b38565b6001836020036101000a03801982511681845116808217855250505050505090500191505060405180910390209250614b9587616332565b870291508482018410151515614c39576040517f08c379a00000000000000000000000000000000000000000000000000000000081526004018080602001828103825260248152602001807f50726f7879206d75737420626520617070726f76656420666f7220707572636881526020017f6173652e0000000000000000000000000000000000000000000000000000000081525060400191505060405180910390fd5b600360009054906101000a900473ffffffffffffffffffffffffffffffffffffffff1673ffffffffffffffffffffffffffffffffffffffff166323b872dd336002809054906101000a900473ffffffffffffffffffffffffffffffffffffffff16856040518463ffffffff167c0100000000000000000000000000000000000000000000000000000000028152600401808473ffffffffffffffffffffffffffffffffffffffff1673ffffffffffffffffffffffffffffffffffffffff1681526020018373ffffffffffffffffffffffffffffffffffffffff1673ffffffffffffffffffffffffffffffffffffffff1681526020018281526020019350505050602060405180830381600087803b158015614d5357600080fd5b505af1158015614d67573d6000803e3d6000fd5b505050506040513d6020811015614d7d57600080fd5b81019080805190602001909291905050501515614e02576040517f08c379a00000000000000000000000000000000000000000000000000000000081526004018080602001828103825260148152602001807f417261207472616e73666572206661696c65642e00000000000000000000000081525060200191505060405180910390fd5b600260019054906101000a900460ff1615615019576012600084600019166000191681526020019081526020016000206002016000600954815260200190815260200160002060000160009054906101000a900460ff1615614ea557866012600085600019166000191681526020019081526020016000206002016000600954815260200190815260200160002060030160008282540192505081905550615014565b600a60006009548152602001908152602001600020600101548160200181815250508681606001818152505060018160000190151590811515815250506012600084600019166000191681526020019081526020016000206000018054905060126000856000191660001916815260200190815260200160002060010160006009548152602001908152602001600020819055506012600084600019166000191681526020019081526020016000206000016009549080600181540180825580915050906001820390600052602060002001600090919290919091505550806012600085600019166000191681526020019081526020016000206002016000600954815260200190815260200160002060008201518160000160006101000a81548160ff021916908315150217905550602082015181600101556040820151816002015560608201518160030155608082015181600401908051906020019061500f929190617dd3565b509050505b615046565b86601260008560001916600019168152602001908152602001600020600301600082825401925050819055505b6000600b5411156150765786600b600082825403925050819055506000600b541415615075576150746145a6565b5b5b600460009054906101000a900473ffffffffffffffffffffffffffffffffffffffff1673ffffffffffffffffffffffffffffffffffffffff1663a513cc9c896005546040518363ffffffff167c0100000000000000000000000000000000000000000000000000000000028152600401808360001916600019168152602001826000191660001916815260200192505050602060405180830381600087803b15801561512157600080fd5b505af1158015615135573d6000803e3d6000fd5b505050506040513d602081101561514b57600080fd5b8101908080519060200190929190505050151561522657600460009054906101000a900473ffffffffffffffffffffffffffffffffffffffff1673ffffffffffffffffffffffffffffffffffffffff16630c2bb965896005546040518363ffffffff167c0100000000000000000000000000000000000000000000000000000000028152600401808360001916600019168152602001826000191660001916815260200192505050600060405180830381600087803b15801561520d57600080fd5b505af1158015615221573d6000803e3d6000fd5b505050505b7f39b7e4b91ba6a37d797cacb37026d4073c1bc810ca358219c6ff505dc18cad3588600554898560095460405180866000191660001916815260200185600019166000191681526020018481526020018381526020018281526020019550505050505060405180910390a16000600102600019168660001916141580156152ad5750600085115b156152bd576152bc868661680e565b5b5050505050505050565b6002809054906101000a900473ffffffffffffffffffffffffffffffffffffffff168073ffffffffffffffffffffffffffffffffffffffff163373ffffffffffffffffffffffffffffffffffffffff1614151561538c576040517f08c379a00000000000000000000000000000000000000000000000000000000081526004018080602001828103825260168152602001807f53656e646572206e6f7420617574686f72697a65642e0000000000000000000081525060200191505060405180910390fd5b600082111515615404576040517f08c379a00000000000000000000000000000000000000000000000000000000081526004018080602001828103825260208152602001807f5175616e74697479206d7573742062652067726561746572207468616e20302e81525060200191505060405180910390fd5b81600b60008282540192505081905550600b54600014151561543c576000600c60006101000a81548160ff0219169083151502179055505b7f01f766e4bea8b3ee08c4feeab8b2e146c8e45895c093fd9bd54b3690d449e68060055483600b54604051808460001916600019168152602001838152602001828152602001935050505060405180910390a17f0dffee683881a39928b28151ccdb36b1b55ceeb6fc19567a64fa8f8f483b714d600554600b546040518083600019166000191681526020018281526020019250505060405180910390a15050565b6060600660009054906101000a900460ff16151561550e57602060405190810160405280600081525090506155d4565b601360008460ff1660ff16815260200190815260200160002060008381526020019081526020016000208054600181600116156101000203166002900480601f0160208091040260200160405190810160405280929190818152602001828054600181600116156101000203166002900480156155cc5780601f106155a1576101008083540402835291602001916155cc565b820191906000526020600020905b8154815290600101906020018083116155af57829003601f168201915b505050505090505b92915050565b600c60009054906101000a900460ff1681565b6000806012600033604051602001808273ffffffffffffffffffffffffffffffffffffffff1673ffffffffffffffffffffffffffffffffffffffff166c010000000000000000000000000281526014019150506040516020818303038152906040526040518082805190602001908083835b602083101515615684578051825260208201915060208101905060208303925061565f565b6001836020036101000a03801982511681845116808217855250505050505090500191505060405180910390206000191660001916815260200190815260200160002060030154111515615740576040517f08c379a000000000000000000000000000000000000000000000000000000000815260040180806020018281038252601c8152602001807f436f6e74656e7420776173206e65766572207075726368617365642e0000000081525060200191505060405180910390fd5b6000600a6000858152602001908152602001600020600201541115156157f4576040517f08c379a00000000000000000000000000000000000000000000000000000000081526004018080602001828103825260218152602001807f4e6f7420612076616c696420726573616c6520636f6e66696775726174696f6e81526020017f2e0000000000000000000000000000000000000000000000000000000000000081525060400191505060405180910390fd5b33604051602001808273ffffffffffffffffffffffffffffffffffffffff1673ffffffffffffffffffffffffffffffffffffffff166c010000000000000000000000000281526014019150506040516020818303038152906040526040518082805190602001908083835b602083101515615884578051825260208201915060208101905060208303925061585f565b6001836020036101000a038019825116818451168082178552505050505050905001915050604051809103902090508160126000836000191660001916815260200190815260200160002060020160008581526020019081526020016000206002015410151515615983576040517f08c379a000000000000000000000000000000000000000000000000000000000815260040180806020018281038252602e8152602001807f43616e6e6f74206c6f636b206d6f7265207468616e20697320617661696c616281526020017f6c6520666f7220726573616c652e00000000000000000000000000000000000081525060400191505060405180910390fd5b8160126000836000191660001916815260200190815260200160002060020160008581526020019081526020016000206002016000828254039250508190555060126000826000191660001916815260200190815260200160002060020160008481526020019081526020016000206003015460126000836000191660001916815260200190815260200160002060020160008581526020019081526020016000206002015411151515615a3357fe5b7fce3027e9449a5a6879bfbf6898b09a15c2232476d45e2913421cd05d2b4eed13600554336012600085600019166000191681526020019081526020016000206002016000878152602001908152602001600020600201546040518084600019166000191681526020018373ffffffffffffffffffffffffffffffffffffffff1673ffffffffffffffffffffffffffffffffffffffff168152602001828152602001935050505060405180910390a1505050565b600080600080863373ffffffffffffffffffffffffffffffffffffffff1660106000836000191660001916815260200190815260200160002060000160009054906101000a900473ffffffffffffffffffffffffffffffffffffffff1673ffffffffffffffffffffffffffffffffffffffff16148015615b855750600060106000836000191660001916815260200190815260200160002060010154115b1515615bf9576040517f08c379a000000000000000000000000000000000000000000000000000000000815260040180806020018281038252600f8152602001807f4a6f6220697320696e76616c69642e000000000000000000000000000000000081525060200191505060405180910390fd5b85518751141515615c98576040517f08c379a00000000000000000000000000000000000000000000000000000000081526004018080602001828103825260268152602001807f556e657175616c206e756d626572206f66206661726d65727320616e6420726581526020017f77617264732e000000000000000000000000000000000000000000000000000081525060400191505060405180910390fd5b600093505b85518460ff161015615cd557858460ff16815181101515615cba57fe5b90602001906020020151850194508380600101945050615c9d565b601060008960001916600019168152602001908152602001600020600101548511151515615d6b576040517f08c379a00000000000000000000000000000000000000000000000000000000081526004018080602001828103825260148152602001807f496e73756666696369656e74206275646765742e00000000000000000000000081525060200191505060405180910390fd5b600092505b86518360ff161015615e6757858360ff16815181101515615d8d57fe5b90602001906020020151601060008a600019166000191681526020019081526020016000206001015410151515615dc057fe5b858360ff16815181101515615dd157fe5b9060200190602002015160116000898660ff16815181101515615df057fe5b906020019060200201516000191660001916815260200190815260200160002081905550858360ff16815181101515615e2557fe5b90602001906020020151601060008a60001916600019168152602001908152602001600020600101600082825403925050819055508280600101935050615d70565b6010600089600019166000191681526020019081526020016000206001015491506000821115615f9a57816011600033604051602001808273ffffffffffffffffffffffffffffffffffffffff1673ffffffffffffffffffffffffffffffffffffffff166c010000000000000000000000000281526014019150506040516020818303038152906040526040518082805190602001908083835b602083101515615f265780518252602082019150602081019050602083039250615f01565b6001836020036101000a038019825116818451168082178552505050505050905001915050604051809103902060001916600019168152602001908152602001600020819055506000601060008a6000191660001916815260200190815260200160002060010181905550615f99612713565b5b7f2bd45e0776b585a6e4ce4cc376082ac45c657ad116f95f80480b6343678354e86005548684604051808460001916600019168152602001838152602001828152602001935050505060405180910390a15050505050505050565b600360009054906101000a900473ffffffffffffffffffffffffffffffffffffffff1681565b6002809054906101000a900473ffffffffffffffffffffffffffffffffffffffff168073ffffffffffffffffffffffffffffffffffffffff163373ffffffffffffffffffffffffffffffffffffffff161415156160e0576040517f08c379a00000000000000000000000000000000000000000000000000000000081526004018080602001828103825260168152602001807f53656e646572206e6f7420617574686f72697a65642e0000000000000000000081525060200191505060405180910390fd5b600a600084815260200190815260200160002060000160009054906101000a900460ff1615151561619f576040517f08c379a000000000000000000000000000000000000000000000000000000000815260040180806020018281038252602c8152602001807f43616e6e6f74206d6f646966792061206c6f636b656420726573616c6520636f81526020017f6e66696775726174696f6e2e000000000000000000000000000000000000000081525060400191505060405180910390fd5b81600a6000858152602001908152602001600020600201819055507f9f274eefea84ac29e2f56b92eafc8045314ec62bf45e12c57b3f80017ea6245e600554836040518083600019166000191681526020018281526020019250505060405180910390a1505050565b600b5481565b6002809054906101000a900473ffffffffffffffffffffffffffffffffffffffff168073ffffffffffffffffffffffffffffffffffffffff163373ffffffffffffffffffffffffffffffffffffffff161415156162d3576040517f08c379a00000000000000000000000000000000000000000000000000000000081526004018080602001828103825260168152602001807f53656e646572206e6f7420617574686f72697a65642e0000000000000000000081525060200191505060405180910390fd5b6000600260016101000a81548160ff0219169083151502179055507ff293814c7c482e7a7e5481b80723176aea019590a1994ee0070b10836beeca8b60055460405180826000191660001916815260200191505060405180910390a150565b60008060008090505b6008805490508110156163f3578360088281548110151561635857fe5b90600052602060002001541415616384576007600085815260200190815260200160002054925061640a565b8360088281548110151561639457fe5b90600052602060002001541080156163c45750816008828154811015156163b757fe5b9060005260206000200154115b156163e6576008818154811015156163d857fe5b906000526020600020015491505b808060010191505061633b565b600760008381526020019081526020016000205492505b5050919050565b6002809054906101000a900473ffffffffffffffffffffffffffffffffffffffff1681565b60076020528060005260406000206000915090505481565b600061652582601360008760ff1660ff16815260200190815260200160002060008681526020019081526020016000208054600181600116156101000203166002900480601f0160208091040260200160405190810160405280929190818152602001828054600181600116156101000203166002900480156165125780601f106164e757610100808354040283529160200191616512565b820191906000526020600020905b8154815290600101906020018083116164f557829003601f168201915b5050505050617c6090919063ffffffff16565b90509392505050565b6000806002809054906101000a900473ffffffffffffffffffffffffffffffffffffffff168073ffffffffffffffffffffffffffffffffffffffff163373ffffffffffffffffffffffffffffffffffffffff161415156165f6576040517f08c379a00000000000000000000000000000000000000000000000000000000081526004018080602001828103825260168152602001807f53656e646572206e6f7420617574686f72697a65642e0000000000000000000081525060200191505060405180910390fd5b600660009054906101000a900460ff168061660e5750835b600660006101000a81548160ff021916908315150217905550898990508c8c90501161663d5789899050616642565b8b8b90505b9250600091505b828210156167bf5760018c8c90500382111515616701576166b1602860ff168302602860ff168a8a8080601f016020809104026020016040519081016040528093929190818152602001838380828437820191505050505050617bd39092919063ffffffff16565b601360008060ff16815260200190815260200160002060008e8e8681811015156166d757fe5b90506020020135815260200190815260200160002090805190602001906166ff929190617d21565b505b60018a8a905003821115156167b257616761604060ff168302604060ff1688888080601f016020809104026020016040519081016040528093929190818152602001838380828437820191505050505050617bd39092919063ffffffff16565b60136000600160ff16815260200190815260200160002060008c8c86818110151561678857fe5b90506020020135815260200190815260200160002090805190602001906167b0929190617d21565b505b8180600101925050616649565b7f9e8a51bb6b34b9d5d18c14fd753ee3bf44e2256512665a4577281ffcc91943ff60055460405180826000191660001916815260200191505060405180910390a1505050505050505050505050565b6000806012600033604051602001808273ffffffffffffffffffffffffffffffffffffffff1673ffffffffffffffffffffffffffffffffffffffff166c010000000000000000000000000281526014019150506040516020818303038152906040526040518082805190602001908083835b6020831015156168a55780518252602082019150602081019050602083039250616880565b6001836020036101000a03801982511681845116808217855250505050505090500191505060405180910390206000191660001916815260200190815260200160002060030154111515616961576040517f08c379a000000000000000000000000000000000000000000000000000000000815260040180806020018281038252601c8152602001807f436f6e74656e7420776173206e65766572207075726368617365642e0000000081525060200191505060405180910390fd5b600360009054906101000a900473ffffffffffffffffffffffffffffffffffffffff1673ffffffffffffffffffffffffffffffffffffffff1663dd62ed3e33306040518363ffffffff167c0100000000000000000000000000000000000000000000000000000000028152600401808373ffffffffffffffffffffffffffffffffffffffff1673ffffffffffffffffffffffffffffffffffffffff1681526020018273ffffffffffffffffffffffffffffffffffffffff1673ffffffffffffffffffffffffffffffffffffffff16815260200192505050602060405180830381600087803b158015616a5257600080fd5b505af1158015616a66573d6000803e3d6000fd5b505050506040513d6020811015616a7c57600080fd5b81019080805190602001909291905050509050600060010260001916836000191614158015616aab5750600082115b8015616ab75750818110155b8015616ba15750600073ffffffffffffffffffffffffffffffffffffffff1660106000856000191660001916815260200190815260200160002060000160009054906101000a900473ffffffffffffffffffffffffffffffffffffffff1673ffffffffffffffffffffffffffffffffffffffff161480616ba057503373ffffffffffffffffffffffffffffffffffffffff1660106000856000191660001916815260200190815260200160002060000160009054906101000a900473ffffffffffffffffffffffffffffffffffffffff1673ffffffffffffffffffffffffffffffffffffffff16145b5b1515616c15576040517f08c379a00000000000000000000000000000000000000000000000000000000081526004018080602001828103825260178152602001807f4a6f62207375626d697373696f6e20696e76616c69642e00000000000000000081525060200191505060405180910390fd5b600360009054906101000a900473ffffffffffffffffffffffffffffffffffffffff1673ffffffffffffffffffffffffffffffffffffffff166323b872dd3330856040518463ffffffff167c0100000000000000000000000000000000000000000000000000000000028152600401808473ffffffffffffffffffffffffffffffffffffffff1673ffffffffffffffffffffffffffffffffffffffff1681526020018373ffffffffffffffffffffffffffffffffffffffff1673ffffffffffffffffffffffffffffffffffffffff1681526020018281526020019350505050602060405180830381600087803b158015616d0e57600080fd5b505af1158015616d22573d6000803e3d6000fd5b505050506040513d6020811015616d3857600080fd5b810190808051906020019092919050505015616f525781601060008560001916600019168152602001908152602001600020600101600082825401925050819055503360106000856000191660001916815260200190815260200160002060000160006101000a81548173ffffffffffffffffffffffffffffffffffffffff021916908373ffffffffffffffffffffffffffffffffffffffff160217905550600360009054906101000a900473ffffffffffffffffffffffffffffffffffffffff1673ffffffffffffffffffffffffffffffffffffffff166370a08231306040518263ffffffff167c0100000000000000000000000000000000000000000000000000000000028152600401808273ffffffffffffffffffffffffffffffffffffffff1673ffffffffffffffffffffffffffffffffffffffff168152602001915050602060405180830381600087803b158015616e9457600080fd5b505af1158015616ea8573d6000803e3d6000fd5b505050506040513d6020811015616ebe57600080fd5b81019080805190602001909291905050506010600085600019166000191681526020019081526020016000206001015411151515616ef857fe5b7f4521c984beed01d188bcc3bd297e6530cd217723b880fa43c70fbcbd664fb2ac60055484846040518084600019166000191681526020018360001916600019168152602001828152602001935050505060405180910390a15b505050565b6002809054906101000a900473ffffffffffffffffffffffffffffffffffffffff168073ffffffffffffffffffffffffffffffffffffffff163373ffffffffffffffffffffffffffffffffffffffff1614151561701c576040517f08c379a00000000000000000000000000000000000000000000000000000000081526004018080602001828103825260168152602001807f53656e646572206e6f7420617574686f72697a65642e0000000000000000000081525060200191505060405180910390fd5b6000600760008581526020019081526020016000205414156170655760088390806001815401808255809150509060018203906000526020600020016000909192909190915055505b8160076000858152602001908152602001600020819055507f2f0fe01aa6daff1c7bb411a324bdebe55dc2cd1e0ff2fc504b7569346e7d7d5a600554846007600087815260200190815260200160002054604051808460001916600019168152602001838152602001828152602001935050505060405180910390a1505050565b6000806012600033604051602001808273ffffffffffffffffffffffffffffffffffffffff1673ffffffffffffffffffffffffffffffffffffffff166c010000000000000000000000000281526014019150506040516020818303038152906040526040518082805190602001908083835b60208310151561717d5780518252602082019150602081019050602083039250617158565b6001836020036101000a03801982511681845116808217855250505050505090500191505060405180910390206000191660001916815260200190815260200160002060030154111515617239576040517f08c379a000000000000000000000000000000000000000000000000000000000815260040180806020018281038252601c8152602001807f436f6e74656e7420776173206e65766572207075726368617365642e0000000081525060200191505060405180910390fd5b6000600a6000858152602001908152602001600020600201541115156172ed576040517f08c379a00000000000000000000000000000000000000000000000000000000081526004018080602001828103825260218152602001807f4e6f7420612076616c696420726573616c6520636f6e66696775726174696f6e81526020017f2e0000000000000000000000000000000000000000000000000000000000000081525060400191505060405180910390fd5b33604051602001808273ffffffffffffffffffffffffffffffffffffffff1673ffffffffffffffffffffffffffffffffffffffff166c010000000000000000000000000281526014019150506040516020818303038152906040526040518082805190602001908083835b60208310151561737d5780518252602082019150602081019050602083039250617358565b6001836020036101000a03801982511681845116808217855250505050505090500191505060405180910390209050600a6000848152602001908152602001600020600101548210151515617460576040517f08c379a00000000000000000000000000000000000000000000000000000000081526004018080602001828103825260378152602001807f526573616c65207072696365206d757374206265206174206c6561737420746881526020017f65206d696e696d756d20726573616c652070726963652e00000000000000000081525060400191505060405180910390fd5b816012600083600019166000191681526020019081526020016000206002016000858152602001908152602001600020600101819055507f0e2912681a5905a8c6a4452da27fc30eb533a3aba5b44cf5a404baeadcdb134760055433846040518084600019166000191681526020018373ffffffffffffffffffffffffffffffffffffffff1673ffffffffffffffffffffffffffffffffffffffff168152602001828152602001935050505060405180910390a1505050565b6000336001600082604051602001808273ffffffffffffffffffffffffffffffffffffffff1673ffffffffffffffffffffffffffffffffffffffff166c010000000000000000000000000281526014019150506040516020818303038152906040526040518082805190602001908083835b6020831015156175b0578051825260208201915060208101905060208303925061758b565b6001836020036101000a03801982511681845116808217855250505050505090500191505060405180910390206000191660001916815260200190815260200160002060009054906101000a900460ff161515617675576040517f08c379a00000000000000000000000000000000000000000000000000000000081526004018080602001828103825260208152602001807f4f776e6572207265717565737420686173206e6f74206265656e2073656e742e81525060200191505060405180910390fd5b33604051602001808273ffffffffffffffffffffffffffffffffffffffff1673ffffffffffffffffffffffffffffffffffffffff166c010000000000000000000000000281526014019150506040516020818303038152906040526040518082805190602001908083835b60208310151561770557805182526020820191506020810190506020830392506176e0565b6001836020036101000a03801982511681845116808217855250505050505090500191505060405180910390209150600060016000846000191660001916815260200190815260200160002060006101000a81548160ff0219169083151502179055503373ffffffffffffffffffffffffffffffffffffffff166000809054906101000a900473ffffffffffffffffffffffffffffffffffffffff1673ffffffffffffffffffffffffffffffffffffffff167f1dc90b1ce875ea53ce4f7fb2036478f4ddfef57ec243f3fb5a9d81faf7dac5f460405160405180910390a35050565b6177ef617da1565b6000806000600a60008881526020019081526020016000206001015484602001818152505085846060018181525050600184600001901515908115158152505060126000896000191660001916815260200190815260200160002092506012600089600019166000191681526020019081526020016000206000018054905083600101600089815260200190815260200160002081905550826000018790806001815401808255809150509060018203906000526020600020016000909192909190915055508383600201600089815260200190815260200160002060008201518160000160006101000a81548160ff0219169083151502179055506020820151816001015560408201518160020155606082015181600301556080820151816004019080519060200190617925929190617dd3565b50905050600090505b858110156179cb578460030154810191508260020160008881526020019081526020016000206004016001866004018481548110151561796a57fe5b906000526020600020015401908060018154018082558091505090600182039060005260206000200160009091929091909150555084600401828154811015156179b057fe5b9060005260206000200160009055808060010191505061792e565b5050505050505050565b6000806012600084600019166000191681526020019081526020016000209150816002016000858152602001908152602001600020600080820160006101000a81549060ff0219169055600182016000905560028201600090556003820160009055600482016000617a479190617e20565b505081600101600085815260200190815260200160002054905081600101600085815260200190815260200160002060009055816000016001836000018054905003815481101515617a9557fe5b90600052602060002001548260000182815481101515617ab157fe5b9060005260206000200181905550816000016001836000018054905003815481101515617ada57fe5b9060005260206000200160009055600082600001805490501415617bbc57600460009054906101000a900473ffffffffffffffffffffffffffffffffffffffff1673ffffffffffffffffffffffffffffffffffffffff166387e52772866005546040518363ffffffff167c0100000000000000000000000000000000000000000000000000000000028152600401808360001916600019168152602001826000191660001916815260200192505050600060405180830381600087803b158015617ba357600080fd5b505af1158015617bb7573d6000803e3d6000fd5b505050505b5050505050565b60006002600a0a82029050919050565b606080828401855110151515617be857600080fd5b821560008114617c0357604051915060208201604052617c54565b6040519150601f8416801560200281840101858101878315602002848b0101015b81831015617c415780518352602083019250602081019050617c24565b50868552601f19601f8301166040525050505b50809150509392505050565b6000806001905083518351811460018114617c7e5760009250617cc3565b600160208701838101602088015b600284838510011415617cbe5780518351141515617cad5760009650600093505b602083019250602081019050617c8c565b505050505b50508091505092915050565b828054828255906000526020600020908101928215617d105760005260206000209182015b82811115617d0f578254825591600101919060010190617cf4565b5b509050617d1d9190617e41565b5090565b828054600181600116156101000203166002900490600052602060002090601f016020900481019282601f10617d6257805160ff1916838001178555617d90565b82800160010185558215617d90579182015b82811115617d8f578251825591602001919060010190617d74565b5b509050617d9d9190617e84565b5090565b60a060405190810160405280600015158152602001600081526020016000815260200160008152602001606081525090565b828054828255906000526020600020908101928215617e0f579160200282015b82811115617e0e578251825591602001919060010190617df3565b5b509050617e1c9190617e84565b5090565b5080546000825590600052602060002090810190617e3e9190617e84565b50565b617e8191905b80821115617e7d57600081816101000a81549073ffffffffffffffffffffffffffffffffffffffff021916905550600101617e47565b5090565b90565b617ea691905b80821115617ea2576000816000905550600101617e8a565b5090565b905600a165627a7a7230582084e6cb364c0dad5a4a2837e4f01f26269bc823064cd108983b090d5062d36a920029",
  "source": "pragma solidity ^0.4.24;\n\nimport \"./Ownable.sol\";\nimport \"./Library.sol\";\nimport \"./AraToken.sol\";\nimport \"bytes/BytesLib.sol\";\n\ncontract AFS is Ownable {\n  using BytesLib for bytes;\n\n  uint8 constant mtBufferSize_ = 40;\n  uint8 constant msBufferSize_ = 64;\n\n  bool      private once_;\n  bool      public resellable_;\n\n  address   public owner_;\n\n  AraToken  public token_;\n  Library   public lib_;\n\n  bytes32   public did_;\n  bool      public listed_;\n  mapping(uint256 => uint256) public prices_; // quantity (lower bound) => price\n  uint256[] public priceTiers_; // quantity tiers\n\n  uint256   public currGlobalConfigID_;\n  mapping(uint256 => GlobalResaleConfig)       public globalConfigs_; // configID => GlobalResaleConfig\n\n  uint256   public totalCopies_; // scarcity quantity\n  bool      public unlimited_ = false;\n\n  Royalties public royalties_;\n\n  mapping(bytes32 => Job)                      public jobs_; // jobId => job { budget, sender }\n  mapping(bytes32 => uint256)                  public rewards_;    // farmer => rewards\n  mapping(bytes32 => Purchases)                public purchases_; // keccak256 hashes of buyer addresses\n  mapping(uint8 => mapping (uint256 => bytes)) public metadata_;\n\n  struct Job {\n    address sender;\n    uint256 budget;\n  }\n\n  struct GlobalResaleConfig {\n    bool locked;\n\n    uint256  minResalePrice;\n    uint256  maxNumResales;\n  }\n\n  struct ResaleConfig {\n    bool enabled;\n\n    // reseller set config\n    uint256 resalePrice;\n    uint256 available;\n    uint256 quantity;\n    uint256[] resales; // total quantity owned => number of previous resales -- 0 indexed\n  }\n\n  struct Purchases {\n    uint256[] configIDs;\n    mapping(uint256 => uint256) configIDIndices; // configID => configIDs index\n    mapping(uint256 => ResaleConfig) configs; // configID => ResaleConfig\n\n    uint256 quantity; // of non-resellable purchases independent of configs\n  }\n\n  struct Royalties {\n    mapping(address => uint256) royalitySplit;\n    address[] addresses;\n    uint256 totalRoyalties;\n  }\n\n  // constants\n  uint256 public constant decimals = 2;\n\n  event Commit(bytes32 _did);\n  event Unlisted(bytes32 _did);\n  event Listed(bytes32 _did);\n  event MinResalePriceSet(bytes32 _did, uint256 _price);\n  event ResalePriceSet(bytes32 _did, address _purchaser, uint256 _price);\n  event MaxNumResalesSet(bytes32 _did, uint256 _quantity);\n  event PriceSet(bytes32 _did, uint256 _quantity, uint256 _price);\n  event BudgetSubmitted(bytes32 _did, bytes32 _jobId, uint256 _budget);\n  event RewardsAllocated(bytes32 _did, uint256 _allocated, uint256 _returned);\n  event Purchased(bytes32 _purchaser, bytes32 _did, uint256 _quantity, uint256 _price, uint256 _configID);\n  event PurchasedResale(bytes32 _purchaser, address _seller, bytes32 _did, uint256 _quantity, uint256 _price, uint256 _configID);\n  event Redeemed(address _sender);\n  event IncreasedSupply(bytes32 _did, uint256 _added, uint256 _total);\n  event DecreasedSupply(bytes32 _did, uint256 _removed, uint256 _total);\n  event SupplySet(bytes32 _did, uint256 _quantity);\n  event ResaleUnlocked(bytes32 _did, address _seller, uint256 _available);\n  event ResaleLocked(bytes32 _did, address _seller, uint256 _available);\n  event MarkedForResale(bytes32 _did);\n  event MarkedNotForResale(bytes32 _did);\n  event ResaleUnlocked(bytes32 _did);\n  event ResaleLocked(bytes32 _did);\n  event RoyaltiesUpdated();\n\n  modifier onlyBy(address _account)\n  {\n    require(\n      msg.sender == _account,\n      \"Sender not authorized.\"\n    );\n    _;\n  }\n\n  modifier purchaseRequired()\n  {\n    require(\n      purchases_[keccak256(abi.encodePacked(msg.sender))].quantity > 0,\n      \"Content was never purchased.\"\n    );\n    _;\n  }\n\n  modifier budgetSubmitted(bytes32 _jobId)\n  {\n    require(\n      jobs_[_jobId].sender == msg.sender && jobs_[_jobId].budget > 0,\n      \"Job is invalid.\"\n    );\n    _;\n  }\n\n  modifier onlyOnce()\n  {\n    require(!once_, \"Init function can only be called once.\");\n    _;\n  }\n\n  function init(bytes _data) public onlyOnce {\n    once_ = true;\n    uint256 btsptr;\n    address ownerAddr;\n    address tokenAddr;\n    address libAddr;\n    bytes32 did;\n    uint256 totalCopies;\n    /* solium-disable-next-line security/no-inline-assembly */\n    assembly {\n        btsptr := add(_data, 32)\n        ownerAddr := mload(btsptr)\n        btsptr := add(_data, 64)\n        tokenAddr := mload(btsptr)\n        btsptr := add(_data, 96)\n        libAddr := mload(btsptr)\n        btsptr := add(_data, 128)\n        did := mload(btsptr)\n        btsptr := add(_data, 160)\n        totalCopies := mload(btsptr)\n    }\n    owner_       = ownerAddr;\n    token_       = AraToken(tokenAddr);\n    lib_         = Library(libAddr);\n    did_         = did;\n    totalCopies_ = totalCopies;\n    if (0 == totalCopies_) {\n      unlimited_ = true;\n    }\n  }\n\n/**\n * CREATOR COMMERCE\n * ===============================================================================================\n */\n\n  function list() public onlyBy(owner_) {\n    listed_ = true;\n    emit Listed(did_);\n  }\n\n  function unlist() public onlyBy(owner_) {\n    listed_ = false;\n    emit Unlisted(did_);\n  }\n\n  function unlockResale(uint256 _globalConfigID) public onlyBy(owner_) {\n    require(globalConfigs_[_globalConfigID].maxNumResales > 0, \"Cannot unlock for resale because resale configuration has not been setup.\");\n    resellable_ = true;\n    currGlobalConfigID_ = _globalConfigID;\n    globalConfigs_[_globalConfigID].locked = true;\n    emit ResaleUnlocked(did_);\n  }\n\n  function lockResale() public onlyBy(owner_) {\n    resellable_ = false;\n    emit ResaleLocked(did_);\n  }\n\n  function setPrice(uint256 _quantity, uint256 _price) external onlyBy(owner_) {\n    if (prices_[_quantity] == 0) {\n      priceTiers_.push(_quantity);\n    }\n    prices_[_quantity] = _price;\n    emit PriceSet(did_, _quantity, prices_[_quantity]);\n  }\n\n  function getPrice(uint256 _quantity) public view returns (uint256) {\n    uint256 tier;\n    for (uint256 i = 0; i < priceTiers_.length; i++) {\n      if (priceTiers_[i] == _quantity) {\n        return prices_[_quantity];\n      } else if (priceTiers_[i] < _quantity && priceTiers_[i] > tier) {\n        tier = priceTiers_[i];\n      }\n    }\n    return prices_[tier];\n  }\n\n  function removePriceTier(uint256 _quantity) external onlyBy(owner_) {\n    delete prices_[_quantity];\n    for (uint256 i = 0; i < priceTiers_.length; i++) {\n      if (priceTiers_[i] == _quantity) {\n        delete priceTiers_[i]; // delete price tier\n        priceTiers_[i] = priceTiers_[priceTiers_.length - 1]; // move last price tier into deleted tier position\n        delete priceTiers_[priceTiers_.length - 1]; // delete last price tier\n      }\n    }\n  }\n\n  function setMinResalePrice(uint256 _configID, uint256 _price) external onlyBy(owner_) {\n    require(!globalConfigs_[_configID].locked, \"Cannot modify a locked resale configuration.\");\n    globalConfigs_[_configID].minResalePrice = _price;\n    emit MinResalePriceSet(did_, _price);\n  }\n\n  function setResaleQuantity(uint256 _configID, uint256 _quantity) external onlyBy(owner_) {\n    require(!globalConfigs_[_configID].locked, \"Cannot modify a locked resale configuration.\");\n    globalConfigs_[_configID].maxNumResales = _quantity;\n    emit MaxNumResalesSet(did_, _quantity);\n  }\n\n  function setSupply(uint256 _quantity) public onlyBy(owner_) {\n    require(_quantity > 0, \"Quantity must be greater than 0.\");\n\n    totalCopies_ = _quantity;\n    if (0 != totalCopies_) {\n      unlimited_ = false;\n    }\n\n    emit SupplySet(did_, totalCopies_);\n  }\n\n  function increaseSupply(uint256 _quantity) public onlyBy(owner_) {\n    require(_quantity > 0, \"Quantity must be greater than 0.\");\n\n    totalCopies_ += _quantity;\n    if (0 != totalCopies_) {\n      unlimited_ = false;\n    }\n\n    emit IncreasedSupply(did_, _quantity, totalCopies_);\n    emit SupplySet(did_, totalCopies_);\n  }\n\n  function decreaseSupply(uint256 _quantity) public onlyBy(owner_) {\n    require(_quantity > 0, \"Cannot remove non-positive number of copies.\");\n    require(totalCopies_ > 0, \"Cannot remove anymore copies.\");\n    require(totalCopies_ - _quantity >= 0, \"Trying to remove more copies than already exist.\");\n\n    totalCopies_ -= _quantity;\n    if (0 != totalCopies_) {\n      unlimited_ = false;\n    }\n\n    emit DecreasedSupply(did_, _quantity, totalCopies_);\n    emit SupplySet(did_, totalCopies_);\n  }\n\n  function setUnlimitedSupply() public onlyBy(owner_) {\n    totalCopies_ = 0;\n    unlimited_ = true;\n    emit SupplySet(did_, totalCopies_);\n  }\n\n  function setRoyalties(address[] addresses, uint256[] amounts, uint256 total) public onlyBy(owner_) {\n    require(priceTiers_.length > 0, \"Price must be set prior to setting royalties.\");\n\n    Royalties storage royalties;\n    for(uint256 i = 0; i < addresses.length; i++) {\n      royalties.royalitySplit[addresses[i]] = formatDecimals(amounts[i]);\n      royalties.addresses[i] = addresses[i];\n    }\n    royalties.totalRoyalties = formatDecimals(total);\n\n    royalties_ = royalties;\n\n    emit RoyaltiesUpdated();\n  }\n\n  function formatDecimals(uint256 _value) internal pure returns (uint256) {\n    return _value * 10 ** decimals;\n  }\n\n/**\n * RESELLER COMMERCE\n * ===============================================================================================\n */\n\n  function unlockResaleQuantity(uint256 _configID, uint256 _quantity) public purchaseRequired {\n    require(globalConfigs_[_configID].maxNumResales > 0, \"Not a valid resale configuration.\");\n    bytes32 hashedAddress = keccak256(abi.encodePacked(msg.sender));\n    require(_quantity + purchases_[hashedAddress].configs[_configID].available <= purchases_[hashedAddress].configs[_configID].quantity, \"Cannot unlock more for resale than owned.\");\n    purchases_[hashedAddress].configs[_configID].available += _quantity;\n    assert(purchases_[hashedAddress].configs[_configID].available <= purchases_[hashedAddress].configs[_configID].quantity);\n    emit ResaleUnlocked(did_, msg.sender, purchases_[hashedAddress].configs[_configID].available);\n  }\n\n  function lockResaleQuantity(uint256 _configID, uint256 _quantity) public purchaseRequired {\n    require(globalConfigs_[_configID].maxNumResales > 0, \"Not a valid resale configuration.\");\n    bytes32 hashedAddress = keccak256(abi.encodePacked(msg.sender));\n    require(purchases_[hashedAddress].configs[_configID].available >= _quantity, \"Cannot lock more than is available for resale.\");\n    purchases_[hashedAddress].configs[_configID].available -= _quantity;\n    assert(purchases_[hashedAddress].configs[_configID].available <= purchases_[hashedAddress].configs[_configID].quantity);\n    emit ResaleLocked(did_, msg.sender, purchases_[hashedAddress].configs[_configID].available);\n  }\n\n  function setResalePrice(uint256 _configID, uint256 _price) external purchaseRequired {\n    require(globalConfigs_[_configID].maxNumResales > 0, \"Not a valid resale configuration.\");\n    bytes32 hashedAddress = keccak256(abi.encodePacked(msg.sender));\n    require(_price >= globalConfigs_[_configID].minResalePrice, \"Resale price must be at least the minimum resale price.\");\n    purchases_[hashedAddress].configs[_configID].resalePrice = _price;\n    emit ResalePriceSet(did_, msg.sender, _price);\n  }\n\n/**\n * PURCHASE\n * ===============================================================================================\n */\n\n  /**\n   * @dev Purchases this AFS and adds it to _purchaser's library. \n   *      If _download is true, deposits any remaining allowance \n   *      as rewards for this purchase\n   * @param _purchaser The hashed methodless did of the purchaser\n   * @param _jobId The jobId of the download, or 0x00000000000000000000000000000000 if N/A\n   * @param _budget The reward budget for jobId, or 0 if N/A\n   */\n  function purchase(bytes32 _purchaser, uint256 _quantity, bytes32 _jobId, uint256 _budget) external {\n    require(listed_, \"AFS has not been listed for sale.\");\n    require(totalCopies_ != 0 || unlimited_, \"No more copies available for purchase.\");\n    require(_quantity > 0, \"Must purchase at least 1 copy.\");\n    require(totalCopies_ >= _quantity || unlimited_, \"Cannot purchase more copies than are available.\");\n\n    uint256 allowance = token_.allowance(msg.sender, address(this));\n    bytes32 hashedAddress = keccak256(abi.encodePacked(msg.sender));\n    uint256 totalPrice = _quantity * getPrice(_quantity);\n    require(allowance >= (totalPrice) + _budget, \"Proxy must be approved for purchase.\");\n\n    require(token_.transferFrom(msg.sender, owner_, totalPrice), \"Ara transfer failed.\");\n\n    if (resellable_) {\n      if (purchases_[hashedAddress].configs[currGlobalConfigID_].enabled) {\n        purchases_[hashedAddress].configs[currGlobalConfigID_].quantity += _quantity;\n      } else {\n        ResaleConfig memory config;\n        config.resalePrice = globalConfigs_[currGlobalConfigID_].minResalePrice;\n        config.quantity = _quantity;\n        config.enabled = true;\n\n        purchases_[hashedAddress].configIDIndices[currGlobalConfigID_] = purchases_[hashedAddress].configIDs.length;\n        purchases_[hashedAddress].configIDs.push(currGlobalConfigID_);\n        purchases_[hashedAddress].configs[currGlobalConfigID_] = config;\n      }\n    } else {\n      purchases_[hashedAddress].quantity += _quantity;\n    }\n\n    if (totalCopies_ > 0) {\n      totalCopies_ -= _quantity;\n      if (totalCopies_ == 0) {\n        unlist();\n      }\n    }\n\n    if (!lib_.owns(_purchaser, did_)) {\n      lib_.addLibraryItem(_purchaser, did_);\n    }\n\n    emit Purchased(_purchaser, did_, _quantity, totalPrice, currGlobalConfigID_);\n\n    if (_jobId != bytes32(0) && _budget > 0) {\n      submitBudget(_jobId, _budget);\n    }\n  }\n\n  /**\n   * @param _seller seller's Ethereum address\n   * \n   */\n  function purchaseResale(address _seller, uint256 _configID, bytes32 _purchaser, uint256 _quantity, bytes32 _jobId, uint256 _budget) external {\n    require(_quantity > 0, \"Must purchase at least 1 copy.\");\n    bytes32 seller = keccak256(abi.encodePacked(_seller));\n    ResaleConfig storage sellerConfig = purchases_[seller].configs[_configID];\n\n    require(sellerConfig.enabled, \"Please provide a valid seller resale configuration.\");\n    require(sellerConfig.available >= _quantity, \"This quantity is not available for resale from this seller using this resale configuration.\");\n    require(sellerConfig.resales[_quantity - 1] < globalConfigs_[_configID].maxNumResales, \"Copy has already been sold the maximum number of times.\");\n\n    uint256 totalPrice = _quantity * sellerConfig.resalePrice;\n    require(token_.allowance(msg.sender, address(this)) >= totalPrice + _budget, \"Proxy must be approved for purchase.\");\n\n    // transfer minimum resale price to owner and transfer remainder to reseller\n    require(token_.transferFrom(msg.sender, _seller, _quantity * (sellerConfig.resalePrice - globalConfigs_[_configID].minResalePrice))\n      && token_.transferFrom(msg.sender, owner_, _quantity * globalConfigs_[_configID].minResalePrice), \"Ara transfer failed.\");\n    \n    // decrement seller resale availability/quantity\n    sellerConfig.quantity -= _quantity;\n    sellerConfig.available -= _quantity;\n\n    bytes32 purchaser = keccak256(abi.encodePacked(msg.sender));\n    Purchases storage purchaserPurchases = purchases_[purchaser];\n\n    if (purchaserPurchases.configs[_configID].enabled) {\n      purchaserPurchases.configs[_configID].quantity += _quantity;\n    } else {\n      _createConfig(purchaser, _configID, _quantity, sellerConfig);\n    }\n\n    if (!lib_.owns(_purchaser, did_)) {\n      lib_.addLibraryItem(_purchaser, did_);\n    }\n\n    emit PurchasedResale(_purchaser, _seller, did_, _quantity, totalPrice, _configID);\n\n    if (sellerConfig.quantity == 0) {\n      _deleteConfig(seller, _configID, seller);\n    }\n\n    if (_jobId != bytes32(0) && _budget > 0) {\n      submitBudget(_jobId, _budget);\n    }\n  }\n\n  function _createConfig(bytes32 _owner, uint256 _id, uint256 _quantity, ResaleConfig storage oldConfig) internal {\n    ResaleConfig memory newConfig;\n\n    newConfig.resalePrice = globalConfigs_[_id].minResalePrice;\n    newConfig.quantity = _quantity;\n    newConfig.enabled = true;\n\n    Purchases storage purchases = purchases_[_owner];\n\n    purchases.configIDIndices[_id] = purchases_[_owner].configIDs.length;\n    purchases.configIDs.push(_id);\n    purchases.configs[_id] = newConfig;\n\n    uint256 soldCopyIndex;\n    for (uint256 i = 0; i < _quantity; i++) {\n      soldCopyIndex = i + oldConfig.quantity;\n      purchases.configs[_id].resales.push(oldConfig.resales[soldCopyIndex] + 1); // update resale count for purchaser with old resale count + 1\n      delete oldConfig.resales[soldCopyIndex]; // delete resale count for sold copies\n    }\n  }\n\n  function _deleteConfig(bytes32 seller, uint256 _id, bytes32 _seller) internal {\n    // delete config\n    Purchases storage sellerPurchases = purchases_[_seller];\n    delete sellerPurchases.configs[_id]; // delete config mapping\n    uint256 configIDIndex = sellerPurchases.configIDIndices[_id]; // get configID index\n    delete sellerPurchases.configIDIndices[_id]; // delete configID index mapping\n    sellerPurchases.configIDs[configIDIndex] = sellerPurchases.configIDs[sellerPurchases.configIDs.length - 1]; // move last configID into deleted configID position\n    delete sellerPurchases.configIDs[sellerPurchases.configIDs.length - 1]; // delete last configID\n\n    if (sellerPurchases.configIDs.length == 0) {\n      lib_.removeLibraryItem(seller, did_);\n    }\n  }\n\n  function getResaleConfig(bytes32 _owner, uint256 _id) public view returns (uint256 minResalePrice, uint256 maxNumResales, uint256 resalePrice, uint256 available, uint256 quantity) {\n    ResaleConfig storage config = purchases_[_owner].configs[_id];\n    return (globalConfigs_[_id].minResalePrice, globalConfigs_[_id].maxNumResales, config.resalePrice, config.available, config.quantity);\n  }\n\n/**\n * REWARDS\n * ===============================================================================================\n */\n\n  function submitBudget(bytes32 _jobId, uint256 _budget) public purchaseRequired {\n    uint256 allowance = token_.allowance(msg.sender, address(this));\n    require(_jobId != bytes32(0) && _budget > 0 && allowance >= _budget\n      && (jobs_[_jobId].sender == address(0) || jobs_[_jobId].sender == msg.sender), \"Job submission invalid.\");\n\n    if (token_.transferFrom(msg.sender, address(this), _budget)) {\n      jobs_[_jobId].budget += _budget;\n      jobs_[_jobId].sender = msg.sender;\n      assert(jobs_[_jobId].budget <= token_.balanceOf(address(this)));\n      emit BudgetSubmitted(did_, _jobId, _budget);\n    }\n  }\n\n  function getBudget(bytes32 _jobId) public view returns (uint256) {\n    return jobs_[_jobId].budget;\n  }\n\n  function allocateRewards(bytes32 _jobId, bytes32[] _farmers, uint256[] _rewards) public budgetSubmitted(_jobId) {\n    require(_farmers.length == _rewards.length, \"Unequal number of farmers and rewards.\");\n    uint256 totalRewards;\n    for (uint8 i = 0; i < _rewards.length; i++) {\n      totalRewards += _rewards[i];\n    }\n    require(totalRewards <= jobs_[_jobId].budget, \"Insufficient budget.\");\n    for (uint8 j = 0; j < _farmers.length; j++) {\n      assert(jobs_[_jobId].budget >= _rewards[j]);\n      rewards_[_farmers[j]] = _rewards[j];\n      jobs_[_jobId].budget -= _rewards[j];\n    }\n    uint256 remaining = jobs_[_jobId].budget;\n    if (remaining > 0) {\n      rewards_[keccak256(abi.encodePacked(msg.sender))] = remaining;\n      jobs_[_jobId].budget = 0;\n      redeemBalance();\n    }\n    emit RewardsAllocated(did_, totalRewards, remaining);\n  }\n\n  function redeemBalance() public {\n    bytes32 hashedAddress = keccak256(abi.encodePacked(msg.sender));\n    require(rewards_[hashedAddress] > 0, \"No balance to redeem.\");\n    if (token_.transfer(msg.sender, rewards_[hashedAddress])) {\n      rewards_[hashedAddress] = 0;\n      emit Redeemed(msg.sender);\n    }\n  }\n\n  function getRewardsBalance(address _farmer) public view returns (uint256) {\n    return rewards_[keccak256(abi.encodePacked(_farmer))];\n  }\n\n/**\n * STORAGE\n * ===============================================================================================\n */\n\n  function append(uint256[] _mtOffsets, uint256[] _msOffsets, bytes _mtBuffer, \n    bytes _msBuffer, bool _list) external onlyBy(owner_) {\n    \n    listed_ = listed_ || _list;\n\n    uint256 maxOffsetLength = _mtOffsets.length > _msOffsets.length \n      ? _mtOffsets.length \n      : _msOffsets.length;\n\n    for (uint i = 0; i < maxOffsetLength; i++) {\n      // metadata/tree\n      if (i <= _mtOffsets.length - 1) {\n        metadata_[0][_mtOffsets[i]] = _mtBuffer.slice(i * mtBufferSize_, mtBufferSize_);\n      }\n\n      // metadata/signatures\n      if (i <= _msOffsets.length - 1) {\n        metadata_[1][_msOffsets[i]] = _msBuffer.slice(i * msBufferSize_, msBufferSize_);\n      }\n    }\n\n    emit Commit(did_);\n  }\n\n  function write(uint256[] _mtOffsets, uint256[] _msOffsets, bytes _mtBuffer, \n    bytes _msBuffer, bool _list) public onlyBy(owner_) {\n\n    listed_ = listed_ || _list;\n\n    uint256 maxOffsetLength = _mtOffsets.length > _msOffsets.length \n      ? _mtOffsets.length \n      : _msOffsets.length;\n\n    // add headers\n    metadata_[0][0] = _mtBuffer.slice(0, 32);\n    metadata_[1][0] = _msBuffer.slice(0, 32);\n\n    for (uint i = 1; i < maxOffsetLength; i++) {\n      // metadata/tree\n      if (i <= _mtOffsets.length - 1) {\n        metadata_[0][_mtOffsets[i]] = _mtBuffer.slice(_mtOffsets[i], mtBufferSize_);\n      }\n      \n      // metadata/signatures\n      if (i <= _msOffsets.length - 1) {\n        metadata_[1][_msOffsets[i]] = _msBuffer.slice(_msOffsets[i], msBufferSize_);\n      }\n    }\n\n    emit Commit(did_);\n  }\n\n  function read(uint8 _file, uint256 _offset) public view returns (bytes buffer) {\n    if (!listed_) {\n      return \"\"; // empty bytes\n    }\n    return metadata_[_file][_offset];\n  }\n\n  function hasBuffer(uint8 _file, uint256 _offset, bytes _buffer) public view returns (bool exists) {\n    return metadata_[_file][_offset].equal(_buffer);\n  }\n}\n",
  "sourcePath": "/Users/ericjiang/Littlstar/ara-contracts/contracts/AFS.sol",
  "compiler": {
    "name": "solc",
    "version": "0.4.24+commit.e67f0147.Emscripten.clang"
  },
  "schemaVersion": "2.0.1",
  "updatedAt": "2018-10-17T22:22:20.672Z"
}