{
  "contractName": "AFS",
  "abi": [
    {
      "constant": true,
      "inputs": [],
      "name": "registry_",
      "outputs": [
        {
          "name": "",
          "type": "address"
        }
      ],
      "payable": false,
      "stateMutability": "view",
      "type": "function"
    },
    {
      "constant": true,
      "inputs": [],
      "name": "listed_",
      "outputs": [
        {
          "name": "",
          "type": "bool"
        }
      ],
      "payable": false,
      "stateMutability": "view",
      "type": "function"
    },
    {
      "constant": true,
      "inputs": [],
      "name": "lib_",
      "outputs": [
        {
          "name": "",
          "type": "address"
        }
      ],
      "payable": false,
      "stateMutability": "view",
      "type": "function"
    },
    {
      "constant": true,
      "inputs": [],
      "name": "did_",
      "outputs": [
        {
          "name": "",
          "type": "string"
        }
      ],
      "payable": false,
      "stateMutability": "view",
      "type": "function"
    },
    {
      "constant": true,
      "inputs": [
        {
          "name": "",
          "type": "bytes32"
        }
      ],
      "name": "rewards_",
      "outputs": [
        {
          "name": "",
          "type": "uint256"
        }
      ],
      "payable": false,
      "stateMutability": "view",
      "type": "function"
    },
    {
      "constant": true,
      "inputs": [],
      "name": "price_",
      "outputs": [
        {
          "name": "",
          "type": "uint256"
        }
      ],
      "payable": false,
      "stateMutability": "view",
      "type": "function"
    },
    {
      "constant": true,
      "inputs": [
        {
          "name": "",
          "type": "uint8"
        }
      ],
      "name": "metadata_",
      "outputs": [
        {
          "name": "invalid",
          "type": "bool"
        }
      ],
      "payable": false,
      "stateMutability": "view",
      "type": "function"
    },
    {
      "constant": true,
      "inputs": [],
      "name": "token_",
      "outputs": [
        {
          "name": "",
          "type": "address"
        }
      ],
      "payable": false,
      "stateMutability": "view",
      "type": "function"
    },
    {
      "constant": true,
      "inputs": [],
      "name": "version_",
      "outputs": [
        {
          "name": "",
          "type": "string"
        }
      ],
      "payable": false,
      "stateMutability": "view",
      "type": "function"
    },
    {
      "constant": true,
      "inputs": [],
      "name": "owner_",
      "outputs": [
        {
          "name": "",
          "type": "address"
        }
      ],
      "payable": false,
      "stateMutability": "view",
      "type": "function"
    },
    {
      "constant": true,
      "inputs": [
        {
          "name": "",
          "type": "bytes32"
        }
      ],
      "name": "purchasers_",
      "outputs": [
        {
          "name": "",
          "type": "bool"
        }
      ],
      "payable": false,
      "stateMutability": "view",
      "type": "function"
    },
    {
      "inputs": [
        {
          "name": "_lib",
          "type": "address"
        },
        {
          "name": "_token",
          "type": "address"
        }
      ],
      "payable": false,
      "stateMutability": "nonpayable",
      "type": "constructor"
    },
    {
      "anonymous": false,
      "inputs": [
        {
          "indexed": false,
          "name": "_did",
          "type": "string"
        },
        {
          "indexed": false,
          "name": "_file",
          "type": "uint8"
        },
        {
          "indexed": false,
          "name": "_offset",
          "type": "uint256"
        },
        {
          "indexed": false,
          "name": "_buffer",
          "type": "bytes"
        }
      ],
      "name": "Commit",
      "type": "event"
    },
    {
      "anonymous": false,
      "inputs": [
        {
          "indexed": false,
          "name": "_did",
          "type": "string"
        }
      ],
      "name": "Unlisted",
      "type": "event"
    },
    {
      "anonymous": false,
      "inputs": [
        {
          "indexed": false,
          "name": "_did",
          "type": "string"
        },
        {
          "indexed": false,
          "name": "_price",
          "type": "uint256"
        }
      ],
      "name": "PriceSet",
      "type": "event"
    },
    {
      "anonymous": false,
      "inputs": [
        {
          "indexed": false,
          "name": "_did",
          "type": "string"
        },
        {
          "indexed": false,
          "name": "_reward",
          "type": "uint256"
        }
      ],
      "name": "RewardDeposited",
      "type": "event"
    },
    {
      "anonymous": false,
      "inputs": [
        {
          "indexed": false,
          "name": "_did",
          "type": "string"
        },
        {
          "indexed": false,
          "name": "_distributed",
          "type": "uint256"
        },
        {
          "indexed": false,
          "name": "_returned",
          "type": "uint256"
        }
      ],
      "name": "RewardDistributed",
      "type": "event"
    },
    {
      "anonymous": false,
      "inputs": [
        {
          "indexed": false,
          "name": "_purchaser",
          "type": "string"
        },
        {
          "indexed": false,
          "name": "_did",
          "type": "string"
        },
        {
          "indexed": false,
          "name": "_download",
          "type": "bool"
        }
      ],
      "name": "Purchased",
      "type": "event"
    },
    {
      "constant": false,
      "inputs": [
        {
          "name": "_price",
          "type": "uint256"
        }
      ],
      "name": "setPrice",
      "outputs": [],
      "payable": false,
      "stateMutability": "nonpayable",
      "type": "function"
    },
    {
      "constant": false,
      "inputs": [
        {
          "name": "_reward",
          "type": "uint256"
        }
      ],
      "name": "depositReward",
      "outputs": [
        {
          "name": "success",
          "type": "bool"
        }
      ],
      "payable": false,
      "stateMutability": "nonpayable",
      "type": "function"
    },
    {
      "constant": false,
      "inputs": [
        {
          "name": "_addresses",
          "type": "address[]"
        },
        {
          "name": "_amounts",
          "type": "uint256[]"
        }
      ],
      "name": "distributeReward",
      "outputs": [
        {
          "name": "success",
          "type": "bool"
        }
      ],
      "payable": false,
      "stateMutability": "nonpayable",
      "type": "function"
    },
    {
      "constant": false,
      "inputs": [
        {
          "name": "_purchaser",
          "type": "string"
        },
        {
          "name": "_download",
          "type": "bool"
        }
      ],
      "name": "purchase",
      "outputs": [
        {
          "name": "success",
          "type": "bool"
        }
      ],
      "payable": false,
      "stateMutability": "nonpayable",
      "type": "function"
    },
    {
      "constant": false,
      "inputs": [
        {
          "name": "_file",
          "type": "uint8"
        },
        {
          "name": "_offset",
          "type": "uint256"
        },
        {
          "name": "_buffer",
          "type": "bytes"
        },
        {
          "name": "_last_write",
          "type": "bool"
        }
      ],
      "name": "write",
      "outputs": [
        {
          "name": "success",
          "type": "bool"
        }
      ],
      "payable": false,
      "stateMutability": "nonpayable",
      "type": "function"
    },
    {
      "constant": true,
      "inputs": [
        {
          "name": "_file",
          "type": "uint8"
        },
        {
          "name": "_offset",
          "type": "uint256"
        }
      ],
      "name": "read",
      "outputs": [
        {
          "name": "buffer",
          "type": "bytes"
        }
      ],
      "payable": false,
      "stateMutability": "view",
      "type": "function"
    },
    {
      "constant": false,
      "inputs": [],
      "name": "unlist",
      "outputs": [
        {
          "name": "success",
          "type": "bool"
        }
      ],
      "payable": false,
      "stateMutability": "nonpayable",
      "type": "function"
    }
  ],
  "bytecode": "0x60806040526040805190810160405280600181526020017f310000000000000000000000000000000000000000000000000000000000000081525060089080519060200190620000519291906200017a565b503480156200005f57600080fd5b50604051604080620026608339810180604052810190808051906020019092919080519060200190929190505050336000806101000a81548173ffffffffffffffffffffffffffffffffffffffff021916908373ffffffffffffffffffffffffffffffffffffffff16021790555080600960006101000a81548173ffffffffffffffffffffffffffffffffffffffff021916908373ffffffffffffffffffffffffffffffffffffffff16021790555081600a60006101000a81548173ffffffffffffffffffffffffffffffffffffffff021916908373ffffffffffffffffffffffffffffffffffffffff1602179055506001600360006101000a81548160ff0219169083151502179055506000600481905550505062000229565b828054600181600116156101000203166002900490600052602060002090601f016020900481019282601f10620001bd57805160ff1916838001178555620001ee565b82800160010185558215620001ee579182015b82811115620001ed578251825591602001919060010190620001d0565b5b509050620001fd919062000201565b5090565b6200022691905b808211156200022257600081600090555060010162000208565b5090565b90565b61242780620002396000396000f3006080604052600436106100fc576000357c0100000000000000000000000000000000000000000000000000000000900463ffffffff168063025ccbad146101015780631e2720ff146101585780632a6363be1461019d5780633c6acea5146101cc57806346f60dee1461024257806347269720146102995780635ee6fa6114610329578063822b096e1461036e57806391b7f5ed146103d9578063a0d5850114610406578063bb66f9f614610435578063bf466b4a146104e8578063ce40b03f14610547578063ce605ea914610572578063d56805e1146105ba578063dd1bb1fc14610611578063e7663079146106a1578063f5bd3e3f146106f8575b600080fd5b34801561010d57600080fd5b50610116610741565b604051808273ffffffffffffffffffffffffffffffffffffffff1673ffffffffffffffffffffffffffffffffffffffff16815260200191505060405180910390f35b34801561016457600080fd5b5061018360048036038101908080359060200190929190505050610767565b604051808215151515815260200191505060405180910390f35b3480156101a957600080fd5b506101b2610ceb565b604051808215151515815260200191505060405180910390f35b3480156101d857600080fd5b50610228600480360381019080803560ff16906020019092919080359060200190929190803590602001908201803590602001919091929391929390803515159060200190929190505050610cfe565b604051808215151515815260200191505060405180910390f35b34801561024e57600080fd5b50610257610f85565b604051808273ffffffffffffffffffffffffffffffffffffffff1673ffffffffffffffffffffffffffffffffffffffff16815260200191505060405180910390f35b3480156102a557600080fd5b506102ae610fab565b6040518080602001828103825283818151815260200191508051906020019080838360005b838110156102ee5780820151818401526020810190506102d3565b50505050905090810190601f16801561031b5780820380516001836020036101000a031916815260200191505b509250505060405180910390f35b34801561033557600080fd5b506103586004803603810190808035600019169060200190929190505050611049565b6040518082815260200191505060405180910390f35b34801561037a57600080fd5b506103bf600480360381019080803590602001908201803590602001919091929391929390803590602001908201803590602001919091929391929390505050611061565b604051808215151515815260200191505060405180910390f35b3480156103e557600080fd5b5061040460048036038101908080359060200190929190505050611765565b005b34801561041257600080fd5b5061041b6118f9565b604051808215151515815260200191505060405180910390f35b34801561044157600080fd5b5061046d600480360381019080803560ff16906020019092919080359060200190929190505050611b02565b6040518080602001828103825283818151815260200191508051906020019080838360005b838110156104ad578082015181840152602081019050610492565b50505050905090810190601f1680156104da5780820380516001836020036101000a031916815260200191505b509250505060405180910390f35b3480156104f457600080fd5b5061052d600480360381019080803590602001908201803590602001919091929391929390803515159060200190929190505050611c1a565b604051808215151515815260200191505060405180910390f35b34801561055357600080fd5b5061055c61221c565b6040518082815260200191505060405180910390f35b34801561057e57600080fd5b506105a0600480360381019080803560ff169060200190929190505050612222565b604051808215151515815260200191505060405180910390f35b3480156105c657600080fd5b506105cf61224d565b604051808273ffffffffffffffffffffffffffffffffffffffff1673ffffffffffffffffffffffffffffffffffffffff16815260200191505060405180910390f35b34801561061d57600080fd5b50610626612273565b6040518080602001828103825283818151815260200191508051906020019080838360005b8381101561066657808201518184015260208101905061064b565b50505050905090810190601f1680156106935780820380516001836020036101000a031916815260200191505b509250505060405180910390f35b3480156106ad57600080fd5b506106b6612311565b604051808273ffffffffffffffffffffffffffffffffffffffff1673ffffffffffffffffffffffffffffffffffffffff16815260200191505060405180910390f35b34801561070457600080fd5b506107276004803603810190808035600019169060200190929190505050612336565b604051808215151515815260200191505060405180910390f35b600160009054906101000a900473ffffffffffffffffffffffffffffffffffffffff1681565b600080600033604051602001808273ffffffffffffffffffffffffffffffffffffffff1673ffffffffffffffffffffffffffffffffffffffff166c010000000000000000000000000281526014019150506040516020818303038152906040526040518082805190602001908083835b6020831015156107fc57805182526020820191506020810190506020830392506107d7565b6001836020036101000a0380198251168184511680821785525050505050509050019150506040518091039020915060066000836000191660001916815260200190815260200160002060009054906101000a900460ff1615610cdf57600960009054906101000a900473ffffffffffffffffffffffffffffffffffffffff1673ffffffffffffffffffffffffffffffffffffffff1663dd62ed3e33306040518363ffffffff167c0100000000000000000000000000000000000000000000000000000000028152600401808373ffffffffffffffffffffffffffffffffffffffff1673ffffffffffffffffffffffffffffffffffffffff1681526020018273ffffffffffffffffffffffffffffffffffffffff1673ffffffffffffffffffffffffffffffffffffffff16815260200192505050602060405180830381600087803b15801561094a57600080fd5b505af115801561095e573d6000803e3d6000fd5b505050506040513d602081101561097457600080fd5b81019080805190602001909291905050509050838110158015610ac75750600960009054906101000a900473ffffffffffffffffffffffffffffffffffffffff1673ffffffffffffffffffffffffffffffffffffffff166323b872dd3330876040518463ffffffff167c0100000000000000000000000000000000000000000000000000000000028152600401808473ffffffffffffffffffffffffffffffffffffffff1673ffffffffffffffffffffffffffffffffffffffff1681526020018373ffffffffffffffffffffffffffffffffffffffff1673ffffffffffffffffffffffffffffffffffffffff1681526020018281526020019350505050602060405180830381600087803b158015610a8b57600080fd5b505af1158015610a9f573d6000803e3d6000fd5b505050506040513d6020811015610ab557600080fd5b81019080805190602001909291905050505b15610cde578360056000846000191660001916815260200190815260200160002060008282540192505081905550600960009054906101000a900473ffffffffffffffffffffffffffffffffffffffff1673ffffffffffffffffffffffffffffffffffffffff166370a08231306040518263ffffffff167c0100000000000000000000000000000000000000000000000000000000028152600401808273ffffffffffffffffffffffffffffffffffffffff1673ffffffffffffffffffffffffffffffffffffffff168152602001915050602060405180830381600087803b158015610bb257600080fd5b505af1158015610bc6573d6000803e3d6000fd5b505050506040513d6020811015610bdc57600080fd5b81019080805190602001909291905050506005600084600019166000191681526020019081526020016000205411151515610c1357fe5b7fffa127676dfb7fc4c3eec888bf0cd1222a23b8825c4e8d1eff4b9e23cc8f16e86002856040518080602001838152602001828103825284818154600181600116156101000203166002900481526020019150805460018160011615610100020316600290048015610cc65780601f10610c9b57610100808354040283529160200191610cc6565b820191906000526020600020905b815481529060010190602001808311610ca957829003601f168201915b5050935050505060405180910390a160019250610ce4565b5b600092505b5050919050565b600360009054906101000a900460ff1681565b60008060009054906101000a900473ffffffffffffffffffffffffffffffffffffffff168073ffffffffffffffffffffffffffffffffffffffff163373ffffffffffffffffffffffffffffffffffffffff16141515610dc5576040517f08c379a00000000000000000000000000000000000000000000000000000000081526004018080602001828103825260168152602001807f53656e646572206e6f7420617574686f72697a65642e0000000000000000000081525060200191505060405180910390fd5b600760008860ff1660ff16815260200190815260200160002060020160009054906101000a900460ff16151515610dfb57600080fd5b8484600760008a60ff1660ff16815260200190815260200160002060000160008981526020019081526020016000209190610e37929190612356565b50600760008860ff1660ff1681526020019081526020016000206001018690806001815401808255809150509060018203906000526020600020016000909192909190915055508215610f77577fd2f56baeb2e8836bbf63f5bc75cb743b754fa61b9e7bf53024bd3e4cb2dc93f460028888888860405180806020018660ff1660ff16815260200185815260200180602001838103835288818154600181600116156101000203166002900481526020019150805460018160011615610100020316600290048015610f4a5780601f10610f1f57610100808354040283529160200191610f4a565b820191906000526020600020905b815481529060010190602001808311610f2d57829003601f168201915b50508381038252858582818152602001925080828437820191505097505050505050505060405180910390a15b600191505095945050505050565b600a60009054906101000a900473ffffffffffffffffffffffffffffffffffffffff1681565b60028054600181600116156101000203166002900480601f0160208091040260200160405190810160405280929190818152602001828054600181600116156101000203166002900480156110415780601f1061101657610100808354040283529160200191611041565b820191906000526020600020905b81548152906001019060200180831161102457829003601f168201915b505050505081565b60056020528060005260406000206000915090505481565b600080600080600080600033604051602001808273ffffffffffffffffffffffffffffffffffffffff1673ffffffffffffffffffffffffffffffffffffffff166c010000000000000000000000000281526014019150506040516020818303038152906040526040518082805190602001908083835b6020831015156110fc57805182526020820191506020810190506020830392506110d7565b6001836020036101000a0380198251168184511680821785525050505050509050019150506040518091039020955060006005600088600019166000191681526020019081526020016000205411801561115b5750888890508b8b9050145b151561116657600080fd5b600093505b8888905084101561119c57888885818110151561118457fe5b9050602002013585019450838060010194505061116b565b600960009054906101000a900473ffffffffffffffffffffffffffffffffffffffff1673ffffffffffffffffffffffffffffffffffffffff166370a08231306040518263ffffffff167c0100000000000000000000000000000000000000000000000000000000028152600401808273ffffffffffffffffffffffffffffffffffffffff1673ffffffffffffffffffffffffffffffffffffffff168152602001915050602060405180830381600087803b15801561125957600080fd5b505af115801561126d573d6000803e3d6000fd5b505050506040513d602081101561128357600080fd5b810190808051906020019092919050505060056000886000191660001916815260200190815260200160002054111580156112d95750846005600088600019166000191681526020019081526020016000205410155b15156112e457600080fd5b60019650600092505b8a8a90508310156114c957600960009054906101000a900473ffffffffffffffffffffffffffffffffffffffff1673ffffffffffffffffffffffffffffffffffffffff166323b872dd308d8d87818110151561134557fe5b9050602002013573ffffffffffffffffffffffffffffffffffffffff168c8c88818110151561137057fe5b905060200201356040518463ffffffff167c0100000000000000000000000000000000000000000000000000000000028152600401808473ffffffffffffffffffffffffffffffffffffffff1673ffffffffffffffffffffffffffffffffffffffff1681526020018373ffffffffffffffffffffffffffffffffffffffff1673ffffffffffffffffffffffffffffffffffffffff1681526020018281526020019350505050602060405180830381600087803b15801561142f57600080fd5b505af1158015611443573d6000803e3d6000fd5b505050506040513d602081101561145957600080fd5b8101908080519060200190929190505050915081156114b057888884818110151561148057fe5b90506020020135600560008860001916600019168152602001908152602001600020600082825403925050819055505b8680156114ba5750815b965082806001019350506112ed565b600090506000600560008860001916600019168152602001908152602001600020541180156116435750600960009054906101000a900473ffffffffffffffffffffffffffffffffffffffff1673ffffffffffffffffffffffffffffffffffffffff166323b872dd3033600560008b60001916600019168152602001908152602001600020546040518463ffffffff167c0100000000000000000000000000000000000000000000000000000000028152600401808473ffffffffffffffffffffffffffffffffffffffff1673ffffffffffffffffffffffffffffffffffffffff1681526020018373ffffffffffffffffffffffffffffffffffffffff1673ffffffffffffffffffffffffffffffffffffffff1681526020018281526020019350505050602060405180830381600087803b15801561160757600080fd5b505af115801561161b573d6000803e3d6000fd5b505050506040513d602081101561163157600080fd5b81019080805190602001909291905050505b15611688576005600087600019166000191681526020019081526020016000205490506000600560008860001916600019168152602001908152602001600020819055505b7f4e43b8c8795454d46f4b1322d0e6fcb2ffb8db062e02097701962e01917c659e60028287038360405180806020018481526020018381526020018281038252858181546001816001161561010002031660029004815260200191508054600181600116156101000203166002900480156117445780601f1061171957610100808354040283529160200191611744565b820191906000526020600020905b81548152906001019060200180831161172757829003601f168201915b505094505050505060405180910390a1869650505050505050949350505050565b6000809054906101000a900473ffffffffffffffffffffffffffffffffffffffff168073ffffffffffffffffffffffffffffffffffffffff163373ffffffffffffffffffffffffffffffffffffffff1614151561182a576040517f08c379a00000000000000000000000000000000000000000000000000000000081526004018080602001828103825260168152602001807f53656e646572206e6f7420617574686f72697a65642e0000000000000000000081525060200191505060405180910390fd5b816004819055507fd36541c06b2fd871e44629372893c1c3d4dd782ebe28a03689b3e3bb6d495f74600260045460405180806020018381526020018281038252848181546001816001161561010002031660029004815260200191508054600181600116156101000203166002900480156118e65780601f106118bb576101008083540402835291602001916118e6565b820191906000526020600020905b8154815290600101906020018083116118c957829003601f168201915b5050935050505060405180910390a15050565b60008060009054906101000a900473ffffffffffffffffffffffffffffffffffffffff168073ffffffffffffffffffffffffffffffffffffffff163373ffffffffffffffffffffffffffffffffffffffff161415156119c0576040517f08c379a00000000000000000000000000000000000000000000000000000000081526004018080602001828103825260168152602001807f53656e646572206e6f7420617574686f72697a65642e0000000000000000000081525060200191505060405180910390fd5b6001600760008060ff16815260200190815260200160002060020160006101000a81548160ff021916908315150217905550600160076000600160ff16815260200190815260200160002060020160006101000a81548160ff0219169083151502179055506000600360006101000a81548160ff0219169083151502179055507f703f3c2056f304c9fba60a2602a3c5ecc5fdc04d6f8a5bffef5be2fbd881bc9a60026040518080602001828103825283818154600181600116156101000203166002900481526020019150805460018160011615610100020316600290048015611aec5780601f10611ac157610100808354040283529160200191611aec565b820191906000526020600020905b815481529060010190602001808311611acf57829003601f168201915b50509250505060405180910390a1600191505090565b6060600760008460ff1660ff16815260200190815260200160002060020160009054906101000a900460ff1615611b4b5760206040519081016040528060008152509050611c14565b600760008460ff1660ff16815260200190815260200160002060000160008381526020019081526020016000208054600181600116156101000203166002900480601f016020809104026020016040519081016040528092919081815260200182805460018160011615610100020316600290048015611c0c5780601f10611be157610100808354040283529160200191611c0c565b820191906000526020600020905b815481529060010190602001808311611bef57829003601f168201915b505050505090505b92915050565b6000806000600960009054906101000a900473ffffffffffffffffffffffffffffffffffffffff1673ffffffffffffffffffffffffffffffffffffffff1663dd62ed3e33306040518363ffffffff167c0100000000000000000000000000000000000000000000000000000000028152600401808373ffffffffffffffffffffffffffffffffffffffff1673ffffffffffffffffffffffffffffffffffffffff1681526020018273ffffffffffffffffffffffffffffffffffffffff1673ffffffffffffffffffffffffffffffffffffffff16815260200192505050602060405180830381600087803b158015611d1057600080fd5b505af1158015611d24573d6000803e3d6000fd5b505050506040513d6020811015611d3a57600080fd5b810190808051906020019092919050505091506004548210151515611d5e57600080fd5b600960009054906101000a900473ffffffffffffffffffffffffffffffffffffffff1673ffffffffffffffffffffffffffffffffffffffff166323b872dd336000809054906101000a900473ffffffffffffffffffffffffffffffffffffffff166004546040518463ffffffff167c0100000000000000000000000000000000000000000000000000000000028152600401808473ffffffffffffffffffffffffffffffffffffffff1673ffffffffffffffffffffffffffffffffffffffff1681526020018373ffffffffffffffffffffffffffffffffffffffff1673ffffffffffffffffffffffffffffffffffffffff1681526020018281526020019350505050602060405180830381600087803b158015611e7a57600080fd5b505af1158015611e8e573d6000803e3d6000fd5b505050506040513d6020811015611ea457600080fd5b81019080805190602001909291905050501561220e5733604051602001808273ffffffffffffffffffffffffffffffffffffffff1673ffffffffffffffffffffffffffffffffffffffff166c010000000000000000000000000281526014019150506040516020818303038152906040526040518082805190602001908083835b602083101515611f4a5780518252602082019150602081019050602083039250611f25565b6001836020036101000a03801982511681845116808217855250505050505090500191505060405180910390209050600160066000836000191660001916815260200190815260200160002060006101000a81548160ff021916908315150217905550600a60009054906101000a900473ffffffffffffffffffffffffffffffffffffffff1673ffffffffffffffffffffffffffffffffffffffff16638ff4e0a7878760026040518463ffffffff167c0100000000000000000000000000000000000000000000000000000000028152600401808060200180602001838103835286868281815260200192508082843782019150508381038252848181546001816001161561010002031660029004815260200191508054600181600116156101000203166002900480156120c05780601f10612095576101008083540402835291602001916120c0565b820191906000526020600020905b8154815290600101906020018083116120a357829003601f168201915b505095505050505050600060405180830381600087803b1580156120e357600080fd5b505af11580156120f7573d6000803e3d6000fd5b505050507fe48738fe73302c1ae839e5374a102bdbba0f4cf6b5da2605462bddef2e1844b0868660028760405180806020018060200184151515158152602001838103835287878281815260200192508082843782019150508381038252858181546001816001161561010002031660029004815260200191508054600181600116156101000203166002900480156121d15780601f106121a6576101008083540402835291602001916121d1565b820191906000526020600020905b8154815290600101906020018083116121b457829003601f168201915b5050965050505050505060405180910390a18380156121f1575060045482115b15612205576122036004548303610767565b505b60019250612213565b600092505b50509392505050565b60045481565b60076020528060005260406000206000915090508060020160009054906101000a900460ff16905081565b600960009054906101000a900473ffffffffffffffffffffffffffffffffffffffff1681565b60088054600181600116156101000203166002900480601f0160208091040260200160405190810160405280929190818152602001828054600181600116156101000203166002900480156123095780601f106122de57610100808354040283529160200191612309565b820191906000526020600020905b8154815290600101906020018083116122ec57829003601f168201915b505050505081565b6000809054906101000a900473ffffffffffffffffffffffffffffffffffffffff1681565b60066020528060005260406000206000915054906101000a900460ff1681565b828054600181600116156101000203166002900490600052602060002090601f016020900481019282601f1061239757803560ff19168380011785556123c5565b828001600101855582156123c5579182015b828111156123c45782358255916020019190600101906123a9565b5b5090506123d291906123d6565b5090565b6123f891905b808211156123f45760008160009055506001016123dc565b5090565b905600a165627a7a723058205aba3c46db84289708a4eff21443c628e83df26094f5d527bd0d392d8a02d0920029",
  "source": "pragma solidity ^0.4.24;\n\nimport \"./Library.sol\";\nimport \"./ARAToken.sol\";\n\ncontract AFS {\n  address  public owner_;\n\n  Registry public registry_;\n\n  string   public did_;\n  bool     public listed_;\n  uint256  public price_;\n\n  mapping(bytes32 => uint256) public rewards_;\n  mapping(bytes32 => bool)    public purchasers_;\n\n  mapping(uint8 => Buffers) public metadata_;\n  struct Buffers {\n    mapping (uint256 => bytes) buffers;\n    uint256[] offsets;\n    bool invalid;\n  }\n\n  string   public version_ = \"1\";\n\n  ARAToken public token_;\n  Library  public lib_;\n\n  event Commit(string _did, uint8 _file, uint256 _offset, bytes _buffer);\n  event Unlisted(string _did);\n  event PriceSet(string _did, uint256 _price);\n  event RewardDeposited(string _did, uint256 _reward);\n  event RewardDistributed(string _did, uint256 _distributed, uint256 _returned);\n  event Purchased(string _purchaser, string _did, bool _download);\n\n  modifier onlyBy(address _account)\n  {\n      require(\n          msg.sender == _account,\n          \"Sender not authorized.\"\n      );\n      _;\n  }\n\n  constructor(address _lib, address _token) public {\n    owner_    = msg.sender;\n    token_    = ARAToken(_token);\n    lib_      = Library(_lib);\n    listed_   = true;\n    price_    = 0;\n  }\n\n  function setPrice(uint256 _price) external onlyBy(owner_) {\n    price_ = _price;\n    emit PriceSet(did_, price_);\n  }\n\n  function depositReward(uint256 _reward) public returns (bool success) {\n    bytes32 hashedAddress = keccak256(abi.encodePacked(msg.sender));\n    if (purchasers_[hashedAddress]) {\n      uint256 allowance = token_.allowance(msg.sender, address(this));\n      if (allowance >= _reward \n        && token_.transferFrom(msg.sender, address(this), _reward)) {\n        rewards_[hashedAddress] += _reward;\n        assert(rewards_[hashedAddress] <= token_.balanceOf(address(this)));\n        emit RewardDeposited(did_, _reward);\n        return true;\n      }\n    }\n    return false;\n  }\n\n  function distributeReward(address[] _addresses, uint256[] _amounts) external returns (bool success) {\n    bytes32 hashedAddress = keccak256(abi.encodePacked(msg.sender));\n    require(rewards_[hashedAddress] > 0 && _addresses.length == _amounts.length);\n\n    uint256 totalRewards;\n    for (uint256 i = 0; i < _amounts.length; i++) {\n      totalRewards += _amounts[i];\n    }\n    require(rewards_[hashedAddress] <= token_.balanceOf(address(this)) \n      && rewards_[hashedAddress] >= totalRewards);\n\n    success = true;\n    for (uint256 j = 0; j < _addresses.length; j++) {\n      bool transferred = token_.transferFrom(address(this), _addresses[j], _amounts[j]);\n      if (transferred) {\n        rewards_[hashedAddress] -= _amounts[j];\n      }\n      success = success && transferred;\n    }\n\n    uint256 returned = 0;\n    if (rewards_[hashedAddress] > 0 \n      && token_.transferFrom(address(this), msg.sender, rewards_[hashedAddress])) {\n      returned = rewards_[hashedAddress];\n      rewards_[hashedAddress] = 0;\n    }\n\n    emit RewardDistributed(did_, totalRewards - returned, returned);\n\n    return success;\n  }\n\n  function purchase(string _purchaser, bool _download) external returns (bool success) {\n    uint256 allowance = token_.allowance(msg.sender, address(this));\n    require (allowance >= price_); // check if purchaser approved purchase\n\n    if (token_.transferFrom(msg.sender, owner_, price_)) {\n      bytes32 hashedAddress = keccak256(abi.encodePacked(msg.sender));\n      purchasers_[hashedAddress] = true;\n      lib_.addLibraryItem(_purchaser, did_);\n      emit Purchased(_purchaser, did_, _download);\n\n      if (_download && allowance > price_) {\n        depositReward(allowance - price_);\n      }\n\n      return true;\n    } else {\n      return false;\n    }\n  }\n\n  // Storage methods (random-access-contract)\n  function write(uint8 _file, uint256 _offset, bytes _buffer, bool _last_write) external onlyBy(owner_) returns (bool success){\n    // make sure AFS hasn't been removed\n    require(!metadata_[_file].invalid);\n\n    metadata_[_file].buffers[_offset] = _buffer;\n    metadata_[_file].offsets.push(_offset);\n\n    if (_last_write) {\n      emit Commit(did_, _file, _offset, _buffer);\n    }\n    return true;\n  }\n\n  function read(uint8 _file, uint256 _offset) public view returns (bytes buffer) {\n    if (metadata_[_file].invalid) {\n      return \"\"; // empty bytes\n    }\n    return metadata_[_file].buffers[_offset];\n  }\n\n  function unlist() public onlyBy(owner_) returns (bool success) {\n    metadata_[0].invalid = true;\n    metadata_[1].invalid = true;\n    listed_ = false;\n    emit Unlisted(did_);\n    return true;\n  }\n}\n",
  "sourcePath": "/Users/ericjiang/Littlstar/ara-contracts/contracts/AFS.sol",
  "compiler": {
    "name": "solc",
    "version": "0.4.24+commit.e67f0147.Emscripten.clang"
  },
  "schemaVersion": "2.0.1",
  "updatedAt": "2018-07-31T17:48:07.274Z"
}