{
  "contractName": "AFS",
  "abi": [
    {
      "constant": true,
      "inputs": [],
      "name": "listed_",
      "outputs": [
        {
          "name": "",
          "type": "bool"
        }
      ],
      "payable": false,
      "stateMutability": "view",
      "type": "function"
    },
    {
      "constant": true,
      "inputs": [],
      "name": "lib_",
      "outputs": [
        {
          "name": "",
          "type": "address"
        }
      ],
      "payable": false,
      "stateMutability": "view",
      "type": "function"
    },
    {
      "constant": true,
      "inputs": [],
      "name": "did_",
      "outputs": [
        {
          "name": "",
          "type": "bytes32"
        }
      ],
      "payable": false,
      "stateMutability": "view",
      "type": "function"
    },
    {
      "constant": true,
      "inputs": [
        {
          "name": "",
          "type": "bytes32"
        }
      ],
      "name": "rewards_",
      "outputs": [
        {
          "name": "",
          "type": "uint256"
        }
      ],
      "payable": false,
      "stateMutability": "view",
      "type": "function"
    },
    {
      "constant": true,
      "inputs": [
        {
          "name": "",
          "type": "bytes32"
        }
      ],
      "name": "jobBudgets_",
      "outputs": [
        {
          "name": "",
          "type": "uint256"
        }
      ],
      "payable": false,
      "stateMutability": "view",
      "type": "function"
    },
    {
      "constant": true,
      "inputs": [],
      "name": "price_",
      "outputs": [
        {
          "name": "",
          "type": "uint256"
        }
      ],
      "payable": false,
      "stateMutability": "view",
      "type": "function"
    },
    {
      "constant": true,
      "inputs": [
        {
          "name": "",
          "type": "uint8"
        }
      ],
      "name": "metadata_",
      "outputs": [
        {
          "name": "invalid",
          "type": "bool"
        }
      ],
      "payable": false,
      "stateMutability": "view",
      "type": "function"
    },
    {
      "constant": true,
      "inputs": [],
      "name": "token_",
      "outputs": [
        {
          "name": "",
          "type": "address"
        }
      ],
      "payable": false,
      "stateMutability": "view",
      "type": "function"
    },
    {
      "constant": true,
      "inputs": [],
      "name": "version_",
      "outputs": [
        {
          "name": "",
          "type": "string"
        }
      ],
      "payable": false,
      "stateMutability": "view",
      "type": "function"
    },
    {
      "constant": true,
      "inputs": [],
      "name": "owner_",
      "outputs": [
        {
          "name": "",
          "type": "address"
        }
      ],
      "payable": false,
      "stateMutability": "view",
      "type": "function"
    },
    {
      "constant": true,
      "inputs": [
        {
          "name": "",
          "type": "bytes32"
        }
      ],
      "name": "purchasers_",
      "outputs": [
        {
          "name": "",
          "type": "bool"
        }
      ],
      "payable": false,
      "stateMutability": "view",
      "type": "function"
    },
    {
      "anonymous": false,
      "inputs": [
        {
          "indexed": true,
          "name": "_did",
          "type": "bytes32"
        }
      ],
      "name": "Commit",
      "type": "event"
    },
    {
      "anonymous": false,
      "inputs": [
        {
          "indexed": true,
          "name": "_did",
          "type": "bytes32"
        }
      ],
      "name": "Unlisted",
      "type": "event"
    },
    {
      "anonymous": false,
      "inputs": [
        {
          "indexed": true,
          "name": "_did",
          "type": "bytes32"
        },
        {
          "indexed": false,
          "name": "_price",
          "type": "uint256"
        }
      ],
      "name": "PriceSet",
      "type": "event"
    },
    {
      "anonymous": false,
      "inputs": [
        {
          "indexed": false,
          "name": "_did",
          "type": "bytes32"
        },
        {
          "indexed": true,
          "name": "_jobId",
          "type": "bytes32"
        },
        {
          "indexed": false,
          "name": "_budget",
          "type": "uint256"
        }
      ],
      "name": "BudgetSubmitted",
      "type": "event"
    },
    {
      "anonymous": false,
      "inputs": [
        {
          "indexed": false,
          "name": "_did",
          "type": "bytes32"
        },
        {
          "indexed": false,
          "name": "_allocated",
          "type": "uint256"
        },
        {
          "indexed": false,
          "name": "_returned",
          "type": "uint256"
        }
      ],
      "name": "RewardsAllocated",
      "type": "event"
    },
    {
      "anonymous": false,
      "inputs": [
        {
          "indexed": true,
          "name": "_purchaser",
          "type": "bytes32"
        },
        {
          "indexed": false,
          "name": "_did",
          "type": "bytes32"
        }
      ],
      "name": "Purchased",
      "type": "event"
    },
    {
      "anonymous": false,
      "inputs": [
        {
          "indexed": true,
          "name": "_sender",
          "type": "address"
        }
      ],
      "name": "Redeemed",
      "type": "event"
    },
    {
      "constant": false,
      "inputs": [
        {
          "name": "_data",
          "type": "bytes"
        }
      ],
      "name": "init",
      "outputs": [],
      "payable": false,
      "stateMutability": "nonpayable",
      "type": "function"
    },
    {
      "constant": false,
      "inputs": [
        {
          "name": "_price",
          "type": "uint256"
        }
      ],
      "name": "setPrice",
      "outputs": [],
      "payable": false,
      "stateMutability": "nonpayable",
      "type": "function"
    },
    {
      "constant": false,
      "inputs": [
        {
          "name": "_jobId",
          "type": "bytes32"
        },
        {
          "name": "_budget",
          "type": "uint256"
        }
      ],
      "name": "submitBudget",
      "outputs": [],
      "payable": false,
      "stateMutability": "nonpayable",
      "type": "function"
    },
    {
      "constant": false,
      "inputs": [
        {
          "name": "_jobId",
          "type": "bytes32"
        },
        {
          "name": "_farmers",
          "type": "bytes32[]"
        },
        {
          "name": "_rewards",
          "type": "uint256[]"
        }
      ],
      "name": "allocateRewards",
      "outputs": [],
      "payable": false,
      "stateMutability": "nonpayable",
      "type": "function"
    },
    {
      "constant": false,
      "inputs": [],
      "name": "redeemBalance",
      "outputs": [],
      "payable": false,
      "stateMutability": "nonpayable",
      "type": "function"
    },
    {
      "constant": false,
      "inputs": [
        {
          "name": "_purchaser",
          "type": "bytes32"
        },
        {
          "name": "_jobId",
          "type": "bytes32"
        },
        {
          "name": "_budget",
          "type": "uint256"
        }
      ],
      "name": "purchase",
      "outputs": [],
      "payable": false,
      "stateMutability": "nonpayable",
      "type": "function"
    },
    {
      "constant": false,
      "inputs": [
        {
          "name": "_mtOffsets",
          "type": "uint256[]"
        },
        {
          "name": "_msOffsets",
          "type": "uint256[]"
        },
        {
          "name": "_mtBuffer",
          "type": "bytes"
        },
        {
          "name": "_msBuffer",
          "type": "bytes"
        }
      ],
      "name": "append",
      "outputs": [],
      "payable": false,
      "stateMutability": "nonpayable",
      "type": "function"
    },
    {
      "constant": false,
      "inputs": [
        {
          "name": "_mtOffsets",
          "type": "uint256[]"
        },
        {
          "name": "_msOffsets",
          "type": "uint256[]"
        },
        {
          "name": "_mtBuffer",
          "type": "bytes"
        },
        {
          "name": "_msBuffer",
          "type": "bytes"
        }
      ],
      "name": "write",
      "outputs": [],
      "payable": false,
      "stateMutability": "nonpayable",
      "type": "function"
    },
    {
      "constant": true,
      "inputs": [
        {
          "name": "_file",
          "type": "uint8"
        },
        {
          "name": "_offset",
          "type": "uint256"
        }
      ],
      "name": "read",
      "outputs": [
        {
          "name": "buffer",
          "type": "bytes"
        }
      ],
      "payable": false,
      "stateMutability": "view",
      "type": "function"
    },
    {
      "constant": true,
      "inputs": [
        {
          "name": "_file",
          "type": "uint8"
        },
        {
          "name": "_offset",
          "type": "uint256"
        },
        {
          "name": "_buffer",
          "type": "bytes"
        }
      ],
      "name": "hasBuffer",
      "outputs": [
        {
          "name": "exists",
          "type": "bool"
        }
      ],
      "payable": false,
      "stateMutability": "view",
      "type": "function"
    },
    {
      "constant": false,
      "inputs": [],
      "name": "unlist",
      "outputs": [
        {
          "name": "success",
          "type": "bool"
        }
      ],
      "payable": false,
      "stateMutability": "nonpayable",
      "type": "function"
    }
  ],
  "bytecode": "0x60806040526040805190810160405280600181526020017f3100000000000000000000000000000000000000000000000000000000000000815250600190805190602001906200005192919062000066565b503480156200005f57600080fd5b5062000115565b828054600181600116156101000203166002900490600052602060002090601f016020900481019282601f10620000a957805160ff1916838001178555620000da565b82800160010185558215620000da579182015b82811115620000d9578251825591602001919060010190620000bc565b5b509050620000e99190620000ed565b5090565b6200011291905b808211156200010e576000816000905550600101620000f4565b5090565b90565b61286980620001256000396000f300608060405260043610610128576000357c0100000000000000000000000000000000000000000000000000000000900463ffffffff1680632a6363be1461012d5780633e5ceede1461015c57806346f60dee1461017357806347269720146101ca5780634ddf47d4146101fd5780635ee6fa611461026657806366570f17146102ab57806391b7f5ed1461032e5780639c60b90d1461035b578063a0d58501146103a0578063bb66f9f6146103cf578063bc302cd014610482578063cc3a08f8146105b7578063ce40b03f1461066e578063ce605ea914610699578063d56805e1146106e1578063dd1bb1fc14610738578063e7663079146107c8578063f0e5bd861461081f578063f4e493d6146108b7578063f51b697914610900578063f5bd3e3f1461093b575b600080fd5b34801561013957600080fd5b50610142610984565b604051808215151515815260200191505060405180910390f35b34801561016857600080fd5b50610171610997565b005b34801561017f57600080fd5b50610188610c0a565b604051808273ffffffffffffffffffffffffffffffffffffffff1673ffffffffffffffffffffffffffffffffffffffff16815260200191505060405180910390f35b3480156101d657600080fd5b506101df610c30565b60405180826000191660001916815260200191505060405180910390f35b34801561020957600080fd5b50610264600480360381019080803590602001908201803590602001908080601f0160208091040260200160405190810160405280939291908181526020018383808284378201915050505050509192919290505050610c36565b005b34801561027257600080fd5b506102956004803603810190808035600019169060200190929190505050610d5e565b6040518082815260200191505060405180910390f35b3480156102b757600080fd5b5061032c600480360381019080803590602001908201803590602001919091929391929390803590602001908201803590602001919091929391929390803590602001908201803590602001919091929391929390803590602001908201803590602001919091929391929390505050610d76565b005b34801561033a57600080fd5b506103596004803603810190808035906020019092919050505061104f565b005b34801561036757600080fd5b5061038a600480360381019080803560001916906020019092919050505061115f565b6040518082815260200191505060405180910390f35b3480156103ac57600080fd5b506103b5611177565b604051808215151515815260200191505060405180910390f35b3480156103db57600080fd5b50610407600480360381019080803560ff169060200190929190803590602001909291905050506112f9565b6040518080602001828103825283818151815260200191508051906020019080838360005b8381101561044757808201518184015260208101905061042c565b50505050905090810190601f1680156104745780820380516001836020036101000a031916815260200191505b509250505060405180910390f35b34801561048e57600080fd5b506105b56004803603810190808035906020019082018035906020019080806020026020016040519081016040528093929190818152602001838360200280828437820191505050505050919291929080359060200190820180359060200190808060200260200160405190810160405280939291908181526020018383602002808284378201915050505050509192919290803590602001908201803590602001908080601f0160208091040260200160405190810160405280939291908181526020018383808284378201915050505050509192919290803590602001908201803590602001908080601f0160208091040260200160405190810160405280939291908181526020018383808284378201915050505050509192919290505050611411565b005b3480156105c357600080fd5b5061066c6004803603810190808035600019169060200190929190803590602001908201803590602001908080602002602001604051908101604052809392919081815260200183836020028082843782019150505050505091929192908035906020019082018035906020019080806020026020016040519081016040528093929190818152602001838360200280828437820191505050505050919291929050505061174a565b005b34801561067a57600080fd5b50610683611a56565b6040518082815260200191505060405180910390f35b3480156106a557600080fd5b506106c7600480360381019080803560ff169060200190929190505050611a5c565b604051808215151515815260200191505060405180910390f35b3480156106ed57600080fd5b506106f6611a87565b604051808273ffffffffffffffffffffffffffffffffffffffff1673ffffffffffffffffffffffffffffffffffffffff16815260200191505060405180910390f35b34801561074457600080fd5b5061074d611aad565b6040518080602001828103825283818151815260200191508051906020019080838360005b8381101561078d578082015181840152602081019050610772565b50505050905090810190601f1680156107ba5780820380516001836020036101000a031916815260200191505b509250505060405180910390f35b3480156107d457600080fd5b506107dd611b4b565b604051808273ffffffffffffffffffffffffffffffffffffffff1673ffffffffffffffffffffffffffffffffffffffff16815260200191505060405180910390f35b34801561082b57600080fd5b5061089d600480360381019080803560ff16906020019092919080359060200190929190803590602001908201803590602001908080601f0160208091040260200160405190810160405280939291908181526020018383808284378201915050505050509192919290505050611b70565b604051808215151515815260200191505060405180910390f35b3480156108c357600080fd5b506108fe6004803603810190808035600019169060200190929190803560001916906020019092919080359060200190929190505050611c53565b005b34801561090c57600080fd5b50610939600480360381019080803560001916906020019092919080359060200190929190505050612155565b005b34801561094757600080fd5b5061096a600480360381019080803560001916906020019092919050505061267c565b604051808215151515815260200191505060405180910390f35b600560009054906101000a900460ff1681565b600033604051602001808273ffffffffffffffffffffffffffffffffffffffff1673ffffffffffffffffffffffffffffffffffffffff166c010000000000000000000000000281526014019150506040516020818303038152906040526040518082805190602001908083835b602083101515610a295780518252602082019150602081019050602083039250610a04565b6001836020036101000a03801982511681845116808217855250505050505090500191505060405180910390209050600060086000836000191660001916815260200190815260200160002054111515610a8257600080fd5b600260009054906101000a900473ffffffffffffffffffffffffffffffffffffffff1673ffffffffffffffffffffffffffffffffffffffff1663a9059cbb33600860008560001916600019168152602001908152602001600020546040518363ffffffff167c0100000000000000000000000000000000000000000000000000000000028152600401808373ffffffffffffffffffffffffffffffffffffffff1673ffffffffffffffffffffffffffffffffffffffff16815260200182815260200192505050602060405180830381600087803b158015610b6257600080fd5b505af1158015610b76573d6000803e3d6000fd5b505050506040513d6020811015610b8c57600080fd5b810190808051906020019092919050505015610c07576000600860008360001916600019168152602001908152602001600020819055503373ffffffffffffffffffffffffffffffffffffffff167fcb7d87f76b4d6501ac27ed560664bf84ce273a2ddd7b9b1da63c753e68ccae2060405160405180910390a25b50565b600360009054906101000a900473ffffffffffffffffffffffffffffffffffffffff1681565b60045481565b600080600080600060208601945084519350604086019450845192506060860194508451915060808601945084519050836000806101000a81548173ffffffffffffffffffffffffffffffffffffffff021916908373ffffffffffffffffffffffffffffffffffffffff16021790555082600260006101000a81548173ffffffffffffffffffffffffffffffffffffffff021916908373ffffffffffffffffffffffffffffffffffffffff16021790555081600360006101000a81548173ffffffffffffffffffffffffffffffffffffffff021916908373ffffffffffffffffffffffffffffffffffffffff16021790555080600481600019169055506001600560006101000a81548160ff0219169083151502179055506000600681905550505050505050565b60086020528060005260406000206000915090505481565b6000806000809054906101000a900473ffffffffffffffffffffffffffffffffffffffff168073ffffffffffffffffffffffffffffffffffffffff163373ffffffffffffffffffffffffffffffffffffffff16141515610e3e576040517f08c379a00000000000000000000000000000000000000000000000000000000081526004018080602001828103825260168152602001807f53656e646572206e6f7420617574686f72697a65642e0000000000000000000081525060200191505060405180910390fd5b600a60008060ff16815260200190815260200160002060010160009054906101000a900460ff16151515610e7157600080fd5b888890508b8b905011610e875788889050610e8c565b8a8a90505b9250600091505b8282101561100f5760018b8b90500382111515610f4e57610efb602860ff168302602860ff1689898080601f01602080910402602001604051908101604052809392919081815260200183838082843782019150505050505061269c9092919063ffffffff16565b600a60008060ff16815260200190815260200160002060000160008d8d868181101515610f2457fe5b9050602002013581526020019081526020016000209080519060200190610f4c929190612798565b505b600189899050038211151561100257610fae604060ff168302604060ff1687878080601f01602080910402602001604051908101604052809392919081815260200183838082843782019150505050505061269c9092919063ffffffff16565b600a6000600160ff16815260200190815260200160002060000160008b8b868181101515610fd857fe5b9050602002013581526020019081526020016000209080519060200190611000929190612798565b505b8180600101925050610e93565b600454600019167f9e8a51bb6b34b9d5d18c14fd753ee3bf44e2256512665a4577281ffcc91943ff60405160405180910390a25050505050505050505050565b6000809054906101000a900473ffffffffffffffffffffffffffffffffffffffff168073ffffffffffffffffffffffffffffffffffffffff163373ffffffffffffffffffffffffffffffffffffffff16141515611114576040517f08c379a00000000000000000000000000000000000000000000000000000000081526004018080602001828103825260168152602001807f53656e646572206e6f7420617574686f72697a65642e0000000000000000000081525060200191505060405180910390fd5b81600681905550600454600019167fee47534b2400bc7be3fbdc39f0283b8643fc472a30ffd7324e6161b4b2b91f246006546040518082815260200191505060405180910390a25050565b60076020528060005260406000206000915090505481565b60008060009054906101000a900473ffffffffffffffffffffffffffffffffffffffff168073ffffffffffffffffffffffffffffffffffffffff163373ffffffffffffffffffffffffffffffffffffffff1614151561123e576040517f08c379a00000000000000000000000000000000000000000000000000000000081526004018080602001828103825260168152602001807f53656e646572206e6f7420617574686f72697a65642e0000000000000000000081525060200191505060405180910390fd5b6001600a60008060ff16815260200190815260200160002060010160006101000a81548160ff0219169083151502179055506001600a6000600160ff16815260200190815260200160002060010160006101000a81548160ff0219169083151502179055506000600560006101000a81548160ff021916908315150217905550600454600019167f2e6ec049d62c8a42e7cc223354aadb68d5046a2cba67ed55a089fdb852fb6cb660405160405180910390a2600191505090565b6060600a60008460ff1660ff16815260200190815260200160002060010160009054906101000a900460ff1615611342576020604051908101604052806000815250905061140b565b600a60008460ff1660ff16815260200190815260200160002060000160008381526020019081526020016000208054600181600116156101000203166002900480601f0160208091040260200160405190810160405280929190818152602001828054600181600116156101000203166002900480156114035780601f106113d857610100808354040283529160200191611403565b820191906000526020600020905b8154815290600101906020018083116113e657829003601f168201915b505050505090505b92915050565b6000806000809054906101000a900473ffffffffffffffffffffffffffffffffffffffff168073ffffffffffffffffffffffffffffffffffffffff163373ffffffffffffffffffffffffffffffffffffffff161415156114d9576040517f08c379a00000000000000000000000000000000000000000000000000000000081526004018080602001828103825260168152602001807f53656e646572206e6f7420617574686f72697a65642e0000000000000000000081525060200191505060405180910390fd5b600a60008060ff16815260200190815260200160002060010160009054906101000a900460ff1615151561150c57600080fd5b855187511161151c57855161151f565b86515b9250611538600060208761269c9092919063ffffffff16565b600a60008060ff16815260200190815260200160002060000160008081526020019081526020016000209080519060200190611575929190612798565b5061158d600060208661269c9092919063ffffffff16565b600a6000600160ff16815260200190815260200160002060000160006001815260200190815260200160002090805190602001906115cc929190612798565b50600191505b8282101561170e5760018751038211151561166d5761161787838151811015156115f857fe5b90602001906020020151602860ff168761269c9092919063ffffffff16565b600a60008060ff1681526020019081526020016000206000016000898581518110151561164057fe5b906020019060200201518152602001908152602001600020908051906020019061166b929190612798565b505b600186510382111515611701576116aa868381518110151561168b57fe5b90602001906020020151604060ff168661269c9092919063ffffffff16565b600a6000600160ff168152602001908152602001600020600001600088858151811015156116d457fe5b90602001906020020151815260200190815260200160002090805190602001906116ff929190612798565b505b81806001019250506115d2565b600454600019167f9e8a51bb6b34b9d5d18c14fd753ee3bf44e2256512665a4577281ffcc91943ff60405160405180910390a250505050505050565b6000806000808660006007600083600019166000191681526020019081526020016000205411151561177b57600080fd5b8551875114151561178b57600080fd5b600093505b85518460ff1610156117c857858460ff168151811015156117ad57fe5b90602001906020020151850194508380600101945050611790565b6007600089600019166000191681526020019081526020016000205485111515156117f257600080fd5b600092505b86518360ff1610156118ce57858360ff1681518110151561181457fe5b9060200190602002015160086000898660ff1681518110151561183357fe5b906020019060200201516000191660001916815260200190815260200160002081905550858360ff1681518110151561186857fe5b90602001906020020151600760008a60001916600019168152602001908152602001600020600082825403925050819055506000600760008a60001916600019168152602001908152602001600020541115156118c157fe5b82806001019350506117f7565b60076000896000191660001916815260200190815260200160002054915060008211156119fb57816008600033604051602001808273ffffffffffffffffffffffffffffffffffffffff1673ffffffffffffffffffffffffffffffffffffffff166c010000000000000000000000000281526014019150506040516020818303038152906040526040518082805190602001908083835b60208310151561198a5780518252602082019150602081019050602083039250611965565b6001836020036101000a038019825116818451168082178552505050505050905001915050604051809103902060001916600019168152602001908152602001600020819055506000600760008a60001916600019168152602001908152602001600020819055506119fa610997565b5b7f2bd45e0776b585a6e4ce4cc376082ac45c657ad116f95f80480b6343678354e86004548684604051808460001916600019168152602001838152602001828152602001935050505060405180910390a15050505050505050565b60065481565b600a6020528060005260406000206000915090508060010160009054906101000a900460ff16905081565b600260009054906101000a900473ffffffffffffffffffffffffffffffffffffffff1681565b60018054600181600116156101000203166002900480601f016020809104026020016040519081016040528092919081815260200182805460018160011615610100020316600290048015611b435780601f10611b1857610100808354040283529160200191611b43565b820191906000526020600020905b815481529060010190602001808311611b2657829003601f168201915b505050505081565b6000809054906101000a900473ffffffffffffffffffffffffffffffffffffffff1681565b6000611c4a82600a60008760ff1660ff16815260200190815260200160002060000160008681526020019081526020016000208054600181600116156101000203166002900480601f016020809104026020016040519081016040528092919081815260200182805460018160011615610100020316600290048015611c375780601f10611c0c57610100808354040283529160200191611c37565b820191906000526020600020905b815481529060010190602001808311611c1a57829003601f168201915b505050505061272990919063ffffffff16565b90509392505050565b600080600260009054906101000a900473ffffffffffffffffffffffffffffffffffffffff1673ffffffffffffffffffffffffffffffffffffffff1663dd62ed3e33306040518363ffffffff167c0100000000000000000000000000000000000000000000000000000000028152600401808373ffffffffffffffffffffffffffffffffffffffff1673ffffffffffffffffffffffffffffffffffffffff1681526020018273ffffffffffffffffffffffffffffffffffffffff1673ffffffffffffffffffffffffffffffffffffffff16815260200192505050602060405180830381600087803b158015611d4757600080fd5b505af1158015611d5b573d6000803e3d6000fd5b505050506040513d6020811015611d7157600080fd5b8101908080519060200190929190505050915033604051602001808273ffffffffffffffffffffffffffffffffffffffff1673ffffffffffffffffffffffffffffffffffffffff166c010000000000000000000000000281526014019150506040516020818303038152906040526040518082805190602001908083835b602083101515611e145780518252602082019150602081019050602083039250611def565b6001836020036101000a0380198251168184511680821785525050505050509050019150506040518091039020905060096000826000191660001916815260200190815260200160002060009054906101000a900460ff16158015611e7d575082600654018210155b1515611e8857600080fd5b600260009054906101000a900473ffffffffffffffffffffffffffffffffffffffff1673ffffffffffffffffffffffffffffffffffffffff166323b872dd336000809054906101000a900473ffffffffffffffffffffffffffffffffffffffff166006546040518463ffffffff167c0100000000000000000000000000000000000000000000000000000000028152600401808473ffffffffffffffffffffffffffffffffffffffff1673ffffffffffffffffffffffffffffffffffffffff1681526020018373ffffffffffffffffffffffffffffffffffffffff1673ffffffffffffffffffffffffffffffffffffffff1681526020018281526020019350505050602060405180830381600087803b158015611fa457600080fd5b505af1158015611fb8573d6000803e3d6000fd5b505050506040513d6020811015611fce57600080fd5b81019080805190602001909291905050501561214e57600160096000836000191660001916815260200190815260200160002060006101000a81548160ff021916908315150217905550600360009054906101000a900473ffffffffffffffffffffffffffffffffffffffff1673ffffffffffffffffffffffffffffffffffffffff16630c2bb965866004546040518363ffffffff167c0100000000000000000000000000000000000000000000000000000000028152600401808360001916600019168152602001826000191660001916815260200192505050600060405180830381600087803b1580156120c357600080fd5b505af11580156120d7573d6000803e3d6000fd5b5050505084600019167f99113da421a5552428728af16d6e60534dbff6af24ac599619dc9dc29c7466db60045460405180826000191660001916815260200191505060405180910390a260006001026000191684600019161415801561213d5750600083115b1561214d5761214c8484612155565b5b5b5050505050565b60006009600033604051602001808273ffffffffffffffffffffffffffffffffffffffff1673ffffffffffffffffffffffffffffffffffffffff166c010000000000000000000000000281526014019150506040516020818303038152906040526040518082805190602001908083835b6020831015156121eb57805182526020820191506020810190506020830392506121c6565b6001836020036101000a03801982511681845116808217855250505050505090500191505060405180910390206000191660001916815260200190815260200160002060009054906101000a900460ff16151561224757600080fd5b600260009054906101000a900473ffffffffffffffffffffffffffffffffffffffff1673ffffffffffffffffffffffffffffffffffffffff1663dd62ed3e33306040518363ffffffff167c0100000000000000000000000000000000000000000000000000000000028152600401808373ffffffffffffffffffffffffffffffffffffffff1673ffffffffffffffffffffffffffffffffffffffff1681526020018273ffffffffffffffffffffffffffffffffffffffff1673ffffffffffffffffffffffffffffffffffffffff16815260200192505050602060405180830381600087803b15801561233857600080fd5b505af115801561234c573d6000803e3d6000fd5b505050506040513d602081101561236257600080fd5b810190808051906020019092919050505090506000600102600019168360001916141580156123915750600082115b801561239d5750818110155b15156123a857600080fd5b600260009054906101000a900473ffffffffffffffffffffffffffffffffffffffff1673ffffffffffffffffffffffffffffffffffffffff166323b872dd3330856040518463ffffffff167c0100000000000000000000000000000000000000000000000000000000028152600401808473ffffffffffffffffffffffffffffffffffffffff1673ffffffffffffffffffffffffffffffffffffffff1681526020018373ffffffffffffffffffffffffffffffffffffffff1673ffffffffffffffffffffffffffffffffffffffff1681526020018281526020019350505050602060405180830381600087803b1580156124a157600080fd5b505af11580156124b5573d6000803e3d6000fd5b505050506040513d60208110156124cb57600080fd5b810190808051906020019092919050505015612677578160076000856000191660001916815260200190815260200160002060008282540192505081905550600260009054906101000a900473ffffffffffffffffffffffffffffffffffffffff1673ffffffffffffffffffffffffffffffffffffffff166370a08231306040518263ffffffff167c0100000000000000000000000000000000000000000000000000000000028152600401808273ffffffffffffffffffffffffffffffffffffffff1673ffffffffffffffffffffffffffffffffffffffff168152602001915050602060405180830381600087803b1580156125c757600080fd5b505af11580156125db573d6000803e3d6000fd5b505050506040513d60208110156125f157600080fd5b8101908080519060200190929190505050600760008560001916600019168152602001908152602001600020541115151561262857fe5b82600019167f4521c984beed01d188bcc3bd297e6530cd217723b880fa43c70fbcbd664fb2ac600454846040518083600019166000191681526020018281526020019250505060405180910390a25b505050565b60096020528060005260406000206000915054906101000a900460ff1681565b6060808284018551101515156126b157600080fd5b8215600081146126cc5760405191506020820160405261271d565b6040519150601f8416801560200281840101858101878315602002848b0101015b8183101561270a57805183526020830192506020810190506126ed565b50868552601f19601f8301166040525050505b50809150509392505050565b6000806001905083518351811460018114612747576000925061278c565b600160208701838101602088015b60028483851001141561278757805183511415156127765760009650600093505b602083019250602081019050612755565b505050505b50508091505092915050565b828054600181600116156101000203166002900490600052602060002090601f016020900481019282601f106127d957805160ff1916838001178555612807565b82800160010185558215612807579182015b828111156128065782518255916020019190600101906127eb565b5b5090506128149190612818565b5090565b61283a91905b8082111561283657600081600090555060010161281e565b5090565b905600a165627a7a72305820c1a71bc57f8aef35646ab3abe48272314d5b063ef22ed3592a449c081d62f6180029",
  "source": "pragma solidity ^0.4.24;\n\nimport \"./Library.sol\";\nimport \"./ARAToken.sol\";\nimport \"bytes/BytesLib.sol\";\n\ncontract AFS {\n\n  using BytesLib for bytes;\n\n  address  public owner_;\n  string   public version_ = \"1\";\n\n  ARAToken public token_;\n  Library  public lib_;\n\n  bytes32  public did_;\n  bool     public listed_;\n  uint256  public price_;\n\n  mapping(bytes32 => uint256) public jobBudgets_; // jobId => budget\n  mapping(bytes32 => uint256) public rewards_;    // farmer => rewards\n  mapping(bytes32 => bool)    public purchasers_; // keccak256 hashes of buyer addresses\n  mapping(uint8 => Buffers)   public metadata_;\n\n  struct Buffers {\n    mapping (uint256 => bytes) buffers;\n    bool invalid;\n  }\n\n  event Commit(bytes32 indexed _did);\n  event Unlisted(bytes32 indexed _did);\n  event PriceSet(bytes32 indexed _did, uint256 _price);\n  event BudgetSubmitted(bytes32 _did, bytes32 indexed _jobId, uint256 _budget);\n  event RewardsAllocated(bytes32 _did, uint256 _allocated, uint256 _returned);\n  event Purchased(bytes32 indexed _purchaser, bytes32 _did);\n  event Redeemed(address indexed _sender);\n\n  uint8 constant mtBufferSize_ = 40;\n  uint8 constant msBufferSize_ = 64;\n\n  modifier onlyBy(address _account)\n  {\n    require(\n      msg.sender == _account,\n      \"Sender not authorized.\"\n    );\n    _;\n  }\n\n  modifier purchaseRequired()\n  {\n    require(\n      purchasers_[keccak256(abi.encodePacked(msg.sender))]\n    );\n    _;\n  }\n\n  modifier budgetSubmitted(bytes32 _jobId)\n  {\n    require(\n      jobBudgets_[_jobId] > 0\n    );\n    _;\n  }\n\n  function init(bytes _data) public {\n    uint256 btsptr;\n    address ownerAddr;\n    address tokenAddr;\n    address libAddr;\n    bytes32 did;\n    /* solium-disable-next-line security/no-inline-assembly */\n    assembly {\n        btsptr := add(_data, 32)\n        ownerAddr := mload(btsptr)\n        btsptr := add(_data, 64)\n        tokenAddr := mload(btsptr)\n        btsptr := add(_data, 96)\n        libAddr := mload(btsptr)\n        btsptr := add(_data, 128)\n        did := mload(btsptr)\n    }\n    owner_    = ownerAddr;\n    token_    = ARAToken(tokenAddr);\n    lib_      = Library(libAddr);\n    did_      = did;\n    listed_   = true;\n    price_    = 0;\n  }\n\n  // tested\n  function setPrice(uint256 _price) external onlyBy(owner_) {\n    price_ = _price;\n    emit PriceSet(did_, price_);\n  }\n\n  function submitBudget(bytes32 _jobId, uint256 _budget) public purchaseRequired {\n    uint256 allowance = token_.allowance(msg.sender, address(this));\n    require(_jobId != bytes32(0) && _budget > 0 && allowance >= _budget);\n\n    if (token_.transferFrom(msg.sender, address(this), _budget)) {\n      jobBudgets_[_jobId] += _budget;\n      assert(jobBudgets_[_jobId] <= token_.balanceOf(address(this)));\n      emit BudgetSubmitted(did_, _jobId, _budget);\n    }\n  }\n\n  function allocateRewards(bytes32 _jobId, bytes32[] _farmers, uint256[] _rewards) public budgetSubmitted(_jobId) {\n    require(_farmers.length == _rewards.length);\n    uint256 totalRewards;\n    for (uint8 i = 0; i < _rewards.length; i++) {\n      totalRewards += _rewards[i];\n    }\n    require(totalRewards <= jobBudgets_[_jobId]);\n    for (uint8 j = 0; j < _farmers.length; j++) {\n      rewards_[_farmers[j]] = _rewards[j];\n      jobBudgets_[_jobId] -= _rewards[j];\n      assert(jobBudgets_[_jobId] > 0);\n    }\n    uint256 remaining = jobBudgets_[_jobId];\n    if (remaining > 0) {\n      rewards_[keccak256(abi.encodePacked(msg.sender))] = remaining;\n      jobBudgets_[_jobId] = 0;\n      redeemBalance();\n    }\n    emit RewardsAllocated(did_, totalRewards, remaining);\n  }\n\n  function redeemBalance() public {\n    bytes32 hashedAddress = keccak256(abi.encodePacked(msg.sender));\n    require(rewards_[hashedAddress] > 0);\n    if (token_.transfer(msg.sender, rewards_[hashedAddress])) {\n      rewards_[hashedAddress] = 0;\n      emit Redeemed(msg.sender);\n    }\n  }\n\n  /**\n   * @dev Purchases this AFS and adds it to _purchaser's library. \n   *      If _download is true, deposits any remaining allowance \n   *      as rewards for this purchase\n   * @param _purchaser The hashed methodless did of the purchaser\n   * @param _jobId The jobId of the download, or 0x00000000000000000000000000000000 if N/A\n   * @param _budget The reward budget for jobId, or 0 if N/A\n   */\n  function purchase(bytes32 _purchaser, bytes32 _jobId, uint256 _budget) external {\n    uint256 allowance = token_.allowance(msg.sender, address(this));\n    bytes32 hashedAddress = keccak256(abi.encodePacked(msg.sender));\n    require (!purchasers_[hashedAddress] && allowance >= price_ + _budget);\n\n    if (token_.transferFrom(msg.sender, owner_, price_)) {\n      purchasers_[hashedAddress] = true;\n      lib_.addLibraryItem(_purchaser, did_);\n      emit Purchased(_purchaser, did_);\n\n      if (_jobId != bytes32(0) && _budget > 0) {\n        submitBudget(_jobId, _budget);\n      }\n    }\n  }\n\n  function append(uint256[] _mtOffsets, uint256[] _msOffsets, bytes _mtBuffer, \n    bytes _msBuffer) external onlyBy(owner_) {\n    \n    require(!metadata_[0].invalid);\n    \n    uint256 maxOffsetLength = _mtOffsets.length > _msOffsets.length \n      ? _mtOffsets.length \n      : _msOffsets.length;\n\n    for (uint i = 0; i < maxOffsetLength; i++) {\n      // metadata/tree\n      if (i <= _mtOffsets.length - 1) {\n        metadata_[0].buffers[_mtOffsets[i]] = _mtBuffer.slice(i * mtBufferSize_, mtBufferSize_);\n      }\n\n      // metadata/signatures\n      if (i <= _msOffsets.length - 1) {\n        metadata_[1].buffers[_msOffsets[i]] = _msBuffer.slice(i * msBufferSize_, msBufferSize_);\n      }\n    }\n\n    emit Commit(did_);\n  }\n\n  function write(uint256[] _mtOffsets, uint256[] _msOffsets, bytes _mtBuffer, \n    bytes _msBuffer) public onlyBy(owner_) {\n\n    require(!metadata_[0].invalid);\n\n    uint256 maxOffsetLength = _mtOffsets.length > _msOffsets.length \n      ? _mtOffsets.length \n      : _msOffsets.length;\n\n    // add headers\n    metadata_[0].buffers[0] = _mtBuffer.slice(0, 32);\n    metadata_[1].buffers[1] = _msBuffer.slice(0, 32);\n\n    for (uint i = 1; i < maxOffsetLength; i++) {\n      // metadata/tree\n      if (i <= _mtOffsets.length - 1) {\n        metadata_[0].buffers[_mtOffsets[i]] = _mtBuffer.slice(_mtOffsets[i], mtBufferSize_);\n      }\n      \n      // metadata/signatures\n      if (i <= _msOffsets.length - 1) {\n        metadata_[1].buffers[_msOffsets[i]] = _msBuffer.slice(_msOffsets[i], msBufferSize_);\n      }\n    }\n\n    emit Commit(did_);\n  }\n\n  function read(uint8 _file, uint256 _offset) public view returns (bytes buffer) {\n    if (metadata_[_file].invalid) {\n      return \"\"; // empty bytes\n    }\n    return metadata_[_file].buffers[_offset];\n  }\n\n  function hasBuffer(uint8 _file, uint256 _offset, bytes _buffer) public view returns (bool exists) {\n    return metadata_[_file].buffers[_offset].equal(_buffer);\n  }\n\n  function unlist() public onlyBy(owner_) returns (bool success) {\n    metadata_[0].invalid = true;\n    metadata_[1].invalid = true;\n    listed_ = false;\n    emit Unlisted(did_);\n    return true;\n  }\n}\n",
  "sourcePath": "/Users/ericjiang/Littlstar/ara-contracts/contracts/AFS.sol",
  "compiler": {
    "name": "solc",
    "version": "0.4.24+commit.e67f0147.Emscripten.clang"
  },
  "schemaVersion": "2.0.1",
  "updatedAt": "2018-08-17T23:43:47.473Z"
}