{
  "contractName": "AFS",
  "abi": [
    {
      "constant": true,
      "inputs": [],
      "name": "minResalePrice_",
      "outputs": [
        {
          "name": "",
          "type": "uint256"
        }
      ],
      "payable": false,
      "stateMutability": "view",
      "type": "function"
    },
    {
      "constant": true,
      "inputs": [
        {
          "name": "",
          "type": "uint256"
        }
      ],
      "name": "priceTiers_",
      "outputs": [
        {
          "name": "",
          "type": "uint256"
        }
      ],
      "payable": false,
      "stateMutability": "view",
      "type": "function"
    },
    {
      "constant": true,
      "inputs": [
        {
          "name": "",
          "type": "bytes32"
        }
      ],
      "name": "jobs_",
      "outputs": [
        {
          "name": "sender",
          "type": "address"
        },
        {
          "name": "budget",
          "type": "uint256"
        }
      ],
      "payable": false,
      "stateMutability": "view",
      "type": "function"
    },
    {
      "constant": true,
      "inputs": [
        {
          "name": "",
          "type": "bytes32"
        }
      ],
      "name": "purchases_",
      "outputs": [
        {
          "name": "quantity",
          "type": "uint256"
        }
      ],
      "payable": false,
      "stateMutability": "view",
      "type": "function"
    },
    {
      "constant": true,
      "inputs": [],
      "name": "royaltyMultiplier",
      "outputs": [
        {
          "name": "",
          "type": "uint256"
        }
      ],
      "payable": false,
      "stateMutability": "view",
      "type": "function"
    },
    {
      "constant": true,
      "inputs": [],
      "name": "listed_",
      "outputs": [
        {
          "name": "",
          "type": "bool"
        }
      ],
      "payable": false,
      "stateMutability": "view",
      "type": "function"
    },
    {
      "constant": true,
      "inputs": [],
      "name": "resellable_",
      "outputs": [
        {
          "name": "",
          "type": "bool"
        }
      ],
      "payable": false,
      "stateMutability": "view",
      "type": "function"
    },
    {
      "constant": true,
      "inputs": [
        {
          "name": "",
          "type": "uint8"
        },
        {
          "name": "",
          "type": "uint256"
        }
      ],
      "name": "metadata_",
      "outputs": [
        {
          "name": "",
          "type": "bytes"
        }
      ],
      "payable": false,
      "stateMutability": "view",
      "type": "function"
    },
    {
      "constant": true,
      "inputs": [],
      "name": "lib_",
      "outputs": [
        {
          "name": "",
          "type": "address"
        }
      ],
      "payable": false,
      "stateMutability": "view",
      "type": "function"
    },
    {
      "constant": true,
      "inputs": [],
      "name": "did_",
      "outputs": [
        {
          "name": "",
          "type": "bytes32"
        }
      ],
      "payable": false,
      "stateMutability": "view",
      "type": "function"
    },
    {
      "constant": false,
      "inputs": [
        {
          "name": "_newOwner",
          "type": "address"
        }
      ],
      "name": "approveOwnershipTransfer",
      "outputs": [],
      "payable": false,
      "stateMutability": "nonpayable",
      "type": "function"
    },
    {
      "constant": true,
      "inputs": [
        {
          "name": "",
          "type": "bytes32"
        }
      ],
      "name": "rewards_",
      "outputs": [
        {
          "name": "",
          "type": "uint256"
        }
      ],
      "payable": false,
      "stateMutability": "view",
      "type": "function"
    },
    {
      "constant": true,
      "inputs": [],
      "name": "maxNumResales_",
      "outputs": [
        {
          "name": "",
          "type": "uint256"
        }
      ],
      "payable": false,
      "stateMutability": "view",
      "type": "function"
    },
    {
      "constant": false,
      "inputs": [],
      "name": "requestOwnership",
      "outputs": [],
      "payable": false,
      "stateMutability": "nonpayable",
      "type": "function"
    },
    {
      "constant": true,
      "inputs": [
        {
          "name": "",
          "type": "bytes32"
        }
      ],
      "name": "requesters_",
      "outputs": [
        {
          "name": "",
          "type": "bool"
        }
      ],
      "payable": false,
      "stateMutability": "view",
      "type": "function"
    },
    {
      "constant": true,
      "inputs": [],
      "name": "unlimited_",
      "outputs": [
        {
          "name": "",
          "type": "bool"
        }
      ],
      "payable": false,
      "stateMutability": "view",
      "type": "function"
    },
    {
      "constant": true,
      "inputs": [],
      "name": "token_",
      "outputs": [
        {
          "name": "",
          "type": "address"
        }
      ],
      "payable": false,
      "stateMutability": "view",
      "type": "function"
    },
    {
      "constant": true,
      "inputs": [],
      "name": "totalCopies_",
      "outputs": [
        {
          "name": "",
          "type": "uint256"
        }
      ],
      "payable": false,
      "stateMutability": "view",
      "type": "function"
    },
    {
      "constant": true,
      "inputs": [],
      "name": "owner_",
      "outputs": [
        {
          "name": "",
          "type": "address"
        }
      ],
      "payable": false,
      "stateMutability": "view",
      "type": "function"
    },
    {
      "constant": true,
      "inputs": [
        {
          "name": "",
          "type": "uint256"
        }
      ],
      "name": "prices_",
      "outputs": [
        {
          "name": "",
          "type": "uint256"
        }
      ],
      "payable": false,
      "stateMutability": "view",
      "type": "function"
    },
    {
      "constant": false,
      "inputs": [],
      "name": "revokeOwnershipRequest",
      "outputs": [],
      "payable": false,
      "stateMutability": "nonpayable",
      "type": "function"
    },
    {
      "anonymous": false,
      "inputs": [
        {
          "indexed": false,
          "name": "_did",
          "type": "bytes32"
        }
      ],
      "name": "Commit",
      "type": "event"
    },
    {
      "anonymous": false,
      "inputs": [
        {
          "indexed": false,
          "name": "_did",
          "type": "bytes32"
        }
      ],
      "name": "Unlisted",
      "type": "event"
    },
    {
      "anonymous": false,
      "inputs": [
        {
          "indexed": false,
          "name": "_did",
          "type": "bytes32"
        }
      ],
      "name": "Listed",
      "type": "event"
    },
    {
      "anonymous": false,
      "inputs": [
        {
          "indexed": false,
          "name": "_did",
          "type": "bytes32"
        },
        {
          "indexed": false,
          "name": "_price",
          "type": "uint256"
        }
      ],
      "name": "MinResalePriceSet",
      "type": "event"
    },
    {
      "anonymous": false,
      "inputs": [
        {
          "indexed": false,
          "name": "_did",
          "type": "bytes32"
        },
        {
          "indexed": false,
          "name": "_purchaser",
          "type": "address"
        },
        {
          "indexed": false,
          "name": "_price",
          "type": "uint256"
        }
      ],
      "name": "ResalePriceSet",
      "type": "event"
    },
    {
      "anonymous": false,
      "inputs": [
        {
          "indexed": false,
          "name": "_did",
          "type": "bytes32"
        },
        {
          "indexed": false,
          "name": "_quantity",
          "type": "uint256"
        }
      ],
      "name": "MaxNumResalesSet",
      "type": "event"
    },
    {
      "anonymous": false,
      "inputs": [
        {
          "indexed": false,
          "name": "_did",
          "type": "bytes32"
        },
        {
          "indexed": false,
          "name": "_quantity",
          "type": "uint256"
        },
        {
          "indexed": false,
          "name": "_price",
          "type": "uint256"
        }
      ],
      "name": "PriceSet",
      "type": "event"
    },
    {
      "anonymous": false,
      "inputs": [
        {
          "indexed": false,
          "name": "_did",
          "type": "bytes32"
        },
        {
          "indexed": false,
          "name": "_jobId",
          "type": "bytes32"
        },
        {
          "indexed": false,
          "name": "_budget",
          "type": "uint256"
        }
      ],
      "name": "BudgetSubmitted",
      "type": "event"
    },
    {
      "anonymous": false,
      "inputs": [
        {
          "indexed": false,
          "name": "_did",
          "type": "bytes32"
        },
        {
          "indexed": false,
          "name": "_allocated",
          "type": "uint256"
        },
        {
          "indexed": false,
          "name": "_returned",
          "type": "uint256"
        }
      ],
      "name": "RewardsAllocated",
      "type": "event"
    },
    {
      "anonymous": false,
      "inputs": [
        {
          "indexed": false,
          "name": "_purchaser",
          "type": "bytes32"
        },
        {
          "indexed": false,
          "name": "_did",
          "type": "bytes32"
        },
        {
          "indexed": false,
          "name": "_quantity",
          "type": "uint256"
        },
        {
          "indexed": false,
          "name": "_price",
          "type": "uint256"
        },
        {
          "indexed": false,
          "name": "_configID",
          "type": "bytes32"
        }
      ],
      "name": "Purchased",
      "type": "event"
    },
    {
      "anonymous": false,
      "inputs": [
        {
          "indexed": false,
          "name": "_purchaser",
          "type": "bytes32"
        },
        {
          "indexed": false,
          "name": "_seller",
          "type": "address"
        },
        {
          "indexed": false,
          "name": "_did",
          "type": "bytes32"
        },
        {
          "indexed": false,
          "name": "_quantity",
          "type": "uint256"
        },
        {
          "indexed": false,
          "name": "_price",
          "type": "uint256"
        },
        {
          "indexed": false,
          "name": "_configID",
          "type": "bytes32"
        }
      ],
      "name": "PurchasedResale",
      "type": "event"
    },
    {
      "anonymous": false,
      "inputs": [
        {
          "indexed": false,
          "name": "_sender",
          "type": "address"
        }
      ],
      "name": "Redeemed",
      "type": "event"
    },
    {
      "anonymous": false,
      "inputs": [
        {
          "indexed": false,
          "name": "_did",
          "type": "bytes32"
        },
        {
          "indexed": false,
          "name": "_added",
          "type": "uint256"
        },
        {
          "indexed": false,
          "name": "_total",
          "type": "uint256"
        }
      ],
      "name": "IncreasedSupply",
      "type": "event"
    },
    {
      "anonymous": false,
      "inputs": [
        {
          "indexed": false,
          "name": "_did",
          "type": "bytes32"
        },
        {
          "indexed": false,
          "name": "_removed",
          "type": "uint256"
        },
        {
          "indexed": false,
          "name": "_total",
          "type": "uint256"
        }
      ],
      "name": "DecreasedSupply",
      "type": "event"
    },
    {
      "anonymous": false,
      "inputs": [
        {
          "indexed": false,
          "name": "_did",
          "type": "bytes32"
        },
        {
          "indexed": false,
          "name": "_quantity",
          "type": "uint256"
        }
      ],
      "name": "SupplySet",
      "type": "event"
    },
    {
      "anonymous": false,
      "inputs": [
        {
          "indexed": false,
          "name": "_did",
          "type": "bytes32"
        },
        {
          "indexed": false,
          "name": "_seller",
          "type": "address"
        },
        {
          "indexed": false,
          "name": "_available",
          "type": "uint256"
        }
      ],
      "name": "ResaleUnlocked",
      "type": "event"
    },
    {
      "anonymous": false,
      "inputs": [
        {
          "indexed": false,
          "name": "_did",
          "type": "bytes32"
        },
        {
          "indexed": false,
          "name": "_seller",
          "type": "address"
        },
        {
          "indexed": false,
          "name": "_available",
          "type": "uint256"
        }
      ],
      "name": "ResaleLocked",
      "type": "event"
    },
    {
      "anonymous": false,
      "inputs": [
        {
          "indexed": false,
          "name": "_did",
          "type": "bytes32"
        }
      ],
      "name": "MarkedForResale",
      "type": "event"
    },
    {
      "anonymous": false,
      "inputs": [
        {
          "indexed": false,
          "name": "_did",
          "type": "bytes32"
        }
      ],
      "name": "MarkedNotForResale",
      "type": "event"
    },
    {
      "anonymous": false,
      "inputs": [
        {
          "indexed": false,
          "name": "_did",
          "type": "bytes32"
        }
      ],
      "name": "ResaleUnlocked",
      "type": "event"
    },
    {
      "anonymous": false,
      "inputs": [
        {
          "indexed": false,
          "name": "_did",
          "type": "bytes32"
        }
      ],
      "name": "ResaleLocked",
      "type": "event"
    },
    {
      "anonymous": false,
      "inputs": [],
      "name": "RoyaltiesUpdated",
      "type": "event"
    },
    {
      "anonymous": false,
      "inputs": [
        {
          "indexed": false,
          "name": "_hashedAddresses",
          "type": "bytes32[]"
        },
        {
          "indexed": false,
          "name": "_amounts",
          "type": "uint256[]"
        },
        {
          "indexed": false,
          "name": "_price",
          "type": "uint256"
        },
        {
          "indexed": false,
          "name": "_profits",
          "type": "uint256[]"
        }
      ],
      "name": "RoyaltiesPaidOut",
      "type": "event"
    },
    {
      "anonymous": false,
      "inputs": [
        {
          "indexed": true,
          "name": "_previousOwner",
          "type": "address"
        },
        {
          "indexed": true,
          "name": "_newOwner",
          "type": "address"
        }
      ],
      "name": "TransferApproved",
      "type": "event"
    },
    {
      "anonymous": false,
      "inputs": [
        {
          "indexed": true,
          "name": "_currentOwner",
          "type": "address"
        },
        {
          "indexed": true,
          "name": "_requestedOwner",
          "type": "address"
        }
      ],
      "name": "TransferRequested",
      "type": "event"
    },
    {
      "anonymous": false,
      "inputs": [
        {
          "indexed": true,
          "name": "_currentOwner",
          "type": "address"
        },
        {
          "indexed": true,
          "name": "_requestOwner",
          "type": "address"
        }
      ],
      "name": "RequestRevoked",
      "type": "event"
    },
    {
      "constant": false,
      "inputs": [
        {
          "name": "_data",
          "type": "bytes"
        }
      ],
      "name": "init",
      "outputs": [],
      "payable": false,
      "stateMutability": "nonpayable",
      "type": "function"
    },
    {
      "constant": false,
      "inputs": [],
      "name": "list",
      "outputs": [],
      "payable": false,
      "stateMutability": "nonpayable",
      "type": "function"
    },
    {
      "constant": false,
      "inputs": [],
      "name": "unlist",
      "outputs": [],
      "payable": false,
      "stateMutability": "nonpayable",
      "type": "function"
    },
    {
      "constant": false,
      "inputs": [],
      "name": "unlockResale",
      "outputs": [],
      "payable": false,
      "stateMutability": "nonpayable",
      "type": "function"
    },
    {
      "constant": false,
      "inputs": [],
      "name": "lockResale",
      "outputs": [],
      "payable": false,
      "stateMutability": "nonpayable",
      "type": "function"
    },
    {
      "constant": false,
      "inputs": [
        {
          "name": "_quantity",
          "type": "uint256"
        },
        {
          "name": "_price",
          "type": "uint256"
        }
      ],
      "name": "setPrice",
      "outputs": [],
      "payable": false,
      "stateMutability": "nonpayable",
      "type": "function"
    },
    {
      "constant": true,
      "inputs": [
        {
          "name": "_quantity",
          "type": "uint256"
        }
      ],
      "name": "getPrice",
      "outputs": [
        {
          "name": "",
          "type": "uint256"
        }
      ],
      "payable": false,
      "stateMutability": "view",
      "type": "function"
    },
    {
      "constant": false,
      "inputs": [
        {
          "name": "_quantity",
          "type": "uint256"
        }
      ],
      "name": "removePriceTier",
      "outputs": [],
      "payable": false,
      "stateMutability": "nonpayable",
      "type": "function"
    },
    {
      "constant": false,
      "inputs": [
        {
          "name": "_price",
          "type": "uint256"
        }
      ],
      "name": "setMinResalePrice",
      "outputs": [],
      "payable": false,
      "stateMutability": "nonpayable",
      "type": "function"
    },
    {
      "constant": false,
      "inputs": [
        {
          "name": "_quantity",
          "type": "uint256"
        }
      ],
      "name": "setResaleQuantity",
      "outputs": [],
      "payable": false,
      "stateMutability": "nonpayable",
      "type": "function"
    },
    {
      "constant": false,
      "inputs": [
        {
          "name": "_quantity",
          "type": "uint256"
        }
      ],
      "name": "setSupply",
      "outputs": [],
      "payable": false,
      "stateMutability": "nonpayable",
      "type": "function"
    },
    {
      "constant": false,
      "inputs": [
        {
          "name": "_quantity",
          "type": "uint256"
        }
      ],
      "name": "increaseSupply",
      "outputs": [],
      "payable": false,
      "stateMutability": "nonpayable",
      "type": "function"
    },
    {
      "constant": false,
      "inputs": [
        {
          "name": "_quantity",
          "type": "uint256"
        }
      ],
      "name": "decreaseSupply",
      "outputs": [],
      "payable": false,
      "stateMutability": "nonpayable",
      "type": "function"
    },
    {
      "constant": false,
      "inputs": [],
      "name": "setUnlimitedSupply",
      "outputs": [],
      "payable": false,
      "stateMutability": "nonpayable",
      "type": "function"
    },
    {
      "constant": false,
      "inputs": [
        {
          "name": "_hashedAddresses",
          "type": "bytes32[]"
        },
        {
          "name": "_amounts",
          "type": "uint256[]"
        }
      ],
      "name": "setRoyalties",
      "outputs": [],
      "payable": false,
      "stateMutability": "nonpayable",
      "type": "function"
    },
    {
      "constant": false,
      "inputs": [
        {
          "name": "_configID",
          "type": "bytes32"
        },
        {
          "name": "_quantity",
          "type": "uint256"
        }
      ],
      "name": "unlockResaleQuantity",
      "outputs": [],
      "payable": false,
      "stateMutability": "nonpayable",
      "type": "function"
    },
    {
      "constant": false,
      "inputs": [
        {
          "name": "_configID",
          "type": "bytes32"
        },
        {
          "name": "_quantity",
          "type": "uint256"
        }
      ],
      "name": "lockResaleQuantity",
      "outputs": [],
      "payable": false,
      "stateMutability": "nonpayable",
      "type": "function"
    },
    {
      "constant": false,
      "inputs": [
        {
          "name": "_configID",
          "type": "bytes32"
        },
        {
          "name": "_price",
          "type": "uint256"
        }
      ],
      "name": "setResalePrice",
      "outputs": [],
      "payable": false,
      "stateMutability": "nonpayable",
      "type": "function"
    },
    {
      "constant": false,
      "inputs": [
        {
          "name": "_purchaser",
          "type": "bytes32"
        },
        {
          "name": "_quantity",
          "type": "uint256"
        },
        {
          "name": "_jobId",
          "type": "bytes32"
        },
        {
          "name": "_budget",
          "type": "uint256"
        }
      ],
      "name": "purchase",
      "outputs": [],
      "payable": false,
      "stateMutability": "nonpayable",
      "type": "function"
    },
    {
      "constant": false,
      "inputs": [
        {
          "name": "_seller",
          "type": "address"
        },
        {
          "name": "_configID",
          "type": "bytes32"
        },
        {
          "name": "_purchaser",
          "type": "bytes32"
        },
        {
          "name": "_quantity",
          "type": "uint256"
        },
        {
          "name": "_jobId",
          "type": "bytes32"
        },
        {
          "name": "_budget",
          "type": "uint256"
        }
      ],
      "name": "purchaseResale",
      "outputs": [],
      "payable": false,
      "stateMutability": "nonpayable",
      "type": "function"
    },
    {
      "constant": false,
      "inputs": [
        {
          "name": "_jobId",
          "type": "bytes32"
        },
        {
          "name": "_budget",
          "type": "uint256"
        }
      ],
      "name": "submitBudget",
      "outputs": [],
      "payable": false,
      "stateMutability": "nonpayable",
      "type": "function"
    },
    {
      "constant": true,
      "inputs": [
        {
          "name": "_jobId",
          "type": "bytes32"
        }
      ],
      "name": "getBudget",
      "outputs": [
        {
          "name": "",
          "type": "uint256"
        }
      ],
      "payable": false,
      "stateMutability": "view",
      "type": "function"
    },
    {
      "constant": false,
      "inputs": [
        {
          "name": "_jobId",
          "type": "bytes32"
        },
        {
          "name": "_farmers",
          "type": "bytes32[]"
        },
        {
          "name": "_rewards",
          "type": "uint256[]"
        }
      ],
      "name": "allocateRewards",
      "outputs": [],
      "payable": false,
      "stateMutability": "nonpayable",
      "type": "function"
    },
    {
      "constant": false,
      "inputs": [],
      "name": "redeemBalance",
      "outputs": [],
      "payable": false,
      "stateMutability": "nonpayable",
      "type": "function"
    },
    {
      "constant": true,
      "inputs": [
        {
          "name": "_farmer",
          "type": "address"
        }
      ],
      "name": "getRewardsBalance",
      "outputs": [
        {
          "name": "",
          "type": "uint256"
        }
      ],
      "payable": false,
      "stateMutability": "view",
      "type": "function"
    },
    {
      "constant": false,
      "inputs": [
        {
          "name": "_mtOffsets",
          "type": "uint256[]"
        },
        {
          "name": "_msOffsets",
          "type": "uint256[]"
        },
        {
          "name": "_mtBuffer",
          "type": "bytes"
        },
        {
          "name": "_msBuffer",
          "type": "bytes"
        },
        {
          "name": "_list",
          "type": "bool"
        }
      ],
      "name": "append",
      "outputs": [],
      "payable": false,
      "stateMutability": "nonpayable",
      "type": "function"
    },
    {
      "constant": false,
      "inputs": [
        {
          "name": "_mtOffsets",
          "type": "uint256[]"
        },
        {
          "name": "_msOffsets",
          "type": "uint256[]"
        },
        {
          "name": "_mtBuffer",
          "type": "bytes"
        },
        {
          "name": "_msBuffer",
          "type": "bytes"
        },
        {
          "name": "_list",
          "type": "bool"
        }
      ],
      "name": "write",
      "outputs": [],
      "payable": false,
      "stateMutability": "nonpayable",
      "type": "function"
    },
    {
      "constant": true,
      "inputs": [
        {
          "name": "_file",
          "type": "uint8"
        },
        {
          "name": "_offset",
          "type": "uint256"
        }
      ],
      "name": "read",
      "outputs": [
        {
          "name": "buffer",
          "type": "bytes"
        }
      ],
      "payable": false,
      "stateMutability": "view",
      "type": "function"
    },
    {
      "constant": true,
      "inputs": [
        {
          "name": "_file",
          "type": "uint8"
        },
        {
          "name": "_offset",
          "type": "uint256"
        },
        {
          "name": "_buffer",
          "type": "bytes"
        }
      ],
      "name": "hasBuffer",
      "outputs": [
        {
          "name": "exists",
          "type": "bool"
        }
      ],
      "payable": false,
      "stateMutability": "view",
      "type": "function"
    }
  ],
  "bytecode": "0x60806040526000600a60006101000a81548160ff02191690831515021790555034801561002b57600080fd5b50617ae2806200003c6000396000f30060806040526004361061025c576000357c0100000000000000000000000000000000000000000000000000000000900463ffffffff16806306b75c5a146102615780630b38926a1461028c5780630f560cd7146102cd5780631748fde9146102e45780631e0a1b95146102fb5780631f84eb461461037357806323276c53146103b85780632a6363be146103e35780632aa334bb14610412578063313c2c5f1461049357806331ddd9ab146104c25780633b4c4b25146105755780633e5ceede146105a257806346f60dee146105b957806347269720146106105780634ddf47d4146106435780634e1d009f146106ac57806354336c0a146106ef578063546887a31461071c5780635712c2fa146107615780635ee6fa611461080a57806362029e751461084f578063732518d71461088a5780637bfa87b6146108a1578063830e9bfb146108cc5780638a67f4bf146109075780638e5aafe11461095e57806393acee641461097557806398e52f9a14610ab657806399d20bb114610ae35780639c76a54114610b2c578063a0d5850114610b59578063b658e85114610b70578063b921e16314610bc3578063bb66f9f614610bf0578063bc3cf83b14610ca3578063cc3a08f814610cd2578063d248f4d514610d89578063d56805e114610dc4578063dd846f0814610e1b578063e0a88a3b14610e46578063e757223014610e5d578063e766307914610e9e578063f0c13b9e14610ef5578063f0e5bd8614610f36578063f1c737de14610fce578063f51b69791461105d578063f5d0103c14611098578063f7d97577146110c5578063fc1c34e4146110fc575b600080fd5b34801561026d57600080fd5b50610276611113565b6040518082815260200191505060405180910390f35b34801561029857600080fd5b506102b760048036038101908080359060200190929190505050611119565b6040518082815260200191505060405180910390f35b3480156102d957600080fd5b506102e261113c565b005b3480156102f057600080fd5b506102f9611260565b005b34801561030757600080fd5b5061032a6004803603810190808035600019169060200190929190505050611396565b604051808373ffffffffffffffffffffffffffffffffffffffff1673ffffffffffffffffffffffffffffffffffffffff1681526020018281526020019250505060405180910390f35b34801561037f57600080fd5b506103a260048036038101908080356000191690602001909291905050506113da565b6040518082815260200191505060405180910390f35b3480156103c457600080fd5b506103cd6113f8565b6040518082815260200191505060405180910390f35b3480156103ef57600080fd5b506103f86113fe565b604051808215151515815260200191505060405180910390f35b34801561041e57600080fd5b50610491600480360381019080803573ffffffffffffffffffffffffffffffffffffffff1690602001909291908035600019169060200190929190803560001916906020019092919080359060200190929190803560001916906020019092919080359060200190929190505050611411565b005b34801561049f57600080fd5b506104a861209d565b604051808215151515815260200191505060405180910390f35b3480156104ce57600080fd5b506104fa600480360381019080803560ff169060200190929190803590602001909291905050506120b0565b6040518080602001828103825283818151815260200191508051906020019080838360005b8381101561053a57808201518184015260208101905061051f565b50505050905090810190601f1680156105675780820380516001836020036101000a031916815260200191505b509250505060405180910390f35b34801561058157600080fd5b506105a06004803603810190808035906020019092919050505061216d565b005b3480156105ae57600080fd5b506105b7612328565b005b3480156105c557600080fd5b506105ce612624565b604051808273ffffffffffffffffffffffffffffffffffffffff1673ffffffffffffffffffffffffffffffffffffffff16815260200191505060405180910390f35b34801561061c57600080fd5b5061062561264a565b60405180826000191660001916815260200191505060405180910390f35b34801561064f57600080fd5b506106aa600480360381019080803590602001908201803590602001908080601f0160208091040260200160405190810160405280939291908181526020018383808284378201915050505050509192919290505050612650565b005b3480156106b857600080fd5b506106ed600480360381019080803573ffffffffffffffffffffffffffffffffffffffff169060200190929190505050612855565b005b3480156106fb57600080fd5b5061071a60048036038101908080359060200190929190505050612b44565b005b34801561072857600080fd5b5061074b6004803603810190808035600019169060200190929190505050612ce9565b6040518082815260200191505060405180910390f35b34801561076d57600080fd5b506108086004803603810190808035906020019082018035906020019080806020026020016040519081016040528093929190818152602001838360200280828437820191505050505050919291929080359060200190820180359060200190808060200260200160405190810160405280939291908181526020018383602002808284378201915050505050509192919290505050612d11565b005b34801561081657600080fd5b506108396004803603810190808035600019169060200190929190505050612fbc565b6040518082815260200191505060405180910390f35b34801561085b57600080fd5b50610888600480360381019080803560001916906020019092919080359060200190929190505050612fd4565b005b34801561089657600080fd5b5061089f61337f565b005b3480156108ad57600080fd5b506108b66134a3565b6040518082815260200191505060405180910390f35b3480156108d857600080fd5b506109056004803603810190808035600019169060200190929190803590602001909291905050506134a9565b005b34801561091357600080fd5b50610948600480360381019080803573ffffffffffffffffffffffffffffffffffffffff169060200190929190505050613917565b6040518082815260200191505060405180910390f35b34801561096a57600080fd5b506109736139f8565b005b34801561098157600080fd5b50610ab46004803603810190808035906020019082018035906020019080806020026020016040519081016040528093929190818152602001838360200280828437820191505050505050919291929080359060200190820180359060200190808060200260200160405190810160405280939291908181526020018383602002808284378201915050505050509192919290803590602001908201803590602001908080601f0160208091040260200160405190810160405280939291908181526020018383808284378201915050505050509192919290803590602001908201803590602001908080601f0160208091040260200160405190810160405280939291908181526020018383808284378201915050505050509192919290803515159060200190929190505050613cea565b005b348015610ac257600080fd5b50610ae160048036038101908080359060200190929190505050614023565b005b348015610aef57600080fd5b50610b12600480360381019080803560001916906020019092919050505061437d565b604051808215151515815260200191505060405180910390f35b348015610b3857600080fd5b50610b576004803603810190808035906020019092919050505061439d565b005b348015610b6557600080fd5b50610b6e6144b8565b005b348015610b7c57600080fd5b50610bc16004803603810190808035600019169060200190929190803590602001909291908035600019169060200190929190803590602001909291905050506145dc565b005b348015610bcf57600080fd5b50610bee60048036038101908080359060200190929190505050615450565b005b348015610bfc57600080fd5b50610c28600480360381019080803560ff16906020019092919080359060200190929190505050615667565b6040518080602001828103825283818151815260200191508051906020019080838360005b83811015610c68578082015181840152602081019050610c4d565b50505050905090810190601f168015610c955780820380516001836020036101000a031916815260200191505b509250505060405180910390f35b348015610caf57600080fd5b50610cb8615763565b604051808215151515815260200191505060405180910390f35b348015610cde57600080fd5b50610d8760048036038101908080356000191690602001909291908035906020019082018035906020019080806020026020016040519081016040528093929190818152602001838360200280828437820191505050505050919291929080359060200190820180359060200190808060200260200160405190810160405280939291908181526020018383602002808284378201915050505050509192919290505050615776565b005b348015610d9557600080fd5b50610dc2600480360381019080803560001916906020019092919080359060200190929190505050615c84565b005b348015610dd057600080fd5b50610dd961612e565b604051808273ffffffffffffffffffffffffffffffffffffffff1673ffffffffffffffffffffffffffffffffffffffff16815260200191505060405180910390f35b348015610e2757600080fd5b50610e30616154565b6040518082815260200191505060405180910390f35b348015610e5257600080fd5b50610e5b61615a565b005b348015610e6957600080fd5b50610e886004803603810190808035906020019092919050505061627e565b6040518082815260200191505060405180910390f35b348015610eaa57600080fd5b50610eb361635d565b604051808273ffffffffffffffffffffffffffffffffffffffff1673ffffffffffffffffffffffffffffffffffffffff16815260200191505060405180910390f35b348015610f0157600080fd5b50610f2060048036038101908080359060200190929190505050616382565b6040518082815260200191505060405180910390f35b348015610f4257600080fd5b50610fb4600480360381019080803560ff16906020019092919080359060200190929190803590602001908201803590602001908080601f016020809104026020016040519081016040528093929190818152602001838380828437820191505050505050919291929050505061639a565b604051808215151515815260200191505060405180910390f35b348015610fda57600080fd5b5061105b60048036038101908080359060200190820180359060200191909192939192939080359060200190820180359060200191909192939192939080359060200190820180359060200191909192939192939080359060200190820180359060200191909192939192939080351515906020019092919050505061647a565b005b34801561106957600080fd5b5061109660048036038101908080356000191690602001909291908035906020019092919050505061675a565b005b3480156110a457600080fd5b506110c360048036038101908080359060200190929190505050616ea3565b005b3480156110d157600080fd5b506110fa6004803603810190808035906020019092919080359060200190929190505050616fbc565b005b34801561110857600080fd5b5061111161714b565b005b600b5481565b60088181548110151561112857fe5b906000526020600020016000915090505481565b6002809054906101000a900473ffffffffffffffffffffffffffffffffffffffff168073ffffffffffffffffffffffffffffffffffffffff163373ffffffffffffffffffffffffffffffffffffffff16141515611201576040517f08c379a00000000000000000000000000000000000000000000000000000000081526004018080602001828103825260168152602001807f53656e646572206e6f7420617574686f72697a65642e0000000000000000000081525060200191505060405180910390fd5b6001600660006101000a81548160ff0219169083151502179055507fbb62c580222a498aedf5b724b94b0d90065a6bd3be8349b223dc032dbdef555560055460405180826000191660001916815260200191505060405180910390a150565b6002809054906101000a900473ffffffffffffffffffffffffffffffffffffffff168073ffffffffffffffffffffffffffffffffffffffff163373ffffffffffffffffffffffffffffffffffffffff16141515611325576040517f08c379a00000000000000000000000000000000000000000000000000000000081526004018080602001828103825260168152602001807f53656e646572206e6f7420617574686f72697a65642e0000000000000000000081525060200191505060405180910390fd5b60006009819055506001600a60006101000a81548160ff0219169083151502179055507f0dffee683881a39928b28151ccdb36b1b55ceeb6fc19567a64fa8f8f483b714d6005546009546040518083600019166000191681526020018281526020019250505060405180910390a150565b600d6020528060005260406000206000915090508060000160009054906101000a900473ffffffffffffffffffffffffffffffffffffffff16908060010154905082565b600f6020528060005260406000206000915090508060030154905081565b6103ea81565b600660009054906101000a900460ff1681565b6000806000806000806000808a111515611493576040517f08c379a000000000000000000000000000000000000000000000000000000000815260040180806020018281038252601e8152602001807f4d757374207075726368617365206174206c65617374203120636f70792e000081525060200191505060405180910390fd5b8c604051602001808273ffffffffffffffffffffffffffffffffffffffff1673ffffffffffffffffffffffffffffffffffffffff166c010000000000000000000000000281526014019150506040516020818303038152906040526040518082805190602001908083835b60208310151561152357805182526020820191506020810190506020830392506114fe565b6001836020036101000a03801982511681845116808217855250505050505090500191505060405180910390209650600f6000886000191660001916815260200190815260200160002095508560020160008d60001916600019168152602001908152602001600020945089856003015410151515611656576040517f08c379a000000000000000000000000000000000000000000000000000000000815260040180806020018281038252605b8152602001807f54686973207175616e74697479206973206e6f7420617661696c61626c65206681526020017f6f7220726573616c652066726f6d20746869732073656c6c6572207573696e6781526020017f207468697320726573616c6520636f6e66696775726174696f6e2e000000000081525060600191505060405180910390fd5b84600101548560050160018c0381548110151561166f57fe5b9060005260206000200154101515611715576040517f08c379a00000000000000000000000000000000000000000000000000000000081526004018080602001828103825260378152602001807f436f70792068617320616c7265616479206265656e20736f6c6420746865206d81526020017f6178696d756d206e756d626572206f662074696d65732e00000000000000000081525060400191505060405180910390fd5b84600201548a029350878401600360009054906101000a900473ffffffffffffffffffffffffffffffffffffffff1673ffffffffffffffffffffffffffffffffffffffff1663dd62ed3e33306040518363ffffffff167c0100000000000000000000000000000000000000000000000000000000028152600401808373ffffffffffffffffffffffffffffffffffffffff1673ffffffffffffffffffffffffffffffffffffffff1681526020018273ffffffffffffffffffffffffffffffffffffffff1673ffffffffffffffffffffffffffffffffffffffff16815260200192505050602060405180830381600087803b15801561181257600080fd5b505af1158015611826573d6000803e3d6000fd5b505050506040513d602081101561183c57600080fd5b8101908080519060200190929190505050101515156118e9576040517f08c379a00000000000000000000000000000000000000000000000000000000081526004018080602001828103825260248152602001807f50726f7879206d75737420626520617070726f76656420666f7220707572636881526020017f6173652e0000000000000000000000000000000000000000000000000000000081525060400191505060405180910390fd5b600360009054906101000a900473ffffffffffffffffffffffffffffffffffffffff1673ffffffffffffffffffffffffffffffffffffffff166323b872dd338f88600001548960020154038e026040518463ffffffff167c0100000000000000000000000000000000000000000000000000000000028152600401808473ffffffffffffffffffffffffffffffffffffffff1673ffffffffffffffffffffffffffffffffffffffff1681526020018373ffffffffffffffffffffffffffffffffffffffff1673ffffffffffffffffffffffffffffffffffffffff1681526020018281526020019350505050602060405180830381600087803b1580156119ee57600080fd5b505af1158015611a02573d6000803e3d6000fd5b505050506040513d6020811015611a1857600080fd5b81019080805190602001909291905050508015611b8c5750600360009054906101000a900473ffffffffffffffffffffffffffffffffffffffff1673ffffffffffffffffffffffffffffffffffffffff166323b872dd336002809054906101000a900473ffffffffffffffffffffffffffffffffffffffff1688600001548e026040518463ffffffff167c0100000000000000000000000000000000000000000000000000000000028152600401808473ffffffffffffffffffffffffffffffffffffffff1673ffffffffffffffffffffffffffffffffffffffff1681526020018373ffffffffffffffffffffffffffffffffffffffff1673ffffffffffffffffffffffffffffffffffffffff1681526020018281526020019350505050602060405180830381600087803b158015611b5057600080fd5b505af1158015611b64573d6000803e3d6000fd5b505050506040513d6020811015611b7a57600080fd5b81019080805190602001909291905050505b1515611c00576040517f08c379a00000000000000000000000000000000000000000000000000000000081526004018080602001828103825260148152602001807f417261207472616e73666572206661696c65642e00000000000000000000000081525060200191505060405180910390fd5b89856004016000828254039250508190555089856003016000828254039250508190555033604051602001808273ffffffffffffffffffffffffffffffffffffffff1673ffffffffffffffffffffffffffffffffffffffff166c010000000000000000000000000281526014019150506040516020818303038152906040526040518082805190602001908083835b602083101515611cb45780518252602082019150602081019050602083039250611c8f565b6001836020036101000a03801982511681845116808217855250505050505090500191505060405180910390209250600f60008460001916600019168152602001908152602001600020915033600554428460000180549050604051602001808573ffffffffffffffffffffffffffffffffffffffff1673ffffffffffffffffffffffffffffffffffffffff166c0100000000000000000000000002815260140184600019166000191681526020018381526020018281526020019450505050506040516020818303038152906040526040518082805190602001908083835b602083101515611db95780518252602082019150602081019050602083039250611d94565b6001836020036101000a03801982511681845116808217855250505050505090500191505060405180910390209050611df483828c88617419565b600460009054906101000a900473ffffffffffffffffffffffffffffffffffffffff1673ffffffffffffffffffffffffffffffffffffffff1663a513cc9c8c6005546040518363ffffffff167c0100000000000000000000000000000000000000000000000000000000028152600401808360001916600019168152602001826000191660001916815260200192505050602060405180830381600087803b158015611e9f57600080fd5b505af1158015611eb3573d6000803e3d6000fd5b505050506040513d6020811015611ec957600080fd5b81019080805190602001909291905050501515611fa457600460009054906101000a900473ffffffffffffffffffffffffffffffffffffffff1673ffffffffffffffffffffffffffffffffffffffff16630c2bb9658c6005546040518363ffffffff167c0100000000000000000000000000000000000000000000000000000000028152600401808360001916600019168152602001826000191660001916815260200192505050600060405180830381600087803b158015611f8b57600080fd5b505af1158015611f9f573d6000803e3d6000fd5b505050505b7fc4b560018ed8fb3fa06e71d06bddd84644e50bfc29f0ddde205755b498a001528b8e6005548d88866040518087600019166000191681526020018673ffffffffffffffffffffffffffffffffffffffff1673ffffffffffffffffffffffffffffffffffffffff16815260200185600019166000191681526020018481526020018381526020018260001916600019168152602001965050505050505060405180910390a160008560040154141561206257612061878d88617612565b5b60006001026000191689600019161415801561207e5750600088115b1561208e5761208d898961675a565b5b50505050505050505050505050565b600260019054906101000a900460ff1681565b6010602052816000526040600020602052806000526040600020600091509150508054600181600116156101000203166002900480601f0160208091040260200160405190810160405280929190818152602001828054600181600116156101000203166002900480156121655780601f1061213a57610100808354040283529160200191612165565b820191906000526020600020905b81548152906001019060200180831161214857829003601f168201915b505050505081565b6002809054906101000a900473ffffffffffffffffffffffffffffffffffffffff168073ffffffffffffffffffffffffffffffffffffffff163373ffffffffffffffffffffffffffffffffffffffff16141515612232576040517f08c379a00000000000000000000000000000000000000000000000000000000081526004018080602001828103825260168152602001807f53656e646572206e6f7420617574686f72697a65642e0000000000000000000081525060200191505060405180910390fd5b6000821115156122aa576040517f08c379a00000000000000000000000000000000000000000000000000000000081526004018080602001828103825260208152602001807f5175616e74697479206d7573742062652067726561746572207468616e20302e81525060200191505060405180910390fd5b8160098190555060095460001415156122d9576000600a60006101000a81548160ff0219169083151502179055505b7f0dffee683881a39928b28151ccdb36b1b55ceeb6fc19567a64fa8f8f483b714d6005546009546040518083600019166000191681526020018281526020019250505060405180910390a15050565b600033604051602001808273ffffffffffffffffffffffffffffffffffffffff1673ffffffffffffffffffffffffffffffffffffffff166c010000000000000000000000000281526014019150506040516020818303038152906040526040518082805190602001908083835b6020831015156123ba5780518252602082019150602081019050602083039250612395565b6001836020036101000a038019825116818451168082178552505050505050905001915050604051809103902090506000600e600083600019166000191681526020019081526020016000205411151561247c576040517f08c379a00000000000000000000000000000000000000000000000000000000081526004018080602001828103825260158152602001807f4e6f2062616c616e636520746f2072656465656d2e000000000000000000000081525060200191505060405180910390fd5b600360009054906101000a900473ffffffffffffffffffffffffffffffffffffffff1673ffffffffffffffffffffffffffffffffffffffff1663a9059cbb33600e60008560001916600019168152602001908152602001600020546040518363ffffffff167c0100000000000000000000000000000000000000000000000000000000028152600401808373ffffffffffffffffffffffffffffffffffffffff1673ffffffffffffffffffffffffffffffffffffffff16815260200182815260200192505050602060405180830381600087803b15801561255c57600080fd5b505af1158015612570573d6000803e3d6000fd5b505050506040513d602081101561258657600080fd5b810190808051906020019092919050505015612621576000600e60008360001916600019168152602001908152602001600020819055507fcb7d87f76b4d6501ac27ed560664bf84ce273a2ddd7b9b1da63c753e68ccae2033604051808273ffffffffffffffffffffffffffffffffffffffff1673ffffffffffffffffffffffffffffffffffffffff16815260200191505060405180910390a15b50565b600460009054906101000a900473ffffffffffffffffffffffffffffffffffffffff1681565b60055481565b600080600080600080600260009054906101000a900460ff16151515612704576040517f08c379a00000000000000000000000000000000000000000000000000000000081526004018080602001828103825260268152602001807f496e69742066756e6374696f6e2063616e206f6e6c792062652063616c6c656481526020017f206f6e63652e000000000000000000000000000000000000000000000000000081525060400191505060405180910390fd5b6001600260006101000a81548160ff0219169083151502179055506020870195508551945060408701955085519350606087019550855192506080870195508551915060a08701955085519050846002806101000a81548173ffffffffffffffffffffffffffffffffffffffff021916908373ffffffffffffffffffffffffffffffffffffffff16021790555083600360006101000a81548173ffffffffffffffffffffffffffffffffffffffff021916908373ffffffffffffffffffffffffffffffffffffffff16021790555082600460006101000a81548173ffffffffffffffffffffffffffffffffffffffff021916908373ffffffffffffffffffffffffffffffffffffffff1602179055508160058160001916905550806009819055506009546000141561284c576001600a60006101000a81548160ff0219169083151502179055505b50505050505050565b60008060009054906101000a900473ffffffffffffffffffffffffffffffffffffffff1673ffffffffffffffffffffffffffffffffffffffff163373ffffffffffffffffffffffffffffffffffffffff161415156128b257600080fd5b816001600082604051602001808273ffffffffffffffffffffffffffffffffffffffff1673ffffffffffffffffffffffffffffffffffffffff166c010000000000000000000000000281526014019150506040516020818303038152906040526040518082805190602001908083835b6020831015156129475780518252602082019150602081019050602083039250612922565b6001836020036101000a03801982511681845116808217855250505050505090500191505060405180910390206000191660001916815260200190815260200160002060009054906101000a900460ff161515612a0c576040517f08c379a00000000000000000000000000000000000000000000000000000000081526004018080602001828103825260208152602001807f4f776e6572207265717565737420686173206e6f74206265656e2073656e742e81525060200191505060405180910390fd5b826000806101000a81548173ffffffffffffffffffffffffffffffffffffffff021916908373ffffffffffffffffffffffffffffffffffffffff16021790555033604051602001808273ffffffffffffffffffffffffffffffffffffffff1673ffffffffffffffffffffffffffffffffffffffff166c010000000000000000000000000281526014019150506040516020818303038152906040526040518082805190602001908083835b602083101515612adc5780518252602082019150602081019050602083039250612ab7565b6001836020036101000a03801982511681845116808217855250505050505090500191505060405180910390209150600060016000846000191660001916815260200190815260200160002060006101000a81548160ff021916908315150217905550505050565b60006002809054906101000a900473ffffffffffffffffffffffffffffffffffffffff168073ffffffffffffffffffffffffffffffffffffffff163373ffffffffffffffffffffffffffffffffffffffff16141515612c0b576040517f08c379a00000000000000000000000000000000000000000000000000000000081526004018080602001828103825260168152602001807f53656e646572206e6f7420617574686f72697a65642e0000000000000000000081525060200191505060405180910390fd5b6007600084815260200190815260200160002060009055600091505b600880549050821015612ce45782600883815481101515612c4457fe5b90600052602060002001541415612cd757600882815481101515612c6457fe5b90600052602060002001600090556008600160088054905003815481101515612c8957fe5b9060005260206000200154600883815481101515612ca357fe5b90600052602060002001819055506008600160088054905003815481101515612cc857fe5b90600052602060002001600090555b8180600101925050612c27565b505050565b6000600d60008360001916600019168152602001908152602001600020600101549050919050565b60008060006002809054906101000a900473ffffffffffffffffffffffffffffffffffffffff168073ffffffffffffffffffffffffffffffffffffffff163373ffffffffffffffffffffffffffffffffffffffff16141515612ddb576040517f08c379a00000000000000000000000000000000000000000000000000000000081526004018080602001828103825260168152602001807f53656e646572206e6f7420617574686f72697a65642e0000000000000000000081525060200191505060405180910390fd5b6000600880549050111515612e7e576040517f08c379a000000000000000000000000000000000000000000000000000000000815260040180806020018281038252602d8152602001807f5072696365206d75737420626520736574207072696f7220746f20736574746981526020017f6e6720726f79616c746965732e0000000000000000000000000000000000000081525060400191505060405180910390fd5b60009350600091505b8551821015612f54578482815181101515612e9e57fe5b906020019060200201518360000160008885815181101515612ebc57fe5b906020019060200201516000191660001916815260200190815260200160002081905550826001018683815181101515612ef257fe5b9060200190602002015190806001815401808255809150509060018203906000526020600020016000909192909190915090600019169055508482815181101515612f3957fe5b90602001906020020151840193508180600101925050612e87565b836103ea0383600201819055508260116001820181600101908054612f7a9291906178f5565b50600282015481600201559050507fd7d444961aaa23d0159247196b6fc382092c135a031aa06dfdc75eb956dd64af60405160405180910390a1505050505050565b600e6020528060005260406000206000915090505481565b600080600f600033604051602001808273ffffffffffffffffffffffffffffffffffffffff1673ffffffffffffffffffffffffffffffffffffffff166c010000000000000000000000000281526014019150506040516020818303038152906040526040518082805190602001908083835b60208310151561306b5780518252602082019150602081019050602083039250613046565b6001836020036101000a03801982511681845116808217855250505050505090500191505060405180910390206000191660001916815260200190815260200160002060030154111515613127576040517f08c379a000000000000000000000000000000000000000000000000000000000815260040180806020018281038252601c8152602001807f436f6e74656e7420776173206e65766572207075726368617365642e0000000081525060200191505060405180910390fd5b33604051602001808273ffffffffffffffffffffffffffffffffffffffff1673ffffffffffffffffffffffffffffffffffffffff166c010000000000000000000000000281526014019150506040516020818303038152906040526040518082805190602001908083835b6020831015156131b75780518252602082019150602081019050602083039250613192565b6001836020036101000a03801982511681845116808217855250505050505090500191505060405180910390209050600f60008260001916600019168152602001908152602001600020600201600084600019166000191681526020019081526020016000206000015482101515156132be576040517f08c379a00000000000000000000000000000000000000000000000000000000081526004018080602001828103825260378152602001807f526573616c65207072696365206d757374206265206174206c6561737420746881526020017f65206d696e696d756d20726573616c652070726963652e00000000000000000081525060400191505060405180910390fd5b81600f6000836000191660001916815260200190815260200160002060020160008560001916600019168152602001908152602001600020600201819055507f0e2912681a5905a8c6a4452da27fc30eb533a3aba5b44cf5a404baeadcdb134760055433846040518084600019166000191681526020018373ffffffffffffffffffffffffffffffffffffffff1673ffffffffffffffffffffffffffffffffffffffff168152602001828152602001935050505060405180910390a1505050565b6002809054906101000a900473ffffffffffffffffffffffffffffffffffffffff168073ffffffffffffffffffffffffffffffffffffffff163373ffffffffffffffffffffffffffffffffffffffff16141515613444576040517f08c379a00000000000000000000000000000000000000000000000000000000081526004018080602001828103825260168152602001807f53656e646572206e6f7420617574686f72697a65642e0000000000000000000081525060200191505060405180910390fd5b6001600260016101000a81548160ff0219169083151502179055507f2db6bfc3c84cfef31473a216848e0a4632093c15ed309ff6b376e6516b58777f60055460405180826000191660001916815260200191505060405180910390a150565b600c5481565b600080600f600033604051602001808273ffffffffffffffffffffffffffffffffffffffff1673ffffffffffffffffffffffffffffffffffffffff166c010000000000000000000000000281526014019150506040516020818303038152906040526040518082805190602001908083835b602083101515613540578051825260208201915060208101905060208303925061351b565b6001836020036101000a038019825116818451168082178552505050505050905001915050604051809103902060001916600019168152602001908152602001600020600301541115156135fc576040517f08c379a000000000000000000000000000000000000000000000000000000000815260040180806020018281038252601c8152602001807f436f6e74656e7420776173206e65766572207075726368617365642e0000000081525060200191505060405180910390fd5b33604051602001808273ffffffffffffffffffffffffffffffffffffffff1673ffffffffffffffffffffffffffffffffffffffff166c010000000000000000000000000281526014019150506040516020818303038152906040526040518082805190602001908083835b60208310151561368c5780518252602082019150602081019050602083039250613667565b6001836020036101000a0380198251168184511680821785525050505050509050019150506040518091039020905081600f60008360001916600019168152602001908152602001600020600201600085600019166000191681526020019081526020016000206003015410151515613793576040517f08c379a000000000000000000000000000000000000000000000000000000000815260040180806020018281038252602e8152602001807f43616e6e6f74206c6f636b206d6f7265207468616e20697320617661696c616281526020017f6c6520666f7220726573616c652e00000000000000000000000000000000000081525060400191505060405180910390fd5b81600f600083600019166000191681526020019081526020016000206002016000856000191660001916815260200190815260200160002060030160008282540392505081905550600f600082600019166000191681526020019081526020016000206002016000846000191660001916815260200190815260200160002060040154600f6000836000191660001916815260200190815260200160002060020160008560001916600019168152602001908152602001600020600301541115151561385b57fe5b7fce3027e9449a5a6879bfbf6898b09a15c2232476d45e2913421cd05d2b4eed1360055433600f6000856000191660001916815260200190815260200160002060020160008760001916600019168152602001908152602001600020600301546040518084600019166000191681526020018373ffffffffffffffffffffffffffffffffffffffff1673ffffffffffffffffffffffffffffffffffffffff168152602001828152602001935050505060405180910390a1505050565b6000600e600083604051602001808273ffffffffffffffffffffffffffffffffffffffff1673ffffffffffffffffffffffffffffffffffffffff166c010000000000000000000000000281526014019150506040516020818303038152906040526040518082805190602001908083835b6020831015156139ad5780518252602082019150602081019050602083039250613988565b6001836020036101000a038019825116818451168082178552505050505050905001915050604051809103902060001916600019168152602001908152602001600020549050919050565b60006001600033604051602001808273ffffffffffffffffffffffffffffffffffffffff1673ffffffffffffffffffffffffffffffffffffffff166c010000000000000000000000000281526014019150506040516020818303038152906040526040518082805190602001908083835b602083101515613a8e5780518252602082019150602081019050602083039250613a69565b6001836020036101000a03801982511681845116808217855250505050505090500191505060405180910390206000191660001916815260200190815260200160002060009054906101000a900460ff16151515613b7a576040517f08c379a00000000000000000000000000000000000000000000000000000000081526004018080602001828103825260218152602001807f4f776e657273686970207265717565737420616c72656164792061637469766581526020017f2e0000000000000000000000000000000000000000000000000000000000000081525060400191505060405180910390fd5b33604051602001808273ffffffffffffffffffffffffffffffffffffffff1673ffffffffffffffffffffffffffffffffffffffff166c010000000000000000000000000281526014019150506040516020818303038152906040526040518082805190602001908083835b602083101515613c0a5780518252602082019150602081019050602083039250613be5565b6001836020036101000a038019825116818451168082178552505050505050905001915050604051809103902090506001806000836000191660001916815260200190815260200160002060006101000a81548160ff0219169083151502179055503373ffffffffffffffffffffffffffffffffffffffff166000809054906101000a900473ffffffffffffffffffffffffffffffffffffffff1673ffffffffffffffffffffffffffffffffffffffff167fd5b906f2d3dfa8cf0ea788d4ad6e99ebd482d6134c3405e1a5faa5da891cda8560405160405180910390a350565b6000806002809054906101000a900473ffffffffffffffffffffffffffffffffffffffff168073ffffffffffffffffffffffffffffffffffffffff163373ffffffffffffffffffffffffffffffffffffffff16141515613db2576040517f08c379a00000000000000000000000000000000000000000000000000000000081526004018080602001828103825260168152602001807f53656e646572206e6f7420617574686f72697a65642e0000000000000000000081525060200191505060405180910390fd5b600660009054906101000a900460ff1680613dca5750835b600660006101000a81548160ff0219169083151502179055508651885111613df3578651613df6565b87515b9250613e0f60006020886177f99092919063ffffffff16565b601060008060ff16815260200190815260200160002060008081526020019081526020016000209080519060200190613e49929190617947565b50613e6160006020876177f99092919063ffffffff16565b60106000600160ff16815260200190815260200160002060008081526020019081526020016000209080519060200190613e9c929190617947565b50600191505b82821015613fd857600188510382111515613f3a57613ee78883815181101515613ec857fe5b90602001906020020151602860ff16886177f99092919063ffffffff16565b601060008060ff16815260200190815260200160002060008a85815181101515613f0d57fe5b9060200190602002015181526020019081526020016000209080519060200190613f38929190617947565b505b600187510382111515613fcb57613f778783815181101515613f5857fe5b90602001906020020151604060ff16876177f99092919063ffffffff16565b60106000600160ff16815260200190815260200160002060008985815181101515613f9e57fe5b9060200190602002015181526020019081526020016000209080519060200190613fc9929190617947565b505b8180600101925050613ea2565b7f9e8a51bb6b34b9d5d18c14fd753ee3bf44e2256512665a4577281ffcc91943ff60055460405180826000191660001916815260200191505060405180910390a15050505050505050565b6002809054906101000a900473ffffffffffffffffffffffffffffffffffffffff168073ffffffffffffffffffffffffffffffffffffffff163373ffffffffffffffffffffffffffffffffffffffff161415156140e8576040517f08c379a00000000000000000000000000000000000000000000000000000000081526004018080602001828103825260168152602001807f53656e646572206e6f7420617574686f72697a65642e0000000000000000000081525060200191505060405180910390fd5b600082111515614186576040517f08c379a000000000000000000000000000000000000000000000000000000000815260040180806020018281038252602c8152602001807f43616e6e6f742072656d6f7665206e6f6e2d706f736974697665206e756d626581526020017f72206f6620636f706965732e000000000000000000000000000000000000000081525060400191505060405180910390fd5b6000600954111515614200576040517f08c379a000000000000000000000000000000000000000000000000000000000815260040180806020018281038252601d8152602001807f43616e6e6f742072656d6f766520616e796d6f726520636f706965732e00000081525060200191505060405180910390fd5b60008260095403101515156142a3576040517f08c379a00000000000000000000000000000000000000000000000000000000081526004018080602001828103825260308152602001807f547279696e6720746f2072656d6f7665206d6f726520636f706965732074686181526020017f6e20616c72656164792065786973742e0000000000000000000000000000000081525060400191505060405180910390fd5b8160096000828254039250508190555060095460001415156142db576000600a60006101000a81548160ff0219169083151502179055505b7f4cd13ad3b8764e3d004158a4e45194b959aa94b93f573e223dc14bff31272d4c60055483600954604051808460001916600019168152602001838152602001828152602001935050505060405180910390a17f0dffee683881a39928b28151ccdb36b1b55ceeb6fc19567a64fa8f8f483b714d6005546009546040518083600019166000191681526020018281526020019250505060405180910390a15050565b60016020528060005260406000206000915054906101000a900460ff1681565b6002809054906101000a900473ffffffffffffffffffffffffffffffffffffffff168073ffffffffffffffffffffffffffffffffffffffff163373ffffffffffffffffffffffffffffffffffffffff16141515614462576040517f08c379a00000000000000000000000000000000000000000000000000000000081526004018080602001828103825260168152602001807f53656e646572206e6f7420617574686f72697a65642e0000000000000000000081525060200191505060405180910390fd5b81600c819055507f9f274eefea84ac29e2f56b92eafc8045314ec62bf45e12c57b3f80017ea6245e600554600c546040518083600019166000191681526020018281526020019250505060405180910390a15050565b6002809054906101000a900473ffffffffffffffffffffffffffffffffffffffff168073ffffffffffffffffffffffffffffffffffffffff163373ffffffffffffffffffffffffffffffffffffffff1614151561457d576040517f08c379a00000000000000000000000000000000000000000000000000000000081526004018080602001828103825260168152602001807f53656e646572206e6f7420617574686f72697a65642e0000000000000000000081525060200191505060405180910390fd5b6000600660006101000a81548160ff0219169083151502179055507f2e6ec049d62c8a42e7cc223354aadb68d5046a2cba67ed55a089fdb852fb6cb660055460405180826000191660001916815260200191505060405180910390a150565b60008060008060008060008060006145f26179c7565b600660009054906101000a900460ff16151561469c576040517f08c379a00000000000000000000000000000000000000000000000000000000081526004018080602001828103825260218152602001807f41465320686173206e6f74206265656e206c697374656420666f722073616c6581526020017f2e0000000000000000000000000000000000000000000000000000000000000081525060400191505060405180910390fd5b60006009541415806146ba5750600a60009054906101000a900460ff165b1515614754576040517f08c379a00000000000000000000000000000000000000000000000000000000081526004018080602001828103825260268152602001807f4e6f206d6f726520636f7069657320617661696c61626c6520666f722070757281526020017f63686173652e000000000000000000000000000000000000000000000000000081525060400191505060405180910390fd5b60008d1115156147cc576040517f08c379a000000000000000000000000000000000000000000000000000000000815260040180806020018281038252601e8152602001807f4d757374207075726368617365206174206c65617374203120636f70792e000081525060200191505060405180910390fd5b8c6009541015806147e95750600a60009054906101000a900460ff165b1515614883576040517f08c379a000000000000000000000000000000000000000000000000000000000815260040180806020018281038252602f8152602001807f43616e6e6f74207075726368617365206d6f726520636f70696573207468616e81526020017f2061726520617661696c61626c652e000000000000000000000000000000000081525060400191505060405180910390fd5b600360009054906101000a900473ffffffffffffffffffffffffffffffffffffffff1673ffffffffffffffffffffffffffffffffffffffff1663dd62ed3e33306040518363ffffffff167c0100000000000000000000000000000000000000000000000000000000028152600401808373ffffffffffffffffffffffffffffffffffffffff1673ffffffffffffffffffffffffffffffffffffffff1681526020018273ffffffffffffffffffffffffffffffffffffffff1673ffffffffffffffffffffffffffffffffffffffff16815260200192505050602060405180830381600087803b15801561497457600080fd5b505af1158015614988573d6000803e3d6000fd5b505050506040513d602081101561499e57600080fd5b8101908080519060200190929190505050995033604051602001808273ffffffffffffffffffffffffffffffffffffffff1673ffffffffffffffffffffffffffffffffffffffff166c010000000000000000000000000281526014019150506040516020818303038152906040526040518082805190602001908083835b602083101515614a415780518252602082019150602081019050602083039250614a1c565b6001836020036101000a03801982511681845116808217855250505050505090500191505060405180910390209850614a798d61627e565b8d0297508a88018a10151515614b1d576040517f08c379a00000000000000000000000000000000000000000000000000000000081526004018080602001828103825260248152602001807f50726f7879206d75737420626520617070726f76656420666f7220707572636881526020017f6173652e0000000000000000000000000000000000000000000000000000000081525060400191505060405180910390fd5b60006011600101805490501415614cfc57600360009054906101000a900473ffffffffffffffffffffffffffffffffffffffff1673ffffffffffffffffffffffffffffffffffffffff166323b872dd336002809054906101000a900473ffffffffffffffffffffffffffffffffffffffff168b6040518463ffffffff167c0100000000000000000000000000000000000000000000000000000000028152600401808473ffffffffffffffffffffffffffffffffffffffff1673ffffffffffffffffffffffffffffffffffffffff1681526020018373ffffffffffffffffffffffffffffffffffffffff1673ffffffffffffffffffffffffffffffffffffffff1681526020018281526020019350505050602060405180830381600087803b158015614c4857600080fd5b505af1158015614c5c573d6000803e3d6000fd5b505050506040513d6020811015614c7257600080fd5b81019080805190602001909291905050501515614cf7576040517f08c379a00000000000000000000000000000000000000000000000000000000081526004018080602001828103825260148152602001807f417261207472616e73666572206661696c65642e00000000000000000000000081525060200191505060405180910390fd5b614f10565b600094505b601160010180549050851015614dfe57601160010185815481101515614d2357fe5b90600052602060002001549850601160000160008a6000191660001916815260200190815260200160002054935086849080600181540180825580915050906001820390600052602060002001600090919290919091505550836103ea811515614d8957fe5b06846103ea811515614d9757fe5b0401880292508583908060018154018082558091505090600182039060005260206000200160009091929091909150555082600e60008b60001916600019168152602001908152602001600020600082825401925050819055508480600101955050614d01565b7f8960742ff4b50f409d4cb70df43e24adcf4867f6faa138a995a8f05ea6bac61d6011600101888a89604051808060200180602001858152602001806020018481038452888181548152602001915080548015614e7e57602002820191906000526020600020905b81546000191681526020019060010190808311614e66575b50508481038352878181548152602001915080548015614ebd57602002820191906000526020600020905b815481526020019060010190808311614ea9575b50508481038252858181548152602001915080548015614efc57602002820191906000526020600020905b815481526020019060010190808311614ee8575b505097505050505050505060405180910390a15b60006001029150600260019054906101000a900460ff1615615196573360055442600f60008d6000191660001916815260200190815260200160002060000180549050604051602001808573ffffffffffffffffffffffffffffffffffffffff1673ffffffffffffffffffffffffffffffffffffffff166c0100000000000000000000000002815260140184600019166000191681526020018381526020018281526020019450505050506040516020818303038152906040526040518082805190602001908083835b602083101515614fff5780518252602082019150602081019050602083039250614fda565b6001836020036101000a03801982511681845116808217855250505050505090500191505060405180910390209150600b54816000018181525050600c54816020018181525050600b548160400181815250508c816080018181525050600f60008a6000191660001916815260200190815260200160002060000180549050600f60008b600019166000191681526020019081526020016000206001016000846000191660001916815260200190815260200160002081905550600f60008a6000191660001916815260200190815260200160002060000182908060018154018082558091505090600182039060005260206000200160009091929091909150906000191690555080600f60008b6000191660001916815260200190815260200160002060020160008460001916600019168152602001908152602001600020600082015181600001556020820151816001015560408201518160020155606082015181600301556080820151816004015560a082015181600501908051906020019061518d9291906179fe565b509050506151c3565b8c600f60008b60001916600019168152602001908152602001600020600301600082825401925050819055505b600060095411156151f3578c600960008282540392505081905550600060095414156151f2576151f16144b8565b5b5b600460009054906101000a900473ffffffffffffffffffffffffffffffffffffffff1673ffffffffffffffffffffffffffffffffffffffff1663a513cc9c8f6005546040518363ffffffff167c0100000000000000000000000000000000000000000000000000000000028152600401808360001916600019168152602001826000191660001916815260200192505050602060405180830381600087803b15801561529e57600080fd5b505af11580156152b2573d6000803e3d6000fd5b505050506040513d60208110156152c857600080fd5b810190808051906020019092919050505015156153a357600460009054906101000a900473ffffffffffffffffffffffffffffffffffffffff1673ffffffffffffffffffffffffffffffffffffffff16630c2bb9658f6005546040518363ffffffff167c0100000000000000000000000000000000000000000000000000000000028152600401808360001916600019168152602001826000191660001916815260200192505050600060405180830381600087803b15801561538a57600080fd5b505af115801561539e573d6000803e3d6000fd5b505050505b7f57432a47044629ef90b5f8719164861d0fce61f2df6b80862c4a378539fd4a938e6005548f8b86604051808660001916600019168152602001856000191660001916815260200184815260200183815260200182600019166000191681526020019550505050505060405180910390a16000600102600019168c6000191614158015615430575060008b115b156154405761543f8c8c61675a565b5b5050505050505050505050505050565b6002809054906101000a900473ffffffffffffffffffffffffffffffffffffffff168073ffffffffffffffffffffffffffffffffffffffff163373ffffffffffffffffffffffffffffffffffffffff16141515615515576040517f08c379a00000000000000000000000000000000000000000000000000000000081526004018080602001828103825260168152602001807f53656e646572206e6f7420617574686f72697a65642e0000000000000000000081525060200191505060405180910390fd5b60008211151561558d576040517f08c379a00000000000000000000000000000000000000000000000000000000081526004018080602001828103825260208152602001807f5175616e74697479206d7573742062652067726561746572207468616e20302e81525060200191505060405180910390fd5b8160096000828254019250508190555060095460001415156155c5576000600a60006101000a81548160ff0219169083151502179055505b7f01f766e4bea8b3ee08c4feeab8b2e146c8e45895c093fd9bd54b3690d449e68060055483600954604051808460001916600019168152602001838152602001828152602001935050505060405180910390a17f0dffee683881a39928b28151ccdb36b1b55ceeb6fc19567a64fa8f8f483b714d6005546009546040518083600019166000191681526020018281526020019250505060405180910390a15050565b6060600660009054906101000a900460ff161515615697576020604051908101604052806000815250905061575d565b601060008460ff1660ff16815260200190815260200160002060008381526020019081526020016000208054600181600116156101000203166002900480601f0160208091040260200160405190810160405280929190818152602001828054600181600116156101000203166002900480156157555780601f1061572a57610100808354040283529160200191615755565b820191906000526020600020905b81548152906001019060200180831161573857829003601f168201915b505050505090505b92915050565b600a60009054906101000a900460ff1681565b600080600080863373ffffffffffffffffffffffffffffffffffffffff16600d6000836000191660001916815260200190815260200160002060000160009054906101000a900473ffffffffffffffffffffffffffffffffffffffff1673ffffffffffffffffffffffffffffffffffffffff1614801561581457506000600d6000836000191660001916815260200190815260200160002060010154115b1515615888576040517f08c379a000000000000000000000000000000000000000000000000000000000815260040180806020018281038252600f8152602001807f4a6f6220697320696e76616c69642e000000000000000000000000000000000081525060200191505060405180910390fd5b85518751141515615927576040517f08c379a00000000000000000000000000000000000000000000000000000000081526004018080602001828103825260268152602001807f556e657175616c206e756d626572206f66206661726d65727320616e6420726581526020017f77617264732e000000000000000000000000000000000000000000000000000081525060400191505060405180910390fd5b600093505b85518460ff16101561596457858460ff1681518110151561594957fe5b9060200190602002015185019450838060010194505061592c565b600d600089600019166000191681526020019081526020016000206001015485111515156159fa576040517f08c379a00000000000000000000000000000000000000000000000000000000081526004018080602001828103825260148152602001807f496e73756666696369656e74206275646765742e00000000000000000000000081525060200191505060405180910390fd5b600092505b86518360ff161015615af657858360ff16815181101515615a1c57fe5b90602001906020020151600d60008a600019166000191681526020019081526020016000206001015410151515615a4f57fe5b858360ff16815181101515615a6057fe5b90602001906020020151600e6000898660ff16815181101515615a7f57fe5b906020019060200201516000191660001916815260200190815260200160002081905550858360ff16815181101515615ab457fe5b90602001906020020151600d60008a600019166000191681526020019081526020016000206001016000828254039250508190555082806001019350506159ff565b600d600089600019166000191681526020019081526020016000206001015491506000821115615c295781600e600033604051602001808273ffffffffffffffffffffffffffffffffffffffff1673ffffffffffffffffffffffffffffffffffffffff166c010000000000000000000000000281526014019150506040516020818303038152906040526040518082805190602001908083835b602083101515615bb55780518252602082019150602081019050602083039250615b90565b6001836020036101000a038019825116818451168082178552505050505050905001915050604051809103902060001916600019168152602001908152602001600020819055506000600d60008a6000191660001916815260200190815260200160002060010181905550615c28612328565b5b7f2bd45e0776b585a6e4ce4cc376082ac45c657ad116f95f80480b6343678354e86005548684604051808460001916600019168152602001838152602001828152602001935050505060405180910390a15050505050505050565b600080600f600033604051602001808273ffffffffffffffffffffffffffffffffffffffff1673ffffffffffffffffffffffffffffffffffffffff166c010000000000000000000000000281526014019150506040516020818303038152906040526040518082805190602001908083835b602083101515615d1b5780518252602082019150602081019050602083039250615cf6565b6001836020036101000a03801982511681845116808217855250505050505090500191505060405180910390206000191660001916815260200190815260200160002060030154111515615dd7576040517f08c379a000000000000000000000000000000000000000000000000000000000815260040180806020018281038252601c8152602001807f436f6e74656e7420776173206e65766572207075726368617365642e0000000081525060200191505060405180910390fd5b33604051602001808273ffffffffffffffffffffffffffffffffffffffff1673ffffffffffffffffffffffffffffffffffffffff166c010000000000000000000000000281526014019150506040516020818303038152906040526040518082805190602001908083835b602083101515615e675780518252602082019150602081019050602083039250615e42565b6001836020036101000a03801982511681845116808217855250505050505090500191505060405180910390209050600f600082600019166000191681526020019081526020016000206002016000846000191660001916815260200190815260200160002060040154600f600083600019166000191681526020019081526020016000206002016000856000191660001916815260200190815260200160002060030154830111151515615faa576040517f08c379a00000000000000000000000000000000000000000000000000000000081526004018080602001828103825260298152602001807f43616e6e6f7420756e6c6f636b206d6f726520666f7220726573616c6520746881526020017f616e206f776e65642e000000000000000000000000000000000000000000000081525060400191505060405180910390fd5b81600f600083600019166000191681526020019081526020016000206002016000856000191660001916815260200190815260200160002060030160008282540192505081905550600f600082600019166000191681526020019081526020016000206002016000846000191660001916815260200190815260200160002060040154600f6000836000191660001916815260200190815260200160002060020160008560001916600019168152602001908152602001600020600301541115151561607257fe5b7fe78857a26a7fe475546465ff27735fabea42cc1dc6fb9284b146bd4d01f9244460055433600f6000856000191660001916815260200190815260200160002060020160008760001916600019168152602001908152602001600020600301546040518084600019166000191681526020018373ffffffffffffffffffffffffffffffffffffffff1673ffffffffffffffffffffffffffffffffffffffff168152602001828152602001935050505060405180910390a1505050565b600360009054906101000a900473ffffffffffffffffffffffffffffffffffffffff1681565b60095481565b6002809054906101000a900473ffffffffffffffffffffffffffffffffffffffff168073ffffffffffffffffffffffffffffffffffffffff163373ffffffffffffffffffffffffffffffffffffffff1614151561621f576040517f08c379a00000000000000000000000000000000000000000000000000000000081526004018080602001828103825260168152602001807f53656e646572206e6f7420617574686f72697a65642e0000000000000000000081525060200191505060405180910390fd5b6000600260016101000a81548160ff0219169083151502179055507ff293814c7c482e7a7e5481b80723176aea019590a1994ee0070b10836beeca8b60055460405180826000191660001916815260200191505060405180910390a150565b60008060008090505b60088054905081101561633f57836008828154811015156162a457fe5b906000526020600020015414156162d05760076000858152602001908152602001600020549250616356565b836008828154811015156162e057fe5b906000526020600020015410801561631057508160088281548110151561630357fe5b9060005260206000200154115b156163325760088181548110151561632457fe5b906000526020600020015491505b8080600101915050616287565b600760008381526020019081526020016000205492505b5050919050565b6002809054906101000a900473ffffffffffffffffffffffffffffffffffffffff1681565b60076020528060005260406000206000915090505481565b600061647182601060008760ff1660ff16815260200190815260200160002060008681526020019081526020016000208054600181600116156101000203166002900480601f01602080910402602001604051908101604052809291908181526020018280546001816001161561010002031660029004801561645e5780601f106164335761010080835404028352916020019161645e565b820191906000526020600020905b81548152906001019060200180831161644157829003601f168201915b505050505061788690919063ffffffff16565b90509392505050565b6000806002809054906101000a900473ffffffffffffffffffffffffffffffffffffffff168073ffffffffffffffffffffffffffffffffffffffff163373ffffffffffffffffffffffffffffffffffffffff16141515616542576040517f08c379a00000000000000000000000000000000000000000000000000000000081526004018080602001828103825260168152602001807f53656e646572206e6f7420617574686f72697a65642e0000000000000000000081525060200191505060405180910390fd5b600660009054906101000a900460ff168061655a5750835b600660006101000a81548160ff021916908315150217905550898990508c8c905011616589578989905061658e565b8b8b90505b9250600091505b8282101561670b5760018c8c9050038211151561664d576165fd602860ff168302602860ff168a8a8080601f0160208091040260200160405190810160405280939291908181526020018383808284378201915050505050506177f99092919063ffffffff16565b601060008060ff16815260200190815260200160002060008e8e86818110151561662357fe5b905060200201358152602001908152602001600020908051906020019061664b929190617947565b505b60018a8a905003821115156166fe576166ad604060ff168302604060ff1688888080601f0160208091040260200160405190810160405280939291908181526020018383808284378201915050505050506177f99092919063ffffffff16565b60106000600160ff16815260200190815260200160002060008c8c8681811015156166d457fe5b90506020020135815260200190815260200160002090805190602001906166fc929190617947565b505b8180600101925050616595565b7f9e8a51bb6b34b9d5d18c14fd753ee3bf44e2256512665a4577281ffcc91943ff60055460405180826000191660001916815260200191505060405180910390a1505050505050505050505050565b600080600f600033604051602001808273ffffffffffffffffffffffffffffffffffffffff1673ffffffffffffffffffffffffffffffffffffffff166c010000000000000000000000000281526014019150506040516020818303038152906040526040518082805190602001908083835b6020831015156167f157805182526020820191506020810190506020830392506167cc565b6001836020036101000a038019825116818451168082178552505050505050905001915050604051809103902060001916600019168152602001908152602001600020600301541115156168ad576040517f08c379a000000000000000000000000000000000000000000000000000000000815260040180806020018281038252601c8152602001807f436f6e74656e7420776173206e65766572207075726368617365642e0000000081525060200191505060405180910390fd5b600360009054906101000a900473ffffffffffffffffffffffffffffffffffffffff1673ffffffffffffffffffffffffffffffffffffffff1663dd62ed3e33306040518363ffffffff167c0100000000000000000000000000000000000000000000000000000000028152600401808373ffffffffffffffffffffffffffffffffffffffff1673ffffffffffffffffffffffffffffffffffffffff1681526020018273ffffffffffffffffffffffffffffffffffffffff1673ffffffffffffffffffffffffffffffffffffffff16815260200192505050602060405180830381600087803b15801561699e57600080fd5b505af11580156169b2573d6000803e3d6000fd5b505050506040513d60208110156169c857600080fd5b810190808051906020019092919050505090506000600102600019168360001916141580156169f75750600082115b8015616a035750818110155b8015616aed5750600073ffffffffffffffffffffffffffffffffffffffff16600d6000856000191660001916815260200190815260200160002060000160009054906101000a900473ffffffffffffffffffffffffffffffffffffffff1673ffffffffffffffffffffffffffffffffffffffff161480616aec57503373ffffffffffffffffffffffffffffffffffffffff16600d6000856000191660001916815260200190815260200160002060000160009054906101000a900473ffffffffffffffffffffffffffffffffffffffff1673ffffffffffffffffffffffffffffffffffffffff16145b5b1515616b61576040517f08c379a00000000000000000000000000000000000000000000000000000000081526004018080602001828103825260178152602001807f4a6f62207375626d697373696f6e20696e76616c69642e00000000000000000081525060200191505060405180910390fd5b600360009054906101000a900473ffffffffffffffffffffffffffffffffffffffff1673ffffffffffffffffffffffffffffffffffffffff166323b872dd3330856040518463ffffffff167c0100000000000000000000000000000000000000000000000000000000028152600401808473ffffffffffffffffffffffffffffffffffffffff1673ffffffffffffffffffffffffffffffffffffffff1681526020018373ffffffffffffffffffffffffffffffffffffffff1673ffffffffffffffffffffffffffffffffffffffff1681526020018281526020019350505050602060405180830381600087803b158015616c5a57600080fd5b505af1158015616c6e573d6000803e3d6000fd5b505050506040513d6020811015616c8457600080fd5b810190808051906020019092919050505015616e9e5781600d600085600019166000191681526020019081526020016000206001016000828254019250508190555033600d6000856000191660001916815260200190815260200160002060000160006101000a81548173ffffffffffffffffffffffffffffffffffffffff021916908373ffffffffffffffffffffffffffffffffffffffff160217905550600360009054906101000a900473ffffffffffffffffffffffffffffffffffffffff1673ffffffffffffffffffffffffffffffffffffffff166370a08231306040518263ffffffff167c0100000000000000000000000000000000000000000000000000000000028152600401808273ffffffffffffffffffffffffffffffffffffffff1673ffffffffffffffffffffffffffffffffffffffff168152602001915050602060405180830381600087803b158015616de057600080fd5b505af1158015616df4573d6000803e3d6000fd5b505050506040513d6020811015616e0a57600080fd5b8101908080519060200190929190505050600d600085600019166000191681526020019081526020016000206001015411151515616e4457fe5b7f4521c984beed01d188bcc3bd297e6530cd217723b880fa43c70fbcbd664fb2ac60055484846040518084600019166000191681526020018360001916600019168152602001828152602001935050505060405180910390a15b505050565b6002809054906101000a900473ffffffffffffffffffffffffffffffffffffffff168073ffffffffffffffffffffffffffffffffffffffff163373ffffffffffffffffffffffffffffffffffffffff16141515616f68576040517f08c379a00000000000000000000000000000000000000000000000000000000081526004018080602001828103825260168152602001807f53656e646572206e6f7420617574686f72697a65642e0000000000000000000081525060200191505060405180910390fd5b81600b819055507fdca0c456563bef627a1630910a55d7f7dbc34e6436eff2d7a6b04d5b1c76192a600554836040518083600019166000191681526020018281526020019250505060405180910390a15050565b6002809054906101000a900473ffffffffffffffffffffffffffffffffffffffff168073ffffffffffffffffffffffffffffffffffffffff163373ffffffffffffffffffffffffffffffffffffffff16141515617081576040517f08c379a00000000000000000000000000000000000000000000000000000000081526004018080602001828103825260168152602001807f53656e646572206e6f7420617574686f72697a65642e0000000000000000000081525060200191505060405180910390fd5b6000600760008581526020019081526020016000205414156170ca5760088390806001815401808255809150509060018203906000526020600020016000909192909190915055505b8160076000858152602001908152602001600020819055507f2f0fe01aa6daff1c7bb411a324bdebe55dc2cd1e0ff2fc504b7569346e7d7d5a600554846007600087815260200190815260200160002054604051808460001916600019168152602001838152602001828152602001935050505060405180910390a1505050565b6000336001600082604051602001808273ffffffffffffffffffffffffffffffffffffffff1673ffffffffffffffffffffffffffffffffffffffff166c010000000000000000000000000281526014019150506040516020818303038152906040526040518082805190602001908083835b6020831015156171e257805182526020820191506020810190506020830392506171bd565b6001836020036101000a03801982511681845116808217855250505050505090500191505060405180910390206000191660001916815260200190815260200160002060009054906101000a900460ff1615156172a7576040517f08c379a00000000000000000000000000000000000000000000000000000000081526004018080602001828103825260208152602001807f4f776e6572207265717565737420686173206e6f74206265656e2073656e742e81525060200191505060405180910390fd5b33604051602001808273ffffffffffffffffffffffffffffffffffffffff1673ffffffffffffffffffffffffffffffffffffffff166c010000000000000000000000000281526014019150506040516020818303038152906040526040518082805190602001908083835b6020831015156173375780518252602082019150602081019050602083039250617312565b6001836020036101000a03801982511681845116808217855250505050505090500191505060405180910390209150600060016000846000191660001916815260200190815260200160002060006101000a81548160ff0219169083151502179055503373ffffffffffffffffffffffffffffffffffffffff166000809054906101000a900473ffffffffffffffffffffffffffffffffffffffff1673ffffffffffffffffffffffffffffffffffffffff167f1dc90b1ce875ea53ce4f7fb2036478f4ddfef57ec243f3fb5a9d81faf7dac5f460405160405180910390a35050565b6174216179c7565b600080600084600001548460000181815250508460010154846020018181525050846000015484604001818152505085846080018181525050600f600089600019166000191681526020019081526020016000209250600f600089600019166000191681526020019081526020016000206000018054905083600101600089600019166000191681526020019081526020016000208190555082600001879080600181540180825580915050906001820390600052602060002001600090919290919091509060001916905550838360020160008960001916600019168152602001908152602001600020600082015181600001556020820151816001015560408201518160020155606082015181600301556080820151816004015560a082015181600501908051906020019061755a9291906179fe565b50905050600090505b85811015617608578460040154810191508260020160008860001916600019168152602001908152602001600020600501600186600501848154811015156175a757fe5b906000526020600020015401908060018154018082558091505090600182039060005260206000200160009091929091909150555084600501828154811015156175ed57fe5b90600052602060002001600090558080600101915050617563565b5050505050505050565b60008160020160008460001916600019168152602001908152602001600020600080820160009055600182016000905560028201600090556003820160009055600482016000905560058201600061766a9190617a4b565b505081600101600084600019166000191681526020019081526020016000205490508160010160008460001916600019168152602001908152602001600020600090558160000160018360000180549050038154811015156176c857fe5b906000526020600020015482600001828154811015156176e457fe5b90600052602060002001816000191690555081600001600183600001805490500381548110151561771157fe5b90600052602060002001600090556000826000018054905014156177f357600460009054906101000a900473ffffffffffffffffffffffffffffffffffffffff1673ffffffffffffffffffffffffffffffffffffffff166387e52772856005546040518363ffffffff167c0100000000000000000000000000000000000000000000000000000000028152600401808360001916600019168152602001826000191660001916815260200192505050600060405180830381600087803b1580156177da57600080fd5b505af11580156177ee573d6000803e3d6000fd5b505050505b50505050565b60608082840185511015151561780e57600080fd5b8215600081146178295760405191506020820160405261787a565b6040519150601f8416801560200281840101858101878315602002848b0101015b81831015617867578051835260208301925060208101905061784a565b50868552601f19601f8301166040525050505b50809150509392505050565b60008060019050835183518114600181146178a457600092506178e9565b600160208701838101602088015b6002848385100114156178e457805183511415156178d35760009650600093505b6020830192506020810190506178b2565b505050505b50508091505092915050565b8280548282559060005260206000209081019282156179365760005260206000209182015b8281111561793557825482559160010191906001019061791a565b5b5090506179439190617a6c565b5090565b828054600181600116156101000203166002900490600052602060002090601f016020900481019282601f1061798857805160ff19168380011785556179b6565b828001600101855582156179b6579182015b828111156179b557825182559160200191906001019061799a565b5b5090506179c39190617a91565b5090565b60c0604051908101604052806000815260200160008152602001600081526020016000815260200160008152602001606081525090565b828054828255906000526020600020908101928215617a3a579160200282015b82811115617a39578251825591602001919060010190617a1e565b5b509050617a479190617a91565b5090565b5080546000825590600052602060002090810190617a699190617a91565b50565b617a8e91905b80821115617a8a576000816000905550600101617a72565b5090565b90565b617ab391905b80821115617aaf576000816000905550600101617a97565b5090565b905600a165627a7a72305820a83cf122c1d20b4fae54728819d8cc3a3d481144a490c7e0c96d7ad177bfb8d30029",
  "source": "pragma solidity ^0.4.24;\n\nimport \"./Ownable.sol\";\nimport \"./Library.sol\";\nimport \"./AraToken.sol\";\nimport \"bytes/BytesLib.sol\";\n\ncontract AFS is Ownable {\n  using BytesLib for bytes;\n\n  uint8 constant mtBufferSize_ = 40;\n  uint8 constant msBufferSize_ = 64;\n\n  bool      private once_;\n  bool      public resellable_;\n\n  address   public owner_;\n\n  AraToken  public token_;\n  Library   public lib_;\n\n  bytes32   public did_;\n  bool      public listed_;\n  mapping(uint256 => uint256) public prices_; // quantity (lower bound) => price\n  uint256[] public priceTiers_; // quantity tiers\n\n  uint256   public totalCopies_; // scarcity quantity; -1 for unlimited copies\n  bool      public unlimited_ = false;\n\n  uint256   public minResalePrice_;\n  uint256   public maxNumResales_; // < maxNumResales_ can be resold\n\n  mapping(bytes32 => Job)                      public jobs_; // jobId => job { budget, sender }\n  mapping(bytes32 => uint256)                  public rewards_;    // farmer => rewards\n  mapping(bytes32 => Purchases)                public purchases_; // keccak256 hashes of buyer addresses\n  mapping(uint8 => mapping (uint256 => bytes)) public metadata_;\n\n  Royalties royalties_;\n\n  struct Job {\n    address sender;\n    uint256 budget;\n  }\n\n  struct ResaleConfig {\n    // purchase-time config\n    uint256 minResalePrice;\n    uint256 maxNumResales;\n\n    // reseller set config\n    uint256 resalePrice;\n    uint256 available;\n    uint256 quantity;\n    uint256[] resales; // total quantity owned => number of previous resales -- 0 indexed\n  }\n\n  struct Purchases {\n    bytes32[] configIDs;\n    mapping(bytes32 => uint256) configIDIndices; // configID => configIDs index\n    mapping(bytes32 => ResaleConfig) configs; // configID => ResaleConfig\n\n    uint256 quantity; // of non-resellable purchases independent of configs\n  }\n\n  struct Royalties {\n    mapping(bytes32 => uint256) split;\n    bytes32[] hashedAddresses;\n    uint256 ownerProfit;\n  }\n\n  // constants\n  uint256 public constant royaltyMultiplier = 100 * 10^2;\n\n  event Commit(bytes32 _did);\n  event Unlisted(bytes32 _did);\n  event Listed(bytes32 _did);\n  event MinResalePriceSet(bytes32 _did, uint256 _price);\n  event ResalePriceSet(bytes32 _did, address _purchaser, uint256 _price);\n  event MaxNumResalesSet(bytes32 _did, uint256 _quantity);\n  event PriceSet(bytes32 _did, uint256 _quantity, uint256 _price);\n  event BudgetSubmitted(bytes32 _did, bytes32 _jobId, uint256 _budget);\n  event RewardsAllocated(bytes32 _did, uint256 _allocated, uint256 _returned);\n  event Purchased(bytes32 _purchaser, bytes32 _did, uint256 _quantity, uint256 _price, bytes32 _configID);\n  event PurchasedResale(bytes32 _purchaser, address _seller, bytes32 _did, uint256 _quantity, uint256 _price, bytes32 _configID);\n  event Redeemed(address _sender);\n  event IncreasedSupply(bytes32 _did, uint256 _added, uint256 _total);\n  event DecreasedSupply(bytes32 _did, uint256 _removed, uint256 _total);\n  event SupplySet(bytes32 _did, uint256 _quantity);\n  event ResaleUnlocked(bytes32 _did, address _seller, uint256 _available);\n  event ResaleLocked(bytes32 _did, address _seller, uint256 _available);\n  event MarkedForResale(bytes32 _did);\n  event MarkedNotForResale(bytes32 _did);\n  event ResaleUnlocked(bytes32 _did);\n  event ResaleLocked(bytes32 _did);\n  event RoyaltiesUpdated();\n  event RoyaltiesPaidOut(bytes32[] _hashedAddresses, uint256[] _amounts, uint256 _price, uint256[] _profits);\n\n  modifier onlyBy(address _account)\n  {\n    require(\n      msg.sender == _account,\n      \"Sender not authorized.\"\n    );\n    _;\n  }\n\n  modifier purchaseRequired()\n  {\n    require(\n      purchases_[keccak256(abi.encodePacked(msg.sender))].quantity > 0,\n      \"Content was never purchased.\"\n    );\n    _;\n  }\n\n  modifier budgetSubmitted(bytes32 _jobId)\n  {\n    require(\n      jobs_[_jobId].sender == msg.sender && jobs_[_jobId].budget > 0,\n      \"Job is invalid.\"\n    );\n    _;\n  }\n\n  modifier onlyOnce()\n  {\n    require(!once_, \"Init function can only be called once.\");\n    _;\n  }\n\n  function init(bytes _data) public onlyOnce {\n    once_ = true;\n    uint256 btsptr;\n    address ownerAddr;\n    address tokenAddr;\n    address libAddr;\n    bytes32 did;\n    uint256 totalCopies;\n    /* solium-disable-next-line security/no-inline-assembly */\n    assembly {\n        btsptr := add(_data, 32)\n        ownerAddr := mload(btsptr)\n        btsptr := add(_data, 64)\n        tokenAddr := mload(btsptr)\n        btsptr := add(_data, 96)\n        libAddr := mload(btsptr)\n        btsptr := add(_data, 128)\n        did := mload(btsptr)\n        btsptr := add(_data, 160)\n        totalCopies := mload(btsptr)\n    }\n    owner_       = ownerAddr;\n    token_       = AraToken(tokenAddr);\n    lib_         = Library(libAddr);\n    did_         = did;\n    totalCopies_ = totalCopies;\n    if (0 == totalCopies_) {\n      unlimited_ = true;\n    }\n  }\n\n/**\n * CREATOR COMMERCE\n * ===============================================================================================\n */\n\n  function list() public onlyBy(owner_) {\n    listed_ = true;\n    emit Listed(did_);\n  }\n\n  function unlist() public onlyBy(owner_) {\n    listed_ = false;\n    emit Unlisted(did_);\n  }\n\n  function unlockResale() public onlyBy(owner_) {\n    resellable_ = true;\n    emit ResaleUnlocked(did_);\n  }\n\n  function lockResale() public onlyBy(owner_) {\n    resellable_ = false;\n    emit ResaleLocked(did_);\n  }\n\n  function setPrice(uint256 _quantity, uint256 _price) external onlyBy(owner_) {\n    if (prices_[_quantity] == 0) {\n      priceTiers_.push(_quantity);\n    }\n    prices_[_quantity] = _price;\n    emit PriceSet(did_, _quantity, prices_[_quantity]);\n  }\n\n  function getPrice(uint256 _quantity) public view returns (uint256) {\n    uint256 tier;\n    for (uint256 i = 0; i < priceTiers_.length; i++) {\n      if (priceTiers_[i] == _quantity) {\n        return prices_[_quantity];\n      } else if (priceTiers_[i] < _quantity && priceTiers_[i] > tier) {\n        tier = priceTiers_[i];\n      }\n    }\n    return prices_[tier];\n  }\n\n  function removePriceTier(uint256 _quantity) external onlyBy(owner_) {\n    delete prices_[_quantity];\n    for (uint256 i = 0; i < priceTiers_.length; i++) {\n      if (priceTiers_[i] == _quantity) {\n        delete priceTiers_[i]; // delete price tier\n        priceTiers_[i] = priceTiers_[priceTiers_.length - 1]; // move last price tier into deleted tier position\n        delete priceTiers_[priceTiers_.length - 1]; // delete last price tier\n      }\n    }\n  }\n\n  function setMinResalePrice(uint256 _price) external onlyBy(owner_) {\n    minResalePrice_ = _price;\n    emit MinResalePriceSet(did_, _price);\n  }\n\n  function setResaleQuantity(uint256 _quantity) external onlyBy(owner_) {\n    maxNumResales_ = _quantity;\n    emit MaxNumResalesSet(did_, maxNumResales_);\n  }\n\n  function setSupply(uint256 _quantity) public onlyBy(owner_) {\n    require(_quantity > 0, \"Quantity must be greater than 0.\");\n\n    totalCopies_ = _quantity;\n    if (0 != totalCopies_) {\n      unlimited_ = false;\n    }\n\n    emit SupplySet(did_, totalCopies_);\n  }\n\n  function increaseSupply(uint256 _quantity) public onlyBy(owner_) {\n    require(_quantity > 0, \"Quantity must be greater than 0.\");\n\n    totalCopies_ += _quantity;\n    if (0 != totalCopies_) {\n      unlimited_ = false;\n    }\n\n    emit IncreasedSupply(did_, _quantity, totalCopies_);\n    emit SupplySet(did_, totalCopies_);\n  }\n\n  function decreaseSupply(uint256 _quantity) public onlyBy(owner_) {\n    require(_quantity > 0, \"Cannot remove non-positive number of copies.\");\n    require(totalCopies_ > 0, \"Cannot remove anymore copies.\");\n    require(totalCopies_ - _quantity >= 0, \"Trying to remove more copies than already exist.\");\n\n    totalCopies_ -= _quantity;\n    if (0 != totalCopies_) {\n      unlimited_ = false;\n    }\n\n    emit DecreasedSupply(did_, _quantity, totalCopies_);\n    emit SupplySet(did_, totalCopies_);\n  }\n\n  function setUnlimitedSupply() public onlyBy(owner_) {\n    totalCopies_ = 0;\n    unlimited_ = true;\n    emit SupplySet(did_, totalCopies_);\n  }\n\n  function setRoyalties(bytes32[] _hashedAddresses, uint256[] _amounts) public onlyBy(owner_) {\n    require(priceTiers_.length > 0, \"Price must be set prior to setting royalties.\");\n\n    uint256 profit = 0;\n    Royalties storage royalties;\n    for(uint256 i = 0; i < _hashedAddresses.length; i++) {\n      royalties.split[_hashedAddresses[i]] = _amounts[i];\n      royalties.hashedAddresses.push(_hashedAddresses[i]);\n      profit += _amounts[i];\n    }\n\n    royalties.ownerProfit = royaltyMultiplier - profit;\n    royalties_ = royalties;\n\n    emit RoyaltiesUpdated();\n  }\n\n/**\n * RESELLER COMMERCE\n * ===============================================================================================\n */\n\n  function unlockResaleQuantity(bytes32 _configID, uint256 _quantity) public purchaseRequired {\n    bytes32 hashedAddress = keccak256(abi.encodePacked(msg.sender));\n    require(_quantity + purchases_[hashedAddress].configs[_configID].available <= purchases_[hashedAddress].configs[_configID].quantity, \"Cannot unlock more for resale than owned.\");\n    purchases_[hashedAddress].configs[_configID].available += _quantity;\n    assert(purchases_[hashedAddress].configs[_configID].available <= purchases_[hashedAddress].configs[_configID].quantity);\n    emit ResaleUnlocked(did_, msg.sender, purchases_[hashedAddress].configs[_configID].available);\n  }\n\n  function lockResaleQuantity(bytes32 _configID, uint256 _quantity) public purchaseRequired {\n    bytes32 hashedAddress = keccak256(abi.encodePacked(msg.sender));\n    require(purchases_[hashedAddress].configs[_configID].available >= _quantity, \"Cannot lock more than is available for resale.\");\n    purchases_[hashedAddress].configs[_configID].available -= _quantity;\n    assert(purchases_[hashedAddress].configs[_configID].available <= purchases_[hashedAddress].configs[_configID].quantity);\n    emit ResaleLocked(did_, msg.sender, purchases_[hashedAddress].configs[_configID].available);\n  }\n\n  function setResalePrice(bytes32 _configID, uint256 _price) external purchaseRequired {\n    bytes32 hashedAddress = keccak256(abi.encodePacked(msg.sender));\n    require(_price >= purchases_[hashedAddress].configs[_configID].minResalePrice, \"Resale price must be at least the minimum resale price.\");\n    purchases_[hashedAddress].configs[_configID].resalePrice = _price;\n    emit ResalePriceSet(did_, msg.sender, _price);\n  }\n\n/**\n * PURCHASE\n * ===============================================================================================\n */\n\n  /**\n   * @dev Purchases this AFS and adds it to _purchaser's library. \n   *      If _download is true, deposits any remaining allowance \n   *      as rewards for this purchase\n   * @param _purchaser The hashed methodless did of the purchaser\n   * @param _jobId The jobId of the download, or 0x00000000000000000000000000000000 if N/A\n   * @param _budget The reward budget for jobId, or 0 if N/A\n   */\n  function purchase(bytes32 _purchaser, uint256 _quantity, bytes32 _jobId, uint256 _budget) external {\n    require(listed_, \"AFS has not been listed for sale.\");\n    require(totalCopies_ != 0 || unlimited_, \"No more copies available for purchase.\");\n    require(_quantity > 0, \"Must purchase at least 1 copy.\");\n    require(totalCopies_ >= _quantity || unlimited_, \"Cannot purchase more copies than are available.\");\n\n    uint256 allowance = token_.allowance(msg.sender, address(this));\n    bytes32 hashedAddress = keccak256(abi.encodePacked(msg.sender));\n    uint256 totalPrice = _quantity * getPrice(_quantity);\n    require(allowance >= (totalPrice) + _budget, \"Proxy must be approved for purchase.\");\n\n    if(royalties_.hashedAddresses.length == 0) {\n      require(token_.transferFrom(msg.sender, owner_, totalPrice), \"Ara transfer failed.\");\n    } else {  \n      // TODO temporary\n      uint256[] amounts;\n      uint256[] profits;\n\n      // amounts becomes any integer less than 10,000 where 10,000 = 100%\n      for(uint256 i = 0; i < royalties_.hashedAddresses.length; i++) {\n        hashedAddress = royalties_.hashedAddresses[i];\n        uint256 amount = royalties_.split[hashedAddress];\n        amounts.push(amount);\n        uint256 profit = totalPrice * ((royaltyMultiplier / amount) + (royaltyMultiplier % amount));\n        profits.push(profit);\n        rewards_[hashedAddress] += profit;\n      }\n      emit RoyaltiesPaidOut(royalties_.hashedAddresses, amounts, totalPrice, profits);\n      // TODO pay out owner\n    }\n\n    bytes32 configID = bytes32(0);\n    if (resellable_) {\n      configID = keccak256(abi.encodePacked(msg.sender, did_, now, purchases_[hashedAddress].configIDs.length));\n\n      ResaleConfig memory config;\n      config.minResalePrice = minResalePrice_;\n      config.maxNumResales = maxNumResales_;\n      config.resalePrice = minResalePrice_;\n      config.quantity = _quantity;\n\n      purchases_[hashedAddress].configIDIndices[configID] = purchases_[hashedAddress].configIDs.length;\n      purchases_[hashedAddress].configIDs.push(configID);\n      purchases_[hashedAddress].configs[configID] = config;\n    } else {\n      purchases_[hashedAddress].quantity += _quantity;\n    }\n\n    if (totalCopies_ > 0) {\n      totalCopies_ -= _quantity;\n      if (totalCopies_ == 0) {\n        unlist();\n      }\n    }\n\n    if (!lib_.owns(_purchaser, did_)) {\n      lib_.addLibraryItem(_purchaser, did_);\n    }\n\n    emit Purchased(_purchaser, did_, _quantity, totalPrice, configID);\n\n    if (_jobId != bytes32(0) && _budget > 0) {\n      submitBudget(_jobId, _budget);\n    }\n  }\n\n  /**\n   * @param _seller seller's Ethereum address\n   * \n   */\n  function purchaseResale(address _seller, bytes32 _configID, bytes32 _purchaser, uint256 _quantity, bytes32 _jobId, uint256 _budget) external {\n    require(_quantity > 0, \"Must purchase at least 1 copy.\");\n\n    bytes32 seller = keccak256(abi.encodePacked(_seller));\n    Purchases storage sellerPurchases = purchases_[seller];\n    ResaleConfig storage sellerConfig = sellerPurchases.configs[_configID];\n\n    require(sellerConfig.available >= _quantity, \"This quantity is not available for resale from this seller using this resale configuration.\");\n    require(sellerConfig.resales[_quantity - 1] < sellerConfig.maxNumResales, \"Copy has already been sold the maximum number of times.\");\n\n    uint256 totalPrice = _quantity * sellerConfig.resalePrice;\n    require(token_.allowance(msg.sender, address(this)) >= totalPrice + _budget, \"Proxy must be approved for purchase.\");\n\n    // transfer minimum resale price to owner and transfer remainder to reseller\n    require(token_.transferFrom(msg.sender, _seller, _quantity * (sellerConfig.resalePrice - sellerConfig.minResalePrice))\n      && token_.transferFrom(msg.sender, owner_, _quantity * sellerConfig.minResalePrice), \"Ara transfer failed.\");\n    \n    // decrement seller resale availability/quantity\n    sellerConfig.quantity -= _quantity;\n    sellerConfig.available -= _quantity;\n\n    bytes32 purchaser = keccak256(abi.encodePacked(msg.sender));\n    Purchases storage purchaserPurchases = purchases_[purchaser];\n\n    bytes32 newConfigID = keccak256(abi.encodePacked(msg.sender, did_, now, purchaserPurchases.configIDs.length));\n    _createConfig(purchaser, newConfigID, _quantity, sellerConfig);\n\n    if (!lib_.owns(_purchaser, did_)) {\n      lib_.addLibraryItem(_purchaser, did_);\n    }\n\n    emit PurchasedResale(_purchaser, _seller, did_, _quantity, totalPrice, newConfigID);\n\n    if (sellerConfig.quantity == 0) {\n      _deleteConfig(seller, _configID, sellerPurchases);\n    }\n\n    if (_jobId != bytes32(0) && _budget > 0) {\n      submitBudget(_jobId, _budget);\n    }\n  }\n\n  function _createConfig(bytes32 _owner, bytes32 _id, uint256 _quantity, ResaleConfig storage oldConfig) internal {\n    ResaleConfig memory newConfig;\n\n    newConfig.minResalePrice = oldConfig.minResalePrice;\n    newConfig.maxNumResales = oldConfig.maxNumResales;\n    newConfig.resalePrice = oldConfig.minResalePrice;\n    newConfig.quantity = _quantity;\n\n    Purchases storage purchases = purchases_[_owner];\n\n    purchases.configIDIndices[_id] = purchases_[_owner].configIDs.length;\n    purchases.configIDs.push(_id);\n    purchases.configs[_id] = newConfig;\n\n    uint256 soldCopyIndex;\n    for (uint256 i = 0; i < _quantity; i++) {\n      soldCopyIndex = i + oldConfig.quantity;\n      purchases.configs[_id].resales.push(oldConfig.resales[soldCopyIndex] + 1); // update resale count for purchaser with old resale count + 1\n      delete oldConfig.resales[soldCopyIndex]; // delete resale count for sold copies\n    }\n  }\n\n  function _deleteConfig(bytes32 seller, bytes32 _id, Purchases storage sellerPurchases) internal {\n    // delete config\n    delete sellerPurchases.configs[_id]; // delete config mapping\n    uint256 configIDIndex = sellerPurchases.configIDIndices[_id]; // get configID index\n    delete sellerPurchases.configIDIndices[_id]; // delete configID index mapping\n    sellerPurchases.configIDs[configIDIndex] = sellerPurchases.configIDs[sellerPurchases.configIDs.length - 1]; // move last configID into deleted configID position\n    delete sellerPurchases.configIDs[sellerPurchases.configIDs.length - 1]; // delete last configID\n\n    if (sellerPurchases.configIDs.length == 0) {\n      lib_.removeLibraryItem(seller, did_);\n    }\n  }\n\n/**\n * REWARDS\n * ===============================================================================================\n */\n\n  function submitBudget(bytes32 _jobId, uint256 _budget) public purchaseRequired {\n    uint256 allowance = token_.allowance(msg.sender, address(this));\n    require(_jobId != bytes32(0) && _budget > 0 && allowance >= _budget\n      && (jobs_[_jobId].sender == address(0) || jobs_[_jobId].sender == msg.sender), \"Job submission invalid.\");\n\n    if (token_.transferFrom(msg.sender, address(this), _budget)) {\n      jobs_[_jobId].budget += _budget;\n      jobs_[_jobId].sender = msg.sender;\n      assert(jobs_[_jobId].budget <= token_.balanceOf(address(this)));\n      emit BudgetSubmitted(did_, _jobId, _budget);\n    }\n  }\n\n  function getBudget(bytes32 _jobId) public view returns (uint256) {\n    return jobs_[_jobId].budget;\n  }\n\n  function allocateRewards(bytes32 _jobId, bytes32[] _farmers, uint256[] _rewards) public budgetSubmitted(_jobId) {\n    require(_farmers.length == _rewards.length, \"Unequal number of farmers and rewards.\");\n    uint256 totalRewards;\n    for (uint8 i = 0; i < _rewards.length; i++) {\n      totalRewards += _rewards[i];\n    }\n    require(totalRewards <= jobs_[_jobId].budget, \"Insufficient budget.\");\n    for (uint8 j = 0; j < _farmers.length; j++) {\n      assert(jobs_[_jobId].budget >= _rewards[j]);\n      rewards_[_farmers[j]] = _rewards[j];\n      jobs_[_jobId].budget -= _rewards[j];\n    }\n    uint256 remaining = jobs_[_jobId].budget;\n    if (remaining > 0) {\n      rewards_[keccak256(abi.encodePacked(msg.sender))] = remaining;\n      jobs_[_jobId].budget = 0;\n      redeemBalance();\n    }\n    emit RewardsAllocated(did_, totalRewards, remaining);\n  }\n\n  function redeemBalance() public {\n    bytes32 hashedAddress = keccak256(abi.encodePacked(msg.sender));\n    require(rewards_[hashedAddress] > 0, \"No balance to redeem.\");\n    if (token_.transfer(msg.sender, rewards_[hashedAddress])) {\n      rewards_[hashedAddress] = 0;\n      emit Redeemed(msg.sender);\n    }\n  }\n\n  function getRewardsBalance(address _farmer) public view returns (uint256) {\n    return rewards_[keccak256(abi.encodePacked(_farmer))];\n  }\n\n/**\n * STORAGE\n * ===============================================================================================\n */\n\n  function append(uint256[] _mtOffsets, uint256[] _msOffsets, bytes _mtBuffer, \n    bytes _msBuffer, bool _list) external onlyBy(owner_) {\n    \n    listed_ = listed_ || _list;\n\n    uint256 maxOffsetLength = _mtOffsets.length > _msOffsets.length \n      ? _mtOffsets.length \n      : _msOffsets.length;\n\n    for (uint i = 0; i < maxOffsetLength; i++) {\n      // metadata/tree\n      if (i <= _mtOffsets.length - 1) {\n        metadata_[0][_mtOffsets[i]] = _mtBuffer.slice(i * mtBufferSize_, mtBufferSize_);\n      }\n\n      // metadata/signatures\n      if (i <= _msOffsets.length - 1) {\n        metadata_[1][_msOffsets[i]] = _msBuffer.slice(i * msBufferSize_, msBufferSize_);\n      }\n    }\n\n    emit Commit(did_);\n  }\n\n  function write(uint256[] _mtOffsets, uint256[] _msOffsets, bytes _mtBuffer, \n    bytes _msBuffer, bool _list) public onlyBy(owner_) {\n\n    listed_ = listed_ || _list;\n\n    uint256 maxOffsetLength = _mtOffsets.length > _msOffsets.length \n      ? _mtOffsets.length \n      : _msOffsets.length;\n\n    // add headers\n    metadata_[0][0] = _mtBuffer.slice(0, 32);\n    metadata_[1][0] = _msBuffer.slice(0, 32);\n\n    for (uint i = 1; i < maxOffsetLength; i++) {\n      // metadata/tree\n      if (i <= _mtOffsets.length - 1) {\n        metadata_[0][_mtOffsets[i]] = _mtBuffer.slice(_mtOffsets[i], mtBufferSize_);\n      }\n      \n      // metadata/signatures\n      if (i <= _msOffsets.length - 1) {\n        metadata_[1][_msOffsets[i]] = _msBuffer.slice(_msOffsets[i], msBufferSize_);\n      }\n    }\n\n    emit Commit(did_);\n  }\n\n  function read(uint8 _file, uint256 _offset) public view returns (bytes buffer) {\n    if (!listed_) {\n      return \"\"; // empty bytes\n    }\n    return metadata_[_file][_offset];\n  }\n\n  function hasBuffer(uint8 _file, uint256 _offset, bytes _buffer) public view returns (bool exists) {\n    return metadata_[_file][_offset].equal(_buffer);\n  }\n}\n",
  "sourcePath": "/Users/charles/Desktop/Development/Ara/ara-contracts/contracts/AFS.sol",
  "compiler": {
    "name": "solc",
    "version": "0.4.24+commit.e67f0147.Emscripten.clang"
  },
  "schemaVersion": "2.0.1",
  "updatedAt": "2018-10-17T22:26:59.837Z"
}