{
  "contractName": "AraProxy",
  "abi": [
    {
      "inputs": [
        {
          "internalType": "address",
          "name": "_registryAddress",
          "type": "address"
        },
        {
          "internalType": "address",
          "name": "_implementationAddress",
          "type": "address"
        }
      ],
      "payable": false,
      "stateMutability": "nonpayable",
      "type": "constructor"
    },
    {
      "payable": true,
      "stateMutability": "payable",
      "type": "fallback"
    },
    {
      "constant": false,
      "inputs": [
        {
          "internalType": "address",
          "name": "_newImplementation",
          "type": "address"
        }
      ],
      "name": "setImplementation",
      "outputs": [],
      "payable": false,
      "stateMutability": "nonpayable",
      "type": "function"
    }
  ],
  "bytecode": "0x608060405234801561001057600080fd5b506040516103533803806103538339818101604052604081101561003357600080fd5b810190808051906020019092919080519060200190929190505050600060405180807f696f2e6172612e70726f78792e72656769737472790000000000000000000000815250601501905060405180910390209050600060405180807f696f2e6172612e70726f78792e696d706c656d656e746174696f6e0000000000815250601b0190506040518091039020905083825582815550505050610278806100db6000396000f3fe60806040526004361061001e5760003560e01c8063d784d42614610085575b600060405180807f696f2e6172612e70726f78792e696d706c656d656e746174696f6e0000000000815250601b0190506040518091039020905060008154905060405136600082376000803683855af43d806000843e8160008114610081578184f35b8184fd5b34801561009157600080fd5b506100d4600480360360208110156100a857600080fd5b81019080803573ffffffffffffffffffffffffffffffffffffffff1690602001909291905050506100d6565b005b600060405180807f696f2e6172612e70726f78792e726567697374727900000000000000000000008152506015019050604051809103902090506000815490508073ffffffffffffffffffffffffffffffffffffffff163373ffffffffffffffffffffffffffffffffffffffff161461019a576040517f08c379a000000000000000000000000000000000000000000000000000000000815260040180806020018281038252602c815260200180610218602c913960400191505060405180910390fd5b600073ffffffffffffffffffffffffffffffffffffffff168373ffffffffffffffffffffffffffffffffffffffff1614156101d457600080fd5b600060405180807f696f2e6172612e70726f78792e696d706c656d656e746174696f6e0000000000815250601b019050604051809103902090508381555050505056fe4f6e6c79207468652041726152656769737472792063616e207570677261646520746869732070726f78792ea265627a7a7231582056d295dbcfb3561f7f81fc2ea1a35c5b6367451076dfab13c9036bacb4390c2f64736f6c63430005100032",
  "source": "pragma solidity ^0.5.16;\r\n\r\n/**\r\n * @title AraProxy\r\n * @dev Gives the possibility to delegate any call to a foreign implementation.\r\n */\r\ncontract AraProxy {\r\n\r\n  bytes32 private constant registryPosition_ = keccak256('io.ara.proxy.registry');\r\n  bytes32 private constant implementationPosition_ = keccak256('io.ara.proxy.implementation');\r\n\r\n  modifier restricted() {\r\n    bytes32 registryPosition = registryPosition_;\r\n    address registryAddress;\r\n    assembly {\r\n      registryAddress := sload(registryPosition)\r\n    }\r\n    require(\r\n      msg.sender == registryAddress,\r\n      'Only the AraRegistry can upgrade this proxy.'\r\n    );\r\n    _;\r\n  }\r\n\r\n  /**\r\n  * @dev the constructor sets the AraRegistry address\r\n  */\r\n  constructor(address _registryAddress, address _implementationAddress) public {\r\n    bytes32 registryPosition = registryPosition_;\r\n    bytes32 implementationPosition = implementationPosition_;\r\n    assembly {\r\n      sstore(registryPosition, _registryAddress)\r\n      sstore(implementationPosition, _implementationAddress)\r\n    }\r\n  }\r\n\r\n  function setImplementation(address _newImplementation) public restricted {\r\n    require(_newImplementation != address(0));\r\n    bytes32 implementationPosition = implementationPosition_;\r\n    assembly {\r\n      sstore(implementationPosition, _newImplementation)\r\n    }\r\n  }\r\n\r\n  /**\r\n  * @dev Fallback function allowing to perform a delegatecall to the given implementation.\r\n  * This function will return whatever the implementation call returns\r\n  */\r\n  function () external payable {\r\n    bytes32 implementationPosition = implementationPosition_;\r\n    address _impl;\r\n    assembly {\r\n      _impl := sload(implementationPosition)\r\n    }\r\n\r\n    assembly {\r\n      let ptr := mload(0x40)\r\n      calldatacopy(ptr, 0, calldatasize)\r\n      let result := delegatecall(gas, _impl, ptr, calldatasize, 0, 0)\r\n      let size := returndatasize\r\n      returndatacopy(ptr, 0, size)\r\n\r\n      switch result\r\n      case 0 { revert(ptr, size) }\r\n      default { return(ptr, size) }\r\n    }\r\n  }\r\n}\r\n",
  "sourcePath": "D:/Development/Ara/ara-contracts/contracts/AraProxy.sol",
  "compiler": {
    "name": "solc",
    "version": "0.5.16+commit.9c3226ce.Emscripten.clang"
  },
  "schemaVersion": "3.3.4",
  "updatedAt": "2021-04-16T16:38:50.346Z",
  "devdoc": {
    "details": "Gives the possibility to delegate any call to a foreign implementation.",
    "methods": {
      "constructor": {
        "details": "the constructor sets the AraRegistry address"
      }
    },
    "title": "AraProxy"
  },
  "userdoc": {
    "methods": {}
  }
}