{
  "contractName": "AraProxy",
  "abi": [
    {
      "inputs": [
        {
          "name": "_registryAddress",
          "type": "address"
        },
        {
          "name": "_implementationAddress",
          "type": "address"
        }
      ],
      "payable": false,
      "stateMutability": "nonpayable",
      "type": "constructor"
    },
    {
      "payable": true,
      "stateMutability": "payable",
      "type": "fallback"
    },
    {
      "constant": false,
      "inputs": [
        {
          "name": "_newImplementation",
          "type": "address"
        }
      ],
      "name": "setImplementation",
      "outputs": [],
      "payable": false,
      "stateMutability": "nonpayable",
      "type": "function"
    }
  ],
  "bytecode": "0x608060405234801561001057600080fd5b50604051604080610366833981018060405281019080805190602001909291908051906020019092919050505060008060405180807f696f2e6172612e70726f78792e7265676973747279000000000000000000000081525060150190506040518091039020915060405180807f696f2e6172612e70726f78792e696d706c656d656e746174696f6e0000000000815250601b019050604051809103902090508382558281555050505061029d806100c96000396000f300608060405260043610610041576000357c0100000000000000000000000000000000000000000000000000000000900463ffffffff168063d784d426146100a7575b60008060405180807f696f2e6172612e70726f78792e696d706c656d656e746174696f6e0000000000815250601b019050604051809103902091508154905060405136600082376000803683855af43d806000843e81600081146100a3578184f35b8184fd5b3480156100b357600080fd5b506100e8600480360381019080803573ffffffffffffffffffffffffffffffffffffffff1690602001909291905050506100ea565b005b600080600060405180807f696f2e6172612e70726f78792e72656769737472790000000000000000000000815250601501905060405180910390209150815490508073ffffffffffffffffffffffffffffffffffffffff163373ffffffffffffffffffffffffffffffffffffffff161415156101f4576040517f08c379a000000000000000000000000000000000000000000000000000000000815260040180806020018281038252602c8152602001807f4f6e6c79207468652041726152656769737472792063616e207570677261646581526020017f20746869732070726f78792e000000000000000000000000000000000000000081525060400191505060405180910390fd5b600073ffffffffffffffffffffffffffffffffffffffff168473ffffffffffffffffffffffffffffffffffffffff161415151561023057600080fd5b60405180807f696f2e6172612e70726f78792e696d706c656d656e746174696f6e0000000000815250601b01905060405180910390209250838355505050505600a165627a7a72305820a294611c1cdaf97dd0198ec6c57d3177fc35937c7b49ae6589cf62175cca102b0029",
  "source": "pragma solidity ^0.4.24;\r\n\r\n/**\r\n * @title AraProxy\r\n * @dev Gives the possibility to delegate any call to a foreign implementation.\r\n */\r\ncontract AraProxy {\r\n\r\n  bytes32 private constant registryPosition_ = keccak256(\"io.ara.proxy.registry\");\r\n  bytes32 private constant implementationPosition_ = keccak256(\"io.ara.proxy.implementation\");\r\n\r\n  modifier restricted() {\r\n    bytes32 registryPosition = registryPosition_;\r\n    address registryAddress;\r\n    assembly {\r\n      registryAddress := sload(registryPosition)\r\n    }\r\n    require(\r\n      msg.sender == registryAddress,\r\n      \"Only the AraRegistry can upgrade this proxy.\"\r\n    );\r\n    _;\r\n  }\r\n\r\n  /**\r\n  * @dev the constructor sets the AraRegistry address\r\n  */\r\n  constructor(address _registryAddress, address _implementationAddress) public {\r\n    bytes32 registryPosition = registryPosition_;\r\n    bytes32 implementationPosition = implementationPosition_;\r\n    assembly {\r\n      sstore(registryPosition, _registryAddress)\r\n      sstore(implementationPosition, _implementationAddress)\r\n    }\r\n  }\r\n\r\n  function setImplementation(address _newImplementation) public restricted {\r\n    require(_newImplementation != address(0));\r\n    bytes32 implementationPosition = implementationPosition_;\r\n    assembly {\r\n      sstore(implementationPosition, _newImplementation)\r\n    }\r\n  }\r\n\r\n  /**\r\n  * @dev Fallback function allowing to perform a delegatecall to the given implementation.\r\n  * This function will return whatever the implementation call returns\r\n  */\r\n  function () payable public {\r\n    bytes32 implementationPosition = implementationPosition_;\r\n    address _impl;\r\n    assembly {\r\n      _impl := sload(implementationPosition)\r\n    }\r\n\r\n    assembly {\r\n      let ptr := mload(0x40)\r\n      calldatacopy(ptr, 0, calldatasize)\r\n      let result := delegatecall(gas, _impl, ptr, calldatasize, 0, 0)\r\n      let size := returndatasize\r\n      returndatacopy(ptr, 0, size)\r\n\r\n      switch result\r\n      case 0 { revert(ptr, size) }\r\n      default { return(ptr, size) }\r\n    }\r\n  }\r\n}\r\n",
  "sourcePath": "D:\\Development\\Ara\\ara-contracts\\contracts\\AraProxy.sol",
  "compiler": {
    "name": "solc",
    "version": "0.4.24+commit.e67f0147.Emscripten.clang"
  },
  "schemaVersion": "2.0.1",
  "updatedAt": "2021-03-27T16:20:15.652Z"
}