{
  "contractName": "AraRegistry",
  "abi": [
    {
      "constant": true,
      "inputs": [
        {
          "name": "_contractName",
          "type": "string"
        }
      ],
      "name": "getLatestVersionAddress",
      "outputs": [
        {
          "name": "",
          "type": "address"
        }
      ],
      "payable": false,
      "stateMutability": "view",
      "type": "function"
    },
    {
      "constant": true,
      "inputs": [
        {
          "name": "_contractName",
          "type": "string"
        },
        {
          "name": "_version",
          "type": "string"
        }
      ],
      "name": "getUpgradeableContractAddress",
      "outputs": [
        {
          "name": "",
          "type": "address"
        }
      ],
      "payable": false,
      "stateMutability": "view",
      "type": "function"
    },
    {
      "constant": false,
      "inputs": [
        {
          "name": "_contractName",
          "type": "string"
        },
        {
          "name": "_version",
          "type": "string"
        },
        {
          "name": "_code",
          "type": "bytes"
        }
      ],
      "name": "addNewUpgradeableContract",
      "outputs": [],
      "payable": false,
      "stateMutability": "nonpayable",
      "type": "function"
    },
    {
      "constant": false,
      "inputs": [
        {
          "name": "_contractName",
          "type": "string"
        },
        {
          "name": "_version",
          "type": "string"
        },
        {
          "name": "_code",
          "type": "bytes"
        }
      ],
      "name": "upgradeContract",
      "outputs": [],
      "payable": false,
      "stateMutability": "nonpayable",
      "type": "function"
    }
  ],
  "bytecode": "0x608060405234801561001057600080fd5b50611374806100206000396000f300608060405260043610610062576000357c0100000000000000000000000000000000000000000000000000000000900463ffffffff168063216abca21461006757806396532a8f1461015c578063aa2bbd5314610205578063eba60c2c146102fa575b600080fd5b34801561007357600080fd5b5061015a600480360381019080803590602001908201803590602001908080601f0160208091040260200160405190810160405280939291908181526020018383808284378201915050505050509192919290803590602001908201803590602001908080601f0160208091040260200160405190810160405280939291908181526020018383808284378201915050505050509192919290803590602001908201803590602001908080601f01602080910402602001604051908101604052809392919081815260200183838082843782019150505050505091929192905050506103e9565b005b34801561016857600080fd5b506101c3600480360381019080803590602001908201803590602001908080601f01602080910402602001604051908101604052809392919081815260200183838082843782019150505050505091929192905050506106d0565b604051808273ffffffffffffffffffffffffffffffffffffffff1673ffffffffffffffffffffffffffffffffffffffff16815260200191505060405180910390f35b34801561021157600080fd5b506102f8600480360381019080803590602001908201803590602001908080601f0160208091040260200160405190810160405280939291908181526020018383808284378201915050505050509192919290803590602001908201803590602001908080601f0160208091040260200160405190810160405280939291908181526020018383808284378201915050505050509192919290803590602001908201803590602001908080601f0160208091040260200160405190810160405280939291908181526020018383808284378201915050505050509192919290505050610843565b005b34801561030657600080fd5b506103a7600480360381019080803590602001908201803590602001908080601f0160208091040260200160405190810160405280939291908181526020018383808284378201915050505050509192919290803590602001908201803590602001908080601f0160208091040260200160405190810160405280939291908181526020018383808284378201915050505050509192919290505050610b95565b604051808273ffffffffffffffffffffffffffffffffffffffff1673ffffffffffffffffffffffffffffffffffffffff16815260200191505060405180910390f35b600080846040518082805190602001908083835b60208310151561042257805182526020820191506020810190506020830392506103fd565b6001836020036101000a038019825116818451168082178552505050505050905001915050908152602001604051809103902060000160009054906101000a900460ff161515610526576040517f08c379a00000000000000000000000000000000000000000000000000000000081526004018080602001828103825260538152602001807f5570677261646561626c6520636f6e7472616374206d7573742065786973742081526020017f6265666f72652069742063616e20626520757067726164696e672e205472792081526020017f616464696e67206f6e6520696e73746561642e0000000000000000000000000081525060600191505060405180910390fd5b8151602083016000f09050826000856040518082805190602001908083835b60208310151561056a5780518252602082019150602081019050602083039250610545565b6001836020036101000a038019825116818451168082178552505050505050905001915050908152602001604051809103902060010190805190602001906105b3929190610efe565b50806000856040518082805190602001908083835b6020831015156105ed57805182526020820191506020810190506020830392506105c8565b6001836020036101000a0380198251168184511680821785525050505050509050019150509081526020016040518091039020600201846040518082805190602001908083835b6020831015156106595780518252602082019150602081019050602083039250610634565b6001836020036101000a038019825116818451168082178552505050505050905001915050908152602001604051809103902060006101000a81548173ffffffffffffffffffffffffffffffffffffffff021916908373ffffffffffffffffffffffffffffffffffffffff16021790555050505050565b600080826040518082805190602001908083835b60208310151561070957805182526020820191506020810190506020830392506106e4565b6001836020036101000a03801982511681845116808217855250505050505090500191505090815260200160405180910390206002016000836040518082805190602001908083835b6020831015156107775780518252602082019150602081019050602083039250610752565b6001836020036101000a038019825116818451168082178552505050505050905001915050908152602001604051809103902060010160405180828054600181600116156101000203166002900480156108085780601f106107e6576101008083540402835291820191610808565b820191906000526020600020905b8154815290600101906020018083116107f4575b5050915050908152602001604051809103902060009054906101000a900473ffffffffffffffffffffffffffffffffffffffff169050919050565b600080846040518082805190602001908083835b60208310151561087c5780518252602082019150602081019050602083039250610857565b6001836020036101000a038019825116818451168082178552505050505050905001915050908152602001604051809103902060000160009054906101000a900460ff1615151561095b576040517f08c379a000000000000000000000000000000000000000000000000000000000815260040180806020018281038252603b8152602001807f5570677261646561626c6520636f6e747261637420616c72656164792065786981526020017f7374732e2054727920757067726164696e6720696e73746561642e000000000081525060400191505060405180910390fd5b8151602083016000f0905060016000856040518082805190602001908083835b6020831015156109a0578051825260208201915060208101905060208303925061097b565b6001836020036101000a038019825116818451168082178552505050505050905001915050908152602001604051809103902060000160006101000a81548160ff021916908315150217905550826000856040518082805190602001908083835b602083101515610a265780518252602082019150602081019050602083039250610a01565b6001836020036101000a03801982511681845116808217855250505050505090500191505090815260200160405180910390206001019080519060200190610a6f929190610efe565b50806000856040518082805190602001908083835b602083101515610aa95780518252602082019150602081019050602083039250610a84565b6001836020036101000a0380198251168184511680821785525050505050509050019150509081526020016040518091039020600201846040518082805190602001908083835b602083101515610b155780518252602082019150602081019050602083039250610af0565b6001836020036101000a038019825116818451168082178552505050505050905001915050908152602001604051809103902060006101000a81548173ffffffffffffffffffffffffffffffffffffffff021916908373ffffffffffffffffffffffffffffffffffffffff160217905550610b8f84610c96565b50505050565b600080836040518082805190602001908083835b602083101515610bce5780518252602082019150602081019050602083039250610ba9565b6001836020036101000a0380198251168184511680821785525050505050509050019150509081526020016040518091039020600201826040518082805190602001908083835b602083101515610c3a5780518252602082019150602081019050602083039250610c15565b6001836020036101000a038019825116818451168082178552505050505050905001915050908152602001604051809103902060009054906101000a900473ffffffffffffffffffffffffffffffffffffffff16905092915050565b60008073ffffffffffffffffffffffffffffffffffffffff166000836040518082805190602001908083835b602083101515610ce75780518252602082019150602081019050602083039250610cc2565b6001836020036101000a038019825116818451168082178552505050505050905001915050908152602001604051809103902060000160019054906101000a900473ffffffffffffffffffffffffffffffffffffffff1673ffffffffffffffffffffffffffffffffffffffff16141515610def576040517f08c379a00000000000000000000000000000000000000000000000000000000081526004018080602001828103825260328152602001807f4f6e6c79206f6e652070726f78792063616e206578697374207065722075706781526020017f7261646561626c6520636f6e74726163742e000000000000000000000000000081525060400191505060405180910390fd5b30610df8610f7e565b808273ffffffffffffffffffffffffffffffffffffffff1673ffffffffffffffffffffffffffffffffffffffff168152602001915050604051809103906000f080158015610e4a573d6000803e3d6000fd5b509050806000836040518082805190602001908083835b602083101515610e865780518252602082019150602081019050602083039250610e61565b6001836020036101000a038019825116818451168082178552505050505050905001915050908152602001604051809103902060000160016101000a81548173ffffffffffffffffffffffffffffffffffffffff021916908373ffffffffffffffffffffffffffffffffffffffff1602179055505050565b828054600181600116156101000203166002900490600052602060002090601f016020900481019282601f10610f3f57805160ff1916838001178555610f6d565b82800160010185558215610f6d579182015b82811115610f6c578251825591602001919060010190610f51565b5b509050610f7a9190610f8e565b5090565b60405161039580610fb483390190565b610fb091905b80821115610fac576000816000905550600101610f94565b5090565b905600608060405234801561001057600080fd5b5060405160208061039583398101806040528101908080519060200190929190505050600060405180807f696f2e617261626c6f636b732e70726f78792e72656769737472790000000000815250601b019050604051809103902090508181555050610314806100816000396000f300608060405260008060008060405180807f696f2e617261626c6f636b732e70726f78792e72656769737472790000000000815250601b01905060405180910390209350835492508291508173ffffffffffffffffffffffffffffffffffffffff16636b6838968373ffffffffffffffffffffffffffffffffffffffff1663ba586e80306040518263ffffffff167c0100000000000000000000000000000000000000000000000000000000028152600401808273ffffffffffffffffffffffffffffffffffffffff1673ffffffffffffffffffffffffffffffffffffffff168152602001915050600060405180830381600087803b15801561010057600080fd5b505af1158015610114573d6000803e3d6000fd5b505050506040513d6000823e3d601f19601f82011682018060405250602081101561013e57600080fd5b81019080805164010000000081111561015657600080fd5b8281019050602081018481111561016c57600080fd5b815185600182028301116401000000008211171561018957600080fd5b50509291905050506040518263ffffffff167c01000000000000000000000000000000000000000000000000000000000281526004018080602001828103825283818151815260200191508051906020019080838360005b838110156101fc5780820151818401526020810190506101e1565b50505050905090810190601f1680156102295780820380516001836020036101000a031916815260200191505b5092505050602060405180830381600087803b15801561024857600080fd5b505af115801561025c573d6000803e3d6000fd5b505050506040513d602081101561027257600080fd5b81019080805190602001909291905050509050600073ffffffffffffffffffffffffffffffffffffffff168173ffffffffffffffffffffffffffffffffffffffff16141515156102c157600080fd5b60405136600082376000803683855af43d806000843e81600081146102e4578184f35b8184fd00a165627a7a723058202b859ec884fecfee5924b469fa026ad4d6c2599b0fb527b408341856309806f60029a165627a7a72305820c8497919b0fea33a5ccb4c582c9b6442eefe8b8abb5f4a924e32c9134a8b393b0029",
  "source": "pragma solidity ^0.4.24;\n\nimport \"./Proxy.sol\";\n\ncontract AraRegistry {\n  mapping (string => UpgradeableContract) private contracts_; // contract name -> struct\n\n  struct UpgradeableContract {\n    bool initialized_;\n    address proxy_;\n    string latestVersion_;\n    mapping (string => address) versions_;\n  }\n\n  function getLatestVersionAddress(string _contractName) public view returns (address) {\n    return contracts_[_contractName].versions_[contracts_[_contractName].latestVersion_];\n  }\n\n  function getUpgradeableContractAddress(string _contractName, string _version) public view returns (address) {\n    return contracts_[_contractName].versions_[_version];\n  }\n\n  function addNewUpgradeableContract(string _contractName, string _version, bytes _code) public {\n    require(!contracts_[_contractName].initialized_, \"Upgradeable contract already exists. Try upgrading instead.\");\n    address deployedAddress;\n    assembly {\n      deployedAddress := create(0, add(_code, 0x20), mload(_code))\n    }\n\n    contracts_[_contractName].initialized_ = true;\n    contracts_[_contractName].latestVersion_ = _version;\n    contracts_[_contractName].versions_[_version] = deployedAddress;\n    _deployProxy(_contractName);\n  }\n\n  function upgradeContract(string _contractName, string _version, bytes _code) public {\n    require(contracts_[_contractName].initialized_, \"Upgradeable contract must exist before it can be upgrading. Try adding one instead.\");\n    address deployedAddress;\n    assembly {\n      deployedAddress := create(0, add(_code, 0x20), mload(_code))\n    }\n\n    contracts_[_contractName].latestVersion_ = _version;\n    contracts_[_contractName].versions_[_version] = deployedAddress;\n  }\n\n  function _deployProxy(string _contractName) private {\n    require(contracts_[_contractName].proxy_ == address(0), \"Only one proxy can exist per upgradeable contract.\");\n    Proxy proxy = new Proxy(address(this));\n    contracts_[_contractName].proxy_ = proxy;\n  }\n}\n",
  "sourcePath": "/Users/ericjiang/Littlstar/ara-contracts/contracts/ignored_contracts/AraRegistry.sol",
  "compiler": {
    "name": "solc",
    "version": "0.4.24+commit.e67f0147.Emscripten.clang"
  },
  "schemaVersion": "2.0.1",
  "updatedAt": "2019-01-09T22:35:46.308Z"
}