{
  "contractName": "AraRegistry",
  "abi": [
    {
      "anonymous": false,
      "inputs": [
        {
          "indexed": false,
          "name": "_contractName",
          "type": "bytes32"
        },
        {
          "indexed": false,
          "name": "_version",
          "type": "string"
        },
        {
          "indexed": false,
          "name": "_address",
          "type": "address"
        }
      ],
      "name": "UpgradeableContractAdded",
      "type": "event"
    },
    {
      "anonymous": false,
      "inputs": [
        {
          "indexed": false,
          "name": "_contractName",
          "type": "bytes32"
        },
        {
          "indexed": false,
          "name": "_version",
          "type": "string"
        },
        {
          "indexed": false,
          "name": "_address",
          "type": "address"
        }
      ],
      "name": "ContractUpgraded",
      "type": "event"
    },
    {
      "anonymous": false,
      "inputs": [
        {
          "indexed": false,
          "name": "_contractName",
          "type": "bytes32"
        },
        {
          "indexed": false,
          "name": "_address",
          "type": "address"
        }
      ],
      "name": "ProxyDeployed",
      "type": "event"
    },
    {
      "constant": true,
      "inputs": [
        {
          "name": "_contractName",
          "type": "bytes32"
        }
      ],
      "name": "getLatestVersionAddress",
      "outputs": [
        {
          "name": "",
          "type": "address"
        }
      ],
      "payable": false,
      "stateMutability": "view",
      "type": "function"
    },
    {
      "constant": true,
      "inputs": [
        {
          "name": "_contractName",
          "type": "bytes32"
        },
        {
          "name": "_version",
          "type": "string"
        }
      ],
      "name": "getUpgradeableContractAddress",
      "outputs": [
        {
          "name": "",
          "type": "address"
        }
      ],
      "payable": false,
      "stateMutability": "view",
      "type": "function"
    },
    {
      "constant": false,
      "inputs": [
        {
          "name": "_contractName",
          "type": "bytes32"
        },
        {
          "name": "_version",
          "type": "string"
        },
        {
          "name": "_code",
          "type": "bytes"
        },
        {
          "name": "_data",
          "type": "bytes"
        }
      ],
      "name": "addNewUpgradeableContract",
      "outputs": [],
      "payable": false,
      "stateMutability": "nonpayable",
      "type": "function"
    },
    {
      "constant": false,
      "inputs": [
        {
          "name": "_contractName",
          "type": "bytes32"
        },
        {
          "name": "_version",
          "type": "string"
        },
        {
          "name": "_code",
          "type": "bytes"
        }
      ],
      "name": "upgradeContract",
      "outputs": [],
      "payable": false,
      "stateMutability": "nonpayable",
      "type": "function"
    }
  ],
  "bytecode": "0x608060405234801561001057600080fd5b50611244806100206000396000f300608060405260043610610062576000357c0100000000000000000000000000000000000000000000000000000000900463ffffffff1680630726755b14610067578063a9a2f2eb1461016a578063d4520d22146101db578063f8df27b114610298575b600080fd5b34801561007357600080fd5b506101686004803603810190808035600019169060200190929190803590602001908201803590602001908080601f0160208091040260200160405190810160405280939291908181526020018383808284378201915050505050509192919290803590602001908201803590602001908080601f0160208091040260200160405190810160405280939291908181526020018383808284378201915050505050509192919290803590602001908201803590602001908080601f016020809104026020016040519081016040528093929190818152602001838380828437820191505050505050919291929050505061034f565b005b34801561017657600080fd5b506101996004803603810190808035600019169060200190929190505050610640565b604051808273ffffffffffffffffffffffffffffffffffffffff1673ffffffffffffffffffffffffffffffffffffffff16815260200191505060405180910390f35b3480156101e757600080fd5b506102966004803603810190808035600019169060200190929190803590602001908201803590602001908080601f0160208091040260200160405190810160405280939291908181526020018383808284378201915050505050509192919290803590602001908201803590602001908080601f0160208091040260200160405190810160405280939291908181526020018383808284378201915050505050509192919290505050610712565b005b3480156102a457600080fd5b5061030d6004803603810190808035600019169060200190929190803590602001908201803590602001908080601f01602080910402602001604051908101604052809392919081815260200183838082843782019150505050505091929192905050506109e7565b604051808273ffffffffffffffffffffffffffffffffffffffff1673ffffffffffffffffffffffffffffffffffffffff16815260200191505060405180910390f35b6000806000866000191660001916815260200190815260200160002060000160009054906101000a900460ff16151515610417576040517f08c379a000000000000000000000000000000000000000000000000000000000815260040180806020018281038252603b8152602001807f5570677261646561626c6520636f6e747261637420616c72656164792065786981526020017f7374732e2054727920757067726164696e6720696e73746561642e000000000081525060400191505060405180910390fd5b8251602084016000f090506001600080876000191660001916815260200190815260200160002060000160006101000a81548160ff0219169083151502179055508360008087600019166000191681526020019081526020016000206001019080519060200190610489929190610ecf565b50806000808760001916600019168152602001908152602001600020600201856040518082805190602001908083835b6020831015156104de57805182526020820191506020810190506020830392506104b9565b6001836020036101000a038019825116818451168082178552505050505050905001915050908152602001604051809103902060006101000a81548173ffffffffffffffffffffffffffffffffffffffff021916908373ffffffffffffffffffffffffffffffffffffffff1602179055506105598583610a98565b7f931f56ddf3dd3773b55ba19012b5eed0c84937b72b693d6bf57ac3986143295a858583604051808460001916600019168152602001806020018373ffffffffffffffffffffffffffffffffffffffff1673ffffffffffffffffffffffffffffffffffffffff168152602001828103825284818151815260200191508051906020019080838360005b838110156105fd5780820151818401526020810190506105e2565b50505050905090810190601f16801561062a5780820380516001836020036101000a031916815260200191505b5094505050505060405180910390a15050505050565b60008060008360001916600019168152602001908152602001600020600201600080846000191660001916815260200190815260200160002060010160405180828054600181600116156101000203166002900480156106d75780601f106106b55761010080835404028352918201916106d7565b820191906000526020600020905b8154815290600101906020018083116106c3575b5050915050908152602001604051809103902060009054906101000a900473ffffffffffffffffffffffffffffffffffffffff169050919050565b6000806000856000191660001916815260200190815260200160002060000160009054906101000a900460ff1615156107ff576040517f08c379a00000000000000000000000000000000000000000000000000000000081526004018080602001828103825260538152602001807f5570677261646561626c6520636f6e7472616374206d7573742065786973742081526020017f6265666f72652069742063616e20626520757067726164696e672e205472792081526020017f616464696e67206f6e6520696e73746561642e0000000000000000000000000081525060600191505060405180910390fd5b8151602083016000f09050826000808660001916600019168152602001908152602001600020600101908051906020019061083b929190610ecf565b50806000808660001916600019168152602001908152602001600020600201846040518082805190602001908083835b602083101515610890578051825260208201915060208101905060208303925061086b565b6001836020036101000a038019825116818451168082178552505050505050905001915050908152602001604051809103902060006101000a81548173ffffffffffffffffffffffffffffffffffffffff021916908373ffffffffffffffffffffffffffffffffffffffff1602179055507f6d4b7661ad48c3dedcdd78313e4ae8888ee40a2e08ee256b9e33c2d5f749dbeb848483604051808460001916600019168152602001806020018373ffffffffffffffffffffffffffffffffffffffff1673ffffffffffffffffffffffffffffffffffffffff168152602001828103825284818151815260200191508051906020019080838360005b838110156109a557808201518184015260208101905061098a565b50505050905090810190601f1680156109d25780820380516001836020036101000a031916815260200191505b5094505050505060405180910390a150505050565b60008060008460001916600019168152602001908152602001600020600201826040518082805190602001908083835b602083101515610a3c5780518252602082019150602081019050602083039250610a17565b6001836020036101000a038019825116818451168082178552505050505050905001915050908152602001604051809103902060009054906101000a900473ffffffffffffffffffffffffffffffffffffffff16905092915050565b60008073ffffffffffffffffffffffffffffffffffffffff16600080856000191660001916815260200190815260200160002060000160019054906101000a900473ffffffffffffffffffffffffffffffffffffffff1673ffffffffffffffffffffffffffffffffffffffff16141515610ba0576040517f08c379a00000000000000000000000000000000000000000000000000000000081526004018080602001828103825260328152602001807f4f6e6c79206f6e652070726f78792063616e206578697374207065722075706781526020017f7261646561626c6520636f6e74726163742e000000000000000000000000000081525060400191505060405180910390fd5b3083610baa610f4f565b808373ffffffffffffffffffffffffffffffffffffffff1673ffffffffffffffffffffffffffffffffffffffff168152602001826000191660001916815260200192505050604051809103906000f080158015610c0b573d6000803e3d6000fd5b5090508073ffffffffffffffffffffffffffffffffffffffff16826040516024018080602001828103825283818151815260200191508051906020019080838360005b83811015610c69578082015181840152602081019050610c4e565b50505050905090810190601f168015610c965780820380516001836020036101000a031916815260200191505b50925050506040516020818303038152906040527f4ddf47d4000000000000000000000000000000000000000000000000000000007bffffffffffffffffffffffffffffffffffffffffffffffffffffffff19166020820180517bffffffffffffffffffffffffffffffffffffffffffffffffffffffff838183161783525050505060405180828051906020019080838360005b83811015610d45578082015181840152602081019050610d2a565b50505050905090810190601f168015610d725780820380516001836020036101000a031916815260200191505b509150506000604051808303816000865af19150501515610dfb576040517f08c379a000000000000000000000000000000000000000000000000000000000815260040180806020018281038252600c8152602001807f496e6974206661696c65642e000000000000000000000000000000000000000081525060200191505060405180910390fd5b80600080856000191660001916815260200190815260200160002060000160016101000a81548173ffffffffffffffffffffffffffffffffffffffff021916908373ffffffffffffffffffffffffffffffffffffffff1602179055507f90f293438888f9eb36cfc860a1bccfc3da50bef1e3e97422deadaede67c93a9f83826040518083600019166000191681526020018273ffffffffffffffffffffffffffffffffffffffff1673ffffffffffffffffffffffffffffffffffffffff1681526020019250505060405180910390a1505050565b828054600181600116156101000203166002900490600052602060002090601f016020900481019282601f10610f1057805160ff1916838001178555610f3e565b82800160010185558215610f3e579182015b82811115610f3d578251825591602001919060010190610f22565b5b509050610f4b9190610f5f565b5090565b60405161029480610f8583390190565b610f8191905b80821115610f7d576000816000905550600101610f65565b5090565b905600608060405234801561001057600080fd5b50604051604080610294833981018060405281019080805190602001909291908051906020019092919050505060008060405180807f696f2e6172612e70726f78792e73746f7261676500000000000000000000000081525060140190506040518091039020915060405180807f696f2e6172612e70726f78792e636f6e74726163744e616d6500000000000000815250601901905060405180910390209050838255828155505050506101cb806100c96000396000f300608060405260008060008060008060405180807f696f2e6172612e70726f78792e73746f7261676500000000000000000000000081525060140190506040518091039020955060405180807f696f2e6172612e70726f78792e636f6e74726163744e616d650000000000000081525060190190506040518091039020945085549350845492508391508173ffffffffffffffffffffffffffffffffffffffff1663a9a2f2eb846040518263ffffffff167c0100000000000000000000000000000000000000000000000000000000028152600401808260001916600019168152602001915050602060405180830381600087803b1580156100ff57600080fd5b505af1158015610113573d6000803e3d6000fd5b505050506040513d602081101561012957600080fd5b81019080805190602001909291905050509050600073ffffffffffffffffffffffffffffffffffffffff168173ffffffffffffffffffffffffffffffffffffffff161415151561017857600080fd5b60405136600082376000803683855af43d806000843e816000811461019b578184f35b8184fd00a165627a7a723058202575b29bcf423f2340944f27affcf39a45b383e83bfcadacfd551cf11786485d0029a165627a7a72305820abec8b744e9ff0bcb6d702b80d5845bc28deef8cd0dc8732269699527276f32e0029",
  "source": "pragma solidity ^0.4.24;\n\nimport \"./ignored_contracts/AraProxy.sol\";\n\ncontract AraRegistry {\n  mapping (bytes32 => UpgradeableContract) private contracts_; // keccak256(contractname) => struct\n\n  struct UpgradeableContract {\n    bool initialized_;\n\n    address proxy_;\n    string latestVersion_;\n    mapping (string => address) versions_;\n  }\n\n  event UpgradeableContractAdded(bytes32 _contractName, string _version, address _address);\n  event ContractUpgraded(bytes32 _contractName, string _version, address _address);\n  event ProxyDeployed(bytes32 _contractName, address _address);\n\n  function getLatestVersionAddress(bytes32 _contractName) public view returns (address) {\n    return contracts_[_contractName].versions_[contracts_[_contractName].latestVersion_];\n  }\n\n  function getUpgradeableContractAddress(bytes32 _contractName, string _version) public view returns (address) {\n    return contracts_[_contractName].versions_[_version];\n  }\n\n  function addNewUpgradeableContract(bytes32 _contractName, string _version, bytes _code, bytes _data) public {\n    require(!contracts_[_contractName].initialized_, \"Upgradeable contract already exists. Try upgrading instead.\");\n    address deployedAddress;\n    assembly {\n      deployedAddress := create(0, add(_code, 0x20), mload(_code))\n    }\n\n    contracts_[_contractName].initialized_ = true;\n    contracts_[_contractName].latestVersion_ = _version;\n    contracts_[_contractName].versions_[_version] = deployedAddress;\n    _deployProxy(_contractName, _data);\n\n    emit UpgradeableContractAdded(_contractName, _version, deployedAddress);\n  }\n\n  function upgradeContract(bytes32 _contractName, string _version, bytes _code) public {\n    require(contracts_[_contractName].initialized_, \"Upgradeable contract must exist before it can be upgrading. Try adding one instead.\");\n    address deployedAddress;\n    assembly {\n      deployedAddress := create(0, add(_code, 0x20), mload(_code))\n    }\n\n    contracts_[_contractName].latestVersion_ = _version;\n    contracts_[_contractName].versions_[_version] = deployedAddress;\n\n    emit ContractUpgraded(_contractName, _version, deployedAddress);\n  }\n\n  function _deployProxy(bytes32 _contractName, bytes _data) private {\n    require(contracts_[_contractName].proxy_ == address(0), \"Only one proxy can exist per upgradeable contract.\");\n    AraProxy proxy = new AraProxy(address(this), _contractName);\n    require(address(proxy).call(abi.encodeWithSignature(\"init(bytes)\", _data)), \"Init failed.\");\n    contracts_[_contractName].proxy_ = proxy;\n\n    emit ProxyDeployed(_contractName, proxy);\n  }\n}\n",
  "sourcePath": "/Users/ericjiang/Littlstar/ara-contracts/contracts/AraRegistry.sol",
  "compiler": {
    "name": "solc",
    "version": "0.4.24+commit.e67f0147.Emscripten.clang"
  },
  "schemaVersion": "2.0.1",
  "updatedAt": "2019-01-14T22:25:50.512Z"
}