{
  "contractName": "AraRegistry",
  "abi": [
    {
      "anonymous": false,
      "inputs": [
        {
          "indexed": false,
          "name": "_contractName",
          "type": "string"
        },
        {
          "indexed": false,
          "name": "_version",
          "type": "string"
        },
        {
          "indexed": false,
          "name": "_address",
          "type": "address"
        }
      ],
      "name": "UpgradeableContractAdded",
      "type": "event"
    },
    {
      "anonymous": false,
      "inputs": [
        {
          "indexed": false,
          "name": "_contractName",
          "type": "string"
        },
        {
          "indexed": false,
          "name": "_version",
          "type": "string"
        },
        {
          "indexed": false,
          "name": "_address",
          "type": "address"
        }
      ],
      "name": "ContractUpgraded",
      "type": "event"
    },
    {
      "anonymous": false,
      "inputs": [
        {
          "indexed": false,
          "name": "_contractName",
          "type": "string"
        },
        {
          "indexed": false,
          "name": "_address",
          "type": "address"
        }
      ],
      "name": "ProxyDeployed",
      "type": "event"
    },
    {
      "constant": true,
      "inputs": [
        {
          "name": "_contractName",
          "type": "string"
        }
      ],
      "name": "getLatestVersionAddress",
      "outputs": [
        {
          "name": "",
          "type": "address"
        }
      ],
      "payable": false,
      "stateMutability": "view",
      "type": "function"
    },
    {
      "constant": true,
      "inputs": [
        {
          "name": "_contractName",
          "type": "string"
        },
        {
          "name": "_version",
          "type": "string"
        }
      ],
      "name": "getUpgradeableContractAddress",
      "outputs": [
        {
          "name": "",
          "type": "address"
        }
      ],
      "payable": false,
      "stateMutability": "view",
      "type": "function"
    },
    {
      "constant": false,
      "inputs": [
        {
          "name": "_contractName",
          "type": "string"
        },
        {
          "name": "_version",
          "type": "string"
        },
        {
          "name": "_code",
          "type": "bytes"
        },
        {
          "name": "_data",
          "type": "bytes"
        }
      ],
      "name": "addNewUpgradeableContract",
      "outputs": [],
      "payable": false,
      "stateMutability": "nonpayable",
      "type": "function"
    },
    {
      "constant": false,
      "inputs": [
        {
          "name": "_contractName",
          "type": "string"
        },
        {
          "name": "_version",
          "type": "string"
        },
        {
          "name": "_code",
          "type": "bytes"
        }
      ],
      "name": "upgradeContract",
      "outputs": [],
      "payable": false,
      "stateMutability": "nonpayable",
      "type": "function"
    }
  ],
  "bytecode": "0x608060405234801561001057600080fd5b5061180d806100206000396000f300608060405260043610610062576000357c0100000000000000000000000000000000000000000000000000000000900463ffffffff168063216abca21461006757806394c9b2751461015c57806396532a8f14610297578063eba60c2c14610340575b600080fd5b34801561007357600080fd5b5061015a600480360381019080803590602001908201803590602001908080601f0160208091040260200160405190810160405280939291908181526020018383808284378201915050505050509192919290803590602001908201803590602001908080601f0160208091040260200160405190810160405280939291908181526020018383808284378201915050505050509192919290803590602001908201803590602001908080601f016020809104026020016040519081016040528093929190818152602001838380828437820191505050505050919291929050505061042f565b005b34801561016857600080fd5b50610295600480360381019080803590602001908201803590602001908080601f0160208091040260200160405190810160405280939291908181526020018383808284378201915050505050509192919290803590602001908201803590602001908080601f0160208091040260200160405190810160405280939291908181526020018383808284378201915050505050509192919290803590602001908201803590602001908080601f0160208091040260200160405190810160405280939291908181526020018383808284378201915050505050509192919290803590602001908201803590602001908080601f0160208091040260200160405190810160405280939291908181526020018383808284378201915050505050509192919290505050610853565b005b3480156102a357600080fd5b506102fe600480360381019080803590602001908201803590602001908080601f0160208091040260200160405190810160405280939291908181526020018383808284378201915050505050509192919290505050610ce4565b604051808273ffffffffffffffffffffffffffffffffffffffff1673ffffffffffffffffffffffffffffffffffffffff16815260200191505060405180910390f35b34801561034c57600080fd5b506103ed600480360381019080803590602001908201803590602001908080601f0160208091040260200160405190810160405280939291908181526020018383808284378201915050505050509192919290803590602001908201803590602001908080601f0160208091040260200160405190810160405280939291908181526020018383808284378201915050505050509192919290505050610e57565b604051808273ffffffffffffffffffffffffffffffffffffffff1673ffffffffffffffffffffffffffffffffffffffff16815260200191505060405180910390f35b600080846040518082805190602001908083835b6020831015156104685780518252602082019150602081019050602083039250610443565b6001836020036101000a038019825116818451168082178552505050505050905001915050908152602001604051809103902060000160009054906101000a900460ff16151561056c576040517f08c379a00000000000000000000000000000000000000000000000000000000081526004018080602001828103825260538152602001807f5570677261646561626c6520636f6e7472616374206d7573742065786973742081526020017f6265666f72652069742063616e20626520757067726164696e672e205472792081526020017f616464696e67206f6e6520696e73746561642e0000000000000000000000000081525060600191505060405180910390fd5b8151602083016000f09050826000856040518082805190602001908083835b6020831015156105b0578051825260208201915060208101905060208303925061058b565b6001836020036101000a038019825116818451168082178552505050505050905001915050908152602001604051809103902060010190805190602001906105f99291906114eb565b50806000856040518082805190602001908083835b602083101515610633578051825260208201915060208101905060208303925061060e565b6001836020036101000a0380198251168184511680821785525050505050509050019150509081526020016040518091039020600201846040518082805190602001908083835b60208310151561069f578051825260208201915060208101905060208303925061067a565b6001836020036101000a038019825116818451168082178552505050505050905001915050908152602001604051809103902060006101000a81548173ffffffffffffffffffffffffffffffffffffffff021916908373ffffffffffffffffffffffffffffffffffffffff1602179055507f063a4c9a2c785bda3f06adcca182ccca41e5c5ac24c963338ccd430a15c3c2848484836040518080602001806020018473ffffffffffffffffffffffffffffffffffffffff1673ffffffffffffffffffffffffffffffffffffffff168152602001838103835286818151815260200191508051906020019080838360005b838110156107aa57808201518184015260208101905061078f565b50505050905090810190601f1680156107d75780820380516001836020036101000a031916815260200191505b50838103825285818151815260200191508051906020019080838360005b838110156108105780820151818401526020810190506107f5565b50505050905090810190601f16801561083d5780820380516001836020036101000a031916815260200191505b509550505050505060405180910390a150505050565b600080856040518082805190602001908083835b60208310151561088c5780518252602082019150602081019050602083039250610867565b6001836020036101000a038019825116818451168082178552505050505050905001915050908152602001604051809103902060000160009054906101000a900460ff1615151561096b576040517f08c379a000000000000000000000000000000000000000000000000000000000815260040180806020018281038252603b8152602001807f5570677261646561626c6520636f6e747261637420616c72656164792065786981526020017f7374732e2054727920757067726164696e6720696e73746561642e000000000081525060400191505060405180910390fd5b8251602084016000f0905060016000866040518082805190602001908083835b6020831015156109b0578051825260208201915060208101905060208303925061098b565b6001836020036101000a038019825116818451168082178552505050505050905001915050908152602001604051809103902060000160006101000a81548160ff021916908315150217905550836000866040518082805190602001908083835b602083101515610a365780518252602082019150602081019050602083039250610a11565b6001836020036101000a03801982511681845116808217855250505050505090500191505090815260200160405180910390206001019080519060200190610a7f9291906114eb565b50806000866040518082805190602001908083835b602083101515610ab95780518252602082019150602081019050602083039250610a94565b6001836020036101000a0380198251168184511680821785525050505050509050019150509081526020016040518091039020600201856040518082805190602001908083835b602083101515610b255780518252602082019150602081019050602083039250610b00565b6001836020036101000a038019825116818451168082178552505050505050905001915050908152602001604051809103902060006101000a81548173ffffffffffffffffffffffffffffffffffffffff021916908373ffffffffffffffffffffffffffffffffffffffff160217905550610ba08583610f58565b7f46df03ab9627f9df314c1b13308c486bfe4d16e586554238c19ef8e639f097668585836040518080602001806020018473ffffffffffffffffffffffffffffffffffffffff1673ffffffffffffffffffffffffffffffffffffffff168152602001838103835286818151815260200191508051906020019080838360005b83811015610c3a578082015181840152602081019050610c1f565b50505050905090810190601f168015610c675780820380516001836020036101000a031916815260200191505b50838103825285818151815260200191508051906020019080838360005b83811015610ca0578082015181840152602081019050610c85565b50505050905090810190601f168015610ccd5780820380516001836020036101000a031916815260200191505b509550505050505060405180910390a15050505050565b600080826040518082805190602001908083835b602083101515610d1d5780518252602082019150602081019050602083039250610cf8565b6001836020036101000a03801982511681845116808217855250505050505090500191505090815260200160405180910390206002016000836040518082805190602001908083835b602083101515610d8b5780518252602082019150602081019050602083039250610d66565b6001836020036101000a03801982511681845116808217855250505050505090500191505090815260200160405180910390206001016040518082805460018160011615610100020316600290048015610e1c5780601f10610dfa576101008083540402835291820191610e1c565b820191906000526020600020905b815481529060010190602001808311610e08575b5050915050908152602001604051809103902060009054906101000a900473ffffffffffffffffffffffffffffffffffffffff169050919050565b600080836040518082805190602001908083835b602083101515610e905780518252602082019150602081019050602083039250610e6b565b6001836020036101000a0380198251168184511680821785525050505050509050019150509081526020016040518091039020600201826040518082805190602001908083835b602083101515610efc5780518252602082019150602081019050602083039250610ed7565b6001836020036101000a038019825116818451168082178552505050505050905001915050908152602001604051809103902060009054906101000a900473ffffffffffffffffffffffffffffffffffffffff16905092915050565b60008073ffffffffffffffffffffffffffffffffffffffff166000846040518082805190602001908083835b602083101515610fa95780518252602082019150602081019050602083039250610f84565b6001836020036101000a038019825116818451168082178552505050505050905001915050908152602001604051809103902060000160019054906101000a900473ffffffffffffffffffffffffffffffffffffffff1673ffffffffffffffffffffffffffffffffffffffff161415156110b1576040517f08c379a00000000000000000000000000000000000000000000000000000000081526004018080602001828103825260328152602001807f4f6e6c79206f6e652070726f78792063616e206578697374207065722075706781526020017f7261646561626c6520636f6e74726163742e000000000000000000000000000081525060400191505060405180910390fd5b30836110bb61156b565b808373ffffffffffffffffffffffffffffffffffffffff1673ffffffffffffffffffffffffffffffffffffffff16815260200180602001828103825283818151815260200191508051906020019080838360005b8381101561112a57808201518184015260208101905061110f565b50505050905090810190601f1680156111575780820380516001836020036101000a031916815260200191505b509350505050604051809103906000f080158015611179573d6000803e3d6000fd5b5090508073ffffffffffffffffffffffffffffffffffffffff16826040516024018080602001828103825283818151815260200191508051906020019080838360005b838110156111d75780820151818401526020810190506111bc565b50505050905090810190601f1680156112045780820380516001836020036101000a031916815260200191505b50925050506040516020818303038152906040527f4ddf47d4000000000000000000000000000000000000000000000000000000007bffffffffffffffffffffffffffffffffffffffffffffffffffffffff19166020820180517bffffffffffffffffffffffffffffffffffffffffffffffffffffffff838183161783525050505060405180828051906020019080838360005b838110156112b3578082015181840152602081019050611298565b50505050905090810190601f1680156112e05780820380516001836020036101000a031916815260200191505b509150506000604051808303816000865af19150501515611369576040517f08c379a000000000000000000000000000000000000000000000000000000000815260040180806020018281038252600c8152602001807f496e6974206661696c65642e000000000000000000000000000000000000000081525060200191505060405180910390fd5b806000846040518082805190602001908083835b6020831015156113a2578051825260208201915060208101905060208303925061137d565b6001836020036101000a038019825116818451168082178552505050505050905001915050908152602001604051809103902060000160016101000a81548173ffffffffffffffffffffffffffffffffffffffff021916908373ffffffffffffffffffffffffffffffffffffffff1602179055507f6246fb24a5ca5b225a8728a6747c3c36a2f0761f08968fbb016313d80e56dfa3838260405180806020018373ffffffffffffffffffffffffffffffffffffffff1673ffffffffffffffffffffffffffffffffffffffff168152602001828103825284818151815260200191508051906020019080838360005b838110156114ab578082015181840152602081019050611490565b50505050905090810190601f1680156114d85780820380516001836020036101000a031916815260200191505b50935050505060405180910390a1505050565b828054600181600116156101000203166002900490600052602060002090601f016020900481019282601f1061152c57805160ff191683800117855561155a565b8280016001018555821561155a579182015b8281111561155957825182559160200191906001019061153e565b5b509050611567919061157b565b5090565b604051610241806115a183390190565b61159d91905b80821115611599576000816000905550600101611581565b5090565b905600608060405234801561001057600080fd5b506040516102413803806102418339810180604052810190808051906020019092919080518201929190505050600060405180807f696f2e6172612e70726f78792e73746f726167650000000000000000000000008152506014019050604051809103902090508281555050506101b58061008c6000396000f300608060405260008060008060405180807f696f2e6172612e70726f78792e73746f72616765000000000000000000000000815250601401905060405180910390209350835492508291508173ffffffffffffffffffffffffffffffffffffffff166396532a8f6040518163ffffffff167c01000000000000000000000000000000000000000000000000000000000281526004018080602001828103825260158152602001807f52656769737472792e736f6c3a52656769737472790000000000000000000000815250602001915050602060405180830381600087803b1580156100e957600080fd5b505af11580156100fd573d6000803e3d6000fd5b505050506040513d602081101561011357600080fd5b81019080805190602001909291905050509050600073ffffffffffffffffffffffffffffffffffffffff168173ffffffffffffffffffffffffffffffffffffffff161415151561016257600080fd5b60405136600082376000803683855af43d806000843e8160008114610185578184f35b8184fd00a165627a7a723058203278f5f1a4ea140249628d4643a72d93084e6dfaec94ae4b20fbcd5e0f1438f90029a165627a7a723058209bfde1bf195528bc7cd2bda08f3a303d4240e89d73bfe639a514ea7a209b88bc0029",
  "source": "pragma solidity ^0.4.24;\n\nimport \"./ignored_contracts/AraProxy.sol\";\n\ncontract AraRegistry {\n  mapping (string => UpgradeableContract) private contracts_; // contract name => struct\n\n  struct UpgradeableContract {\n    bool initialized_;\n\n    address proxy_;\n    string latestVersion_;\n    mapping (string => address) versions_;\n  }\n\n  event UpgradeableContractAdded(string _contractName, string _version, address _address);\n  event ContractUpgraded(string _contractName, string _version, address _address);\n  event ProxyDeployed(string _contractName, address _address);\n\n  function getLatestVersionAddress(string _contractName) public view returns (address) {\n    return contracts_[_contractName].versions_[contracts_[_contractName].latestVersion_];\n  }\n\n  function getUpgradeableContractAddress(string _contractName, string _version) public view returns (address) {\n    return contracts_[_contractName].versions_[_version];\n  }\n\n  function addNewUpgradeableContract(string _contractName, string _version, bytes _code, bytes _data) public {\n    require(!contracts_[_contractName].initialized_, \"Upgradeable contract already exists. Try upgrading instead.\");\n    address deployedAddress;\n    assembly {\n      deployedAddress := create(0, add(_code, 0x20), mload(_code))\n    }\n\n    contracts_[_contractName].initialized_ = true;\n    contracts_[_contractName].latestVersion_ = _version;\n    contracts_[_contractName].versions_[_version] = deployedAddress;\n    _deployProxy(_contractName, _data);\n\n    emit UpgradeableContractAdded(_contractName, _version, deployedAddress);\n  }\n\n  function upgradeContract(string _contractName, string _version, bytes _code) public {\n    require(contracts_[_contractName].initialized_, \"Upgradeable contract must exist before it can be upgrading. Try adding one instead.\");\n    address deployedAddress;\n    assembly {\n      deployedAddress := create(0, add(_code, 0x20), mload(_code))\n    }\n\n    contracts_[_contractName].latestVersion_ = _version;\n    contracts_[_contractName].versions_[_version] = deployedAddress;\n\n    emit ContractUpgraded(_contractName, _version, deployedAddress);\n  }\n\n  function _deployProxy(string _contractName, bytes _data) private {\n    require(contracts_[_contractName].proxy_ == address(0), \"Only one proxy can exist per upgradeable contract.\");\n    AraProxy proxy = new AraProxy(address(this), _contractName);\n    require(address(proxy).call(abi.encodeWithSignature(\"init(bytes)\", _data)), \"Init failed.\");\n    contracts_[_contractName].proxy_ = proxy;\n\n    emit ProxyDeployed(_contractName, proxy);\n  }\n}\n",
  "sourcePath": "/Users/ericjiang/Littlstar/ara-contracts/contracts/AraRegistry.sol",
  "compiler": {
    "name": "solc",
    "version": "0.4.24+commit.e67f0147.Emscripten.clang"
  },
  "schemaVersion": "2.0.1",
  "updatedAt": "2019-01-10T21:15:08.065Z"
}