{
  "contractName": "AraRegistry",
  "abi": [
    {
      "constant": true,
      "inputs": [],
      "name": "owner_",
      "outputs": [
        {
          "name": "",
          "type": "address"
        }
      ],
      "payable": false,
      "stateMutability": "view",
      "type": "function"
    },
    {
      "inputs": [],
      "payable": false,
      "stateMutability": "nonpayable",
      "type": "constructor"
    },
    {
      "anonymous": false,
      "inputs": [
        {
          "indexed": false,
          "name": "_contractName",
          "type": "bytes32"
        },
        {
          "indexed": false,
          "name": "_version",
          "type": "string"
        },
        {
          "indexed": false,
          "name": "_address",
          "type": "address"
        }
      ],
      "name": "UpgradeableContractAdded",
      "type": "event"
    },
    {
      "anonymous": false,
      "inputs": [
        {
          "indexed": false,
          "name": "_contractName",
          "type": "bytes32"
        },
        {
          "indexed": false,
          "name": "_version",
          "type": "string"
        },
        {
          "indexed": false,
          "name": "_address",
          "type": "address"
        }
      ],
      "name": "ContractUpgraded",
      "type": "event"
    },
    {
      "anonymous": false,
      "inputs": [
        {
          "indexed": false,
          "name": "_contractName",
          "type": "bytes32"
        },
        {
          "indexed": false,
          "name": "_address",
          "type": "address"
        }
      ],
      "name": "ProxyDeployed",
      "type": "event"
    },
    {
      "constant": true,
      "inputs": [
        {
          "name": "_contractName",
          "type": "bytes32"
        }
      ],
      "name": "getLatestVersionAddress",
      "outputs": [
        {
          "name": "",
          "type": "address"
        }
      ],
      "payable": false,
      "stateMutability": "view",
      "type": "function"
    },
    {
      "constant": true,
      "inputs": [
        {
          "name": "_contractName",
          "type": "bytes32"
        },
        {
          "name": "_version",
          "type": "string"
        }
      ],
      "name": "getUpgradeableContractAddress",
      "outputs": [
        {
          "name": "",
          "type": "address"
        }
      ],
      "payable": false,
      "stateMutability": "view",
      "type": "function"
    },
    {
      "constant": false,
      "inputs": [
        {
          "name": "_contractName",
          "type": "bytes32"
        },
        {
          "name": "_version",
          "type": "string"
        },
        {
          "name": "_code",
          "type": "bytes"
        },
        {
          "name": "_data",
          "type": "bytes"
        }
      ],
      "name": "addNewUpgradeableContract",
      "outputs": [],
      "payable": false,
      "stateMutability": "nonpayable",
      "type": "function"
    },
    {
      "constant": false,
      "inputs": [
        {
          "name": "_contractName",
          "type": "bytes32"
        },
        {
          "name": "_version",
          "type": "string"
        },
        {
          "name": "_code",
          "type": "bytes"
        }
      ],
      "name": "upgradeContract",
      "outputs": [],
      "payable": false,
      "stateMutability": "nonpayable",
      "type": "function"
    }
  ],
  "bytecode": "0x608060405234801561001057600080fd5b50336000806101000a81548173ffffffffffffffffffffffffffffffffffffffff021916908373ffffffffffffffffffffffffffffffffffffffff16021790555061145e806100606000396000f30060806040526004361061006d576000357c0100000000000000000000000000000000000000000000000000000000900463ffffffff1680630726755b14610072578063a9a2f2eb14610175578063d4520d22146101e6578063e7663079146102a3578063f8df27b1146102fa575b600080fd5b34801561007e57600080fd5b506101736004803603810190808035600019169060200190929190803590602001908201803590602001908080601f0160208091040260200160405190810160405280939291908181526020018383808284378201915050505050509192919290803590602001908201803590602001908080601f0160208091040260200160405190810160405280939291908181526020018383808284378201915050505050509192919290803590602001908201803590602001908080601f01602080910402602001604051908101604052809392919081815260200183838082843782019150505050505091929192905050506103b1565b005b34801561018157600080fd5b506101a46004803603810190808035600019169060200190929190505050610769565b604051808273ffffffffffffffffffffffffffffffffffffffff1673ffffffffffffffffffffffffffffffffffffffff16815260200191505060405180910390f35b3480156101f257600080fd5b506102a16004803603810190808035600019169060200190929190803590602001908201803590602001908080601f0160208091040260200160405190810160405280939291908181526020018383808284378201915050505050509192919290803590602001908201803590602001908080601f016020809104026020016040519081016040528093929190818152602001838380828437820191505050505050919291929050505061083d565b005b3480156102af57600080fd5b506102b8610bd9565b604051808273ffffffffffffffffffffffffffffffffffffffff1673ffffffffffffffffffffffffffffffffffffffff16815260200191505060405180910390f35b34801561030657600080fd5b5061036f6004803603810190808035600019169060200190929190803590602001908201803590602001908080601f0160208091040260200160405190810160405280939291908181526020018383808284378201915050505050509192919290505050610bfe565b604051808273ffffffffffffffffffffffffffffffffffffffff1673ffffffffffffffffffffffffffffffffffffffff16815260200191505060405180910390f35b60008060009054906101000a900473ffffffffffffffffffffffffffffffffffffffff1673ffffffffffffffffffffffffffffffffffffffff163373ffffffffffffffffffffffffffffffffffffffff16141515610477576040517f08c379a00000000000000000000000000000000000000000000000000000000081526004018080602001828103825260168152602001807f53656e646572206e6f7420617574686f72697a65642e0000000000000000000081525060200191505060405180910390fd5b60016000866000191660001916815260200190815260200160002060000160009054906101000a900460ff1615151561053e576040517f08c379a000000000000000000000000000000000000000000000000000000000815260040180806020018281038252603b8152602001807f5570677261646561626c6520636f6e747261637420616c72656164792065786981526020017f7374732e2054727920757067726164696e6720696e73746561642e000000000081525060400191505060405180910390fd5b8251602084016000f090506001806000876000191660001916815260200190815260200160002060000160006101000a81548160ff0219169083151502179055508360016000876000191660001916815260200190815260200160002060010190805190602001906105b19291906110e9565b5080600160008760001916600019168152602001908152602001600020600201856040518082805190602001908083835b60208310151561060757805182526020820191506020810190506020830392506105e2565b6001836020036101000a038019825116818451168082178552505050505050905001915050908152602001604051809103902060006101000a81548173ffffffffffffffffffffffffffffffffffffffff021916908373ffffffffffffffffffffffffffffffffffffffff1602179055506106828583610cb0565b7f931f56ddf3dd3773b55ba19012b5eed0c84937b72b693d6bf57ac3986143295a858583604051808460001916600019168152602001806020018373ffffffffffffffffffffffffffffffffffffffff1673ffffffffffffffffffffffffffffffffffffffff168152602001828103825284818151815260200191508051906020019080838360005b8381101561072657808201518184015260208101905061070b565b50505050905090810190601f1680156107535780820380516001836020036101000a031916815260200191505b5094505050505060405180910390a15050505050565b600060016000836000191660001916815260200190815260200160002060020160016000846000191660001916815260200190815260200160002060010160405180828054600181600116156101000203166002900480156108025780601f106107e0576101008083540402835291820191610802565b820191906000526020600020905b8154815290600101906020018083116107ee575b5050915050908152602001604051809103902060009054906101000a900473ffffffffffffffffffffffffffffffffffffffff169050919050565b60008060009054906101000a900473ffffffffffffffffffffffffffffffffffffffff1673ffffffffffffffffffffffffffffffffffffffff163373ffffffffffffffffffffffffffffffffffffffff16141515610903576040517f08c379a00000000000000000000000000000000000000000000000000000000081526004018080602001828103825260168152602001807f53656e646572206e6f7420617574686f72697a65642e0000000000000000000081525060200191505060405180910390fd5b60016000856000191660001916815260200190815260200160002060000160009054906101000a900460ff1615156109ef576040517f08c379a00000000000000000000000000000000000000000000000000000000081526004018080602001828103825260528152602001807f5570677261646561626c6520636f6e7472616374206d7573742065786973742081526020017f6265666f72652069742063616e2062652075706772616465642e20547279206181526020017f6464696e67206f6e6520696e73746561642e000000000000000000000000000081525060600191505060405180910390fd5b8151602083016000f09050826001600086600019166000191681526020019081526020016000206001019080519060200190610a2c9291906110e9565b5080600160008660001916600019168152602001908152602001600020600201846040518082805190602001908083835b602083101515610a825780518252602082019150602081019050602083039250610a5d565b6001836020036101000a038019825116818451168082178552505050505050905001915050908152602001604051809103902060006101000a81548173ffffffffffffffffffffffffffffffffffffffff021916908373ffffffffffffffffffffffffffffffffffffffff1602179055507f6d4b7661ad48c3dedcdd78313e4ae8888ee40a2e08ee256b9e33c2d5f749dbeb848483604051808460001916600019168152602001806020018373ffffffffffffffffffffffffffffffffffffffff1673ffffffffffffffffffffffffffffffffffffffff168152602001828103825284818151815260200191508051906020019080838360005b83811015610b97578082015181840152602081019050610b7c565b50505050905090810190601f168015610bc45780820380516001836020036101000a031916815260200191505b5094505050505060405180910390a150505050565b6000809054906101000a900473ffffffffffffffffffffffffffffffffffffffff1681565b6000600160008460001916600019168152602001908152602001600020600201826040518082805190602001908083835b602083101515610c545780518252602082019150602081019050602083039250610c2f565b6001836020036101000a038019825116818451168082178552505050505050905001915050908152602001604051809103902060009054906101000a900473ffffffffffffffffffffffffffffffffffffffff16905092915050565b60008073ffffffffffffffffffffffffffffffffffffffff1660016000856000191660001916815260200190815260200160002060000160019054906101000a900473ffffffffffffffffffffffffffffffffffffffff1673ffffffffffffffffffffffffffffffffffffffff16141515610db9576040517f08c379a00000000000000000000000000000000000000000000000000000000081526004018080602001828103825260328152602001807f4f6e6c79206f6e652070726f78792063616e206578697374207065722075706781526020017f7261646561626c6520636f6e74726163742e000000000000000000000000000081525060400191505060405180910390fd5b3083610dc3611169565b808373ffffffffffffffffffffffffffffffffffffffff1673ffffffffffffffffffffffffffffffffffffffff168152602001826000191660001916815260200192505050604051809103906000f080158015610e24573d6000803e3d6000fd5b5090508073ffffffffffffffffffffffffffffffffffffffff16826040516024018080602001828103825283818151815260200191508051906020019080838360005b83811015610e82578082015181840152602081019050610e67565b50505050905090810190601f168015610eaf5780820380516001836020036101000a031916815260200191505b50925050506040516020818303038152906040527f4ddf47d4000000000000000000000000000000000000000000000000000000007bffffffffffffffffffffffffffffffffffffffffffffffffffffffff19166020820180517bffffffffffffffffffffffffffffffffffffffffffffffffffffffff838183161783525050505060405180828051906020019080838360005b83811015610f5e578082015181840152602081019050610f43565b50505050905090810190601f168015610f8b5780820380516001836020036101000a031916815260200191505b509150506000604051808303816000865af19150501515611014576040517f08c379a000000000000000000000000000000000000000000000000000000000815260040180806020018281038252600c8152602001807f496e6974206661696c65642e000000000000000000000000000000000000000081525060200191505060405180910390fd5b8060016000856000191660001916815260200190815260200160002060000160016101000a81548173ffffffffffffffffffffffffffffffffffffffff021916908373ffffffffffffffffffffffffffffffffffffffff1602179055507f90f293438888f9eb36cfc860a1bccfc3da50bef1e3e97422deadaede67c93a9f83826040518083600019166000191681526020018273ffffffffffffffffffffffffffffffffffffffff1673ffffffffffffffffffffffffffffffffffffffff1681526020019250505060405180910390a1505050565b828054600181600116156101000203166002900490600052602060002090601f016020900481019282601f1061112a57805160ff1916838001178555611158565b82800160010185558215611158579182015b8281111561115757825182559160200191906001019061113c565b5b5090506111659190611179565b5090565b6040516102948061119f83390190565b61119b91905b8082111561119757600081600090555060010161117f565b5090565b905600608060405234801561001057600080fd5b50604051604080610294833981018060405281019080805190602001909291908051906020019092919050505060008060405180807f696f2e6172612e70726f78792e73746f7261676500000000000000000000000081525060140190506040518091039020915060405180807f696f2e6172612e70726f78792e636f6e74726163744e616d6500000000000000815250601901905060405180910390209050838255828155505050506101cb806100c96000396000f300608060405260008060008060008060405180807f696f2e6172612e70726f78792e73746f7261676500000000000000000000000081525060140190506040518091039020955060405180807f696f2e6172612e70726f78792e636f6e74726163744e616d650000000000000081525060190190506040518091039020945085549350845492508391508173ffffffffffffffffffffffffffffffffffffffff1663a9a2f2eb846040518263ffffffff167c0100000000000000000000000000000000000000000000000000000000028152600401808260001916600019168152602001915050602060405180830381600087803b1580156100ff57600080fd5b505af1158015610113573d6000803e3d6000fd5b505050506040513d602081101561012957600080fd5b81019080805190602001909291905050509050600073ffffffffffffffffffffffffffffffffffffffff168173ffffffffffffffffffffffffffffffffffffffff161415151561017857600080fd5b60405136600082376000803683855af43d806000843e816000811461019b578184f35b8184fd00a165627a7a723058206bcaec84664bcf951d816407851a20fa07a2cb2fd232b414a15c559dca024bfe0029a165627a7a7230582075039d62cd6676a9dc04e1be37807438311d478ba56b1a3abd0d2aafbc521e980029",
  "source": "pragma solidity ^0.4.24;\n\nimport \"./AraProxy.sol\";\n\ncontract AraRegistry {\n  address public owner_;\n  mapping (bytes32 => UpgradeableContract) private contracts_; // keccak256(contractname) => struct\n\n  struct UpgradeableContract {\n    bool initialized_;\n\n    address proxy_;\n    string latestVersion_;\n    mapping (string => address) versions_;\n  }\n\n  event UpgradeableContractAdded(bytes32 _contractName, string _version, address _address);\n  event ContractUpgraded(bytes32 _contractName, string _version, address _address);\n  event ProxyDeployed(bytes32 _contractName, address _address);\n\n  constructor() public {\n    owner_ = msg.sender;\n  }\n\n  modifier restricted() {\n    require (\n      msg.sender == owner_,\n      \"Sender not authorized.\"\n    );\n    _;\n  }\n\n  function getLatestVersionAddress(bytes32 _contractName) public view returns (address) {\n    return contracts_[_contractName].versions_[contracts_[_contractName].latestVersion_];\n  }\n\n  function getUpgradeableContractAddress(bytes32 _contractName, string _version) public view returns (address) {\n    return contracts_[_contractName].versions_[_version];\n  }\n\n  function addNewUpgradeableContract(bytes32 _contractName, string _version, bytes _code, bytes _data) public restricted {\n    require(!contracts_[_contractName].initialized_, \"Upgradeable contract already exists. Try upgrading instead.\");\n    address deployedAddress;\n    assembly {\n      deployedAddress := create(0, add(_code, 0x20), mload(_code))\n    }\n\n    contracts_[_contractName].initialized_ = true;\n    contracts_[_contractName].latestVersion_ = _version;\n    contracts_[_contractName].versions_[_version] = deployedAddress;\n    _deployProxy(_contractName, _data);\n\n    emit UpgradeableContractAdded(_contractName, _version, deployedAddress);\n  }\n\n  function upgradeContract(bytes32 _contractName, string _version, bytes _code) public restricted {\n    require(contracts_[_contractName].initialized_, \"Upgradeable contract must exist before it can be upgraded. Try adding one instead.\");\n    address deployedAddress;\n    assembly {\n      deployedAddress := create(0, add(_code, 0x20), mload(_code))\n    }\n\n    contracts_[_contractName].latestVersion_ = _version;\n    contracts_[_contractName].versions_[_version] = deployedAddress;\n\n    emit ContractUpgraded(_contractName, _version, deployedAddress);\n  }\n\n  function _deployProxy(bytes32 _contractName, bytes _data) private {\n    require(contracts_[_contractName].proxy_ == address(0), \"Only one proxy can exist per upgradeable contract.\");\n    AraProxy proxy = new AraProxy(address(this), _contractName);\n    require(address(proxy).call(abi.encodeWithSignature(\"init(bytes)\", _data)), \"Init failed.\");\n    contracts_[_contractName].proxy_ = proxy;\n\n    emit ProxyDeployed(_contractName, proxy);\n  }\n}\n",
  "sourcePath": "/Users/ericjiang/Littlstar/ara-contracts/contracts/AraRegistry.sol",
  "compiler": {
    "name": "solc",
    "version": "0.4.24+commit.e67f0147.Emscripten.clang"
  },
  "schemaVersion": "2.0.1",
  "updatedAt": "2019-01-16T15:30:28.706Z"
}