{
  "contractName": "AraRegistry",
  "abi": [
    {
      "anonymous": false,
      "inputs": [
        {
          "indexed": false,
          "name": "_contractName",
          "type": "string"
        },
        {
          "indexed": false,
          "name": "_version",
          "type": "string"
        },
        {
          "indexed": false,
          "name": "_address",
          "type": "address"
        }
      ],
      "name": "UpgradeableContractAdded",
      "type": "event"
    },
    {
      "anonymous": false,
      "inputs": [
        {
          "indexed": false,
          "name": "_contractName",
          "type": "string"
        },
        {
          "indexed": false,
          "name": "_version",
          "type": "string"
        },
        {
          "indexed": false,
          "name": "_address",
          "type": "address"
        }
      ],
      "name": "ContractUpgraded",
      "type": "event"
    },
    {
      "anonymous": false,
      "inputs": [
        {
          "indexed": false,
          "name": "_contractName",
          "type": "string"
        },
        {
          "indexed": false,
          "name": "_address",
          "type": "address"
        }
      ],
      "name": "ProxyDeployed",
      "type": "event"
    },
    {
      "constant": true,
      "inputs": [
        {
          "name": "_contractName",
          "type": "string"
        }
      ],
      "name": "getLatestVersionAddress",
      "outputs": [
        {
          "name": "",
          "type": "address"
        }
      ],
      "payable": false,
      "stateMutability": "view",
      "type": "function"
    },
    {
      "constant": true,
      "inputs": [
        {
          "name": "_contractName",
          "type": "string"
        },
        {
          "name": "_version",
          "type": "string"
        }
      ],
      "name": "getUpgradeableContractAddress",
      "outputs": [
        {
          "name": "",
          "type": "address"
        }
      ],
      "payable": false,
      "stateMutability": "view",
      "type": "function"
    },
    {
      "constant": false,
      "inputs": [
        {
          "name": "_contractName",
          "type": "string"
        },
        {
          "name": "_version",
          "type": "string"
        },
        {
          "name": "_code",
          "type": "bytes"
        }
      ],
      "name": "addNewUpgradeableContract",
      "outputs": [],
      "payable": false,
      "stateMutability": "nonpayable",
      "type": "function"
    },
    {
      "constant": false,
      "inputs": [
        {
          "name": "_contractName",
          "type": "string"
        },
        {
          "name": "_version",
          "type": "string"
        },
        {
          "name": "_code",
          "type": "bytes"
        }
      ],
      "name": "upgradeContract",
      "outputs": [],
      "payable": false,
      "stateMutability": "nonpayable",
      "type": "function"
    }
  ],
  "bytecode": "0x608060405234801561001057600080fd5b506116ea806100206000396000f300608060405260043610610062576000357c0100000000000000000000000000000000000000000000000000000000900463ffffffff168063216abca21461006757806396532a8f1461015c578063aa2bbd5314610205578063eba60c2c146102fa575b600080fd5b34801561007357600080fd5b5061015a600480360381019080803590602001908201803590602001908080601f0160208091040260200160405190810160405280939291908181526020018383808284378201915050505050509192919290803590602001908201803590602001908080601f0160208091040260200160405190810160405280939291908181526020018383808284378201915050505050509192919290803590602001908201803590602001908080601f01602080910402602001604051908101604052809392919081815260200183838082843782019150505050505091929192905050506103e9565b005b34801561016857600080fd5b506101c3600480360381019080803590602001908201803590602001908080601f016020809104026020016040519081016040528093929190818152602001838380828437820191505050505050919291929050505061080d565b604051808273ffffffffffffffffffffffffffffffffffffffff1673ffffffffffffffffffffffffffffffffffffffff16815260200191505060405180910390f35b34801561021157600080fd5b506102f8600480360381019080803590602001908201803590602001908080601f0160208091040260200160405190810160405280939291908181526020018383808284378201915050505050509192919290803590602001908201803590602001908080601f0160208091040260200160405190810160405280939291908181526020018383808284378201915050505050509192919290803590602001908201803590602001908080601f0160208091040260200160405190810160405280939291908181526020018383808284378201915050505050509192919290505050610980565b005b34801561030657600080fd5b506103a7600480360381019080803590602001908201803590602001908080601f0160208091040260200160405190810160405280939291908181526020018383808284378201915050505050509192919290803590602001908201803590602001908080601f0160208091040260200160405190810160405280939291908181526020018383808284378201915050505050509192919290505050610e0f565b604051808273ffffffffffffffffffffffffffffffffffffffff1673ffffffffffffffffffffffffffffffffffffffff16815260200191505060405180910390f35b600080846040518082805190602001908083835b60208310151561042257805182526020820191506020810190506020830392506103fd565b6001836020036101000a038019825116818451168082178552505050505050905001915050908152602001604051809103902060000160009054906101000a900460ff161515610526576040517f08c379a00000000000000000000000000000000000000000000000000000000081526004018080602001828103825260538152602001807f5570677261646561626c6520636f6e7472616374206d7573742065786973742081526020017f6265666f72652069742063616e20626520757067726164696e672e205472792081526020017f616464696e67206f6e6520696e73746561642e0000000000000000000000000081525060600191505060405180910390fd5b8151602083016000f09050826000856040518082805190602001908083835b60208310151561056a5780518252602082019150602081019050602083039250610545565b6001836020036101000a038019825116818451168082178552505050505050905001915050908152602001604051809103902060010190805190602001906105b39291906112b5565b50806000856040518082805190602001908083835b6020831015156105ed57805182526020820191506020810190506020830392506105c8565b6001836020036101000a0380198251168184511680821785525050505050509050019150509081526020016040518091039020600201846040518082805190602001908083835b6020831015156106595780518252602082019150602081019050602083039250610634565b6001836020036101000a038019825116818451168082178552505050505050905001915050908152602001604051809103902060006101000a81548173ffffffffffffffffffffffffffffffffffffffff021916908373ffffffffffffffffffffffffffffffffffffffff1602179055507f063a4c9a2c785bda3f06adcca182ccca41e5c5ac24c963338ccd430a15c3c2848484836040518080602001806020018473ffffffffffffffffffffffffffffffffffffffff1673ffffffffffffffffffffffffffffffffffffffff168152602001838103835286818151815260200191508051906020019080838360005b83811015610764578082015181840152602081019050610749565b50505050905090810190601f1680156107915780820380516001836020036101000a031916815260200191505b50838103825285818151815260200191508051906020019080838360005b838110156107ca5780820151818401526020810190506107af565b50505050905090810190601f1680156107f75780820380516001836020036101000a031916815260200191505b509550505050505060405180910390a150505050565b600080826040518082805190602001908083835b6020831015156108465780518252602082019150602081019050602083039250610821565b6001836020036101000a03801982511681845116808217855250505050505090500191505090815260200160405180910390206002016000836040518082805190602001908083835b6020831015156108b4578051825260208201915060208101905060208303925061088f565b6001836020036101000a038019825116818451168082178552505050505050905001915050908152602001604051809103902060010160405180828054600181600116156101000203166002900480156109455780601f10610923576101008083540402835291820191610945565b820191906000526020600020905b815481529060010190602001808311610931575b5050915050908152602001604051809103902060009054906101000a900473ffffffffffffffffffffffffffffffffffffffff169050919050565b600080846040518082805190602001908083835b6020831015156109b95780518252602082019150602081019050602083039250610994565b6001836020036101000a038019825116818451168082178552505050505050905001915050908152602001604051809103902060000160009054906101000a900460ff16151515610a98576040517f08c379a000000000000000000000000000000000000000000000000000000000815260040180806020018281038252603b8152602001807f5570677261646561626c6520636f6e747261637420616c72656164792065786981526020017f7374732e2054727920757067726164696e6720696e73746561642e000000000081525060400191505060405180910390fd5b8151602083016000f0905060016000856040518082805190602001908083835b602083101515610add5780518252602082019150602081019050602083039250610ab8565b6001836020036101000a038019825116818451168082178552505050505050905001915050908152602001604051809103902060000160006101000a81548160ff021916908315150217905550826000856040518082805190602001908083835b602083101515610b635780518252602082019150602081019050602083039250610b3e565b6001836020036101000a03801982511681845116808217855250505050505090500191505090815260200160405180910390206001019080519060200190610bac9291906112b5565b50806000856040518082805190602001908083835b602083101515610be65780518252602082019150602081019050602083039250610bc1565b6001836020036101000a0380198251168184511680821785525050505050509050019150509081526020016040518091039020600201846040518082805190602001908083835b602083101515610c525780518252602082019150602081019050602083039250610c2d565b6001836020036101000a038019825116818451168082178552505050505050905001915050908152602001604051809103902060006101000a81548173ffffffffffffffffffffffffffffffffffffffff021916908373ffffffffffffffffffffffffffffffffffffffff160217905550610ccc84610f10565b7f46df03ab9627f9df314c1b13308c486bfe4d16e586554238c19ef8e639f097668484836040518080602001806020018473ffffffffffffffffffffffffffffffffffffffff1673ffffffffffffffffffffffffffffffffffffffff168152602001838103835286818151815260200191508051906020019080838360005b83811015610d66578082015181840152602081019050610d4b565b50505050905090810190601f168015610d935780820380516001836020036101000a031916815260200191505b50838103825285818151815260200191508051906020019080838360005b83811015610dcc578082015181840152602081019050610db1565b50505050905090810190601f168015610df95780820380516001836020036101000a031916815260200191505b509550505050505060405180910390a150505050565b600080836040518082805190602001908083835b602083101515610e485780518252602082019150602081019050602083039250610e23565b6001836020036101000a0380198251168184511680821785525050505050509050019150509081526020016040518091039020600201826040518082805190602001908083835b602083101515610eb45780518252602082019150602081019050602083039250610e8f565b6001836020036101000a038019825116818451168082178552505050505050905001915050908152602001604051809103902060009054906101000a900473ffffffffffffffffffffffffffffffffffffffff16905092915050565b60008073ffffffffffffffffffffffffffffffffffffffff166000836040518082805190602001908083835b602083101515610f615780518252602082019150602081019050602083039250610f3c565b6001836020036101000a038019825116818451168082178552505050505050905001915050908152602001604051809103902060000160019054906101000a900473ffffffffffffffffffffffffffffffffffffffff1673ffffffffffffffffffffffffffffffffffffffff16141515611069576040517f08c379a00000000000000000000000000000000000000000000000000000000081526004018080602001828103825260328152602001807f4f6e6c79206f6e652070726f78792063616e206578697374207065722075706781526020017f7261646561626c6520636f6e74726163742e000000000000000000000000000081525060400191505060405180910390fd5b3082611073611335565b808373ffffffffffffffffffffffffffffffffffffffff1673ffffffffffffffffffffffffffffffffffffffff16815260200180602001828103825283818151815260200191508051906020019080838360005b838110156110e25780820151818401526020810190506110c7565b50505050905090810190601f16801561110f5780820380516001836020036101000a031916815260200191505b509350505050604051809103906000f080158015611131573d6000803e3d6000fd5b509050806000836040518082805190602001908083835b60208310151561116d5780518252602082019150602081019050602083039250611148565b6001836020036101000a038019825116818451168082178552505050505050905001915050908152602001604051809103902060000160016101000a81548173ffffffffffffffffffffffffffffffffffffffff021916908373ffffffffffffffffffffffffffffffffffffffff1602179055507f6246fb24a5ca5b225a8728a6747c3c36a2f0761f08968fbb016313d80e56dfa3828260405180806020018373ffffffffffffffffffffffffffffffffffffffff1673ffffffffffffffffffffffffffffffffffffffff168152602001828103825284818151815260200191508051906020019080838360005b8381101561127657808201518184015260208101905061125b565b50505050905090810190601f1680156112a35780820380516001836020036101000a031916815260200191505b50935050505060405180910390a15050565b828054600181600116156101000203166002900490600052602060002090601f016020900481019282601f106112f657805160ff1916838001178555611324565b82800160010185558215611324579182015b82811115611323578251825591602001919060010190611308565b5b5090506113319190611345565b5090565b6040516103548061136b83390190565b61136791905b8082111561136357600081600090555060010161134b565b5090565b905600608060405234801561001057600080fd5b50604051610354380380610354833981018060405281019080805190602001909291908051820192919050505060008160009080519060200190610055929190610099565b5060405180807f696f2e6172612e70726f78792e7570677261646561626c65000000000000000081525060180190506040518091039020905082815550505061013e565b828054600181600116156101000203166002900490600052602060002090601f016020900481019282601f106100da57805160ff1916838001178555610108565b82800160010185558215610108579182015b828111156101075782518255916020019190600101906100ec565b5b5090506101159190610119565b5090565b61013b91905b8082111561013757600081600090555060010161011f565b5090565b90565b6102078061014d6000396000f300608060405260008060008060405180807f696f2e6172612e70726f78792e7570677261646561626c650000000000000000815250601801905060405180910390209350835492508291508173ffffffffffffffffffffffffffffffffffffffff166396532a8f60006040518263ffffffff167c0100000000000000000000000000000000000000000000000000000000028152600401808060200182810382528381815460018160011615610100020316600290048152602001915080546001816001161561010002031660029004801561011b5780601f106100f05761010080835404028352916020019161011b565b820191906000526020600020905b8154815290600101906020018083116100fe57829003601f168201915b505092505050602060405180830381600087803b15801561013b57600080fd5b505af115801561014f573d6000803e3d6000fd5b505050506040513d602081101561016557600080fd5b81019080805190602001909291905050509050600073ffffffffffffffffffffffffffffffffffffffff168173ffffffffffffffffffffffffffffffffffffffff16141515156101b457600080fd5b60405136600082376000803683855af43d806000843e81600081146101d7578184f35b8184fd00a165627a7a72305820fded0a9cece980d2b9eccc1c969c7dfde39475c3248a0ba1f716547dd4371c2f0029a165627a7a72305820b33a58663d226071347445ef6d12873f2979a3fad0ab44d2e4cf83928e8add750029",
  "source": "pragma solidity ^0.4.24;\n\nimport \"./AraProxy.sol\";\n\ncontract AraRegistry {\n  mapping (string => UpgradeableContract) private contracts_; // contract name => struct\n\n  struct UpgradeableContract {\n    bool initialized_;\n\n    address proxy_;\n    string latestVersion_;\n    mapping (string => address) versions_;\n  }\n\n  event UpgradeableContractAdded(string _contractName, string _version, address _address);\n  event ContractUpgraded(string _contractName, string _version, address _address);\n  event ProxyDeployed(string _contractName, address _address);\n\n  function getLatestVersionAddress(string _contractName) public view returns (address) {\n    return contracts_[_contractName].versions_[contracts_[_contractName].latestVersion_];\n  }\n\n  function getUpgradeableContractAddress(string _contractName, string _version) public view returns (address) {\n    return contracts_[_contractName].versions_[_version];\n  }\n\n  function addNewUpgradeableContract(string _contractName, string _version, bytes _code) public {\n    require(!contracts_[_contractName].initialized_, \"Upgradeable contract already exists. Try upgrading instead.\");\n    address deployedAddress;\n    assembly {\n      deployedAddress := create(0, add(_code, 0x20), mload(_code))\n    }\n\n    contracts_[_contractName].initialized_ = true;\n    contracts_[_contractName].latestVersion_ = _version;\n    contracts_[_contractName].versions_[_version] = deployedAddress;\n    _deployProxy(_contractName);\n\n    emit UpgradeableContractAdded(_contractName, _version, deployedAddress);\n  }\n\n  function upgradeContract(string _contractName, string _version, bytes _code) public {\n    require(contracts_[_contractName].initialized_, \"Upgradeable contract must exist before it can be upgrading. Try adding one instead.\");\n    address deployedAddress;\n    assembly {\n      deployedAddress := create(0, add(_code, 0x20), mload(_code))\n    }\n\n    contracts_[_contractName].latestVersion_ = _version;\n    contracts_[_contractName].versions_[_version] = deployedAddress;\n\n    emit ContractUpgraded(_contractName, _version, deployedAddress);\n  }\n\n  function _deployProxy(string _contractName) private {\n    require(contracts_[_contractName].proxy_ == address(0), \"Only one proxy can exist per upgradeable contract.\");\n    AraProxy proxy = new AraProxy(address(this), _contractName);\n    contracts_[_contractName].proxy_ = proxy;\n\n    emit ProxyDeployed(_contractName, proxy);\n  }\n}\n",
  "sourcePath": "/Users/ericjiang/Littlstar/ara-contracts/contracts/ignored_contracts/AraRegistry.sol",
  "compiler": {
    "name": "solc",
    "version": "0.4.24+commit.e67f0147.Emscripten.clang"
  },
  "schemaVersion": "2.0.1",
  "updatedAt": "2019-01-09T23:07:35.555Z"
}