{
  "contractName": "Jobs",
  "abi": [
    {
      "constant": true,
      "inputs": [
        {
          "name": "",
          "type": "bytes32"
        }
      ],
      "name": "unlocked_",
      "outputs": [
        {
          "name": "",
          "type": "bool"
        }
      ],
      "payable": false,
      "stateMutability": "view",
      "type": "function"
    },
    {
      "constant": true,
      "inputs": [
        {
          "name": "",
          "type": "bytes32"
        },
        {
          "name": "",
          "type": "bytes32"
        }
      ],
      "name": "balances_",
      "outputs": [
        {
          "name": "",
          "type": "uint256"
        }
      ],
      "payable": false,
      "stateMutability": "view",
      "type": "function"
    },
    {
      "constant": true,
      "inputs": [
        {
          "name": "",
          "type": "bytes32"
        }
      ],
      "name": "budgets_",
      "outputs": [
        {
          "name": "sender",
          "type": "address"
        },
        {
          "name": "budget",
          "type": "uint256"
        }
      ],
      "payable": false,
      "stateMutability": "view",
      "type": "function"
    },
    {
      "constant": true,
      "inputs": [],
      "name": "token_",
      "outputs": [
        {
          "name": "",
          "type": "address"
        }
      ],
      "payable": false,
      "stateMutability": "view",
      "type": "function"
    },
    {
      "inputs": [
        {
          "name": "_token",
          "type": "address"
        }
      ],
      "payable": false,
      "stateMutability": "nonpayable",
      "type": "constructor"
    },
    {
      "anonymous": false,
      "inputs": [
        {
          "indexed": false,
          "name": "_jobId",
          "type": "bytes32"
        }
      ],
      "name": "Unlocked",
      "type": "event"
    },
    {
      "anonymous": false,
      "inputs": [
        {
          "indexed": false,
          "name": "_jobId",
          "type": "bytes32"
        },
        {
          "indexed": false,
          "name": "_budget",
          "type": "uint256"
        }
      ],
      "name": "BudgetSubmitted",
      "type": "event"
    },
    {
      "anonymous": false,
      "inputs": [
        {
          "indexed": false,
          "name": "_allocated",
          "type": "uint256"
        },
        {
          "indexed": false,
          "name": "_returned",
          "type": "uint256"
        }
      ],
      "name": "RewardsAllocated",
      "type": "event"
    },
    {
      "anonymous": false,
      "inputs": [
        {
          "indexed": false,
          "name": "_sender",
          "type": "address"
        }
      ],
      "name": "Redeemed",
      "type": "event"
    },
    {
      "constant": false,
      "inputs": [
        {
          "name": "_jobId",
          "type": "bytes32"
        },
        {
          "name": "_budget",
          "type": "uint256"
        }
      ],
      "name": "unlockJob",
      "outputs": [],
      "payable": false,
      "stateMutability": "nonpayable",
      "type": "function"
    },
    {
      "constant": false,
      "inputs": [
        {
          "name": "_jobId",
          "type": "bytes32"
        },
        {
          "name": "_budget",
          "type": "uint256"
        }
      ],
      "name": "submitBudget",
      "outputs": [],
      "payable": false,
      "stateMutability": "nonpayable",
      "type": "function"
    },
    {
      "constant": false,
      "inputs": [
        {
          "name": "_jobId",
          "type": "bytes32"
        },
        {
          "name": "_addresses",
          "type": "bytes32[]"
        },
        {
          "name": "_rewards",
          "type": "uint256[]"
        }
      ],
      "name": "allocateRewards",
      "outputs": [],
      "payable": false,
      "stateMutability": "nonpayable",
      "type": "function"
    },
    {
      "constant": false,
      "inputs": [
        {
          "name": "_jobId",
          "type": "bytes32"
        }
      ],
      "name": "redeemBalance",
      "outputs": [],
      "payable": false,
      "stateMutability": "nonpayable",
      "type": "function"
    },
    {
      "constant": true,
      "inputs": [
        {
          "name": "_address",
          "type": "address"
        },
        {
          "name": "_jobId",
          "type": "bytes32"
        }
      ],
      "name": "getBalance",
      "outputs": [
        {
          "name": "",
          "type": "uint256"
        }
      ],
      "payable": false,
      "stateMutability": "view",
      "type": "function"
    },
    {
      "constant": true,
      "inputs": [
        {
          "name": "_jobId",
          "type": "bytes32"
        }
      ],
      "name": "getBudget",
      "outputs": [
        {
          "name": "",
          "type": "uint256"
        }
      ],
      "payable": false,
      "stateMutability": "view",
      "type": "function"
    }
  ],
  "bytecode": "0x608060405234801561001057600080fd5b5060405160208061161e83398101806040528101908080519060200190929190505050806000806101000a81548173ffffffffffffffffffffffffffffffffffffffff021916908373ffffffffffffffffffffffffffffffffffffffff1602179055505061159b806100836000396000f3006080604052600436106100a4576000357c0100000000000000000000000000000000000000000000000000000000900463ffffffff1680630810967e146100a9578063330dc6fe146100e4578063399192671461012d578063546887a3146101805780637910ce18146101c5578063b822871c146101f6578063c79d5ec51461026e578063cc3a08f8146102d3578063d56805e11461038a578063f51b6979146103e1575b600080fd5b3480156100b557600080fd5b506100e260048036038101908080356000191690602001909291908035906020019092919050505061041c565b005b3480156100f057600080fd5b5061011360048036038101908080356000191690602001909291905050506104a6565b604051808215151515815260200191505060405180910390f35b34801561013957600080fd5b5061016a600480360381019080803560001916906020019092919080356000191690602001909291905050506104c6565b6040518082815260200191505060405180910390f35b34801561018c57600080fd5b506101af60048036038101908080356000191690602001909291905050506104eb565b6040518082815260200191505060405180910390f35b3480156101d157600080fd5b506101f46004803603810190808035600019169060200190929190505050610513565b005b34801561020257600080fd5b50610225600480360381019080803560001916906020019092919050505061085a565b604051808373ffffffffffffffffffffffffffffffffffffffff1673ffffffffffffffffffffffffffffffffffffffff1681526020018281526020019250505060405180910390f35b34801561027a57600080fd5b506102bd600480360381019080803573ffffffffffffffffffffffffffffffffffffffff169060200190929190803560001916906020019092919050505061089e565b6040518082815260200191505060405180910390f35b3480156102df57600080fd5b5061038860048036038101908080356000191690602001909291908035906020019082018035906020019080806020026020016040519081016040528093929190818152602001838360200280828437820191505050505050919291929080359060200190820180359060200190808060200260200160405190810160405280939291908181526020018383602002808284378201915050505050509192919290505050610999565b005b34801561039657600080fd5b5061039f610ec8565b604051808273ffffffffffffffffffffffffffffffffffffffff1673ffffffffffffffffffffffffffffffffffffffff16815260200191505060405180910390f35b3480156103ed57600080fd5b5061041a600480360381019080803560001916906020019092919080359060200190929190505050610eed565b005b6001806000846000191660001916815260200190815260200160002060006101000a81548160ff0219169083151502179055507f248ed1ed5e6e28246432a42651d384fadb929f7cefaacbe6a1764513e058ee748260405180826000191660001916815260200191505060405180910390a160008111156104a2576104a18282610eed565b5b5050565b60016020528060005260406000206000915054906101000a900460ff1681565b6002602052816000526040600020602052806000526040600020600091509150505481565b6000600360008360001916600019168152602001908152602001600020600101549050919050565b600033604051602001808273ffffffffffffffffffffffffffffffffffffffff1673ffffffffffffffffffffffffffffffffffffffff166c010000000000000000000000000281526014019150506040516020818303038152906040526040518082805190602001908083835b6020831015156105a55780518252602082019150602081019050602083039250610580565b6001836020036101000a0380198251168184511680821785525050505050509050019150506040518091039020905060006002600083600019166000191681526020019081526020016000206000846000191660001916815260200190815260200160002054111515610680576040517f08c379a00000000000000000000000000000000000000000000000000000000081526004018080602001828103825260158152602001807f4e6f2062616c616e636520746f2072656465656d2e000000000000000000000081525060200191505060405180910390fd5b6000809054906101000a900473ffffffffffffffffffffffffffffffffffffffff1673ffffffffffffffffffffffffffffffffffffffff1663a9059cbb3360026000856000191660001916815260200190815260200160002060008660001916600019168152602001908152602001600020546040518363ffffffff167c0100000000000000000000000000000000000000000000000000000000028152600401808373ffffffffffffffffffffffffffffffffffffffff1673ffffffffffffffffffffffffffffffffffffffff16815260200182815260200192505050602060405180830381600087803b15801561077857600080fd5b505af115801561078c573d6000803e3d6000fd5b505050506040513d60208110156107a257600080fd5b81019080805190602001909291905050501561085657600060026000836000191660001916815260200190815260200160002060008460001916600019168152602001908152602001600020819055507fcb7d87f76b4d6501ac27ed560664bf84ce273a2ddd7b9b1da63c753e68ccae2033604051808273ffffffffffffffffffffffffffffffffffffffff1673ffffffffffffffffffffffffffffffffffffffff16815260200191505060405180910390a15b5050565b60036020528060005260406000206000915090508060000160009054906101000a900473ffffffffffffffffffffffffffffffffffffffff16908060010154905082565b60006002600084604051602001808273ffffffffffffffffffffffffffffffffffffffff1673ffffffffffffffffffffffffffffffffffffffff166c010000000000000000000000000281526014019150506040516020818303038152906040526040518082805190602001908083835b602083101515610934578051825260208201915060208101905060208303925061090f565b6001836020036101000a0380198251168184511680821785525050505050509050019150506040518091039020600019166000191681526020019081526020016000206000836000191660001916815260200190815260200160002054905092915050565b600080600080863373ffffffffffffffffffffffffffffffffffffffff1660036000836000191660001916815260200190815260200160002060000160009054906101000a900473ffffffffffffffffffffffffffffffffffffffff1673ffffffffffffffffffffffffffffffffffffffff16148015610a375750600060036000836000191660001916815260200190815260200160002060010154115b1515610aab576040517f08c379a000000000000000000000000000000000000000000000000000000000815260040180806020018281038252600f8152602001807f4a6f6220697320696e76616c69642e000000000000000000000000000000000081525060200191505060405180910390fd5b85518751141515610b4a576040517f08c379a00000000000000000000000000000000000000000000000000000000081526004018080602001828103825260288152602001807f556e657175616c206e756d626572206f662061646472657373657320616e642081526020017f726577617264732e00000000000000000000000000000000000000000000000081525060400191505060405180910390fd5b600093505b85518460ff161015610b8757858460ff16815181101515610b6c57fe5b90602001906020020151850194508380600101945050610b4f565b600360008960001916600019168152602001908152602001600020600101548511151515610c1d576040517f08c379a00000000000000000000000000000000000000000000000000000000081526004018080602001828103825260148152602001807f496e73756666696369656e74206275646765742e00000000000000000000000081525060200191505060405180910390fd5b600092505b86518360ff161015610d3257858360ff16815181101515610c3f57fe5b90602001906020020151600360008a600019166000191681526020019081526020016000206001015410151515610c7257fe5b858360ff16815181101515610c8357fe5b9060200190602002015160026000898660ff16815181101515610ca257fe5b906020019060200201516000191660001916815260200190815260200160002060008a6000191660001916815260200190815260200160002081905550858360ff16815181101515610cf057fe5b90602001906020020151600360008a60001916600019168152602001908152602001600020600101600082825403925050819055508280600101935050610c22565b6003600089600019166000191681526020019081526020016000206001015491506000821115610e7f57816002600033604051602001808273ffffffffffffffffffffffffffffffffffffffff1673ffffffffffffffffffffffffffffffffffffffff166c010000000000000000000000000281526014019150506040516020818303038152906040526040518082805190602001908083835b602083101515610df15780518252602082019150602081019050602083039250610dcc565b6001836020036101000a03801982511681845116808217855250505050505090500191505060405180910390206000191660001916815260200190815260200160002060008a60001916600019168152602001908152602001600020819055506000600360008a6000191660001916815260200190815260200160002060010181905550610e7e88610513565b5b7ff9ecaf62687e41c2eb3b9f3bb3e5562b198859fda05aed70e3cc7e3a060e8c9d8583604051808381526020018281526020019250505060405180910390a15050505050505050565b6000809054906101000a900473ffffffffffffffffffffffffffffffffffffffff1681565b60008260016000826000191660001916815260200190815260200160002060009054906101000a900460ff161515610f8d576040517f08c379a00000000000000000000000000000000000000000000000000000000081526004018080602001828103825260158152602001807f4a6f62206d75737420626520756e6c6f636b65642e000000000000000000000081525060200191505060405180910390fd5b6000809054906101000a900473ffffffffffffffffffffffffffffffffffffffff1673ffffffffffffffffffffffffffffffffffffffff1663dd62ed3e33306040518363ffffffff167c0100000000000000000000000000000000000000000000000000000000028152600401808373ffffffffffffffffffffffffffffffffffffffff1673ffffffffffffffffffffffffffffffffffffffff1681526020018273ffffffffffffffffffffffffffffffffffffffff1673ffffffffffffffffffffffffffffffffffffffff16815260200192505050602060405180830381600087803b15801561107d57600080fd5b505af1158015611091573d6000803e3d6000fd5b505050506040513d60208110156110a757600080fd5b810190808051906020019092919050505091506000600102600019168460001916141580156110d65750600083115b80156110e25750828210155b80156111cc5750600073ffffffffffffffffffffffffffffffffffffffff1660036000866000191660001916815260200190815260200160002060000160009054906101000a900473ffffffffffffffffffffffffffffffffffffffff1673ffffffffffffffffffffffffffffffffffffffff1614806111cb57503373ffffffffffffffffffffffffffffffffffffffff1660036000866000191660001916815260200190815260200160002060000160009054906101000a900473ffffffffffffffffffffffffffffffffffffffff1673ffffffffffffffffffffffffffffffffffffffff16145b5b1515611240576040517f08c379a00000000000000000000000000000000000000000000000000000000081526004018080602001828103825260178152602001807f4a6f62207375626d697373696f6e20696e76616c69642e00000000000000000081525060200191505060405180910390fd5b6000809054906101000a900473ffffffffffffffffffffffffffffffffffffffff1673ffffffffffffffffffffffffffffffffffffffff166323b872dd3330866040518463ffffffff167c0100000000000000000000000000000000000000000000000000000000028152600401808473ffffffffffffffffffffffffffffffffffffffff1673ffffffffffffffffffffffffffffffffffffffff1681526020018373ffffffffffffffffffffffffffffffffffffffff1673ffffffffffffffffffffffffffffffffffffffff1681526020018281526020019350505050602060405180830381600087803b15801561133857600080fd5b505af115801561134c573d6000803e3d6000fd5b505050506040513d602081101561136257600080fd5b8101908080519060200190929190505050156115695782600360008660001916600019168152602001908152602001600020600101600082825401925050819055503360036000866000191660001916815260200190815260200160002060000160006101000a81548173ffffffffffffffffffffffffffffffffffffffff021916908373ffffffffffffffffffffffffffffffffffffffff1602179055506000809054906101000a900473ffffffffffffffffffffffffffffffffffffffff1673ffffffffffffffffffffffffffffffffffffffff166370a08231306040518263ffffffff167c0100000000000000000000000000000000000000000000000000000000028152600401808273ffffffffffffffffffffffffffffffffffffffff1673ffffffffffffffffffffffffffffffffffffffff168152602001915050602060405180830381600087803b1580156114bd57600080fd5b505af11580156114d1573d6000803e3d6000fd5b505050506040513d60208110156114e757600080fd5b8101908080519060200190929190505050600360008660001916600019168152602001908152602001600020600101541115151561152157fe5b7fb9fe79348b079577a7b0ce6c0e8afc10f28bb94294d55e896db16d1310a52aca84846040518083600019166000191681526020018281526020019250505060405180910390a15b505050505600a165627a7a72305820def4e7821b11edd0f6e53bef05df5ba8568e20701fd9902b9160146ababbd95d0029",
  "source": "pragma solidity 0.4.24;\n\nimport \"./ARAToken.sol\";\n\ncontract Jobs {\n\n  ARAToken public token_;\n\n  mapping(bytes32 => bool)                        public unlocked_; // jobId => unlocked\n  mapping(bytes32 => mapping(bytes32 => uint256)) public balances_; // keccak256(address) => jobId => balance\n  mapping(bytes32 => Job)                         public budgets_; // jobId => Job\n\n  struct Job {\n    address sender;\n    uint256 budget;\n  }\n\n  event Unlocked(bytes32 _jobId);\n  event BudgetSubmitted(bytes32 _jobId, uint256 _budget);\n  event RewardsAllocated(uint256 _allocated, uint256 _returned);\n  event Redeemed(address _sender);\n\n  constructor(address _token) public {\n    token_ = ARAToken(_token);\n  }\n\n  modifier jobUnlocked(bytes32 _jobId) {\n    require(unlocked_[_jobId], \"Job must be unlocked.\");\n    _;\n  }\n\n  modifier budgetSubmitted(bytes32 _jobId) {\n    require(budgets_[_jobId].sender == msg.sender \n      && budgets_[_jobId].budget > 0, \"Job is invalid.\");\n    _;\n  }\n\n  function unlockJob(bytes32 _jobId, uint256 _budget) external {\n    unlocked_[_jobId] = true;\n    emit Unlocked(_jobId);\n\n    if(_budget > 0) {\n      submitBudget(_jobId, _budget);\n    }\n  }\n\n  function submitBudget(bytes32 _jobId, uint256 _budget) public jobUnlocked(_jobId) {\n    uint256 allowance = token_.allowance(msg.sender, address(this));\n    require(_jobId != bytes32(0) && _budget > 0 && allowance >= _budget\n      && (budgets_[_jobId].sender == address(0) || budgets_[_jobId].sender == msg.sender), \"Job submission invalid.\");\n\n    if (token_.transferFrom(msg.sender, address(this), _budget)) {\n      budgets_[_jobId].budget += _budget;\n      budgets_[_jobId].sender = msg.sender;\n      assert(budgets_[_jobId].budget <= token_.balanceOf(address(this)));\n      emit BudgetSubmitted(_jobId, _budget);\n    }\n  }\n\n  function allocateRewards(bytes32 _jobId, bytes32[] _addresses, uint256[] _rewards) public budgetSubmitted(_jobId) {\n    require(_addresses.length == _rewards.length, \"Unequal number of addresses and rewards.\");\n    uint256 totalRewards;\n    for (uint8 i = 0; i < _rewards.length; i++) {\n      totalRewards += _rewards[i];\n    }\n    require(totalRewards <= budgets_[_jobId].budget, \"Insufficient budget.\");\n    for (uint8 j = 0; j < _addresses.length; j++) {\n      assert(budgets_[_jobId].budget >= _rewards[j]);\n      balances_[_addresses[j]][_jobId] = _rewards[j];\n      budgets_[_jobId].budget -= _rewards[j];\n    }\n\n    uint256 remaining = budgets_[_jobId].budget;\n    if (remaining > 0) {\n      balances_[keccak256(abi.encodePacked(msg.sender))][_jobId] = remaining;\n      budgets_[_jobId].budget = 0;\n      redeemBalance(_jobId);\n    }\n\n    emit RewardsAllocated(totalRewards, remaining);\n  }\n\n  function redeemBalance(bytes32 _jobId) public {\n    bytes32 hashedAddress = keccak256(abi.encodePacked(msg.sender));\n    require(balances_[hashedAddress][_jobId] > 0, \"No balance to redeem.\");\n    if (token_.transfer(msg.sender, balances_[hashedAddress][_jobId])) {\n      balances_[hashedAddress][_jobId] = 0;\n      emit Redeemed(msg.sender);\n    }\n  }\n\n  function getBalance(address _address, bytes32 _jobId) public view returns (uint256) {\n    return balances_[keccak256(abi.encodePacked(_address))][_jobId];\n  }\n\n  function getBudget(bytes32 _jobId) public view returns (uint256) {\n    return budgets_[_jobId].budget;\n  }\n\n}\n",
  "sourcePath": "/Users/charles/Desktop/Development/Ara/ara-contracts/contracts/Jobs.sol",
  "compiler": {
    "name": "solc",
    "version": "0.4.24+commit.e67f0147.Emscripten.clang"
  },
  "schemaVersion": "2.0.1",
  "updatedAt": "2018-08-28T21:48:38.041Z"
}