{
  "contractName": "Jobs",
  "abi": [
    {
      "constant": true,
      "inputs": [],
      "name": "registry_",
      "outputs": [
        {
          "name": "",
          "type": "address"
        }
      ],
      "payable": false,
      "stateMutability": "view",
      "type": "function"
    },
    {
      "constant": true,
      "inputs": [
        {
          "name": "",
          "type": "bytes32"
        }
      ],
      "name": "unlocked_",
      "outputs": [
        {
          "name": "",
          "type": "bool"
        }
      ],
      "payable": false,
      "stateMutability": "view",
      "type": "function"
    },
    {
      "constant": true,
      "inputs": [
        {
          "name": "",
          "type": "bytes32"
        },
        {
          "name": "",
          "type": "bytes32"
        }
      ],
      "name": "balances_",
      "outputs": [
        {
          "name": "",
          "type": "uint256"
        }
      ],
      "payable": false,
      "stateMutability": "view",
      "type": "function"
    },
    {
      "constant": true,
      "inputs": [
        {
          "name": "",
          "type": "bytes32"
        }
      ],
      "name": "budgets_",
      "outputs": [
        {
          "name": "sender",
          "type": "address"
        },
        {
          "name": "budget",
          "type": "uint256"
        }
      ],
      "payable": false,
      "stateMutability": "view",
      "type": "function"
    },
    {
      "constant": true,
      "inputs": [],
      "name": "token_",
      "outputs": [
        {
          "name": "",
          "type": "address"
        }
      ],
      "payable": false,
      "stateMutability": "view",
      "type": "function"
    },
    {
      "inputs": [
        {
          "name": "_token",
          "type": "address"
        },
        {
          "name": "_registry",
          "type": "address"
        }
      ],
      "payable": false,
      "stateMutability": "nonpayable",
      "type": "constructor"
    },
    {
      "anonymous": false,
      "inputs": [
        {
          "indexed": false,
          "name": "_isPurchaser",
          "type": "bool"
        },
        {
          "indexed": false,
          "name": "_sender",
          "type": "address"
        },
        {
          "indexed": false,
          "name": "_msgSender",
          "type": "address"
        },
        {
          "indexed": false,
          "name": "_proxyAddress",
          "type": "address"
        }
      ],
      "name": "IsValidPurchase",
      "type": "event"
    },
    {
      "anonymous": false,
      "inputs": [
        {
          "indexed": false,
          "name": "_jobId",
          "type": "bytes32"
        }
      ],
      "name": "Unlocked",
      "type": "event"
    },
    {
      "anonymous": false,
      "inputs": [
        {
          "indexed": false,
          "name": "_jobId",
          "type": "bytes32"
        },
        {
          "indexed": false,
          "name": "_budget",
          "type": "uint256"
        }
      ],
      "name": "BudgetSubmitted",
      "type": "event"
    },
    {
      "anonymous": false,
      "inputs": [
        {
          "indexed": false,
          "name": "_allocated",
          "type": "uint256"
        },
        {
          "indexed": false,
          "name": "_returned",
          "type": "uint256"
        }
      ],
      "name": "RewardsAllocated",
      "type": "event"
    },
    {
      "anonymous": false,
      "inputs": [
        {
          "indexed": false,
          "name": "_sender",
          "type": "address"
        }
      ],
      "name": "Redeemed",
      "type": "event"
    },
    {
      "anonymous": false,
      "inputs": [
        {
          "indexed": false,
          "name": "_allowance",
          "type": "uint256"
        }
      ],
      "name": "Allowance",
      "type": "event"
    },
    {
      "anonymous": false,
      "inputs": [
        {
          "indexed": false,
          "name": "_jobId",
          "type": "bytes32"
        },
        {
          "indexed": false,
          "name": "_purchaser",
          "type": "address"
        },
        {
          "indexed": false,
          "name": "_budget",
          "type": "uint256"
        }
      ],
      "name": "AfterRequire",
      "type": "event"
    },
    {
      "constant": false,
      "inputs": [
        {
          "name": "_jobId",
          "type": "bytes32"
        },
        {
          "name": "_budget",
          "type": "uint256"
        },
        {
          "name": "_contentId",
          "type": "bytes32"
        },
        {
          "name": "_sender",
          "type": "address"
        }
      ],
      "name": "unlockJob",
      "outputs": [],
      "payable": false,
      "stateMutability": "nonpayable",
      "type": "function"
    },
    {
      "constant": false,
      "inputs": [
        {
          "name": "_contentId",
          "type": "bytes32"
        },
        {
          "name": "_jobId",
          "type": "bytes32"
        },
        {
          "name": "_budget",
          "type": "uint256"
        },
        {
          "name": "_sender",
          "type": "address"
        }
      ],
      "name": "submitBudget",
      "outputs": [],
      "payable": false,
      "stateMutability": "nonpayable",
      "type": "function"
    },
    {
      "constant": false,
      "inputs": [
        {
          "name": "_jobId",
          "type": "bytes32"
        },
        {
          "name": "_addresses",
          "type": "bytes32[]"
        },
        {
          "name": "_rewards",
          "type": "uint256[]"
        }
      ],
      "name": "allocateRewards",
      "outputs": [],
      "payable": false,
      "stateMutability": "nonpayable",
      "type": "function"
    },
    {
      "constant": false,
      "inputs": [
        {
          "name": "_jobId",
          "type": "bytes32"
        }
      ],
      "name": "redeemBalance",
      "outputs": [],
      "payable": false,
      "stateMutability": "nonpayable",
      "type": "function"
    },
    {
      "constant": true,
      "inputs": [
        {
          "name": "_address",
          "type": "address"
        },
        {
          "name": "_jobId",
          "type": "bytes32"
        }
      ],
      "name": "getBalance",
      "outputs": [
        {
          "name": "",
          "type": "uint256"
        }
      ],
      "payable": false,
      "stateMutability": "view",
      "type": "function"
    },
    {
      "constant": true,
      "inputs": [
        {
          "name": "_jobId",
          "type": "bytes32"
        }
      ],
      "name": "getBudget",
      "outputs": [
        {
          "name": "",
          "type": "uint256"
        }
      ],
      "payable": false,
      "stateMutability": "view",
      "type": "function"
    }
  ],
  "bytecode": "0x608060405234801561001057600080fd5b506040516040806118638339810180604052810190808051906020019092919080519060200190929190505050816000806101000a81548173ffffffffffffffffffffffffffffffffffffffff021916908373ffffffffffffffffffffffffffffffffffffffff16021790555080600160006101000a81548173ffffffffffffffffffffffffffffffffffffffff021916908373ffffffffffffffffffffffffffffffffffffffff1602179055505050611794806100cf6000396000f3006080604052600436106100af576000357c0100000000000000000000000000000000000000000000000000000000900463ffffffff168063025ccbad146100b4578063330dc6fe1461010b5780633991926714610154578063416adc0d146101a7578063546887a3146102105780637910ce18146102555780637ed498a414610286578063b822871c146102ef578063c79d5ec514610367578063cc3a08f8146103cc578063d56805e114610483575b600080fd5b3480156100c057600080fd5b506100c96104da565b604051808273ffffffffffffffffffffffffffffffffffffffff1673ffffffffffffffffffffffffffffffffffffffff16815260200191505060405180910390f35b34801561011757600080fd5b5061013a6004803603810190808035600019169060200190929190505050610500565b604051808215151515815260200191505060405180910390f35b34801561016057600080fd5b5061019160048036038101908080356000191690602001909291908035600019169060200190929190505050610520565b6040518082815260200191505060405180910390f35b3480156101b357600080fd5b5061020e6004803603810190808035600019169060200190929190803590602001909291908035600019169060200190929190803573ffffffffffffffffffffffffffffffffffffffff169060200190929190505050610545565b005b34801561021c57600080fd5b5061023f60048036038101908080356000191690602001909291905050506109cd565b6040518082815260200191505060405180910390f35b34801561026157600080fd5b5061028460048036038101908080356000191690602001909291905050506109f5565b005b34801561029257600080fd5b506102ed6004803603810190808035600019169060200190929190803560001916906020019092919080359060200190929190803573ffffffffffffffffffffffffffffffffffffffff169060200190929190505050610d3c565b005b3480156102fb57600080fd5b5061031e60048036038101908080356000191690602001909291905050506110d5565b604051808373ffffffffffffffffffffffffffffffffffffffff1673ffffffffffffffffffffffffffffffffffffffff1681526020018281526020019250505060405180910390f35b34801561037357600080fd5b506103b6600480360381019080803573ffffffffffffffffffffffffffffffffffffffff1690602001909291908035600019169060200190929190505050611119565b6040518082815260200191505060405180910390f35b3480156103d857600080fd5b5061048160048036038101908080356000191690602001909291908035906020019082018035906020019080806020026020016040519081016040528093929190818152602001838360200280828437820191505050505050919291929080359060200190820180359060200190808060200260200160405190810160405280939291908181526020018383602002808284378201915050505050509192919290505050611214565b005b34801561048f57600080fd5b50610498611743565b604051808273ffffffffffffffffffffffffffffffffffffffff1673ffffffffffffffffffffffffffffffffffffffff16815260200191505060405180910390f35b600160009054906101000a900473ffffffffffffffffffffffffffffffffffffffff1681565b60026020528060005260406000206000915054906101000a900460ff1681565b6003602052816000526040600020602052806000526040600020600091509150505481565b818160008082604051602001808273ffffffffffffffffffffffffffffffffffffffff1673ffffffffffffffffffffffffffffffffffffffff166c010000000000000000000000000281526014019150506040516020818303038152906040526040518082805190602001908083835b6020831015156105da57805182526020820191506020810190506020830392506105b5565b6001836020036101000a03801982511681845116808217855250505050505090500191505060405180910390209150600160009054906101000a900473ffffffffffffffffffffffffffffffffffffffff1673ffffffffffffffffffffffffffffffffffffffff166392d00a4a856040518263ffffffff167c0100000000000000000000000000000000000000000000000000000000028152600401808260001916600019168152602001915050602060405180830381600087803b1580156106a257600080fd5b505af11580156106b6573d6000803e3d6000fd5b505050506040513d60208110156106cc57600080fd5b810190808051906020019092919050505090507f8e80ac1b333ee6eff54ec7d424bb63828890528e1ae93662578d344ee2225b608173ffffffffffffffffffffffffffffffffffffffff1663876ec572846040518263ffffffff167c0100000000000000000000000000000000000000000000000000000000028152600401808260001916600019168152602001915050602060405180830381600087803b15801561077757600080fd5b505af115801561078b573d6000803e3d6000fd5b505050506040513d60208110156107a157600080fd5b81019080805190602001909291905050508433600160009054906101000a900473ffffffffffffffffffffffffffffffffffffffff1673ffffffffffffffffffffffffffffffffffffffff166392d00a4a896040518263ffffffff167c0100000000000000000000000000000000000000000000000000000000028152600401808260001916600019168152602001915050602060405180830381600087803b15801561084d57600080fd5b505af1158015610861573d6000803e3d6000fd5b505050506040513d602081101561087757600080fd5b810190808051906020019092919050505060405180851515151581526020018473ffffffffffffffffffffffffffffffffffffffff1673ffffffffffffffffffffffffffffffffffffffff1681526020018373ffffffffffffffffffffffffffffffffffffffff1673ffffffffffffffffffffffffffffffffffffffff1681526020018273ffffffffffffffffffffffffffffffffffffffff1673ffffffffffffffffffffffffffffffffffffffff16815260200194505050505060405180910390a16001600260008a6000191660001916815260200190815260200160002060006101000a81548160ff0219169083151502179055507f248ed1ed5e6e28246432a42651d384fadb929f7cefaacbe6a1764513e058ee748860405180826000191660001916815260200191505060405180910390a160008711156109c3576109c286898988610d3c565b5b5050505050505050565b6000600460008360001916600019168152602001908152602001600020600101549050919050565b600033604051602001808273ffffffffffffffffffffffffffffffffffffffff1673ffffffffffffffffffffffffffffffffffffffff166c010000000000000000000000000281526014019150506040516020818303038152906040526040518082805190602001908083835b602083101515610a875780518252602082019150602081019050602083039250610a62565b6001836020036101000a0380198251168184511680821785525050505050509050019150506040518091039020905060006003600083600019166000191681526020019081526020016000206000846000191660001916815260200190815260200160002054111515610b62576040517f08c379a00000000000000000000000000000000000000000000000000000000081526004018080602001828103825260158152602001807f4e6f2062616c616e636520746f2072656465656d2e000000000000000000000081525060200191505060405180910390fd5b6000809054906101000a900473ffffffffffffffffffffffffffffffffffffffff1673ffffffffffffffffffffffffffffffffffffffff1663a9059cbb3360036000856000191660001916815260200190815260200160002060008660001916600019168152602001908152602001600020546040518363ffffffff167c0100000000000000000000000000000000000000000000000000000000028152600401808373ffffffffffffffffffffffffffffffffffffffff1673ffffffffffffffffffffffffffffffffffffffff16815260200182815260200192505050602060405180830381600087803b158015610c5a57600080fd5b505af1158015610c6e573d6000803e3d6000fd5b505050506040513d6020811015610c8457600080fd5b810190808051906020019092919050505015610d3857600060036000836000191660001916815260200190815260200160002060008460001916600019168152602001908152602001600020819055507fcb7d87f76b4d6501ac27ed560664bf84ce273a2ddd7b9b1da63c753e68ccae2033604051808273ffffffffffffffffffffffffffffffffffffffff1673ffffffffffffffffffffffffffffffffffffffff16815260200191505060405180910390a15b5050565b6000808460026000826000191660001916815260200190815260200160002060009054906101000a900460ff161515610ddd576040517f08c379a00000000000000000000000000000000000000000000000000000000081526004018080602001828103825260158152602001807f4a6f62206d75737420626520756e6c6f636b65642e000000000000000000000081525060200191505060405180910390fd5b3373ffffffffffffffffffffffffffffffffffffffff16600160009054906101000a900473ffffffffffffffffffffffffffffffffffffffff1673ffffffffffffffffffffffffffffffffffffffff166392d00a4a896040518263ffffffff167c0100000000000000000000000000000000000000000000000000000000028152600401808260001916600019168152602001915050602060405180830381600087803b158015610e8d57600080fd5b505af1158015610ea1573d6000803e3d6000fd5b505050506040513d6020811015610eb757600080fd5b810190808051906020019092919050505073ffffffffffffffffffffffffffffffffffffffff1614610ee95733610eeb565b835b92506000809054906101000a900473ffffffffffffffffffffffffffffffffffffffff1673ffffffffffffffffffffffffffffffffffffffff1663dd62ed3e84306040518363ffffffff167c0100000000000000000000000000000000000000000000000000000000028152600401808373ffffffffffffffffffffffffffffffffffffffff1673ffffffffffffffffffffffffffffffffffffffff1681526020018273ffffffffffffffffffffffffffffffffffffffff1673ffffffffffffffffffffffffffffffffffffffff16815260200192505050602060405180830381600087803b158015610fdd57600080fd5b505af1158015610ff1573d6000803e3d6000fd5b505050506040513d602081101561100757600080fd5b810190808051906020019092919050505091507fb960ebf065966969da9ffeb07fa131d57456535bffdec2ed2844e0bd987e2c42826040518082815260200191505060405180910390a17fac60305171fbf8843e1e0c1afe6b71e5f66d3ce7bc864f90156688e16ede4f4e8684876040518084600019166000191681526020018373ffffffffffffffffffffffffffffffffffffffff1673ffffffffffffffffffffffffffffffffffffffff168152602001828152602001935050505060405180910390a150505050505050565b60046020528060005260406000206000915090508060000160009054906101000a900473ffffffffffffffffffffffffffffffffffffffff16908060010154905082565b60006003600084604051602001808273ffffffffffffffffffffffffffffffffffffffff1673ffffffffffffffffffffffffffffffffffffffff166c010000000000000000000000000281526014019150506040516020818303038152906040526040518082805190602001908083835b6020831015156111af578051825260208201915060208101905060208303925061118a565b6001836020036101000a0380198251168184511680821785525050505050509050019150506040518091039020600019166000191681526020019081526020016000206000836000191660001916815260200190815260200160002054905092915050565b600080600080863373ffffffffffffffffffffffffffffffffffffffff1660046000836000191660001916815260200190815260200160002060000160009054906101000a900473ffffffffffffffffffffffffffffffffffffffff1673ffffffffffffffffffffffffffffffffffffffff161480156112b25750600060046000836000191660001916815260200190815260200160002060010154115b1515611326576040517f08c379a00000000000000000000000000000000000000000000000000000000081526004018080602001828103825260128152602001807f42756467657420697320696e76616c69642e000000000000000000000000000081525060200191505060405180910390fd5b855187511415156113c5576040517f08c379a00000000000000000000000000000000000000000000000000000000081526004018080602001828103825260288152602001807f556e657175616c206e756d626572206f662061646472657373657320616e642081526020017f726577617264732e00000000000000000000000000000000000000000000000081525060400191505060405180910390fd5b600093505b85518460ff16101561140257858460ff168151811015156113e757fe5b906020019060200201518501945083806001019450506113ca565b600460008960001916600019168152602001908152602001600020600101548511151515611498576040517f08c379a00000000000000000000000000000000000000000000000000000000081526004018080602001828103825260148152602001807f496e73756666696369656e74206275646765742e00000000000000000000000081525060200191505060405180910390fd5b600092505b86518360ff1610156115ad57858360ff168151811015156114ba57fe5b90602001906020020151600460008a6000191660001916815260200190815260200160002060010154101515156114ed57fe5b858360ff168151811015156114fe57fe5b9060200190602002015160036000898660ff1681518110151561151d57fe5b906020019060200201516000191660001916815260200190815260200160002060008a6000191660001916815260200190815260200160002081905550858360ff1681518110151561156b57fe5b90602001906020020151600460008a6000191660001916815260200190815260200160002060010160008282540392505081905550828060010193505061149d565b60046000896000191660001916815260200190815260200160002060010154915060008211156116fa57816003600033604051602001808273ffffffffffffffffffffffffffffffffffffffff1673ffffffffffffffffffffffffffffffffffffffff166c010000000000000000000000000281526014019150506040516020818303038152906040526040518082805190602001908083835b60208310151561166c5780518252602082019150602081019050602083039250611647565b6001836020036101000a03801982511681845116808217855250505050505090500191505060405180910390206000191660001916815260200190815260200160002060008a60001916600019168152602001908152602001600020819055506000600460008a60001916600019168152602001908152602001600020600101819055506116f9886109f5565b5b7ff9ecaf62687e41c2eb3b9f3bb3e5562b198859fda05aed70e3cc7e3a060e8c9d8583604051808381526020018281526020019250505060405180910390a15050505050505050565b6000809054906101000a900473ffffffffffffffffffffffffffffffffffffffff16815600a165627a7a7230582081de0b8bfadc7db0dcbee9fe9112499633ab6b0ee66577a7110a1db9a28a14d60029",
  "source": "pragma solidity 0.4.24;\n\nimport \"./AraToken.sol\";\nimport \"./Registry.sol\";\nimport \"./AFS.sol\";\n\ncontract Jobs {\n\n  AraToken public token_;\n  Registry public registry_;\n\n  mapping(bytes32 => bool)                        public unlocked_; // jobId => unlocked\n  mapping(bytes32 => mapping(bytes32 => uint256)) public balances_; // keccak256(address) => jobId => balance\n  mapping(bytes32 => Job)                         public budgets_; // jobId => Job\n\n  struct Job {\n    address sender;\n    uint256 budget;\n  }\n\n  event IsValidPurchase(bool _isPurchaser, address _sender, address _msgSender, address _proxyAddress);\n  event Unlocked(bytes32 _jobId);\n  event BudgetSubmitted(bytes32 _jobId, uint256 _budget);\n  event RewardsAllocated(uint256 _allocated, uint256 _returned);\n  event Redeemed(address _sender);\n\n  constructor(address _token, address _registry) public {\n    token_ = AraToken(_token);\n    registry_ = Registry(_registry);\n  }\n\n  modifier jobUnlocked(bytes32 _jobId) {\n    require(unlocked_[_jobId], \"Job must be unlocked.\");\n    _;\n  }\n\n  modifier budgetSubmitted(bytes32 _jobId) {\n    require(budgets_[_jobId].sender == msg.sender \n      && budgets_[_jobId].budget > 0, \"Budget is invalid.\");\n    _;\n  }\n\n  modifier isValidPurchase(bytes32 _contentId, address _sender) {\n    bytes32 hashedAddress = keccak256(abi.encodePacked(_sender));\n    AFS afs = AFS(registry_.getProxyAddress(_contentId));\n    emit IsValidPurchase(afs.isPurchaser(hashedAddress), _sender, msg.sender, registry_.getProxyAddress(_contentId));\n    //require(afs.isPurchaser(hashedAddress), \"Job is invalid.\");\n    //require(registry_.getProxyAddress(_contentId) == msg.sender, \"Unlock not originating from proxy.\");\n     _;\n  }\n\n  function unlockJob(bytes32 _jobId, uint256 _budget, bytes32 _contentId, address _sender) \n    external isValidPurchase(_contentId, _sender) {\n\n    unlocked_[_jobId] = true;\n    emit Unlocked(_jobId);\n\n    if(_budget > 0) {\n      submitBudget(_contentId, _jobId, _budget, _sender);\n    }\n  }\n\n  event Allowance(uint256 _allowance);\n  event AfterRequire(\n    bytes32 _jobId, \n    address _purchaser,\n    uint256 _budget\n  );\n\n  // test this WITHOUT unlocking job first, make sure it reverts\n  // test this after unlocking job (purchase) with budget of 0\n  function submitBudget(bytes32 _contentId, bytes32 _jobId, uint256 _budget, address _sender) public jobUnlocked(_jobId) {\n    address purchaser = registry_.getProxyAddress(_contentId) == msg.sender \n      ? _sender\n      : msg.sender;\n\n    // owner should be where transaction came from\n    uint256 allowance = token_.allowance(purchaser, address(this));\n    emit Allowance(allowance);\n\n    // require(_jobId != bytes32(0) && _budget > 0 && allowance >= _budget\n    //   && (budgets_[_jobId].sender == address(0) || budgets_[_jobId].sender == purchaser), \"Job submission invalid.\");\n\n    emit AfterRequire(_jobId, purchaser, _budget);\n\n    // if (token_.transferFrom(purchaser, address(this), _budget)) {\n    //   budgets_[_jobId].budget += _budget;\n    //   budgets_[_jobId].sender = purchaser;\n    //   assert(budgets_[_jobId].budget <= token_.balanceOf(address(this)));\n    //   emit BudgetSubmitted(_jobId, _budget);\n    // }\n  }\n\n  function allocateRewards(bytes32 _jobId, bytes32[] _addresses, uint256[] _rewards) public budgetSubmitted(_jobId) {\n    require(_addresses.length == _rewards.length, \"Unequal number of addresses and rewards.\");\n    uint256 totalRewards;\n    for (uint8 i = 0; i < _rewards.length; i++) {\n      totalRewards += _rewards[i];\n    }\n    require(totalRewards <= budgets_[_jobId].budget, \"Insufficient budget.\");\n    for (uint8 j = 0; j < _addresses.length; j++) {\n      assert(budgets_[_jobId].budget >= _rewards[j]);\n      balances_[_addresses[j]][_jobId] = _rewards[j];\n      budgets_[_jobId].budget -= _rewards[j];\n    }\n\n    uint256 remaining = budgets_[_jobId].budget;\n    if (remaining > 0) {\n      balances_[keccak256(abi.encodePacked(msg.sender))][_jobId] = remaining;\n      budgets_[_jobId].budget = 0;\n      redeemBalance(_jobId);\n    }\n\n    emit RewardsAllocated(totalRewards, remaining);\n  }\n\n  function redeemBalance(bytes32 _jobId) public {\n    bytes32 hashedAddress = keccak256(abi.encodePacked(msg.sender));\n    require(balances_[hashedAddress][_jobId] > 0, \"No balance to redeem.\");\n    if (token_.transfer(msg.sender, balances_[hashedAddress][_jobId])) {\n      balances_[hashedAddress][_jobId] = 0;\n      emit Redeemed(msg.sender);\n    }\n  }\n\n  function getBalance(address _address, bytes32 _jobId) public view returns (uint256) {\n    return balances_[keccak256(abi.encodePacked(_address))][_jobId];\n  }\n\n  function getBudget(bytes32 _jobId) public view returns (uint256) {\n    return budgets_[_jobId].budget;\n  }\n\n}\n",
  "sourcePath": "/Users/charles/Desktop/Development/Ara/ara-contracts/contracts/Jobs.sol",
  "compiler": {
    "name": "solc",
    "version": "0.4.24+commit.e67f0147.Emscripten.clang"
  },
  "schemaVersion": "2.0.1",
  "updatedAt": "2018-09-11T20:31:32.571Z"
}