{
  "contractName": "Jobs",
  "abi": [
    {
      "constant": true,
      "inputs": [],
      "name": "registry_",
      "outputs": [
        {
          "name": "",
          "type": "address"
        }
      ],
      "payable": false,
      "stateMutability": "view",
      "type": "function"
    },
    {
      "constant": true,
      "inputs": [
        {
          "name": "",
          "type": "bytes32"
        }
      ],
      "name": "unlocked_",
      "outputs": [
        {
          "name": "",
          "type": "bool"
        }
      ],
      "payable": false,
      "stateMutability": "view",
      "type": "function"
    },
    {
      "constant": true,
      "inputs": [
        {
          "name": "",
          "type": "bytes32"
        },
        {
          "name": "",
          "type": "bytes32"
        }
      ],
      "name": "balances_",
      "outputs": [
        {
          "name": "",
          "type": "uint256"
        }
      ],
      "payable": false,
      "stateMutability": "view",
      "type": "function"
    },
    {
      "constant": true,
      "inputs": [
        {
          "name": "",
          "type": "bytes32"
        }
      ],
      "name": "budgets_",
      "outputs": [
        {
          "name": "sender",
          "type": "address"
        },
        {
          "name": "budget",
          "type": "uint256"
        }
      ],
      "payable": false,
      "stateMutability": "view",
      "type": "function"
    },
    {
      "constant": true,
      "inputs": [],
      "name": "token_",
      "outputs": [
        {
          "name": "",
          "type": "address"
        }
      ],
      "payable": false,
      "stateMutability": "view",
      "type": "function"
    },
    {
      "inputs": [
        {
          "name": "_token",
          "type": "address"
        },
        {
          "name": "_registry",
          "type": "address"
        }
      ],
      "payable": false,
      "stateMutability": "nonpayable",
      "type": "constructor"
    },
    {
      "anonymous": false,
      "inputs": [
        {
          "indexed": false,
          "name": "_result",
          "type": "bool"
        },
        {
          "indexed": false,
          "name": "_hashedAddress",
          "type": "bytes32"
        }
      ],
      "name": "IsValidPurchase",
      "type": "event"
    },
    {
      "anonymous": false,
      "inputs": [
        {
          "indexed": false,
          "name": "_jobId",
          "type": "bytes32"
        }
      ],
      "name": "Unlocked",
      "type": "event"
    },
    {
      "anonymous": false,
      "inputs": [
        {
          "indexed": false,
          "name": "_jobId",
          "type": "bytes32"
        },
        {
          "indexed": false,
          "name": "_budget",
          "type": "uint256"
        }
      ],
      "name": "BudgetSubmitted",
      "type": "event"
    },
    {
      "anonymous": false,
      "inputs": [
        {
          "indexed": false,
          "name": "_allocated",
          "type": "uint256"
        },
        {
          "indexed": false,
          "name": "_returned",
          "type": "uint256"
        }
      ],
      "name": "RewardsAllocated",
      "type": "event"
    },
    {
      "anonymous": false,
      "inputs": [
        {
          "indexed": false,
          "name": "_sender",
          "type": "address"
        }
      ],
      "name": "Redeemed",
      "type": "event"
    },
    {
      "constant": false,
      "inputs": [
        {
          "name": "_jobId",
          "type": "bytes32"
        },
        {
          "name": "_budget",
          "type": "uint256"
        },
        {
          "name": "_contentId",
          "type": "bytes32"
        },
        {
          "name": "_hashedAddress",
          "type": "bytes32"
        }
      ],
      "name": "unlockJob",
      "outputs": [],
      "payable": false,
      "stateMutability": "nonpayable",
      "type": "function"
    },
    {
      "constant": false,
      "inputs": [
        {
          "name": "_jobId",
          "type": "bytes32"
        },
        {
          "name": "_budget",
          "type": "uint256"
        }
      ],
      "name": "submitBudget",
      "outputs": [],
      "payable": false,
      "stateMutability": "nonpayable",
      "type": "function"
    },
    {
      "constant": false,
      "inputs": [
        {
          "name": "_jobId",
          "type": "bytes32"
        },
        {
          "name": "_addresses",
          "type": "bytes32[]"
        },
        {
          "name": "_rewards",
          "type": "uint256[]"
        }
      ],
      "name": "allocateRewards",
      "outputs": [],
      "payable": false,
      "stateMutability": "nonpayable",
      "type": "function"
    },
    {
      "constant": false,
      "inputs": [
        {
          "name": "_jobId",
          "type": "bytes32"
        }
      ],
      "name": "redeemBalance",
      "outputs": [],
      "payable": false,
      "stateMutability": "nonpayable",
      "type": "function"
    },
    {
      "constant": true,
      "inputs": [
        {
          "name": "_address",
          "type": "address"
        },
        {
          "name": "_jobId",
          "type": "bytes32"
        }
      ],
      "name": "getBalance",
      "outputs": [
        {
          "name": "",
          "type": "uint256"
        }
      ],
      "payable": false,
      "stateMutability": "view",
      "type": "function"
    },
    {
      "constant": true,
      "inputs": [
        {
          "name": "_jobId",
          "type": "bytes32"
        }
      ],
      "name": "getBudget",
      "outputs": [
        {
          "name": "",
          "type": "uint256"
        }
      ],
      "payable": false,
      "stateMutability": "view",
      "type": "function"
    }
  ],
  "bytecode": "0x608060405234801561001057600080fd5b50604051604080611ab08339810180604052810190808051906020019092919080519060200190929190505050816000806101000a81548173ffffffffffffffffffffffffffffffffffffffff021916908373ffffffffffffffffffffffffffffffffffffffff16021790555080600160006101000a81548173ffffffffffffffffffffffffffffffffffffffff021916908373ffffffffffffffffffffffffffffffffffffffff16021790555050506119e1806100cf6000396000f3006080604052600436106100af576000357c0100000000000000000000000000000000000000000000000000000000900463ffffffff168063025ccbad146100b4578063330dc6fe1461010b5780633991926714610154578063546887a3146101a75780637910ce18146101ec578063b822871c1461021d578063c79d5ec514610295578063cc3a08f8146102fa578063d56805e1146103b1578063de6565ca14610408578063f51b69791461045f575b600080fd5b3480156100c057600080fd5b506100c961049a565b604051808273ffffffffffffffffffffffffffffffffffffffff1673ffffffffffffffffffffffffffffffffffffffff16815260200191505060405180910390f35b34801561011757600080fd5b5061013a60048036038101908080356000191690602001909291905050506104c0565b604051808215151515815260200191505060405180910390f35b34801561016057600080fd5b50610191600480360381019080803560001916906020019092919080356000191690602001909291905050506104e0565b6040518082815260200191505060405180910390f35b3480156101b357600080fd5b506101d66004803603810190808035600019169060200190929190505050610505565b6040518082815260200191505060405180910390f35b3480156101f857600080fd5b5061021b600480360381019080803560001916906020019092919050505061052d565b005b34801561022957600080fd5b5061024c6004803603810190808035600019169060200190929190505050610874565b604051808373ffffffffffffffffffffffffffffffffffffffff1673ffffffffffffffffffffffffffffffffffffffff1681526020018281526020019250505060405180910390f35b3480156102a157600080fd5b506102e4600480360381019080803573ffffffffffffffffffffffffffffffffffffffff16906020019092919080356000191690602001909291905050506108b8565b6040518082815260200191505060405180910390f35b34801561030657600080fd5b506103af600480360381019080803560001916906020019092919080359060200190820180359060200190808060200260200160405190810160405280939291908181526020018383602002808284378201915050505050509192919290803590602001908201803590602001908080602002602001604051908101604052809392919081815260200183836020028082843782019150505050505091929192905050506109b3565b005b3480156103bd57600080fd5b506103c6610ee2565b604051808273ffffffffffffffffffffffffffffffffffffffff1673ffffffffffffffffffffffffffffffffffffffff16815260200191505060405180910390f35b34801561041457600080fd5b5061045d60048036038101908080356000191690602001909291908035906020019092919080356000191690602001909291908035600019169060200190929190505050610f07565b005b34801561046b57600080fd5b50610498600480360381019080803560001916906020019092919080359060200190929190505050611333565b005b600160009054906101000a900473ffffffffffffffffffffffffffffffffffffffff1681565b60026020528060005260406000206000915054906101000a900460ff1681565b6003602052816000526040600020602052806000526040600020600091509150505481565b6000600460008360001916600019168152602001908152602001600020600101549050919050565b600033604051602001808273ffffffffffffffffffffffffffffffffffffffff1673ffffffffffffffffffffffffffffffffffffffff166c010000000000000000000000000281526014019150506040516020818303038152906040526040518082805190602001908083835b6020831015156105bf578051825260208201915060208101905060208303925061059a565b6001836020036101000a038019825116818451168082178552505050505050905001915050604051809103902090506000600360008360001916600019168152602001908152602001600020600084600019166000191681526020019081526020016000205411151561069a576040517f08c379a00000000000000000000000000000000000000000000000000000000081526004018080602001828103825260158152602001807f4e6f2062616c616e636520746f2072656465656d2e000000000000000000000081525060200191505060405180910390fd5b6000809054906101000a900473ffffffffffffffffffffffffffffffffffffffff1673ffffffffffffffffffffffffffffffffffffffff1663a9059cbb3360036000856000191660001916815260200190815260200160002060008660001916600019168152602001908152602001600020546040518363ffffffff167c0100000000000000000000000000000000000000000000000000000000028152600401808373ffffffffffffffffffffffffffffffffffffffff1673ffffffffffffffffffffffffffffffffffffffff16815260200182815260200192505050602060405180830381600087803b15801561079257600080fd5b505af11580156107a6573d6000803e3d6000fd5b505050506040513d60208110156107bc57600080fd5b81019080805190602001909291905050501561087057600060036000836000191660001916815260200190815260200160002060008460001916600019168152602001908152602001600020819055507fcb7d87f76b4d6501ac27ed560664bf84ce273a2ddd7b9b1da63c753e68ccae2033604051808273ffffffffffffffffffffffffffffffffffffffff1673ffffffffffffffffffffffffffffffffffffffff16815260200191505060405180910390a15b5050565b60046020528060005260406000206000915090508060000160009054906101000a900473ffffffffffffffffffffffffffffffffffffffff16908060010154905082565b60006003600084604051602001808273ffffffffffffffffffffffffffffffffffffffff1673ffffffffffffffffffffffffffffffffffffffff166c010000000000000000000000000281526014019150506040516020818303038152906040526040518082805190602001908083835b60208310151561094e5780518252602082019150602081019050602083039250610929565b6001836020036101000a0380198251168184511680821785525050505050509050019150506040518091039020600019166000191681526020019081526020016000206000836000191660001916815260200190815260200160002054905092915050565b600080600080863373ffffffffffffffffffffffffffffffffffffffff1660046000836000191660001916815260200190815260200160002060000160009054906101000a900473ffffffffffffffffffffffffffffffffffffffff1673ffffffffffffffffffffffffffffffffffffffff16148015610a515750600060046000836000191660001916815260200190815260200160002060010154115b1515610ac5576040517f08c379a00000000000000000000000000000000000000000000000000000000081526004018080602001828103825260128152602001807f42756467657420697320696e76616c69642e000000000000000000000000000081525060200191505060405180910390fd5b85518751141515610b64576040517f08c379a00000000000000000000000000000000000000000000000000000000081526004018080602001828103825260288152602001807f556e657175616c206e756d626572206f662061646472657373657320616e642081526020017f726577617264732e00000000000000000000000000000000000000000000000081525060400191505060405180910390fd5b600093505b85518460ff161015610ba157858460ff16815181101515610b8657fe5b90602001906020020151850194508380600101945050610b69565b600460008960001916600019168152602001908152602001600020600101548511151515610c37576040517f08c379a00000000000000000000000000000000000000000000000000000000081526004018080602001828103825260148152602001807f496e73756666696369656e74206275646765742e00000000000000000000000081525060200191505060405180910390fd5b600092505b86518360ff161015610d4c57858360ff16815181101515610c5957fe5b90602001906020020151600460008a600019166000191681526020019081526020016000206001015410151515610c8c57fe5b858360ff16815181101515610c9d57fe5b9060200190602002015160036000898660ff16815181101515610cbc57fe5b906020019060200201516000191660001916815260200190815260200160002060008a6000191660001916815260200190815260200160002081905550858360ff16815181101515610d0a57fe5b90602001906020020151600460008a60001916600019168152602001908152602001600020600101600082825403925050819055508280600101935050610c3c565b6004600089600019166000191681526020019081526020016000206001015491506000821115610e9957816003600033604051602001808273ffffffffffffffffffffffffffffffffffffffff1673ffffffffffffffffffffffffffffffffffffffff166c010000000000000000000000000281526014019150506040516020818303038152906040526040518082805190602001908083835b602083101515610e0b5780518252602082019150602081019050602083039250610de6565b6001836020036101000a03801982511681845116808217855250505050505090500191505060405180910390206000191660001916815260200190815260200160002060008a60001916600019168152602001908152602001600020819055506000600460008a6000191660001916815260200190815260200160002060010181905550610e988861052d565b5b7ff9ecaf62687e41c2eb3b9f3bb3e5562b198859fda05aed70e3cc7e3a060e8c9d8583604051808381526020018281526020019250505060405180910390a15050505050505050565b6000809054906101000a900473ffffffffffffffffffffffffffffffffffffffff1681565b81816000600160009054906101000a900473ffffffffffffffffffffffffffffffffffffffff1673ffffffffffffffffffffffffffffffffffffffff166392d00a4a846040518263ffffffff167c0100000000000000000000000000000000000000000000000000000000028152600401808260001916600019168152602001915050602060405180830381600087803b158015610fa457600080fd5b505af1158015610fb8573d6000803e3d6000fd5b505050506040513d6020811015610fce57600080fd5b810190808051906020019092919050505090508073ffffffffffffffffffffffffffffffffffffffff1663876ec572836040518263ffffffff167c0100000000000000000000000000000000000000000000000000000000028152600401808260001916600019168152602001915050602060405180830381600087803b15801561105857600080fd5b505af115801561106c573d6000803e3d6000fd5b505050506040513d602081101561108257600080fd5b81019080805190602001909291905050501515611107576040517f08c379a000000000000000000000000000000000000000000000000000000000815260040180806020018281038252600f8152602001807f4a6f6220697320696e76616c69642e000000000000000000000000000000000081525060200191505060405180910390fd5b3373ffffffffffffffffffffffffffffffffffffffff16600160009054906101000a900473ffffffffffffffffffffffffffffffffffffffff1673ffffffffffffffffffffffffffffffffffffffff16634349b4f2856040518263ffffffff167c0100000000000000000000000000000000000000000000000000000000028152600401808260001916600019168152602001915050602060405180830381600087803b1580156111b757600080fd5b505af11580156111cb573d6000803e3d6000fd5b505050506040513d60208110156111e157600080fd5b810190808051906020019092919050505073ffffffffffffffffffffffffffffffffffffffff161415156112a3576040517f08c379a00000000000000000000000000000000000000000000000000000000081526004018080602001828103825260228152602001807f556e6c6f636b206e6f74206f726967696e6174696e672066726f6d2070726f7881526020017f792e00000000000000000000000000000000000000000000000000000000000081525060400191505060405180910390fd5b600160026000896000191660001916815260200190815260200160002060006101000a81548160ff0219169083151502179055507f248ed1ed5e6e28246432a42651d384fadb929f7cefaacbe6a1764513e058ee748760405180826000191660001916815260200191505060405180910390a1600086111561132a576113298787611333565b5b50505050505050565b60008260026000826000191660001916815260200190815260200160002060009054906101000a900460ff1615156113d3576040517f08c379a00000000000000000000000000000000000000000000000000000000081526004018080602001828103825260158152602001807f4a6f62206d75737420626520756e6c6f636b65642e000000000000000000000081525060200191505060405180910390fd5b6000809054906101000a900473ffffffffffffffffffffffffffffffffffffffff1673ffffffffffffffffffffffffffffffffffffffff1663dd62ed3e33306040518363ffffffff167c0100000000000000000000000000000000000000000000000000000000028152600401808373ffffffffffffffffffffffffffffffffffffffff1673ffffffffffffffffffffffffffffffffffffffff1681526020018273ffffffffffffffffffffffffffffffffffffffff1673ffffffffffffffffffffffffffffffffffffffff16815260200192505050602060405180830381600087803b1580156114c357600080fd5b505af11580156114d7573d6000803e3d6000fd5b505050506040513d60208110156114ed57600080fd5b8101908080519060200190929190505050915060006001026000191684600019161415801561151c5750600083115b80156115285750828210155b80156116125750600073ffffffffffffffffffffffffffffffffffffffff1660046000866000191660001916815260200190815260200160002060000160009054906101000a900473ffffffffffffffffffffffffffffffffffffffff1673ffffffffffffffffffffffffffffffffffffffff16148061161157503373ffffffffffffffffffffffffffffffffffffffff1660046000866000191660001916815260200190815260200160002060000160009054906101000a900473ffffffffffffffffffffffffffffffffffffffff1673ffffffffffffffffffffffffffffffffffffffff16145b5b1515611686576040517f08c379a00000000000000000000000000000000000000000000000000000000081526004018080602001828103825260178152602001807f4a6f62207375626d697373696f6e20696e76616c69642e00000000000000000081525060200191505060405180910390fd5b6000809054906101000a900473ffffffffffffffffffffffffffffffffffffffff1673ffffffffffffffffffffffffffffffffffffffff166323b872dd3330866040518463ffffffff167c0100000000000000000000000000000000000000000000000000000000028152600401808473ffffffffffffffffffffffffffffffffffffffff1673ffffffffffffffffffffffffffffffffffffffff1681526020018373ffffffffffffffffffffffffffffffffffffffff1673ffffffffffffffffffffffffffffffffffffffff1681526020018281526020019350505050602060405180830381600087803b15801561177e57600080fd5b505af1158015611792573d6000803e3d6000fd5b505050506040513d60208110156117a857600080fd5b8101908080519060200190929190505050156119af5782600460008660001916600019168152602001908152602001600020600101600082825401925050819055503360046000866000191660001916815260200190815260200160002060000160006101000a81548173ffffffffffffffffffffffffffffffffffffffff021916908373ffffffffffffffffffffffffffffffffffffffff1602179055506000809054906101000a900473ffffffffffffffffffffffffffffffffffffffff1673ffffffffffffffffffffffffffffffffffffffff166370a08231306040518263ffffffff167c0100000000000000000000000000000000000000000000000000000000028152600401808273ffffffffffffffffffffffffffffffffffffffff1673ffffffffffffffffffffffffffffffffffffffff168152602001915050602060405180830381600087803b15801561190357600080fd5b505af1158015611917573d6000803e3d6000fd5b505050506040513d602081101561192d57600080fd5b8101908080519060200190929190505050600460008660001916600019168152602001908152602001600020600101541115151561196757fe5b7fb9fe79348b079577a7b0ce6c0e8afc10f28bb94294d55e896db16d1310a52aca84846040518083600019166000191681526020018281526020019250505060405180910390a15b505050505600a165627a7a723058209a4ff11a4c6f816feafd5ed663f3170e4c2aadb378dcce3c1612ad9657bab26c0029",
  "source": "pragma solidity 0.4.24;\n\nimport \"./AraToken.sol\";\nimport \"./Registry.sol\";\nimport \"./AFS.sol\";\n\ncontract Jobs {\n\n  AraToken public token_;\n  Registry public registry_;\n\n  mapping(bytes32 => bool)                        public unlocked_; // jobId => unlocked\n  mapping(bytes32 => mapping(bytes32 => uint256)) public balances_; // keccak256(address) => jobId => balance\n  mapping(bytes32 => Job)                         public budgets_; // jobId => Job\n\n  struct Job {\n    address sender;\n    uint256 budget;\n  }\n\n  event IsValidPurchase(bool _result, bytes32 _hashedAddress);\n  event Unlocked(bytes32 _jobId);\n  event BudgetSubmitted(bytes32 _jobId, uint256 _budget);\n  event RewardsAllocated(uint256 _allocated, uint256 _returned);\n  event Redeemed(address _sender);\n\n  constructor(address _token, address _registry) public {\n    token_ = AraToken(_token);\n    registry_ = Registry(_registry);\n  }\n\n  modifier jobUnlocked(bytes32 _jobId) {\n    require(unlocked_[_jobId], \"Job must be unlocked.\");\n    _;\n  }\n\n  modifier budgetSubmitted(bytes32 _jobId) {\n    require(budgets_[_jobId].sender == msg.sender \n      && budgets_[_jobId].budget > 0, \"Budget is invalid.\");\n    _;\n  }\n\n  modifier isValidPurchase(bytes32 _contentId, bytes32 _hashedAddress) {\n    AFS afs = AFS(registry_.getProxyAddress(_contentId));\n    require(afs.isPurchaser(_hashedAddress), \"Job is invalid.\");\n    require(registry_.getProxyImplementation(_contentId) == msg.sender, \"Unlock not originating from proxy.\");\n     _;\n  }\n\n  // testing not using modifier\n  function unlockJob(bytes32 _jobId, uint256 _budget, bytes32 _contentId, bytes32 _hashedAddress) \n    external isValidPurchase(_contentId, _hashedAddress) {\n\n    unlocked_[_jobId] = true;\n    emit Unlocked(_jobId);\n\n    if(_budget > 0) {\n      submitBudget(_jobId, _budget);\n    }\n  }\n\n  // test this WITHOUT unlocking job first, make sure it reverts\n  // test this after unlocking job (purchase) with budget of 0\n  function submitBudget(bytes32 _jobId, uint256 _budget) public jobUnlocked(_jobId) {\n    uint256 allowance = token_.allowance(msg.sender, address(this));\n    require(_jobId != bytes32(0) && _budget > 0 && allowance >= _budget\n      && (budgets_[_jobId].sender == address(0) || budgets_[_jobId].sender == msg.sender), \"Job submission invalid.\");\n\n    if (token_.transferFrom(msg.sender, address(this), _budget)) {\n      budgets_[_jobId].budget += _budget;\n      budgets_[_jobId].sender = msg.sender;\n      assert(budgets_[_jobId].budget <= token_.balanceOf(address(this)));\n      emit BudgetSubmitted(_jobId, _budget);\n    }\n  }\n\n  function allocateRewards(bytes32 _jobId, bytes32[] _addresses, uint256[] _rewards) public budgetSubmitted(_jobId) {\n    require(_addresses.length == _rewards.length, \"Unequal number of addresses and rewards.\");\n    uint256 totalRewards;\n    for (uint8 i = 0; i < _rewards.length; i++) {\n      totalRewards += _rewards[i];\n    }\n    require(totalRewards <= budgets_[_jobId].budget, \"Insufficient budget.\");\n    for (uint8 j = 0; j < _addresses.length; j++) {\n      assert(budgets_[_jobId].budget >= _rewards[j]);\n      balances_[_addresses[j]][_jobId] = _rewards[j];\n      budgets_[_jobId].budget -= _rewards[j];\n    }\n\n    uint256 remaining = budgets_[_jobId].budget;\n    if (remaining > 0) {\n      balances_[keccak256(abi.encodePacked(msg.sender))][_jobId] = remaining;\n      budgets_[_jobId].budget = 0;\n      redeemBalance(_jobId);\n    }\n\n    emit RewardsAllocated(totalRewards, remaining);\n  }\n\n  function redeemBalance(bytes32 _jobId) public {\n    bytes32 hashedAddress = keccak256(abi.encodePacked(msg.sender));\n    require(balances_[hashedAddress][_jobId] > 0, \"No balance to redeem.\");\n    if (token_.transfer(msg.sender, balances_[hashedAddress][_jobId])) {\n      balances_[hashedAddress][_jobId] = 0;\n      emit Redeemed(msg.sender);\n    }\n  }\n\n  function getBalance(address _address, bytes32 _jobId) public view returns (uint256) {\n    return balances_[keccak256(abi.encodePacked(_address))][_jobId];\n  }\n\n  function getBudget(bytes32 _jobId) public view returns (uint256) {\n    return budgets_[_jobId].budget;\n  }\n\n}\n",
  "sourcePath": "/Users/charles/Desktop/Development/Ara/ara-contracts/contracts/Jobs.sol",
  "compiler": {
    "name": "solc",
    "version": "0.4.24+commit.e67f0147.Emscripten.clang"
  },
  "schemaVersion": "2.0.1",
  "updatedAt": "2018-09-10T22:10:20.088Z"
}