{
  "contractName": "Library",
  "abi": [
    {
      "constant": true,
      "inputs": [],
      "name": "owner_",
      "outputs": [
        {
          "name": "",
          "type": "address"
        }
      ],
      "payable": false,
      "stateMutability": "view",
      "type": "function"
    },
    {
      "inputs": [
        {
          "name": "_registry",
          "type": "address"
        }
      ],
      "payable": false,
      "stateMutability": "nonpayable",
      "type": "constructor"
    },
    {
      "anonymous": false,
      "inputs": [
        {
          "indexed": false,
          "name": "_contentId",
          "type": "bytes32"
        }
      ],
      "name": "AddedToLib",
      "type": "event"
    },
    {
      "constant": true,
      "inputs": [
        {
          "name": "_identity",
          "type": "bytes32"
        }
      ],
      "name": "getLibrarySize",
      "outputs": [
        {
          "name": "size",
          "type": "uint16"
        }
      ],
      "payable": false,
      "stateMutability": "view",
      "type": "function"
    },
    {
      "constant": true,
      "inputs": [
        {
          "name": "_identity",
          "type": "bytes32"
        },
        {
          "name": "_index",
          "type": "uint16"
        }
      ],
      "name": "getLibraryItem",
      "outputs": [
        {
          "name": "contentId",
          "type": "bytes32"
        }
      ],
      "payable": false,
      "stateMutability": "view",
      "type": "function"
    },
    {
      "constant": false,
      "inputs": [
        {
          "name": "_identity",
          "type": "bytes32"
        },
        {
          "name": "_contentId",
          "type": "bytes32"
        }
      ],
      "name": "addLibraryItem",
      "outputs": [],
      "payable": false,
      "stateMutability": "nonpayable",
      "type": "function"
    }
  ],
  "bytecode": "0x608060405234801561001057600080fd5b506040516020806106a983398101806040528101908080519060200190929190505050336000806101000a81548173ffffffffffffffffffffffffffffffffffffffff021916908373ffffffffffffffffffffffffffffffffffffffff16021790555080600260006101000a81548173ffffffffffffffffffffffffffffffffffffffff021916908373ffffffffffffffffffffffffffffffffffffffff160217905550506105e5806100c46000396000f300608060405260043610610062576000357c0100000000000000000000000000000000000000000000000000000000900463ffffffff1680630c2bb965146100675780631debd6ad146100a657806396cd472d14610101578063e76630791461014e575b600080fd5b34801561007357600080fd5b506100a4600480360381019080803560001916906020019092919080356000191690602001909291905050506101a5565b005b3480156100b257600080fd5b506100e36004803603810190808035600019169060200190929190803561ffff169060200190929190505050610471565b60405180826000191660001916815260200191505060405180910390f35b34801561010d57600080fd5b50610130600480360381019080803560001916906020019092919050505061055e565b604051808261ffff1661ffff16815260200191505060405180910390f35b34801561015a57600080fd5b50610163610594565b604051808273ffffffffffffffffffffffffffffffffffffffff1673ffffffffffffffffffffffffffffffffffffffff16815260200191505060405180910390f35b600081600260009054906101000a900473ffffffffffffffffffffffffffffffffffffffff1673ffffffffffffffffffffffffffffffffffffffff166392d00a4a826040518263ffffffff167c0100000000000000000000000000000000000000000000000000000000028152600401808260001916600019168152602001915050602060405180830381600087803b15801561024157600080fd5b505af1158015610255573d6000803e3d6000fd5b505050506040513d602081101561026b57600080fd5b810190808051906020019092919050505073ffffffffffffffffffffffffffffffffffffffff163373ffffffffffffffffffffffffffffffffffffffff1614151561031e576040517f08c379a00000000000000000000000000000000000000000000000000000000081526004018080602001828103825260158152602001807f50726f7879206e6f7420617574686f72697a65642e000000000000000000000081525060200191505060405180910390fd5b60016000856000191660001916815260200190815260200160002060000160009054906101000a900461ffff16915060006001026000191660016000866000191660001916815260200190815260200160002060010160008461ffff1661ffff168152602001908152602001600020546000191614151561039b57fe5b8260016000866000191660001916815260200190815260200160002060010160008461ffff1661ffff1681526020019081526020016000208160001916905550600160008560001916600019168152602001908152602001600020600001600081819054906101000a900461ffff168092919060010191906101000a81548161ffff021916908361ffff160217905550507ff63bf098562563b35cf251263155341e1df292b50064b5c4e5c6861c28a3044c8360405180826000191660001916815260200191505060405180910390a150505050565b600060016000846000191660001916815260200190815260200160002060000160009054906101000a900461ffff1661ffff168261ffff1610151561051e576040517f08c379a00000000000000000000000000000000000000000000000000000000081526004018080602001828103825260158152602001807f496e64657820646f6573206e6f742065786973742e000000000000000000000081525060200191505060405180910390fd5b60016000846000191660001916815260200190815260200160002060010160008361ffff1661ffff16815260200190815260200160002054905092915050565b600060016000836000191660001916815260200190815260200160002060000160009054906101000a900461ffff169050919050565b6000809054906101000a900473ffffffffffffffffffffffffffffffffffffffff16815600a165627a7a723058203a84e89e938090b675c5e097965022c200588aa8b2ed26b3f91ad4ba0f8b13b60029",
  "source": "pragma solidity ^0.4.24;\n\nimport \"./Registry.sol\";\n\ncontract Library {\n  address public owner_;\n  mapping (bytes32 => Lib) private libraries_; // hashed methodless owner did => library\n  Registry registry_;\n\n  struct Lib {\n    uint16 size;\n    mapping (uint16 => bytes32) content; // index => contentId (unhashed)\n  }\n\n  event AddedToLib(bytes32 _contentId);\n\n  constructor(address _registry) public {\n    owner_ = msg.sender;\n    registry_ = Registry(_registry);\n  }\n\n  modifier restricted() {\n    require (msg.sender == owner_, \"Sender not authorized.\");\n     _;\n  }\n\n  modifier fromProxy(bytes32 _contentId) {\n    require (msg.sender == registry_.getProxyAddress(_contentId), \"Proxy not authorized.\");\n     _;\n  }\n\n  function getLibrarySize(bytes32 _identity) public view returns (uint16 size) {\n    return libraries_[_identity].size;\n  }\n\n  function getLibraryItem(bytes32 _identity, uint16 _index) public view returns (bytes32 contentId) {\n    require (_index < libraries_[_identity].size, \"Index does not exist.\");\n    return libraries_[_identity].content[_index];\n  }\n\n  function addLibraryItem(bytes32 _identity, bytes32 _contentId) public fromProxy(_contentId) {\n    uint16 libSize = libraries_[_identity].size;\n    assert (libraries_[_identity].content[libSize] == bytes32(0));\n    libraries_[_identity].content[libSize] = _contentId;\n    libraries_[_identity].size++;\n    emit AddedToLib(_contentId);\n  }\n}\n",
  "sourcePath": "/Users/ericjiang/Littlstar/ara-contracts/contracts/Library.sol",
  "compiler": {
    "name": "solc",
    "version": "0.4.24+commit.e67f0147.Emscripten.clang"
  },
  "schemaVersion": "2.0.1",
  "updatedAt": "2018-08-28T17:16:10.603Z"
}