{
  "contractName": "Library",
  "abi": [
    {
      "constant": true,
      "inputs": [],
      "name": "owner_",
      "outputs": [
        {
          "name": "",
          "type": "address"
        }
      ],
      "payable": false,
      "stateMutability": "view",
      "type": "function"
    },
    {
      "inputs": [
        {
          "name": "_registry",
          "type": "address"
        }
      ],
      "payable": false,
      "stateMutability": "nonpayable",
      "type": "constructor"
    },
    {
      "anonymous": false,
      "inputs": [
        {
          "indexed": false,
          "name": "_contentId",
          "type": "bytes32"
        }
      ],
      "name": "AddedToLib",
      "type": "event"
    },
    {
      "anonymous": false,
      "inputs": [
        {
          "indexed": false,
          "name": "_contentId",
          "type": "bytes32"
        }
      ],
      "name": "RemovedFromLib",
      "type": "event"
    },
    {
      "constant": true,
      "inputs": [
        {
          "name": "_identity",
          "type": "bytes32"
        }
      ],
      "name": "getLibrary",
      "outputs": [
        {
          "name": "",
          "type": "bytes32[]"
        }
      ],
      "payable": false,
      "stateMutability": "view",
      "type": "function"
    },
    {
      "constant": true,
      "inputs": [
        {
          "name": "_identity",
          "type": "bytes32"
        }
      ],
      "name": "getLibrarySize",
      "outputs": [
        {
          "name": "",
          "type": "uint256"
        }
      ],
      "payable": false,
      "stateMutability": "view",
      "type": "function"
    },
    {
      "constant": true,
      "inputs": [
        {
          "name": "_identity",
          "type": "bytes32"
        },
        {
          "name": "_contentId",
          "type": "bytes32"
        }
      ],
      "name": "owns",
      "outputs": [
        {
          "name": "",
          "type": "bool"
        }
      ],
      "payable": false,
      "stateMutability": "view",
      "type": "function"
    },
    {
      "constant": false,
      "inputs": [
        {
          "name": "_identity",
          "type": "bytes32"
        },
        {
          "name": "_contentId",
          "type": "bytes32"
        }
      ],
      "name": "addLibraryItem",
      "outputs": [],
      "payable": false,
      "stateMutability": "nonpayable",
      "type": "function"
    },
    {
      "constant": false,
      "inputs": [
        {
          "name": "_identity",
          "type": "bytes32"
        },
        {
          "name": "_contentId",
          "type": "bytes32"
        }
      ],
      "name": "removeLibraryItem",
      "outputs": [],
      "payable": false,
      "stateMutability": "nonpayable",
      "type": "function"
    }
  ],
  "bytecode": "0x608060405234801561001057600080fd5b50604051602080610cb583398101806040528101908080519060200190929190505050336000806101000a81548173ffffffffffffffffffffffffffffffffffffffff021916908373ffffffffffffffffffffffffffffffffffffffff16021790555080600260006101000a81548173ffffffffffffffffffffffffffffffffffffffff021916908373ffffffffffffffffffffffffffffffffffffffff16021790555050610bf1806100c46000396000f300608060405260043610610078576000357c0100000000000000000000000000000000000000000000000000000000900463ffffffff1680630c2bb9651461007d578063346e98e1146100bc57806387e527721461014257806396cd472d14610181578063a513cc9c146101c6578063e76630791461021d575b600080fd5b34801561008957600080fd5b506100ba60048036038101908080356000191690602001909291908035600019169060200190929190505050610274565b005b3480156100c857600080fd5b506100eb60048036038101908080356000191690602001909291905050506105ac565b6040518080602001828103825283818151815260200191508051906020019060200280838360005b8381101561012e578082015181840152602081019050610113565b505050509050019250505060405180910390f35b34801561014e57600080fd5b5061017f60048036038101908080356000191690602001909291908035600019169060200190929190505050610626565b005b34801561018d57600080fd5b506101b06004803603810190808035600019169060200190929190505050610ad5565b6040518082815260200191505060405180910390f35b3480156101d257600080fd5b5061020360048036038101908080356000191690602001909291908035600019169060200190929190505050610b00565b604051808215151515815260200191505060405180910390f35b34801561022957600080fd5b50610232610b4f565b604051808273ffffffffffffffffffffffffffffffffffffffff1673ffffffffffffffffffffffffffffffffffffffff16815260200191505060405180910390f35b80600260009054906101000a900473ffffffffffffffffffffffffffffffffffffffff1673ffffffffffffffffffffffffffffffffffffffff166392d00a4a826040518263ffffffff167c0100000000000000000000000000000000000000000000000000000000028152600401808260001916600019168152602001915050602060405180830381600087803b15801561030e57600080fd5b505af1158015610322573d6000803e3d6000fd5b505050506040513d602081101561033857600080fd5b810190808051906020019092919050505073ffffffffffffffffffffffffffffffffffffffff163373ffffffffffffffffffffffffffffffffffffffff161415156103eb576040517f08c379a00000000000000000000000000000000000000000000000000000000081526004018080602001828103825260158152602001807f50726f7879206e6f7420617574686f72697a65642e000000000000000000000081525060200191505060405180910390fd5b6001600084600019166000191681526020019081526020016000206001016000836000191660001916815260200190815260200160002060009054906101000a900460ff161515156104cb576040517f08c379a00000000000000000000000000000000000000000000000000000000081526004018080602001828103825260318152602001807f43616e6e6f742061646420636f6e74656e74207468617420746865206163636f81526020017f756e7420616c7265616479206f776e732e00000000000000000000000000000081525060400191505060405180910390fd5b600160008460001916600019168152602001908152602001600020600001829080600181540180825580915050906001820390600052602060002001600090919290919091509060001916905550600180600085600019166000191681526020019081526020016000206001016000846000191660001916815260200190815260200160002060006101000a81548160ff0219169083151502179055507ff63bf098562563b35cf251263155341e1df292b50064b5c4e5c6861c28a3044c8260405180826000191660001916815260200191505060405180910390a1505050565b606060016000836000191660001916815260200190815260200160002060000180548060200260200160405190810160405280929190818152602001828054801561061a57602002820191906000526020600020905b81546000191681526020019060010190808311610602575b50505050509050919050565b600080600083600260009054906101000a900473ffffffffffffffffffffffffffffffffffffffff1673ffffffffffffffffffffffffffffffffffffffff166392d00a4a826040518263ffffffff167c0100000000000000000000000000000000000000000000000000000000028152600401808260001916600019168152602001915050602060405180830381600087803b1580156106c557600080fd5b505af11580156106d9573d6000803e3d6000fd5b505050506040513d60208110156106ef57600080fd5b810190808051906020019092919050505073ffffffffffffffffffffffffffffffffffffffff163373ffffffffffffffffffffffffffffffffffffffff161415156107a2576040517f08c379a00000000000000000000000000000000000000000000000000000000081526004018080602001828103825260158152602001807f50726f7879206e6f7420617574686f72697a65642e000000000000000000000081525060200191505060405180910390fd5b6001600087600019166000191681526020019081526020016000206001016000866000191660001916815260200190815260200160002060009054906101000a900460ff161515610881576040517f08c379a00000000000000000000000000000000000000000000000000000000081526004018080602001828103825260308152602001807f43616e6e6f742072656d6f766520636f6e74656e742074686174206163636f7581526020017f6e7420646f6573206e6f74206f776e2e0000000000000000000000000000000081525060400191505060405180910390fd5b6000935060009250600091505b60016000876000191660001916815260200190815260200160002060000180549050821015610911578460001916600160008860001916600019168152602001908152602001600020600001838154811015156108e757fe5b906000526020600020015460001916141561090457600192508193505b818060010192505061088e565b82151561091a57fe5b60016000876000191660001916815260200190815260200160002060000160018060008960001916600019168152602001908152602001600020600001805490500381548110151561096857fe5b90600052602060002001546001600088600019166000191681526020019081526020016000206000018581548110151561099e57fe5b9060005260206000200181600019169055506001600087600019166000191681526020019081526020016000206000016001806000896000191660001916815260200190815260200160002060000180549050038154811015156109fe57fe5b9060005260206000200160009055600160008760001916600019168152602001908152602001600020600001805480919060019003610a3d9190610b74565b5060006001600088600019166000191681526020019081526020016000206001016000876000191660001916815260200190815260200160002060006101000a81548160ff0219169083151502179055507f05e681c95f954496cd52ef85333c9536f93266610205c73e9859297c55343ca68560405180826000191660001916815260200191505060405180910390a1505050505050565b6000600160008360001916600019168152602001908152602001600020600001805490509050919050565b60006001600084600019166000191681526020019081526020016000206001016000836000191660001916815260200190815260200160002060009054906101000a900460ff16905092915050565b6000809054906101000a900473ffffffffffffffffffffffffffffffffffffffff1681565b815481835581811115610b9b57818360005260206000209182019101610b9a9190610ba0565b5b505050565b610bc291905b80821115610bbe576000816000905550600101610ba6565b5090565b905600a165627a7a723058208d5a7ef4f49563092d73e57622c8f9cd5221eb7744c96aab0fc96e9368d35bff0029",
  "source": "pragma solidity ^0.4.24;\n\nimport \"./Registry.sol\";\n\ncontract Library {\n  address public owner_;\n  mapping (bytes32 => Lib) private libraries_; // hashed methodless owner did => library\n  Registry registry_;\n\n  struct Lib {\n    bytes32[] content; // content DID (unhashed)\n    mapping(bytes32 => bool) owned; // contentDID (unhashed) => owned\n  }\n\n  event AddedToLib(bytes32 _contentId);\n  event RemovedFromLib(bytes32 _contentId);\n\n  constructor(address _registry) public {\n    owner_ = msg.sender;\n    registry_ = Registry(_registry);\n  }\n\n  modifier restricted() {\n    require (msg.sender == owner_, \"Sender not authorized.\");\n     _;\n  }\n\n  modifier fromProxy(bytes32 _contentId) {\n    require (msg.sender == registry_.getProxyAddress(_contentId), \"Proxy not authorized.\");\n     _;\n  }\n\n  function getLibrary(bytes32 _identity) public view returns (bytes32[]) {\n    return libraries_[_identity].content;\n  }\n\n  function getLibrarySize(bytes32 _identity) public view returns (uint256) {\n    return libraries_[_identity].content.length;\n  }\n\n  function owns(bytes32 _identity, bytes32 _contentId) public view returns (bool) {\n    return libraries_[_identity].owned[_contentId];\n  }\n\n  function addLibraryItem(bytes32 _identity, bytes32 _contentId) public fromProxy(_contentId) {\n    require(!libraries_[_identity].owned[_contentId], \"Cannot add content that the account already owns.\");\n    libraries_[_identity].content.push(_contentId);\n    libraries_[_identity].owned[_contentId] = true;\n    emit AddedToLib(_contentId);\n  }\n\n  function removeLibraryItem(bytes32 _identity, bytes32 _contentId) public fromProxy(_contentId) {\n    require(libraries_[_identity].owned[_contentId], \"Cannot remove content that account does not own.\");\n    uint256 index = 0;\n    bool found = false;\n    for (uint256 i = 0; i < libraries_[_identity].content.length; i++) {\n      if (libraries_[_identity].content[i] == _contentId) {\n        found = true;\n        index = i;\n      }\n    }\n    assert(found);\n    libraries_[_identity].content[index] = libraries_[_identity].content[libraries_[_identity].content.length - 1];\n    delete libraries_[_identity].content[libraries_[_identity].content.length - 1];\n    libraries_[_identity].content.length--;\n    libraries_[_identity].owned[_contentId] = false;\n    emit RemovedFromLib(_contentId);\n  }\n}\n",
  "sourcePath": "/Users/ericjiang/Littlstar/ara-contracts/contracts/Library.sol",
  "compiler": {
    "name": "solc",
    "version": "0.4.24+commit.e67f0147.Emscripten.clang"
  },
  "schemaVersion": "2.0.1",
  "updatedAt": "2018-10-15T18:35:29.011Z"
}