{
  "contractName": "Library",
  "abi": [
    {
      "constant": true,
      "inputs": [],
      "name": "owner_",
      "outputs": [
        {
          "name": "",
          "type": "address"
        }
      ],
      "payable": false,
      "stateMutability": "view",
      "type": "function"
    },
    {
      "inputs": [
        {
          "name": "_registry",
          "type": "address"
        }
      ],
      "payable": false,
      "stateMutability": "nonpayable",
      "type": "constructor"
    },
    {
      "anonymous": false,
      "inputs": [
        {
          "indexed": false,
          "name": "contentId",
          "type": "string"
        }
      ],
      "name": "LogAdded",
      "type": "event"
    },
    {
      "constant": true,
      "inputs": [
        {
          "name": "_identity",
          "type": "string"
        }
      ],
      "name": "getLibrarySize",
      "outputs": [
        {
          "name": "size",
          "type": "uint16"
        }
      ],
      "payable": false,
      "stateMutability": "view",
      "type": "function"
    },
    {
      "constant": true,
      "inputs": [
        {
          "name": "_identity",
          "type": "string"
        },
        {
          "name": "_index",
          "type": "uint16"
        }
      ],
      "name": "getLibraryItem",
      "outputs": [
        {
          "name": "contentId",
          "type": "string"
        }
      ],
      "payable": false,
      "stateMutability": "view",
      "type": "function"
    },
    {
      "constant": false,
      "inputs": [
        {
          "name": "_identity",
          "type": "string"
        },
        {
          "name": "_contentId",
          "type": "string"
        }
      ],
      "name": "addLibraryItem",
      "outputs": [],
      "payable": false,
      "stateMutability": "nonpayable",
      "type": "function"
    }
  ],
  "bytecode": "0x608060405234801561001057600080fd5b50604051602080610af283398101806040528101908080519060200190929190505050336000806101000a81548173ffffffffffffffffffffffffffffffffffffffff021916908373ffffffffffffffffffffffffffffffffffffffff16021790555080600260006101000a81548173ffffffffffffffffffffffffffffffffffffffff021916908373ffffffffffffffffffffffffffffffffffffffff16021790555050610a2e806100c46000396000f300608060405260043610610062576000357c0100000000000000000000000000000000000000000000000000000000900463ffffffff1680635b65ea6b146100675780638ff4e0a714610157578063a4bf6eb514610206578063e76630791461028b575b600080fd5b34801561007357600080fd5b506100dc600480360381019080803590602001908201803590602001908080601f0160208091040260200160405190810160405280939291908181526020018383808284378201915050505050509192919290803561ffff1690602001909291905050506102e2565b6040518080602001828103825283818151815260200191508051906020019080838360005b8381101561011c578082015181840152602081019050610101565b50505050905090810190601f1680156101495780820380516001836020036101000a031916815260200191505b509250505060405180910390f35b34801561016357600080fd5b50610204600480360381019080803590602001908201803590602001908080601f0160208091040260200160405190810160405280939291908181526020018383808284378201915050505050509192919290803590602001908201803590602001908080601f01602080910402602001604051908101604052809392919081815260200183838082843782019150505050505091929192905050506104af565b005b34801561021257600080fd5b5061026d600480360381019080803590602001908201803590602001908080601f01602080910402602001604051908101604052809392919081815260200183838082843782019150505050505091929192905050506108b2565b604051808261ffff1661ffff16815260200191505060405180910390f35b34801561029757600080fd5b506102a0610938565b604051808273ffffffffffffffffffffffffffffffffffffffff1673ffffffffffffffffffffffffffffffffffffffff16815260200191505060405180910390f35b60606001836040518082805190602001908083835b60208310151561031c57805182526020820191506020810190506020830392506102f7565b6001836020036101000a038019825116818451168082178552505050505050905001915050908152602001604051809103902060000160009054906101000a900461ffff1661ffff168261ffff1610801561037c575060008261ffff1610155b151561038757600080fd5b6001836040518082805190602001908083835b6020831015156103bf578051825260208201915060208101905060208303925061039a565b6001836020036101000a038019825116818451168082178552505050505050905001915050908152602001604051809103902060010160008361ffff1661ffff1681526020019081526020016000208054600181600116156101000203166002900480601f0160208091040260200160405190810160405280929190818152602001828054600181600116156101000203166002900480156104a25780601f10610477576101008083540402835291602001916104a2565b820191906000526020600020905b81548152906001019060200180831161048557829003601f168201915b5050505050905092915050565b6000600260009054906101000a900473ffffffffffffffffffffffffffffffffffffffff1673ffffffffffffffffffffffffffffffffffffffff166336f80eca6040518163ffffffff167c0100000000000000000000000000000000000000000000000000000000028152600401602060405180830381600087803b15801561053757600080fd5b505af115801561054b573d6000803e3d6000fd5b505050506040513d602081101561056157600080fd5b810190808051906020019092919050505073ffffffffffffffffffffffffffffffffffffffff163373ffffffffffffffffffffffffffffffffffffffff161415156105ab57600080fd5b6001836040518082805190602001908083835b6020831015156105e357805182526020820191506020810190506020830392506105be565b6001836020036101000a038019825116818451168082178552505050505050905001915050908152602001604051809103902060000160009054906101000a900461ffff16905060006001846040518082805190602001908083835b602083101515610664578051825260208201915060208101905060208303925061063f565b6001836020036101000a038019825116818451168082178552505050505050905001915050908152602001604051809103902060010160008361ffff1661ffff1681526020019081526020016000208054600181600116156101000203166002900490501415156106d457600080fd5b816001846040518082805190602001908083835b60208310151561070d57805182526020820191506020810190506020830392506106e8565b6001836020036101000a038019825116818451168082178552505050505050905001915050908152602001604051809103902060010160008361ffff1661ffff168152602001908152602001600020908051906020019061076f92919061095d565b506001836040518082805190602001908083835b6020831015156107a85780518252602082019150602081019050602083039250610783565b6001836020036101000a0380198251168184511680821785525050505050509050019150509081526020016040518091039020600001600081819054906101000a900461ffff168092919060010191906101000a81548161ffff021916908361ffff160217905550507fd2dadd43fa39b698f266b4a89a28da3f058f6bf9d8bf9d0ba8bdd39fcfc14b55826040518080602001828103825283818151815260200191508051906020019080838360005b83811015610873578082015181840152602081019050610858565b50505050905090810190601f1680156108a05780820380516001836020036101000a031916815260200191505b509250505060405180910390a1505050565b60006001826040518082805190602001908083835b6020831015156108ec57805182526020820191506020810190506020830392506108c7565b6001836020036101000a038019825116818451168082178552505050505050905001915050908152602001604051809103902060000160009054906101000a900461ffff169050919050565b6000809054906101000a900473ffffffffffffffffffffffffffffffffffffffff1681565b828054600181600116156101000203166002900490600052602060002090601f016020900481019282601f1061099e57805160ff19168380011785556109cc565b828001600101855582156109cc579182015b828111156109cb5782518255916020019190600101906109b0565b5b5090506109d991906109dd565b5090565b6109ff91905b808211156109fb5760008160009055506001016109e3565b5090565b905600a165627a7a72305820a9fa0b5da4294d51b98213a5ac1c2fedf1a8c9e5a60f1f8b3c19f9390874bdf60029",
  "source": "pragma solidity ^0.4.24;\n\nimport \"./Registry.sol\";\n\ncontract Library {\n  address public owner_;\n  mapping (string => Lib) private libraries_;\n  Registry registry_;\n\n  struct Lib {\n    uint16 size;\n    mapping (uint16 => string) content;\n  }\n\n  event LogAdded(string contentId);\n\n  constructor(address _registry) public {\n    owner_ = msg.sender;\n    registry_ = Registry(_registry);\n  }\n\n  modifier restricted() {\n    require (msg.sender == owner_);\n     _;\n  }\n\n  modifier fromStandard() {\n    require (msg.sender == registry_.standard_());\n     _;\n  }\n\n  function getLibrarySize(string _identity) public view returns (uint16 size) {\n    return libraries_[_identity].size;\n  }\n\n  function getLibraryItem(string _identity, uint16 _index) public view returns (string contentId) {\n    require (_index < libraries_[_identity].size && _index >= 0);\n    return libraries_[_identity].content[_index];\n  }\n\n  function addLibraryItem(string _identity, string _contentId) public fromStandard {\n    uint16 libSize = libraries_[_identity].size;\n    require (bytes(libraries_[_identity].content[libSize]).length == 0);\n    libraries_[_identity].content[libSize] = _contentId;\n    libraries_[_identity].size++;\n    emit LogAdded(_contentId);\n  }\n}\n",
  "sourcePath": "/Users/ericjiang/Littlstar/ara-contracts/contracts/Library.sol",
  "compiler": {
    "name": "solc",
    "version": "0.4.24+commit.e67f0147.Emscripten.clang"
  },
  "schemaVersion": "2.0.1",
  "updatedAt": "2018-07-31T17:48:07.259Z"
}