{
  "contractName": "Library",
  "abi": [
    {
      "constant": true,
      "inputs": [],
      "name": "owner_",
      "outputs": [
        {
          "name": "",
          "type": "address"
        }
      ],
      "payable": false,
      "stateMutability": "view",
      "type": "function"
    },
    {
      "anonymous": false,
      "inputs": [
        {
          "indexed": true,
          "name": "_identity",
          "type": "bytes32"
        },
        {
          "indexed": true,
          "name": "_contentId",
          "type": "bytes32"
        }
      ],
      "name": "AddedToLib",
      "type": "event"
    },
    {
      "constant": false,
      "inputs": [
        {
          "name": "_data",
          "type": "bytes"
        }
      ],
      "name": "init",
      "outputs": [],
      "payable": false,
      "stateMutability": "nonpayable",
      "type": "function"
    },
    {
      "constant": true,
      "inputs": [
        {
          "name": "_identity",
          "type": "bytes32"
        }
      ],
      "name": "getLibrarySize",
      "outputs": [
        {
          "name": "size",
          "type": "uint256"
        }
      ],
      "payable": false,
      "stateMutability": "view",
      "type": "function"
    },
    {
      "constant": true,
      "inputs": [
        {
          "name": "_identity",
          "type": "bytes32"
        },
        {
          "name": "_index",
          "type": "uint256"
        }
      ],
      "name": "getLibraryItem",
      "outputs": [
        {
          "name": "contentId",
          "type": "bytes32"
        }
      ],
      "payable": false,
      "stateMutability": "view",
      "type": "function"
    },
    {
      "constant": false,
      "inputs": [
        {
          "name": "_identity",
          "type": "bytes32"
        },
        {
          "name": "_contentId",
          "type": "bytes32"
        }
      ],
      "name": "addLibraryItem",
      "outputs": [],
      "payable": false,
      "stateMutability": "nonpayable",
      "type": "function"
    }
  ],
  "bytecode": "0x608060405234801561001057600080fd5b50610761806100206000396000f30060806040526004361061006d576000357c0100000000000000000000000000000000000000000000000000000000900463ffffffff1680630c2bb965146100725780634453cc72146100b15780634ddf47d41461010857806396cd472d14610171578063e7663079146101b6575b600080fd5b34801561007e57600080fd5b506100af6004803603810190808035600019169060200190929190803560001916906020019092919050505061020d565b005b3480156100bd57600080fd5b506100ea60048036038101908080356000191690602001909291908035906020019092919050505061048f565b60405180826000191660001916815260200191505060405180910390f35b34801561011457600080fd5b5061016f600480360381019080803590602001908201803590602001908080601f016020809104026020016040519081016040528093929190818152602001838380828437820191505050505050919291929050505061055e565b005b34801561017d57600080fd5b506101a060048036038101908080356000191690602001909291905050506106e8565b6040518082815260200191505060405180910390f35b3480156101c257600080fd5b506101cb610710565b604051808273ffffffffffffffffffffffffffffffffffffffff1673ffffffffffffffffffffffffffffffffffffffff16815260200191505060405180910390f35b600081600260009054906101000a900473ffffffffffffffffffffffffffffffffffffffff1673ffffffffffffffffffffffffffffffffffffffff166392d00a4a826040518263ffffffff167c0100000000000000000000000000000000000000000000000000000000028152600401808260001916600019168152602001915050602060405180830381600087803b1580156102a957600080fd5b505af11580156102bd573d6000803e3d6000fd5b505050506040513d60208110156102d357600080fd5b810190808051906020019092919050505073ffffffffffffffffffffffffffffffffffffffff163373ffffffffffffffffffffffffffffffffffffffff16141515610386576040517f08c379a00000000000000000000000000000000000000000000000000000000081526004018080602001828103825260158152602001807f50726f7879206e6f7420617574686f72697a65642e000000000000000000000081525060200191505060405180910390fd5b600160008560001916600019168152602001908152602001600020600001549150600060010260001916600160008660001916600019168152602001908152602001600020600101600084815260200190815260200160002054600019161415156103ed57fe5b826001600086600019166000191681526020019081526020016000206001016000848152602001908152602001600020816000191690555060016000856000191660001916815260200190815260200160002060000160008154809291906001019190505550826000191684600019167f7a8d1104507665c9970d0220690917a47395021f263da0042243d55c3589570960405160405180910390a350505050565b60006001600084600019166000191681526020019081526020016000206000015482101515610526576040517f08c379a00000000000000000000000000000000000000000000000000000000081526004018080602001828103825260158152602001807f496e64657820646f6573206e6f742065786973742e000000000000000000000081525060200191505060405180910390fd5b600160008460001916600019168152602001908152602001600020600101600083815260200190815260200160002054905092915050565b60008060008073ffffffffffffffffffffffffffffffffffffffff166000809054906101000a900473ffffffffffffffffffffffffffffffffffffffff1673ffffffffffffffffffffffffffffffffffffffff1614151561064d576040517f08c379a00000000000000000000000000000000000000000000000000000000081526004018080602001828103825260258152602001807f4c6962726172792068617320616c7265616479206265656e20696e697469616c81526020017f697a65642e00000000000000000000000000000000000000000000000000000081525060400191505060405180910390fd5b6020840192508251915060408401925082519050816000806101000a81548173ffffffffffffffffffffffffffffffffffffffff021916908373ffffffffffffffffffffffffffffffffffffffff16021790555080600260006101000a81548173ffffffffffffffffffffffffffffffffffffffff021916908373ffffffffffffffffffffffffffffffffffffffff16021790555050505050565b6000600160008360001916600019168152602001908152602001600020600001549050919050565b6000809054906101000a900473ffffffffffffffffffffffffffffffffffffffff16815600a165627a7a723058205807c8c1da7467f44d9d50336133812adedd7bab70c6d020e4095678f681c44d0029",
  "source": "pragma solidity 0.4.24;\n\nimport \"./Registry.sol\";\nimport 'openzeppelin-solidity/contracts/math/SafeMath.sol';\n\ncontract Library {\n  using SafeMath for uint256;\n\n  address public owner_;\n  mapping (bytes32 => Lib) private libraries_; // hashed methodless owner did => library\n  Registry registry_;\n\n  struct Lib {\n    uint256 size;\n    mapping (uint256 => bytes32) content; // index => contentId (unhashed)\n  }\n\n  event AddedToLib(bytes32 indexed _identity, bytes32 indexed _contentId);\n\n  function init(bytes _data) public {\n    require(owner_ == address(0), 'Library has already been initialized.');\n\n    uint256 btsptr;\n    address ownerAddr;\n    address registryAddr;\n    assembly {\n      btsptr := add(_data, 32)\n      ownerAddr := mload(btsptr)\n      btsptr := add(_data, 64)\n      registryAddr := mload(btsptr)\n    }\n    owner_ = ownerAddr;\n    registry_ = Registry(registryAddr);\n  }\n\n  modifier restricted() {\n    require (msg.sender == owner_, \"Sender not authorized.\");\n     _;\n  }\n\n  modifier fromProxy(bytes32 _contentId) {\n    require (msg.sender == registry_.getProxyAddress(_contentId), \"Proxy not authorized.\");\n     _;\n  }\n\n  function getLibrarySize(bytes32 _identity) public view returns (uint256 size) {\n    return libraries_[_identity].size;\n  }\n\n  function getLibraryItem(bytes32 _identity, uint256 _index) public view returns (bytes32 contentId) {\n    require (_index < libraries_[_identity].size, \"Index does not exist.\");\n    return libraries_[_identity].content[_index];\n  }\n\n  function addLibraryItem(bytes32 _identity, bytes32 _contentId) public fromProxy(_contentId) {\n    uint256 libSize = libraries_[_identity].size;\n    assert (libraries_[_identity].content[libSize] == bytes32(0));\n    libraries_[_identity].content[libSize] = _contentId;\n    libraries_[_identity].size++;\n    emit AddedToLib(_identity, _contentId);\n  }\n}\n",
  "sourcePath": "/Users/ericjiang/Littlstar/ara-contracts/contracts/ignored_contracts/Library.sol",
  "compiler": {
    "name": "solc",
    "version": "0.4.24+commit.e67f0147.Emscripten.clang"
  },
  "schemaVersion": "2.0.1",
  "updatedAt": "2019-02-20T22:10:16.704Z"
}