{
  "contractName": "Library",
  "abi": [
    {
      "constant": true,
      "inputs": [],
      "name": "owner_",
      "outputs": [
        {
          "name": "",
          "type": "address"
        }
      ],
      "payable": false,
      "stateMutability": "view",
      "type": "function"
    },
    {
      "anonymous": false,
      "inputs": [
        {
          "indexed": true,
          "name": "_identity",
          "type": "bytes32"
        },
        {
          "indexed": true,
          "name": "_contentId",
          "type": "bytes32"
        }
      ],
      "name": "AddedToLib",
      "type": "event"
    },
    {
      "constant": false,
      "inputs": [
        {
          "name": "_data",
          "type": "bytes"
        }
      ],
      "name": "init",
      "outputs": [],
      "payable": false,
      "stateMutability": "nonpayable",
      "type": "function"
    },
    {
      "constant": true,
      "inputs": [
        {
          "name": "_identity",
          "type": "bytes32"
        }
      ],
      "name": "getLibrarySize",
      "outputs": [
        {
          "name": "size",
          "type": "uint16"
        }
      ],
      "payable": false,
      "stateMutability": "view",
      "type": "function"
    },
    {
      "constant": true,
      "inputs": [
        {
          "name": "_identity",
          "type": "bytes32"
        },
        {
          "name": "_index",
          "type": "uint16"
        }
      ],
      "name": "getLibraryItem",
      "outputs": [
        {
          "name": "contentId",
          "type": "bytes32"
        }
      ],
      "payable": false,
      "stateMutability": "view",
      "type": "function"
    },
    {
      "constant": false,
      "inputs": [
        {
          "name": "_identity",
          "type": "bytes32"
        },
        {
          "name": "_contentId",
          "type": "bytes32"
        }
      ],
      "name": "addLibraryItem",
      "outputs": [],
      "payable": false,
      "stateMutability": "nonpayable",
      "type": "function"
    }
  ],
  "bytecode": "0x608060405234801561001057600080fd5b506107da806100206000396000f30060806040526004361061006d576000357c0100000000000000000000000000000000000000000000000000000000900463ffffffff1680630c2bb965146100725780631debd6ad146100b15780634ddf47d41461010c57806396cd472d14610175578063e7663079146101c2575b600080fd5b34801561007e57600080fd5b506100af60048036038101908080356000191690602001909291908035600019169060200190929190505050610219565b005b3480156100bd57600080fd5b506100ee6004803603810190808035600019169060200190929190803561ffff1690602001909291905050506104dc565b60405180826000191660001916815260200191505060405180910390f35b34801561011857600080fd5b50610173600480360381019080803590602001908201803590602001908080601f01602080910402602001604051908101604052809392919081815260200183838082843782019150505050505091929192905050506105c9565b005b34801561018157600080fd5b506101a46004803603810190808035600019169060200190929190505050610753565b604051808261ffff1661ffff16815260200191505060405180910390f35b3480156101ce57600080fd5b506101d7610789565b604051808273ffffffffffffffffffffffffffffffffffffffff1673ffffffffffffffffffffffffffffffffffffffff16815260200191505060405180910390f35b600081600260009054906101000a900473ffffffffffffffffffffffffffffffffffffffff1673ffffffffffffffffffffffffffffffffffffffff166392d00a4a826040518263ffffffff167c0100000000000000000000000000000000000000000000000000000000028152600401808260001916600019168152602001915050602060405180830381600087803b1580156102b557600080fd5b505af11580156102c9573d6000803e3d6000fd5b505050506040513d60208110156102df57600080fd5b810190808051906020019092919050505073ffffffffffffffffffffffffffffffffffffffff163373ffffffffffffffffffffffffffffffffffffffff16141515610392576040517f08c379a00000000000000000000000000000000000000000000000000000000081526004018080602001828103825260158152602001807f50726f7879206e6f7420617574686f72697a65642e000000000000000000000081525060200191505060405180910390fd5b60016000856000191660001916815260200190815260200160002060000160009054906101000a900461ffff16915060006001026000191660016000866000191660001916815260200190815260200160002060010160008461ffff1661ffff168152602001908152602001600020546000191614151561040f57fe5b8260016000866000191660001916815260200190815260200160002060010160008461ffff1661ffff1681526020019081526020016000208160001916905550600160008560001916600019168152602001908152602001600020600001600081819054906101000a900461ffff168092919060010191906101000a81548161ffff021916908361ffff16021790555050826000191684600019167f7a8d1104507665c9970d0220690917a47395021f263da0042243d55c3589570960405160405180910390a350505050565b600060016000846000191660001916815260200190815260200160002060000160009054906101000a900461ffff1661ffff168261ffff16101515610589576040517f08c379a00000000000000000000000000000000000000000000000000000000081526004018080602001828103825260158152602001807f496e64657820646f6573206e6f742065786973742e000000000000000000000081525060200191505060405180910390fd5b60016000846000191660001916815260200190815260200160002060010160008361ffff1661ffff16815260200190815260200160002054905092915050565b60008060008073ffffffffffffffffffffffffffffffffffffffff166000809054906101000a900473ffffffffffffffffffffffffffffffffffffffff1673ffffffffffffffffffffffffffffffffffffffff161415156106b8576040517f08c379a00000000000000000000000000000000000000000000000000000000081526004018080602001828103825260258152602001807f4c6962726172792068617320616c7265616479206265656e20696e697469616c81526020017f697a65642e00000000000000000000000000000000000000000000000000000081525060400191505060405180910390fd5b6020840192508251915060408401925082519050816000806101000a81548173ffffffffffffffffffffffffffffffffffffffff021916908373ffffffffffffffffffffffffffffffffffffffff16021790555080600260006101000a81548173ffffffffffffffffffffffffffffffffffffffff021916908373ffffffffffffffffffffffffffffffffffffffff16021790555050505050565b600060016000836000191660001916815260200190815260200160002060000160009054906101000a900461ffff169050919050565b6000809054906101000a900473ffffffffffffffffffffffffffffffffffffffff16815600a165627a7a72305820763e8109c8f30202d7653ccb3cf40f3e4099eea49fc9d06dfb15d0d76bc434be0029",
  "source": "pragma solidity ^0.4.24;\n\nimport \"./Registry.sol\";\n\ncontract Library {\n  address public owner_;\n  mapping (bytes32 => Lib) private libraries_; // hashed methodless owner did => library\n  Registry registry_;\n\n  struct Lib {\n    uint16 size;\n    mapping (uint16 => bytes32) content; // index => contentId (unhashed)\n  }\n\n  event AddedToLib(bytes32 indexed _identity, bytes32 indexed _contentId);\n\n  function init(bytes _data) public {\n    require(owner_ == address(0), 'Library has already been initialized.');\n\n    uint256 btsptr;\n    address ownerAddr;\n    address registryAddr;\n    assembly {\n      btsptr := add(_data, 32)\n      ownerAddr := mload(btsptr)\n      btsptr := add(_data, 64)\n      registryAddr := mload(btsptr)\n    }\n    owner_ = ownerAddr;\n    registry_ = Registry(registryAddr);\n  }\n\n  modifier restricted() {\n    require (msg.sender == owner_, \"Sender not authorized.\");\n     _;\n  }\n\n  modifier fromProxy(bytes32 _contentId) {\n    require (msg.sender == registry_.getProxyAddress(_contentId), \"Proxy not authorized.\");\n     _;\n  }\n\n  function getLibrarySize(bytes32 _identity) public view returns (uint16 size) {\n    return libraries_[_identity].size;\n  }\n\n  function getLibraryItem(bytes32 _identity, uint16 _index) public view returns (bytes32 contentId) {\n    require (_index < libraries_[_identity].size, \"Index does not exist.\");\n    return libraries_[_identity].content[_index];\n  }\n\n  function addLibraryItem(bytes32 _identity, bytes32 _contentId) public fromProxy(_contentId) {\n    uint16 libSize = libraries_[_identity].size;\n    assert (libraries_[_identity].content[libSize] == bytes32(0));\n    libraries_[_identity].content[libSize] = _contentId;\n    libraries_[_identity].size++;\n    emit AddedToLib(_identity, _contentId);\n  }\n}\n",
  "sourcePath": "/Users/ericjiang/Littlstar/ara-contracts/contracts/ignored_contracts/Library.sol",
  "compiler": {
    "name": "solc",
    "version": "0.4.24+commit.e67f0147.Emscripten.clang"
  },
  "schemaVersion": "2.0.1",
  "updatedAt": "2019-01-10T22:38:59.471Z"
}