{
  "contractName": "Library",
  "abi": [
    {
      "anonymous": false,
      "inputs": [
        {
          "indexed": true,
          "internalType": "bytes32",
          "name": "_identity",
          "type": "bytes32"
        },
        {
          "indexed": true,
          "internalType": "bytes32",
          "name": "_contentId",
          "type": "bytes32"
        }
      ],
      "name": "AddedToLib",
      "type": "event"
    },
    {
      "constant": true,
      "inputs": [],
      "name": "owner_",
      "outputs": [
        {
          "internalType": "address",
          "name": "",
          "type": "address"
        }
      ],
      "payable": false,
      "stateMutability": "view",
      "type": "function"
    },
    {
      "constant": false,
      "inputs": [
        {
          "internalType": "bytes",
          "name": "_data",
          "type": "bytes"
        }
      ],
      "name": "init",
      "outputs": [],
      "payable": false,
      "stateMutability": "nonpayable",
      "type": "function"
    },
    {
      "constant": true,
      "inputs": [
        {
          "internalType": "bytes32",
          "name": "_identity",
          "type": "bytes32"
        }
      ],
      "name": "getLibrarySize",
      "outputs": [
        {
          "internalType": "uint32",
          "name": "size",
          "type": "uint32"
        }
      ],
      "payable": false,
      "stateMutability": "view",
      "type": "function"
    },
    {
      "constant": true,
      "inputs": [
        {
          "internalType": "bytes32",
          "name": "_identity",
          "type": "bytes32"
        },
        {
          "internalType": "uint32",
          "name": "_index",
          "type": "uint32"
        }
      ],
      "name": "getLibraryItem",
      "outputs": [
        {
          "internalType": "bytes32",
          "name": "contentId",
          "type": "bytes32"
        }
      ],
      "payable": false,
      "stateMutability": "view",
      "type": "function"
    },
    {
      "constant": false,
      "inputs": [
        {
          "internalType": "bytes32",
          "name": "_identity",
          "type": "bytes32"
        },
        {
          "internalType": "bytes32",
          "name": "_contentId",
          "type": "bytes32"
        }
      ],
      "name": "addLibraryItem",
      "outputs": [],
      "payable": false,
      "stateMutability": "nonpayable",
      "type": "function"
    }
  ],
  "bytecode": "0x608060405234801561001057600080fd5b50610787806100206000396000f3fe608060405234801561001057600080fd5b50600436106100575760003560e01c80630c2bb9651461005c57806328e3bac7146100945780634ddf47d4146100e657806396cd472d146101a1578063e7663079146101ef575b600080fd5b6100926004803603604081101561007257600080fd5b810190808035906020019092919080359060200190929190505050610239565b005b6100d0600480360360408110156100aa57600080fd5b8101908080359060200190929190803563ffffffff1690602001909291905050506104ad565b6040518082815260200191505060405180910390f35b61019f600480360360208110156100fc57600080fd5b810190808035906020019064010000000081111561011957600080fd5b82018360208201111561012b57600080fd5b8035906020019184600183028401116401000000008311171561014d57600080fd5b91908080601f016020809104026020016040519081016040528093929190818152602001838380828437600081840152601f19601f820116905080830192505050505050509192919290505050610592565b005b6101cd600480360360208110156101b757600080fd5b81019080803590602001909291905050506106d8565b604051808263ffffffff1663ffffffff16815260200191505060405180910390f35b6101f7610708565b604051808273ffffffffffffffffffffffffffffffffffffffff1673ffffffffffffffffffffffffffffffffffffffff16815260200191505060405180910390f35b80600260009054906101000a900473ffffffffffffffffffffffffffffffffffffffff1673ffffffffffffffffffffffffffffffffffffffff166392d00a4a826040518263ffffffff1660e01b81526004018082815260200191505060206040518083038186803b1580156102ad57600080fd5b505afa1580156102c1573d6000803e3d6000fd5b505050506040513d60208110156102d757600080fd5b810190808051906020019092919050505073ffffffffffffffffffffffffffffffffffffffff163373ffffffffffffffffffffffffffffffffffffffff1614610388576040517f08c379a00000000000000000000000000000000000000000000000000000000081526004018080602001828103825260158152602001807f50726f7879206e6f7420617574686f72697a65642e000000000000000000000081525060200191505060405180910390fd5b60006001600085815260200190815260200160002060000160009054906101000a900463ffffffff1690506000801b6001600086815260200190815260200160002060010160008363ffffffff1663ffffffff16815260200190815260200160002054146103f257fe5b826001600086815260200190815260200160002060010160008363ffffffff1663ffffffff1681526020019081526020016000208190555060016000858152602001908152602001600020600001600081819054906101000a900463ffffffff168092919060010191906101000a81548163ffffffff021916908363ffffffff1602179055505082847f7a8d1104507665c9970d0220690917a47395021f263da0042243d55c3589570960405160405180910390a350505050565b60006001600084815260200190815260200160002060000160009054906101000a900463ffffffff1663ffffffff168263ffffffff1610610556576040517f08c379a00000000000000000000000000000000000000000000000000000000081526004018080602001828103825260158152602001807f496e64657820646f6573206e6f742065786973742e000000000000000000000081525060200191505060405180910390fd5b6001600084815260200190815260200160002060010160008363ffffffff1663ffffffff16815260200190815260200160002054905092915050565b600073ffffffffffffffffffffffffffffffffffffffff166000809054906101000a900473ffffffffffffffffffffffffffffffffffffffff1673ffffffffffffffffffffffffffffffffffffffff1614610638576040517f08c379a000000000000000000000000000000000000000000000000000000000815260040180806020018281038252602581526020018061072e6025913960400191505060405180910390fd5b60008060006020840192508251915060408401925082519050816000806101000a81548173ffffffffffffffffffffffffffffffffffffffff021916908373ffffffffffffffffffffffffffffffffffffffff16021790555080600260006101000a81548173ffffffffffffffffffffffffffffffffffffffff021916908373ffffffffffffffffffffffffffffffffffffffff16021790555050505050565b60006001600083815260200190815260200160002060000160009054906101000a900463ffffffff169050919050565b6000809054906101000a900473ffffffffffffffffffffffffffffffffffffffff168156fe4c6962726172792068617320616c7265616479206265656e20696e697469616c697a65642ea265627a7a72315820f0dc364d81535ee0fcebc5c72294c1dead19c5fa9eaf5b0d41641d0b79c13d1964736f6c63430005100032",
  "source": "pragma solidity ^0.5.16;\r\n\r\nimport '../SafeMath32.sol';\r\nimport './Registry.sol';\r\n\r\ncontract Library {\r\n  using SafeMath32 for uint32;\r\n\r\n  address public owner_;\r\n  mapping (bytes32 => Lib) private libraries_; // hashed methodless owner did => library\r\n  Registry registry_;\r\n\r\n  struct Lib {\r\n    uint32 size;\r\n    mapping (uint32 => bytes32) content; // index => contentId (unhashed)\r\n  }\r\n\r\n  event AddedToLib(bytes32 indexed _identity, bytes32 indexed _contentId);\r\n\r\n  function init(bytes memory _data) public {\r\n    require(owner_ == address(0), 'Library has already been initialized.');\r\n\r\n    uint256 btsptr;\r\n    address ownerAddr;\r\n    address registryAddr;\r\n    assembly {\r\n      btsptr := add(_data, 32)\r\n      ownerAddr := mload(btsptr)\r\n      btsptr := add(_data, 64)\r\n      registryAddr := mload(btsptr)\r\n    }\r\n    owner_ = ownerAddr;\r\n    registry_ = Registry(registryAddr);\r\n  }\r\n\r\n  modifier restricted() {\r\n    require (msg.sender == owner_, 'Sender not authorized.');\r\n     _;\r\n  }\r\n\r\n  modifier fromProxy(bytes32 _contentId) {\r\n    require (msg.sender == registry_.getProxyAddress(_contentId), 'Proxy not authorized.');\r\n     _;\r\n  }\r\n\r\n  function getLibrarySize(bytes32 _identity) public view returns (uint32 size) {\r\n    return libraries_[_identity].size;\r\n  }\r\n\r\n  function getLibraryItem(bytes32 _identity, uint32 _index) public view returns (bytes32 contentId) {\r\n    require (_index < libraries_[_identity].size, 'Index does not exist.');\r\n    return libraries_[_identity].content[_index];\r\n  }\r\n\r\n  function addLibraryItem(bytes32 _identity, bytes32 _contentId) public fromProxy(_contentId) {\r\n    uint32 libSize = libraries_[_identity].size;\r\n    assert (libraries_[_identity].content[libSize] == bytes32(0));\r\n    libraries_[_identity].content[libSize] = _contentId;\r\n    libraries_[_identity].size++;\r\n    emit AddedToLib(_identity, _contentId);\r\n  }\r\n}\r\n",
  "sourcePath": "D:/Development/Ara/ara-contracts/contracts/ignored_contracts/Library.sol",
  "compiler": {
    "name": "solc",
    "version": "0.5.16+commit.9c3226ce.Emscripten.clang"
  },
  "schemaVersion": "3.3.4",
  "updatedAt": "2021-04-16T16:10:17.305Z",
  "devdoc": {
    "methods": {}
  },
  "userdoc": {
    "methods": {}
  }
}