{
  "contractName": "Ownable",
  "abi": [
    {
      "constant": true,
      "inputs": [
        {
          "name": "",
          "type": "bytes32"
        }
      ],
      "name": "requesters_",
      "outputs": [
        {
          "name": "",
          "type": "bool"
        }
      ],
      "payable": false,
      "stateMutability": "view",
      "type": "function"
    },
    {
      "constant": true,
      "inputs": [],
      "name": "owner_",
      "outputs": [
        {
          "name": "",
          "type": "address"
        }
      ],
      "payable": false,
      "stateMutability": "view",
      "type": "function"
    },
    {
      "anonymous": false,
      "inputs": [
        {
          "indexed": true,
          "name": "_previousOwner",
          "type": "address"
        },
        {
          "indexed": true,
          "name": "_newOwner",
          "type": "address"
        }
      ],
      "name": "TransferApproved",
      "type": "event"
    },
    {
      "anonymous": false,
      "inputs": [
        {
          "indexed": true,
          "name": "_currentOwner",
          "type": "address"
        },
        {
          "indexed": true,
          "name": "_requestedOwner",
          "type": "address"
        }
      ],
      "name": "TransferRequested",
      "type": "event"
    },
    {
      "anonymous": false,
      "inputs": [
        {
          "indexed": true,
          "name": "_currentOwner",
          "type": "address"
        },
        {
          "indexed": true,
          "name": "_requestOwner",
          "type": "address"
        }
      ],
      "name": "RequestRevoked",
      "type": "event"
    },
    {
      "constant": false,
      "inputs": [],
      "name": "requestOwnership",
      "outputs": [],
      "payable": false,
      "stateMutability": "nonpayable",
      "type": "function"
    },
    {
      "constant": false,
      "inputs": [],
      "name": "revokeOwnershipRequest",
      "outputs": [],
      "payable": false,
      "stateMutability": "nonpayable",
      "type": "function"
    },
    {
      "constant": false,
      "inputs": [
        {
          "name": "_newOwner",
          "type": "address"
        }
      ],
      "name": "approveOwnershipTransfer",
      "outputs": [],
      "payable": false,
      "stateMutability": "nonpayable",
      "type": "function"
    }
  ],
  "bytecode": "0x608060405234801561001057600080fd5b50610aa3806100206000396000f30060806040526004361061006d576000357c0100000000000000000000000000000000000000000000000000000000900463ffffffff1680634e1d009f146100725780638e5aafe1146100b557806399d20bb1146100cc578063e766307914610115578063fc1c34e41461016c575b600080fd5b34801561007e57600080fd5b506100b3600480360381019080803573ffffffffffffffffffffffffffffffffffffffff169060200190929190505050610183565b005b3480156100c157600080fd5b506100ca610472565b005b3480156100d857600080fd5b506100fb6004803603810190808035600019169060200190929190505050610764565b604051808215151515815260200191505060405180910390f35b34801561012157600080fd5b5061012a610784565b604051808273ffffffffffffffffffffffffffffffffffffffff1673ffffffffffffffffffffffffffffffffffffffff16815260200191505060405180910390f35b34801561017857600080fd5b506101816107a9565b005b60008060009054906101000a900473ffffffffffffffffffffffffffffffffffffffff1673ffffffffffffffffffffffffffffffffffffffff163373ffffffffffffffffffffffffffffffffffffffff161415156101e057600080fd5b816001600082604051602001808273ffffffffffffffffffffffffffffffffffffffff1673ffffffffffffffffffffffffffffffffffffffff166c010000000000000000000000000281526014019150506040516020818303038152906040526040518082805190602001908083835b6020831015156102755780518252602082019150602081019050602083039250610250565b6001836020036101000a03801982511681845116808217855250505050505090500191505060405180910390206000191660001916815260200190815260200160002060009054906101000a900460ff16151561033a576040517f08c379a00000000000000000000000000000000000000000000000000000000081526004018080602001828103825260208152602001807f4f776e6572207265717565737420686173206e6f74206265656e2073656e742e81525060200191505060405180910390fd5b826000806101000a81548173ffffffffffffffffffffffffffffffffffffffff021916908373ffffffffffffffffffffffffffffffffffffffff16021790555033604051602001808273ffffffffffffffffffffffffffffffffffffffff1673ffffffffffffffffffffffffffffffffffffffff166c010000000000000000000000000281526014019150506040516020818303038152906040526040518082805190602001908083835b60208310151561040a57805182526020820191506020810190506020830392506103e5565b6001836020036101000a03801982511681845116808217855250505050505090500191505060405180910390209150600060016000846000191660001916815260200190815260200160002060006101000a81548160ff021916908315150217905550505050565b60006001600033604051602001808273ffffffffffffffffffffffffffffffffffffffff1673ffffffffffffffffffffffffffffffffffffffff166c010000000000000000000000000281526014019150506040516020818303038152906040526040518082805190602001908083835b60208310151561050857805182526020820191506020810190506020830392506104e3565b6001836020036101000a03801982511681845116808217855250505050505090500191505060405180910390206000191660001916815260200190815260200160002060009054906101000a900460ff161515156105f4576040517f08c379a00000000000000000000000000000000000000000000000000000000081526004018080602001828103825260218152602001807f4f776e657273686970207265717565737420616c72656164792061637469766581526020017f2e0000000000000000000000000000000000000000000000000000000000000081525060400191505060405180910390fd5b33604051602001808273ffffffffffffffffffffffffffffffffffffffff1673ffffffffffffffffffffffffffffffffffffffff166c010000000000000000000000000281526014019150506040516020818303038152906040526040518082805190602001908083835b602083101515610684578051825260208201915060208101905060208303925061065f565b6001836020036101000a038019825116818451168082178552505050505050905001915050604051809103902090506001806000836000191660001916815260200190815260200160002060006101000a81548160ff0219169083151502179055503373ffffffffffffffffffffffffffffffffffffffff166000809054906101000a900473ffffffffffffffffffffffffffffffffffffffff1673ffffffffffffffffffffffffffffffffffffffff167fd5b906f2d3dfa8cf0ea788d4ad6e99ebd482d6134c3405e1a5faa5da891cda8560405160405180910390a350565b60016020528060005260406000206000915054906101000a900460ff1681565b6000809054906101000a900473ffffffffffffffffffffffffffffffffffffffff1681565b6000336001600082604051602001808273ffffffffffffffffffffffffffffffffffffffff1673ffffffffffffffffffffffffffffffffffffffff166c010000000000000000000000000281526014019150506040516020818303038152906040526040518082805190602001908083835b602083101515610840578051825260208201915060208101905060208303925061081b565b6001836020036101000a03801982511681845116808217855250505050505090500191505060405180910390206000191660001916815260200190815260200160002060009054906101000a900460ff161515610905576040517f08c379a00000000000000000000000000000000000000000000000000000000081526004018080602001828103825260208152602001807f4f776e6572207265717565737420686173206e6f74206265656e2073656e742e81525060200191505060405180910390fd5b33604051602001808273ffffffffffffffffffffffffffffffffffffffff1673ffffffffffffffffffffffffffffffffffffffff166c010000000000000000000000000281526014019150506040516020818303038152906040526040518082805190602001908083835b6020831015156109955780518252602082019150602081019050602083039250610970565b6001836020036101000a03801982511681845116808217855250505050505090500191505060405180910390209150600060016000846000191660001916815260200190815260200160002060006101000a81548160ff0219169083151502179055503373ffffffffffffffffffffffffffffffffffffffff166000809054906101000a900473ffffffffffffffffffffffffffffffffffffffff1673ffffffffffffffffffffffffffffffffffffffff167f1dc90b1ce875ea53ce4f7fb2036478f4ddfef57ec243f3fb5a9d81faf7dac5f460405160405180910390a350505600a165627a7a72305820fb3da2077cd769898cc9b95fb4ab3e95e58464d06b412424d3263e6d301fb5b20029",
  "source": "pragma solidity ^0.4.24;\n\ncontract Ownable {\n\n  address public owner_;\n\n  event TransferApproved(address indexed _previousOwner, address indexed _newOwner);\n  event TransferRequested(address indexed _currentOwner, address indexed _requestedOwner);\n  event RequestRevoked(address indexed _currentOwner, address indexed _requestOwner);\n\n  mapping(bytes32 => bool) public requesters_; // keccak256 hashes of requester addresses\n\n  modifier onlyOwner() {\n    require(msg.sender == owner_);\n    _;\n  }\n\n  modifier hasNotRequested() {\n    require(!requesters_[keccak256(abi.encodePacked(msg.sender))],\n      \"Ownership request already active.\");\n    _;\n  }\n\n  modifier hasRequested(address _newOwner) {\n    require(requesters_[keccak256(abi.encodePacked(_newOwner))], \n      \"Owner request has not been sent.\");\n    _;\n  }\n\n  function requestOwnership() public hasNotRequested {\n    bytes32 hashedAddress = keccak256(abi.encodePacked(msg.sender));\n    requesters_[hashedAddress] = true;\n    emit TransferRequested(owner_, msg.sender);\n  }\n\n  function revokeOwnershipRequest() public hasRequested(msg.sender) {\n    bytes32 hashedAddress = keccak256(abi.encodePacked(msg.sender));\n    requesters_[hashedAddress] = false;\n    emit RequestRevoked(owner_, msg.sender);\n  }\n\n  function approveOwnershipTransfer(address _newOwner) public onlyOwner hasRequested(_newOwner) {\n    owner_ = _newOwner;\n    bytes32 hashedAddress = keccak256(abi.encodePacked(msg.sender));\n    requesters_[hashedAddress] = false;\n  }\n\n}\n",
  "sourcePath": "/Users/ericjiang/Littlstar/ara-contracts/contracts/ignored_contracts/Ownable.sol",
  "compiler": {
    "name": "solc",
    "version": "0.4.24+commit.e67f0147.Emscripten.clang"
  },
  "schemaVersion": "2.0.1",
  "updatedAt": "2019-01-03T17:18:25.157Z"
}