{
  "contractName": "Ownable",
  "abi": [
    {
      "constant": true,
      "inputs": [],
      "name": "stagedOwner_",
      "outputs": [
        {
          "name": "",
          "type": "address"
        }
      ],
      "payable": false,
      "stateMutability": "view",
      "type": "function"
    },
    {
      "constant": true,
      "inputs": [],
      "name": "owner_",
      "outputs": [
        {
          "name": "",
          "type": "address"
        }
      ],
      "payable": false,
      "stateMutability": "view",
      "type": "function"
    },
    {
      "anonymous": false,
      "inputs": [
        {
          "indexed": true,
          "name": "_previousOwner",
          "type": "address"
        },
        {
          "indexed": true,
          "name": "_newOwner",
          "type": "address"
        }
      ],
      "name": "TransferApproved",
      "type": "event"
    },
    {
      "anonymous": false,
      "inputs": [
        {
          "indexed": true,
          "name": "_currentOwner",
          "type": "address"
        },
        {
          "indexed": true,
          "name": "_stagedOwner",
          "type": "address"
        }
      ],
      "name": "TransferStaged",
      "type": "event"
    },
    {
      "constant": false,
      "inputs": [
        {
          "name": "_stagedOwner",
          "type": "address"
        }
      ],
      "name": "stageOwnershipTransfer",
      "outputs": [],
      "payable": false,
      "stateMutability": "nonpayable",
      "type": "function"
    },
    {
      "constant": false,
      "inputs": [],
      "name": "approveOwnershipTransfer",
      "outputs": [],
      "payable": false,
      "stateMutability": "nonpayable",
      "type": "function"
    }
  ],
  "bytecode": "0x608060405234801561001057600080fd5b5061050d806100206000396000f300608060405260043610610062576000357c0100000000000000000000000000000000000000000000000000000000900463ffffffff16806301eaa625146100675780638bc6efc8146100be578063c05c5012146100d5578063e766307914610118575b600080fd5b34801561007357600080fd5b5061007c61016f565b604051808273ffffffffffffffffffffffffffffffffffffffff1673ffffffffffffffffffffffffffffffffffffffff16815260200191505060405180910390f35b3480156100ca57600080fd5b506100d3610195565b005b3480156100e157600080fd5b50610116600480360381019080803573ffffffffffffffffffffffffffffffffffffffff1690602001909291905050506101fb565b005b34801561012457600080fd5b5061012d610262565b604051808273ffffffffffffffffffffffffffffffffffffffff1673ffffffffffffffffffffffffffffffffffffffff16815260200191505060405180910390f35b600160009054906101000a900473ffffffffffffffffffffffffffffffffffffffff1681565b600160009054906101000a900473ffffffffffffffffffffffffffffffffffffffff1673ffffffffffffffffffffffffffffffffffffffff163373ffffffffffffffffffffffffffffffffffffffff161415156101f157600080fd5b6101f9610287565b565b6000809054906101000a900473ffffffffffffffffffffffffffffffffffffffff1673ffffffffffffffffffffffffffffffffffffffff163373ffffffffffffffffffffffffffffffffffffffff1614151561025657600080fd5b61025f816103e6565b50565b6000809054906101000a900473ffffffffffffffffffffffffffffffffffffffff1681565b600073ffffffffffffffffffffffffffffffffffffffff16600160009054906101000a900473ffffffffffffffffffffffffffffffffffffffff1673ffffffffffffffffffffffffffffffffffffffff16141515156102e557600080fd5b600160009054906101000a900473ffffffffffffffffffffffffffffffffffffffff1673ffffffffffffffffffffffffffffffffffffffff166000809054906101000a900473ffffffffffffffffffffffffffffffffffffffff1673ffffffffffffffffffffffffffffffffffffffff167fdc7fbf3c67c9c92a7b5c712fb665cf8593f3dae003c570ee2a210c63600312b860405160405180910390a3600160009054906101000a900473ffffffffffffffffffffffffffffffffffffffff166000806101000a81548173ffffffffffffffffffffffffffffffffffffffff021916908373ffffffffffffffffffffffffffffffffffffffff160217905550565b600073ffffffffffffffffffffffffffffffffffffffff168173ffffffffffffffffffffffffffffffffffffffff161415151561042257600080fd5b8073ffffffffffffffffffffffffffffffffffffffff166000809054906101000a900473ffffffffffffffffffffffffffffffffffffffff1673ffffffffffffffffffffffffffffffffffffffff167f82ce26e2839b503ebdc8b17d398679ab6d6cbd59ad3388d049ae385a02f84ff460405160405180910390a380600160006101000a81548173ffffffffffffffffffffffffffffffffffffffff021916908373ffffffffffffffffffffffffffffffffffffffff160217905550505600a165627a7a72305820b6ff4a3f0108f370df131ad3729ac88a909187b5603c5d9f0f27b958ab84f8d20029",
  "source": "pragma solidity ^0.4.24;\n\ncontract Ownable {\n\n  address public owner_;\n  address public stagedOwner_;\n\n  event TransferApproved(address indexed _previousOwner, address indexed _newOwner);\n  event TransferStaged(address indexed _currentOwner, address indexed _stagedOwner);\n\n  modifier onlyOwner() {\n    require(msg.sender == owner_);\n    _;\n  }\n\n  modifier onlyStagedOwner() {\n    require(msg.sender == stagedOwner_);\n    _;\n  }\n\n  function stageOwnershipTransfer(address _stagedOwner) public onlyOwner {\n    _stageOwnershipTransfer(_stagedOwner);\n  }\n\n  function approveOwnershipTransfer() public onlyStagedOwner {\n    _approveOwnershipTransfer();\n  }\n\n  function _stageOwnershipTransfer(address _stagedOwner) internal {\n    require(_stagedOwner != address(0));\n    emit TransferStaged(owner_, _stagedOwner);\n    stagedOwner_ = _stagedOwner;\n  }\n\n  function _approveOwnershipTransfer() internal {\n    require(stagedOwner_ != address(0));\n    emit TransferApproved(owner_, stagedOwner_);\n    owner_ = stagedOwner_;\n  }\n\n}\n",
  "sourcePath": "/Users/charles/Desktop/Development/Ara/ara-contracts/contracts/Ownable.sol",
  "compiler": {
    "name": "solc",
    "version": "0.4.24+commit.e67f0147.Emscripten.clang"
  },
  "schemaVersion": "2.0.1",
  "updatedAt": "2018-10-03T17:07:23.426Z"
}