{
  "contractName": "Proxy",
  "abi": [
    {
      "constant": true,
      "inputs": [],
      "name": "owner_",
      "outputs": [
        {
          "name": "",
          "type": "address"
        }
      ],
      "payable": false,
      "stateMutability": "view",
      "type": "function"
    },
    {
      "inputs": [
        {
          "name": "_registry",
          "type": "address"
        }
      ],
      "payable": false,
      "stateMutability": "nonpayable",
      "type": "constructor"
    },
    {
      "payable": true,
      "stateMutability": "payable",
      "type": "fallback"
    },
    {
      "constant": true,
      "inputs": [],
      "name": "implementation",
      "outputs": [
        {
          "name": "",
          "type": "address"
        }
      ],
      "payable": false,
      "stateMutability": "view",
      "type": "function"
    }
  ],
  "bytecode": "0x608060405234801561001057600080fd5b5060405160208061034683398101806040528101908080519060200190929190505050336000806101000a81548173ffffffffffffffffffffffffffffffffffffffff021916908373ffffffffffffffffffffffffffffffffffffffff16021790555080600160006101000a81548173ffffffffffffffffffffffffffffffffffffffff021916908373ffffffffffffffffffffffffffffffffffffffff16021790555050610282806100c46000396000f30060806040526004361061004c576000357c0100000000000000000000000000000000000000000000000000000000900463ffffffff1680635c60da1b146100bb578063e766307914610112575b6000610056610169565b9050600073ffffffffffffffffffffffffffffffffffffffff168173ffffffffffffffffffffffffffffffffffffffff161415151561009457600080fd5b60405136600082376000803683855af43d806000843e81600081146100b7578184f35b8184fd5b3480156100c757600080fd5b506100d0610169565b604051808273ffffffffffffffffffffffffffffffffffffffff1673ffffffffffffffffffffffffffffffffffffffff16815260200191505060405180910390f35b34801561011e57600080fd5b50610127610231565b604051808273ffffffffffffffffffffffffffffffffffffffff1673ffffffffffffffffffffffffffffffffffffffff16815260200191505060405180910390f35b6000600160009054906101000a900473ffffffffffffffffffffffffffffffffffffffff1673ffffffffffffffffffffffffffffffffffffffff166336f80eca6040518163ffffffff167c0100000000000000000000000000000000000000000000000000000000028152600401602060405180830381600087803b1580156101f157600080fd5b505af1158015610205573d6000803e3d6000fd5b505050506040513d602081101561021b57600080fd5b8101908080519060200190929190505050905090565b6000809054906101000a900473ffffffffffffffffffffffffffffffffffffffff16815600a165627a7a72305820ce8a3f4840044304b200d4a8616b39eba5e9b1ba62f5e9792f045071b8083cb60029",
  "source": "pragma solidity ^0.4.24;\n\nimport \"./Registry.sol\";\n\n/**\n * @title Proxy\n * @dev Gives the possibility to delegate any call to a foreign implementation.\n */\ncontract Proxy {\n  address public owner_;\n  Registry registry_;\n\n  constructor(address _registry) public {\n    owner_ = msg.sender;\n    registry_ = Registry(_registry);\n  }\n\n  /**\n  * @dev Tells the address of the implementation where every call will be delegated.\n  * @return address of the implementation to which it will be delegated\n  */\n  function implementation() public view returns (address) {\n    return registry_.standard_();\n  }\n\n  /**\n  * @dev Fallback function allowing to perform a delegatecall to the given implementation.\n  * This function will return whatever the implementation call returns\n  */\n  function () payable public {\n    address _impl = implementation();\n    require(_impl != address(0));\n\n    assembly {\n      let ptr := mload(0x40)\n      calldatacopy(ptr, 0, calldatasize)\n      let result := delegatecall(gas, _impl, ptr, calldatasize, 0, 0)\n      let size := returndatasize\n      returndatacopy(ptr, 0, size)\n\n      switch result\n      case 0 { revert(ptr, size) }\n      default { return(ptr, size) }\n    }\n  }\n}\n",
  "sourcePath": "/Users/ericjiang/Littlstar/ara-contracts/contracts/Proxy.sol",
  "compiler": {
    "name": "solc",
    "version": "0.4.24+commit.e67f0147.Emscripten.clang"
  },
  "schemaVersion": "2.0.1",
  "updatedAt": "2018-07-30T18:08:29.859Z"
}