{
  "contractName": "Registry",
  "abi": [
    {
      "constant": true,
      "inputs": [],
      "name": "latestVersion_",
      "outputs": [
        {
          "name": "",
          "type": "string"
        }
      ],
      "payable": false,
      "stateMutability": "view",
      "type": "function"
    },
    {
      "constant": true,
      "inputs": [
        {
          "name": "",
          "type": "address"
        }
      ],
      "name": "proxyImpls_",
      "outputs": [
        {
          "name": "",
          "type": "address"
        }
      ],
      "payable": false,
      "stateMutability": "view",
      "type": "function"
    },
    {
      "constant": true,
      "inputs": [],
      "name": "owner_",
      "outputs": [
        {
          "name": "",
          "type": "address"
        }
      ],
      "payable": false,
      "stateMutability": "view",
      "type": "function"
    },
    {
      "inputs": [],
      "payable": false,
      "stateMutability": "nonpayable",
      "type": "constructor"
    },
    {
      "anonymous": false,
      "inputs": [
        {
          "indexed": false,
          "name": "_contentId",
          "type": "bytes32"
        },
        {
          "indexed": false,
          "name": "_address",
          "type": "address"
        }
      ],
      "name": "ProxyDeployed",
      "type": "event"
    },
    {
      "anonymous": false,
      "inputs": [
        {
          "indexed": false,
          "name": "_contentId",
          "type": "bytes32"
        },
        {
          "indexed": false,
          "name": "_version",
          "type": "string"
        }
      ],
      "name": "ProxyUpgraded",
      "type": "event"
    },
    {
      "anonymous": false,
      "inputs": [
        {
          "indexed": false,
          "name": "_version",
          "type": "string"
        },
        {
          "indexed": false,
          "name": "_address",
          "type": "address"
        }
      ],
      "name": "StandardAdded",
      "type": "event"
    },
    {
      "constant": true,
      "inputs": [
        {
          "name": "_contentId",
          "type": "bytes32"
        }
      ],
      "name": "getProxyAddress",
      "outputs": [
        {
          "name": "",
          "type": "address"
        }
      ],
      "payable": false,
      "stateMutability": "view",
      "type": "function"
    },
    {
      "constant": true,
      "inputs": [
        {
          "name": "_contentId",
          "type": "bytes32"
        }
      ],
      "name": "getProxyOwner",
      "outputs": [
        {
          "name": "",
          "type": "address"
        }
      ],
      "payable": false,
      "stateMutability": "view",
      "type": "function"
    },
    {
      "constant": true,
      "inputs": [
        {
          "name": "_version",
          "type": "string"
        }
      ],
      "name": "getImplementation",
      "outputs": [
        {
          "name": "",
          "type": "address"
        }
      ],
      "payable": false,
      "stateMutability": "view",
      "type": "function"
    },
    {
      "constant": false,
      "inputs": [
        {
          "name": "_contentId",
          "type": "bytes32"
        },
        {
          "name": "_version",
          "type": "string"
        },
        {
          "name": "_data",
          "type": "bytes"
        }
      ],
      "name": "createAFS",
      "outputs": [],
      "payable": false,
      "stateMutability": "nonpayable",
      "type": "function"
    },
    {
      "constant": false,
      "inputs": [
        {
          "name": "_contentId",
          "type": "bytes32"
        },
        {
          "name": "_version",
          "type": "string"
        }
      ],
      "name": "upgradeProxy",
      "outputs": [],
      "payable": false,
      "stateMutability": "nonpayable",
      "type": "function"
    },
    {
      "constant": false,
      "inputs": [
        {
          "name": "_contentId",
          "type": "bytes32"
        },
        {
          "name": "_version",
          "type": "string"
        },
        {
          "name": "_data",
          "type": "bytes"
        }
      ],
      "name": "upgradeProxyAndCall",
      "outputs": [],
      "payable": false,
      "stateMutability": "nonpayable",
      "type": "function"
    },
    {
      "constant": false,
      "inputs": [
        {
          "name": "_version",
          "type": "string"
        },
        {
          "name": "_address",
          "type": "address"
        }
      ],
      "name": "addStandardVersion",
      "outputs": [],
      "payable": false,
      "stateMutability": "nonpayable",
      "type": "function"
    }
  ],
  "bytecode": "0x608060405234801561001057600080fd5b50336000806101000a81548173ffffffffffffffffffffffffffffffffffffffff021916908373ffffffffffffffffffffffffffffffffffffffff16021790555061177e806100606000396000f3006080604052600436106100a4576000357c0100000000000000000000000000000000000000000000000000000000900463ffffffff168063120fd5b8146100a9578063486f5a831461011a57806348bf16bd146101915780635a473b691461024e5780636b6838961461030b57806392d00a4a146103865780639e77331c146103f7578063ba586e8014610487578063c27e35a71461050a578063e766307914610593575b600080fd5b3480156100b557600080fd5b506100d860048036038101908080356000191690602001909291905050506105ea565b604051808273ffffffffffffffffffffffffffffffffffffffff1673ffffffffffffffffffffffffffffffffffffffff16815260200191505060405180910390f35b34801561012657600080fd5b5061018f6004803603810190808035600019169060200190929190803590602001908201803590602001908080601f016020809104026020016040519081016040528093929190818152602001838380828437820191505050505050919291929050505061062f565b005b34801561019d57600080fd5b5061024c6004803603810190808035600019169060200190929190803590602001908201803590602001908080601f0160208091040260200160405190810160405280939291908181526020018383808284378201915050505050509192919290803590602001908201803590602001908080601f0160208091040260200160405190810160405280939291908181526020018383808284378201915050505050509192919290505050610961565b005b34801561025a57600080fd5b506103096004803603810190808035600019169060200190929190803590602001908201803590602001908080601f0160208091040260200160405190810160405280939291908181526020018383808284378201915050505050509192919290803590602001908201803590602001908080601f0160208091040260200160405190810160405280939291908181526020018383808284378201915050505050509192919290505050610b6e565b005b34801561031757600080fd5b5061034460048036038101908080359060200190820180359060200191909192939192939050505061102b565b604051808273ffffffffffffffffffffffffffffffffffffffff1673ffffffffffffffffffffffffffffffffffffffff16815260200191505060405180910390f35b34801561039257600080fd5b506103b5600480360381019080803560001916906020019092919050505061107b565b604051808273ffffffffffffffffffffffffffffffffffffffff1673ffffffffffffffffffffffffffffffffffffffff16815260200191505060405180910390f35b34801561040357600080fd5b5061040c6110c0565b6040518080602001828103825283818151815260200191508051906020019080838360005b8381101561044c578082015181840152602081019050610431565b50505050905090810190601f1680156104795780820380516001836020036101000a031916815260200191505b509250505060405180910390f35b34801561049357600080fd5b506104c8600480360381019080803573ffffffffffffffffffffffffffffffffffffffff16906020019092919050505061115e565b604051808273ffffffffffffffffffffffffffffffffffffffff1673ffffffffffffffffffffffffffffffffffffffff16815260200191505060405180910390f35b34801561051657600080fd5b50610591600480360381019080803590602001908201803590602001908080601f0160208091040260200160405190810160405280939291908181526020018383808284378201915050505050509192919290803573ffffffffffffffffffffffffffffffffffffffff169060200190929190505050611191565b005b34801561059f57600080fd5b506105a8611447565b604051808273ffffffffffffffffffffffffffffffffffffffff1673ffffffffffffffffffffffffffffffffffffffff16815260200191505060405180910390f35b600060026000836000191660001916815260200190815260200160002060009054906101000a900473ffffffffffffffffffffffffffffffffffffffff169050919050565b813373ffffffffffffffffffffffffffffffffffffffff1660026000836000191660001916815260200190815260200160002060009054906101000a900473ffffffffffffffffffffffffffffffffffffffff1673ffffffffffffffffffffffffffffffffffffffff161415156106a557600080fd5b600073ffffffffffffffffffffffffffffffffffffffff166003836040518082805190602001908083835b6020831015156106f557805182526020820191506020810190506020830392506106d0565b6001836020036101000a038019825116818451168082178552505050505050905001915050908152602001604051809103902060009054906101000a900473ffffffffffffffffffffffffffffffffffffffff1673ffffffffffffffffffffffffffffffffffffffff161415151561076c57600080fd5b6003826040518082805190602001908083835b6020831015156107a4578051825260208201915060208101905060208303925061077f565b6001836020036101000a038019825116818451168082178552505050505050905001915050908152602001604051809103902060009054906101000a900473ffffffffffffffffffffffffffffffffffffffff166004600060016000876000191660001916815260200190815260200160002060009054906101000a900473ffffffffffffffffffffffffffffffffffffffff1673ffffffffffffffffffffffffffffffffffffffff1673ffffffffffffffffffffffffffffffffffffffff16815260200190815260200160002060006101000a81548173ffffffffffffffffffffffffffffffffffffffff021916908373ffffffffffffffffffffffffffffffffffffffff1602179055507ff484e4534e19040e90fc73bc52bae5162e22375cd7d93e8b1a1b0c00bd9da90f838360405180836000191660001916815260200180602001828103825283818151815260200191508051906020019080838360005b83811015610921578082015181840152602081019050610906565b50505050905090810190601f16801561094e5780820380516001836020036101000a031916815260200191505b50935050505060405180910390a1505050565b60008073ffffffffffffffffffffffffffffffffffffffff1660016000866000191660001916815260200190815260200160002060009054906101000a900473ffffffffffffffffffffffffffffffffffffffff1673ffffffffffffffffffffffffffffffffffffffff161415156109d857600080fd5b306109e161146c565b808273ffffffffffffffffffffffffffffffffffffffff1673ffffffffffffffffffffffffffffffffffffffff168152602001915050604051809103906000f080158015610a33573d6000803e3d6000fd5b5090508060016000866000191660001916815260200190815260200160002060006101000a81548173ffffffffffffffffffffffffffffffffffffffff021916908373ffffffffffffffffffffffffffffffffffffffff1602179055503360026000866000191660001916815260200190815260200160002060006101000a81548173ffffffffffffffffffffffffffffffffffffffff021916908373ffffffffffffffffffffffffffffffffffffffff160217905550610af5848484610b6e565b7f90f293438888f9eb36cfc860a1bccfc3da50bef1e3e97422deadaede67c93a9f84826040518083600019166000191681526020018273ffffffffffffffffffffffffffffffffffffffff1673ffffffffffffffffffffffffffffffffffffffff1681526020019250505060405180910390a150505050565b6000833373ffffffffffffffffffffffffffffffffffffffff1660026000836000191660001916815260200190815260200160002060009054906101000a900473ffffffffffffffffffffffffffffffffffffffff1673ffffffffffffffffffffffffffffffffffffffff16141515610be657600080fd5b600073ffffffffffffffffffffffffffffffffffffffff166003856040518082805190602001908083835b602083101515610c365780518252602082019150602081019050602083039250610c11565b6001836020036101000a038019825116818451168082178552505050505050905001915050908152602001604051809103902060009054906101000a900473ffffffffffffffffffffffffffffffffffffffff1673ffffffffffffffffffffffffffffffffffffffff1614151515610cad57600080fd5b60016000866000191660001916815260200190815260200160002060009054906101000a900473ffffffffffffffffffffffffffffffffffffffff1691506003846040518082805190602001908083835b602083101515610d235780518252602082019150602081019050602083039250610cfe565b6001836020036101000a038019825116818451168082178552505050505050905001915050908152602001604051809103902060009054906101000a900473ffffffffffffffffffffffffffffffffffffffff16600460008473ffffffffffffffffffffffffffffffffffffffff1673ffffffffffffffffffffffffffffffffffffffff16815260200190815260200160002060006101000a81548173ffffffffffffffffffffffffffffffffffffffff021916908373ffffffffffffffffffffffffffffffffffffffff1602179055508173ffffffffffffffffffffffffffffffffffffffff16836040516024018080602001828103825283818151815260200191508051906020019080838360005b83811015610e4f578082015181840152602081019050610e34565b50505050905090810190601f168015610e7c5780820380516001836020036101000a031916815260200191505b50925050506040516020818303038152906040527f4ddf47d4000000000000000000000000000000000000000000000000000000007bffffffffffffffffffffffffffffffffffffffffffffffffffffffff19166020820180517bffffffffffffffffffffffffffffffffffffffffffffffffffffffff838183161783525050505060405180828051906020019080838360005b83811015610f2b578082015181840152602081019050610f10565b50505050905090810190601f168015610f585780820380516001836020036101000a031916815260200191505b509150506000604051808303816000865af19150501515610f7857600080fd5b7ff484e4534e19040e90fc73bc52bae5162e22375cd7d93e8b1a1b0c00bd9da90f858560405180836000191660001916815260200180602001828103825283818151815260200191508051906020019080838360005b83811015610fe9578082015181840152602081019050610fce565b50505050905090810190601f1680156110165780820380516001836020036101000a031916815260200191505b50935050505060405180910390a15050505050565b60006003838360405180838380828437820191505092505050908152602001604051809103902060009054906101000a900473ffffffffffffffffffffffffffffffffffffffff16905092915050565b600060016000836000191660001916815260200190815260200160002060009054906101000a900473ffffffffffffffffffffffffffffffffffffffff169050919050565b60058054600181600116156101000203166002900480601f0160208091040260200160405190810160405280929190818152602001828054600181600116156101000203166002900480156111565780601f1061112b57610100808354040283529160200191611156565b820191906000526020600020905b81548152906001019060200180831161113957829003601f168201915b505050505081565b60046020528060005260406000206000915054906101000a900473ffffffffffffffffffffffffffffffffffffffff1681565b6000809054906101000a900473ffffffffffffffffffffffffffffffffffffffff1673ffffffffffffffffffffffffffffffffffffffff163373ffffffffffffffffffffffffffffffffffffffff161415156111ec57600080fd5b600073ffffffffffffffffffffffffffffffffffffffff166003836040518082805190602001908083835b60208310151561123c5780518252602082019150602081019050602083039250611217565b6001836020036101000a038019825116818451168082178552505050505050905001915050908152602001604051809103902060009054906101000a900473ffffffffffffffffffffffffffffffffffffffff1673ffffffffffffffffffffffffffffffffffffffff161415156112b257600080fd5b806003836040518082805190602001908083835b6020831015156112eb57805182526020820191506020810190506020830392506112c6565b6001836020036101000a038019825116818451168082178552505050505050905001915050908152602001604051809103902060006101000a81548173ffffffffffffffffffffffffffffffffffffffff021916908373ffffffffffffffffffffffffffffffffffffffff160217905550816005908051906020019061137292919061147c565b507fd8fe3cc65207affabfb13b243ebe763cc4b295ded54e52ec92257e7ba1434da6828260405180806020018373ffffffffffffffffffffffffffffffffffffffff1673ffffffffffffffffffffffffffffffffffffffff168152602001828103825284818151815260200191508051906020019080838360005b838110156114085780820151818401526020810190506113ed565b50505050905090810190601f1680156114355780820380516001836020036101000a031916815260200191505b50935050505060405180910390a15050565b6000809054906101000a900473ffffffffffffffffffffffffffffffffffffffff1681565b6040516102318061152283390190565b828054600181600116156101000203166002900490600052602060002090601f016020900481019282601f106114bd57805160ff19168380011785556114eb565b828001600101855582156114eb579182015b828111156114ea5782518255916020019190600101906114cf565b5b5090506114f891906114fc565b5090565b61151e91905b8082111561151a576000816000905550600101611502565b5090565b905600608060405234801561001057600080fd5b5060405160208061023183398101806040528101908080519060200190929190505050600060405180807f696f2e617261626c6f636b732e70726f78792e72656769737472790000000000815250601b0190506040518091039020905081815550506101b0806100816000396000f300608060405260008060008060405180807f696f2e617261626c6f636b732e70726f78792e72656769737472790000000000815250601b01905060405180910390209350835492508291508173ffffffffffffffffffffffffffffffffffffffff1663ba586e80306040518263ffffffff167c0100000000000000000000000000000000000000000000000000000000028152600401808273ffffffffffffffffffffffffffffffffffffffff1673ffffffffffffffffffffffffffffffffffffffff168152602001915050602060405180830381600087803b1580156100e457600080fd5b505af11580156100f8573d6000803e3d6000fd5b505050506040513d602081101561010e57600080fd5b81019080805190602001909291905050509050600073ffffffffffffffffffffffffffffffffffffffff168173ffffffffffffffffffffffffffffffffffffffff161415151561015d57600080fd5b60405136600082376000803683855af43d806000843e8160008114610180578184f35b8184fd00a165627a7a7230582072924228a50e345c3a4cca50dc8e2613876ef3e2022298a6a816b0123a4423280029a165627a7a72305820d441ab8b630d5585b780aa30c3d4c521650292d482b1926e19e198ad48f8005c0029",
  "source": "pragma solidity 0.4.24;\n\nimport \"./Proxy.sol\";\n\ncontract Registry {\n  address public owner_;\n  mapping (bytes32 => address) private proxies_; // contentId (unhashed) => proxy\n  mapping (bytes32 => address) private proxyOwners_; // contentId (unhashed) => owner\n  mapping (string => address) private versions_; // version => implementation\n  mapping (address => address) public proxyImpls_; // proxy => implementation\n  string public latestVersion_;\n\n  event ProxyDeployed(bytes32 _contentId, address _address);\n  event ProxyUpgraded(bytes32 _contentId, string _version);\n  event StandardAdded(string _version, address _address);\n\n  constructor() public {\n    owner_ = msg.sender;\n  }\n\n  modifier restricted() {\n    require (msg.sender == owner_);\n     _;\n  }\n\n  modifier onlyProxyOwner(bytes32 _contentId) {\n    require(proxyOwners_[_contentId] == msg.sender);\n    _;\n  }\n\n  function getProxyAddress(bytes32 _contentId) external view returns (address) {\n    return proxies_[_contentId];\n  }\n\n  function getProxyOwner(bytes32 _contentId) external view returns (address) {\n    return proxyOwners_[_contentId];\n  }\n\n  function getImplementation(string _version) external view returns (address) {\n    return versions_[_version];\n  }\n\n  /**\n   * @dev AFS Proxy Factory\n   * @param _contentId The unhashed methodless content DID\n   * @param _version The implementation version to use with this Proxy\n   * @param _data AFS initialization data\n   * @return address of the newly deployed Proxy\n   */\n  function createAFS(bytes32 _contentId, string _version, bytes _data) public {\n    require(proxies_[_contentId] == address(0));\n    Proxy proxy = new Proxy(address(this));\n    proxies_[_contentId] = proxy;\n    proxyOwners_[_contentId] = msg.sender;\n    upgradeProxyAndCall(_contentId, _version, _data);\n    emit ProxyDeployed(_contentId, address(proxy));\n  }\n\n  /**\n   * @dev Upgrades proxy implementation version\n   * @param _contentId The unhashed methodless content DID\n   * @param _version The implementation version to upgrade this Proxy to\n   */\n  function upgradeProxy(bytes32 _contentId, string _version) public onlyProxyOwner(_contentId) {\n    require(versions_[_version] != address(0));\n    proxyImpls_[proxies_[_contentId]] = versions_[_version];\n    emit ProxyUpgraded(_contentId, _version);\n  }\n\n  /**\n   * @dev Upgrades proxy implementation version with initialization\n   * @param _contentId The unhashed methodless content DID\n   * @param _version The implementation version to upgrade this Proxy to\n   * @param _data AFS initialization data\n   */\n  function upgradeProxyAndCall(bytes32 _contentId, string _version, bytes _data) public onlyProxyOwner(_contentId) {\n    require(versions_[_version] != address(0));\n    Proxy proxy = Proxy(proxies_[_contentId]);\n    proxyImpls_[proxy] = versions_[_version];\n    if(!address(proxy).call(abi.encodeWithSignature(\"init(bytes)\", _data))) revert();\n    emit ProxyUpgraded(_contentId, _version);\n  }\n\n  /**\n   * @dev Adds a new AFS implementation standard\n   * @param _version The implementation version name\n   * @param _address The address of the new AFS implementation\n   */\n  function addStandardVersion(string _version, address _address) public restricted {\n    require(versions_[_version] == address(0));\n    versions_[_version] = _address;\n    latestVersion_ = _version;\n    emit StandardAdded(_version, _address);\n  }\n}\n",
  "sourcePath": "/Users/ericjiang/Littlstar/ara-contracts/contracts/Registry.sol",
  "compiler": {
    "name": "solc",
    "version": "0.4.24+commit.e67f0147.Emscripten.clang"
  },
  "schemaVersion": "2.0.1",
  "updatedAt": "2018-08-21T21:29:41.266Z"
}