{
  "contractName": "Registry",
  "abi": [
    {
      "constant": true,
      "inputs": [],
      "name": "latestVersion_",
      "outputs": [
        {
          "name": "",
          "type": "string"
        }
      ],
      "payable": false,
      "stateMutability": "view",
      "type": "function"
    },
    {
      "constant": true,
      "inputs": [
        {
          "name": "",
          "type": "address"
        }
      ],
      "name": "proxyImpls_",
      "outputs": [
        {
          "name": "",
          "type": "address"
        }
      ],
      "payable": false,
      "stateMutability": "view",
      "type": "function"
    },
    {
      "constant": true,
      "inputs": [],
      "name": "owner_",
      "outputs": [
        {
          "name": "",
          "type": "address"
        }
      ],
      "payable": false,
      "stateMutability": "view",
      "type": "function"
    },
    {
      "inputs": [],
      "payable": false,
      "stateMutability": "nonpayable",
      "type": "constructor"
    },
    {
      "anonymous": false,
      "inputs": [
        {
          "indexed": false,
          "name": "_contentId",
          "type": "bytes32"
        },
        {
          "indexed": false,
          "name": "_address",
          "type": "address"
        }
      ],
      "name": "ProxyDeployed",
      "type": "event"
    },
    {
      "anonymous": false,
      "inputs": [
        {
          "indexed": false,
          "name": "_contentId",
          "type": "bytes32"
        },
        {
          "indexed": false,
          "name": "_version",
          "type": "string"
        }
      ],
      "name": "ProxyUpgraded",
      "type": "event"
    },
    {
      "anonymous": false,
      "inputs": [
        {
          "indexed": false,
          "name": "_version",
          "type": "string"
        },
        {
          "indexed": false,
          "name": "_address",
          "type": "address"
        }
      ],
      "name": "StandardAdded",
      "type": "event"
    },
    {
      "constant": true,
      "inputs": [
        {
          "name": "_contentId",
          "type": "bytes32"
        }
      ],
      "name": "getProxyAddress",
      "outputs": [
        {
          "name": "",
          "type": "address"
        }
      ],
      "payable": false,
      "stateMutability": "view",
      "type": "function"
    },
    {
      "constant": true,
      "inputs": [
        {
          "name": "_contentId",
          "type": "bytes32"
        }
      ],
      "name": "getProxyOwner",
      "outputs": [
        {
          "name": "",
          "type": "address"
        }
      ],
      "payable": false,
      "stateMutability": "view",
      "type": "function"
    },
    {
      "constant": true,
      "inputs": [
        {
          "name": "_version",
          "type": "string"
        }
      ],
      "name": "getImplementation",
      "outputs": [
        {
          "name": "",
          "type": "address"
        }
      ],
      "payable": false,
      "stateMutability": "view",
      "type": "function"
    },
    {
      "constant": true,
      "inputs": [],
      "name": "getNumber",
      "outputs": [
        {
          "name": "",
          "type": "uint256"
        }
      ],
      "payable": false,
      "stateMutability": "view",
      "type": "function"
    },
    {
      "constant": false,
      "inputs": [
        {
          "name": "_number",
          "type": "uint256"
        }
      ],
      "name": "setNumber",
      "outputs": [],
      "payable": false,
      "stateMutability": "nonpayable",
      "type": "function"
    },
    {
      "constant": false,
      "inputs": [
        {
          "name": "_contentId",
          "type": "bytes32"
        },
        {
          "name": "_version",
          "type": "string"
        },
        {
          "name": "_data",
          "type": "bytes"
        }
      ],
      "name": "createAFS",
      "outputs": [],
      "payable": false,
      "stateMutability": "nonpayable",
      "type": "function"
    },
    {
      "constant": false,
      "inputs": [
        {
          "name": "_contentId",
          "type": "bytes32"
        },
        {
          "name": "_version",
          "type": "string"
        }
      ],
      "name": "upgradeProxy",
      "outputs": [],
      "payable": false,
      "stateMutability": "nonpayable",
      "type": "function"
    },
    {
      "constant": false,
      "inputs": [
        {
          "name": "_contentId",
          "type": "bytes32"
        },
        {
          "name": "_version",
          "type": "string"
        },
        {
          "name": "_data",
          "type": "bytes"
        }
      ],
      "name": "upgradeProxyAndCall",
      "outputs": [],
      "payable": false,
      "stateMutability": "nonpayable",
      "type": "function"
    },
    {
      "constant": false,
      "inputs": [
        {
          "name": "_version",
          "type": "string"
        },
        {
          "name": "_address",
          "type": "address"
        }
      ],
      "name": "addStandardVersion",
      "outputs": [],
      "payable": false,
      "stateMutability": "nonpayable",
      "type": "function"
    }
  ],
  "bytecode": "0x608060405234801561001057600080fd5b50336000806101000a81548173ffffffffffffffffffffffffffffffffffffffff021916908373ffffffffffffffffffffffffffffffffffffffff160217905550611b6e806100606000396000f3006080604052600436106100ba576000357c0100000000000000000000000000000000000000000000000000000000900463ffffffff168063120fd5b8146100bf5780633fb5c1cb14610130578063486f5a831461015d57806348bf16bd146101d45780635a473b69146102915780636b6838961461034e57806392d00a4a146103c95780639e77331c1461043a578063ba586e80146104ca578063c27e35a71461054d578063e7663079146105d6578063f2c9ecd81461062d575b600080fd5b3480156100cb57600080fd5b506100ee6004803603810190808035600019169060200190929190505050610658565b604051808273ffffffffffffffffffffffffffffffffffffffff1673ffffffffffffffffffffffffffffffffffffffff16815260200191505060405180910390f35b34801561013c57600080fd5b5061015b6004803603810190808035906020019092919050505061069d565b005b34801561016957600080fd5b506101d26004803603810190808035600019169060200190929190803590602001908201803590602001908080601f01602080910402602001604051908101604052809392919081815260200183838082843782019150505050505091929192905050506106a7565b005b3480156101e057600080fd5b5061028f6004803603810190808035600019169060200190929190803590602001908201803590602001908080601f0160208091040260200160405190810160405280939291908181526020018383808284378201915050505050509192919290803590602001908201803590602001908080601f0160208091040260200160405190810160405280939291908181526020018383808284378201915050505050509192919290505050610aab565b005b34801561029d57600080fd5b5061034c6004803603810190808035600019169060200190929190803590602001908201803590602001908080601f0160208091040260200160405190810160405280939291908181526020018383808284378201915050505050509192919290803590602001908201803590602001908080601f0160208091040260200160405190810160405280939291908181526020018383808284378201915050505050509192919290505050610d47565b005b34801561035a57600080fd5b5061038760048036038101908080359060200190820180359060200191909192939192939050505061133f565b604051808273ffffffffffffffffffffffffffffffffffffffff1673ffffffffffffffffffffffffffffffffffffffff16815260200191505060405180910390f35b3480156103d557600080fd5b506103f8600480360381019080803560001916906020019092919050505061138f565b604051808273ffffffffffffffffffffffffffffffffffffffff1673ffffffffffffffffffffffffffffffffffffffff16815260200191505060405180910390f35b34801561044657600080fd5b5061044f6113d4565b6040518080602001828103825283818151815260200191508051906020019080838360005b8381101561048f578082015181840152602081019050610474565b50505050905090810190601f1680156104bc5780820380516001836020036101000a031916815260200191505b509250505060405180910390f35b3480156104d657600080fd5b5061050b600480360381019080803573ffffffffffffffffffffffffffffffffffffffff169060200190929190505050611472565b604051808273ffffffffffffffffffffffffffffffffffffffff1673ffffffffffffffffffffffffffffffffffffffff16815260200191505060405180910390f35b34801561055957600080fd5b506105d4600480360381019080803590602001908201803590602001908080601f0160208091040260200160405190810160405280939291908181526020018383808284378201915050505050509192919290803573ffffffffffffffffffffffffffffffffffffffff1690602001909291905050506114a5565b005b3480156105e257600080fd5b506105eb61182d565b604051808273ffffffffffffffffffffffffffffffffffffffff1673ffffffffffffffffffffffffffffffffffffffff16815260200191505060405180910390f35b34801561063957600080fd5b50610642611852565b6040518082815260200191505060405180910390f35b600060026000836000191660001916815260200190815260200160002060009054906101000a900473ffffffffffffffffffffffffffffffffffffffff169050919050565b8060068190555050565b813373ffffffffffffffffffffffffffffffffffffffff1660026000836000191660001916815260200190815260200160002060009054906101000a900473ffffffffffffffffffffffffffffffffffffffff1673ffffffffffffffffffffffffffffffffffffffff16141515610786576040517f08c379a00000000000000000000000000000000000000000000000000000000081526004018080602001828103825260168152602001807f53656e646572206e6f7420617574686f72697a65642e0000000000000000000081525060200191505060405180910390fd5b600073ffffffffffffffffffffffffffffffffffffffff166003836040518082805190602001908083835b6020831015156107d657805182526020820191506020810190506020830392506107b1565b6001836020036101000a038019825116818451168082178552505050505050905001915050908152602001604051809103902060009054906101000a900473ffffffffffffffffffffffffffffffffffffffff1673ffffffffffffffffffffffffffffffffffffffff16141515156108b6576040517f08c379a00000000000000000000000000000000000000000000000000000000081526004018080602001828103825260178152602001807f56657273696f6e20646f6573206e6f742065786973742e00000000000000000081525060200191505060405180910390fd5b6003826040518082805190602001908083835b6020831015156108ee57805182526020820191506020810190506020830392506108c9565b6001836020036101000a038019825116818451168082178552505050505050905001915050908152602001604051809103902060009054906101000a900473ffffffffffffffffffffffffffffffffffffffff166004600060016000876000191660001916815260200190815260200160002060009054906101000a900473ffffffffffffffffffffffffffffffffffffffff1673ffffffffffffffffffffffffffffffffffffffff1673ffffffffffffffffffffffffffffffffffffffff16815260200190815260200160002060006101000a81548173ffffffffffffffffffffffffffffffffffffffff021916908373ffffffffffffffffffffffffffffffffffffffff1602179055507ff484e4534e19040e90fc73bc52bae5162e22375cd7d93e8b1a1b0c00bd9da90f838360405180836000191660001916815260200180602001828103825283818151815260200191508051906020019080838360005b83811015610a6b578082015181840152602081019050610a50565b50505050905090810190601f168015610a985780820380516001836020036101000a031916815260200191505b50935050505060405180910390a1505050565b60008073ffffffffffffffffffffffffffffffffffffffff1660016000866000191660001916815260200190815260200160002060009054906101000a900473ffffffffffffffffffffffffffffffffffffffff1673ffffffffffffffffffffffffffffffffffffffff16141515610bb1576040517f08c379a00000000000000000000000000000000000000000000000000000000081526004018080602001828103825260268152602001807f50726f787920616c72656164792065786973747320666f72207468697320636f81526020017f6e74656e742e000000000000000000000000000000000000000000000000000081525060400191505060405180910390fd5b30610bba61185c565b808273ffffffffffffffffffffffffffffffffffffffff1673ffffffffffffffffffffffffffffffffffffffff168152602001915050604051809103906000f080158015610c0c573d6000803e3d6000fd5b5090508060016000866000191660001916815260200190815260200160002060006101000a81548173ffffffffffffffffffffffffffffffffffffffff021916908373ffffffffffffffffffffffffffffffffffffffff1602179055503360026000866000191660001916815260200190815260200160002060006101000a81548173ffffffffffffffffffffffffffffffffffffffff021916908373ffffffffffffffffffffffffffffffffffffffff160217905550610cce848484610d47565b7f90f293438888f9eb36cfc860a1bccfc3da50bef1e3e97422deadaede67c93a9f84826040518083600019166000191681526020018273ffffffffffffffffffffffffffffffffffffffff1673ffffffffffffffffffffffffffffffffffffffff1681526020019250505060405180910390a150505050565b6000833373ffffffffffffffffffffffffffffffffffffffff1660026000836000191660001916815260200190815260200160002060009054906101000a900473ffffffffffffffffffffffffffffffffffffffff1673ffffffffffffffffffffffffffffffffffffffff16141515610e28576040517f08c379a00000000000000000000000000000000000000000000000000000000081526004018080602001828103825260168152602001807f53656e646572206e6f7420617574686f72697a65642e0000000000000000000081525060200191505060405180910390fd5b600073ffffffffffffffffffffffffffffffffffffffff166003856040518082805190602001908083835b602083101515610e785780518252602082019150602081019050602083039250610e53565b6001836020036101000a038019825116818451168082178552505050505050905001915050908152602001604051809103902060009054906101000a900473ffffffffffffffffffffffffffffffffffffffff1673ffffffffffffffffffffffffffffffffffffffff1614151515610f58576040517f08c379a00000000000000000000000000000000000000000000000000000000081526004018080602001828103825260178152602001807f56657273696f6e20646f6573206e6f742065786973742e00000000000000000081525060200191505060405180910390fd5b60016000866000191660001916815260200190815260200160002060009054906101000a900473ffffffffffffffffffffffffffffffffffffffff1691506003846040518082805190602001908083835b602083101515610fce5780518252602082019150602081019050602083039250610fa9565b6001836020036101000a038019825116818451168082178552505050505050905001915050908152602001604051809103902060009054906101000a900473ffffffffffffffffffffffffffffffffffffffff16600460008473ffffffffffffffffffffffffffffffffffffffff1673ffffffffffffffffffffffffffffffffffffffff16815260200190815260200160002060006101000a81548173ffffffffffffffffffffffffffffffffffffffff021916908373ffffffffffffffffffffffffffffffffffffffff1602179055508173ffffffffffffffffffffffffffffffffffffffff16836040516024018080602001828103825283818151815260200191508051906020019080838360005b838110156110fa5780820151818401526020810190506110df565b50505050905090810190601f1680156111275780820380516001836020036101000a031916815260200191505b50925050506040516020818303038152906040527f4ddf47d4000000000000000000000000000000000000000000000000000000007bffffffffffffffffffffffffffffffffffffffffffffffffffffffff19166020820180517bffffffffffffffffffffffffffffffffffffffffffffffffffffffff838183161783525050505060405180828051906020019080838360005b838110156111d65780820151818401526020810190506111bb565b50505050905090810190601f1680156112035780820380516001836020036101000a031916815260200191505b509150506000604051808303816000865af1915050151561128c576040517f08c379a000000000000000000000000000000000000000000000000000000000815260040180806020018281038252600c8152602001807f496e6974206661696c65642e000000000000000000000000000000000000000081525060200191505060405180910390fd5b7ff484e4534e19040e90fc73bc52bae5162e22375cd7d93e8b1a1b0c00bd9da90f858560405180836000191660001916815260200180602001828103825283818151815260200191508051906020019080838360005b838110156112fd5780820151818401526020810190506112e2565b50505050905090810190601f16801561132a5780820380516001836020036101000a031916815260200191505b50935050505060405180910390a15050505050565b60006003838360405180838380828437820191505092505050908152602001604051809103902060009054906101000a900473ffffffffffffffffffffffffffffffffffffffff16905092915050565b600060016000836000191660001916815260200190815260200160002060009054906101000a900473ffffffffffffffffffffffffffffffffffffffff169050919050565b60058054600181600116156101000203166002900480601f01602080910402602001604051908101604052809291908181526020018280546001816001161561010002031660029004801561146a5780601f1061143f5761010080835404028352916020019161146a565b820191906000526020600020905b81548152906001019060200180831161144d57829003601f168201915b505050505081565b60046020528060005260406000206000915054906101000a900473ffffffffffffffffffffffffffffffffffffffff1681565b6000809054906101000a900473ffffffffffffffffffffffffffffffffffffffff1673ffffffffffffffffffffffffffffffffffffffff163373ffffffffffffffffffffffffffffffffffffffff16141515611569576040517f08c379a00000000000000000000000000000000000000000000000000000000081526004018080602001828103825260168152602001807f53656e646572206e6f7420617574686f72697a65642e0000000000000000000081525060200191505060405180910390fd5b600073ffffffffffffffffffffffffffffffffffffffff166003836040518082805190602001908083835b6020831015156115b95780518252602082019150602081019050602083039250611594565b6001836020036101000a038019825116818451168082178552505050505050905001915050908152602001604051809103902060009054906101000a900473ffffffffffffffffffffffffffffffffffffffff1673ffffffffffffffffffffffffffffffffffffffff16141515611698576040517f08c379a00000000000000000000000000000000000000000000000000000000081526004018080602001828103825260178152602001807f56657273696f6e20616c7265616479206578697374732e00000000000000000081525060200191505060405180910390fd5b806003836040518082805190602001908083835b6020831015156116d157805182526020820191506020810190506020830392506116ac565b6001836020036101000a038019825116818451168082178552505050505050905001915050908152602001604051809103902060006101000a81548173ffffffffffffffffffffffffffffffffffffffff021916908373ffffffffffffffffffffffffffffffffffffffff160217905550816005908051906020019061175892919061186c565b507fd8fe3cc65207affabfb13b243ebe763cc4b295ded54e52ec92257e7ba1434da6828260405180806020018373ffffffffffffffffffffffffffffffffffffffff1673ffffffffffffffffffffffffffffffffffffffff168152602001828103825284818151815260200191508051906020019080838360005b838110156117ee5780820151818401526020810190506117d3565b50505050905090810190601f16801561181b5780820380516001836020036101000a031916815260200191505b50935050505060405180910390a15050565b6000809054906101000a900473ffffffffffffffffffffffffffffffffffffffff1681565b6000600654905090565b6040516102318061191283390190565b828054600181600116156101000203166002900490600052602060002090601f016020900481019282601f106118ad57805160ff19168380011785556118db565b828001600101855582156118db579182015b828111156118da5782518255916020019190600101906118bf565b5b5090506118e891906118ec565b5090565b61190e91905b8082111561190a5760008160009055506001016118f2565b5090565b905600608060405234801561001057600080fd5b5060405160208061023183398101806040528101908080519060200190929190505050600060405180807f696f2e617261626c6f636b732e70726f78792e72656769737472790000000000815250601b0190506040518091039020905081815550506101b0806100816000396000f300608060405260008060008060405180807f696f2e617261626c6f636b732e70726f78792e72656769737472790000000000815250601b01905060405180910390209350835492508291508173ffffffffffffffffffffffffffffffffffffffff1663ba586e80306040518263ffffffff167c0100000000000000000000000000000000000000000000000000000000028152600401808273ffffffffffffffffffffffffffffffffffffffff1673ffffffffffffffffffffffffffffffffffffffff168152602001915050602060405180830381600087803b1580156100e457600080fd5b505af11580156100f8573d6000803e3d6000fd5b505050506040513d602081101561010e57600080fd5b81019080805190602001909291905050509050600073ffffffffffffffffffffffffffffffffffffffff168173ffffffffffffffffffffffffffffffffffffffff161415151561015d57600080fd5b60405136600082376000803683855af43d806000843e8160008114610180578184f35b8184fd00a165627a7a7230582049adc902cf415f66a1ee6f259387033c2bd735daca5d361245db1b3da794d73e0029a165627a7a7230582085841fc3f1f05791e867ffbe6aa85c9d01607caa2b8b3a0661d1722b23b3688d0029",
  "source": "pragma solidity 0.4.24;\n\nimport \"./Proxy.sol\";\n\ncontract Registry {\n  address public owner_;\n  mapping (bytes32 => address) private proxies_; // contentId (unhashed) => proxy\n  mapping (bytes32 => address) private proxyOwners_; // contentId (unhashed) => owner\n  mapping (string => address) private versions_; // version => implementation\n  mapping (address => address) public proxyImpls_; // proxy => implementation\n  string public latestVersion_;\n\n  event ProxyDeployed(bytes32 _contentId, address _address);\n  event ProxyUpgraded(bytes32 _contentId, string _version);\n  event StandardAdded(string _version, address _address);\n\n  constructor() public {\n    owner_ = msg.sender;\n  }\n\n  modifier restricted() {\n    require (\n      msg.sender == owner_,\n      \"Sender not authorized.\"\n    );\n    _;\n  }\n\n  modifier onlyProxyOwner(bytes32 _contentId) {\n    require(\n      proxyOwners_[_contentId] == msg.sender,\n      \"Sender not authorized.\"\n    );\n    _;\n  }\n\n  function getProxyAddress(bytes32 _contentId) external view returns (address) {\n    return proxies_[_contentId];\n  }\n\n  function getProxyOwner(bytes32 _contentId) external view returns (address) {\n    return proxyOwners_[_contentId];\n  }\n\n  function getImplementation(string _version) external view returns (address) {\n    return versions_[_version];\n  }\n\n  uint256 number_;\n\n  function getNumber() public view returns (uint256) {\n    return number_;\n  }\n\n  function setNumber(uint256 _number) public {\n    number_ = _number;\n  }\n\n  /**\n   * @dev AFS Proxy Factory\n   * @param _contentId The unhashed methodless content DID\n   * @param _version The implementation version to use with this Proxy\n   * @param _data AFS initialization data\n   * @return address of the newly deployed Proxy\n   */\n  function createAFS(bytes32 _contentId, string _version, bytes _data) public {\n    require(proxies_[_contentId] == address(0), \"Proxy already exists for this content.\");\n    Proxy proxy = new Proxy(address(this));\n    proxies_[_contentId] = proxy;\n    proxyOwners_[_contentId] = msg.sender;\n    upgradeProxyAndCall(_contentId, _version, _data);\n    emit ProxyDeployed(_contentId, address(proxy));\n  }\n\n  /**\n   * @dev Upgrades proxy implementation version\n   * @param _contentId The unhashed methodless content DID\n   * @param _version The implementation version to upgrade this Proxy to\n   */\n  function upgradeProxy(bytes32 _contentId, string _version) public onlyProxyOwner(_contentId) {\n    require(versions_[_version] != address(0), \"Version does not exist.\");\n    proxyImpls_[proxies_[_contentId]] = versions_[_version];\n    emit ProxyUpgraded(_contentId, _version);\n  }\n\n  /**\n   * @dev Upgrades proxy implementation version with initialization\n   * @param _contentId The unhashed methodless content DID\n   * @param _version The implementation version to upgrade this Proxy to\n   * @param _data AFS initialization data\n   */\n  function upgradeProxyAndCall(bytes32 _contentId, string _version, bytes _data) public onlyProxyOwner(_contentId) {\n    require(versions_[_version] != address(0), \"Version does not exist.\");\n    Proxy proxy = Proxy(proxies_[_contentId]);\n    proxyImpls_[proxy] = versions_[_version];\n    require(address(proxy).call(abi.encodeWithSignature(\"init(bytes)\", _data)), \"Init failed.\");\n    emit ProxyUpgraded(_contentId, _version);\n  }\n\n  /**\n   * @dev Adds a new AFS implementation standard\n   * @param _version The implementation version name\n   * @param _address The address of the new AFS implementation\n   */\n  function addStandardVersion(string _version, address _address) public restricted {\n    require(versions_[_version] == address(0), \"Version already exists.\");\n    versions_[_version] = _address;\n    latestVersion_ = _version;\n    emit StandardAdded(_version, _address);\n  }\n}\n",
  "sourcePath": "/Users/charles/Desktop/Development/Ara/ara-contracts/contracts/Registry.sol",
  "compiler": {
    "name": "solc",
    "version": "0.4.24+commit.e67f0147.Emscripten.clang"
  },
  "schemaVersion": "2.0.1",
  "updatedAt": "2018-09-17T15:45:48.988Z"
}