{
  "contractName": "Registry",
  "abi": [
    {
      "constant": true,
      "inputs": [
        {
          "name": "",
          "type": "address"
        }
      ],
      "name": "proxyImpls_",
      "outputs": [
        {
          "name": "",
          "type": "address"
        }
      ],
      "payable": false,
      "stateMutability": "view",
      "type": "function"
    },
    {
      "constant": true,
      "inputs": [],
      "name": "owner_",
      "outputs": [
        {
          "name": "",
          "type": "address"
        }
      ],
      "payable": false,
      "stateMutability": "view",
      "type": "function"
    },
    {
      "inputs": [],
      "payable": false,
      "stateMutability": "nonpayable",
      "type": "constructor"
    },
    {
      "constant": true,
      "inputs": [
        {
          "name": "_contentId",
          "type": "string"
        }
      ],
      "name": "getProxyAddress",
      "outputs": [
        {
          "name": "",
          "type": "address"
        }
      ],
      "payable": false,
      "stateMutability": "view",
      "type": "function"
    },
    {
      "constant": true,
      "inputs": [
        {
          "name": "_contentId",
          "type": "string"
        }
      ],
      "name": "getProxyOwner",
      "outputs": [
        {
          "name": "",
          "type": "address"
        }
      ],
      "payable": false,
      "stateMutability": "view",
      "type": "function"
    },
    {
      "constant": true,
      "inputs": [
        {
          "name": "_version",
          "type": "string"
        }
      ],
      "name": "getImplementation",
      "outputs": [
        {
          "name": "",
          "type": "address"
        }
      ],
      "payable": false,
      "stateMutability": "view",
      "type": "function"
    },
    {
      "constant": false,
      "inputs": [
        {
          "name": "_contentId",
          "type": "string"
        },
        {
          "name": "_version",
          "type": "string"
        },
        {
          "name": "_data",
          "type": "bytes"
        }
      ],
      "name": "createAFS",
      "outputs": [],
      "payable": false,
      "stateMutability": "nonpayable",
      "type": "function"
    },
    {
      "constant": false,
      "inputs": [
        {
          "name": "_contentId",
          "type": "string"
        },
        {
          "name": "_version",
          "type": "string"
        }
      ],
      "name": "upgradeProxy",
      "outputs": [],
      "payable": false,
      "stateMutability": "nonpayable",
      "type": "function"
    },
    {
      "constant": false,
      "inputs": [
        {
          "name": "_contentId",
          "type": "string"
        },
        {
          "name": "_version",
          "type": "string"
        },
        {
          "name": "_data",
          "type": "bytes"
        }
      ],
      "name": "upgradeProxyAndCall",
      "outputs": [],
      "payable": false,
      "stateMutability": "nonpayable",
      "type": "function"
    },
    {
      "constant": false,
      "inputs": [
        {
          "name": "_version",
          "type": "string"
        },
        {
          "name": "_address",
          "type": "address"
        }
      ],
      "name": "addStandardVersion",
      "outputs": [],
      "payable": false,
      "stateMutability": "nonpayable",
      "type": "function"
    }
  ],
  "bytecode": "0x608060405234801561001057600080fd5b50336000806101000a81548173ffffffffffffffffffffffffffffffffffffffff021916908373ffffffffffffffffffffffffffffffffffffffff160217905550611580806100606000396000f300608060405260043610610099576000357c0100000000000000000000000000000000000000000000000000000000900463ffffffff1680636b6838961461009e5780637eab1f2b1461011957806381d5421d146101945780639c9b55a214610289578063ba586e8014610338578063c27e35a7146103bb578063d3c4eeae14610444578063e766307914610539578063eaf7edce14610590575b600080fd5b3480156100aa57600080fd5b506100d760048036038101908080359060200190820180359060200191909192939192939050505061060b565b604051808273ffffffffffffffffffffffffffffffffffffffff1673ffffffffffffffffffffffffffffffffffffffff16815260200191505060405180910390f35b34801561012557600080fd5b5061015260048036038101908080359060200190820180359060200191909192939192939050505061065b565b604051808273ffffffffffffffffffffffffffffffffffffffff1673ffffffffffffffffffffffffffffffffffffffff16815260200191505060405180910390f35b3480156101a057600080fd5b50610287600480360381019080803590602001908201803590602001908080601f0160208091040260200160405190810160405280939291908181526020018383808284378201915050505050509192919290803590602001908201803590602001908080601f0160208091040260200160405190810160405280939291908181526020018383808284378201915050505050509192919290803590602001908201803590602001908080601f01602080910402602001604051908101604052809392919081815260200183838082843782019150505050505091929192905050506106ab565b005b34801561029557600080fd5b50610336600480360381019080803590602001908201803590602001908080601f0160208091040260200160405190810160405280939291908181526020018383808284378201915050505050509192919290803590602001908201803590602001908080601f0160208091040260200160405190810160405280939291908181526020018383808284378201915050505050509192919290505050610aec565b005b34801561034457600080fd5b50610379600480360381019080803573ffffffffffffffffffffffffffffffffffffffff169060200190929190505050610e12565b604051808273ffffffffffffffffffffffffffffffffffffffff1673ffffffffffffffffffffffffffffffffffffffff16815260200191505060405180910390f35b3480156103c757600080fd5b50610442600480360381019080803590602001908201803590602001908080601f0160208091040260200160405190810160405280939291908181526020018383808284378201915050505050509192919290803573ffffffffffffffffffffffffffffffffffffffff169060200190929190505050610e45565b005b34801561045057600080fd5b50610537600480360381019080803590602001908201803590602001908080601f0160208091040260200160405190810160405280939291908181526020018383808284378201915050505050509192919290803590602001908201803590602001908080601f0160208091040260200160405190810160405280939291908181526020018383808284378201915050505050509192919290803590602001908201803590602001908080601f0160208091040260200160405190810160405280939291908181526020018383808284378201915050505050509192919290505050611014565b005b34801561054557600080fd5b5061054e61129e565b604051808273ffffffffffffffffffffffffffffffffffffffff1673ffffffffffffffffffffffffffffffffffffffff16815260200191505060405180910390f35b34801561059c57600080fd5b506105c96004803603810190808035906020019082018035906020019190919293919293905050506112c3565b604051808273ffffffffffffffffffffffffffffffffffffffff1673ffffffffffffffffffffffffffffffffffffffff16815260200191505060405180910390f35b60006003838360405180838380828437820191505092505050908152602001604051809103902060009054906101000a900473ffffffffffffffffffffffffffffffffffffffff16905092915050565b60006001838360405180838380828437820191505092505050908152602001604051809103902060009054906101000a900473ffffffffffffffffffffffffffffffffffffffff16905092915050565b6000833373ffffffffffffffffffffffffffffffffffffffff166002826040518082805190602001908083835b6020831015156106fd57805182526020820191506020810190506020830392506106d8565b6001836020036101000a038019825116818451168082178552505050505050905001915050908152602001604051809103902060009054906101000a900473ffffffffffffffffffffffffffffffffffffffff1673ffffffffffffffffffffffffffffffffffffffff1614151561077357600080fd5b600073ffffffffffffffffffffffffffffffffffffffff166003856040518082805190602001908083835b6020831015156107c3578051825260208201915060208101905060208303925061079e565b6001836020036101000a038019825116818451168082178552505050505050905001915050908152602001604051809103902060009054906101000a900473ffffffffffffffffffffffffffffffffffffffff1673ffffffffffffffffffffffffffffffffffffffff161415151561083a57600080fd5b6001856040518082805190602001908083835b602083101515610872578051825260208201915060208101905060208303925061084d565b6001836020036101000a038019825116818451168082178552505050505050905001915050908152602001604051809103902060009054906101000a900473ffffffffffffffffffffffffffffffffffffffff1691506003846040518082805190602001908083835b60208310151561090057805182526020820191506020810190506020830392506108db565b6001836020036101000a038019825116818451168082178552505050505050905001915050908152602001604051809103902060009054906101000a900473ffffffffffffffffffffffffffffffffffffffff16600460008473ffffffffffffffffffffffffffffffffffffffff1673ffffffffffffffffffffffffffffffffffffffff16815260200190815260200160002060006101000a81548173ffffffffffffffffffffffffffffffffffffffff021916908373ffffffffffffffffffffffffffffffffffffffff1602179055508173ffffffffffffffffffffffffffffffffffffffff1660405180807f696e697428627974657329000000000000000000000000000000000000000000815250600b01905060405180910390207c01000000000000000000000000000000000000000000000000000000009004846040518263ffffffff167c010000000000000000000000000000000000000000000000000000000002815260040180828051906020019080838360005b83811015610a97578082015181840152602081019050610a7c565b50505050905090810190601f168015610ac45780820380516001836020036101000a031916815260200191505b509150506000604051808303816000875af1925050501515610ae557600080fd5b5050505050565b813373ffffffffffffffffffffffffffffffffffffffff166002826040518082805190602001908083835b602083101515610b3c5780518252602082019150602081019050602083039250610b17565b6001836020036101000a038019825116818451168082178552505050505050905001915050908152602001604051809103902060009054906101000a900473ffffffffffffffffffffffffffffffffffffffff1673ffffffffffffffffffffffffffffffffffffffff16141515610bb257600080fd5b600073ffffffffffffffffffffffffffffffffffffffff166003836040518082805190602001908083835b602083101515610c025780518252602082019150602081019050602083039250610bdd565b6001836020036101000a038019825116818451168082178552505050505050905001915050908152602001604051809103902060009054906101000a900473ffffffffffffffffffffffffffffffffffffffff1673ffffffffffffffffffffffffffffffffffffffff1614151515610c7957600080fd5b6003826040518082805190602001908083835b602083101515610cb15780518252602082019150602081019050602083039250610c8c565b6001836020036101000a038019825116818451168082178552505050505050905001915050908152602001604051809103902060009054906101000a900473ffffffffffffffffffffffffffffffffffffffff16600460006001866040518082805190602001908083835b602083101515610d415780518252602082019150602081019050602083039250610d1c565b6001836020036101000a038019825116818451168082178552505050505050905001915050908152602001604051809103902060009054906101000a900473ffffffffffffffffffffffffffffffffffffffff1673ffffffffffffffffffffffffffffffffffffffff1673ffffffffffffffffffffffffffffffffffffffff16815260200190815260200160002060006101000a81548173ffffffffffffffffffffffffffffffffffffffff021916908373ffffffffffffffffffffffffffffffffffffffff160217905550505050565b60046020528060005260406000206000915054906101000a900473ffffffffffffffffffffffffffffffffffffffff1681565b6000809054906101000a900473ffffffffffffffffffffffffffffffffffffffff1673ffffffffffffffffffffffffffffffffffffffff163373ffffffffffffffffffffffffffffffffffffffff16141515610ea057600080fd5b600073ffffffffffffffffffffffffffffffffffffffff166003836040518082805190602001908083835b602083101515610ef05780518252602082019150602081019050602083039250610ecb565b6001836020036101000a038019825116818451168082178552505050505050905001915050908152602001604051809103902060009054906101000a900473ffffffffffffffffffffffffffffffffffffffff1673ffffffffffffffffffffffffffffffffffffffff16141515610f6657600080fd5b806003836040518082805190602001908083835b602083101515610f9f5780518252602082019150602081019050602083039250610f7a565b6001836020036101000a038019825116818451168082178552505050505050905001915050908152602001604051809103902060006101000a81548173ffffffffffffffffffffffffffffffffffffffff021916908373ffffffffffffffffffffffffffffffffffffffff1602179055505050565b60008073ffffffffffffffffffffffffffffffffffffffff166001856040518082805190602001908083835b6020831015156110655780518252602082019150602081019050602083039250611040565b6001836020036101000a038019825116818451168082178552505050505050905001915050908152602001604051809103902060009054906101000a900473ffffffffffffffffffffffffffffffffffffffff1673ffffffffffffffffffffffffffffffffffffffff161415156110db57600080fd5b306110e4611313565b808273ffffffffffffffffffffffffffffffffffffffff1673ffffffffffffffffffffffffffffffffffffffff168152602001915050604051809103906000f080158015611136573d6000803e3d6000fd5b509050806001856040518082805190602001908083835b602083101515611172578051825260208201915060208101905060208303925061114d565b6001836020036101000a038019825116818451168082178552505050505050905001915050908152602001604051809103902060006101000a81548173ffffffffffffffffffffffffffffffffffffffff021916908373ffffffffffffffffffffffffffffffffffffffff1602179055506111ee8484846106ab565b336002856040518082805190602001908083835b6020831015156112275780518252602082019150602081019050602083039250611202565b6001836020036101000a038019825116818451168082178552505050505050905001915050908152602001604051809103902060006101000a81548173ffffffffffffffffffffffffffffffffffffffff021916908373ffffffffffffffffffffffffffffffffffffffff16021790555050505050565b6000809054906101000a900473ffffffffffffffffffffffffffffffffffffffff1681565b60006002838360405180838380828437820191505092505050908152602001604051809103902060009054906101000a900473ffffffffffffffffffffffffffffffffffffffff16905092915050565b60405161023180611324833901905600608060405234801561001057600080fd5b5060405160208061023183398101806040528101908080519060200190929190505050600060405180807f696f2e617261626c6f636b732e70726f78792e72656769737472790000000000815250601b0190506040518091039020905081815550506101b0806100816000396000f300608060405260008060008060405180807f696f2e617261626c6f636b732e70726f78792e72656769737472790000000000815250601b01905060405180910390209350835492508291508173ffffffffffffffffffffffffffffffffffffffff1663ba586e80306040518263ffffffff167c0100000000000000000000000000000000000000000000000000000000028152600401808273ffffffffffffffffffffffffffffffffffffffff1673ffffffffffffffffffffffffffffffffffffffff168152602001915050602060405180830381600087803b1580156100e457600080fd5b505af11580156100f8573d6000803e3d6000fd5b505050506040513d602081101561010e57600080fd5b81019080805190602001909291905050509050600073ffffffffffffffffffffffffffffffffffffffff168173ffffffffffffffffffffffffffffffffffffffff161415151561015d57600080fd5b60405136600082376000803683855af43d806000843e8160008114610180578184f35b8184fd00a165627a7a72305820e9d797ba4abff181531bfffd2131adb9d248a88c13de6bcef6440322be8a973a0029a165627a7a723058208b6fe419da95a2c47833dcda00d8dbdf7bc01e2612ef61ada32ac19993641a660029",
  "source": "pragma solidity 0.4.24;\n\nimport \"./Proxy.sol\";\n\ncontract Registry {\n  address public owner_;\n  mapping (string => address) private proxies_; // contentId => proxy\n  mapping (string => address) private proxyOwners_; // contentId => owner\n  mapping (string => address) private versions_; // version => implementation\n  mapping (address => address) public proxyImpls_; // proxy => implementation\n\n  constructor() public {\n    owner_ = msg.sender;\n  }\n\n  modifier restricted() {\n    require (msg.sender == owner_);\n     _;\n  }\n\n  modifier onlyProxyOwner(string _contentId) {\n    require(proxyOwners_[_contentId] == msg.sender);\n    _;\n  }\n\n  function getProxyAddress(string _contentId) external view returns (address) {\n    return proxies_[_contentId];\n  }\n\n  function getProxyOwner(string _contentId) external view returns (address) {\n    return proxyOwners_[_contentId];\n  }\n\n  function getImplementation(string _version) external view returns (address) {\n    return versions_[_version];\n  }\n\n  /**\n   * @dev AFS Proxy Factory\n   * @param _contentId The methodless content DID\n   * @param _version The implementation version to use with this Proxy\n   * @param _data AFS initialization data\n   */\n  function createAFS(string _contentId, string _version, bytes _data) public {\n    require(proxies_[_contentId] == address(0));\n    Proxy proxy = new Proxy(address(this));\n    proxies_[_contentId] = proxy;\n    upgradeProxyAndCall(_contentId, _version, _data);\n    proxyOwners_[_contentId] = msg.sender;\n  }\n\n  /**\n   * @dev Upgrades proxy implementation version\n   * @param _contentId The methodless content DID\n   * @param _version The implementation version to upgrade this Proxy to\n   */\n  function upgradeProxy(string _contentId, string _version) public onlyProxyOwner(_contentId) {\n    require(versions_[_version] != address(0));\n    proxyImpls_[proxies_[_contentId]] = versions_[_version];\n  }\n\n  /**\n   * @dev Upgrades proxy implementation version with initialization\n   * @param _contentId The methodless content DID\n   * @param _version The implementation version to upgrade this Proxy to\n   * @param _data AFS initialization data\n   */\n  function upgradeProxyAndCall(string _contentId, string _version, bytes _data) public onlyProxyOwner(_contentId) {\n    require(versions_[_version] != address(0));\n    Proxy proxy = Proxy(proxies_[_contentId]);\n    proxyImpls_[proxy] = versions_[_version];\n    require(address(proxy).call(bytes4(keccak256(\"init(bytes)\")), _data));\n  }\n\n  /**\n   * @dev Adds a new AFS implementation standard\n   * @param _version The implementation version name\n   * @param _address The address of the new AFS implementation\n   */\n  function addStandardVersion(string _version, address _address) public restricted {\n    require(versions_[_version] == address(0));\n    versions_[_version] = _address;\n  }\n}\n",
  "sourcePath": "/Users/ericjiang/Littlstar/ara-contracts/contracts/Registry.sol",
  "compiler": {
    "name": "solc",
    "version": "0.4.24+commit.e67f0147.Emscripten.clang"
  },
  "schemaVersion": "2.0.1",
  "updatedAt": "2018-08-02T14:38:03.615Z"
}