{
  "contractName": "Registry",
  "abi": [
    {
      "constant": true,
      "inputs": [],
      "name": "latestVersion_",
      "outputs": [
        {
          "name": "",
          "type": "string"
        }
      ],
      "payable": false,
      "stateMutability": "view",
      "type": "function"
    },
    {
      "constant": true,
      "inputs": [
        {
          "name": "",
          "type": "address"
        }
      ],
      "name": "proxyImpls_",
      "outputs": [
        {
          "name": "",
          "type": "string"
        }
      ],
      "payable": false,
      "stateMutability": "view",
      "type": "function"
    },
    {
      "constant": true,
      "inputs": [],
      "name": "owner_",
      "outputs": [
        {
          "name": "",
          "type": "address"
        }
      ],
      "payable": false,
      "stateMutability": "view",
      "type": "function"
    },
    {
      "anonymous": false,
      "inputs": [
        {
          "indexed": true,
          "name": "_owner",
          "type": "address"
        },
        {
          "indexed": true,
          "name": "_contentId",
          "type": "bytes32"
        },
        {
          "indexed": false,
          "name": "_address",
          "type": "address"
        }
      ],
      "name": "ProxyDeployed",
      "type": "event"
    },
    {
      "anonymous": false,
      "inputs": [
        {
          "indexed": true,
          "name": "_contentId",
          "type": "bytes32"
        },
        {
          "indexed": true,
          "name": "_version",
          "type": "string"
        }
      ],
      "name": "ProxyUpgraded",
      "type": "event"
    },
    {
      "anonymous": false,
      "inputs": [
        {
          "indexed": true,
          "name": "_version",
          "type": "string"
        },
        {
          "indexed": false,
          "name": "_address",
          "type": "address"
        }
      ],
      "name": "StandardAdded",
      "type": "event"
    },
    {
      "constant": false,
      "inputs": [
        {
          "name": "_data",
          "type": "bytes"
        }
      ],
      "name": "init",
      "outputs": [],
      "payable": false,
      "stateMutability": "nonpayable",
      "type": "function"
    },
    {
      "constant": true,
      "inputs": [
        {
          "name": "_contentId",
          "type": "bytes32"
        }
      ],
      "name": "getProxyAddress",
      "outputs": [
        {
          "name": "",
          "type": "address"
        }
      ],
      "payable": false,
      "stateMutability": "view",
      "type": "function"
    },
    {
      "constant": true,
      "inputs": [
        {
          "name": "_contentId",
          "type": "bytes32"
        }
      ],
      "name": "getProxyOwner",
      "outputs": [
        {
          "name": "",
          "type": "address"
        }
      ],
      "payable": false,
      "stateMutability": "view",
      "type": "function"
    },
    {
      "constant": true,
      "inputs": [
        {
          "name": "_version",
          "type": "string"
        }
      ],
      "name": "getImplementation",
      "outputs": [
        {
          "name": "",
          "type": "address"
        }
      ],
      "payable": false,
      "stateMutability": "view",
      "type": "function"
    },
    {
      "constant": true,
      "inputs": [
        {
          "name": "_contentId",
          "type": "bytes32"
        }
      ],
      "name": "getProxyVersion",
      "outputs": [
        {
          "name": "",
          "type": "string"
        }
      ],
      "payable": false,
      "stateMutability": "view",
      "type": "function"
    },
    {
      "constant": false,
      "inputs": [
        {
          "name": "_contentId",
          "type": "bytes32"
        },
        {
          "name": "_version",
          "type": "string"
        },
        {
          "name": "_data",
          "type": "bytes"
        }
      ],
      "name": "createAFS",
      "outputs": [],
      "payable": false,
      "stateMutability": "nonpayable",
      "type": "function"
    },
    {
      "constant": false,
      "inputs": [
        {
          "name": "_contentId",
          "type": "bytes32"
        },
        {
          "name": "_version",
          "type": "string"
        }
      ],
      "name": "upgradeProxy",
      "outputs": [],
      "payable": false,
      "stateMutability": "nonpayable",
      "type": "function"
    },
    {
      "constant": false,
      "inputs": [
        {
          "name": "_contentId",
          "type": "bytes32"
        },
        {
          "name": "_version",
          "type": "string"
        },
        {
          "name": "_data",
          "type": "bytes"
        }
      ],
      "name": "upgradeProxyAndCall",
      "outputs": [],
      "payable": false,
      "stateMutability": "nonpayable",
      "type": "function"
    },
    {
      "constant": false,
      "inputs": [
        {
          "name": "_version",
          "type": "string"
        },
        {
          "name": "_address",
          "type": "address"
        }
      ],
      "name": "addStandardVersion",
      "outputs": [],
      "payable": false,
      "stateMutability": "nonpayable",
      "type": "function"
    }
  ],
  "bytecode": "0x608060405234801561001057600080fd5b50612633806100206000396000f3006080604052600436106100ba576000357c0100000000000000000000000000000000000000000000000000000000900463ffffffff168063120fd5b8146100bf578063486f5a831461013057806348bf16bd146101a75780634ddf47d4146102645780635a473b69146102cd5780636b6838961461038a57806392d00a4a146104335780639e77331c146104a4578063aafb28b514610534578063ba586e80146105de578063c27e35a71461069a578063e766307914610723575b600080fd5b3480156100cb57600080fd5b506100ee600480360381019080803560001916906020019092919050505061077a565b604051808273ffffffffffffffffffffffffffffffffffffffff1673ffffffffffffffffffffffffffffffffffffffff16815260200191505060405180910390f35b34801561013c57600080fd5b506101a56004803603810190808035600019169060200190929190803590602001908201803590602001908080601f01602080910402602001604051908101604052809392919081815260200183838082843782019150505050505091929192905050506107bf565b005b3480156101b357600080fd5b506102626004803603810190808035600019169060200190929190803590602001908201803590602001908080601f0160208091040260200160405190810160405280939291908181526020018383808284378201915050505050509192919290803590602001908201803590602001908080601f0160208091040260200160405190810160405280939291908181526020018383808284378201915050505050509192919290505050610c75565b005b34801561027057600080fd5b506102cb600480360381019080803590602001908201803590602001908080601f016020809104026020016040519081016040528093929190818152602001838380828437820191505050505050919291929050505061110c565b005b3480156102d957600080fd5b506103886004803603810190808035600019169060200190929190803590602001908201803590602001908080601f0160208091040260200160405190810160405280939291908181526020018383808284378201915050505050509192919290803590602001908201803590602001908080601f0160208091040260200160405190810160405280939291908181526020018383808284378201915050505050509192919290505050611249565b005b34801561039657600080fd5b506103f1600480360381019080803590602001908201803590602001908080601f0160208091040260200160405190810160405280939291908181526020018383808284378201915050505050509192919290505050611b38565b604051808273ffffffffffffffffffffffffffffffffffffffff1673ffffffffffffffffffffffffffffffffffffffff16815260200191505060405180910390f35b34801561043f57600080fd5b506104626004803603810190808035600019169060200190929190505050611bcd565b604051808273ffffffffffffffffffffffffffffffffffffffff1673ffffffffffffffffffffffffffffffffffffffff16815260200191505060405180910390f35b3480156104b057600080fd5b506104b9611c12565b6040518080602001828103825283818151815260200191508051906020019080838360005b838110156104f95780820151818401526020810190506104de565b50505050905090810190601f1680156105265780820380516001836020036101000a031916815260200191505b509250505060405180910390f35b34801561054057600080fd5b506105636004803603810190808035600019169060200190929190505050611cb0565b6040518080602001828103825283818151815260200191508051906020019080838360005b838110156105a3578082015181840152602081019050610588565b50505050905090810190601f1680156105d05780820380516001836020036101000a031916815260200191505b509250505060405180910390f35b3480156105ea57600080fd5b5061061f600480360381019080803573ffffffffffffffffffffffffffffffffffffffff169060200190929190505050611d99565b6040518080602001828103825283818151815260200191508051906020019080838360005b8381101561065f578082015181840152602081019050610644565b50505050905090810190601f16801561068c5780820380516001836020036101000a031916815260200191505b509250505060405180910390f35b3480156106a657600080fd5b50610721600480360381019080803590602001908201803590602001908080601f0160208091040260200160405190810160405280939291908181526020018383808284378201915050505050509192919290803573ffffffffffffffffffffffffffffffffffffffff169060200190929190505050611e49565b005b34801561072f57600080fd5b506107386121c7565b604051808273ffffffffffffffffffffffffffffffffffffffff1673ffffffffffffffffffffffffffffffffffffffff16815260200191505060405180910390f35b600060026000836000191660001916815260200190815260200160002060009054906101000a900473ffffffffffffffffffffffffffffffffffffffff169050919050565b6000823373ffffffffffffffffffffffffffffffffffffffff1660026000836000191660001916815260200190815260200160002060009054906101000a900473ffffffffffffffffffffffffffffffffffffffff1673ffffffffffffffffffffffffffffffffffffffff161415156108a0576040517f08c379a00000000000000000000000000000000000000000000000000000000081526004018080602001828103825260168152602001807f53656e646572206e6f7420617574686f72697a65642e0000000000000000000081525060200191505060405180910390fd5b600073ffffffffffffffffffffffffffffffffffffffff166003846040518082805190602001908083835b6020831015156108f057805182526020820191506020810190506020830392506108cb565b6001836020036101000a038019825116818451168082178552505050505050905001915050908152602001604051809103902060009054906101000a900473ffffffffffffffffffffffffffffffffffffffff1673ffffffffffffffffffffffffffffffffffffffff16141515156109d0576040517f08c379a00000000000000000000000000000000000000000000000000000000081526004018080602001828103825260178152602001807f56657273696f6e20646f6573206e6f742065786973742e00000000000000000081525060200191505060405180910390fd5b60016000856000191660001916815260200190815260200160002060009054906101000a900473ffffffffffffffffffffffffffffffffffffffff1691508173ffffffffffffffffffffffffffffffffffffffff1663d784d4266003856040518082805190602001908083835b602083101515610a625780518252602082019150602081019050602083039250610a3d565b6001836020036101000a038019825116818451168082178552505050505050905001915050908152602001604051809103902060009054906101000a900473ffffffffffffffffffffffffffffffffffffffff166040518263ffffffff167c0100000000000000000000000000000000000000000000000000000000028152600401808273ffffffffffffffffffffffffffffffffffffffff1673ffffffffffffffffffffffffffffffffffffffff168152602001915050600060405180830381600087803b158015610b3457600080fd5b505af1158015610b48573d6000803e3d6000fd5b50505050826004600060016000886000191660001916815260200190815260200160002060009054906101000a900473ffffffffffffffffffffffffffffffffffffffff1673ffffffffffffffffffffffffffffffffffffffff1673ffffffffffffffffffffffffffffffffffffffff1681526020019081526020016000209080519060200190610bda9291906121ec565b50826040518082805190602001908083835b602083101515610c115780518252602082019150602081019050602083039250610bec565b6001836020036101000a038019825116818451168082178552505050505050905001915050604051809103902084600019167ff484e4534e19040e90fc73bc52bae5162e22375cd7d93e8b1a1b0c00bd9da90f60405160405180910390a350505050565b60008073ffffffffffffffffffffffffffffffffffffffff1660016000866000191660001916815260200190815260200160002060009054906101000a900473ffffffffffffffffffffffffffffffffffffffff1673ffffffffffffffffffffffffffffffffffffffff16141515610d7b576040517f08c379a00000000000000000000000000000000000000000000000000000000081526004018080602001828103825260268152602001807f50726f787920616c72656164792065786973747320666f72207468697320636f81526020017f6e74656e742e000000000000000000000000000000000000000000000000000081525060400191505060405180910390fd5b600073ffffffffffffffffffffffffffffffffffffffff166003846040518082805190602001908083835b602083101515610dcb5780518252602082019150602081019050602083039250610da6565b6001836020036101000a038019825116818451168082178552505050505050905001915050908152602001604051809103902060009054906101000a900473ffffffffffffffffffffffffffffffffffffffff1673ffffffffffffffffffffffffffffffffffffffff1614151515610eab576040517f08c379a00000000000000000000000000000000000000000000000000000000081526004018080602001828103825260178152602001807f56657273696f6e20646f6573206e6f742065786973742e00000000000000000081525060200191505060405180910390fd5b306003846040518082805190602001908083835b602083101515610ee45780518252602082019150602081019050602083039250610ebf565b6001836020036101000a038019825116818451168082178552505050505050905001915050908152602001604051809103902060009054906101000a900473ffffffffffffffffffffffffffffffffffffffff16610f4061226c565b808373ffffffffffffffffffffffffffffffffffffffff1673ffffffffffffffffffffffffffffffffffffffff1681526020018273ffffffffffffffffffffffffffffffffffffffff1673ffffffffffffffffffffffffffffffffffffffff16815260200192505050604051809103906000f080158015610fc5573d6000803e3d6000fd5b5090508060016000866000191660001916815260200190815260200160002060006101000a81548173ffffffffffffffffffffffffffffffffffffffff021916908373ffffffffffffffffffffffffffffffffffffffff1602179055503360026000866000191660001916815260200190815260200160002060006101000a81548173ffffffffffffffffffffffffffffffffffffffff021916908373ffffffffffffffffffffffffffffffffffffffff160217905550611087848484611249565b83600019163373ffffffffffffffffffffffffffffffffffffffff167f9b33caff81bc823f7b9b55dad840ba4a5701d511efb96e05bfa50db060e0413d83604051808273ffffffffffffffffffffffffffffffffffffffff1673ffffffffffffffffffffffffffffffffffffffff16815260200191505060405180910390a350505050565b600080600073ffffffffffffffffffffffffffffffffffffffff166000809054906101000a900473ffffffffffffffffffffffffffffffffffffffff1673ffffffffffffffffffffffffffffffffffffffff161415156111fa576040517f08c379a00000000000000000000000000000000000000000000000000000000081526004018080602001828103825260268152602001807f52656769737472792068617320616c7265616479206265656e20696e6974696181526020017f6c697a65642e000000000000000000000000000000000000000000000000000081525060400191505060405180910390fd5b60208301915081519050806000806101000a81548173ffffffffffffffffffffffffffffffffffffffff021916908373ffffffffffffffffffffffffffffffffffffffff160217905550505050565b6000833373ffffffffffffffffffffffffffffffffffffffff1660026000836000191660001916815260200190815260200160002060009054906101000a900473ffffffffffffffffffffffffffffffffffffffff1673ffffffffffffffffffffffffffffffffffffffff1614151561132a576040517f08c379a00000000000000000000000000000000000000000000000000000000081526004018080602001828103825260168152602001807f53656e646572206e6f7420617574686f72697a65642e0000000000000000000081525060200191505060405180910390fd5b600073ffffffffffffffffffffffffffffffffffffffff166003856040518082805190602001908083835b60208310151561137a5780518252602082019150602081019050602083039250611355565b6001836020036101000a038019825116818451168082178552505050505050905001915050908152602001604051809103902060009054906101000a900473ffffffffffffffffffffffffffffffffffffffff1673ffffffffffffffffffffffffffffffffffffffff161415151561145a576040517f08c379a00000000000000000000000000000000000000000000000000000000081526004018080602001828103825260178152602001807f56657273696f6e20646f6573206e6f742065786973742e00000000000000000081525060200191505060405180910390fd5b836040516020018082805190602001908083835b602083101515611493578051825260208201915060208101905060208303925061146e565b6001836020036101000a0380198251168184511680821785525050505050509050019150506040516020818303038152906040526040518082805190602001908083835b6020831015156114fc57805182526020820191506020810190506020830392506114d7565b6001836020036101000a038019825116818451168082178552505050505050905001915050604051809103902060001916600460008473ffffffffffffffffffffffffffffffffffffffff1673ffffffffffffffffffffffffffffffffffffffff16815260200190815260200160002060405160200180828054600181600116156101000203166002900480156115ca5780601f106115a85761010080835404028352918201916115ca565b820191906000526020600020905b8154815290600101906020018083116115b6575b50509150506040516020818303038152906040526040518082805190602001908083835b60208310151561161357805182526020820191506020810190506020830392506115ee565b6001836020036101000a038019825116818451168082178552505050505050905001915050604051809103902060001916141515156116e0576040517f08c379a00000000000000000000000000000000000000000000000000000000081526004018080602001828103825260218152602001807f50726f787920697320616c7265616479206f6e20746869732076657273696f6e81526020017f2e0000000000000000000000000000000000000000000000000000000000000081525060400191505060405180910390fd5b60016000866000191660001916815260200190815260200160002060009054906101000a900473ffffffffffffffffffffffffffffffffffffffff1691508173ffffffffffffffffffffffffffffffffffffffff1663d784d4266003866040518082805190602001908083835b602083101515611772578051825260208201915060208101905060208303925061174d565b6001836020036101000a038019825116818451168082178552505050505050905001915050908152602001604051809103902060009054906101000a900473ffffffffffffffffffffffffffffffffffffffff166040518263ffffffff167c0100000000000000000000000000000000000000000000000000000000028152600401808273ffffffffffffffffffffffffffffffffffffffff1673ffffffffffffffffffffffffffffffffffffffff168152602001915050600060405180830381600087803b15801561184457600080fd5b505af1158015611858573d6000803e3d6000fd5b5050505083600460008473ffffffffffffffffffffffffffffffffffffffff1673ffffffffffffffffffffffffffffffffffffffff16815260200190815260200160002090805190602001906118af9291906121ec565b508173ffffffffffffffffffffffffffffffffffffffff16836040516024018080602001828103825283818151815260200191508051906020019080838360005b8381101561190b5780820151818401526020810190506118f0565b50505050905090810190601f1680156119385780820380516001836020036101000a031916815260200191505b50925050506040516020818303038152906040527f4ddf47d4000000000000000000000000000000000000000000000000000000007bffffffffffffffffffffffffffffffffffffffffffffffffffffffff19166020820180517bffffffffffffffffffffffffffffffffffffffffffffffffffffffff838183161783525050505060405180828051906020019080838360005b838110156119e75780820151818401526020810190506119cc565b50505050905090810190601f168015611a145780820380516001836020036101000a031916815260200191505b509150506000604051808303816000865af19150501515611a9d576040517f08c379a000000000000000000000000000000000000000000000000000000000815260040180806020018281038252600c8152602001807f496e6974206661696c65642e000000000000000000000000000000000000000081525060200191505060405180910390fd5b836040518082805190602001908083835b602083101515611ad35780518252602082019150602081019050602083039250611aae565b6001836020036101000a038019825116818451168082178552505050505050905001915050604051809103902085600019167ff484e4534e19040e90fc73bc52bae5162e22375cd7d93e8b1a1b0c00bd9da90f60405160405180910390a35050505050565b60006003826040518082805190602001908083835b602083101515611b725780518252602082019150602081019050602083039250611b4d565b6001836020036101000a038019825116818451168082178552505050505050905001915050908152602001604051809103902060009054906101000a900473ffffffffffffffffffffffffffffffffffffffff169050919050565b600060016000836000191660001916815260200190815260200160002060009054906101000a900473ffffffffffffffffffffffffffffffffffffffff169050919050565b60058054600181600116156101000203166002900480601f016020809104026020016040519081016040528092919081815260200182805460018160011615610100020316600290048015611ca85780601f10611c7d57610100808354040283529160200191611ca8565b820191906000526020600020905b815481529060010190602001808311611c8b57829003601f168201915b505050505081565b606060046000611cbf84611bcd565b73ffffffffffffffffffffffffffffffffffffffff1673ffffffffffffffffffffffffffffffffffffffff1681526020019081526020016000208054600181600116156101000203166002900480601f016020809104026020016040519081016040528092919081815260200182805460018160011615610100020316600290048015611d8d5780601f10611d6257610100808354040283529160200191611d8d565b820191906000526020600020905b815481529060010190602001808311611d7057829003601f168201915b50505050509050919050565b60046020528060005260406000206000915090508054600181600116156101000203166002900480601f016020809104026020016040519081016040528092919081815260200182805460018160011615610100020316600290048015611e415780601f10611e1657610100808354040283529160200191611e41565b820191906000526020600020905b815481529060010190602001808311611e2457829003601f168201915b505050505081565b6000809054906101000a900473ffffffffffffffffffffffffffffffffffffffff1673ffffffffffffffffffffffffffffffffffffffff163373ffffffffffffffffffffffffffffffffffffffff16141515611f0d576040517f08c379a00000000000000000000000000000000000000000000000000000000081526004018080602001828103825260168152602001807f53656e646572206e6f7420617574686f72697a65642e0000000000000000000081525060200191505060405180910390fd5b600073ffffffffffffffffffffffffffffffffffffffff166003836040518082805190602001908083835b602083101515611f5d5780518252602082019150602081019050602083039250611f38565b6001836020036101000a038019825116818451168082178552505050505050905001915050908152602001604051809103902060009054906101000a900473ffffffffffffffffffffffffffffffffffffffff1673ffffffffffffffffffffffffffffffffffffffff1614151561203c576040517f08c379a00000000000000000000000000000000000000000000000000000000081526004018080602001828103825260178152602001807f56657273696f6e20616c7265616479206578697374732e00000000000000000081525060200191505060405180910390fd5b806003836040518082805190602001908083835b6020831015156120755780518252602082019150602081019050602083039250612050565b6001836020036101000a038019825116818451168082178552505050505050905001915050908152602001604051809103902060006101000a81548173ffffffffffffffffffffffffffffffffffffffff021916908373ffffffffffffffffffffffffffffffffffffffff16021790555081600590805190602001906120fc9291906121ec565b50816040518082805190602001908083835b602083101515612133578051825260208201915060208101905060208303925061210e565b6001836020036101000a03801982511681845116808217855250505050505090500191505060405180910390207fd8fe3cc65207affabfb13b243ebe763cc4b295ded54e52ec92257e7ba1434da682604051808273ffffffffffffffffffffffffffffffffffffffff1673ffffffffffffffffffffffffffffffffffffffff16815260200191505060405180910390a25050565b6000809054906101000a900473ffffffffffffffffffffffffffffffffffffffff1681565b828054600181600116156101000203166002900490600052602060002090601f016020900481019282601f1061222d57805160ff191683800117855561225b565b8280016001018555821561225b579182015b8281111561225a57825182559160200191906001019061223f565b5b509050612268919061227c565b5090565b604051610366806122a283390190565b61229e91905b8082111561229a576000816000905550600101612282565b5090565b905600608060405234801561001057600080fd5b50604051604080610366833981018060405281019080805190602001909291908051906020019092919050505060008060405180807f696f2e6172612e70726f78792e7265676973747279000000000000000000000081525060150190506040518091039020915060405180807f696f2e6172612e70726f78792e696d706c656d656e746174696f6e0000000000815250601b019050604051809103902090508382558281555050505061029d806100c96000396000f300608060405260043610610041576000357c0100000000000000000000000000000000000000000000000000000000900463ffffffff168063d784d426146100a7575b60008060405180807f696f2e6172612e70726f78792e696d706c656d656e746174696f6e0000000000815250601b019050604051809103902091508154905060405136600082376000803683855af43d806000843e81600081146100a3578184f35b8184fd5b3480156100b357600080fd5b506100e8600480360381019080803573ffffffffffffffffffffffffffffffffffffffff1690602001909291905050506100ea565b005b600080600060405180807f696f2e6172612e70726f78792e72656769737472790000000000000000000000815250601501905060405180910390209150815490508073ffffffffffffffffffffffffffffffffffffffff163373ffffffffffffffffffffffffffffffffffffffff161415156101f4576040517f08c379a000000000000000000000000000000000000000000000000000000000815260040180806020018281038252602c8152602001807f4f6e6c79207468652041726152656769737472792063616e207570677261646581526020017f20746869732070726f78792e000000000000000000000000000000000000000081525060400191505060405180910390fd5b600073ffffffffffffffffffffffffffffffffffffffff168473ffffffffffffffffffffffffffffffffffffffff161415151561023057600080fd5b60405180807f696f2e6172612e70726f78792e696d706c656d656e746174696f6e0000000000815250601b01905060405180910390209250838355505050505600a165627a7a7230582005642ac97894b238b61c8ffa819c5dc691441cccd53318629232345ba3846b4a0029a165627a7a72305820d86124fe57fa5dd0af9e635515e92ef2a00259976e1177bdf642b23be1cdbc400029",
  "source": "pragma solidity ^0.4.24;\n\nimport \"../AraProxy.sol\";\n\ncontract Registry {\n  address public owner_;\n  mapping (bytes32 => address) private proxies_; // contentId (unhashed) => proxy\n  mapping (bytes32 => address) private proxyOwners_; // contentId (unhashed) => owner\n  mapping (string => address) private versions_; // version => implementation\n  mapping (address => string) public proxyImpls_; // proxy => version\n  string public latestVersion_;\n\n  event ProxyDeployed(address indexed _owner, bytes32 indexed _contentId, address _address);\n  event ProxyUpgraded(bytes32 indexed _contentId, string indexed _version);\n  event StandardAdded(string indexed _version, address _address);\n\n  function init(bytes _data) public {\n    require(owner_ == address(0), 'Registry has already been initialized.');\n\n    uint256 btsptr;\n    address ownerAddr;\n    assembly {\n      btsptr := add(_data, 32)\n      ownerAddr := mload(btsptr)\n    }\n    owner_ = ownerAddr;\n  }\n\n  modifier restricted() {\n    require (\n      msg.sender == owner_,\n      \"Sender not authorized.\"\n    );\n    _;\n  }\n\n  modifier onlyProxyOwner(bytes32 _contentId) {\n    require(\n      proxyOwners_[_contentId] == msg.sender,\n      \"Sender not authorized.\"\n    );\n    _;\n  }\n\n  function getProxyAddress(bytes32 _contentId) public view returns (address) {\n    return proxies_[_contentId];\n  }\n\n  function getProxyOwner(bytes32 _contentId) public view returns (address) {\n    return proxyOwners_[_contentId];\n  }\n\n  function getImplementation(string _version) public view returns (address) {\n    return versions_[_version];\n  }\n\n  function getProxyVersion(bytes32 _contentId) public view returns (string) {\n    return proxyImpls_[getProxyAddress(_contentId)];\n  }\n  \n  /**\n   * @dev AFS Proxy Factory\n   * @param _contentId The unhashed methodless content DID\n   * @param _version The implementation version to use with this Proxy\n   * @param _data AFS initialization data\n   * @return address of the newly deployed Proxy\n   */\n  function createAFS(bytes32 _contentId, string _version, bytes _data) public {\n    require(proxies_[_contentId] == address(0), \"Proxy already exists for this content.\");\n    require(versions_[_version] != address(0), \"Version does not exist.\");\n    AraProxy proxy = new AraProxy(address(this), versions_[_version]);\n    proxies_[_contentId] = proxy;\n    proxyOwners_[_contentId] = msg.sender;\n    upgradeProxyAndCall(_contentId, _version, _data);\n    emit ProxyDeployed(msg.sender, _contentId, address(proxy));\n  }\n\n  /**\n   * @dev Upgrades proxy implementation version\n   * @param _contentId The unhashed methodless content DID\n   * @param _version The implementation version to upgrade this Proxy to\n   */\n  function upgradeProxy(bytes32 _contentId, string _version) public onlyProxyOwner(_contentId) {\n    require(versions_[_version] != address(0), \"Version does not exist.\");\n    AraProxy proxy = AraProxy(proxies_[_contentId]);\n    proxy.setImplementation(versions_[_version]);\n    proxyImpls_[proxies_[_contentId]] = _version;\n    emit ProxyUpgraded(_contentId, _version);\n  }\n\n  /**\n   * @dev Upgrades proxy implementation version with initialization\n   * @param _contentId The unhashed methodless content DID\n   * @param _version The implementation version to upgrade this Proxy to\n   * @param _data AFS initialization data\n   */\n  function upgradeProxyAndCall(bytes32 _contentId, string _version, bytes _data) public onlyProxyOwner(_contentId) {\n    require(versions_[_version] != address(0), \"Version does not exist.\");\n    require(keccak256(abi.encodePacked(proxyImpls_[proxy])) != keccak256(abi.encodePacked(_version)), \"Proxy is already on this version.\");\n    AraProxy proxy = AraProxy(proxies_[_contentId]);\n    proxy.setImplementation(versions_[_version]);\n    proxyImpls_[proxy] = _version;\n    require(address(proxy).call(abi.encodeWithSignature(\"init(bytes)\", _data)), \"Init failed.\");\n    emit ProxyUpgraded(_contentId, _version);\n  }\n\n  /**\n   * @dev Adds a new AFS implementation standard\n   * @param _version The implementation version name\n   * @param _address The address of the new AFS implementation\n   */\n  function addStandardVersion(string _version, address _address) public restricted {\n    require(versions_[_version] == address(0), \"Version already exists.\");\n    versions_[_version] = _address;\n    latestVersion_ = _version;\n    emit StandardAdded(_version, _address);\n  }\n}\n",
  "sourcePath": "/Users/ericjiang/Littlstar/ara-contracts/contracts/ignored_contracts/Registry.sol",
  "compiler": {
    "name": "solc",
    "version": "0.4.24+commit.e67f0147.Emscripten.clang"
  },
  "schemaVersion": "2.0.1",
  "updatedAt": "2019-08-29T17:13:15.732Z"
}