{
  "contractName": "Registry",
  "abi": [
    {
      "constant": true,
      "inputs": [],
      "name": "standard_",
      "outputs": [
        {
          "name": "",
          "type": "address"
        }
      ],
      "payable": false,
      "stateMutability": "view",
      "type": "function"
    },
    {
      "constant": true,
      "inputs": [],
      "name": "version_",
      "outputs": [
        {
          "name": "",
          "type": "string"
        }
      ],
      "payable": false,
      "stateMutability": "view",
      "type": "function"
    },
    {
      "constant": true,
      "inputs": [],
      "name": "owner_",
      "outputs": [
        {
          "name": "",
          "type": "address"
        }
      ],
      "payable": false,
      "stateMutability": "view",
      "type": "function"
    },
    {
      "inputs": [],
      "payable": false,
      "stateMutability": "nonpayable",
      "type": "constructor"
    },
    {
      "constant": true,
      "inputs": [
        {
          "name": "_contentId",
          "type": "string"
        }
      ],
      "name": "getProxyAddress",
      "outputs": [
        {
          "name": "",
          "type": "address"
        }
      ],
      "payable": false,
      "stateMutability": "view",
      "type": "function"
    },
    {
      "constant": false,
      "inputs": [
        {
          "name": "_contentId",
          "type": "string"
        },
        {
          "name": "_address",
          "type": "address"
        }
      ],
      "name": "addProxyAddress",
      "outputs": [],
      "payable": false,
      "stateMutability": "nonpayable",
      "type": "function"
    },
    {
      "constant": false,
      "inputs": [
        {
          "name": "_version",
          "type": "string"
        },
        {
          "name": "_address",
          "type": "address"
        }
      ],
      "name": "addStandardVersion",
      "outputs": [],
      "payable": false,
      "stateMutability": "nonpayable",
      "type": "function"
    }
  ],
  "bytecode": "0x608060405234801561001057600080fd5b50336000806101000a81548173ffffffffffffffffffffffffffffffffffffffff021916908373ffffffffffffffffffffffffffffffffffffffff160217905550610ad1806100606000396000f300608060405260043610610078576000357c0100000000000000000000000000000000000000000000000000000000900463ffffffff16806336f80eca1461007d5780637eab1f2b146100d4578063c27e35a71461014f578063cb0eb926146101d8578063dd1bb1fc14610261578063e7663079146102f1575b600080fd5b34801561008957600080fd5b50610092610348565b604051808273ffffffffffffffffffffffffffffffffffffffff1673ffffffffffffffffffffffffffffffffffffffff16815260200191505060405180910390f35b3480156100e057600080fd5b5061010d60048036038101908080359060200190820180359060200191909192939192939050505061036e565b604051808273ffffffffffffffffffffffffffffffffffffffff1673ffffffffffffffffffffffffffffffffffffffff16815260200191505060405180910390f35b34801561015b57600080fd5b506101d6600480360381019080803590602001908201803590602001908080601f0160208091040260200160405190810160405280939291908181526020018383808284378201915050505050509192919290803573ffffffffffffffffffffffffffffffffffffffff1690602001909291905050506103be565b005b3480156101e457600080fd5b5061025f600480360381019080803590602001908201803590602001908080601f0160208091040260200160405190810160405280939291908181526020018383808284378201915050505050509192919290803573ffffffffffffffffffffffffffffffffffffffff169060200190929190505050610470565b005b34801561026d57600080fd5b5061027661093d565b6040518080602001828103825283818151815260200191508051906020019080838360005b838110156102b657808201518184015260208101905061029b565b50505050905090810190601f1680156102e35780820380516001836020036101000a031916815260200191505b509250505060405180910390f35b3480156102fd57600080fd5b506103066109db565b604051808273ffffffffffffffffffffffffffffffffffffffff1673ffffffffffffffffffffffffffffffffffffffff16815260200191505060405180910390f35b600260009054906101000a900473ffffffffffffffffffffffffffffffffffffffff1681565b60006001838360405180838380828437820191505092505050908152602001604051809103902060009054906101000a900473ffffffffffffffffffffffffffffffffffffffff16905092915050565b6000809054906101000a900473ffffffffffffffffffffffffffffffffffffffff1673ffffffffffffffffffffffffffffffffffffffff163373ffffffffffffffffffffffffffffffffffffffff16141561046c5780600260006101000a81548173ffffffffffffffffffffffffffffffffffffffff021916908373ffffffffffffffffffffffffffffffffffffffff160217905550816003908051906020019061046a929190610a00565b505b5050565b600080838360008060006001856040518082805190602001908083835b6020831015156104b2578051825260208201915060208101905060208303925061048d565b6001836020036101000a038019825116818451168082178552505050505050905001915050908152602001604051809103902060009054906101000a900473ffffffffffffffffffffffffffffffffffffffff1692508291508390503373ffffffffffffffffffffffffffffffffffffffff168173ffffffffffffffffffffffffffffffffffffffff1663e76630796040518163ffffffff167c0100000000000000000000000000000000000000000000000000000000028152600401602060405180830381600087803b15801561058957600080fd5b505af115801561059d573d6000803e3d6000fd5b505050506040513d60208110156105b357600080fd5b810190808051906020019092919050505073ffffffffffffffffffffffffffffffffffffffff161480156107855750600073ffffffffffffffffffffffffffffffffffffffff168373ffffffffffffffffffffffffffffffffffffffff16148061078457508073ffffffffffffffffffffffffffffffffffffffff1663e76630796040518163ffffffff167c0100000000000000000000000000000000000000000000000000000000028152600401602060405180830381600087803b15801561067c57600080fd5b505af1158015610690573d6000803e3d6000fd5b505050506040513d60208110156106a657600080fd5b810190808051906020019092919050505073ffffffffffffffffffffffffffffffffffffffff168273ffffffffffffffffffffffffffffffffffffffff1663e76630796040518163ffffffff167c0100000000000000000000000000000000000000000000000000000000028152600401602060405180830381600087803b15801561073157600080fd5b505af1158015610745573d6000803e3d6000fd5b505050506040513d602081101561075b57600080fd5b810190808051906020019092919050505073ffffffffffffffffffffffffffffffffffffffff16145b5b15610932578796508673ffffffffffffffffffffffffffffffffffffffff16635c60da1b6040518163ffffffff167c0100000000000000000000000000000000000000000000000000000000028152600401602060405180830381600087803b1580156107f157600080fd5b505af1158015610805573d6000803e3d6000fd5b505050506040513d602081101561081b57600080fd5b81019080805190602001909291905050509550600260009054906101000a900473ffffffffffffffffffffffffffffffffffffffff1673ffffffffffffffffffffffffffffffffffffffff168673ffffffffffffffffffffffffffffffffffffffff1614151561088757fe5b8760018a6040518082805190602001908083835b6020831015156108c0578051825260208201915060208101905060208303925061089b565b6001836020036101000a038019825116818451168082178552505050505050905001915050908152602001604051809103902060006101000a81548173ffffffffffffffffffffffffffffffffffffffff021916908373ffffffffffffffffffffffffffffffffffffffff1602179055505b505050505050505050565b60038054600181600116156101000203166002900480601f0160208091040260200160405190810160405280929190818152602001828054600181600116156101000203166002900480156109d35780601f106109a8576101008083540402835291602001916109d3565b820191906000526020600020905b8154815290600101906020018083116109b657829003601f168201915b505050505081565b6000809054906101000a900473ffffffffffffffffffffffffffffffffffffffff1681565b828054600181600116156101000203166002900490600052602060002090601f016020900481019282601f10610a4157805160ff1916838001178555610a6f565b82800160010185558215610a6f579182015b82811115610a6e578251825591602001919060010190610a53565b5b509050610a7c9190610a80565b5090565b610aa291905b80821115610a9e576000816000905550600101610a86565b5090565b905600a165627a7a72305820822a72e03c7698d33d90431ecce40a8a207ddb797b489e8a8f38101ab328ad9f0029",
  "source": "pragma solidity 0.4.24;\n\nimport \"./Proxy.sol\";\n\ncontract Registry {\n  address public owner_;\n  mapping (string => address) private proxies_; // contentId => proxy contract address\n  address public standard_;\n  string public version_;\n\n  constructor() public {\n    owner_ = msg.sender;\n  }\n\n  modifier restricted() {\n    if (msg.sender == owner_) _;\n  }\n\n  modifier onlyProxyOwner(string _contentId, address _address) {\n    address oldProxyAddress = proxies_[_contentId];\n    Proxy oldProxy = Proxy(oldProxyAddress);\n    Proxy newProxy = Proxy(_address);\n    if (newProxy.owner_() == msg.sender && (oldProxyAddress == address(0) || oldProxy.owner_() == newProxy.owner_())) _;\n  }\n\n  function getProxyAddress(string _contentId) external view returns (address) {\n    return proxies_[_contentId];\n  }\n\n  function addProxyAddress(string _contentId, address _address) public onlyProxyOwner(_contentId, _address) {\n    Proxy proxy = Proxy(_address);\n    address standard = proxy.implementation(); // call\n    assert(standard == standard_);\n    proxies_[_contentId] = _address;\n  }\n\n  function addStandardVersion(string _version, address _address) public restricted {\n    standard_ = _address;\n    version_ = _version;\n  }\n}\n",
  "sourcePath": "/Users/ericjiang/Littlstar/ara-contracts/contracts/Registry.sol",
  "compiler": {
    "name": "solc",
    "version": "0.4.24+commit.e67f0147.Emscripten.clang"
  },
  "schemaVersion": "2.0.1",
  "updatedAt": "2018-07-30T16:46:04.833Z"
}